{
  "_format": "hh-sol-artifact-1",
  "contractName": "WEVMOS9TestCaller",
  "sourceName": "solidity/precompiles/werc20/testdata/WEVMOS9TestCaller.sol",
  "abi": [
    {
      "inputs": [
        {
          "internalType": "address payable",
          "name": "_wrappedTokenAddress",
          "type": "address"
        }
      ],
      "stateMutability": "nonpayable",
      "type": "constructor"
    },
    {
      "inputs": [],
      "name": "counter",
      "outputs": [
        {
          "internalType": "uint256",
          "name": "",
          "type": "uint256"
        }
      ],
      "stateMutability": "view",
      "type": "function"
    },
    {
      "inputs": [
        {
          "internalType": "bool",
          "name": "before",
          "type": "bool"
        },
        {
          "internalType": "bool",
          "name": "aft",
          "type": "bool"
        }
      ],
      "name": "depositWithRevert",
      "outputs": [],
      "stateMutability": "payable",
      "type": "function"
    },
    {
      "inputs": [],
      "name": "wrappedToken",
      "outputs": [
        {
          "internalType": "contract IWERC20",
          "name": "",
          "type": "address"
        }
      ],
      "stateMutability": "view",
      "type": "function"
    }
  ],
  "bytecode": "0x608060405234801561001057600080fd5b50604051610686380380610686833981810160405281019061003291906100e3565b806000806101000a81548173ffffffffffffffffffffffffffffffffffffffff021916908373ffffffffffffffffffffffffffffffffffffffff160217905550600060018190555050610110565b600080fd5b600073ffffffffffffffffffffffffffffffffffffffff82169050919050565b60006100b082610085565b9050919050565b6100c0816100a5565b81146100cb57600080fd5b50565b6000815190506100dd816100b7565b92915050565b6000602082840312156100f9576100f8610080565b5b6000610107848285016100ce565b91505092915050565b6105678061011f6000396000f3fe6080604052600436106100345760003560e01c80635dab6f8c1461003957806361bc221a14610055578063996c6cc314610080575b600080fd5b610053600480360381019061004e919061029a565b6100ab565b005b34801561006157600080fd5b5061006a610233565b60405161007791906102f3565b60405180910390f35b34801561008c57600080fd5b50610095610239565b6040516100a2919061038d565b60405180910390f35b600160008154809291906100be906103d7565b919050555060003411610106576040517f08c379a00000000000000000000000000000000000000000000000000000000081526004016100fd9061047c565b60405180910390fd5b60008054906101000a900473ffffffffffffffffffffffffffffffffffffffff1673ffffffffffffffffffffffffffffffffffffffff1663d0e30db0346040518263ffffffff1660e01b81526004016000604051808303818588803b15801561016e57600080fd5b505af1158015610182573d6000803e3d6000fd5b505050505081156101cf5760006101ce576040517f08c379a00000000000000000000000000000000000000000000000000000000081526004016101c5906104e8565b60405180910390fd5b5b600160008154809291906101e290610508565b9190505550801561022f57600061022e576040517f08c379a0000000000000000000000000000000000000000000000000000000008152600401610225906104e8565b60405180910390fd5b5b5050565b60015481565b60008054906101000a900473ffffffffffffffffffffffffffffffffffffffff1681565b600080fd5b60008115159050919050565b61027781610262565b811461028257600080fd5b50565b6000813590506102948161026e565b92915050565b600080604083850312156102b1576102b061025d565b5b60006102bf85828601610285565b92505060206102d085828601610285565b9150509250929050565b6000819050919050565b6102ed816102da565b82525050565b600060208201905061030860008301846102e4565b92915050565b600073ffffffffffffffffffffffffffffffffffffffff82169050919050565b6000819050919050565b600061035361034e6103498461030e565b61032e565b61030e565b9050919050565b600061036582610338565b9050919050565b60006103778261035a565b9050919050565b6103878161036c565b82525050565b60006020820190506103a2600083018461037e565b92915050565b7f4e487b7100000000000000000000000000000000000000000000000000000000600052601160045260246000fd5b60006103e2826102da565b91507fffffffffffffffffffffffffffffffffffffffffffffffffffffffffffffffff8203610414576104136103a8565b5b600182019050919050565b600082825260208201905092915050565b7f4e6f2045746865722073656e7400000000000000000000000000000000000000600082015250565b6000610466600d8361041f565b915061047182610430565b602082019050919050565b6000602082019050818103600083015261049581610459565b9050919050565b7f7265766572742068657265000000000000000000000000000000000000000000600082015250565b60006104d2600b8361041f565b91506104dd8261049c565b602082019050919050565b60006020820190508181036000830152610501816104c5565b9050919050565b6000610513826102da565b915060008203610526576105256103a8565b5b60018203905091905056fea26469706673582212204f769d778212a64090e1a933b58b5aa3b04a4ed1170cde40f68e3be43a2d447e64736f6c63430008140033",
  "linkReferences": {},
  "deployedLinkReferences": {}
}