{
  "_format": "hh-sol-artifact-1",
  "contractName": "WEVMOS9TestCaller",
  "sourceName": "solidity/precompiles/werc20/testdata/WEVMOS9TestCaller.sol",
  "abi": [
    {
      "inputs": [
        {
          "internalType": "address payable",
          "name": "_wrappedTokenAddress",
          "type": "address"
        }
      ],
      "stateMutability": "nonpayable",
      "type": "constructor"
    },
    {
      "anonymous": false,
      "inputs": [
        {
          "indexed": false,
          "internalType": "string",
          "name": "message",
          "type": "string"
        }
      ],
      "name": "Log",
      "type": "event"
    },
    {
      "inputs": [],
      "name": "WEVMOS",
      "outputs": [
        {
          "internalType": "address payable",
          "name": "",
          "type": "address"
        }
      ],
      "stateMutability": "view",
      "type": "function"
    },
    {
      "inputs": [],
      "name": "counter",
      "outputs": [
        {
          "internalType": "uint256",
          "name": "",
          "type": "uint256"
        }
      ],
      "stateMutability": "view",
      "type": "function"
    },
    {
      "inputs": [],
      "name": "depositWithRevert",
      "outputs": [],
      "stateMutability": "payable",
      "type": "function"
    }
  ],
  "bytecode": "0x60a060405234801561001057600080fd5b5060405161032f38038061032f833981810160405281019061003291906100d6565b8073ffffffffffffffffffffffffffffffffffffffff1660808173ffffffffffffffffffffffffffffffffffffffff16815250506000808190555050610103565b600080fd5b600073ffffffffffffffffffffffffffffffffffffffff82169050919050565b60006100a382610078565b9050919050565b6100b381610098565b81146100be57600080fd5b50565b6000815190506100d0816100aa565b92915050565b6000602082840312156100ec576100eb610073565b5b60006100fa848285016100c1565b91505092915050565b60805161020b61012460003960008181609b0152610123015261020b6000f3fe6080604052600436106100345760003560e01c80635a2c25d71461003957806361bc221a146100435780637cf5b4fc1461006e575b600080fd5b610041610099565b005b34801561004f57600080fd5b5061005861011b565b604051610065919061015e565b60405180910390f35b34801561007a57600080fd5b50610083610121565b60405161009091906101ba565b60405180910390f35b7f000000000000000000000000000000000000000000000000000000000000000073ffffffffffffffffffffffffffffffffffffffff1663d0e30db06040518163ffffffff1660e01b8152600401600060405180830381600087803b15801561010157600080fd5b505af1158015610115573d6000803e3d6000fd5b50505050565b60005481565b7f000000000000000000000000000000000000000000000000000000000000000081565b6000819050919050565b61015881610145565b82525050565b6000602082019050610173600083018461014f565b92915050565b600073ffffffffffffffffffffffffffffffffffffffff82169050919050565b60006101a482610179565b9050919050565b6101b481610199565b82525050565b60006020820190506101cf60008301846101ab565b9291505056fea26469706673582212205e495a063b6cb589cb5a9a4248af495d723abc153fb36e388bc8296d812508c464736f6c63430008140033",
  "linkReferences": {},
  "deployedLinkReferences": {}
}