{
  "_format": "hh-sol-artifact-1",
  "contractName": "WEVMOS9TestCaller",
  "sourceName": "solidity/precompiles/werc20/testdata/WEVMOS9TestCaller.sol",
  "abi": [
    {
      "inputs": [
        {
          "internalType": "address payable",
          "name": "_wrappedTokenAddress",
          "type": "address"
        }
      ],
      "stateMutability": "nonpayable",
      "type": "constructor"
    },
    {
      "anonymous": false,
      "inputs": [
        {
          "indexed": false,
          "internalType": "string",
          "name": "message",
          "type": "string"
        }
      ],
      "name": "Log",
      "type": "event"
    },
    {
      "inputs": [],
      "name": "WEVMOS",
      "outputs": [
        {
          "internalType": "address payable",
          "name": "",
          "type": "address"
        }
      ],
      "stateMutability": "view",
      "type": "function"
    },
    {
      "inputs": [],
      "name": "counter",
      "outputs": [
        {
          "internalType": "uint256",
          "name": "",
          "type": "uint256"
        }
      ],
      "stateMutability": "view",
      "type": "function"
    },
    {
      "inputs": [
        {
          "internalType": "bool",
          "name": "before",
          "type": "bool"
        },
        {
          "internalType": "bool",
          "name": "aft",
          "type": "bool"
        }
      ],
      "name": "depositWithRevert",
      "outputs": [],
      "stateMutability": "payable",
      "type": "function"
    }
  ],
  "bytecode": "0x60a060405234801561001057600080fd5b506040516105a23803806105a2833981810160405281019061003291906100d6565b8073ffffffffffffffffffffffffffffffffffffffff1660808173ffffffffffffffffffffffffffffffffffffffff16815250506000808190555050610103565b600080fd5b600073ffffffffffffffffffffffffffffffffffffffff82169050919050565b60006100a382610078565b9050919050565b6100b381610098565b81146100be57600080fd5b50565b6000815190506100d0816100aa565b92915050565b6000602082840312156100ec576100eb610073565b5b60006100fa848285016100c1565b91505092915050565b60805161047e6101246000396000818160c901526101fc015261047e6000f3fe6080604052600436106100345760003560e01c80635dab6f8c1461003957806361bc221a146100555780637cf5b4fc14610080575b600080fd5b610053600480360381019061004e919061025b565b6100ab565b005b34801561006157600080fd5b5061006a6101f4565b60405161007791906102b4565b60405180910390f35b34801561008c57600080fd5b506100956101fa565b6040516100a29190610310565b60405180910390f35b6000808154809291906100bd9061035a565b919050555060003490507f000000000000000000000000000000000000000000000000000000000000000073ffffffffffffffffffffffffffffffffffffffff1663d0e30db0826040518263ffffffff1660e01b81526004016000604051808303818588803b15801561012f57600080fd5b505af1158015610143573d6000803e3d6000fd5b5050505050821561019057600061018f576040517f08c379a0000000000000000000000000000000000000000000000000000000008152600401610186906103ff565b60405180910390fd5b5b6000808154809291906101a29061041f565b919050555081156101ef5760006101ee576040517f08c379a00000000000000000000000000000000000000000000000000000000081526004016101e5906103ff565b60405180910390fd5b5b505050565b60005481565b7f000000000000000000000000000000000000000000000000000000000000000081565b600080fd5b60008115159050919050565b61023881610223565b811461024357600080fd5b50565b6000813590506102558161022f565b92915050565b600080604083850312156102725761027161021e565b5b600061028085828601610246565b925050602061029185828601610246565b9150509250929050565b6000819050919050565b6102ae8161029b565b82525050565b60006020820190506102c960008301846102a5565b92915050565b600073ffffffffffffffffffffffffffffffffffffffff82169050919050565b60006102fa826102cf565b9050919050565b61030a816102ef565b82525050565b60006020820190506103256000830184610301565b92915050565b7f4e487b7100000000000000000000000000000000000000000000000000000000600052601160045260246000fd5b60006103658261029b565b91507fffffffffffffffffffffffffffffffffffffffffffffffffffffffffffffffff82036103975761039661032b565b5b600182019050919050565b600082825260208201905092915050565b7f7265766572742068657265000000000000000000000000000000000000000000600082015250565b60006103e9600b836103a2565b91506103f4826103b3565b602082019050919050565b60006020820190508181036000830152610418816103dc565b9050919050565b600061042a8261029b565b91506000820361043d5761043c61032b565b5b60018203905091905056fea26469706673582212203d3e97b0a77f9600830da2e2cbaeb60b338f3a8a14102bdb21638d4010f269fd64736f6c63430008140033",
  "linkReferences": {},
  "deployedLinkReferences": {}
}