{
  "_format": "hh-sol-artifact-1",
  "contractName": "BurnGas",
  "sourceName": "contracts/BurnGas.sol",
  "abi": [
    {
      "inputs": [
        {
          "internalType": "uint256",
          "name": "count",
          "type": "uint256"
        }
      ],
      "name": "burnGas",
      "outputs": [],
      "stateMutability": "nonpayable",
      "type": "function"
    }
  ],
  "bytecode": "0x608060405234801561001057600080fd5b506101ad806100206000396000f3fe608060405234801561001057600080fd5b506004361061002b5760003560e01c80634ad5d16f14610030575b600080fd5b61004a600480360381019061004591906100d3565b61004c565b005b60005b81811015610094576000600a9080600181540180825580915050600190039060005260206000200160009091909190915055808061008c9061012f565b91505061004f565b5050565b600080fd5b6000819050919050565b6100b08161009d565b81146100bb57600080fd5b50565b6000813590506100cd816100a7565b92915050565b6000602082840312156100e9576100e8610098565b5b60006100f7848285016100be565b91505092915050565b7f4e487b7100000000000000000000000000000000000000000000000000000000600052601160045260246000fd5b600061013a8261009d565b91507fffffffffffffffffffffffffffffffffffffffffffffffffffffffffffffffff820361016c5761016b610100565b5b60018201905091905056fea2646970667358221220ffc32ddeaf83d856867223a146dc1f52480088bdd0365b3254c1f45f8991840a64736f6c63430008120033",
  "linkReferences": {},
  "deployedLinkReferences": {}
}