{
  "_format": "hh-sol-artifact-1",
  "contractName": "TestChainID",
  "sourceName": "contracts/ChainID.sol",
  "abi": [
    {
      "inputs": [],
      "name": "currentChainID",
      "outputs": [
        {
          "internalType": "uint256",
          "name": "",
          "type": "uint256"
        }
      ],
      "stateMutability": "view",
      "type": "function"
    }
  ],
  "bytecode": "0x608060405234801561001057600080fd5b5060ba8061001f6000396000f3fe6080604052348015600f57600080fd5b506004361060285760003560e01c8063b179e1e714602d575b600080fd5b60336047565b604051603e9190606b565b60405180910390f35b6000804690508091505090565b6000819050919050565b6065816054565b82525050565b6000602082019050607e6000830184605e565b9291505056fea26469706673582212205704f6b706f0c1610ddb5eaa6da064e9faf89ef95806c8b8d9dd9708ff7905ce64736f6c63430008120033",
  "linkReferences": {},
  "deployedLinkReferences": {}
}