{
  "_format": "hh-sol-artifact-1",
  "contractName": "StakingCaller",
  "sourceName": "solidity/precompiles/staking/testdata/StakingCaller.sol",
  "abi": [
    {
      "inputs": [
        {
          "internalType": "string",
          "name": "_validatorAddr",
          "type": "string"
        }
      ],
      "name": "approveDepositAndDelegate",
      "outputs": [],
      "stateMutability": "payable",
      "type": "function"
    },
    {
      "inputs": [
        {
          "internalType": "string",
          "name": "_validatorAddr",
          "type": "string"
        }
      ],
      "name": "approveDepositAndDelegateExceedingAllowance",
      "outputs": [],
      "stateMutability": "payable",
      "type": "function"
    },
    {
      "inputs": [
        {
          "internalType": "string",
          "name": "_validatorAddr",
          "type": "string"
        }
      ],
      "name": "approveDepositDelegateAndFailCustomLogic",
      "outputs": [],
      "stateMutability": "payable",
      "type": "function"
    },
    {
      "inputs": [
        {
          "internalType": "address",
          "name": "_contract",
          "type": "address"
        },
        {
          "internalType": "string",
          "name": "_validatorAddr",
          "type": "string"
        },
        {
          "internalType": "uint256",
          "name": "_amount",
          "type": "uint256"
        }
      ],
      "name": "callERC20AndDelegate",
      "outputs": [],
      "stateMutability": "nonpayable",
      "type": "function"
    },
    {
      "inputs": [],
      "name": "counter",
      "outputs": [
        {
          "internalType": "uint256",
          "name": "",
          "type": "uint256"
        }
      ],
      "stateMutability": "view",
      "type": "function"
    },
    {
      "inputs": [
        {
          "internalType": "address",
          "name": "_grantee",
          "type": "address"
        },
        {
          "internalType": "string",
          "name": "method",
          "type": "string"
        }
      ],
      "name": "getAllowance",
      "outputs": [
        {
          "internalType": "uint256",
          "name": "allowance",
          "type": "uint256"
        }
      ],
      "stateMutability": "view",
      "type": "function"
    },
    {
      "inputs": [
        {
          "internalType": "address",
          "name": "_addr",
          "type": "address"
        },
        {
          "internalType": "string",
          "name": "_validatorAddr",
          "type": "string"
        }
      ],
      "name": "getDelegation",
      "outputs": [
        {
          "internalType": "uint256",
          "name": "shares",
          "type": "uint256"
        },
        {
          "components": [
            {
              "internalType": "string",
              "name": "denom",
              "type": "string"
            },
            {
              "internalType": "uint256",
              "name": "amount",
              "type": "uint256"
            }
          ],
          "internalType": "struct Coin",
          "name": "balance",
          "type": "tuple"
        }
      ],
      "stateMutability": "view",
      "type": "function"
    },
    {
      "inputs": [
        {
          "internalType": "address",
          "name": "_addr",
          "type": "address"
        },
        {
          "internalType": "string",
          "name": "_validatorSrcAddr",
          "type": "string"
        },
        {
          "internalType": "string",
          "name": "_validatorDstAddr",
          "type": "string"
        }
      ],
      "name": "getRedelegation",
      "outputs": [
        {
          "components": [
            {
              "internalType": "string",
              "name": "delegatorAddress",
              "type": "string"
            },
            {
              "internalType": "string",
              "name": "validatorSrcAddress",
              "type": "string"
            },
            {
              "internalType": "string",
              "name": "validatorDstAddress",
              "type": "string"
            },
            {
              "components": [
                {
                  "internalType": "int64",
                  "name": "creationHeight",
                  "type": "int64"
                },
                {
                  "internalType": "int64",
                  "name": "completionTime",
                  "type": "int64"
                },
                {
                  "internalType": "uint256",
                  "name": "initialBalance",
                  "type": "uint256"
                },
                {
                  "internalType": "uint256",
                  "name": "sharesDst",
                  "type": "uint256"
                }
              ],
              "internalType": "struct RedelegationEntry[]",
              "name": "entries",
              "type": "tuple[]"
            }
          ],
          "internalType": "struct RedelegationOutput",
          "name": "redelegation",
          "type": "tuple"
        }
      ],
      "stateMutability": "view",
      "type": "function"
    },
    {
      "inputs": [
        {
          "internalType": "address",
          "name": "_delegatorAddr",
          "type": "address"
        },
        {
          "internalType": "string",
          "name": "_validatorSrcAddr",
          "type": "string"
        },
        {
          "internalType": "string",
          "name": "_validatorDstAddr",
          "type": "string"
        },
        {
          "components": [
            {
              "internalType": "bytes",
              "name": "key",
              "type": "bytes"
            },
            {
              "internalType": "uint64",
              "name": "offset",
              "type": "uint64"
            },
            {
              "internalType": "uint64",
              "name": "limit",
              "type": "uint64"
            },
            {
              "internalType": "bool",
              "name": "countTotal",
              "type": "bool"
            },
            {
              "internalType": "bool",
              "name": "reverse",
              "type": "bool"
            }
          ],
          "internalType": "struct PageRequest",
          "name": "_pageRequest",
          "type": "tuple"
        }
      ],
      "name": "getRedelegations",
      "outputs": [
        {
          "components": [
            {
              "components": [
                {
                  "internalType": "string",
                  "name": "delegatorAddress",
                  "type": "string"
                },
                {
                  "internalType": "string",
                  "name": "validatorSrcAddress",
                  "type": "string"
                },
                {
                  "internalType": "string",
                  "name": "validatorDstAddress",
                  "type": "string"
                },
                {
                  "components": [
                    {
                      "internalType": "int64",
                      "name": "creationHeight",
                      "type": "int64"
                    },
                    {
                      "internalType": "int64",
                      "name": "completionTime",
                      "type": "int64"
                    },
                    {
                      "internalType": "uint256",
                      "name": "initialBalance",
                      "type": "uint256"
                    },
                    {
                      "internalType": "uint256",
                      "name": "sharesDst",
                      "type": "uint256"
                    }
                  ],
                  "internalType": "struct RedelegationEntry[]",
                  "name": "entries",
                  "type": "tuple[]"
                }
              ],
              "internalType": "struct Redelegation",
              "name": "redelegation",
              "type": "tuple"
            },
            {
              "components": [
                {
                  "components": [
                    {
                      "internalType": "int64",
                      "name": "creationHeight",
                      "type": "int64"
                    },
                    {
                      "internalType": "int64",
                      "name": "completionTime",
                      "type": "int64"
                    },
                    {
                      "internalType": "uint256",
                      "name": "initialBalance",
                      "type": "uint256"
                    },
                    {
                      "internalType": "uint256",
                      "name": "sharesDst",
                      "type": "uint256"
                    }
                  ],
                  "internalType": "struct RedelegationEntry",
                  "name": "redelegationEntry",
                  "type": "tuple"
                },
                {
                  "internalType": "uint256",
                  "name": "balance",
                  "type": "uint256"
                }
              ],
              "internalType": "struct RedelegationEntryResponse[]",
              "name": "entries",
              "type": "tuple[]"
            }
          ],
          "internalType": "struct RedelegationResponse[]",
          "name": "response",
          "type": "tuple[]"
        },
        {
          "components": [
            {
              "internalType": "bytes",
              "name": "nextKey",
              "type": "bytes"
            },
            {
              "internalType": "uint64",
              "name": "total",
              "type": "uint64"
            }
          ],
          "internalType": "struct PageResponse",
          "name": "pageResponse",
          "type": "tuple"
        }
      ],
      "stateMutability": "view",
      "type": "function"
    },
    {
      "inputs": [
        {
          "internalType": "address",
          "name": "_addr",
          "type": "address"
        },
        {
          "internalType": "string",
          "name": "_validatorAddr",
          "type": "string"
        }
      ],
      "name": "getUnbondingDelegation",
      "outputs": [
        {
          "components": [
            {
              "internalType": "string",
              "name": "delegatorAddress",
              "type": "string"
            },
            {
              "internalType": "string",
              "name": "validatorAddress",
              "type": "string"
            },
            {
              "components": [
                {
                  "internalType": "int64",
                  "name": "creationHeight",
                  "type": "int64"
                },
                {
                  "internalType": "int64",
                  "name": "completionTime",
                  "type": "int64"
                },
                {
                  "internalType": "uint256",
                  "name": "initialBalance",
                  "type": "uint256"
                },
                {
                  "internalType": "uint256",
                  "name": "balance",
                  "type": "uint256"
                },
                {
                  "internalType": "uint64",
                  "name": "unbondingId",
                  "type": "uint64"
                },
                {
                  "internalType": "int64",
                  "name": "unbondingOnHoldRefCount",
                  "type": "int64"
                }
              ],
              "internalType": "struct UnbondingDelegationEntry[]",
              "name": "entries",
              "type": "tuple[]"
            }
          ],
          "internalType": "struct UnbondingDelegationOutput",
          "name": "unbondingDelegation",
          "type": "tuple"
        }
      ],
      "stateMutability": "view",
      "type": "function"
    },
    {
      "inputs": [
        {
          "internalType": "address",
          "name": "_validatorAddr",
          "type": "address"
        }
      ],
      "name": "getValidator",
      "outputs": [
        {
          "components": [
            {
              "internalType": "string",
              "name": "operatorAddress",
              "type": "string"
            },
            {
              "internalType": "string",
              "name": "consensusPubkey",
              "type": "string"
            },
            {
              "internalType": "bool",
              "name": "jailed",
              "type": "bool"
            },
            {
              "internalType": "enum BondStatus",
              "name": "status",
              "type": "uint8"
            },
            {
              "internalType": "uint256",
              "name": "tokens",
              "type": "uint256"
            },
            {
              "internalType": "uint256",
              "name": "delegatorShares",
              "type": "uint256"
            },
            {
              "internalType": "string",
              "name": "description",
              "type": "string"
            },
            {
              "internalType": "int64",
              "name": "unbondingHeight",
              "type": "int64"
            },
            {
              "internalType": "int64",
              "name": "unbondingTime",
              "type": "int64"
            },
            {
              "internalType": "uint256",
              "name": "commission",
              "type": "uint256"
            },
            {
              "internalType": "uint256",
              "name": "minSelfDelegation",
              "type": "uint256"
            }
          ],
          "internalType": "struct Validator",
          "name": "validator",
          "type": "tuple"
        }
      ],
      "stateMutability": "view",
      "type": "function"
    },
    {
      "inputs": [
        {
          "internalType": "string",
          "name": "_status",
          "type": "string"
        },
        {
          "components": [
            {
              "internalType": "bytes",
              "name": "key",
              "type": "bytes"
            },
            {
              "internalType": "uint64",
              "name": "offset",
              "type": "uint64"
            },
            {
              "internalType": "uint64",
              "name": "limit",
              "type": "uint64"
            },
            {
              "internalType": "bool",
              "name": "countTotal",
              "type": "bool"
            },
            {
              "internalType": "bool",
              "name": "reverse",
              "type": "bool"
            }
          ],
          "internalType": "struct PageRequest",
          "name": "_pageRequest",
          "type": "tuple"
        }
      ],
      "name": "getValidators",
      "outputs": [
        {
          "components": [
            {
              "internalType": "string",
              "name": "operatorAddress",
              "type": "string"
            },
            {
              "internalType": "string",
              "name": "consensusPubkey",
              "type": "string"
            },
            {
              "internalType": "bool",
              "name": "jailed",
              "type": "bool"
            },
            {
              "internalType": "enum BondStatus",
              "name": "status",
              "type": "uint8"
            },
            {
              "internalType": "uint256",
              "name": "tokens",
              "type": "uint256"
            },
            {
              "internalType": "uint256",
              "name": "delegatorShares",
              "type": "uint256"
            },
            {
              "internalType": "string",
              "name": "description",
              "type": "string"
            },
            {
              "internalType": "int64",
              "name": "unbondingHeight",
              "type": "int64"
            },
            {
              "internalType": "int64",
              "name": "unbondingTime",
              "type": "int64"
            },
            {
              "internalType": "uint256",
              "name": "commission",
              "type": "uint256"
            },
            {
              "internalType": "uint256",
              "name": "minSelfDelegation",
              "type": "uint256"
            }
          ],
          "internalType": "struct Validator[]",
          "name": "validators",
          "type": "tuple[]"
        },
        {
          "components": [
            {
              "internalType": "bytes",
              "name": "nextKey",
              "type": "bytes"
            },
            {
              "internalType": "uint64",
              "name": "total",
              "type": "uint64"
            }
          ],
          "internalType": "struct PageResponse",
          "name": "pageResponse",
          "type": "tuple"
        }
      ],
      "stateMutability": "view",
      "type": "function"
    },
    {
      "inputs": [
        {
          "internalType": "address",
          "name": "_addr",
          "type": "address"
        },
        {
          "internalType": "string[]",
          "name": "_methods",
          "type": "string[]"
        },
        {
          "internalType": "uint256",
          "name": "_amount",
          "type": "uint256"
        }
      ],
      "name": "testApprove",
      "outputs": [],
      "stateMutability": "nonpayable",
      "type": "function"
    },
    {
      "inputs": [
        {
          "internalType": "address",
          "name": "_addr",
          "type": "address"
        },
        {
          "internalType": "uint256",
          "name": "_approveAmount",
          "type": "uint256"
        },
        {
          "internalType": "uint256",
          "name": "_undelegateAmount",
          "type": "uint256"
        },
        {
          "internalType": "string",
          "name": "_validatorAddr",
          "type": "string"
        }
      ],
      "name": "testApproveAndThenUndelegate",
      "outputs": [],
      "stateMutability": "nonpayable",
      "type": "function"
    },
    {
      "inputs": [
        {
          "internalType": "address",
          "name": "_addr",
          "type": "address"
        },
        {
          "internalType": "string",
          "name": "_validatorAddr",
          "type": "string"
        },
        {
          "internalType": "string",
          "name": "_calltype",
          "type": "string"
        }
      ],
      "name": "testCallDelegation",
      "outputs": [
        {
          "internalType": "uint256",
          "name": "shares",
          "type": "uint256"
        },
        {
          "components": [
            {
              "internalType": "string",
              "name": "denom",
              "type": "string"
            },
            {
              "internalType": "uint256",
              "name": "amount",
              "type": "uint256"
            }
          ],
          "internalType": "struct Coin",
          "name": "coin",
          "type": "tuple"
        }
      ],
      "stateMutability": "nonpayable",
      "type": "function"
    },
    {
      "inputs": [
        {
          "internalType": "address",
          "name": "_addr",
          "type": "address"
        },
        {
          "internalType": "string",
          "name": "_validatorAddr",
          "type": "string"
        },
        {
          "internalType": "uint256",
          "name": "_amount",
          "type": "uint256"
        },
        {
          "internalType": "string",
          "name": "_calltype",
          "type": "string"
        }
      ],
      "name": "testCallUndelegate",
      "outputs": [],
      "stateMutability": "nonpayable",
      "type": "function"
    },
    {
      "inputs": [
        {
          "internalType": "address",
          "name": "_addr",
          "type": "address"
        },
        {
          "internalType": "string",
          "name": "_validatorAddr",
          "type": "string"
        },
        {
          "internalType": "uint256",
          "name": "_amount",
          "type": "uint256"
        },
        {
          "internalType": "uint256",
          "name": "_creationHeight",
          "type": "uint256"
        }
      ],
      "name": "testCancelUnbonding",
      "outputs": [],
      "stateMutability": "nonpayable",
      "type": "function"
    },
    {
      "inputs": [
        {
          "components": [
            {
              "internalType": "string",
              "name": "moniker",
              "type": "string"
            },
            {
              "internalType": "string",
              "name": "identity",
              "type": "string"
            },
            {
              "internalType": "string",
              "name": "website",
              "type": "string"
            },
            {
              "internalType": "string",
              "name": "securityContact",
              "type": "string"
            },
            {
              "internalType": "string",
              "name": "details",
              "type": "string"
            }
          ],
          "internalType": "struct Description",
          "name": "_descr",
          "type": "tuple"
        },
        {
          "components": [
            {
              "internalType": "uint256",
              "name": "rate",
              "type": "uint256"
            },
            {
              "internalType": "uint256",
              "name": "maxRate",
              "type": "uint256"
            },
            {
              "internalType": "uint256",
              "name": "maxChangeRate",
              "type": "uint256"
            }
          ],
          "internalType": "struct CommissionRates",
          "name": "_commRates",
          "type": "tuple"
        },
        {
          "internalType": "uint256",
          "name": "_minSelfDel",
          "type": "uint256"
        },
        {
          "internalType": "address",
          "name": "_valAddr",
          "type": "address"
        },
        {
          "internalType": "string",
          "name": "_pubkey",
          "type": "string"
        },
        {
          "internalType": "uint256",
          "name": "_value",
          "type": "uint256"
        }
      ],
      "name": "testCreateValidator",
      "outputs": [
        {
          "internalType": "bool",
          "name": "",
          "type": "bool"
        }
      ],
      "stateMutability": "nonpayable",
      "type": "function"
    },
    {
      "inputs": [
        {
          "internalType": "address",
          "name": "_addr",
          "type": "address"
        },
        {
          "internalType": "string",
          "name": "_validatorAddr",
          "type": "string"
        },
        {
          "internalType": "uint256",
          "name": "_amount",
          "type": "uint256"
        }
      ],
      "name": "testDelegate",
      "outputs": [],
      "stateMutability": "nonpayable",
      "type": "function"
    },
    {
      "inputs": [
        {
          "internalType": "string",
          "name": "_validatorAddr",
          "type": "string"
        },
        {
          "internalType": "uint256",
          "name": "_amount",
          "type": "uint256"
        }
      ],
      "name": "testDelegateIncrementCounter",
      "outputs": [],
      "stateMutability": "nonpayable",
      "type": "function"
    },
    {
      "inputs": [
        {
          "components": [
            {
              "internalType": "string",
              "name": "moniker",
              "type": "string"
            },
            {
              "internalType": "string",
              "name": "identity",
              "type": "string"
            },
            {
              "internalType": "string",
              "name": "website",
              "type": "string"
            },
            {
              "internalType": "string",
              "name": "securityContact",
              "type": "string"
            },
            {
              "internalType": "string",
              "name": "details",
              "type": "string"
            }
          ],
          "internalType": "struct Description",
          "name": "_descr",
          "type": "tuple"
        },
        {
          "internalType": "address",
          "name": "_valAddr",
          "type": "address"
        },
        {
          "internalType": "int256",
          "name": "_commRate",
          "type": "int256"
        },
        {
          "internalType": "int256",
          "name": "_minSelfDel",
          "type": "int256"
        }
      ],
      "name": "testEditValidator",
      "outputs": [
        {
          "internalType": "bool",
          "name": "",
          "type": "bool"
        }
      ],
      "stateMutability": "nonpayable",
      "type": "function"
    },
    {
      "inputs": [
        {
          "internalType": "address",
          "name": "_addr",
          "type": "address"
        },
        {
          "internalType": "string",
          "name": "_validatorSrcAddr",
          "type": "string"
        },
        {
          "internalType": "string",
          "name": "_validatorDstAddr",
          "type": "string"
        },
        {
          "internalType": "uint256",
          "name": "_amount",
          "type": "uint256"
        }
      ],
      "name": "testRedelegate",
      "outputs": [],
      "stateMutability": "nonpayable",
      "type": "function"
    },
    {
      "inputs": [
        {
          "internalType": "address",
          "name": "_grantee",
          "type": "address"
        },
        {
          "internalType": "string[]",
          "name": "_methods",
          "type": "string[]"
        }
      ],
      "name": "testRevoke",
      "outputs": [],
      "stateMutability": "nonpayable",
      "type": "function"
    },
    {
      "inputs": [
        {
          "internalType": "address",
          "name": "_addr",
          "type": "address"
        },
        {
          "internalType": "string",
          "name": "_validatorAddr",
          "type": "string"
        },
        {
          "internalType": "uint256",
          "name": "_amount",
          "type": "uint256"
        }
      ],
      "name": "testUndelegate",
      "outputs": [],
      "stateMutability": "nonpayable",
      "type": "function"
    }
  ],
  "bytecode": "0x60806040526040518060200160405280604051806060016040528060238152602001620062646023913981525060019060016200003e92919062000053565b503480156200004c57600080fd5b50620004a1565b828054828255906000526020600020908101928215620000a0579160200282015b828111156200009f5782518290816200008e9190620003ba565b509160200191906001019062000074565b5b509050620000af9190620000b3565b5090565b5b80821115620000d75760008181620000cd9190620000db565b50600101620000b4565b5090565b508054620000e990620001a9565b6000825580601f10620000fd57506200011e565b601f0160209004906000526020600020908101906200011d919062000121565b5b50565b5b808211156200013c57600081600090555060010162000122565b5090565b600081519050919050565b7f4e487b7100000000000000000000000000000000000000000000000000000000600052604160045260246000fd5b7f4e487b7100000000000000000000000000000000000000000000000000000000600052602260045260246000fd5b60006002820490506001821680620001c257607f821691505b602082108103620001d857620001d76200017a565b5b50919050565b60008190508160005260206000209050919050565b60006020601f8301049050919050565b600082821b905092915050565b600060088302620002427fffffffffffffffffffffffffffffffffffffffffffffffffffffffffffffffff8262000203565b6200024e868362000203565b95508019841693508086168417925050509392505050565b6000819050919050565b6000819050919050565b60006200029b620002956200028f8462000266565b62000270565b62000266565b9050919050565b6000819050919050565b620002b7836200027a565b620002cf620002c682620002a2565b84845462000210565b825550505050565b600090565b620002e6620002d7565b620002f3818484620002ac565b505050565b5b818110156200031b576200030f600082620002dc565b600181019050620002f9565b5050565b601f8211156200036a576200033481620001de565b6200033f84620001f3565b810160208510156200034f578190505b620003676200035e85620001f3565b830182620002f8565b50505b505050565b600082821c905092915050565b60006200038f600019846008026200036f565b1980831691505092915050565b6000620003aa83836200037c565b9150826002028217905092915050565b620003c58262000140565b67ffffffffffffffff811115620003e157620003e06200014b565b5b620003ed8254620001a9565b620003fa8282856200031f565b600060209050601f8311600181146200043257600084156200041d578287015190505b6200042985826200039c565b86555062000499565b601f1984166200044286620001de565b60005b828110156200046c5784890151825560018201915060208501945060208101905062000445565b868310156200048c578489015162000488601f8916826200037c565b8355505b6001600288020188555050505b505050505050565b615db380620004b16000396000f3fe60806040526004361061014b5760003560e01c80637e51b811116100b6578063cf2753cf1161006f578063cf2753cf146104a8578063ec9485df146104e6578063f40a214614610523578063f5714e641461054c578063f700dbd214610568578063f732b065146105915761014b565b80637e51b811146103965780638939e783146103bf5780638edb3f8b146103e85780639eab671114610404578063af9a90b21461042d578063b13d42421461046a5761014b565b806355dc4b221161010857806355dc4b2214610283578063570467ac146102ac5780635e269bfe146102e957806360deaa2a1461031257806361bc221a1461032e57806368ac3df3146103595761014b565b80630a4433e2146101505780631904bb2e1461017957806319b16c4c146101b657806331bcbcb3146101f45780633566cb951461021d578063455b855114610246575b600080fd5b34801561015c57600080fd5b5061017760048036038101906101729190612402565b6105cf565b005b34801561018557600080fd5b506101a0600480360381019061019b9190612476565b61069e565b6040516101ad91906126ed565b60405180910390f35b3480156101c257600080fd5b506101dd60048036038101906101d8919061283f565b61072e565b6040516101eb929190612916565b60405180910390f35b34801561020057600080fd5b5061021b60048036038101906102169190612946565b610c2d565b005b34801561022957600080fd5b50610244600480360381019061023f91906129b5565b610eba565b005b34801561025257600080fd5b5061026d60048036038101906102689190612a11565b611022565b60405161027a9190612c18565b60405180910390f35b34801561028f57600080fd5b506102aa60048036038101906102a59190612c3a565b6110b5565b005b3480156102b857600080fd5b506102d360048036038101906102ce919061283f565b6114a7565b6040516102e09190612e55565b60405180910390f35b3480156102f557600080fd5b50610310600480360381019061030b9190612e77565b61153d565b005b61032c60048036038101906103279190612efa565b6115c8565b005b34801561033a57600080fd5b50610343611716565b6040516103509190612f43565b60405180910390f35b34801561036557600080fd5b50610380600480360381019061037b9190612fa1565b61171c565b60405161038d9190613076565b60405180910390f35b3480156103a257600080fd5b506103bd60048036038101906103b89190612946565b6117b2565b005b3480156103cb57600080fd5b506103e660048036038101906103e19190612946565b61183a565b005b61040260048036038101906103fd9190612efa565b6118f0565b005b34801561041057600080fd5b5061042b60048036038101906104269190613091565b611a85565b005b34801561043957600080fd5b50610454600480360381019061044f9190613166565b611b10565b6040516104619190613076565b60405180910390f35b34801561047657600080fd5b50610491600480360381019061048c9190613208565b611ba0565b60405161049f9291906134d1565b60405180910390f35b3480156104b457600080fd5b506104cf60048036038101906104ca9190612a11565b611c38565b6040516104dd929190612916565b60405180910390f35b3480156104f257600080fd5b5061050d60048036038101906105089190612a11565b611cd0565b60405161051a9190612f43565b60405180910390f35b34801561052f57600080fd5b5061054a60048036038101906105459190613508565b611d5a565b005b61056660048036038101906105619190612efa565b611f36565b005b34801561057457600080fd5b5061058f600480360381019061058a919061358b565b612090565b005b34801561059d57600080fd5b506105b860048036038101906105b39190613796565b61215c565b6040516105c6929190613aad565b60405180910390f35b600061080073ffffffffffffffffffffffffffffffffffffffff1663b6039895868487876040518563ffffffff1660e01b81526004016106129493929190613c46565b6020604051808303816000875af1158015610631573d6000803e3d6000fd5b505050506040513d601f19601f820116820180604052508101906106559190613c9b565b905080610697576040517f08c379a000000000000000000000000000000000000000000000000000000000815260040161068e90613d4b565b60405180910390fd5b5050505050565b6106a66121fa565b61080073ffffffffffffffffffffffffffffffffffffffff1663223b3b7a836040518263ffffffff1660e01b81526004016106e19190613d6b565b600060405180830381865afa1580156106fe573d6000803e3d6000fd5b505050506040513d6000823e3d601f19601f820116820180604052508101906107279190613fbc565b9050919050565b600061073861226e565b600061080090506000868660405160240161075492919061403e565b6040516020818303038152906040527f241774e6000000000000000000000000000000000000000000000000000000007bffffffffffffffffffffffffffffffffffffffffffffffffffffffff19166020820180517bffffffffffffffffffffffffffffffffffffffffffffffffffffffff838183161783525050505090506000856040516020016107e691906140aa565b60405160208183030381529060405280519060200120905060405160200161080d9061410d565b6040516020818303038152906040528051906020012081036108f9576000808473ffffffffffffffffffffffffffffffffffffffff1684604051610851919061415e565b600060405180830381855af49150503d806000811461088c576040519150601f19603f3d011682016040523d82523d6000602084013e610891565b606091505b5091509150816108d6576040517f08c379a00000000000000000000000000000000000000000000000000000000081526004016108cd906141e7565b60405180910390fd5b808060200190518101906108ea9190614273565b80975081985050505050610c22565b6040516020016109089061431b565b6040516020818303038152906040528051906020012081036109f4576000808473ffffffffffffffffffffffffffffffffffffffff168460405161094c919061415e565b600060405180830381855afa9150503d8060008114610987576040519150601f19603f3d011682016040523d82523d6000602084013e61098c565b606091505b5091509150816109d1576040517f08c379a00000000000000000000000000000000000000000000000000000000081526004016109c89061437c565b60405180910390fd5b808060200190518101906109e59190614273565b80975081985050505050610c21565b604051602001610a03906143e8565b604051602081830303815290604052805190602001208103610af1576000808473ffffffffffffffffffffffffffffffffffffffff1684604051610a47919061415e565b6000604051808303816000865af19150503d8060008114610a84576040519150601f19603f3d011682016040523d82523d6000602084013e610a89565b606091505b509150915081610ace576040517f08c379a0000000000000000000000000000000000000000000000000000000008152600401610ac590614449565b60405180910390fd5b80806020019051810190610ae29190614273565b80975081985050505050610c20565b604051602001610b00906144b5565b604051602081830303815290604052805190602001208103610be45760006040518060400160405280601a81526020017f64656c65676174696f6e28616464726573732c737472696e6729000000000000815250805190602001209050600060a490506060600060208b01516020808d0101516040518681528e6004820152604060248201526033604482015282606482015281608482015260c081878360008e5af281519c5060608201519450610100820160405280610bc057600080fd5b50505050604051806040016040528083815260200182815250975050505050610c1f565b6040517f08c379a0000000000000000000000000000000000000000000000000000000008152600401610c1690614516565b60405180910390fd5b5b5b5b505050935093915050565b600061080073ffffffffffffffffffffffffffffffffffffffff1663b6039895308460016040518463ffffffff1660e01b8152600401610c6f939291906146e4565b6020604051808303816000875af1158015610c8e573d6000803e3d6000fd5b505050506040513d601f19601f82011682018060405250810190610cb29190613c9b565b905080610cf4576040517f08c379a0000000000000000000000000000000000000000000000000000000008152600401610ceb9061476e565b60405180910390fd5b60008473ffffffffffffffffffffffffffffffffffffffff163384604051602401610d2092919061478e565b6040516020818303038152906040527fa9059cbb000000000000000000000000000000000000000000000000000000007bffffffffffffffffffffffffffffffffffffffffffffffffffffffff19166020820180517bffffffffffffffffffffffffffffffffffffffffffffffffffffffff8381831617835250505050604051610daa919061415e565b6000604051808303816000865af19150503d8060008114610de7576040519150601f19603f3d011682016040523d82523d6000602084013e610dec565b606091505b5050905080610e30576040517f08c379a0000000000000000000000000000000000000000000000000000000008152600401610e2790614803565b60405180910390fd5b61080073ffffffffffffffffffffffffffffffffffffffff166353266bbb3386866040518463ffffffff1660e01b8152600401610e6f93929190614823565b6020604051808303816000875af1158015610e8e573d6000803e3d6000fd5b505050506040513d601f19601f82011682018060405250810190610eb29190613c9b565b505050505050565b600061080073ffffffffffffffffffffffffffffffffffffffff1663b6039895308460016040518463ffffffff1660e01b8152600401610efc939291906146e4565b6020604051808303816000875af1158015610f1b573d6000803e3d6000fd5b505050506040513d601f19601f82011682018060405250810190610f3f9190613c9b565b905080610f81576040517f08c379a0000000000000000000000000000000000000000000000000000000008152600401610f78906148ad565b60405180910390fd5b61080073ffffffffffffffffffffffffffffffffffffffff166353266bbb3085856040518463ffffffff1660e01b8152600401610fc093929190614823565b6020604051808303816000875af1158015610fdf573d6000803e3d6000fd5b505050506040513d601f19601f820116820180604052508101906110039190613c9b565b50600160008082825461101691906148fc565b92505081905550505050565b61102a612288565b61080073ffffffffffffffffffffffffffffffffffffffff1663a03ffee184846040518363ffffffff1660e01b815260040161106792919061403e565b600060405180830381865afa158015611084573d6000803e3d6000fd5b505050506040513d6000823e3d601f19601f820116820180604052508101906110ad9190614b60565b905092915050565b6000610800905060008585856040516024016110d393929190614823565b6040516020818303038152906040527f3edab33c000000000000000000000000000000000000000000000000000000007bffffffffffffffffffffffffffffffffffffffffffffffffffffffff19166020820180517bffffffffffffffffffffffffffffffffffffffffffffffffffffffff8381831617835250505050905060008360405160200161116591906140aa565b60405160208183030381529060405280519060200120905060405160200161118c9061410d565b6040516020818303038152906040528051906020012081036112595760008373ffffffffffffffffffffffffffffffffffffffff16836040516111cf919061415e565b600060405180830381855af49150503d806000811461120a576040519150601f19603f3d011682016040523d82523d6000602084013e61120f565b606091505b5050905080611253576040517f08c379a000000000000000000000000000000000000000000000000000000000815260040161124a906141e7565b60405180910390fd5b5061149e565b6040516020016112689061431b565b6040516020818303038152906040528051906020012081036113355760008373ffffffffffffffffffffffffffffffffffffffff16836040516112ab919061415e565b600060405180830381855afa9150503d80600081146112e6576040519150601f19603f3d011682016040523d82523d6000602084013e6112eb565b606091505b505090508061132f576040517f08c379a00000000000000000000000000000000000000000000000000000000081526004016113269061437c565b60405180910390fd5b5061149d565b604051602001611344906143e8565b6040516020818303038152906040528051906020012081036114135760008373ffffffffffffffffffffffffffffffffffffffff1683604051611387919061415e565b6000604051808303816000865af19150503d80600081146113c4576040519150601f19603f3d011682016040523d82523d6000602084013e6113c9565b606091505b505090508061140d576040517f08c379a000000000000000000000000000000000000000000000000000000000815260040161140490614449565b60405180910390fd5b5061149c565b604051602001611422906144b5565b6040516020818303038152906040528051906020012081036114605760208201825160008082846000895af28061145857600080fd5b50505061149b565b6040517f08c379a000000000000000000000000000000000000000000000000000000000815260040161149290614516565b60405180910390fd5b5b5b5b50505050505050565b6114af6122a9565b61080073ffffffffffffffffffffffffffffffffffffffff16637d9f939c8585856040518463ffffffff1660e01b81526004016114ee93929190614ba9565b600060405180830381865afa15801561150b573d6000803e3d6000fd5b505050506040513d6000823e3d601f19601f820116820180604052508101906115349190614e11565b90509392505050565b61080073ffffffffffffffffffffffffffffffffffffffff166312d58dfe858585856040518563ffffffff1660e01b815260040161157e9493929190614e5a565b6020604051808303816000875af115801561159d573d6000803e3d6000fd5b505050506040513d601f19601f820116820180604052508101906115c19190613c9b565b5050505050565b600061080073ffffffffffffffffffffffffffffffffffffffff1663b6039895303460016040518463ffffffff1660e01b815260040161160a939291906146e4565b6020604051808303816000875af1158015611629573d6000803e3d6000fd5b505050506040513d601f19601f8201168201806040525081019061164d9190613c9b565b90508061168f576040517f08c379a000000000000000000000000000000000000000000000000000000000815260040161168690614ef2565b60405180910390fd5b61080073ffffffffffffffffffffffffffffffffffffffff166353266bbb3084346040518463ffffffff1660e01b81526004016116ce93929190614823565b6020604051808303816000875af11580156116ed573d6000803e3d6000fd5b505050506040513d601f19601f820116820180604052508101906117119190613c9b565b505050565b60005481565b600061080073ffffffffffffffffffffffffffffffffffffffff1663f7cd55168888888888886040518763ffffffff1660e01b815260040161176396959493929190615047565b6020604051808303816000875af1158015611782573d6000803e3d6000fd5b505050506040513d601f19601f820116820180604052508101906117a69190613c9b565b90509695505050505050565b61080073ffffffffffffffffffffffffffffffffffffffff16633edab33c8484846040518463ffffffff1660e01b81526004016117f193929190614823565b6020604051808303816000875af1158015611810573d6000803e3d6000fd5b505050506040513d601f19601f8201168201806040525081019061183491906150b7565b50505050565b60008081548092919061184c906150e4565b919050555061080073ffffffffffffffffffffffffffffffffffffffff166353266bbb8484846040518463ffffffff1660e01b815260040161189093929190614823565b6020604051808303816000875af11580156118af573d6000803e3d6000fd5b505050506040513d601f19601f820116820180604052508101906118d39190613c9b565b506000808154809291906118e69061512c565b9190505550505050565b600061080073ffffffffffffffffffffffffffffffffffffffff1663b6039895323460016040518463ffffffff1660e01b8152600401611932939291906146e4565b6020604051808303816000875af1158015611951573d6000803e3d6000fd5b505050506040513d601f19601f820116820180604052508101906119759190613c9b565b9050806119b7576040517f08c379a00000000000000000000000000000000000000000000000000000000081526004016119ae90614ef2565b60405180910390fd5b61080073ffffffffffffffffffffffffffffffffffffffff166353266bbb3084346040518463ffffffff1660e01b81526004016119f693929190614823565b6020604051808303816000875af1158015611a15573d6000803e3d6000fd5b505050506040513d601f19601f82011682018060405250810190611a399190613c9b565b503373ffffffffffffffffffffffffffffffffffffffff166108fc349081150290604051600060405180830381858888f19350505050158015611a80573d6000803e3d6000fd5b505050565b61080073ffffffffffffffffffffffffffffffffffffffff166354b826f5858585856040518563ffffffff1660e01b8152600401611ac69493929190615155565b6020604051808303816000875af1158015611ae5573d6000803e3d6000fd5b505050506040513d601f19601f82011682018060405250810190611b0991906150b7565b5050505050565b600061080073ffffffffffffffffffffffffffffffffffffffff1663a50f05ac868686866040518563ffffffff1660e01b8152600401611b5394939291906151b7565b6020604051808303816000875af1158015611b72573d6000803e3d6000fd5b505050506040513d601f19601f82011682018060405250810190611b969190613c9b565b9050949350505050565b6060611baa6122d1565b61080073ffffffffffffffffffffffffffffffffffffffff1663186b216785856040518363ffffffff1660e01b8152600401611be7929190615361565b600060405180830381865afa158015611c04573d6000803e3d6000fd5b505050506040513d6000823e3d601f19601f82011682018060405250810190611c2d9190615555565b915091509250929050565b6000611c4261226e565b61080073ffffffffffffffffffffffffffffffffffffffff1663241774e685856040518363ffffffff1660e01b8152600401611c7f92919061403e565b600060405180830381865afa158015611c9c573d6000803e3d6000fd5b505050506040513d6000823e3d601f19601f82011682018060405250810190611cc59190614273565b915091509250929050565b600061080073ffffffffffffffffffffffffffffffffffffffff1663fc08930c8433856040518463ffffffff1660e01b8152600401611d11939291906155cd565b602060405180830381865afa158015611d2e573d6000803e3d6000fd5b505050506040513d601f19601f82011682018060405250810190611d52919061560b565b905092915050565b6000600167ffffffffffffffff811115611d7757611d76612714565b5b604051908082528060200260200182016040528015611daa57816020015b6060815260200190600190039081611d955790505b509050604051806060016040528060258152602001615d596025913981600081518110611dda57611dd9615638565b5b6020026020010181905250600061080073ffffffffffffffffffffffffffffffffffffffff1663b60398958787856040518463ffffffff1660e01b8152600401611e2693929190615718565b6020604051808303816000875af1158015611e45573d6000803e3d6000fd5b505050506040513d601f19601f82011682018060405250810190611e699190613c9b565b905080611eab576040517f08c379a0000000000000000000000000000000000000000000000000000000008152600401611ea2906157c8565b60405180910390fd5b61080073ffffffffffffffffffffffffffffffffffffffff16633edab33c3285876040518463ffffffff1660e01b8152600401611eea93929190614823565b6020604051808303816000875af1158015611f09573d6000803e3d6000fd5b505050506040513d601f19601f82011682018060405250810190611f2d91906150b7565b50505050505050565b600061080073ffffffffffffffffffffffffffffffffffffffff1663b6039895323460016040518463ffffffff1660e01b8152600401611f78939291906146e4565b6020604051808303816000875af1158015611f97573d6000803e3d6000fd5b505050506040513d601f19601f82011682018060405250810190611fbb9190613c9b565b905080611ffd576040517f08c379a0000000000000000000000000000000000000000000000000000000008152600401611ff490614ef2565b60405180910390fd5b61080073ffffffffffffffffffffffffffffffffffffffff166353266bbb308460013461202a91906148fc565b6040518463ffffffff1660e01b815260040161204893929190614823565b6020604051808303816000875af1158015612067573d6000803e3d6000fd5b505050506040513d601f19601f8201168201806040525081019061208b9190613c9b565b505050565b600061080073ffffffffffffffffffffffffffffffffffffffff166361dc5c3b8585856040518463ffffffff1660e01b81526004016120d1939291906157e8565b6020604051808303816000875af11580156120f0573d6000803e3d6000fd5b505050506040513d601f19601f820116820180604052508101906121149190613c9b565b905080612156576040517f08c379a000000000000000000000000000000000000000000000000000000000815260040161214d9061588c565b60405180910390fd5b50505050565b60606121666122d1565b61080073ffffffffffffffffffffffffffffffffffffffff166310a2851c878787876040518563ffffffff1660e01b81526004016121a79493929190615922565b600060405180830381865afa1580156121c4573d6000803e3d6000fd5b505050506040513d6000823e3d601f19601f820116820180604052508101906121ed9190615ce0565b9150915094509492505050565b6040518061016001604052806060815260200160608152602001600015158152602001600060038111156122315761223061254e565b5b8152602001600081526020016000815260200160608152602001600060070b8152602001600060070b815260200160008152602001600081525090565b604051806040016040528060608152602001600081525090565b60405180606001604052806060815260200160608152602001606081525090565b6040518060800160405280606081526020016060815260200160608152602001606081525090565b604051806040016040528060608152602001600067ffffffffffffffff1681525090565b6000604051905090565b600080fd5b600080fd5b600073ffffffffffffffffffffffffffffffffffffffff82169050919050565b600061233482612309565b9050919050565b61234481612329565b811461234f57600080fd5b50565b6000813590506123618161233b565b92915050565b600080fd5b600080fd5b600080fd5b60008083601f84011261238c5761238b612367565b5b8235905067ffffffffffffffff8111156123a9576123a861236c565b5b6020830191508360208202830111156123c5576123c4612371565b5b9250929050565b6000819050919050565b6123df816123cc565b81146123ea57600080fd5b50565b6000813590506123fc816123d6565b92915050565b6000806000806060858703121561241c5761241b6122ff565b5b600061242a87828801612352565b945050602085013567ffffffffffffffff81111561244b5761244a612304565b5b61245787828801612376565b9350935050604061246a878288016123ed565b91505092959194509250565b60006020828403121561248c5761248b6122ff565b5b600061249a84828501612352565b91505092915050565b600081519050919050565b600082825260208201905092915050565b60005b838110156124dd5780820151818401526020810190506124c2565b60008484015250505050565b6000601f19601f8301169050919050565b6000612505826124a3565b61250f81856124ae565b935061251f8185602086016124bf565b612528816124e9565b840191505092915050565b60008115159050919050565b61254881612533565b82525050565b7f4e487b7100000000000000000000000000000000000000000000000000000000600052602160045260246000fd5b6004811061258e5761258d61254e565b5b50565b600081905061259f8261257d565b919050565b60006125af82612591565b9050919050565b6125bf816125a4565b82525050565b6125ce816123cc565b82525050565b60008160070b9050919050565b6125ea816125d4565b82525050565b600061016083016000830151848203600086015261260e82826124fa565b9150506020830151848203602086015261262882826124fa565b915050604083015161263d604086018261253f565b50606083015161265060608601826125b6565b50608083015161266360808601826125c5565b5060a083015161267660a08601826125c5565b5060c083015184820360c086015261268e82826124fa565b91505060e08301516126a360e08601826125e1565b506101008301516126b86101008601826125e1565b506101208301516126cd6101208601826125c5565b506101408301516126e26101408601826125c5565b508091505092915050565b6000602082019050818103600083015261270781846125f0565b905092915050565b600080fd5b7f4e487b7100000000000000000000000000000000000000000000000000000000600052604160045260246000fd5b61274c826124e9565b810181811067ffffffffffffffff8211171561276b5761276a612714565b5b80604052505050565b600061277e6122f5565b905061278a8282612743565b919050565b600067ffffffffffffffff8211156127aa576127a9612714565b5b6127b3826124e9565b9050602081019050919050565b82818337600083830152505050565b60006127e26127dd8461278f565b612774565b9050828152602081018484840111156127fe576127fd61270f565b5b6128098482856127c0565b509392505050565b600082601f83011261282657612825612367565b5b81356128368482602086016127cf565b91505092915050565b600080600060608486031215612858576128576122ff565b5b600061286686828701612352565b935050602084013567ffffffffffffffff81111561288757612886612304565b5b61289386828701612811565b925050604084013567ffffffffffffffff8111156128b4576128b3612304565b5b6128c086828701612811565b9150509250925092565b6128d3816123cc565b82525050565b600060408301600083015184820360008601526128f682826124fa565b915050602083015161290b60208601826125c5565b508091505092915050565b600060408201905061292b60008301856128ca565b818103602083015261293d81846128d9565b90509392505050565b60008060006060848603121561295f5761295e6122ff565b5b600061296d86828701612352565b935050602084013567ffffffffffffffff81111561298e5761298d612304565b5b61299a86828701612811565b92505060406129ab868287016123ed565b9150509250925092565b600080604083850312156129cc576129cb6122ff565b5b600083013567ffffffffffffffff8111156129ea576129e9612304565b5b6129f685828601612811565b9250506020612a07858286016123ed565b9150509250929050565b60008060408385031215612a2857612a276122ff565b5b6000612a3685828601612352565b925050602083013567ffffffffffffffff811115612a5757612a56612304565b5b612a6385828601612811565b9150509250929050565b600081519050919050565b600082825260208201905092915050565b6000819050602082019050919050565b600067ffffffffffffffff82169050919050565b612ab681612a99565b82525050565b60c082016000820151612ad260008501826125e1565b506020820151612ae560208501826125e1565b506040820151612af860408501826125c5565b506060820151612b0b60608501826125c5565b506080820151612b1e6080850182612aad565b5060a0820151612b3160a08501826125e1565b50505050565b6000612b438383612abc565b60c08301905092915050565b6000602082019050919050565b6000612b6782612a6d565b612b718185612a78565b9350612b7c83612a89565b8060005b83811015612bad578151612b948882612b37565b9750612b9f83612b4f565b925050600181019050612b80565b5085935050505092915050565b60006060830160008301518482036000860152612bd782826124fa565b91505060208301518482036020860152612bf182826124fa565b91505060408301518482036040860152612c0b8282612b5c565b9150508091505092915050565b60006020820190508181036000830152612c328184612bba565b905092915050565b60008060008060808587031215612c5457612c536122ff565b5b6000612c6287828801612352565b945050602085013567ffffffffffffffff811115612c8357612c82612304565b5b612c8f87828801612811565b9350506040612ca0878288016123ed565b925050606085013567ffffffffffffffff811115612cc157612cc0612304565b5b612ccd87828801612811565b91505092959194509250565b600081519050919050565b600082825260208201905092915050565b6000819050602082019050919050565b608082016000820151612d1b60008501826125e1565b506020820151612d2e60208501826125e1565b506040820151612d4160408501826125c5565b506060820151612d5460608501826125c5565b50505050565b6000612d668383612d05565b60808301905092915050565b6000602082019050919050565b6000612d8a82612cd9565b612d948185612ce4565b9350612d9f83612cf5565b8060005b83811015612dd0578151612db78882612d5a565b9750612dc283612d72565b925050600181019050612da3565b5085935050505092915050565b60006080830160008301518482036000860152612dfa82826124fa565b91505060208301518482036020860152612e1482826124fa565b91505060408301518482036040860152612e2e82826124fa565b91505060608301518482036060860152612e488282612d7f565b9150508091505092915050565b60006020820190508181036000830152612e6f8184612ddd565b905092915050565b60008060008060808587031215612e9157612e906122ff565b5b6000612e9f87828801612352565b945050602085013567ffffffffffffffff811115612ec057612ebf612304565b5b612ecc87828801612811565b9350506040612edd878288016123ed565b9250506060612eee878288016123ed565b91505092959194509250565b600060208284031215612f1057612f0f6122ff565b5b600082013567ffffffffffffffff811115612f2e57612f2d612304565b5b612f3a84828501612811565b91505092915050565b6000602082019050612f5860008301846128ca565b92915050565b600080fd5b600060a08284031215612f7957612f78612f5e565b5b81905092915050565b600060608284031215612f9857612f97612f5e565b5b81905092915050565b6000806000806000806101008789031215612fbf57612fbe6122ff565b5b600087013567ffffffffffffffff811115612fdd57612fdc612304565b5b612fe989828a01612f63565b9650506020612ffa89828a01612f82565b955050608061300b89828a016123ed565b94505060a061301c89828a01612352565b93505060c087013567ffffffffffffffff81111561303d5761303c612304565b5b61304989828a01612811565b92505060e061305a89828a016123ed565b9150509295509295509295565b61307081612533565b82525050565b600060208201905061308b6000830184613067565b92915050565b600080600080608085870312156130ab576130aa6122ff565b5b60006130b987828801612352565b945050602085013567ffffffffffffffff8111156130da576130d9612304565b5b6130e687828801612811565b935050604085013567ffffffffffffffff81111561310757613106612304565b5b61311387828801612811565b9250506060613124878288016123ed565b91505092959194509250565b6000819050919050565b61314381613130565b811461314e57600080fd5b50565b6000813590506131608161313a565b92915050565b600080600080608085870312156131805761317f6122ff565b5b600085013567ffffffffffffffff81111561319e5761319d612304565b5b6131aa87828801612f63565b94505060206131bb87828801612352565b93505060406131cc87828801613151565b92505060606131dd87828801613151565b91505092959194509250565b600060a082840312156131ff576131fe612f5e565b5b81905092915050565b6000806040838503121561321f5761321e6122ff565b5b600083013567ffffffffffffffff81111561323d5761323c612304565b5b61324985828601612811565b925050602083013567ffffffffffffffff81111561326a57613269612304565b5b613276858286016131e9565b9150509250929050565b600081519050919050565b600082825260208201905092915050565b6000819050602082019050919050565b60006101608301600083015184820360008601526132ca82826124fa565b915050602083015184820360208601526132e482826124fa565b91505060408301516132f9604086018261253f565b50606083015161330c60608601826125b6565b50608083015161331f60808601826125c5565b5060a083015161333260a08601826125c5565b5060c083015184820360c086015261334a82826124fa565b91505060e083015161335f60e08601826125e1565b506101008301516133746101008601826125e1565b506101208301516133896101208601826125c5565b5061014083015161339e6101408601826125c5565b508091505092915050565b60006133b583836132ac565b905092915050565b6000602082019050919050565b60006133d582613280565b6133df818561328b565b9350836020820285016133f18561329c565b8060005b8581101561342d578484038952815161340e85826133a9565b9450613419836133bd565b925060208a019950506001810190506133f5565b50829750879550505050505092915050565b600081519050919050565b600082825260208201905092915050565b60006134668261343f565b613470818561344a565b93506134808185602086016124bf565b613489816124e9565b840191505092915050565b600060408301600083015184820360008601526134b1828261345b565b91505060208301516134c66020860182612aad565b508091505092915050565b600060408201905081810360008301526134eb81856133ca565b905081810360208301526134ff8184613494565b90509392505050565b60008060008060808587031215613522576135216122ff565b5b600061353087828801612352565b9450506020613541878288016123ed565b9350506040613552878288016123ed565b925050606085013567ffffffffffffffff81111561357357613572612304565b5b61357f87828801612811565b91505092959194509250565b6000806000604084860312156135a4576135a36122ff565b5b60006135b286828701612352565b935050602084013567ffffffffffffffff8111156135d3576135d2612304565b5b6135df86828701612376565b92509250509250925092565b600080fd5b600080fd5b600067ffffffffffffffff8211156136105761360f612714565b5b613619826124e9565b9050602081019050919050565b6000613639613634846135f5565b612774565b9050828152602081018484840111156136555761365461270f565b5b6136608482856127c0565b509392505050565b600082601f83011261367d5761367c612367565b5b813561368d848260208601613626565b91505092915050565b61369f81612a99565b81146136aa57600080fd5b50565b6000813590506136bc81613696565b92915050565b6136cb81612533565b81146136d657600080fd5b50565b6000813590506136e8816136c2565b92915050565b600060a08284031215613704576137036135eb565b5b61370e60a0612774565b9050600082013567ffffffffffffffff81111561372e5761372d6135f0565b5b61373a84828501613668565b600083015250602061374e848285016136ad565b6020830152506040613762848285016136ad565b6040830152506060613776848285016136d9565b606083015250608061378a848285016136d9565b60808301525092915050565b600080600080608085870312156137b0576137af6122ff565b5b60006137be87828801612352565b945050602085013567ffffffffffffffff8111156137df576137de612304565b5b6137eb87828801612811565b935050604085013567ffffffffffffffff81111561380c5761380b612304565b5b61381887828801612811565b925050606085013567ffffffffffffffff81111561383957613838612304565b5b613845878288016136ee565b91505092959194509250565b600081519050919050565b600082825260208201905092915050565b6000819050602082019050919050565b6000608083016000830151848203600086015261389a82826124fa565b915050602083015184820360208601526138b482826124fa565b915050604083015184820360408601526138ce82826124fa565b915050606083015184820360608601526138e88282612d7f565b9150508091505092915050565b600081519050919050565b600082825260208201905092915050565b6000819050602082019050919050565b60a0820160008201516139376000850182612d05565b50602082015161394a60808501826125c5565b50505050565b600061395c8383613921565b60a08301905092915050565b6000602082019050919050565b6000613980826138f5565b61398a8185613900565b935061399583613911565b8060005b838110156139c65781516139ad8882613950565b97506139b883613968565b925050600181019050613999565b5085935050505092915050565b600060408301600083015184820360008601526139f0828261387d565b91505060208301518482036020860152613a0a8282613975565b9150508091505092915050565b6000613a2383836139d3565b905092915050565b6000602082019050919050565b6000613a4382613851565b613a4d818561385c565b935083602082028501613a5f8561386d565b8060005b85811015613a9b5784840389528151613a7c8582613a17565b9450613a8783613a2b565b925060208a01995050600181019050613a63565b50829750879550505050505092915050565b60006040820190508181036000830152613ac78185613a38565b90508181036020830152613adb8184613494565b90509392505050565b613aed81612329565b82525050565b600082825260208201905092915050565b6000819050919050565b6000613b1a83856124ae565b9350613b278385846127c0565b613b30836124e9565b840190509392505050565b6000613b48848484613b0e565b90509392505050565b600080fd5b600080fd5b600080fd5b60008083356001602003843603038112613b7d57613b7c613b5b565b5b83810192508235915060208301925067ffffffffffffffff821115613ba557613ba4613b51565b5b600182023603831315613bbb57613bba613b56565b5b509250929050565b6000602082019050919050565b6000613bdc8385613af3565b935083602084028501613bee84613b04565b8060005b87811015613c34578484038952613c098284613b60565b613c14868284613b3b565b9550613c1f84613bc3565b935060208b019a505050600181019050613bf2565b50829750879450505050509392505050565b6000606082019050613c5b6000830187613ae4565b613c6860208301866128ca565b8181036040830152613c7b818486613bd0565b905095945050505050565b600081519050613c95816136c2565b92915050565b600060208284031215613cb157613cb06122ff565b5b6000613cbf84828501613c86565b91505092915050565b600082825260208201905092915050565b7f4661696c656420746f20617070726f7665207374616b696e67206d6574686f6460008201527f7300000000000000000000000000000000000000000000000000000000000000602082015250565b6000613d35602183613cc8565b9150613d4082613cd9565b604082019050919050565b60006020820190508181036000830152613d6481613d28565b9050919050565b6000602082019050613d806000830184613ae4565b92915050565b6000613d99613d948461278f565b612774565b905082815260208101848484011115613db557613db461270f565b5b613dc08482856124bf565b509392505050565b600082601f830112613ddd57613ddc612367565b5b8151613ded848260208601613d86565b91505092915050565b60048110613e0357600080fd5b50565b600081519050613e1581613df6565b92915050565b600081519050613e2a816123d6565b92915050565b613e39816125d4565b8114613e4457600080fd5b50565b600081519050613e5681613e30565b92915050565b60006101608284031215613e7357613e726135eb565b5b613e7e610160612774565b9050600082015167ffffffffffffffff811115613e9e57613e9d6135f0565b5b613eaa84828501613dc8565b600083015250602082015167ffffffffffffffff811115613ece57613ecd6135f0565b5b613eda84828501613dc8565b6020830152506040613eee84828501613c86565b6040830152506060613f0284828501613e06565b6060830152506080613f1684828501613e1b565b60808301525060a0613f2a84828501613e1b565b60a08301525060c082015167ffffffffffffffff811115613f4e57613f4d6135f0565b5b613f5a84828501613dc8565b60c08301525060e0613f6e84828501613e47565b60e083015250610100613f8384828501613e47565b61010083015250610120613f9984828501613e1b565b61012083015250610140613faf84828501613e1b565b6101408301525092915050565b600060208284031215613fd257613fd16122ff565b5b600082015167ffffffffffffffff811115613ff057613fef612304565b5b613ffc84828501613e5c565b91505092915050565b6000614010826124a3565b61401a8185613cc8565b935061402a8185602086016124bf565b614033816124e9565b840191505092915050565b60006040820190506140536000830185613ae4565b81810360208301526140658184614005565b90509392505050565b600081905092915050565b6000614084826124a3565b61408e818561406e565b935061409e8185602086016124bf565b80840191505092915050565b60006140b68284614079565b915081905092915050565b7f64656c656761746563616c6c0000000000000000000000000000000000000000600082015250565b60006140f7600c8361406e565b9150614102826140c1565b600c82019050919050565b6000614118826140ea565b9150819050919050565b600081905092915050565b60006141388261343f565b6141428185614122565b93506141528185602086016124bf565b80840191505092915050565b600061416a828461412d565b915081905092915050565b7f6661696c65642064656c656761746563616c6c20746f20707265636f6d70696c60008201527f6500000000000000000000000000000000000000000000000000000000000000602082015250565b60006141d1602183613cc8565b91506141dc82614175565b604082019050919050565b60006020820190508181036000830152614200816141c4565b9050919050565b60006040828403121561421d5761421c6135eb565b5b6142276040612774565b9050600082015167ffffffffffffffff811115614247576142466135f0565b5b61425384828501613dc8565b600083015250602061426784828501613e1b565b60208301525092915050565b6000806040838503121561428a576142896122ff565b5b600061429885828601613e1b565b925050602083015167ffffffffffffffff8111156142b9576142b8612304565b5b6142c585828601614207565b9150509250929050565b7f73746174696363616c6c00000000000000000000000000000000000000000000600082015250565b6000614305600a8361406e565b9150614310826142cf565b600a82019050919050565b6000614326826142f8565b9150819050919050565b7f6661696c65642073746174696363616c6c20746f20707265636f6d70696c6500600082015250565b6000614366601f83613cc8565b915061437182614330565b602082019050919050565b6000602082019050818103600083015261439581614359565b9050919050565b7f63616c6c00000000000000000000000000000000000000000000000000000000600082015250565b60006143d260048361406e565b91506143dd8261439c565b600482019050919050565b60006143f3826143c5565b9150819050919050565b7f6661696c65642063616c6c20746f20707265636f6d70696c6500000000000000600082015250565b6000614433601983613cc8565b915061443e826143fd565b602082019050919050565b6000602082019050818103600083015261446281614426565b9050919050565b7f63616c6c636f6465000000000000000000000000000000000000000000000000600082015250565b600061449f60088361406e565b91506144aa82614469565b600882019050919050565b60006144c082614492565b9150819050919050565b7f696e76616c69642063616c6c7479706500000000000000000000000000000000600082015250565b6000614500601083613cc8565b915061450b826144ca565b602082019050919050565b6000602082019050818103600083015261452f816144f3565b9050919050565b600081549050919050565b60008190508160005260206000209050919050565b7f4e487b7100000000000000000000000000000000000000000000000000000000600052602260045260246000fd5b6000600282049050600182168061459d57607f821691505b6020821081036145b0576145af614556565b5b50919050565b60008190508160005260206000209050919050565b600081546145d881614585565b6145e281866124ae565b945060018216600081146145fd576001811461461357614646565b60ff198316865281151560200286019350614646565b61461c856145b6565b60005b8381101561463e5781548189015260018201915060208101905061461f565b808801955050505b50505092915050565b600061465b83836145cb565b905092915050565b6000600182019050919050565b600061467b82614536565b6146858185613af3565b93508360208202850161469785614541565b8060005b858110156146d2578484038952816146b3858261464f565b94506146be83614663565b925060208a0199505060018101905061469b565b50829750879550505050505092915050565b60006060820190506146f96000830186613ae4565b61470660208301856128ca565b81810360408301526147188184614670565b9050949350505050565b7f64656c65676174696f6e20617070726f76616c206661696c6564000000000000600082015250565b6000614758601a83613cc8565b915061476382614722565b602082019050919050565b600060208201905081810360008301526147878161474b565b9050919050565b60006040820190506147a36000830185613ae4565b6147b060208301846128ca565b9392505050565b7f7472616e73666572206661696c65640000000000000000000000000000000000600082015250565b60006147ed600f83613cc8565b91506147f8826147b7565b602082019050919050565b6000602082019050818103600083015261481c816147e0565b9050919050565b60006060820190506148386000830186613ae4565b818103602083015261484a8185614005565b905061485960408301846128ca565b949350505050565b7f5374616b696e6720417070726f7665206661696c656400000000000000000000600082015250565b6000614897601683613cc8565b91506148a282614861565b602082019050919050565b600060208201905081810360008301526148c68161488a565b9050919050565b7f4e487b7100000000000000000000000000000000000000000000000000000000600052601160045260246000fd5b6000614907826123cc565b9150614912836123cc565b925082820190508082111561492a576149296148cd565b5b92915050565b600067ffffffffffffffff82111561494b5761494a612714565b5b602082029050602081019050919050565b60008151905061496b81613696565b92915050565b600060c08284031215614987576149866135eb565b5b61499160c0612774565b905060006149a184828501613e47565b60008301525060206149b584828501613e47565b60208301525060406149c984828501613e1b565b60408301525060606149dd84828501613e1b565b60608301525060806149f18482850161495c565b60808301525060a0614a0584828501613e47565b60a08301525092915050565b6000614a24614a1f84614930565b612774565b90508083825260208201905060c08402830185811115614a4757614a46612371565b5b835b81811015614a705780614a5c8882614971565b84526020840193505060c081019050614a49565b5050509392505050565b600082601f830112614a8f57614a8e612367565b5b8151614a9f848260208601614a11565b91505092915050565b600060608284031215614abe57614abd6135eb565b5b614ac86060612774565b9050600082015167ffffffffffffffff811115614ae857614ae76135f0565b5b614af484828501613dc8565b600083015250602082015167ffffffffffffffff811115614b1857614b176135f0565b5b614b2484828501613dc8565b602083015250604082015167ffffffffffffffff811115614b4857614b476135f0565b5b614b5484828501614a7a565b60408301525092915050565b600060208284031215614b7657614b756122ff565b5b600082015167ffffffffffffffff811115614b9457614b93612304565b5b614ba084828501614aa8565b91505092915050565b6000606082019050614bbe6000830186613ae4565b8181036020830152614bd08185614005565b90508181036040830152614be48184614005565b9050949350505050565b600067ffffffffffffffff821115614c0957614c08612714565b5b602082029050602081019050919050565b600060808284031215614c3057614c2f6135eb565b5b614c3a6080612774565b90506000614c4a84828501613e47565b6000830152506020614c5e84828501613e47565b6020830152506040614c7284828501613e1b565b6040830152506060614c8684828501613e1b565b60608301525092915050565b6000614ca5614ca084614bee565b612774565b90508083825260208201905060808402830185811115614cc857614cc7612371565b5b835b81811015614cf15780614cdd8882614c1a565b845260208401935050608081019050614cca565b5050509392505050565b600082601f830112614d1057614d0f612367565b5b8151614d20848260208601614c92565b91505092915050565b600060808284031215614d3f57614d3e6135eb565b5b614d496080612774565b9050600082015167ffffffffffffffff811115614d6957614d686135f0565b5b614d7584828501613dc8565b600083015250602082015167ffffffffffffffff811115614d9957614d986135f0565b5b614da584828501613dc8565b602083015250604082015167ffffffffffffffff811115614dc957614dc86135f0565b5b614dd584828501613dc8565b604083015250606082015167ffffffffffffffff811115614df957614df86135f0565b5b614e0584828501614cfb565b60608301525092915050565b600060208284031215614e2757614e266122ff565b5b600082015167ffffffffffffffff811115614e4557614e44612304565b5b614e5184828501614d29565b91505092915050565b6000608082019050614e6f6000830187613ae4565b8181036020830152614e818186614005565b9050614e9060408301856128ca565b614e9d60608301846128ca565b95945050505050565b7f44656c656761746520417070726f7665206661696c6564000000000000000000600082015250565b6000614edc601783613cc8565b9150614ee782614ea6565b602082019050919050565b60006020820190508181036000830152614f0b81614ecf565b9050919050565b600060a08301614f256000840184613b60565b8583036000870152614f38838284613b0e565b92505050614f496020840184613b60565b8583036020870152614f5c838284613b0e565b92505050614f6d6040840184613b60565b8583036040870152614f80838284613b0e565b92505050614f916060840184613b60565b8583036060870152614fa4838284613b0e565b92505050614fb56080840184613b60565b8583036080870152614fc8838284613b0e565b925050508091505092915050565b6000614fe560208401846123ed565b905092915050565b60608201614ffe6000830183614fd6565b61500b60008501826125c5565b506150196020830183614fd6565b61502660208501826125c5565b506150346040830183614fd6565b61504160408501826125c5565b50505050565b60006101008201905081810360008301526150628189614f12565b90506150716020830188614fed565b61507e60808301876128ca565b61508b60a0830186613ae4565b81810360c083015261509d8185614005565b90506150ac60e08301846128ca565b979650505050505050565b6000602082840312156150cd576150cc6122ff565b5b60006150db84828501613e47565b91505092915050565b60006150ef826123cc565b91507fffffffffffffffffffffffffffffffffffffffffffffffffffffffffffffffff8203615121576151206148cd565b5b600182019050919050565b6000615137826123cc565b91506000820361514a576151496148cd565b5b600182039050919050565b600060808201905061516a6000830187613ae4565b818103602083015261517c8186614005565b905081810360408301526151908185614005565b905061519f60608301846128ca565b95945050505050565b6151b181613130565b82525050565b600060808201905081810360008301526151d18187614f12565b90506151e06020830186613ae4565b6151ed60408301856151a8565b6151fa60608301846151a8565b95945050505050565b600080833560016020038436030381126152205761521f613b5b565b5b83810192508235915060208301925067ffffffffffffffff82111561524857615247613b51565b5b60018202360383131561525e5761525d613b56565b5b509250929050565b6000615272838561344a565b935061527f8385846127c0565b615288836124e9565b840190509392505050565b60006152a260208401846136ad565b905092915050565b60006152b960208401846136d9565b905092915050565b600060a083016152d46000840184615203565b85830360008701526152e7838284615266565b925050506152f86020840184615293565b6153056020860182612aad565b506153136040840184615293565b6153206040860182612aad565b5061532e60608401846152aa565b61533b606086018261253f565b5061534960808401846152aa565b615356608086018261253f565b508091505092915050565b6000604082019050818103600083015261537b8185614005565b9050818103602083015261538f81846152c1565b90509392505050565b600067ffffffffffffffff8211156153b3576153b2612714565b5b602082029050602081019050919050565b60006153d76153d284615398565b612774565b905080838252602082019050602084028301858111156153fa576153f9612371565b5b835b8181101561544157805167ffffffffffffffff81111561541f5761541e612367565b5b80860161542c8982613e5c565b855260208501945050506020810190506153fc565b5050509392505050565b600082601f8301126154605761545f612367565b5b81516154708482602086016153c4565b91505092915050565b600061548c615487846135f5565b612774565b9050828152602081018484840111156154a8576154a761270f565b5b6154b38482856124bf565b509392505050565b600082601f8301126154d0576154cf612367565b5b81516154e0848260208601615479565b91505092915050565b6000604082840312156154ff576154fe6135eb565b5b6155096040612774565b9050600082015167ffffffffffffffff811115615529576155286135f0565b5b615535848285016154bb565b60008301525060206155498482850161495c565b60208301525092915050565b6000806040838503121561556c5761556b6122ff565b5b600083015167ffffffffffffffff81111561558a57615589612304565b5b6155968582860161544b565b925050602083015167ffffffffffffffff8111156155b7576155b6612304565b5b6155c3858286016154e9565b9150509250929050565b60006060820190506155e26000830186613ae4565b6155ef6020830185613ae4565b81810360408301526156018184614005565b9050949350505050565b600060208284031215615621576156206122ff565b5b600061562f84828501613e1b565b91505092915050565b7f4e487b7100000000000000000000000000000000000000000000000000000000600052603260045260246000fd5b600081519050919050565b6000819050602082019050919050565b600061568e83836124fa565b905092915050565b6000602082019050919050565b60006156ae82615667565b6156b88185613af3565b9350836020820285016156ca85615672565b8060005b8581101561570657848403895281516156e78582615682565b94506156f283615696565b925060208a019950506001810190506156ce565b50829750879550505050505092915050565b600060608201905061572d6000830186613ae4565b61573a60208301856128ca565b818103604083015261574c81846156a3565b9050949350505050565b7f6661696c656420746f20617070726f766520756e64656c65676174696f6e206d60008201527f6574686f64000000000000000000000000000000000000000000000000000000602082015250565b60006157b2602583613cc8565b91506157bd82615756565b604082019050919050565b600060208201905081810360008301526157e1816157a5565b9050919050565b60006040820190506157fd6000830186613ae4565b8181036020830152615810818486613bd0565b9050949350505050565b7f4661696c656420746f207265766f6b6520617070726f76616c20666f7220737460008201527f616b696e67206d6574686f647300000000000000000000000000000000000000602082015250565b6000615876602d83613cc8565b91506158818261581a565b604082019050919050565b600060208201905081810360008301526158a581615869565b9050919050565b600060a08301600083015184820360008601526158c9828261345b565b91505060208301516158de6020860182612aad565b5060408301516158f16040860182612aad565b506060830151615904606086018261253f565b506080830151615917608086018261253f565b508091505092915050565b60006080820190506159376000830187613ae4565b81810360208301526159498186614005565b9050818103604083015261595d8185614005565b9050818103606083015261597181846158ac565b905095945050505050565b600067ffffffffffffffff82111561599757615996612714565b5b602082029050602081019050919050565b6000608082840312156159be576159bd6135eb565b5b6159c86080612774565b9050600082015167ffffffffffffffff8111156159e8576159e76135f0565b5b6159f484828501613dc8565b600083015250602082015167ffffffffffffffff811115615a1857615a176135f0565b5b615a2484828501613dc8565b602083015250604082015167ffffffffffffffff811115615a4857615a476135f0565b5b615a5484828501613dc8565b604083015250606082015167ffffffffffffffff811115615a7857615a776135f0565b5b615a8484828501614cfb565b60608301525092915050565b600067ffffffffffffffff821115615aab57615aaa612714565b5b602082029050602081019050919050565b600060a08284031215615ad257615ad16135eb565b5b615adc6040612774565b90506000615aec84828501614c1a565b6000830152506080615b0084828501613e1b565b60208301525092915050565b6000615b1f615b1a84615a90565b612774565b90508083825260208201905060a08402830185811115615b4257615b41612371565b5b835b81811015615b6b5780615b578882615abc565b84526020840193505060a081019050615b44565b5050509392505050565b600082601f830112615b8a57615b89612367565b5b8151615b9a848260208601615b0c565b91505092915050565b600060408284031215615bb957615bb86135eb565b5b615bc36040612774565b9050600082015167ffffffffffffffff811115615be357615be26135f0565b5b615bef848285016159a8565b600083015250602082015167ffffffffffffffff811115615c1357615c126135f0565b5b615c1f84828501615b75565b60208301525092915050565b6000615c3e615c398461597c565b612774565b90508083825260208201905060208402830185811115615c6157615c60612371565b5b835b81811015615ca857805167ffffffffffffffff811115615c8657615c85612367565b5b808601615c938982615ba3565b85526020850194505050602081019050615c63565b5050509392505050565b600082601f830112615cc757615cc6612367565b5b8151615cd7848260208601615c2b565b91505092915050565b60008060408385031215615cf757615cf66122ff565b5b600083015167ffffffffffffffff811115615d1557615d14612304565b5b615d2185828601615cb2565b925050602083015167ffffffffffffffff811115615d4257615d41612304565b5b615d4e858286016154e9565b915050925092905056fe2f636f736d6f732e7374616b696e672e763162657461312e4d7367556e64656c6567617465a2646970667358221220610cb91a8933e1804929f56c9cd7a1adc794d98816aa48df9e694b7cd16e831b64736f6c634300081300332f636f736d6f732e7374616b696e672e763162657461312e4d736744656c6567617465",
  "linkReferences": {},
  "deployedLinkReferences": {}
}