{
  "_format": "hh-sol-artifact-1",
  "contractName": "StakingCaller",
  "sourceName": "contracts/evmos/staking/testdata/StakingCaller.sol",
  "abi": [
    {
      "inputs": [
        {
          "internalType": "string",
          "name": "_validatorAddr",
          "type": "string"
        }
      ],
      "name": "approveDepositAndDelegate",
      "outputs": [],
      "stateMutability": "payable",
      "type": "function"
    },
    {
      "inputs": [
        {
          "internalType": "string",
          "name": "_validatorAddr",
          "type": "string"
        }
      ],
      "name": "approveDepositAndDelegateExceedingAllowance",
      "outputs": [],
      "stateMutability": "payable",
      "type": "function"
    },
    {
      "inputs": [
        {
          "internalType": "string",
          "name": "_validatorAddr",
          "type": "string"
        }
      ],
      "name": "approveDepositDelegateAndFailCustomLogic",
      "outputs": [],
      "stateMutability": "payable",
      "type": "function"
    },
    {
      "inputs": [
        {
          "internalType": "address",
          "name": "_contract",
          "type": "address"
        },
        {
          "internalType": "string",
          "name": "_validatorAddr",
          "type": "string"
        },
        {
          "internalType": "uint256",
          "name": "_amount",
          "type": "uint256"
        }
      ],
      "name": "callERC20AndDelegate",
      "outputs": [],
      "stateMutability": "nonpayable",
      "type": "function"
    },
    {
      "inputs": [],
      "name": "counter",
      "outputs": [
        {
          "internalType": "uint256",
          "name": "",
          "type": "uint256"
        }
      ],
      "stateMutability": "view",
      "type": "function"
    },
    {
      "inputs": [
        {
          "internalType": "address",
          "name": "_grantee",
          "type": "address"
        },
        {
          "internalType": "string",
          "name": "method",
          "type": "string"
        }
      ],
      "name": "getAllowance",
      "outputs": [
        {
          "internalType": "uint256",
          "name": "allowance",
          "type": "uint256"
        }
      ],
      "stateMutability": "view",
      "type": "function"
    },
    {
      "inputs": [
        {
          "internalType": "address",
          "name": "_addr",
          "type": "address"
        },
        {
          "internalType": "string",
          "name": "_validatorAddr",
          "type": "string"
        }
      ],
      "name": "getDelegation",
      "outputs": [
        {
          "internalType": "uint256",
          "name": "shares",
          "type": "uint256"
        },
        {
          "components": [
            {
              "internalType": "string",
              "name": "denom",
              "type": "string"
            },
            {
              "internalType": "uint256",
              "name": "amount",
              "type": "uint256"
            }
          ],
          "internalType": "struct Coin",
          "name": "balance",
          "type": "tuple"
        }
      ],
      "stateMutability": "view",
      "type": "function"
    },
    {
      "inputs": [
        {
          "internalType": "address",
          "name": "_addr",
          "type": "address"
        },
        {
          "internalType": "string",
          "name": "_validatorSrcAddr",
          "type": "string"
        },
        {
          "internalType": "string",
          "name": "_validatorDstAddr",
          "type": "string"
        }
      ],
      "name": "getRedelegation",
      "outputs": [
        {
          "components": [
            {
              "internalType": "string",
              "name": "delegatorAddress",
              "type": "string"
            },
            {
              "internalType": "string",
              "name": "validatorSrcAddress",
              "type": "string"
            },
            {
              "internalType": "string",
              "name": "validatorDstAddress",
              "type": "string"
            },
            {
              "components": [
                {
                  "internalType": "int64",
                  "name": "creationHeight",
                  "type": "int64"
                },
                {
                  "internalType": "int64",
                  "name": "completionTime",
                  "type": "int64"
                },
                {
                  "internalType": "uint256",
                  "name": "initialBalance",
                  "type": "uint256"
                },
                {
                  "internalType": "uint256",
                  "name": "sharesDst",
                  "type": "uint256"
                }
              ],
              "internalType": "struct RedelegationEntry[]",
              "name": "entries",
              "type": "tuple[]"
            }
          ],
          "internalType": "struct RedelegationOutput",
          "name": "redelegation",
          "type": "tuple"
        }
      ],
      "stateMutability": "view",
      "type": "function"
    },
    {
      "inputs": [
        {
          "internalType": "address",
          "name": "_delegatorAddr",
          "type": "address"
        },
        {
          "internalType": "string",
          "name": "_validatorSrcAddr",
          "type": "string"
        },
        {
          "internalType": "string",
          "name": "_validatorDstAddr",
          "type": "string"
        },
        {
          "components": [
            {
              "internalType": "bytes",
              "name": "key",
              "type": "bytes"
            },
            {
              "internalType": "uint64",
              "name": "offset",
              "type": "uint64"
            },
            {
              "internalType": "uint64",
              "name": "limit",
              "type": "uint64"
            },
            {
              "internalType": "bool",
              "name": "countTotal",
              "type": "bool"
            },
            {
              "internalType": "bool",
              "name": "reverse",
              "type": "bool"
            }
          ],
          "internalType": "struct PageRequest",
          "name": "_pageRequest",
          "type": "tuple"
        }
      ],
      "name": "getRedelegations",
      "outputs": [
        {
          "components": [
            {
              "components": [
                {
                  "internalType": "string",
                  "name": "delegatorAddress",
                  "type": "string"
                },
                {
                  "internalType": "string",
                  "name": "validatorSrcAddress",
                  "type": "string"
                },
                {
                  "internalType": "string",
                  "name": "validatorDstAddress",
                  "type": "string"
                },
                {
                  "components": [
                    {
                      "internalType": "int64",
                      "name": "creationHeight",
                      "type": "int64"
                    },
                    {
                      "internalType": "int64",
                      "name": "completionTime",
                      "type": "int64"
                    },
                    {
                      "internalType": "uint256",
                      "name": "initialBalance",
                      "type": "uint256"
                    },
                    {
                      "internalType": "uint256",
                      "name": "sharesDst",
                      "type": "uint256"
                    }
                  ],
                  "internalType": "struct RedelegationEntry[]",
                  "name": "entries",
                  "type": "tuple[]"
                }
              ],
              "internalType": "struct Redelegation",
              "name": "redelegation",
              "type": "tuple"
            },
            {
              "components": [
                {
                  "components": [
                    {
                      "internalType": "int64",
                      "name": "creationHeight",
                      "type": "int64"
                    },
                    {
                      "internalType": "int64",
                      "name": "completionTime",
                      "type": "int64"
                    },
                    {
                      "internalType": "uint256",
                      "name": "initialBalance",
                      "type": "uint256"
                    },
                    {
                      "internalType": "uint256",
                      "name": "sharesDst",
                      "type": "uint256"
                    }
                  ],
                  "internalType": "struct RedelegationEntry",
                  "name": "redelegationEntry",
                  "type": "tuple"
                },
                {
                  "internalType": "uint256",
                  "name": "balance",
                  "type": "uint256"
                }
              ],
              "internalType": "struct RedelegationEntryResponse[]",
              "name": "entries",
              "type": "tuple[]"
            }
          ],
          "internalType": "struct RedelegationResponse[]",
          "name": "response",
          "type": "tuple[]"
        },
        {
          "components": [
            {
              "internalType": "bytes",
              "name": "nextKey",
              "type": "bytes"
            },
            {
              "internalType": "uint64",
              "name": "total",
              "type": "uint64"
            }
          ],
          "internalType": "struct PageResponse",
          "name": "pageResponse",
          "type": "tuple"
        }
      ],
      "stateMutability": "view",
      "type": "function"
    },
    {
      "inputs": [
        {
          "internalType": "address",
          "name": "_addr",
          "type": "address"
        },
        {
          "internalType": "string",
          "name": "_validatorAddr",
          "type": "string"
        }
      ],
      "name": "getUnbondingDelegation",
      "outputs": [
        {
          "components": [
            {
              "internalType": "string",
              "name": "delegatorAddress",
              "type": "string"
            },
            {
              "internalType": "string",
              "name": "validatorAddress",
              "type": "string"
            },
            {
              "components": [
                {
                  "internalType": "int64",
                  "name": "creationHeight",
                  "type": "int64"
                },
                {
                  "internalType": "int64",
                  "name": "completionTime",
                  "type": "int64"
                },
                {
                  "internalType": "uint256",
                  "name": "initialBalance",
                  "type": "uint256"
                },
                {
                  "internalType": "uint256",
                  "name": "balance",
                  "type": "uint256"
                },
                {
                  "internalType": "uint64",
                  "name": "unbondingId",
                  "type": "uint64"
                },
                {
                  "internalType": "int64",
                  "name": "unbondingOnHoldRefCount",
                  "type": "int64"
                }
              ],
              "internalType": "struct UnbondingDelegationEntry[]",
              "name": "entries",
              "type": "tuple[]"
            }
          ],
          "internalType": "struct UnbondingDelegationOutput",
          "name": "unbondingDelegation",
          "type": "tuple"
        }
      ],
      "stateMutability": "view",
      "type": "function"
    },
    {
      "inputs": [
        {
          "internalType": "address",
          "name": "_validatorAddr",
          "type": "address"
        }
      ],
      "name": "getValidator",
      "outputs": [
        {
          "components": [
            {
              "internalType": "string",
              "name": "operatorAddress",
              "type": "string"
            },
            {
              "internalType": "string",
              "name": "consensusPubkey",
              "type": "string"
            },
            {
              "internalType": "bool",
              "name": "jailed",
              "type": "bool"
            },
            {
              "internalType": "enum BondStatus",
              "name": "status",
              "type": "uint8"
            },
            {
              "internalType": "uint256",
              "name": "tokens",
              "type": "uint256"
            },
            {
              "internalType": "uint256",
              "name": "delegatorShares",
              "type": "uint256"
            },
            {
              "internalType": "string",
              "name": "description",
              "type": "string"
            },
            {
              "internalType": "int64",
              "name": "unbondingHeight",
              "type": "int64"
            },
            {
              "internalType": "int64",
              "name": "unbondingTime",
              "type": "int64"
            },
            {
              "internalType": "uint256",
              "name": "commission",
              "type": "uint256"
            },
            {
              "internalType": "uint256",
              "name": "minSelfDelegation",
              "type": "uint256"
            }
          ],
          "internalType": "struct Validator",
          "name": "validator",
          "type": "tuple"
        }
      ],
      "stateMutability": "view",
      "type": "function"
    },
    {
      "inputs": [
        {
          "internalType": "string",
          "name": "_status",
          "type": "string"
        },
        {
          "components": [
            {
              "internalType": "bytes",
              "name": "key",
              "type": "bytes"
            },
            {
              "internalType": "uint64",
              "name": "offset",
              "type": "uint64"
            },
            {
              "internalType": "uint64",
              "name": "limit",
              "type": "uint64"
            },
            {
              "internalType": "bool",
              "name": "countTotal",
              "type": "bool"
            },
            {
              "internalType": "bool",
              "name": "reverse",
              "type": "bool"
            }
          ],
          "internalType": "struct PageRequest",
          "name": "_pageRequest",
          "type": "tuple"
        }
      ],
      "name": "getValidators",
      "outputs": [
        {
          "components": [
            {
              "internalType": "string",
              "name": "operatorAddress",
              "type": "string"
            },
            {
              "internalType": "string",
              "name": "consensusPubkey",
              "type": "string"
            },
            {
              "internalType": "bool",
              "name": "jailed",
              "type": "bool"
            },
            {
              "internalType": "enum BondStatus",
              "name": "status",
              "type": "uint8"
            },
            {
              "internalType": "uint256",
              "name": "tokens",
              "type": "uint256"
            },
            {
              "internalType": "uint256",
              "name": "delegatorShares",
              "type": "uint256"
            },
            {
              "internalType": "string",
              "name": "description",
              "type": "string"
            },
            {
              "internalType": "int64",
              "name": "unbondingHeight",
              "type": "int64"
            },
            {
              "internalType": "int64",
              "name": "unbondingTime",
              "type": "int64"
            },
            {
              "internalType": "uint256",
              "name": "commission",
              "type": "uint256"
            },
            {
              "internalType": "uint256",
              "name": "minSelfDelegation",
              "type": "uint256"
            }
          ],
          "internalType": "struct Validator[]",
          "name": "validators",
          "type": "tuple[]"
        },
        {
          "components": [
            {
              "internalType": "bytes",
              "name": "nextKey",
              "type": "bytes"
            },
            {
              "internalType": "uint64",
              "name": "total",
              "type": "uint64"
            }
          ],
          "internalType": "struct PageResponse",
          "name": "pageResponse",
          "type": "tuple"
        }
      ],
      "stateMutability": "view",
      "type": "function"
    },
    {
      "inputs": [
        {
          "internalType": "address",
          "name": "_addr",
          "type": "address"
        },
        {
          "internalType": "string[]",
          "name": "_methods",
          "type": "string[]"
        },
        {
          "internalType": "uint256",
          "name": "_amount",
          "type": "uint256"
        }
      ],
      "name": "testApprove",
      "outputs": [],
      "stateMutability": "nonpayable",
      "type": "function"
    },
    {
      "inputs": [
        {
          "internalType": "address",
          "name": "_addr",
          "type": "address"
        },
        {
          "internalType": "uint256",
          "name": "_approveAmount",
          "type": "uint256"
        },
        {
          "internalType": "uint256",
          "name": "_undelegateAmount",
          "type": "uint256"
        },
        {
          "internalType": "string",
          "name": "_validatorAddr",
          "type": "string"
        }
      ],
      "name": "testApproveAndThenUndelegate",
      "outputs": [],
      "stateMutability": "nonpayable",
      "type": "function"
    },
    {
      "inputs": [
        {
          "internalType": "address",
          "name": "_addr",
          "type": "address"
        },
        {
          "internalType": "string",
          "name": "_validatorAddr",
          "type": "string"
        },
        {
          "internalType": "string",
          "name": "_calltype",
          "type": "string"
        }
      ],
      "name": "testCallDelegation",
      "outputs": [
        {
          "internalType": "uint256",
          "name": "shares",
          "type": "uint256"
        },
        {
          "components": [
            {
              "internalType": "string",
              "name": "denom",
              "type": "string"
            },
            {
              "internalType": "uint256",
              "name": "amount",
              "type": "uint256"
            }
          ],
          "internalType": "struct Coin",
          "name": "coin",
          "type": "tuple"
        }
      ],
      "stateMutability": "nonpayable",
      "type": "function"
    },
    {
      "inputs": [
        {
          "internalType": "address",
          "name": "_addr",
          "type": "address"
        },
        {
          "internalType": "string",
          "name": "_validatorAddr",
          "type": "string"
        },
        {
          "internalType": "uint256",
          "name": "_amount",
          "type": "uint256"
        },
        {
          "internalType": "string",
          "name": "_calltype",
          "type": "string"
        }
      ],
      "name": "testCallUndelegate",
      "outputs": [],
      "stateMutability": "nonpayable",
      "type": "function"
    },
    {
      "inputs": [
        {
          "internalType": "address",
          "name": "_addr",
          "type": "address"
        },
        {
          "internalType": "string",
          "name": "_validatorAddr",
          "type": "string"
        },
        {
          "internalType": "uint256",
          "name": "_amount",
          "type": "uint256"
        },
        {
          "internalType": "uint256",
          "name": "_creationHeight",
          "type": "uint256"
        }
      ],
      "name": "testCancelUnbonding",
      "outputs": [],
      "stateMutability": "nonpayable",
      "type": "function"
    },
    {
      "inputs": [
        {
          "components": [
            {
              "internalType": "string",
              "name": "moniker",
              "type": "string"
            },
            {
              "internalType": "string",
              "name": "identity",
              "type": "string"
            },
            {
              "internalType": "string",
              "name": "website",
              "type": "string"
            },
            {
              "internalType": "string",
              "name": "securityContact",
              "type": "string"
            },
            {
              "internalType": "string",
              "name": "details",
              "type": "string"
            }
          ],
          "internalType": "struct Description",
          "name": "_descr",
          "type": "tuple"
        },
        {
          "components": [
            {
              "internalType": "uint256",
              "name": "rate",
              "type": "uint256"
            },
            {
              "internalType": "uint256",
              "name": "maxRate",
              "type": "uint256"
            },
            {
              "internalType": "uint256",
              "name": "maxChangeRate",
              "type": "uint256"
            }
          ],
          "internalType": "struct CommissionRates",
          "name": "_commRates",
          "type": "tuple"
        },
        {
          "internalType": "uint256",
          "name": "_minSelfDel",
          "type": "uint256"
        },
        {
          "internalType": "string",
          "name": "_pubkey",
          "type": "string"
        },
        {
          "internalType": "uint256",
          "name": "_value",
          "type": "uint256"
        }
      ],
      "name": "testCreateValidator",
      "outputs": [
        {
          "internalType": "bool",
          "name": "",
          "type": "bool"
        }
      ],
      "stateMutability": "nonpayable",
      "type": "function"
    },
    {
      "inputs": [
        {
          "internalType": "address",
          "name": "_addr",
          "type": "address"
        },
        {
          "internalType": "string",
          "name": "_validatorAddr",
          "type": "string"
        },
        {
          "internalType": "uint256",
          "name": "_amount",
          "type": "uint256"
        }
      ],
      "name": "testDelegate",
      "outputs": [],
      "stateMutability": "nonpayable",
      "type": "function"
    },
    {
      "inputs": [
        {
          "internalType": "string",
          "name": "_validatorAddr",
          "type": "string"
        },
        {
          "internalType": "uint256",
          "name": "_amount",
          "type": "uint256"
        }
      ],
      "name": "testDelegateIncrementCounter",
      "outputs": [],
      "stateMutability": "nonpayable",
      "type": "function"
    },
    {
      "inputs": [
        {
          "components": [
            {
              "internalType": "string",
              "name": "moniker",
              "type": "string"
            },
            {
              "internalType": "string",
              "name": "identity",
              "type": "string"
            },
            {
              "internalType": "string",
              "name": "website",
              "type": "string"
            },
            {
              "internalType": "string",
              "name": "securityContact",
              "type": "string"
            },
            {
              "internalType": "string",
              "name": "details",
              "type": "string"
            }
          ],
          "internalType": "struct Description",
          "name": "_descr",
          "type": "tuple"
        },
        {
          "internalType": "int256",
          "name": "_commRate",
          "type": "int256"
        },
        {
          "internalType": "int256",
          "name": "_minSelfDel",
          "type": "int256"
        }
      ],
      "name": "testEditValidator",
      "outputs": [
        {
          "internalType": "bool",
          "name": "",
          "type": "bool"
        }
      ],
      "stateMutability": "nonpayable",
      "type": "function"
    },
    {
      "inputs": [
        {
          "internalType": "address",
          "name": "_addr",
          "type": "address"
        },
        {
          "internalType": "string",
          "name": "_validatorSrcAddr",
          "type": "string"
        },
        {
          "internalType": "string",
          "name": "_validatorDstAddr",
          "type": "string"
        },
        {
          "internalType": "uint256",
          "name": "_amount",
          "type": "uint256"
        }
      ],
      "name": "testRedelegate",
      "outputs": [],
      "stateMutability": "nonpayable",
      "type": "function"
    },
    {
      "inputs": [
        {
          "internalType": "address",
          "name": "_grantee",
          "type": "address"
        },
        {
          "internalType": "string[]",
          "name": "_methods",
          "type": "string[]"
        }
      ],
      "name": "testRevoke",
      "outputs": [],
      "stateMutability": "nonpayable",
      "type": "function"
    },
    {
      "inputs": [
        {
          "internalType": "address",
          "name": "_addr",
          "type": "address"
        },
        {
          "internalType": "string",
          "name": "_validatorAddr",
          "type": "string"
        },
        {
          "internalType": "uint256",
          "name": "_amount",
          "type": "uint256"
        }
      ],
      "name": "testUndelegate",
      "outputs": [],
      "stateMutability": "nonpayable",
      "type": "function"
    }
  ],
  "bytecode": "0x608060405260405180602001604052806040518060600160405280602381526020016200619c6023913981525060019060016200003e92919062000053565b503480156200004c57600080fd5b50620004a1565b828054828255906000526020600020908101928215620000a0579160200282015b828111156200009f5782518290816200008e9190620003ba565b509160200191906001019062000074565b5b509050620000af9190620000b3565b5090565b5b80821115620000d75760008181620000cd9190620000db565b50600101620000b4565b5090565b508054620000e990620001a9565b6000825580601f10620000fd57506200011e565b601f0160209004906000526020600020908101906200011d919062000121565b5b50565b5b808211156200013c57600081600090555060010162000122565b5090565b600081519050919050565b7f4e487b7100000000000000000000000000000000000000000000000000000000600052604160045260246000fd5b7f4e487b7100000000000000000000000000000000000000000000000000000000600052602260045260246000fd5b60006002820490506001821680620001c257607f821691505b602082108103620001d857620001d76200017a565b5b50919050565b60008190508160005260206000209050919050565b60006020601f8301049050919050565b600082821b905092915050565b600060088302620002427fffffffffffffffffffffffffffffffffffffffffffffffffffffffffffffffff8262000203565b6200024e868362000203565b95508019841693508086168417925050509392505050565b6000819050919050565b6000819050919050565b60006200029b620002956200028f8462000266565b62000270565b62000266565b9050919050565b6000819050919050565b620002b7836200027a565b620002cf620002c682620002a2565b84845462000210565b825550505050565b600090565b620002e6620002d7565b620002f3818484620002ac565b505050565b5b818110156200031b576200030f600082620002dc565b600181019050620002f9565b5050565b601f8211156200036a576200033481620001de565b6200033f84620001f3565b810160208510156200034f578190505b620003676200035e85620001f3565b830182620002f8565b50505b505050565b600082821c905092915050565b60006200038f600019846008026200036f565b1980831691505092915050565b6000620003aa83836200037c565b9150826002028217905092915050565b620003c58262000140565b67ffffffffffffffff811115620003e157620003e06200014b565b5b620003ed8254620001a9565b620003fa8282856200031f565b600060209050601f8311600181146200043257600084156200041d578287015190505b6200042985826200039c565b86555062000499565b601f1984166200044286620001de565b60005b828110156200046c5784890151825560018201915060208501945060208101905062000445565b868310156200048c578489015162000488601f8916826200037c565b8355505b6001600288020188555050505b505050505050565b615ceb80620004b16000396000f3fe60806040526004361061014b5760003560e01c80637e51b811116100b6578063eac78fdf1161006f578063eac78fdf146104a9578063ec9485df146104e6578063f40a214614610523578063f5714e641461054c578063f700dbd214610568578063f732b065146105915761014b565b80637e51b811146103965780638939e783146103bf5780638edb3f8b146103e85780639eab671114610404578063b13d42421461042d578063cf2753cf1461046b5761014b565b806355dc4b221161010857806355dc4b2214610283578063570467ac146102ac5780635e269bfe146102e957806360deaa2a1461031257806361bc221a1461032e5780636fb5d0ce146103595761014b565b80630a4433e2146101505780631904bb2e1461017957806319b16c4c146101b657806331bcbcb3146101f45780633566cb951461021d578063455b855114610246575b600080fd5b34801561015c57600080fd5b50610177600480360381019061017291906123d2565b6105cf565b005b34801561018557600080fd5b506101a0600480360381019061019b9190612446565b61069e565b6040516101ad91906126bd565b60405180910390f35b3480156101c257600080fd5b506101dd60048036038101906101d8919061280f565b61072e565b6040516101eb9291906128e6565b60405180910390f35b34801561020057600080fd5b5061021b60048036038101906102169190612916565b610c2d565b005b34801561022957600080fd5b50610244600480360381019061023f9190612985565b610eba565b005b34801561025257600080fd5b5061026d600480360381019061026891906129e1565b611022565b60405161027a9190612be8565b60405180910390f35b34801561028f57600080fd5b506102aa60048036038101906102a59190612c0a565b6110b5565b005b3480156102b857600080fd5b506102d360048036038101906102ce919061280f565b6114a7565b6040516102e09190612e25565b60405180910390f35b3480156102f557600080fd5b50610310600480360381019061030b9190612e47565b61153d565b005b61032c60048036038101906103279190612eca565b6115c8565b005b34801561033a57600080fd5b50610343611716565b6040516103509190612f13565b60405180910390f35b34801561036557600080fd5b50610380600480360381019061037b9190612f88565b61171c565b60405161038d9190613006565b60405180910390f35b3480156103a257600080fd5b506103bd60048036038101906103b89190612916565b6117ab565b005b3480156103cb57600080fd5b506103e660048036038101906103e19190612916565b611833565b005b61040260048036038101906103fd9190612eca565b6118bb565b005b34801561041057600080fd5b5061042b60048036038101906104269190613021565b611a50565b005b34801561043957600080fd5b50610454600480360381019061044f91906130df565b611adb565b6040516104629291906133a8565b60405180910390f35b34801561047757600080fd5b50610492600480360381019061048d91906129e1565b611b73565b6040516104a09291906128e6565b60405180910390f35b3480156104b557600080fd5b506104d060048036038101906104cb91906133fe565b611c0b565b6040516104dd9190613006565b60405180910390f35b3480156104f257600080fd5b5061050d600480360381019061050891906129e1565b611ca0565b60405161051a9190612f13565b60405180910390f35b34801561052f57600080fd5b5061054a600480360381019061054591906134b1565b611d2a565b005b61056660048036038101906105619190612eca565b611f06565b005b34801561057457600080fd5b5061058f600480360381019061058a9190613534565b612060565b005b34801561059d57600080fd5b506105b860048036038101906105b3919061373f565b61212c565b6040516105c6929190613a56565b60405180910390f35b600061080073ffffffffffffffffffffffffffffffffffffffff1663b6039895868487876040518563ffffffff1660e01b81526004016106129493929190613bef565b6020604051808303816000875af1158015610631573d6000803e3d6000fd5b505050506040513d601f19601f820116820180604052508101906106559190613c44565b905080610697576040517f08c379a000000000000000000000000000000000000000000000000000000000815260040161068e90613cf4565b60405180910390fd5b5050505050565b6106a66121ca565b61080073ffffffffffffffffffffffffffffffffffffffff1663223b3b7a836040518263ffffffff1660e01b81526004016106e19190613d14565b600060405180830381865afa1580156106fe573d6000803e3d6000fd5b505050506040513d6000823e3d601f19601f820116820180604052508101906107279190613f65565b9050919050565b600061073861223e565b6000610800905060008686604051602401610754929190613fe7565b6040516020818303038152906040527f241774e6000000000000000000000000000000000000000000000000000000007bffffffffffffffffffffffffffffffffffffffffffffffffffffffff19166020820180517bffffffffffffffffffffffffffffffffffffffffffffffffffffffff838183161783525050505090506000856040516020016107e69190614053565b60405160208183030381529060405280519060200120905060405160200161080d906140b6565b6040516020818303038152906040528051906020012081036108f9576000808473ffffffffffffffffffffffffffffffffffffffff16846040516108519190614107565b600060405180830381855af49150503d806000811461088c576040519150601f19603f3d011682016040523d82523d6000602084013e610891565b606091505b5091509150816108d6576040517f08c379a00000000000000000000000000000000000000000000000000000000081526004016108cd90614190565b60405180910390fd5b808060200190518101906108ea919061421c565b80975081985050505050610c22565b604051602001610908906142c4565b6040516020818303038152906040528051906020012081036109f4576000808473ffffffffffffffffffffffffffffffffffffffff168460405161094c9190614107565b600060405180830381855afa9150503d8060008114610987576040519150601f19603f3d011682016040523d82523d6000602084013e61098c565b606091505b5091509150816109d1576040517f08c379a00000000000000000000000000000000000000000000000000000000081526004016109c890614325565b60405180910390fd5b808060200190518101906109e5919061421c565b80975081985050505050610c21565b604051602001610a0390614391565b604051602081830303815290604052805190602001208103610af1576000808473ffffffffffffffffffffffffffffffffffffffff1684604051610a479190614107565b6000604051808303816000865af19150503d8060008114610a84576040519150601f19603f3d011682016040523d82523d6000602084013e610a89565b606091505b509150915081610ace576040517f08c379a0000000000000000000000000000000000000000000000000000000008152600401610ac5906143f2565b60405180910390fd5b80806020019051810190610ae2919061421c565b80975081985050505050610c20565b604051602001610b009061445e565b604051602081830303815290604052805190602001208103610be45760006040518060400160405280601a81526020017f64656c65676174696f6e28616464726573732c737472696e6729000000000000815250805190602001209050600060a490506060600060208b01516020808d0101516040518681528e6004820152604060248201526033604482015282606482015281608482015260c081878360008e5af281519c5060608201519450610100820160405280610bc057600080fd5b50505050604051806040016040528083815260200182815250975050505050610c1f565b6040517f08c379a0000000000000000000000000000000000000000000000000000000008152600401610c16906144bf565b60405180910390fd5b5b5b5b505050935093915050565b600061080073ffffffffffffffffffffffffffffffffffffffff1663b6039895308460016040518463ffffffff1660e01b8152600401610c6f9392919061468d565b6020604051808303816000875af1158015610c8e573d6000803e3d6000fd5b505050506040513d601f19601f82011682018060405250810190610cb29190613c44565b905080610cf4576040517f08c379a0000000000000000000000000000000000000000000000000000000008152600401610ceb90614717565b60405180910390fd5b60008473ffffffffffffffffffffffffffffffffffffffff163384604051602401610d20929190614737565b6040516020818303038152906040527fa9059cbb000000000000000000000000000000000000000000000000000000007bffffffffffffffffffffffffffffffffffffffffffffffffffffffff19166020820180517bffffffffffffffffffffffffffffffffffffffffffffffffffffffff8381831617835250505050604051610daa9190614107565b6000604051808303816000865af19150503d8060008114610de7576040519150601f19603f3d011682016040523d82523d6000602084013e610dec565b606091505b5050905080610e30576040517f08c379a0000000000000000000000000000000000000000000000000000000008152600401610e27906147ac565b60405180910390fd5b61080073ffffffffffffffffffffffffffffffffffffffff166353266bbb3386866040518463ffffffff1660e01b8152600401610e6f939291906147cc565b6020604051808303816000875af1158015610e8e573d6000803e3d6000fd5b505050506040513d601f19601f82011682018060405250810190610eb29190613c44565b505050505050565b600061080073ffffffffffffffffffffffffffffffffffffffff1663b6039895308460016040518463ffffffff1660e01b8152600401610efc9392919061468d565b6020604051808303816000875af1158015610f1b573d6000803e3d6000fd5b505050506040513d601f19601f82011682018060405250810190610f3f9190613c44565b905080610f81576040517f08c379a0000000000000000000000000000000000000000000000000000000008152600401610f7890614856565b60405180910390fd5b61080073ffffffffffffffffffffffffffffffffffffffff166353266bbb3085856040518463ffffffff1660e01b8152600401610fc0939291906147cc565b6020604051808303816000875af1158015610fdf573d6000803e3d6000fd5b505050506040513d601f19601f820116820180604052508101906110039190613c44565b50600160008082825461101691906148a5565b92505081905550505050565b61102a612258565b61080073ffffffffffffffffffffffffffffffffffffffff1663a03ffee184846040518363ffffffff1660e01b8152600401611067929190613fe7565b600060405180830381865afa158015611084573d6000803e3d6000fd5b505050506040513d6000823e3d601f19601f820116820180604052508101906110ad9190614b09565b905092915050565b6000610800905060008585856040516024016110d3939291906147cc565b6040516020818303038152906040527f3edab33c000000000000000000000000000000000000000000000000000000007bffffffffffffffffffffffffffffffffffffffffffffffffffffffff19166020820180517bffffffffffffffffffffffffffffffffffffffffffffffffffffffff838183161783525050505090506000836040516020016111659190614053565b60405160208183030381529060405280519060200120905060405160200161118c906140b6565b6040516020818303038152906040528051906020012081036112595760008373ffffffffffffffffffffffffffffffffffffffff16836040516111cf9190614107565b600060405180830381855af49150503d806000811461120a576040519150601f19603f3d011682016040523d82523d6000602084013e61120f565b606091505b5050905080611253576040517f08c379a000000000000000000000000000000000000000000000000000000000815260040161124a90614190565b60405180910390fd5b5061149e565b604051602001611268906142c4565b6040516020818303038152906040528051906020012081036113355760008373ffffffffffffffffffffffffffffffffffffffff16836040516112ab9190614107565b600060405180830381855afa9150503d80600081146112e6576040519150601f19603f3d011682016040523d82523d6000602084013e6112eb565b606091505b505090508061132f576040517f08c379a000000000000000000000000000000000000000000000000000000000815260040161132690614325565b60405180910390fd5b5061149d565b60405160200161134490614391565b6040516020818303038152906040528051906020012081036114135760008373ffffffffffffffffffffffffffffffffffffffff16836040516113879190614107565b6000604051808303816000865af19150503d80600081146113c4576040519150601f19603f3d011682016040523d82523d6000602084013e6113c9565b606091505b505090508061140d576040517f08c379a0000000000000000000000000000000000000000000000000000000008152600401611404906143f2565b60405180910390fd5b5061149c565b6040516020016114229061445e565b6040516020818303038152906040528051906020012081036114605760208201825160008082846000895af28061145857600080fd5b50505061149b565b6040517f08c379a0000000000000000000000000000000000000000000000000000000008152600401611492906144bf565b60405180910390fd5b5b5b5b50505050505050565b6114af612279565b61080073ffffffffffffffffffffffffffffffffffffffff16637d9f939c8585856040518463ffffffff1660e01b81526004016114ee93929190614b52565b600060405180830381865afa15801561150b573d6000803e3d6000fd5b505050506040513d6000823e3d601f19601f820116820180604052508101906115349190614dba565b90509392505050565b61080073ffffffffffffffffffffffffffffffffffffffff166312d58dfe858585856040518563ffffffff1660e01b815260040161157e9493929190614e03565b6020604051808303816000875af115801561159d573d6000803e3d6000fd5b505050506040513d601f19601f820116820180604052508101906115c19190613c44565b5050505050565b600061080073ffffffffffffffffffffffffffffffffffffffff1663b6039895303460016040518463ffffffff1660e01b815260040161160a9392919061468d565b6020604051808303816000875af1158015611629573d6000803e3d6000fd5b505050506040513d601f19601f8201168201806040525081019061164d9190613c44565b90508061168f576040517f08c379a000000000000000000000000000000000000000000000000000000000815260040161168690614e9b565b60405180910390fd5b61080073ffffffffffffffffffffffffffffffffffffffff166353266bbb3084346040518463ffffffff1660e01b81526004016116ce939291906147cc565b6020604051808303816000875af11580156116ed573d6000803e3d6000fd5b505050506040513d601f19601f820116820180604052508101906117119190613c44565b505050565b60005481565b600061080073ffffffffffffffffffffffffffffffffffffffff1663a50f05ac853386866040518563ffffffff1660e01b815260040161175f9493929190614f8e565b6020604051808303816000875af115801561177e573d6000803e3d6000fd5b505050506040513d601f19601f820116820180604052508101906117a29190613c44565b90509392505050565b61080073ffffffffffffffffffffffffffffffffffffffff16633edab33c8484846040518463ffffffff1660e01b81526004016117ea939291906147cc565b6020604051808303816000875af1158015611809573d6000803e3d6000fd5b505050506040513d601f19601f8201168201806040525081019061182d9190614fda565b50505050565b61080073ffffffffffffffffffffffffffffffffffffffff166353266bbb8484846040518463ffffffff1660e01b8152600401611872939291906147cc565b6020604051808303816000875af1158015611891573d6000803e3d6000fd5b505050506040513d601f19601f820116820180604052508101906118b59190613c44565b50505050565b600061080073ffffffffffffffffffffffffffffffffffffffff1663b6039895323460016040518463ffffffff1660e01b81526004016118fd9392919061468d565b6020604051808303816000875af115801561191c573d6000803e3d6000fd5b505050506040513d601f19601f820116820180604052508101906119409190613c44565b905080611982576040517f08c379a000000000000000000000000000000000000000000000000000000000815260040161197990614e9b565b60405180910390fd5b61080073ffffffffffffffffffffffffffffffffffffffff166353266bbb3084346040518463ffffffff1660e01b81526004016119c1939291906147cc565b6020604051808303816000875af11580156119e0573d6000803e3d6000fd5b505050506040513d601f19601f82011682018060405250810190611a049190613c44565b503373ffffffffffffffffffffffffffffffffffffffff166108fc349081150290604051600060405180830381858888f19350505050158015611a4b573d6000803e3d6000fd5b505050565b61080073ffffffffffffffffffffffffffffffffffffffff166354b826f5858585856040518563ffffffff1660e01b8152600401611a919493929190615007565b6020604051808303816000875af1158015611ab0573d6000803e3d6000fd5b505050506040513d601f19601f82011682018060405250810190611ad49190614fda565b5050505050565b6060611ae56122a1565b61080073ffffffffffffffffffffffffffffffffffffffff1663186b216785856040518363ffffffff1660e01b8152600401611b229291906151b8565b600060405180830381865afa158015611b3f573d6000803e3d6000fd5b505050506040513d6000823e3d601f19601f82011682018060405250810190611b6891906153ac565b915091509250929050565b6000611b7d61223e565b61080073ffffffffffffffffffffffffffffffffffffffff1663241774e685856040518363ffffffff1660e01b8152600401611bba929190613fe7565b600060405180830381865afa158015611bd7573d6000803e3d6000fd5b505050506040513d6000823e3d601f19601f82011682018060405250810190611c00919061421c565b915091509250929050565b600061080073ffffffffffffffffffffffffffffffffffffffff1663f7cd55168787873388886040518763ffffffff1660e01b8152600401611c5296959493929190615495565b6020604051808303816000875af1158015611c71573d6000803e3d6000fd5b505050506040513d601f19601f82011682018060405250810190611c959190613c44565b905095945050505050565b600061080073ffffffffffffffffffffffffffffffffffffffff1663fc08930c8433856040518463ffffffff1660e01b8152600401611ce193929190615505565b602060405180830381865afa158015611cfe573d6000803e3d6000fd5b505050506040513d601f19601f82011682018060405250810190611d229190615543565b905092915050565b6000600167ffffffffffffffff811115611d4757611d466126e4565b5b604051908082528060200260200182016040528015611d7a57816020015b6060815260200190600190039081611d655790505b509050604051806060016040528060258152602001615c916025913981600081518110611daa57611da9615570565b5b6020026020010181905250600061080073ffffffffffffffffffffffffffffffffffffffff1663b60398958787856040518463ffffffff1660e01b8152600401611df693929190615650565b6020604051808303816000875af1158015611e15573d6000803e3d6000fd5b505050506040513d601f19601f82011682018060405250810190611e399190613c44565b905080611e7b576040517f08c379a0000000000000000000000000000000000000000000000000000000008152600401611e7290615700565b60405180910390fd5b61080073ffffffffffffffffffffffffffffffffffffffff16633edab33c3285876040518463ffffffff1660e01b8152600401611eba939291906147cc565b6020604051808303816000875af1158015611ed9573d6000803e3d6000fd5b505050506040513d601f19601f82011682018060405250810190611efd9190614fda565b50505050505050565b600061080073ffffffffffffffffffffffffffffffffffffffff1663b6039895323460016040518463ffffffff1660e01b8152600401611f489392919061468d565b6020604051808303816000875af1158015611f67573d6000803e3d6000fd5b505050506040513d601f19601f82011682018060405250810190611f8b9190613c44565b905080611fcd576040517f08c379a0000000000000000000000000000000000000000000000000000000008152600401611fc490614e9b565b60405180910390fd5b61080073ffffffffffffffffffffffffffffffffffffffff166353266bbb3084600134611ffa91906148a5565b6040518463ffffffff1660e01b8152600401612018939291906147cc565b6020604051808303816000875af1158015612037573d6000803e3d6000fd5b505050506040513d601f19601f8201168201806040525081019061205b9190613c44565b505050565b600061080073ffffffffffffffffffffffffffffffffffffffff166361dc5c3b8585856040518463ffffffff1660e01b81526004016120a193929190615720565b6020604051808303816000875af11580156120c0573d6000803e3d6000fd5b505050506040513d601f19601f820116820180604052508101906120e49190613c44565b905080612126576040517f08c379a000000000000000000000000000000000000000000000000000000000815260040161211d906157c4565b60405180910390fd5b50505050565b60606121366122a1565b61080073ffffffffffffffffffffffffffffffffffffffff166310a2851c878787876040518563ffffffff1660e01b8152600401612177949392919061585a565b600060405180830381865afa158015612194573d6000803e3d6000fd5b505050506040513d6000823e3d601f19601f820116820180604052508101906121bd9190615c18565b9150915094509492505050565b6040518061016001604052806060815260200160608152602001600015158152602001600060038111156122015761220061251e565b5b8152602001600081526020016000815260200160608152602001600060070b8152602001600060070b815260200160008152602001600081525090565b604051806040016040528060608152602001600081525090565b60405180606001604052806060815260200160608152602001606081525090565b6040518060800160405280606081526020016060815260200160608152602001606081525090565b604051806040016040528060608152602001600067ffffffffffffffff1681525090565b6000604051905090565b600080fd5b600080fd5b600073ffffffffffffffffffffffffffffffffffffffff82169050919050565b6000612304826122d9565b9050919050565b612314816122f9565b811461231f57600080fd5b50565b6000813590506123318161230b565b92915050565b600080fd5b600080fd5b600080fd5b60008083601f84011261235c5761235b612337565b5b8235905067ffffffffffffffff8111156123795761237861233c565b5b60208301915083602082028301111561239557612394612341565b5b9250929050565b6000819050919050565b6123af8161239c565b81146123ba57600080fd5b50565b6000813590506123cc816123a6565b92915050565b600080600080606085870312156123ec576123eb6122cf565b5b60006123fa87828801612322565b945050602085013567ffffffffffffffff81111561241b5761241a6122d4565b5b61242787828801612346565b9350935050604061243a878288016123bd565b91505092959194509250565b60006020828403121561245c5761245b6122cf565b5b600061246a84828501612322565b91505092915050565b600081519050919050565b600082825260208201905092915050565b60005b838110156124ad578082015181840152602081019050612492565b60008484015250505050565b6000601f19601f8301169050919050565b60006124d582612473565b6124df818561247e565b93506124ef81856020860161248f565b6124f8816124b9565b840191505092915050565b60008115159050919050565b61251881612503565b82525050565b7f4e487b7100000000000000000000000000000000000000000000000000000000600052602160045260246000fd5b6004811061255e5761255d61251e565b5b50565b600081905061256f8261254d565b919050565b600061257f82612561565b9050919050565b61258f81612574565b82525050565b61259e8161239c565b82525050565b60008160070b9050919050565b6125ba816125a4565b82525050565b60006101608301600083015184820360008601526125de82826124ca565b915050602083015184820360208601526125f882826124ca565b915050604083015161260d604086018261250f565b5060608301516126206060860182612586565b5060808301516126336080860182612595565b5060a083015161264660a0860182612595565b5060c083015184820360c086015261265e82826124ca565b91505060e083015161267360e08601826125b1565b506101008301516126886101008601826125b1565b5061012083015161269d610120860182612595565b506101408301516126b2610140860182612595565b508091505092915050565b600060208201905081810360008301526126d781846125c0565b905092915050565b600080fd5b7f4e487b7100000000000000000000000000000000000000000000000000000000600052604160045260246000fd5b61271c826124b9565b810181811067ffffffffffffffff8211171561273b5761273a6126e4565b5b80604052505050565b600061274e6122c5565b905061275a8282612713565b919050565b600067ffffffffffffffff82111561277a576127796126e4565b5b612783826124b9565b9050602081019050919050565b82818337600083830152505050565b60006127b26127ad8461275f565b612744565b9050828152602081018484840111156127ce576127cd6126df565b5b6127d9848285612790565b509392505050565b600082601f8301126127f6576127f5612337565b5b813561280684826020860161279f565b91505092915050565b600080600060608486031215612828576128276122cf565b5b600061283686828701612322565b935050602084013567ffffffffffffffff811115612857576128566122d4565b5b612863868287016127e1565b925050604084013567ffffffffffffffff811115612884576128836122d4565b5b612890868287016127e1565b9150509250925092565b6128a38161239c565b82525050565b600060408301600083015184820360008601526128c682826124ca565b91505060208301516128db6020860182612595565b508091505092915050565b60006040820190506128fb600083018561289a565b818103602083015261290d81846128a9565b90509392505050565b60008060006060848603121561292f5761292e6122cf565b5b600061293d86828701612322565b935050602084013567ffffffffffffffff81111561295e5761295d6122d4565b5b61296a868287016127e1565b925050604061297b868287016123bd565b9150509250925092565b6000806040838503121561299c5761299b6122cf565b5b600083013567ffffffffffffffff8111156129ba576129b96122d4565b5b6129c6858286016127e1565b92505060206129d7858286016123bd565b9150509250929050565b600080604083850312156129f8576129f76122cf565b5b6000612a0685828601612322565b925050602083013567ffffffffffffffff811115612a2757612a266122d4565b5b612a33858286016127e1565b9150509250929050565b600081519050919050565b600082825260208201905092915050565b6000819050602082019050919050565b600067ffffffffffffffff82169050919050565b612a8681612a69565b82525050565b60c082016000820151612aa260008501826125b1565b506020820151612ab560208501826125b1565b506040820151612ac86040850182612595565b506060820151612adb6060850182612595565b506080820151612aee6080850182612a7d565b5060a0820151612b0160a08501826125b1565b50505050565b6000612b138383612a8c565b60c08301905092915050565b6000602082019050919050565b6000612b3782612a3d565b612b418185612a48565b9350612b4c83612a59565b8060005b83811015612b7d578151612b648882612b07565b9750612b6f83612b1f565b925050600181019050612b50565b5085935050505092915050565b60006060830160008301518482036000860152612ba782826124ca565b91505060208301518482036020860152612bc182826124ca565b91505060408301518482036040860152612bdb8282612b2c565b9150508091505092915050565b60006020820190508181036000830152612c028184612b8a565b905092915050565b60008060008060808587031215612c2457612c236122cf565b5b6000612c3287828801612322565b945050602085013567ffffffffffffffff811115612c5357612c526122d4565b5b612c5f878288016127e1565b9350506040612c70878288016123bd565b925050606085013567ffffffffffffffff811115612c9157612c906122d4565b5b612c9d878288016127e1565b91505092959194509250565b600081519050919050565b600082825260208201905092915050565b6000819050602082019050919050565b608082016000820151612ceb60008501826125b1565b506020820151612cfe60208501826125b1565b506040820151612d116040850182612595565b506060820151612d246060850182612595565b50505050565b6000612d368383612cd5565b60808301905092915050565b6000602082019050919050565b6000612d5a82612ca9565b612d648185612cb4565b9350612d6f83612cc5565b8060005b83811015612da0578151612d878882612d2a565b9750612d9283612d42565b925050600181019050612d73565b5085935050505092915050565b60006080830160008301518482036000860152612dca82826124ca565b91505060208301518482036020860152612de482826124ca565b91505060408301518482036040860152612dfe82826124ca565b91505060608301518482036060860152612e188282612d4f565b9150508091505092915050565b60006020820190508181036000830152612e3f8184612dad565b905092915050565b60008060008060808587031215612e6157612e606122cf565b5b6000612e6f87828801612322565b945050602085013567ffffffffffffffff811115612e9057612e8f6122d4565b5b612e9c878288016127e1565b9350506040612ead878288016123bd565b9250506060612ebe878288016123bd565b91505092959194509250565b600060208284031215612ee057612edf6122cf565b5b600082013567ffffffffffffffff811115612efe57612efd6122d4565b5b612f0a848285016127e1565b91505092915050565b6000602082019050612f28600083018461289a565b92915050565b600080fd5b600060a08284031215612f4957612f48612f2e565b5b81905092915050565b6000819050919050565b612f6581612f52565b8114612f7057600080fd5b50565b600081359050612f8281612f5c565b92915050565b600080600060608486031215612fa157612fa06122cf565b5b600084013567ffffffffffffffff811115612fbf57612fbe6122d4565b5b612fcb86828701612f33565b9350506020612fdc86828701612f73565b9250506040612fed86828701612f73565b9150509250925092565b61300081612503565b82525050565b600060208201905061301b6000830184612ff7565b92915050565b6000806000806080858703121561303b5761303a6122cf565b5b600061304987828801612322565b945050602085013567ffffffffffffffff81111561306a576130696122d4565b5b613076878288016127e1565b935050604085013567ffffffffffffffff811115613097576130966122d4565b5b6130a3878288016127e1565b92505060606130b4878288016123bd565b91505092959194509250565b600060a082840312156130d6576130d5612f2e565b5b81905092915050565b600080604083850312156130f6576130f56122cf565b5b600083013567ffffffffffffffff811115613114576131136122d4565b5b613120858286016127e1565b925050602083013567ffffffffffffffff811115613141576131406122d4565b5b61314d858286016130c0565b9150509250929050565b600081519050919050565b600082825260208201905092915050565b6000819050602082019050919050565b60006101608301600083015184820360008601526131a182826124ca565b915050602083015184820360208601526131bb82826124ca565b91505060408301516131d0604086018261250f565b5060608301516131e36060860182612586565b5060808301516131f66080860182612595565b5060a083015161320960a0860182612595565b5060c083015184820360c086015261322182826124ca565b91505060e083015161323660e08601826125b1565b5061010083015161324b6101008601826125b1565b50610120830151613260610120860182612595565b50610140830151613275610140860182612595565b508091505092915050565b600061328c8383613183565b905092915050565b6000602082019050919050565b60006132ac82613157565b6132b68185613162565b9350836020820285016132c885613173565b8060005b8581101561330457848403895281516132e58582613280565b94506132f083613294565b925060208a019950506001810190506132cc565b50829750879550505050505092915050565b600081519050919050565b600082825260208201905092915050565b600061333d82613316565b6133478185613321565b935061335781856020860161248f565b613360816124b9565b840191505092915050565b600060408301600083015184820360008601526133888282613332565b915050602083015161339d6020860182612a7d565b508091505092915050565b600060408201905081810360008301526133c281856132a1565b905081810360208301526133d6818461336b565b90509392505050565b6000606082840312156133f5576133f4612f2e565b5b81905092915050565b600080600080600060e0868803121561341a576134196122cf565b5b600086013567ffffffffffffffff811115613438576134376122d4565b5b61344488828901612f33565b9550506020613455888289016133df565b9450506080613466888289016123bd565b93505060a086013567ffffffffffffffff811115613487576134866122d4565b5b613493888289016127e1565b92505060c06134a4888289016123bd565b9150509295509295909350565b600080600080608085870312156134cb576134ca6122cf565b5b60006134d987828801612322565b94505060206134ea878288016123bd565b93505060406134fb878288016123bd565b925050606085013567ffffffffffffffff81111561351c5761351b6122d4565b5b613528878288016127e1565b91505092959194509250565b60008060006040848603121561354d5761354c6122cf565b5b600061355b86828701612322565b935050602084013567ffffffffffffffff81111561357c5761357b6122d4565b5b61358886828701612346565b92509250509250925092565b600080fd5b600080fd5b600067ffffffffffffffff8211156135b9576135b86126e4565b5b6135c2826124b9565b9050602081019050919050565b60006135e26135dd8461359e565b612744565b9050828152602081018484840111156135fe576135fd6126df565b5b613609848285612790565b509392505050565b600082601f83011261362657613625612337565b5b81356136368482602086016135cf565b91505092915050565b61364881612a69565b811461365357600080fd5b50565b6000813590506136658161363f565b92915050565b61367481612503565b811461367f57600080fd5b50565b6000813590506136918161366b565b92915050565b600060a082840312156136ad576136ac613594565b5b6136b760a0612744565b9050600082013567ffffffffffffffff8111156136d7576136d6613599565b5b6136e384828501613611565b60008301525060206136f784828501613656565b602083015250604061370b84828501613656565b604083015250606061371f84828501613682565b606083015250608061373384828501613682565b60808301525092915050565b60008060008060808587031215613759576137586122cf565b5b600061376787828801612322565b945050602085013567ffffffffffffffff811115613788576137876122d4565b5b613794878288016127e1565b935050604085013567ffffffffffffffff8111156137b5576137b46122d4565b5b6137c1878288016127e1565b925050606085013567ffffffffffffffff8111156137e2576137e16122d4565b5b6137ee87828801613697565b91505092959194509250565b600081519050919050565b600082825260208201905092915050565b6000819050602082019050919050565b6000608083016000830151848203600086015261384382826124ca565b9150506020830151848203602086015261385d82826124ca565b9150506040830151848203604086015261387782826124ca565b915050606083015184820360608601526138918282612d4f565b9150508091505092915050565b600081519050919050565b600082825260208201905092915050565b6000819050602082019050919050565b60a0820160008201516138e06000850182612cd5565b5060208201516138f36080850182612595565b50505050565b600061390583836138ca565b60a08301905092915050565b6000602082019050919050565b60006139298261389e565b61393381856138a9565b935061393e836138ba565b8060005b8381101561396f57815161395688826138f9565b975061396183613911565b925050600181019050613942565b5085935050505092915050565b600060408301600083015184820360008601526139998282613826565b915050602083015184820360208601526139b3828261391e565b9150508091505092915050565b60006139cc838361397c565b905092915050565b6000602082019050919050565b60006139ec826137fa565b6139f68185613805565b935083602082028501613a0885613816565b8060005b85811015613a445784840389528151613a2585826139c0565b9450613a30836139d4565b925060208a01995050600181019050613a0c565b50829750879550505050505092915050565b60006040820190508181036000830152613a7081856139e1565b90508181036020830152613a84818461336b565b90509392505050565b613a96816122f9565b82525050565b600082825260208201905092915050565b6000819050919050565b6000613ac3838561247e565b9350613ad0838584612790565b613ad9836124b9565b840190509392505050565b6000613af1848484613ab7565b90509392505050565b600080fd5b600080fd5b600080fd5b60008083356001602003843603038112613b2657613b25613b04565b5b83810192508235915060208301925067ffffffffffffffff821115613b4e57613b4d613afa565b5b600182023603831315613b6457613b63613aff565b5b509250929050565b6000602082019050919050565b6000613b858385613a9c565b935083602084028501613b9784613aad565b8060005b87811015613bdd578484038952613bb28284613b09565b613bbd868284613ae4565b9550613bc884613b6c565b935060208b019a505050600181019050613b9b565b50829750879450505050509392505050565b6000606082019050613c046000830187613a8d565b613c11602083018661289a565b8181036040830152613c24818486613b79565b905095945050505050565b600081519050613c3e8161366b565b92915050565b600060208284031215613c5a57613c596122cf565b5b6000613c6884828501613c2f565b91505092915050565b600082825260208201905092915050565b7f4661696c656420746f20617070726f7665207374616b696e67206d6574686f6460008201527f7300000000000000000000000000000000000000000000000000000000000000602082015250565b6000613cde602183613c71565b9150613ce982613c82565b604082019050919050565b60006020820190508181036000830152613d0d81613cd1565b9050919050565b6000602082019050613d296000830184613a8d565b92915050565b6000613d42613d3d8461275f565b612744565b905082815260208101848484011115613d5e57613d5d6126df565b5b613d6984828561248f565b509392505050565b600082601f830112613d8657613d85612337565b5b8151613d96848260208601613d2f565b91505092915050565b60048110613dac57600080fd5b50565b600081519050613dbe81613d9f565b92915050565b600081519050613dd3816123a6565b92915050565b613de2816125a4565b8114613ded57600080fd5b50565b600081519050613dff81613dd9565b92915050565b60006101608284031215613e1c57613e1b613594565b5b613e27610160612744565b9050600082015167ffffffffffffffff811115613e4757613e46613599565b5b613e5384828501613d71565b600083015250602082015167ffffffffffffffff811115613e7757613e76613599565b5b613e8384828501613d71565b6020830152506040613e9784828501613c2f565b6040830152506060613eab84828501613daf565b6060830152506080613ebf84828501613dc4565b60808301525060a0613ed384828501613dc4565b60a08301525060c082015167ffffffffffffffff811115613ef757613ef6613599565b5b613f0384828501613d71565b60c08301525060e0613f1784828501613df0565b60e083015250610100613f2c84828501613df0565b61010083015250610120613f4284828501613dc4565b61012083015250610140613f5884828501613dc4565b6101408301525092915050565b600060208284031215613f7b57613f7a6122cf565b5b600082015167ffffffffffffffff811115613f9957613f986122d4565b5b613fa584828501613e05565b91505092915050565b6000613fb982612473565b613fc38185613c71565b9350613fd381856020860161248f565b613fdc816124b9565b840191505092915050565b6000604082019050613ffc6000830185613a8d565b818103602083015261400e8184613fae565b90509392505050565b600081905092915050565b600061402d82612473565b6140378185614017565b935061404781856020860161248f565b80840191505092915050565b600061405f8284614022565b915081905092915050565b7f64656c656761746563616c6c0000000000000000000000000000000000000000600082015250565b60006140a0600c83614017565b91506140ab8261406a565b600c82019050919050565b60006140c182614093565b9150819050919050565b600081905092915050565b60006140e182613316565b6140eb81856140cb565b93506140fb81856020860161248f565b80840191505092915050565b600061411382846140d6565b915081905092915050565b7f6661696c65642064656c656761746563616c6c20746f20707265636f6d70696c60008201527f6500000000000000000000000000000000000000000000000000000000000000602082015250565b600061417a602183613c71565b91506141858261411e565b604082019050919050565b600060208201905081810360008301526141a98161416d565b9050919050565b6000604082840312156141c6576141c5613594565b5b6141d06040612744565b9050600082015167ffffffffffffffff8111156141f0576141ef613599565b5b6141fc84828501613d71565b600083015250602061421084828501613dc4565b60208301525092915050565b60008060408385031215614233576142326122cf565b5b600061424185828601613dc4565b925050602083015167ffffffffffffffff811115614262576142616122d4565b5b61426e858286016141b0565b9150509250929050565b7f73746174696363616c6c00000000000000000000000000000000000000000000600082015250565b60006142ae600a83614017565b91506142b982614278565b600a82019050919050565b60006142cf826142a1565b9150819050919050565b7f6661696c65642073746174696363616c6c20746f20707265636f6d70696c6500600082015250565b600061430f601f83613c71565b915061431a826142d9565b602082019050919050565b6000602082019050818103600083015261433e81614302565b9050919050565b7f63616c6c00000000000000000000000000000000000000000000000000000000600082015250565b600061437b600483614017565b915061438682614345565b600482019050919050565b600061439c8261436e565b9150819050919050565b7f6661696c65642063616c6c20746f20707265636f6d70696c6500000000000000600082015250565b60006143dc601983613c71565b91506143e7826143a6565b602082019050919050565b6000602082019050818103600083015261440b816143cf565b9050919050565b7f63616c6c636f6465000000000000000000000000000000000000000000000000600082015250565b6000614448600883614017565b915061445382614412565b600882019050919050565b60006144698261443b565b9150819050919050565b7f696e76616c69642063616c6c7479706500000000000000000000000000000000600082015250565b60006144a9601083613c71565b91506144b482614473565b602082019050919050565b600060208201905081810360008301526144d88161449c565b9050919050565b600081549050919050565b60008190508160005260206000209050919050565b7f4e487b7100000000000000000000000000000000000000000000000000000000600052602260045260246000fd5b6000600282049050600182168061454657607f821691505b602082108103614559576145586144ff565b5b50919050565b60008190508160005260206000209050919050565b600081546145818161452e565b61458b818661247e565b945060018216600081146145a657600181146145bc576145ef565b60ff1983168652811515602002860193506145ef565b6145c58561455f565b60005b838110156145e7578154818901526001820191506020810190506145c8565b808801955050505b50505092915050565b60006146048383614574565b905092915050565b6000600182019050919050565b6000614624826144df565b61462e8185613a9c565b935083602082028501614640856144ea565b8060005b8581101561467b5784840389528161465c85826145f8565b94506146678361460c565b925060208a01995050600181019050614644565b50829750879550505050505092915050565b60006060820190506146a26000830186613a8d565b6146af602083018561289a565b81810360408301526146c18184614619565b9050949350505050565b7f64656c65676174696f6e20617070726f76616c206661696c6564000000000000600082015250565b6000614701601a83613c71565b915061470c826146cb565b602082019050919050565b60006020820190508181036000830152614730816146f4565b9050919050565b600060408201905061474c6000830185613a8d565b614759602083018461289a565b9392505050565b7f7472616e73666572206661696c65640000000000000000000000000000000000600082015250565b6000614796600f83613c71565b91506147a182614760565b602082019050919050565b600060208201905081810360008301526147c581614789565b9050919050565b60006060820190506147e16000830186613a8d565b81810360208301526147f38185613fae565b9050614802604083018461289a565b949350505050565b7f5374616b696e6720417070726f7665206661696c656400000000000000000000600082015250565b6000614840601683613c71565b915061484b8261480a565b602082019050919050565b6000602082019050818103600083015261486f81614833565b9050919050565b7f4e487b7100000000000000000000000000000000000000000000000000000000600052601160045260246000fd5b60006148b08261239c565b91506148bb8361239c565b92508282019050808211156148d3576148d2614876565b5b92915050565b600067ffffffffffffffff8211156148f4576148f36126e4565b5b602082029050602081019050919050565b6000815190506149148161363f565b92915050565b600060c082840312156149305761492f613594565b5b61493a60c0612744565b9050600061494a84828501613df0565b600083015250602061495e84828501613df0565b602083015250604061497284828501613dc4565b604083015250606061498684828501613dc4565b606083015250608061499a84828501614905565b60808301525060a06149ae84828501613df0565b60a08301525092915050565b60006149cd6149c8846148d9565b612744565b90508083825260208201905060c084028301858111156149f0576149ef612341565b5b835b81811015614a195780614a05888261491a565b84526020840193505060c0810190506149f2565b5050509392505050565b600082601f830112614a3857614a37612337565b5b8151614a488482602086016149ba565b91505092915050565b600060608284031215614a6757614a66613594565b5b614a716060612744565b9050600082015167ffffffffffffffff811115614a9157614a90613599565b5b614a9d84828501613d71565b600083015250602082015167ffffffffffffffff811115614ac157614ac0613599565b5b614acd84828501613d71565b602083015250604082015167ffffffffffffffff811115614af157614af0613599565b5b614afd84828501614a23565b60408301525092915050565b600060208284031215614b1f57614b1e6122cf565b5b600082015167ffffffffffffffff811115614b3d57614b3c6122d4565b5b614b4984828501614a51565b91505092915050565b6000606082019050614b676000830186613a8d565b8181036020830152614b798185613fae565b90508181036040830152614b8d8184613fae565b9050949350505050565b600067ffffffffffffffff821115614bb257614bb16126e4565b5b602082029050602081019050919050565b600060808284031215614bd957614bd8613594565b5b614be36080612744565b90506000614bf384828501613df0565b6000830152506020614c0784828501613df0565b6020830152506040614c1b84828501613dc4565b6040830152506060614c2f84828501613dc4565b60608301525092915050565b6000614c4e614c4984614b97565b612744565b90508083825260208201905060808402830185811115614c7157614c70612341565b5b835b81811015614c9a5780614c868882614bc3565b845260208401935050608081019050614c73565b5050509392505050565b600082601f830112614cb957614cb8612337565b5b8151614cc9848260208601614c3b565b91505092915050565b600060808284031215614ce857614ce7613594565b5b614cf26080612744565b9050600082015167ffffffffffffffff811115614d1257614d11613599565b5b614d1e84828501613d71565b600083015250602082015167ffffffffffffffff811115614d4257614d41613599565b5b614d4e84828501613d71565b602083015250604082015167ffffffffffffffff811115614d7257614d71613599565b5b614d7e84828501613d71565b604083015250606082015167ffffffffffffffff811115614da257614da1613599565b5b614dae84828501614ca4565b60608301525092915050565b600060208284031215614dd057614dcf6122cf565b5b600082015167ffffffffffffffff811115614dee57614ded6122d4565b5b614dfa84828501614cd2565b91505092915050565b6000608082019050614e186000830187613a8d565b8181036020830152614e2a8186613fae565b9050614e39604083018561289a565b614e46606083018461289a565b95945050505050565b7f44656c656761746520417070726f7665206661696c6564000000000000000000600082015250565b6000614e85601783613c71565b9150614e9082614e4f565b602082019050919050565b60006020820190508181036000830152614eb481614e78565b9050919050565b600060a08301614ece6000840184613b09565b8583036000870152614ee1838284613ab7565b92505050614ef26020840184613b09565b8583036020870152614f05838284613ab7565b92505050614f166040840184613b09565b8583036040870152614f29838284613ab7565b92505050614f3a6060840184613b09565b8583036060870152614f4d838284613ab7565b92505050614f5e6080840184613b09565b8583036080870152614f71838284613ab7565b925050508091505092915050565b614f8881612f52565b82525050565b60006080820190508181036000830152614fa88187614ebb565b9050614fb76020830186613a8d565b614fc46040830185614f7f565b614fd16060830184614f7f565b95945050505050565b600060208284031215614ff057614fef6122cf565b5b6000614ffe84828501613df0565b91505092915050565b600060808201905061501c6000830187613a8d565b818103602083015261502e8186613fae565b905081810360408301526150428185613fae565b9050615051606083018461289a565b95945050505050565b6000808335600160200384360303811261507757615076613b04565b5b83810192508235915060208301925067ffffffffffffffff82111561509f5761509e613afa565b5b6001820236038313156150b5576150b4613aff565b5b509250929050565b60006150c98385613321565b93506150d6838584612790565b6150df836124b9565b840190509392505050565b60006150f96020840184613656565b905092915050565b60006151106020840184613682565b905092915050565b600060a0830161512b600084018461505a565b858303600087015261513e8382846150bd565b9250505061514f60208401846150ea565b61515c6020860182612a7d565b5061516a60408401846150ea565b6151776040860182612a7d565b506151856060840184615101565b615192606086018261250f565b506151a06080840184615101565b6151ad608086018261250f565b508091505092915050565b600060408201905081810360008301526151d28185613fae565b905081810360208301526151e68184615118565b90509392505050565b600067ffffffffffffffff82111561520a576152096126e4565b5b602082029050602081019050919050565b600061522e615229846151ef565b612744565b9050808382526020820190506020840283018581111561525157615250612341565b5b835b8181101561529857805167ffffffffffffffff81111561527657615275612337565b5b8086016152838982613e05565b85526020850194505050602081019050615253565b5050509392505050565b600082601f8301126152b7576152b6612337565b5b81516152c784826020860161521b565b91505092915050565b60006152e36152de8461359e565b612744565b9050828152602081018484840111156152ff576152fe6126df565b5b61530a84828561248f565b509392505050565b600082601f83011261532757615326612337565b5b81516153378482602086016152d0565b91505092915050565b60006040828403121561535657615355613594565b5b6153606040612744565b9050600082015167ffffffffffffffff8111156153805761537f613599565b5b61538c84828501615312565b60008301525060206153a084828501614905565b60208301525092915050565b600080604083850312156153c3576153c26122cf565b5b600083015167ffffffffffffffff8111156153e1576153e06122d4565b5b6153ed858286016152a2565b925050602083015167ffffffffffffffff81111561540e5761540d6122d4565b5b61541a85828601615340565b9150509250929050565b600061543360208401846123bd565b905092915050565b6060820161544c6000830183615424565b6154596000850182612595565b506154676020830183615424565b6154746020850182612595565b506154826040830183615424565b61548f6040850182612595565b50505050565b60006101008201905081810360008301526154b08189614ebb565b90506154bf602083018861543b565b6154cc608083018761289a565b6154d960a0830186613a8d565b81810360c08301526154eb8185613fae565b90506154fa60e083018461289a565b979650505050505050565b600060608201905061551a6000830186613a8d565b6155276020830185613a8d565b81810360408301526155398184613fae565b9050949350505050565b600060208284031215615559576155586122cf565b5b600061556784828501613dc4565b91505092915050565b7f4e487b7100000000000000000000000000000000000000000000000000000000600052603260045260246000fd5b600081519050919050565b6000819050602082019050919050565b60006155c683836124ca565b905092915050565b6000602082019050919050565b60006155e68261559f565b6155f08185613a9c565b935083602082028501615602856155aa565b8060005b8581101561563e578484038952815161561f85826155ba565b945061562a836155ce565b925060208a01995050600181019050615606565b50829750879550505050505092915050565b60006060820190506156656000830186613a8d565b615672602083018561289a565b818103604083015261568481846155db565b9050949350505050565b7f6661696c656420746f20617070726f766520756e64656c65676174696f6e206d60008201527f6574686f64000000000000000000000000000000000000000000000000000000602082015250565b60006156ea602583613c71565b91506156f58261568e565b604082019050919050565b60006020820190508181036000830152615719816156dd565b9050919050565b60006040820190506157356000830186613a8d565b8181036020830152615748818486613b79565b9050949350505050565b7f4661696c656420746f207265766f6b6520617070726f76616c20666f7220737460008201527f616b696e67206d6574686f647300000000000000000000000000000000000000602082015250565b60006157ae602d83613c71565b91506157b982615752565b604082019050919050565b600060208201905081810360008301526157dd816157a1565b9050919050565b600060a08301600083015184820360008601526158018282613332565b91505060208301516158166020860182612a7d565b5060408301516158296040860182612a7d565b50606083015161583c606086018261250f565b50608083015161584f608086018261250f565b508091505092915050565b600060808201905061586f6000830187613a8d565b81810360208301526158818186613fae565b905081810360408301526158958185613fae565b905081810360608301526158a981846157e4565b905095945050505050565b600067ffffffffffffffff8211156158cf576158ce6126e4565b5b602082029050602081019050919050565b6000608082840312156158f6576158f5613594565b5b6159006080612744565b9050600082015167ffffffffffffffff8111156159205761591f613599565b5b61592c84828501613d71565b600083015250602082015167ffffffffffffffff8111156159505761594f613599565b5b61595c84828501613d71565b602083015250604082015167ffffffffffffffff8111156159805761597f613599565b5b61598c84828501613d71565b604083015250606082015167ffffffffffffffff8111156159b0576159af613599565b5b6159bc84828501614ca4565b60608301525092915050565b600067ffffffffffffffff8211156159e3576159e26126e4565b5b602082029050602081019050919050565b600060a08284031215615a0a57615a09613594565b5b615a146040612744565b90506000615a2484828501614bc3565b6000830152506080615a3884828501613dc4565b60208301525092915050565b6000615a57615a52846159c8565b612744565b90508083825260208201905060a08402830185811115615a7a57615a79612341565b5b835b81811015615aa35780615a8f88826159f4565b84526020840193505060a081019050615a7c565b5050509392505050565b600082601f830112615ac257615ac1612337565b5b8151615ad2848260208601615a44565b91505092915050565b600060408284031215615af157615af0613594565b5b615afb6040612744565b9050600082015167ffffffffffffffff811115615b1b57615b1a613599565b5b615b27848285016158e0565b600083015250602082015167ffffffffffffffff811115615b4b57615b4a613599565b5b615b5784828501615aad565b60208301525092915050565b6000615b76615b71846158b4565b612744565b90508083825260208201905060208402830185811115615b9957615b98612341565b5b835b81811015615be057805167ffffffffffffffff811115615bbe57615bbd612337565b5b808601615bcb8982615adb565b85526020850194505050602081019050615b9b565b5050509392505050565b600082601f830112615bff57615bfe612337565b5b8151615c0f848260208601615b63565b91505092915050565b60008060408385031215615c2f57615c2e6122cf565b5b600083015167ffffffffffffffff811115615c4d57615c4c6122d4565b5b615c5985828601615bea565b925050602083015167ffffffffffffffff811115615c7a57615c796122d4565b5b615c8685828601615340565b915050925092905056fe2f636f736d6f732e7374616b696e672e763162657461312e4d7367556e64656c6567617465a26469706673582212203a0b697da4f5370fcbf26be1c442ab6a647cc57c9818cd42f21bba495d4d4a5764736f6c634300081200332f636f736d6f732e7374616b696e672e763162657461312e4d736744656c6567617465",
  "linkReferences": {},
  "deployedLinkReferences": {}
}