{
  "_format": "hh-sol-artifact-1",
  "contractName": "StakingCallerTwo",
  "sourceName": "solidity/precompiles/staking/testdata/StakingCallerTwo.sol",
  "abi": [
    {
      "inputs": [],
      "name": "counter",
      "outputs": [
        {
          "internalType": "uint256",
          "name": "",
          "type": "uint256"
        }
      ],
      "stateMutability": "view",
      "type": "function"
    },
    {
      "inputs": [
        {
          "internalType": "address",
          "name": "_addr",
          "type": "address"
        },
        {
          "internalType": "string[]",
          "name": "_methods",
          "type": "string[]"
        },
        {
          "internalType": "uint256",
          "name": "_amount",
          "type": "uint256"
        }
      ],
      "name": "testApprove",
      "outputs": [],
      "stateMutability": "nonpayable",
      "type": "function"
    },
    {
      "inputs": [
        {
          "components": [
            {
              "internalType": "string",
              "name": "moniker",
              "type": "string"
            },
            {
              "internalType": "string",
              "name": "identity",
              "type": "string"
            },
            {
              "internalType": "string",
              "name": "website",
              "type": "string"
            },
            {
              "internalType": "string",
              "name": "securityContact",
              "type": "string"
            },
            {
              "internalType": "string",
              "name": "details",
              "type": "string"
            }
          ],
          "internalType": "struct Description",
          "name": "_descr",
          "type": "tuple"
        },
        {
          "components": [
            {
              "internalType": "uint256",
              "name": "rate",
              "type": "uint256"
            },
            {
              "internalType": "uint256",
              "name": "maxRate",
              "type": "uint256"
            },
            {
              "internalType": "uint256",
              "name": "maxChangeRate",
              "type": "uint256"
            }
          ],
          "internalType": "struct CommissionRates",
          "name": "_commRates",
          "type": "tuple"
        },
        {
          "internalType": "uint256",
          "name": "_minSelfDel",
          "type": "uint256"
        },
        {
          "internalType": "address",
          "name": "_validator",
          "type": "address"
        },
        {
          "internalType": "string",
          "name": "_pubkey",
          "type": "string"
        },
        {
          "internalType": "uint256",
          "name": "_value",
          "type": "uint256"
        },
        {
          "internalType": "bool",
          "name": "_before",
          "type": "bool"
        },
        {
          "internalType": "bool",
          "name": "_after",
          "type": "bool"
        }
      ],
      "name": "testCreateValidatorWithTransfer",
      "outputs": [],
      "stateMutability": "nonpayable",
      "type": "function"
    },
    {
      "inputs": [
        {
          "internalType": "address payable",
          "name": "_delegator",
          "type": "address"
        },
        {
          "internalType": "string",
          "name": "_validatorAddr",
          "type": "string"
        },
        {
          "internalType": "uint256",
          "name": "_amount",
          "type": "uint256"
        },
        {
          "internalType": "bool",
          "name": "_before",
          "type": "bool"
        },
        {
          "internalType": "bool",
          "name": "_after",
          "type": "bool"
        }
      ],
      "name": "testDelegateWithCounterAndTransfer",
      "outputs": [],
      "stateMutability": "nonpayable",
      "type": "function"
    },
    {
      "inputs": [
        {
          "internalType": "address payable",
          "name": "_dest",
          "type": "address"
        },
        {
          "internalType": "address payable",
          "name": "_delegator",
          "type": "address"
        },
        {
          "internalType": "string",
          "name": "_validatorAddr",
          "type": "string"
        },
        {
          "internalType": "uint256",
          "name": "_amount",
          "type": "uint256"
        },
        {
          "internalType": "bool",
          "name": "_before",
          "type": "bool"
        },
        {
          "internalType": "bool",
          "name": "_after",
          "type": "bool"
        }
      ],
      "name": "testDelegateWithTransfer",
      "outputs": [],
      "stateMutability": "nonpayable",
      "type": "function"
    }
  ],
  "bytecode": "0x608060405234801561001057600080fd5b50611590806100206000396000f3fe608060405234801561001057600080fd5b50600436106100575760003560e01c80630a4433e21461005c578063365465a814610078578063405da99f1461009457806361bc221a146100b057806389493f41146100ce575b600080fd5b61007660048036038101906100719190610980565b6100ea565b005b610092600480360381019061008d9190610bb0565b6101b9565b005b6100ae60048036038101906100a99190610cde565b610428565b005b6100b861064a565b6040516100c59190610d84565b60405180910390f35b6100e860048036038101906100e39190610d9f565b610650565b005b600061080073ffffffffffffffffffffffffffffffffffffffff1663b6039895868487876040518563ffffffff1660e01b815260040161012d9493929190610fbb565b6020604051808303816000875af115801561014c573d6000803e3d6000fd5b505050506040513d601f19601f820116820180604052508101906101709190611010565b9050806101b2576040517f08c379a00000000000000000000000000000000000000000000000000000000081526004016101a9906110c0565b60405180910390fd5b5050505050565b8115610285576000808154809291906101d19061110f565b919050555060008573ffffffffffffffffffffffffffffffffffffffff16600f6040516101fd90611188565b60006040518083038185875af1925050503d806000811461023a576040519150601f19603f3d011682016040523d82523d6000602084013e61023f565b606091505b5050905080610283576040517f08c379a000000000000000000000000000000000000000000000000000000000815260040161027a9061120f565b60405180910390fd5b505b600061080073ffffffffffffffffffffffffffffffffffffffff1663f7cd55168a8a8a8a8a8a6040518763ffffffff1660e01b81526004016102cc969594939291906113e1565b6020604051808303816000875af11580156102eb573d6000803e3d6000fd5b505050506040513d601f19601f8201168201806040525081019061030f9190611010565b905080610351576040517f08c379a00000000000000000000000000000000000000000000000000000000081526004016103489061149d565b60405180910390fd5b811561041d576000808154809291906103699061110f565b919050555060008673ffffffffffffffffffffffffffffffffffffffff16600f60405161039590611188565b60006040518083038185875af1925050503d80600081146103d2576040519150601f19603f3d011682016040523d82523d6000602084013e6103d7565b606091505b505090508061041b576040517f08c379a00000000000000000000000000000000000000000000000000000000081526004016104129061120f565b60405180910390fd5b505b505050505050505050565b81156104f4576000808154809291906104409061110f565b919050555060008573ffffffffffffffffffffffffffffffffffffffff16600f60405161046c90611188565b60006040518083038185875af1925050503d80600081146104a9576040519150601f19603f3d011682016040523d82523d6000602084013e6104ae565b606091505b50509050806104f2576040517f08c379a00000000000000000000000000000000000000000000000000000000081526004016104e99061120f565b60405180910390fd5b505b61080073ffffffffffffffffffffffffffffffffffffffff166353266bbb8686866040518463ffffffff1660e01b81526004016105339392919061151c565b6020604051808303816000875af1158015610552573d6000803e3d6000fd5b505050506040513d601f19601f820116820180604052508101906105769190611010565b5080156106435760008081548092919061058f9061110f565b919050555060008573ffffffffffffffffffffffffffffffffffffffff16600f6040516105bb90611188565b60006040518083038185875af1925050503d80600081146105f8576040519150601f19603f3d011682016040523d82523d6000602084013e6105fd565b606091505b5050905080610641576040517f08c379a00000000000000000000000000000000000000000000000000000000081526004016106389061120f565b60405180910390fd5b505b5050505050565b60005481565b811561071c576000808154809291906106689061110f565b919050555060008673ffffffffffffffffffffffffffffffffffffffff16600f60405161069490611188565b60006040518083038185875af1925050503d80600081146106d1576040519150601f19603f3d011682016040523d82523d6000602084013e6106d6565b606091505b505090508061071a576040517f08c379a00000000000000000000000000000000000000000000000000000000081526004016107119061120f565b60405180910390fd5b505b61080073ffffffffffffffffffffffffffffffffffffffff166353266bbb8686866040518463ffffffff1660e01b815260040161075b9392919061151c565b6020604051808303816000875af115801561077a573d6000803e3d6000fd5b505050506040513d601f19601f8201168201806040525081019061079e9190611010565b50801561086b576000808154809291906107b79061110f565b919050555060008673ffffffffffffffffffffffffffffffffffffffff16600f6040516107e390611188565b60006040518083038185875af1925050503d8060008114610820576040519150601f19603f3d011682016040523d82523d6000602084013e610825565b606091505b5050905080610869576040517f08c379a00000000000000000000000000000000000000000000000000000000081526004016108609061120f565b60405180910390fd5b505b505050505050565b6000604051905090565b600080fd5b600080fd5b600073ffffffffffffffffffffffffffffffffffffffff82169050919050565b60006108b282610887565b9050919050565b6108c2816108a7565b81146108cd57600080fd5b50565b6000813590506108df816108b9565b92915050565b600080fd5b600080fd5b600080fd5b60008083601f84011261090a576109096108e5565b5b8235905067ffffffffffffffff811115610927576109266108ea565b5b602083019150836020820283011115610943576109426108ef565b5b9250929050565b6000819050919050565b61095d8161094a565b811461096857600080fd5b50565b60008135905061097a81610954565b92915050565b6000806000806060858703121561099a5761099961087d565b5b60006109a8878288016108d0565b945050602085013567ffffffffffffffff8111156109c9576109c8610882565b5b6109d5878288016108f4565b935093505060406109e88782880161096b565b91505092959194509250565b600080fd5b600060a08284031215610a0f57610a0e6109f4565b5b81905092915050565b600060608284031215610a2e57610a2d6109f4565b5b81905092915050565b600080fd5b6000601f19601f8301169050919050565b7f4e487b7100000000000000000000000000000000000000000000000000000000600052604160045260246000fd5b610a8582610a3c565b810181811067ffffffffffffffff82111715610aa457610aa3610a4d565b5b80604052505050565b6000610ab7610873565b9050610ac38282610a7c565b919050565b600067ffffffffffffffff821115610ae357610ae2610a4d565b5b610aec82610a3c565b9050602081019050919050565b82818337600083830152505050565b6000610b1b610b1684610ac8565b610aad565b905082815260208101848484011115610b3757610b36610a37565b5b610b42848285610af9565b509392505050565b600082601f830112610b5f57610b5e6108e5565b5b8135610b6f848260208601610b08565b91505092915050565b60008115159050919050565b610b8d81610b78565b8114610b9857600080fd5b50565b600081359050610baa81610b84565b92915050565b600080600080600080600080610140898b031215610bd157610bd061087d565b5b600089013567ffffffffffffffff811115610bef57610bee610882565b5b610bfb8b828c016109f9565b9850506020610c0c8b828c01610a18565b9750506080610c1d8b828c0161096b565b96505060a0610c2e8b828c016108d0565b95505060c089013567ffffffffffffffff811115610c4f57610c4e610882565b5b610c5b8b828c01610b4a565b94505060e0610c6c8b828c0161096b565b935050610100610c7e8b828c01610b9b565b925050610120610c908b828c01610b9b565b9150509295985092959890939650565b6000610cab82610887565b9050919050565b610cbb81610ca0565b8114610cc657600080fd5b50565b600081359050610cd881610cb2565b92915050565b600080600080600060a08688031215610cfa57610cf961087d565b5b6000610d0888828901610cc9565b955050602086013567ffffffffffffffff811115610d2957610d28610882565b5b610d3588828901610b4a565b9450506040610d468882890161096b565b9350506060610d5788828901610b9b565b9250506080610d6888828901610b9b565b9150509295509295909350565b610d7e8161094a565b82525050565b6000602082019050610d996000830184610d75565b92915050565b60008060008060008060c08789031215610dbc57610dbb61087d565b5b6000610dca89828a01610cc9565b9650506020610ddb89828a01610cc9565b955050604087013567ffffffffffffffff811115610dfc57610dfb610882565b5b610e0889828a01610b4a565b9450506060610e1989828a0161096b565b9350506080610e2a89828a01610b9b565b92505060a0610e3b89828a01610b9b565b9150509295509295509295565b610e51816108a7565b82525050565b600082825260208201905092915050565b6000819050919050565b600082825260208201905092915050565b6000610e8f8385610e72565b9350610e9c838584610af9565b610ea583610a3c565b840190509392505050565b6000610ebd848484610e83565b90509392505050565b600080fd5b600080fd5b600080fd5b60008083356001602003843603038112610ef257610ef1610ed0565b5b83810192508235915060208301925067ffffffffffffffff821115610f1a57610f19610ec6565b5b600182023603831315610f3057610f2f610ecb565b5b509250929050565b6000602082019050919050565b6000610f518385610e57565b935083602084028501610f6384610e68565b8060005b87811015610fa9578484038952610f7e8284610ed5565b610f89868284610eb0565b9550610f9484610f38565b935060208b019a505050600181019050610f67565b50829750879450505050509392505050565b6000606082019050610fd06000830187610e48565b610fdd6020830186610d75565b8181036040830152610ff0818486610f45565b905095945050505050565b60008151905061100a81610b84565b92915050565b6000602082840312156110265761102561087d565b5b600061103484828501610ffb565b91505092915050565b600082825260208201905092915050565b7f4661696c656420746f20617070726f7665207374616b696e67206d6574686f6460008201527f7300000000000000000000000000000000000000000000000000000000000000602082015250565b60006110aa60218361103d565b91506110b58261104e565b604082019050919050565b600060208201905081810360008301526110d98161109d565b9050919050565b7f4e487b7100000000000000000000000000000000000000000000000000000000600052601160045260246000fd5b600061111a8261094a565b91507fffffffffffffffffffffffffffffffffffffffffffffffffffffffffffffffff820361114c5761114b6110e0565b5b600182019050919050565b600081905092915050565b50565b6000611172600083611157565b915061117d82611162565b600082019050919050565b600061119382611165565b9150819050919050565b7f4661696c656420746f2073656e6420457468657220746f2064656c656761746f60008201527f7200000000000000000000000000000000000000000000000000000000000000602082015250565b60006111f960218361103d565b91506112048261119d565b604082019050919050565b60006020820190508181036000830152611228816111ec565b9050919050565b600060a083016112426000840184610ed5565b8583036000870152611255838284610e83565b925050506112666020840184610ed5565b8583036020870152611279838284610e83565b9250505061128a6040840184610ed5565b858303604087015261129d838284610e83565b925050506112ae6060840184610ed5565b85830360608701526112c1838284610e83565b925050506112d26080840184610ed5565b85830360808701526112e5838284610e83565b925050508091505092915050565b6000611302602084018461096b565b905092915050565b6113138161094a565b82525050565b6060820161132a60008301836112f3565b611337600085018261130a565b5061134560208301836112f3565b611352602085018261130a565b5061136060408301836112f3565b61136d604085018261130a565b50505050565b600081519050919050565b60005b8381101561139c578082015181840152602081019050611381565b60008484015250505050565b60006113b382611373565b6113bd818561103d565b93506113cd81856020860161137e565b6113d681610a3c565b840191505092915050565b60006101008201905081810360008301526113fc818961122f565b905061140b6020830188611319565b6114186080830187610d75565b61142560a0830186610e48565b81810360c083015261143781856113a8565b905061144660e0830184610d75565b979650505050505050565b7f4661696c656420746f20637265617465207468652076616c696461746f720000600082015250565b6000611487601e8361103d565b915061149282611451565b602082019050919050565b600060208201905081810360008301526114b68161147a565b9050919050565b6000819050919050565b60006114e26114dd6114d884610887565b6114bd565b610887565b9050919050565b60006114f4826114c7565b9050919050565b6000611506826114e9565b9050919050565b611516816114fb565b82525050565b6000606082019050611531600083018661150d565b818103602083015261154381856113a8565b90506115526040830184610d75565b94935050505056fea264697066735822122003832ab382861d2894e6822f69b8ae70f7e7900365e9a257288a1c0152b67c2364736f6c63430008130033",
  "linkReferences": {},
  "deployedLinkReferences": {}
}