{
  "_format": "hh-sol-artifact-1",
  "contractName": "StakingCaller",
  "sourceName": "solidity/precompiles/staking/testdata/StakingCaller.sol",
  "abi": [
    {
      "inputs": [
        {
          "internalType": "string",
          "name": "_validatorAddr",
          "type": "string"
        }
      ],
      "name": "approveDepositAndDelegate",
      "outputs": [],
      "stateMutability": "payable",
      "type": "function"
    },
    {
      "inputs": [
        {
          "internalType": "string",
          "name": "_validatorAddr",
          "type": "string"
        }
      ],
      "name": "approveDepositAndDelegateExceedingAllowance",
      "outputs": [],
      "stateMutability": "payable",
      "type": "function"
    },
    {
      "inputs": [
        {
          "internalType": "string",
          "name": "_validatorAddr",
          "type": "string"
        }
      ],
      "name": "approveDepositDelegateAndFailCustomLogic",
      "outputs": [],
      "stateMutability": "payable",
      "type": "function"
    },
    {
      "inputs": [
        {
          "internalType": "address",
          "name": "_contract",
          "type": "address"
        },
        {
          "internalType": "string",
          "name": "_validatorAddr",
          "type": "string"
        },
        {
          "internalType": "uint256",
          "name": "_amount",
          "type": "uint256"
        }
      ],
      "name": "callERC20AndDelegate",
      "outputs": [],
      "stateMutability": "nonpayable",
      "type": "function"
    },
    {
      "inputs": [],
      "name": "counter",
      "outputs": [
        {
          "internalType": "uint256",
          "name": "",
          "type": "uint256"
        }
      ],
      "stateMutability": "view",
      "type": "function"
    },
    {
      "inputs": [
        {
          "internalType": "address",
          "name": "_grantee",
          "type": "address"
        },
        {
          "internalType": "string",
          "name": "method",
          "type": "string"
        }
      ],
      "name": "getAllowance",
      "outputs": [
        {
          "internalType": "uint256",
          "name": "allowance",
          "type": "uint256"
        }
      ],
      "stateMutability": "view",
      "type": "function"
    },
    {
      "inputs": [
        {
          "internalType": "address",
          "name": "_addr",
          "type": "address"
        },
        {
          "internalType": "string",
          "name": "_validatorAddr",
          "type": "string"
        }
      ],
      "name": "getDelegation",
      "outputs": [
        {
          "internalType": "uint256",
          "name": "shares",
          "type": "uint256"
        },
        {
          "components": [
            {
              "internalType": "string",
              "name": "denom",
              "type": "string"
            },
            {
              "internalType": "uint256",
              "name": "amount",
              "type": "uint256"
            }
          ],
          "internalType": "struct Coin",
          "name": "balance",
          "type": "tuple"
        }
      ],
      "stateMutability": "view",
      "type": "function"
    },
    {
      "inputs": [
        {
          "internalType": "address",
          "name": "_addr",
          "type": "address"
        },
        {
          "internalType": "string",
          "name": "_validatorSrcAddr",
          "type": "string"
        },
        {
          "internalType": "string",
          "name": "_validatorDstAddr",
          "type": "string"
        }
      ],
      "name": "getRedelegation",
      "outputs": [
        {
          "components": [
            {
              "internalType": "string",
              "name": "delegatorAddress",
              "type": "string"
            },
            {
              "internalType": "string",
              "name": "validatorSrcAddress",
              "type": "string"
            },
            {
              "internalType": "string",
              "name": "validatorDstAddress",
              "type": "string"
            },
            {
              "components": [
                {
                  "internalType": "int64",
                  "name": "creationHeight",
                  "type": "int64"
                },
                {
                  "internalType": "int64",
                  "name": "completionTime",
                  "type": "int64"
                },
                {
                  "internalType": "uint256",
                  "name": "initialBalance",
                  "type": "uint256"
                },
                {
                  "internalType": "uint256",
                  "name": "sharesDst",
                  "type": "uint256"
                }
              ],
              "internalType": "struct RedelegationEntry[]",
              "name": "entries",
              "type": "tuple[]"
            }
          ],
          "internalType": "struct RedelegationOutput",
          "name": "redelegation",
          "type": "tuple"
        }
      ],
      "stateMutability": "view",
      "type": "function"
    },
    {
      "inputs": [
        {
          "internalType": "address",
          "name": "_delegatorAddr",
          "type": "address"
        },
        {
          "internalType": "string",
          "name": "_validatorSrcAddr",
          "type": "string"
        },
        {
          "internalType": "string",
          "name": "_validatorDstAddr",
          "type": "string"
        },
        {
          "components": [
            {
              "internalType": "bytes",
              "name": "key",
              "type": "bytes"
            },
            {
              "internalType": "uint64",
              "name": "offset",
              "type": "uint64"
            },
            {
              "internalType": "uint64",
              "name": "limit",
              "type": "uint64"
            },
            {
              "internalType": "bool",
              "name": "countTotal",
              "type": "bool"
            },
            {
              "internalType": "bool",
              "name": "reverse",
              "type": "bool"
            }
          ],
          "internalType": "struct PageRequest",
          "name": "_pageRequest",
          "type": "tuple"
        }
      ],
      "name": "getRedelegations",
      "outputs": [
        {
          "components": [
            {
              "components": [
                {
                  "internalType": "string",
                  "name": "delegatorAddress",
                  "type": "string"
                },
                {
                  "internalType": "string",
                  "name": "validatorSrcAddress",
                  "type": "string"
                },
                {
                  "internalType": "string",
                  "name": "validatorDstAddress",
                  "type": "string"
                },
                {
                  "components": [
                    {
                      "internalType": "int64",
                      "name": "creationHeight",
                      "type": "int64"
                    },
                    {
                      "internalType": "int64",
                      "name": "completionTime",
                      "type": "int64"
                    },
                    {
                      "internalType": "uint256",
                      "name": "initialBalance",
                      "type": "uint256"
                    },
                    {
                      "internalType": "uint256",
                      "name": "sharesDst",
                      "type": "uint256"
                    }
                  ],
                  "internalType": "struct RedelegationEntry[]",
                  "name": "entries",
                  "type": "tuple[]"
                }
              ],
              "internalType": "struct Redelegation",
              "name": "redelegation",
              "type": "tuple"
            },
            {
              "components": [
                {
                  "components": [
                    {
                      "internalType": "int64",
                      "name": "creationHeight",
                      "type": "int64"
                    },
                    {
                      "internalType": "int64",
                      "name": "completionTime",
                      "type": "int64"
                    },
                    {
                      "internalType": "uint256",
                      "name": "initialBalance",
                      "type": "uint256"
                    },
                    {
                      "internalType": "uint256",
                      "name": "sharesDst",
                      "type": "uint256"
                    }
                  ],
                  "internalType": "struct RedelegationEntry",
                  "name": "redelegationEntry",
                  "type": "tuple"
                },
                {
                  "internalType": "uint256",
                  "name": "balance",
                  "type": "uint256"
                }
              ],
              "internalType": "struct RedelegationEntryResponse[]",
              "name": "entries",
              "type": "tuple[]"
            }
          ],
          "internalType": "struct RedelegationResponse[]",
          "name": "response",
          "type": "tuple[]"
        },
        {
          "components": [
            {
              "internalType": "bytes",
              "name": "nextKey",
              "type": "bytes"
            },
            {
              "internalType": "uint64",
              "name": "total",
              "type": "uint64"
            }
          ],
          "internalType": "struct PageResponse",
          "name": "pageResponse",
          "type": "tuple"
        }
      ],
      "stateMutability": "view",
      "type": "function"
    },
    {
      "inputs": [
        {
          "internalType": "address",
          "name": "_addr",
          "type": "address"
        },
        {
          "internalType": "string",
          "name": "_validatorAddr",
          "type": "string"
        }
      ],
      "name": "getUnbondingDelegation",
      "outputs": [
        {
          "components": [
            {
              "internalType": "string",
              "name": "delegatorAddress",
              "type": "string"
            },
            {
              "internalType": "string",
              "name": "validatorAddress",
              "type": "string"
            },
            {
              "components": [
                {
                  "internalType": "int64",
                  "name": "creationHeight",
                  "type": "int64"
                },
                {
                  "internalType": "int64",
                  "name": "completionTime",
                  "type": "int64"
                },
                {
                  "internalType": "uint256",
                  "name": "initialBalance",
                  "type": "uint256"
                },
                {
                  "internalType": "uint256",
                  "name": "balance",
                  "type": "uint256"
                },
                {
                  "internalType": "uint64",
                  "name": "unbondingId",
                  "type": "uint64"
                },
                {
                  "internalType": "int64",
                  "name": "unbondingOnHoldRefCount",
                  "type": "int64"
                }
              ],
              "internalType": "struct UnbondingDelegationEntry[]",
              "name": "entries",
              "type": "tuple[]"
            }
          ],
          "internalType": "struct UnbondingDelegationOutput",
          "name": "unbondingDelegation",
          "type": "tuple"
        }
      ],
      "stateMutability": "view",
      "type": "function"
    },
    {
      "inputs": [
        {
          "internalType": "address",
          "name": "_validatorAddr",
          "type": "address"
        }
      ],
      "name": "getValidator",
      "outputs": [
        {
          "components": [
            {
              "internalType": "string",
              "name": "operatorAddress",
              "type": "string"
            },
            {
              "internalType": "string",
              "name": "consensusPubkey",
              "type": "string"
            },
            {
              "internalType": "bool",
              "name": "jailed",
              "type": "bool"
            },
            {
              "internalType": "enum BondStatus",
              "name": "status",
              "type": "uint8"
            },
            {
              "internalType": "uint256",
              "name": "tokens",
              "type": "uint256"
            },
            {
              "internalType": "uint256",
              "name": "delegatorShares",
              "type": "uint256"
            },
            {
              "internalType": "string",
              "name": "description",
              "type": "string"
            },
            {
              "internalType": "int64",
              "name": "unbondingHeight",
              "type": "int64"
            },
            {
              "internalType": "int64",
              "name": "unbondingTime",
              "type": "int64"
            },
            {
              "internalType": "uint256",
              "name": "commission",
              "type": "uint256"
            },
            {
              "internalType": "uint256",
              "name": "minSelfDelegation",
              "type": "uint256"
            }
          ],
          "internalType": "struct Validator",
          "name": "validator",
          "type": "tuple"
        }
      ],
      "stateMutability": "view",
      "type": "function"
    },
    {
      "inputs": [
        {
          "internalType": "string",
          "name": "_status",
          "type": "string"
        },
        {
          "components": [
            {
              "internalType": "bytes",
              "name": "key",
              "type": "bytes"
            },
            {
              "internalType": "uint64",
              "name": "offset",
              "type": "uint64"
            },
            {
              "internalType": "uint64",
              "name": "limit",
              "type": "uint64"
            },
            {
              "internalType": "bool",
              "name": "countTotal",
              "type": "bool"
            },
            {
              "internalType": "bool",
              "name": "reverse",
              "type": "bool"
            }
          ],
          "internalType": "struct PageRequest",
          "name": "_pageRequest",
          "type": "tuple"
        }
      ],
      "name": "getValidators",
      "outputs": [
        {
          "components": [
            {
              "internalType": "string",
              "name": "operatorAddress",
              "type": "string"
            },
            {
              "internalType": "string",
              "name": "consensusPubkey",
              "type": "string"
            },
            {
              "internalType": "bool",
              "name": "jailed",
              "type": "bool"
            },
            {
              "internalType": "enum BondStatus",
              "name": "status",
              "type": "uint8"
            },
            {
              "internalType": "uint256",
              "name": "tokens",
              "type": "uint256"
            },
            {
              "internalType": "uint256",
              "name": "delegatorShares",
              "type": "uint256"
            },
            {
              "internalType": "string",
              "name": "description",
              "type": "string"
            },
            {
              "internalType": "int64",
              "name": "unbondingHeight",
              "type": "int64"
            },
            {
              "internalType": "int64",
              "name": "unbondingTime",
              "type": "int64"
            },
            {
              "internalType": "uint256",
              "name": "commission",
              "type": "uint256"
            },
            {
              "internalType": "uint256",
              "name": "minSelfDelegation",
              "type": "uint256"
            }
          ],
          "internalType": "struct Validator[]",
          "name": "validators",
          "type": "tuple[]"
        },
        {
          "components": [
            {
              "internalType": "bytes",
              "name": "nextKey",
              "type": "bytes"
            },
            {
              "internalType": "uint64",
              "name": "total",
              "type": "uint64"
            }
          ],
          "internalType": "struct PageResponse",
          "name": "pageResponse",
          "type": "tuple"
        }
      ],
      "stateMutability": "view",
      "type": "function"
    },
    {
      "inputs": [
        {
          "internalType": "address",
          "name": "_addr",
          "type": "address"
        },
        {
          "internalType": "string[]",
          "name": "_methods",
          "type": "string[]"
        },
        {
          "internalType": "uint256",
          "name": "_amount",
          "type": "uint256"
        }
      ],
      "name": "testApprove",
      "outputs": [],
      "stateMutability": "nonpayable",
      "type": "function"
    },
    {
      "inputs": [
        {
          "internalType": "address",
          "name": "_addr",
          "type": "address"
        },
        {
          "internalType": "uint256",
          "name": "_approveAmount",
          "type": "uint256"
        },
        {
          "internalType": "uint256",
          "name": "_undelegateAmount",
          "type": "uint256"
        },
        {
          "internalType": "string",
          "name": "_validatorAddr",
          "type": "string"
        }
      ],
      "name": "testApproveAndThenUndelegate",
      "outputs": [],
      "stateMutability": "nonpayable",
      "type": "function"
    },
    {
      "inputs": [
        {
          "internalType": "address",
          "name": "_addr",
          "type": "address"
        },
        {
          "internalType": "string",
          "name": "_validatorAddr",
          "type": "string"
        },
        {
          "internalType": "string",
          "name": "_calltype",
          "type": "string"
        }
      ],
      "name": "testCallDelegation",
      "outputs": [
        {
          "internalType": "uint256",
          "name": "shares",
          "type": "uint256"
        },
        {
          "components": [
            {
              "internalType": "string",
              "name": "denom",
              "type": "string"
            },
            {
              "internalType": "uint256",
              "name": "amount",
              "type": "uint256"
            }
          ],
          "internalType": "struct Coin",
          "name": "coin",
          "type": "tuple"
        }
      ],
      "stateMutability": "nonpayable",
      "type": "function"
    },
    {
      "inputs": [
        {
          "internalType": "address",
          "name": "_addr",
          "type": "address"
        },
        {
          "internalType": "string",
          "name": "_validatorAddr",
          "type": "string"
        },
        {
          "internalType": "uint256",
          "name": "_amount",
          "type": "uint256"
        },
        {
          "internalType": "string",
          "name": "_calltype",
          "type": "string"
        }
      ],
      "name": "testCallUndelegate",
      "outputs": [],
      "stateMutability": "nonpayable",
      "type": "function"
    },
    {
      "inputs": [
        {
          "internalType": "address",
          "name": "_addr",
          "type": "address"
        },
        {
          "internalType": "string",
          "name": "_validatorAddr",
          "type": "string"
        },
        {
          "internalType": "uint256",
          "name": "_amount",
          "type": "uint256"
        },
        {
          "internalType": "uint256",
          "name": "_creationHeight",
          "type": "uint256"
        }
      ],
      "name": "testCancelUnbonding",
      "outputs": [],
      "stateMutability": "nonpayable",
      "type": "function"
    },
    {
      "inputs": [
        {
          "internalType": "address",
          "name": "_addr",
          "type": "address"
        },
        {
          "internalType": "string",
          "name": "_validatorAddr",
          "type": "string"
        },
        {
          "internalType": "uint256",
          "name": "_amount",
          "type": "uint256"
        }
      ],
      "name": "testDelegate",
      "outputs": [],
      "stateMutability": "nonpayable",
      "type": "function"
    },
    {
      "inputs": [
        {
          "internalType": "string",
          "name": "_validatorAddr",
          "type": "string"
        },
        {
          "internalType": "uint256",
          "name": "_amount",
          "type": "uint256"
        }
      ],
      "name": "testDelegateIncrementCounter",
      "outputs": [],
      "stateMutability": "nonpayable",
      "type": "function"
    },
    {
      "inputs": [
        {
          "internalType": "address",
          "name": "_addr",
          "type": "address"
        },
        {
          "internalType": "string",
          "name": "_validatorSrcAddr",
          "type": "string"
        },
        {
          "internalType": "string",
          "name": "_validatorDstAddr",
          "type": "string"
        },
        {
          "internalType": "uint256",
          "name": "_amount",
          "type": "uint256"
        }
      ],
      "name": "testRedelegate",
      "outputs": [],
      "stateMutability": "nonpayable",
      "type": "function"
    },
    {
      "inputs": [
        {
          "internalType": "address",
          "name": "_grantee",
          "type": "address"
        },
        {
          "internalType": "string[]",
          "name": "_methods",
          "type": "string[]"
        }
      ],
      "name": "testRevoke",
      "outputs": [],
      "stateMutability": "nonpayable",
      "type": "function"
    },
    {
      "inputs": [
        {
          "internalType": "address",
          "name": "_addr",
          "type": "address"
        },
        {
          "internalType": "string",
          "name": "_validatorAddr",
          "type": "string"
        },
        {
          "internalType": "uint256",
          "name": "_amount",
          "type": "uint256"
        }
      ],
      "name": "testUndelegate",
      "outputs": [],
      "stateMutability": "nonpayable",
      "type": "function"
    }
  ],
  "bytecode": "0x6080604052604051806020016040528060405180606001604052806023815260200162005c286023913981525060019060016200003e92919062000053565b503480156200004c57600080fd5b50620004a1565b828054828255906000526020600020908101928215620000a0579160200282015b828111156200009f5782518290816200008e9190620003ba565b509160200191906001019062000074565b5b509050620000af9190620000b3565b5090565b5b80821115620000d75760008181620000cd9190620000db565b50600101620000b4565b5090565b508054620000e990620001a9565b6000825580601f10620000fd57506200011e565b601f0160209004906000526020600020908101906200011d919062000121565b5b50565b5b808211156200013c57600081600090555060010162000122565b5090565b600081519050919050565b7f4e487b7100000000000000000000000000000000000000000000000000000000600052604160045260246000fd5b7f4e487b7100000000000000000000000000000000000000000000000000000000600052602260045260246000fd5b60006002820490506001821680620001c257607f821691505b602082108103620001d857620001d76200017a565b5b50919050565b60008190508160005260206000209050919050565b60006020601f8301049050919050565b600082821b905092915050565b600060088302620002427fffffffffffffffffffffffffffffffffffffffffffffffffffffffffffffffff8262000203565b6200024e868362000203565b95508019841693508086168417925050509392505050565b6000819050919050565b6000819050919050565b60006200029b620002956200028f8462000266565b62000270565b62000266565b9050919050565b6000819050919050565b620002b7836200027a565b620002cf620002c682620002a2565b84845462000210565b825550505050565b600090565b620002e6620002d7565b620002f3818484620002ac565b505050565b5b818110156200031b576200030f600082620002dc565b600181019050620002f9565b5050565b601f8211156200036a576200033481620001de565b6200033f84620001f3565b810160208510156200034f578190505b620003676200035e85620001f3565b830182620002f8565b50505b505050565b600082821c905092915050565b60006200038f600019846008026200036f565b1980831691505092915050565b6000620003aa83836200037c565b9150826002028217905092915050565b620003c58262000140565b67ffffffffffffffff811115620003e157620003e06200014b565b5b620003ed8254620001a9565b620003fa8282856200031f565b600060209050601f8311600181146200043257600084156200041d578287015190505b6200042985826200039c565b86555062000499565b601f1984166200044286620001de565b60005b828110156200046c5784890151825560018201915060208501945060208101905062000445565b868310156200048c578489015162000488601f8916826200037c565b8355505b6001600288020188555050505b505050505050565b61577780620004b16000396000f3fe6080604052600436106101355760003560e01c80637e51b811116100ab578063cf2753cf1161006f578063cf2753cf14610418578063ec9485df14610456578063f40a214614610493578063f5714e64146104bc578063f700dbd2146104d8578063f732b0651461050157610135565b80637e51b811146103435780638939e7831461036c5780638edb3f8b146103955780639eab6711146103b1578063b13d4242146103da57610135565b8063455b8551116100fd578063455b85511461023057806355dc4b221461026d578063570467ac146102965780635e269bfe146102d357806360deaa2a146102fc57806361bc221a1461031857610135565b80630a4433e21461013a5780631904bb2e1461016357806319b16c4c146101a057806331bcbcb3146101de5780633566cb9514610207575b600080fd5b34801561014657600080fd5b50610161600480360381019061015c919061221e565b61053f565b005b34801561016f57600080fd5b5061018a60048036038101906101859190612292565b61060e565b6040516101979190612509565b60405180910390f35b3480156101ac57600080fd5b506101c760048036038101906101c2919061265b565b61069e565b6040516101d5929190612732565b60405180910390f35b3480156101ea57600080fd5b5061020560048036038101906102009190612762565b610b9d565b005b34801561021357600080fd5b5061022e600480360381019061022991906127d1565b610e2a565b005b34801561023c57600080fd5b506102576004803603810190610252919061282d565b610f92565b6040516102649190612a34565b60405180910390f35b34801561027957600080fd5b50610294600480360381019061028f9190612a56565b611025565b005b3480156102a257600080fd5b506102bd60048036038101906102b8919061265b565b611417565b6040516102ca9190612c71565b60405180910390f35b3480156102df57600080fd5b506102fa60048036038101906102f59190612c93565b6114ad565b005b61031660048036038101906103119190612d16565b611538565b005b34801561032457600080fd5b5061032d611686565b60405161033a9190612d5f565b60405180910390f35b34801561034f57600080fd5b5061036a60048036038101906103659190612762565b61168c565b005b34801561037857600080fd5b50610393600480360381019061038e9190612762565b611714565b005b6103af60048036038101906103aa9190612d16565b61179c565b005b3480156103bd57600080fd5b506103d860048036038101906103d39190612d7a565b611931565b005b3480156103e657600080fd5b5061040160048036038101906103fc9190612e3d565b6119bc565b60405161040f929190613106565b60405180910390f35b34801561042457600080fd5b5061043f600480360381019061043a919061282d565b611a54565b60405161044d929190612732565b60405180910390f35b34801561046257600080fd5b5061047d6004803603810190610478919061282d565b611aec565b60405161048a9190612d5f565b60405180910390f35b34801561049f57600080fd5b506104ba60048036038101906104b5919061313d565b611b76565b005b6104d660048036038101906104d19190612d16565b611d52565b005b3480156104e457600080fd5b506104ff60048036038101906104fa91906131c0565b611eac565b005b34801561050d57600080fd5b50610528600480360381019061052391906133cb565b611f78565b6040516105369291906136e2565b60405180910390f35b600061080073ffffffffffffffffffffffffffffffffffffffff1663b6039895868487876040518563ffffffff1660e01b8152600401610582949392919061387b565b6020604051808303816000875af11580156105a1573d6000803e3d6000fd5b505050506040513d601f19601f820116820180604052508101906105c591906138d0565b905080610607576040517f08c379a00000000000000000000000000000000000000000000000000000000081526004016105fe90613980565b60405180910390fd5b5050505050565b610616612016565b61080073ffffffffffffffffffffffffffffffffffffffff1663223b3b7a836040518263ffffffff1660e01b815260040161065191906139a0565b600060405180830381865afa15801561066e573d6000803e3d6000fd5b505050506040513d6000823e3d601f19601f820116820180604052508101906106979190613bf1565b9050919050565b60006106a861208a565b60006108009050600086866040516024016106c4929190613c73565b6040516020818303038152906040527f241774e6000000000000000000000000000000000000000000000000000000007bffffffffffffffffffffffffffffffffffffffffffffffffffffffff19166020820180517bffffffffffffffffffffffffffffffffffffffffffffffffffffffff838183161783525050505090506000856040516020016107569190613cdf565b60405160208183030381529060405280519060200120905060405160200161077d90613d42565b604051602081830303815290604052805190602001208103610869576000808473ffffffffffffffffffffffffffffffffffffffff16846040516107c19190613d93565b600060405180830381855af49150503d80600081146107fc576040519150601f19603f3d011682016040523d82523d6000602084013e610801565b606091505b509150915081610846576040517f08c379a000000000000000000000000000000000000000000000000000000000815260040161083d90613e1c565b60405180910390fd5b8080602001905181019061085a9190613ea8565b80975081985050505050610b92565b60405160200161087890613f50565b604051602081830303815290604052805190602001208103610964576000808473ffffffffffffffffffffffffffffffffffffffff16846040516108bc9190613d93565b600060405180830381855afa9150503d80600081146108f7576040519150601f19603f3d011682016040523d82523d6000602084013e6108fc565b606091505b509150915081610941576040517f08c379a000000000000000000000000000000000000000000000000000000000815260040161093890613fb1565b60405180910390fd5b808060200190518101906109559190613ea8565b80975081985050505050610b91565b6040516020016109739061401d565b604051602081830303815290604052805190602001208103610a61576000808473ffffffffffffffffffffffffffffffffffffffff16846040516109b79190613d93565b6000604051808303816000865af19150503d80600081146109f4576040519150601f19603f3d011682016040523d82523d6000602084013e6109f9565b606091505b509150915081610a3e576040517f08c379a0000000000000000000000000000000000000000000000000000000008152600401610a359061407e565b60405180910390fd5b80806020019051810190610a529190613ea8565b80975081985050505050610b90565b604051602001610a70906140ea565b604051602081830303815290604052805190602001208103610b545760006040518060400160405280601a81526020017f64656c65676174696f6e28616464726573732c737472696e6729000000000000815250805190602001209050600060a490506060600060208b01516020808d0101516040518681528e6004820152604060248201526033604482015282606482015281608482015260c081878360008e5af281519c5060608201519450610100820160405280610b3057600080fd5b50505050604051806040016040528083815260200182815250975050505050610b8f565b6040517f08c379a0000000000000000000000000000000000000000000000000000000008152600401610b869061414b565b60405180910390fd5b5b5b5b505050935093915050565b600061080073ffffffffffffffffffffffffffffffffffffffff1663b6039895308460016040518463ffffffff1660e01b8152600401610bdf93929190614319565b6020604051808303816000875af1158015610bfe573d6000803e3d6000fd5b505050506040513d601f19601f82011682018060405250810190610c2291906138d0565b905080610c64576040517f08c379a0000000000000000000000000000000000000000000000000000000008152600401610c5b906143a3565b60405180910390fd5b60008473ffffffffffffffffffffffffffffffffffffffff163384604051602401610c909291906143c3565b6040516020818303038152906040527fa9059cbb000000000000000000000000000000000000000000000000000000007bffffffffffffffffffffffffffffffffffffffffffffffffffffffff19166020820180517bffffffffffffffffffffffffffffffffffffffffffffffffffffffff8381831617835250505050604051610d1a9190613d93565b6000604051808303816000865af19150503d8060008114610d57576040519150601f19603f3d011682016040523d82523d6000602084013e610d5c565b606091505b5050905080610da0576040517f08c379a0000000000000000000000000000000000000000000000000000000008152600401610d9790614438565b60405180910390fd5b61080073ffffffffffffffffffffffffffffffffffffffff166353266bbb3386866040518463ffffffff1660e01b8152600401610ddf93929190614458565b6020604051808303816000875af1158015610dfe573d6000803e3d6000fd5b505050506040513d601f19601f82011682018060405250810190610e2291906138d0565b505050505050565b600061080073ffffffffffffffffffffffffffffffffffffffff1663b6039895308460016040518463ffffffff1660e01b8152600401610e6c93929190614319565b6020604051808303816000875af1158015610e8b573d6000803e3d6000fd5b505050506040513d601f19601f82011682018060405250810190610eaf91906138d0565b905080610ef1576040517f08c379a0000000000000000000000000000000000000000000000000000000008152600401610ee8906144e2565b60405180910390fd5b61080073ffffffffffffffffffffffffffffffffffffffff166353266bbb3085856040518463ffffffff1660e01b8152600401610f3093929190614458565b6020604051808303816000875af1158015610f4f573d6000803e3d6000fd5b505050506040513d601f19601f82011682018060405250810190610f7391906138d0565b506001600080828254610f869190614531565b92505081905550505050565b610f9a6120a4565b61080073ffffffffffffffffffffffffffffffffffffffff1663a03ffee184846040518363ffffffff1660e01b8152600401610fd7929190613c73565b600060405180830381865afa158015610ff4573d6000803e3d6000fd5b505050506040513d6000823e3d601f19601f8201168201806040525081019061101d9190614795565b905092915050565b60006108009050600085858560405160240161104393929190614458565b6040516020818303038152906040527f3edab33c000000000000000000000000000000000000000000000000000000007bffffffffffffffffffffffffffffffffffffffffffffffffffffffff19166020820180517bffffffffffffffffffffffffffffffffffffffffffffffffffffffff838183161783525050505090506000836040516020016110d59190613cdf565b6040516020818303038152906040528051906020012090506040516020016110fc90613d42565b6040516020818303038152906040528051906020012081036111c95760008373ffffffffffffffffffffffffffffffffffffffff168360405161113f9190613d93565b600060405180830381855af49150503d806000811461117a576040519150601f19603f3d011682016040523d82523d6000602084013e61117f565b606091505b50509050806111c3576040517f08c379a00000000000000000000000000000000000000000000000000000000081526004016111ba90613e1c565b60405180910390fd5b5061140e565b6040516020016111d890613f50565b6040516020818303038152906040528051906020012081036112a55760008373ffffffffffffffffffffffffffffffffffffffff168360405161121b9190613d93565b600060405180830381855afa9150503d8060008114611256576040519150601f19603f3d011682016040523d82523d6000602084013e61125b565b606091505b505090508061129f576040517f08c379a000000000000000000000000000000000000000000000000000000000815260040161129690613fb1565b60405180910390fd5b5061140d565b6040516020016112b49061401d565b6040516020818303038152906040528051906020012081036113835760008373ffffffffffffffffffffffffffffffffffffffff16836040516112f79190613d93565b6000604051808303816000865af19150503d8060008114611334576040519150601f19603f3d011682016040523d82523d6000602084013e611339565b606091505b505090508061137d576040517f08c379a00000000000000000000000000000000000000000000000000000000081526004016113749061407e565b60405180910390fd5b5061140c565b604051602001611392906140ea565b6040516020818303038152906040528051906020012081036113d05760208201825160008082846000895af2806113c857600080fd5b50505061140b565b6040517f08c379a00000000000000000000000000000000000000000000000000000000081526004016114029061414b565b60405180910390fd5b5b5b5b50505050505050565b61141f6120c5565b61080073ffffffffffffffffffffffffffffffffffffffff16637d9f939c8585856040518463ffffffff1660e01b815260040161145e939291906147de565b600060405180830381865afa15801561147b573d6000803e3d6000fd5b505050506040513d6000823e3d601f19601f820116820180604052508101906114a49190614a46565b90509392505050565b61080073ffffffffffffffffffffffffffffffffffffffff166312d58dfe858585856040518563ffffffff1660e01b81526004016114ee9493929190614a8f565b6020604051808303816000875af115801561150d573d6000803e3d6000fd5b505050506040513d601f19601f8201168201806040525081019061153191906138d0565b5050505050565b600061080073ffffffffffffffffffffffffffffffffffffffff1663b6039895303460016040518463ffffffff1660e01b815260040161157a93929190614319565b6020604051808303816000875af1158015611599573d6000803e3d6000fd5b505050506040513d601f19601f820116820180604052508101906115bd91906138d0565b9050806115ff576040517f08c379a00000000000000000000000000000000000000000000000000000000081526004016115f690614b27565b60405180910390fd5b61080073ffffffffffffffffffffffffffffffffffffffff166353266bbb3084346040518463ffffffff1660e01b815260040161163e93929190614458565b6020604051808303816000875af115801561165d573d6000803e3d6000fd5b505050506040513d601f19601f8201168201806040525081019061168191906138d0565b505050565b60005481565b61080073ffffffffffffffffffffffffffffffffffffffff16633edab33c8484846040518463ffffffff1660e01b81526004016116cb93929190614458565b6020604051808303816000875af11580156116ea573d6000803e3d6000fd5b505050506040513d601f19601f8201168201806040525081019061170e9190614b47565b50505050565b61080073ffffffffffffffffffffffffffffffffffffffff166353266bbb8484846040518463ffffffff1660e01b815260040161175393929190614458565b6020604051808303816000875af1158015611772573d6000803e3d6000fd5b505050506040513d601f19601f8201168201806040525081019061179691906138d0565b50505050565b600061080073ffffffffffffffffffffffffffffffffffffffff1663b6039895323460016040518463ffffffff1660e01b81526004016117de93929190614319565b6020604051808303816000875af11580156117fd573d6000803e3d6000fd5b505050506040513d601f19601f8201168201806040525081019061182191906138d0565b905080611863576040517f08c379a000000000000000000000000000000000000000000000000000000000815260040161185a90614b27565b60405180910390fd5b61080073ffffffffffffffffffffffffffffffffffffffff166353266bbb3084346040518463ffffffff1660e01b81526004016118a293929190614458565b6020604051808303816000875af11580156118c1573d6000803e3d6000fd5b505050506040513d601f19601f820116820180604052508101906118e591906138d0565b503373ffffffffffffffffffffffffffffffffffffffff166108fc349081150290604051600060405180830381858888f1935050505015801561192c573d6000803e3d6000fd5b505050565b61080073ffffffffffffffffffffffffffffffffffffffff166354b826f5858585856040518563ffffffff1660e01b81526004016119729493929190614b74565b6020604051808303816000875af1158015611991573d6000803e3d6000fd5b505050506040513d601f19601f820116820180604052508101906119b59190614b47565b5050505050565b60606119c66120ed565b61080073ffffffffffffffffffffffffffffffffffffffff1663186b216785856040518363ffffffff1660e01b8152600401611a03929190614d25565b600060405180830381865afa158015611a20573d6000803e3d6000fd5b505050506040513d6000823e3d601f19601f82011682018060405250810190611a499190614f19565b915091509250929050565b6000611a5e61208a565b61080073ffffffffffffffffffffffffffffffffffffffff1663241774e685856040518363ffffffff1660e01b8152600401611a9b929190613c73565b600060405180830381865afa158015611ab8573d6000803e3d6000fd5b505050506040513d6000823e3d601f19601f82011682018060405250810190611ae19190613ea8565b915091509250929050565b600061080073ffffffffffffffffffffffffffffffffffffffff1663fc08930c8433856040518463ffffffff1660e01b8152600401611b2d93929190614f91565b602060405180830381865afa158015611b4a573d6000803e3d6000fd5b505050506040513d601f19601f82011682018060405250810190611b6e9190614fcf565b905092915050565b6000600167ffffffffffffffff811115611b9357611b92612530565b5b604051908082528060200260200182016040528015611bc657816020015b6060815260200190600190039081611bb15790505b50905060405180606001604052806025815260200161571d6025913981600081518110611bf657611bf5614ffc565b5b6020026020010181905250600061080073ffffffffffffffffffffffffffffffffffffffff1663b60398958787856040518463ffffffff1660e01b8152600401611c42939291906150dc565b6020604051808303816000875af1158015611c61573d6000803e3d6000fd5b505050506040513d601f19601f82011682018060405250810190611c8591906138d0565b905080611cc7576040517f08c379a0000000000000000000000000000000000000000000000000000000008152600401611cbe9061518c565b60405180910390fd5b61080073ffffffffffffffffffffffffffffffffffffffff16633edab33c3285876040518463ffffffff1660e01b8152600401611d0693929190614458565b6020604051808303816000875af1158015611d25573d6000803e3d6000fd5b505050506040513d601f19601f82011682018060405250810190611d499190614b47565b50505050505050565b600061080073ffffffffffffffffffffffffffffffffffffffff1663b6039895323460016040518463ffffffff1660e01b8152600401611d9493929190614319565b6020604051808303816000875af1158015611db3573d6000803e3d6000fd5b505050506040513d601f19601f82011682018060405250810190611dd791906138d0565b905080611e19576040517f08c379a0000000000000000000000000000000000000000000000000000000008152600401611e1090614b27565b60405180910390fd5b61080073ffffffffffffffffffffffffffffffffffffffff166353266bbb3084600134611e469190614531565b6040518463ffffffff1660e01b8152600401611e6493929190614458565b6020604051808303816000875af1158015611e83573d6000803e3d6000fd5b505050506040513d601f19601f82011682018060405250810190611ea791906138d0565b505050565b600061080073ffffffffffffffffffffffffffffffffffffffff166361dc5c3b8585856040518463ffffffff1660e01b8152600401611eed939291906151ac565b6020604051808303816000875af1158015611f0c573d6000803e3d6000fd5b505050506040513d601f19601f82011682018060405250810190611f3091906138d0565b905080611f72576040517f08c379a0000000000000000000000000000000000000000000000000000000008152600401611f6990615250565b60405180910390fd5b50505050565b6060611f826120ed565b61080073ffffffffffffffffffffffffffffffffffffffff166310a2851c878787876040518563ffffffff1660e01b8152600401611fc394939291906152e6565b600060405180830381865afa158015611fe0573d6000803e3d6000fd5b505050506040513d6000823e3d601f19601f8201168201806040525081019061200991906156a4565b9150915094509492505050565b60405180610160016040528060608152602001606081526020016000151581526020016000600381111561204d5761204c61236a565b5b8152602001600081526020016000815260200160608152602001600060070b8152602001600060070b815260200160008152602001600081525090565b604051806040016040528060608152602001600081525090565b60405180606001604052806060815260200160608152602001606081525090565b6040518060800160405280606081526020016060815260200160608152602001606081525090565b604051806040016040528060608152602001600067ffffffffffffffff1681525090565b6000604051905090565b600080fd5b600080fd5b600073ffffffffffffffffffffffffffffffffffffffff82169050919050565b600061215082612125565b9050919050565b61216081612145565b811461216b57600080fd5b50565b60008135905061217d81612157565b92915050565b600080fd5b600080fd5b600080fd5b60008083601f8401126121a8576121a7612183565b5b8235905067ffffffffffffffff8111156121c5576121c4612188565b5b6020830191508360208202830111156121e1576121e061218d565b5b9250929050565b6000819050919050565b6121fb816121e8565b811461220657600080fd5b50565b600081359050612218816121f2565b92915050565b600080600080606085870312156122385761223761211b565b5b60006122468782880161216e565b945050602085013567ffffffffffffffff81111561226757612266612120565b5b61227387828801612192565b9350935050604061228687828801612209565b91505092959194509250565b6000602082840312156122a8576122a761211b565b5b60006122b68482850161216e565b91505092915050565b600081519050919050565b600082825260208201905092915050565b60005b838110156122f95780820151818401526020810190506122de565b60008484015250505050565b6000601f19601f8301169050919050565b6000612321826122bf565b61232b81856122ca565b935061233b8185602086016122db565b61234481612305565b840191505092915050565b60008115159050919050565b6123648161234f565b82525050565b7f4e487b7100000000000000000000000000000000000000000000000000000000600052602160045260246000fd5b600481106123aa576123a961236a565b5b50565b60008190506123bb82612399565b919050565b60006123cb826123ad565b9050919050565b6123db816123c0565b82525050565b6123ea816121e8565b82525050565b60008160070b9050919050565b612406816123f0565b82525050565b600061016083016000830151848203600086015261242a8282612316565b915050602083015184820360208601526124448282612316565b9150506040830151612459604086018261235b565b50606083015161246c60608601826123d2565b50608083015161247f60808601826123e1565b5060a083015161249260a08601826123e1565b5060c083015184820360c08601526124aa8282612316565b91505060e08301516124bf60e08601826123fd565b506101008301516124d46101008601826123fd565b506101208301516124e96101208601826123e1565b506101408301516124fe6101408601826123e1565b508091505092915050565b60006020820190508181036000830152612523818461240c565b905092915050565b600080fd5b7f4e487b7100000000000000000000000000000000000000000000000000000000600052604160045260246000fd5b61256882612305565b810181811067ffffffffffffffff8211171561258757612586612530565b5b80604052505050565b600061259a612111565b90506125a6828261255f565b919050565b600067ffffffffffffffff8211156125c6576125c5612530565b5b6125cf82612305565b9050602081019050919050565b82818337600083830152505050565b60006125fe6125f9846125ab565b612590565b90508281526020810184848401111561261a5761261961252b565b5b6126258482856125dc565b509392505050565b600082601f83011261264257612641612183565b5b81356126528482602086016125eb565b91505092915050565b6000806000606084860312156126745761267361211b565b5b60006126828682870161216e565b935050602084013567ffffffffffffffff8111156126a3576126a2612120565b5b6126af8682870161262d565b925050604084013567ffffffffffffffff8111156126d0576126cf612120565b5b6126dc8682870161262d565b9150509250925092565b6126ef816121e8565b82525050565b600060408301600083015184820360008601526127128282612316565b915050602083015161272760208601826123e1565b508091505092915050565b600060408201905061274760008301856126e6565b818103602083015261275981846126f5565b90509392505050565b60008060006060848603121561277b5761277a61211b565b5b60006127898682870161216e565b935050602084013567ffffffffffffffff8111156127aa576127a9612120565b5b6127b68682870161262d565b92505060406127c786828701612209565b9150509250925092565b600080604083850312156127e8576127e761211b565b5b600083013567ffffffffffffffff81111561280657612805612120565b5b6128128582860161262d565b925050602061282385828601612209565b9150509250929050565b600080604083850312156128445761284361211b565b5b60006128528582860161216e565b925050602083013567ffffffffffffffff81111561287357612872612120565b5b61287f8582860161262d565b9150509250929050565b600081519050919050565b600082825260208201905092915050565b6000819050602082019050919050565b600067ffffffffffffffff82169050919050565b6128d2816128b5565b82525050565b60c0820160008201516128ee60008501826123fd565b50602082015161290160208501826123fd565b50604082015161291460408501826123e1565b50606082015161292760608501826123e1565b50608082015161293a60808501826128c9565b5060a082015161294d60a08501826123fd565b50505050565b600061295f83836128d8565b60c08301905092915050565b6000602082019050919050565b600061298382612889565b61298d8185612894565b9350612998836128a5565b8060005b838110156129c95781516129b08882612953565b97506129bb8361296b565b92505060018101905061299c565b5085935050505092915050565b600060608301600083015184820360008601526129f38282612316565b91505060208301518482036020860152612a0d8282612316565b91505060408301518482036040860152612a278282612978565b9150508091505092915050565b60006020820190508181036000830152612a4e81846129d6565b905092915050565b60008060008060808587031215612a7057612a6f61211b565b5b6000612a7e8782880161216e565b945050602085013567ffffffffffffffff811115612a9f57612a9e612120565b5b612aab8782880161262d565b9350506040612abc87828801612209565b925050606085013567ffffffffffffffff811115612add57612adc612120565b5b612ae98782880161262d565b91505092959194509250565b600081519050919050565b600082825260208201905092915050565b6000819050602082019050919050565b608082016000820151612b3760008501826123fd565b506020820151612b4a60208501826123fd565b506040820151612b5d60408501826123e1565b506060820151612b7060608501826123e1565b50505050565b6000612b828383612b21565b60808301905092915050565b6000602082019050919050565b6000612ba682612af5565b612bb08185612b00565b9350612bbb83612b11565b8060005b83811015612bec578151612bd38882612b76565b9750612bde83612b8e565b925050600181019050612bbf565b5085935050505092915050565b60006080830160008301518482036000860152612c168282612316565b91505060208301518482036020860152612c308282612316565b91505060408301518482036040860152612c4a8282612316565b91505060608301518482036060860152612c648282612b9b565b9150508091505092915050565b60006020820190508181036000830152612c8b8184612bf9565b905092915050565b60008060008060808587031215612cad57612cac61211b565b5b6000612cbb8782880161216e565b945050602085013567ffffffffffffffff811115612cdc57612cdb612120565b5b612ce88782880161262d565b9350506040612cf987828801612209565b9250506060612d0a87828801612209565b91505092959194509250565b600060208284031215612d2c57612d2b61211b565b5b600082013567ffffffffffffffff811115612d4a57612d49612120565b5b612d568482850161262d565b91505092915050565b6000602082019050612d7460008301846126e6565b92915050565b60008060008060808587031215612d9457612d9361211b565b5b6000612da28782880161216e565b945050602085013567ffffffffffffffff811115612dc357612dc2612120565b5b612dcf8782880161262d565b935050604085013567ffffffffffffffff811115612df057612def612120565b5b612dfc8782880161262d565b9250506060612e0d87828801612209565b91505092959194509250565b600080fd5b600060a08284031215612e3457612e33612e19565b5b81905092915050565b60008060408385031215612e5457612e5361211b565b5b600083013567ffffffffffffffff811115612e7257612e71612120565b5b612e7e8582860161262d565b925050602083013567ffffffffffffffff811115612e9f57612e9e612120565b5b612eab85828601612e1e565b9150509250929050565b600081519050919050565b600082825260208201905092915050565b6000819050602082019050919050565b6000610160830160008301518482036000860152612eff8282612316565b91505060208301518482036020860152612f198282612316565b9150506040830151612f2e604086018261235b565b506060830151612f4160608601826123d2565b506080830151612f5460808601826123e1565b5060a0830151612f6760a08601826123e1565b5060c083015184820360c0860152612f7f8282612316565b91505060e0830151612f9460e08601826123fd565b50610100830151612fa96101008601826123fd565b50610120830151612fbe6101208601826123e1565b50610140830151612fd36101408601826123e1565b508091505092915050565b6000612fea8383612ee1565b905092915050565b6000602082019050919050565b600061300a82612eb5565b6130148185612ec0565b93508360208202850161302685612ed1565b8060005b8581101561306257848403895281516130438582612fde565b945061304e83612ff2565b925060208a0199505060018101905061302a565b50829750879550505050505092915050565b600081519050919050565b600082825260208201905092915050565b600061309b82613074565b6130a5818561307f565b93506130b58185602086016122db565b6130be81612305565b840191505092915050565b600060408301600083015184820360008601526130e68282613090565b91505060208301516130fb60208601826128c9565b508091505092915050565b600060408201905081810360008301526131208185612fff565b9050818103602083015261313481846130c9565b90509392505050565b600080600080608085870312156131575761315661211b565b5b60006131658782880161216e565b945050602061317687828801612209565b935050604061318787828801612209565b925050606085013567ffffffffffffffff8111156131a8576131a7612120565b5b6131b48782880161262d565b91505092959194509250565b6000806000604084860312156131d9576131d861211b565b5b60006131e78682870161216e565b935050602084013567ffffffffffffffff81111561320857613207612120565b5b61321486828701612192565b92509250509250925092565b600080fd5b600080fd5b600067ffffffffffffffff82111561324557613244612530565b5b61324e82612305565b9050602081019050919050565b600061326e6132698461322a565b612590565b90508281526020810184848401111561328a5761328961252b565b5b6132958482856125dc565b509392505050565b600082601f8301126132b2576132b1612183565b5b81356132c284826020860161325b565b91505092915050565b6132d4816128b5565b81146132df57600080fd5b50565b6000813590506132f1816132cb565b92915050565b6133008161234f565b811461330b57600080fd5b50565b60008135905061331d816132f7565b92915050565b600060a0828403121561333957613338613220565b5b61334360a0612590565b9050600082013567ffffffffffffffff81111561336357613362613225565b5b61336f8482850161329d565b6000830152506020613383848285016132e2565b6020830152506040613397848285016132e2565b60408301525060606133ab8482850161330e565b60608301525060806133bf8482850161330e565b60808301525092915050565b600080600080608085870312156133e5576133e461211b565b5b60006133f38782880161216e565b945050602085013567ffffffffffffffff81111561341457613413612120565b5b6134208782880161262d565b935050604085013567ffffffffffffffff81111561344157613440612120565b5b61344d8782880161262d565b925050606085013567ffffffffffffffff81111561346e5761346d612120565b5b61347a87828801613323565b91505092959194509250565b600081519050919050565b600082825260208201905092915050565b6000819050602082019050919050565b600060808301600083015184820360008601526134cf8282612316565b915050602083015184820360208601526134e98282612316565b915050604083015184820360408601526135038282612316565b9150506060830151848203606086015261351d8282612b9b565b9150508091505092915050565b600081519050919050565b600082825260208201905092915050565b6000819050602082019050919050565b60a08201600082015161356c6000850182612b21565b50602082015161357f60808501826123e1565b50505050565b60006135918383613556565b60a08301905092915050565b6000602082019050919050565b60006135b58261352a565b6135bf8185613535565b93506135ca83613546565b8060005b838110156135fb5781516135e28882613585565b97506135ed8361359d565b9250506001810190506135ce565b5085935050505092915050565b6000604083016000830151848203600086015261362582826134b2565b9150506020830151848203602086015261363f82826135aa565b9150508091505092915050565b60006136588383613608565b905092915050565b6000602082019050919050565b600061367882613486565b6136828185613491565b935083602082028501613694856134a2565b8060005b858110156136d057848403895281516136b1858261364c565b94506136bc83613660565b925060208a01995050600181019050613698565b50829750879550505050505092915050565b600060408201905081810360008301526136fc818561366d565b9050818103602083015261371081846130c9565b90509392505050565b61372281612145565b82525050565b600082825260208201905092915050565b6000819050919050565b600061374f83856122ca565b935061375c8385846125dc565b61376583612305565b840190509392505050565b600061377d848484613743565b90509392505050565b600080fd5b600080fd5b600080fd5b600080833560016020038436030381126137b2576137b1613790565b5b83810192508235915060208301925067ffffffffffffffff8211156137da576137d9613786565b5b6001820236038313156137f0576137ef61378b565b5b509250929050565b6000602082019050919050565b60006138118385613728565b93508360208402850161382384613739565b8060005b8781101561386957848403895261383e8284613795565b613849868284613770565b9550613854846137f8565b935060208b019a505050600181019050613827565b50829750879450505050509392505050565b60006060820190506138906000830187613719565b61389d60208301866126e6565b81810360408301526138b0818486613805565b905095945050505050565b6000815190506138ca816132f7565b92915050565b6000602082840312156138e6576138e561211b565b5b60006138f4848285016138bb565b91505092915050565b600082825260208201905092915050565b7f4661696c656420746f20617070726f7665207374616b696e67206d6574686f6460008201527f7300000000000000000000000000000000000000000000000000000000000000602082015250565b600061396a6021836138fd565b91506139758261390e565b604082019050919050565b600060208201905081810360008301526139998161395d565b9050919050565b60006020820190506139b56000830184613719565b92915050565b60006139ce6139c9846125ab565b612590565b9050828152602081018484840111156139ea576139e961252b565b5b6139f58482856122db565b509392505050565b600082601f830112613a1257613a11612183565b5b8151613a228482602086016139bb565b91505092915050565b60048110613a3857600080fd5b50565b600081519050613a4a81613a2b565b92915050565b600081519050613a5f816121f2565b92915050565b613a6e816123f0565b8114613a7957600080fd5b50565b600081519050613a8b81613a65565b92915050565b60006101608284031215613aa857613aa7613220565b5b613ab3610160612590565b9050600082015167ffffffffffffffff811115613ad357613ad2613225565b5b613adf848285016139fd565b600083015250602082015167ffffffffffffffff811115613b0357613b02613225565b5b613b0f848285016139fd565b6020830152506040613b23848285016138bb565b6040830152506060613b3784828501613a3b565b6060830152506080613b4b84828501613a50565b60808301525060a0613b5f84828501613a50565b60a08301525060c082015167ffffffffffffffff811115613b8357613b82613225565b5b613b8f848285016139fd565b60c08301525060e0613ba384828501613a7c565b60e083015250610100613bb884828501613a7c565b61010083015250610120613bce84828501613a50565b61012083015250610140613be484828501613a50565b6101408301525092915050565b600060208284031215613c0757613c0661211b565b5b600082015167ffffffffffffffff811115613c2557613c24612120565b5b613c3184828501613a91565b91505092915050565b6000613c45826122bf565b613c4f81856138fd565b9350613c5f8185602086016122db565b613c6881612305565b840191505092915050565b6000604082019050613c886000830185613719565b8181036020830152613c9a8184613c3a565b90509392505050565b600081905092915050565b6000613cb9826122bf565b613cc38185613ca3565b9350613cd38185602086016122db565b80840191505092915050565b6000613ceb8284613cae565b915081905092915050565b7f64656c656761746563616c6c0000000000000000000000000000000000000000600082015250565b6000613d2c600c83613ca3565b9150613d3782613cf6565b600c82019050919050565b6000613d4d82613d1f565b9150819050919050565b600081905092915050565b6000613d6d82613074565b613d778185613d57565b9350613d878185602086016122db565b80840191505092915050565b6000613d9f8284613d62565b915081905092915050565b7f6661696c65642064656c656761746563616c6c20746f20707265636f6d70696c60008201527f6500000000000000000000000000000000000000000000000000000000000000602082015250565b6000613e066021836138fd565b9150613e1182613daa565b604082019050919050565b60006020820190508181036000830152613e3581613df9565b9050919050565b600060408284031215613e5257613e51613220565b5b613e5c6040612590565b9050600082015167ffffffffffffffff811115613e7c57613e7b613225565b5b613e88848285016139fd565b6000830152506020613e9c84828501613a50565b60208301525092915050565b60008060408385031215613ebf57613ebe61211b565b5b6000613ecd85828601613a50565b925050602083015167ffffffffffffffff811115613eee57613eed612120565b5b613efa85828601613e3c565b9150509250929050565b7f73746174696363616c6c00000000000000000000000000000000000000000000600082015250565b6000613f3a600a83613ca3565b9150613f4582613f04565b600a82019050919050565b6000613f5b82613f2d565b9150819050919050565b7f6661696c65642073746174696363616c6c20746f20707265636f6d70696c6500600082015250565b6000613f9b601f836138fd565b9150613fa682613f65565b602082019050919050565b60006020820190508181036000830152613fca81613f8e565b9050919050565b7f63616c6c00000000000000000000000000000000000000000000000000000000600082015250565b6000614007600483613ca3565b915061401282613fd1565b600482019050919050565b600061402882613ffa565b9150819050919050565b7f6661696c65642063616c6c20746f20707265636f6d70696c6500000000000000600082015250565b60006140686019836138fd565b915061407382614032565b602082019050919050565b600060208201905081810360008301526140978161405b565b9050919050565b7f63616c6c636f6465000000000000000000000000000000000000000000000000600082015250565b60006140d4600883613ca3565b91506140df8261409e565b600882019050919050565b60006140f5826140c7565b9150819050919050565b7f696e76616c69642063616c6c7479706500000000000000000000000000000000600082015250565b60006141356010836138fd565b9150614140826140ff565b602082019050919050565b6000602082019050818103600083015261416481614128565b9050919050565b600081549050919050565b60008190508160005260206000209050919050565b7f4e487b7100000000000000000000000000000000000000000000000000000000600052602260045260246000fd5b600060028204905060018216806141d257607f821691505b6020821081036141e5576141e461418b565b5b50919050565b60008190508160005260206000209050919050565b6000815461420d816141ba565b61421781866122ca565b9450600182166000811461423257600181146142485761427b565b60ff19831686528115156020028601935061427b565b614251856141eb565b60005b8381101561427357815481890152600182019150602081019050614254565b808801955050505b50505092915050565b60006142908383614200565b905092915050565b6000600182019050919050565b60006142b08261416b565b6142ba8185613728565b9350836020820285016142cc85614176565b8060005b85811015614307578484038952816142e88582614284565b94506142f383614298565b925060208a019950506001810190506142d0565b50829750879550505050505092915050565b600060608201905061432e6000830186613719565b61433b60208301856126e6565b818103604083015261434d81846142a5565b9050949350505050565b7f64656c65676174696f6e20617070726f76616c206661696c6564000000000000600082015250565b600061438d601a836138fd565b915061439882614357565b602082019050919050565b600060208201905081810360008301526143bc81614380565b9050919050565b60006040820190506143d86000830185613719565b6143e560208301846126e6565b9392505050565b7f7472616e73666572206661696c65640000000000000000000000000000000000600082015250565b6000614422600f836138fd565b915061442d826143ec565b602082019050919050565b6000602082019050818103600083015261445181614415565b9050919050565b600060608201905061446d6000830186613719565b818103602083015261447f8185613c3a565b905061448e60408301846126e6565b949350505050565b7f5374616b696e6720417070726f7665206661696c656400000000000000000000600082015250565b60006144cc6016836138fd565b91506144d782614496565b602082019050919050565b600060208201905081810360008301526144fb816144bf565b9050919050565b7f4e487b7100000000000000000000000000000000000000000000000000000000600052601160045260246000fd5b600061453c826121e8565b9150614547836121e8565b925082820190508082111561455f5761455e614502565b5b92915050565b600067ffffffffffffffff8211156145805761457f612530565b5b602082029050602081019050919050565b6000815190506145a0816132cb565b92915050565b600060c082840312156145bc576145bb613220565b5b6145c660c0612590565b905060006145d684828501613a7c565b60008301525060206145ea84828501613a7c565b60208301525060406145fe84828501613a50565b604083015250606061461284828501613a50565b606083015250608061462684828501614591565b60808301525060a061463a84828501613a7c565b60a08301525092915050565b600061465961465484614565565b612590565b90508083825260208201905060c0840283018581111561467c5761467b61218d565b5b835b818110156146a5578061469188826145a6565b84526020840193505060c08101905061467e565b5050509392505050565b600082601f8301126146c4576146c3612183565b5b81516146d4848260208601614646565b91505092915050565b6000606082840312156146f3576146f2613220565b5b6146fd6060612590565b9050600082015167ffffffffffffffff81111561471d5761471c613225565b5b614729848285016139fd565b600083015250602082015167ffffffffffffffff81111561474d5761474c613225565b5b614759848285016139fd565b602083015250604082015167ffffffffffffffff81111561477d5761477c613225565b5b614789848285016146af565b60408301525092915050565b6000602082840312156147ab576147aa61211b565b5b600082015167ffffffffffffffff8111156147c9576147c8612120565b5b6147d5848285016146dd565b91505092915050565b60006060820190506147f36000830186613719565b81810360208301526148058185613c3a565b905081810360408301526148198184613c3a565b9050949350505050565b600067ffffffffffffffff82111561483e5761483d612530565b5b602082029050602081019050919050565b60006080828403121561486557614864613220565b5b61486f6080612590565b9050600061487f84828501613a7c565b600083015250602061489384828501613a7c565b60208301525060406148a784828501613a50565b60408301525060606148bb84828501613a50565b60608301525092915050565b60006148da6148d584614823565b612590565b905080838252602082019050608084028301858111156148fd576148fc61218d565b5b835b818110156149265780614912888261484f565b8452602084019350506080810190506148ff565b5050509392505050565b600082601f83011261494557614944612183565b5b81516149558482602086016148c7565b91505092915050565b60006080828403121561497457614973613220565b5b61497e6080612590565b9050600082015167ffffffffffffffff81111561499e5761499d613225565b5b6149aa848285016139fd565b600083015250602082015167ffffffffffffffff8111156149ce576149cd613225565b5b6149da848285016139fd565b602083015250604082015167ffffffffffffffff8111156149fe576149fd613225565b5b614a0a848285016139fd565b604083015250606082015167ffffffffffffffff811115614a2e57614a2d613225565b5b614a3a84828501614930565b60608301525092915050565b600060208284031215614a5c57614a5b61211b565b5b600082015167ffffffffffffffff811115614a7a57614a79612120565b5b614a868482850161495e565b91505092915050565b6000608082019050614aa46000830187613719565b8181036020830152614ab68186613c3a565b9050614ac560408301856126e6565b614ad260608301846126e6565b95945050505050565b7f44656c656761746520417070726f7665206661696c6564000000000000000000600082015250565b6000614b116017836138fd565b9150614b1c82614adb565b602082019050919050565b60006020820190508181036000830152614b4081614b04565b9050919050565b600060208284031215614b5d57614b5c61211b565b5b6000614b6b84828501613a7c565b91505092915050565b6000608082019050614b896000830187613719565b8181036020830152614b9b8186613c3a565b90508181036040830152614baf8185613c3a565b9050614bbe60608301846126e6565b95945050505050565b60008083356001602003843603038112614be457614be3613790565b5b83810192508235915060208301925067ffffffffffffffff821115614c0c57614c0b613786565b5b600182023603831315614c2257614c2161378b565b5b509250929050565b6000614c36838561307f565b9350614c438385846125dc565b614c4c83612305565b840190509392505050565b6000614c6660208401846132e2565b905092915050565b6000614c7d602084018461330e565b905092915050565b600060a08301614c986000840184614bc7565b8583036000870152614cab838284614c2a565b92505050614cbc6020840184614c57565b614cc960208601826128c9565b50614cd76040840184614c57565b614ce460408601826128c9565b50614cf26060840184614c6e565b614cff606086018261235b565b50614d0d6080840184614c6e565b614d1a608086018261235b565b508091505092915050565b60006040820190508181036000830152614d3f8185613c3a565b90508181036020830152614d538184614c85565b90509392505050565b600067ffffffffffffffff821115614d7757614d76612530565b5b602082029050602081019050919050565b6000614d9b614d9684614d5c565b612590565b90508083825260208201905060208402830185811115614dbe57614dbd61218d565b5b835b81811015614e0557805167ffffffffffffffff811115614de357614de2612183565b5b808601614df08982613a91565b85526020850194505050602081019050614dc0565b5050509392505050565b600082601f830112614e2457614e23612183565b5b8151614e34848260208601614d88565b91505092915050565b6000614e50614e4b8461322a565b612590565b905082815260208101848484011115614e6c57614e6b61252b565b5b614e778482856122db565b509392505050565b600082601f830112614e9457614e93612183565b5b8151614ea4848260208601614e3d565b91505092915050565b600060408284031215614ec357614ec2613220565b5b614ecd6040612590565b9050600082015167ffffffffffffffff811115614eed57614eec613225565b5b614ef984828501614e7f565b6000830152506020614f0d84828501614591565b60208301525092915050565b60008060408385031215614f3057614f2f61211b565b5b600083015167ffffffffffffffff811115614f4e57614f4d612120565b5b614f5a85828601614e0f565b925050602083015167ffffffffffffffff811115614f7b57614f7a612120565b5b614f8785828601614ead565b9150509250929050565b6000606082019050614fa66000830186613719565b614fb36020830185613719565b8181036040830152614fc58184613c3a565b9050949350505050565b600060208284031215614fe557614fe461211b565b5b6000614ff384828501613a50565b91505092915050565b7f4e487b7100000000000000000000000000000000000000000000000000000000600052603260045260246000fd5b600081519050919050565b6000819050602082019050919050565b60006150528383612316565b905092915050565b6000602082019050919050565b60006150728261502b565b61507c8185613728565b93508360208202850161508e85615036565b8060005b858110156150ca57848403895281516150ab8582615046565b94506150b68361505a565b925060208a01995050600181019050615092565b50829750879550505050505092915050565b60006060820190506150f16000830186613719565b6150fe60208301856126e6565b81810360408301526151108184615067565b9050949350505050565b7f6661696c656420746f20617070726f766520756e64656c65676174696f6e206d60008201527f6574686f64000000000000000000000000000000000000000000000000000000602082015250565b60006151766025836138fd565b91506151818261511a565b604082019050919050565b600060208201905081810360008301526151a581615169565b9050919050565b60006040820190506151c16000830186613719565b81810360208301526151d4818486613805565b9050949350505050565b7f4661696c656420746f207265766f6b6520617070726f76616c20666f7220737460008201527f616b696e67206d6574686f647300000000000000000000000000000000000000602082015250565b600061523a602d836138fd565b9150615245826151de565b604082019050919050565b600060208201905081810360008301526152698161522d565b9050919050565b600060a083016000830151848203600086015261528d8282613090565b91505060208301516152a260208601826128c9565b5060408301516152b560408601826128c9565b5060608301516152c8606086018261235b565b5060808301516152db608086018261235b565b508091505092915050565b60006080820190506152fb6000830187613719565b818103602083015261530d8186613c3a565b905081810360408301526153218185613c3a565b905081810360608301526153358184615270565b905095945050505050565b600067ffffffffffffffff82111561535b5761535a612530565b5b602082029050602081019050919050565b60006080828403121561538257615381613220565b5b61538c6080612590565b9050600082015167ffffffffffffffff8111156153ac576153ab613225565b5b6153b8848285016139fd565b600083015250602082015167ffffffffffffffff8111156153dc576153db613225565b5b6153e8848285016139fd565b602083015250604082015167ffffffffffffffff81111561540c5761540b613225565b5b615418848285016139fd565b604083015250606082015167ffffffffffffffff81111561543c5761543b613225565b5b61544884828501614930565b60608301525092915050565b600067ffffffffffffffff82111561546f5761546e612530565b5b602082029050602081019050919050565b600060a0828403121561549657615495613220565b5b6154a06040612590565b905060006154b08482850161484f565b60008301525060806154c484828501613a50565b60208301525092915050565b60006154e36154de84615454565b612590565b90508083825260208201905060a084028301858111156155065761550561218d565b5b835b8181101561552f578061551b8882615480565b84526020840193505060a081019050615508565b5050509392505050565b600082601f83011261554e5761554d612183565b5b815161555e8482602086016154d0565b91505092915050565b60006040828403121561557d5761557c613220565b5b6155876040612590565b9050600082015167ffffffffffffffff8111156155a7576155a6613225565b5b6155b38482850161536c565b600083015250602082015167ffffffffffffffff8111156155d7576155d6613225565b5b6155e384828501615539565b60208301525092915050565b60006156026155fd84615340565b612590565b905080838252602082019050602084028301858111156156255761562461218d565b5b835b8181101561566c57805167ffffffffffffffff81111561564a57615649612183565b5b8086016156578982615567565b85526020850194505050602081019050615627565b5050509392505050565b600082601f83011261568b5761568a612183565b5b815161569b8482602086016155ef565b91505092915050565b600080604083850312156156bb576156ba61211b565b5b600083015167ffffffffffffffff8111156156d9576156d8612120565b5b6156e585828601615676565b925050602083015167ffffffffffffffff81111561570657615705612120565b5b61571285828601614ead565b915050925092905056fe2f636f736d6f732e7374616b696e672e763162657461312e4d7367556e64656c6567617465a2646970667358221220de0011d99ddea95ddc965752da4725396f8e9020c40f2730d27ec604f349de3e64736f6c634300081300332f636f736d6f732e7374616b696e672e763162657461312e4d736744656c6567617465",
  "linkReferences": {},
  "deployedLinkReferences": {}
}