{
  "_format": "hh-sol-artifact-1",
  "contractName": "StakingCallerTwo",
  "sourceName": "solidity/precompiles/staking/testdata/StakingCallerTwo.sol",
  "abi": [
    {
      "inputs": [],
      "name": "counter",
      "outputs": [
        {
          "internalType": "uint256",
          "name": "",
          "type": "uint256"
        }
      ],
      "stateMutability": "view",
      "type": "function"
    },
    {
      "inputs": [
        {
          "internalType": "address",
          "name": "_addr",
          "type": "address"
        },
        {
          "internalType": "string[]",
          "name": "_methods",
          "type": "string[]"
        },
        {
          "internalType": "uint256",
          "name": "_amount",
          "type": "uint256"
        }
      ],
      "name": "testApprove",
      "outputs": [],
      "stateMutability": "nonpayable",
      "type": "function"
    },
    {
      "inputs": [
        {
          "components": [
            {
              "internalType": "string",
              "name": "moniker",
              "type": "string"
            },
            {
              "internalType": "string",
              "name": "identity",
              "type": "string"
            },
            {
              "internalType": "string",
              "name": "website",
              "type": "string"
            },
            {
              "internalType": "string",
              "name": "securityContact",
              "type": "string"
            },
            {
              "internalType": "string",
              "name": "details",
              "type": "string"
            }
          ],
          "internalType": "struct Description",
          "name": "_descr",
          "type": "tuple"
        },
        {
          "components": [
            {
              "internalType": "uint256",
              "name": "rate",
              "type": "uint256"
            },
            {
              "internalType": "uint256",
              "name": "maxRate",
              "type": "uint256"
            },
            {
              "internalType": "uint256",
              "name": "maxChangeRate",
              "type": "uint256"
            }
          ],
          "internalType": "struct CommissionRates",
          "name": "_commRates",
          "type": "tuple"
        },
        {
          "internalType": "uint256",
          "name": "_minSelfDel",
          "type": "uint256"
        },
        {
          "internalType": "address",
          "name": "_validator",
          "type": "address"
        },
        {
          "internalType": "string",
          "name": "_pubkey",
          "type": "string"
        },
        {
          "internalType": "uint256",
          "name": "_value",
          "type": "uint256"
        },
        {
          "internalType": "bool",
          "name": "_before",
          "type": "bool"
        },
        {
          "internalType": "bool",
          "name": "_after",
          "type": "bool"
        }
      ],
      "name": "testCreateValidatorWithTransfer",
      "outputs": [],
      "stateMutability": "nonpayable",
      "type": "function"
    },
    {
      "inputs": [
        {
          "internalType": "address payable",
          "name": "_delegator",
          "type": "address"
        },
        {
          "internalType": "string",
          "name": "_validatorAddr",
          "type": "string"
        },
        {
          "internalType": "uint256",
          "name": "_amount",
          "type": "uint256"
        },
        {
          "internalType": "bool",
          "name": "_before",
          "type": "bool"
        },
        {
          "internalType": "bool",
          "name": "_after",
          "type": "bool"
        }
      ],
      "name": "testDelegateWithCounterAndTransfer",
      "outputs": [],
      "stateMutability": "nonpayable",
      "type": "function"
    },
    {
      "inputs": [
        {
          "internalType": "address payable",
          "name": "_dest",
          "type": "address"
        },
        {
          "internalType": "address payable",
          "name": "_delegator",
          "type": "address"
        },
        {
          "internalType": "string",
          "name": "_validatorAddr",
          "type": "string"
        },
        {
          "internalType": "uint256",
          "name": "_amount",
          "type": "uint256"
        },
        {
          "internalType": "bool",
          "name": "_before",
          "type": "bool"
        },
        {
          "internalType": "bool",
          "name": "_after",
          "type": "bool"
        }
      ],
      "name": "testDelegateWithTransfer",
      "outputs": [],
      "stateMutability": "nonpayable",
      "type": "function"
    }
  ],
  "bytecode": "608060405234801561000f575f80fd5b506115148061001d5f395ff3fe608060405234801561000f575f80fd5b5060043610610055575f3560e01c80630a4433e214610059578063365465a814610075578063405da99f1461009157806361bc221a146100ad57806389493f41146100cb575b5f80fd5b610073600480360381019061006e9190610960565b6100e7565b005b61008f600480360381019061008a9190610b7e565b6101b2565b005b6100ab60048036038101906100a69190610ca4565b61041d565b005b6100b561063c565b6040516100c29190610d46565b60405180910390f35b6100e560048036038101906100e09190610d5f565b610641565b005b5f61080073ffffffffffffffffffffffffffffffffffffffff1663b6039895868487876040518563ffffffff1660e01b81526004016101299493929190610f6b565b6020604051808303815f875af1158015610145573d5f803e3d5ffd5b505050506040513d601f19601f820116820180604052508101906101699190610fbd565b9050806101ab576040517f08c379a00000000000000000000000000000000000000000000000000000000081526004016101a290611068565b60405180910390fd5b5050505050565b811561027e575f808154809291906101c9906110b3565b91905055505f8573ffffffffffffffffffffffffffffffffffffffff16650da475abf0006040516101f990611127565b5f6040518083038185875af1925050503d805f8114610233576040519150601f19603f3d011682016040523d82523d5f602084013e610238565b606091505b505090508061027c576040517f08c379a0000000000000000000000000000000000000000000000000000000008152600401610273906111ab565b60405180910390fd5b505b5f61080073ffffffffffffffffffffffffffffffffffffffff1663f7cd55168a8a8a8a8a8a6040518763ffffffff1660e01b81526004016102c496959493929190611371565b6020604051808303815f875af11580156102e0573d5f803e3d5ffd5b505050506040513d601f19601f820116820180604052508101906103049190610fbd565b905080610346576040517f08c379a000000000000000000000000000000000000000000000000000000000815260040161033d90611429565b60405180910390fd5b8115610412575f8081548092919061035d906110b3565b91905055505f8673ffffffffffffffffffffffffffffffffffffffff16650da475abf00060405161038d90611127565b5f6040518083038185875af1925050503d805f81146103c7576040519150601f19603f3d011682016040523d82523d5f602084013e6103cc565b606091505b5050905080610410576040517f08c379a0000000000000000000000000000000000000000000000000000000008152600401610407906111ab565b60405180910390fd5b505b505050505050505050565b81156104e9575f80815480929190610434906110b3565b91905055505f8573ffffffffffffffffffffffffffffffffffffffff16650da475abf00060405161046490611127565b5f6040518083038185875af1925050503d805f811461049e576040519150601f19603f3d011682016040523d82523d5f602084013e6104a3565b606091505b50509050806104e7576040517f08c379a00000000000000000000000000000000000000000000000000000000081526004016104de906111ab565b60405180910390fd5b505b61080073ffffffffffffffffffffffffffffffffffffffff166353266bbb8686866040518463ffffffff1660e01b8152600401610528939291906114a2565b6020604051808303815f875af1158015610544573d5f803e3d5ffd5b505050506040513d601f19601f820116820180604052508101906105689190610fbd565b508015610635575f80815480929190610580906110b3565b91905055505f8573ffffffffffffffffffffffffffffffffffffffff16650da475abf0006040516105b090611127565b5f6040518083038185875af1925050503d805f81146105ea576040519150601f19603f3d011682016040523d82523d5f602084013e6105ef565b606091505b5050905080610633576040517f08c379a000000000000000000000000000000000000000000000000000000000815260040161062a906111ab565b60405180910390fd5b505b5050505050565b5f5481565b811561070d575f80815480929190610658906110b3565b91905055505f8673ffffffffffffffffffffffffffffffffffffffff16650da475abf00060405161068890611127565b5f6040518083038185875af1925050503d805f81146106c2576040519150601f19603f3d011682016040523d82523d5f602084013e6106c7565b606091505b505090508061070b576040517f08c379a0000000000000000000000000000000000000000000000000000000008152600401610702906111ab565b60405180910390fd5b505b61080073ffffffffffffffffffffffffffffffffffffffff166353266bbb8686866040518463ffffffff1660e01b815260040161074c939291906114a2565b6020604051808303815f875af1158015610768573d5f803e3d5ffd5b505050506040513d601f19601f8201168201806040525081019061078c9190610fbd565b508015610859575f808154809291906107a4906110b3565b91905055505f8673ffffffffffffffffffffffffffffffffffffffff16650da475abf0006040516107d490611127565b5f6040518083038185875af1925050503d805f811461080e576040519150601f19603f3d011682016040523d82523d5f602084013e610813565b606091505b5050905080610857576040517f08c379a000000000000000000000000000000000000000000000000000000000815260040161084e906111ab565b60405180910390fd5b505b505050505050565b5f604051905090565b5f80fd5b5f80fd5b5f73ffffffffffffffffffffffffffffffffffffffff82169050919050565b5f61089b82610872565b9050919050565b6108ab81610891565b81146108b5575f80fd5b50565b5f813590506108c6816108a2565b92915050565b5f80fd5b5f80fd5b5f80fd5b5f8083601f8401126108ed576108ec6108cc565b5b8235905067ffffffffffffffff81111561090a576109096108d0565b5b602083019150836020820283011115610926576109256108d4565b5b9250929050565b5f819050919050565b61093f8161092d565b8114610949575f80fd5b50565b5f8135905061095a81610936565b92915050565b5f805f80606085870312156109785761097761086a565b5b5f610985878288016108b8565b945050602085013567ffffffffffffffff8111156109a6576109a561086e565b5b6109b2878288016108d8565b935093505060406109c58782880161094c565b91505092959194509250565b5f80fd5b5f60a082840312156109ea576109e96109d1565b5b81905092915050565b5f60608284031215610a0857610a076109d1565b5b81905092915050565b5f80fd5b5f601f19601f8301169050919050565b7f4e487b71000000000000000000000000000000000000000000000000000000005f52604160045260245ffd5b610a5b82610a15565b810181811067ffffffffffffffff82111715610a7a57610a79610a25565b5b80604052505050565b5f610a8c610861565b9050610a988282610a52565b919050565b5f67ffffffffffffffff821115610ab757610ab6610a25565b5b610ac082610a15565b9050602081019050919050565b828183375f83830152505050565b5f610aed610ae884610a9d565b610a83565b905082815260208101848484011115610b0957610b08610a11565b5b610b14848285610acd565b509392505050565b5f82601f830112610b3057610b2f6108cc565b5b8135610b40848260208601610adb565b91505092915050565b5f8115159050919050565b610b5d81610b49565b8114610b67575f80fd5b50565b5f81359050610b7881610b54565b92915050565b5f805f805f805f80610140898b031215610b9b57610b9a61086a565b5b5f89013567ffffffffffffffff811115610bb857610bb761086e565b5b610bc48b828c016109d5565b9850506020610bd58b828c016109f3565b9750506080610be68b828c0161094c565b96505060a0610bf78b828c016108b8565b95505060c089013567ffffffffffffffff811115610c1857610c1761086e565b5b610c248b828c01610b1c565b94505060e0610c358b828c0161094c565b935050610100610c478b828c01610b6a565b925050610120610c598b828c01610b6a565b9150509295985092959890939650565b5f610c7382610872565b9050919050565b610c8381610c69565b8114610c8d575f80fd5b50565b5f81359050610c9e81610c7a565b92915050565b5f805f805f60a08688031215610cbd57610cbc61086a565b5b5f610cca88828901610c90565b955050602086013567ffffffffffffffff811115610ceb57610cea61086e565b5b610cf788828901610b1c565b9450506040610d088882890161094c565b9350506060610d1988828901610b6a565b9250506080610d2a88828901610b6a565b9150509295509295909350565b610d408161092d565b82525050565b5f602082019050610d595f830184610d37565b92915050565b5f805f805f8060c08789031215610d7957610d7861086a565b5b5f610d8689828a01610c90565b9650506020610d9789828a01610c90565b955050604087013567ffffffffffffffff811115610db857610db761086e565b5b610dc489828a01610b1c565b9450506060610dd589828a0161094c565b9350506080610de689828a01610b6a565b92505060a0610df789828a01610b6a565b9150509295509295509295565b610e0d81610891565b82525050565b5f82825260208201905092915050565b5f819050919050565b5f82825260208201905092915050565b5f610e478385610e2c565b9350610e54838584610acd565b610e5d83610a15565b840190509392505050565b5f610e74848484610e3c565b90509392505050565b5f80fd5b5f80fd5b5f80fd5b5f8083356001602003843603038112610ea557610ea4610e85565b5b83810192508235915060208301925067ffffffffffffffff821115610ecd57610ecc610e7d565b5b600182023603831315610ee357610ee2610e81565b5b509250929050565b5f602082019050919050565b5f610f028385610e13565b935083602084028501610f1484610e23565b805f5b87811015610f59578484038952610f2e8284610e89565b610f39868284610e68565b9550610f4484610eeb565b935060208b019a505050600181019050610f17565b50829750879450505050509392505050565b5f606082019050610f7e5f830187610e04565b610f8b6020830186610d37565b8181036040830152610f9e818486610ef7565b905095945050505050565b5f81519050610fb781610b54565b92915050565b5f60208284031215610fd257610fd161086a565b5b5f610fdf84828501610fa9565b91505092915050565b5f82825260208201905092915050565b7f4661696c656420746f20617070726f7665207374616b696e67206d6574686f645f8201527f7300000000000000000000000000000000000000000000000000000000000000602082015250565b5f611052602183610fe8565b915061105d82610ff8565b604082019050919050565b5f6020820190508181035f83015261107f81611046565b9050919050565b7f4e487b71000000000000000000000000000000000000000000000000000000005f52601160045260245ffd5b5f6110bd8261092d565b91507fffffffffffffffffffffffffffffffffffffffffffffffffffffffffffffffff82036110ef576110ee611086565b5b600182019050919050565b5f81905092915050565b50565b5f6111125f836110fa565b915061111d82611104565b5f82019050919050565b5f61113182611107565b9150819050919050565b7f4661696c656420746f2073656e6420457468657220746f2064656c656761746f5f8201527f7200000000000000000000000000000000000000000000000000000000000000602082015250565b5f611195602183610fe8565b91506111a08261113b565b604082019050919050565b5f6020820190508181035f8301526111c281611189565b9050919050565b5f60a083016111da5f840184610e89565b8583035f8701526111ec838284610e3c565b925050506111fd6020840184610e89565b8583036020870152611210838284610e3c565b925050506112216040840184610e89565b8583036040870152611234838284610e3c565b925050506112456060840184610e89565b8583036060870152611258838284610e3c565b925050506112696080840184610e89565b858303608087015261127c838284610e3c565b925050508091505092915050565b5f611298602084018461094c565b905092915050565b6112a98161092d565b82525050565b606082016112bf5f83018361128a565b6112cb5f8501826112a0565b506112d9602083018361128a565b6112e660208501826112a0565b506112f4604083018361128a565b61130160408501826112a0565b50505050565b5f81519050919050565b5f5b8381101561132e578082015181840152602081019050611313565b5f8484015250505050565b5f61134382611307565b61134d8185610fe8565b935061135d818560208601611311565b61136681610a15565b840191505092915050565b5f610100820190508181035f83015261138a81896111c9565b905061139960208301886112af565b6113a66080830187610d37565b6113b360a0830186610e04565b81810360c08301526113c58185611339565b90506113d460e0830184610d37565b979650505050505050565b7f4661696c656420746f20637265617465207468652076616c696461746f7200005f82015250565b5f611413601e83610fe8565b915061141e826113df565b602082019050919050565b5f6020820190508181035f83015261144081611407565b9050919050565b5f819050919050565b5f61146a61146561146084610872565b611447565b610872565b9050919050565b5f61147b82611450565b9050919050565b5f61148c82611471565b9050919050565b61149c81611482565b82525050565b5f6060820190506114b55f830186611493565b81810360208301526114c78185611339565b90506114d66040830184610d37565b94935050505056fea2646970667358221220999c600e533cd020b36ff620f6ab0edae0a73e3f8b67b9d7881d6dff4a6e63ab64736f6c63430008140033",
  "linkReferences": {},
  "deployedLinkReferences": {}
}