{
  "_format": "hh-sol-artifact-1",
  "contractName": "StakingCaller",
  "sourceName": "solidity/precompiles/staking/testdata/StakingCaller.sol",
  "abi": [
    {
      "inputs": [
        {
          "internalType": "string",
          "name": "_validatorAddr",
          "type": "string"
        }
      ],
      "name": "approveDepositAndDelegate",
      "outputs": [],
      "stateMutability": "payable",
      "type": "function"
    },
    {
      "inputs": [
        {
          "internalType": "string",
          "name": "_validatorAddr",
          "type": "string"
        }
      ],
      "name": "approveDepositAndDelegateExceedingAllowance",
      "outputs": [],
      "stateMutability": "payable",
      "type": "function"
    },
    {
      "inputs": [
        {
          "internalType": "string",
          "name": "_validatorAddr",
          "type": "string"
        }
      ],
      "name": "approveDepositDelegateAndFailCustomLogic",
      "outputs": [],
      "stateMutability": "payable",
      "type": "function"
    },
    {
      "inputs": [
        {
          "internalType": "address",
          "name": "_contract",
          "type": "address"
        },
        {
          "internalType": "string",
          "name": "_validatorAddr",
          "type": "string"
        },
        {
          "internalType": "uint256",
          "name": "_amount",
          "type": "uint256"
        }
      ],
      "name": "callERC20AndDelegate",
      "outputs": [],
      "stateMutability": "nonpayable",
      "type": "function"
    },
    {
      "inputs": [],
      "name": "counter",
      "outputs": [
        {
          "internalType": "uint256",
          "name": "",
          "type": "uint256"
        }
      ],
      "stateMutability": "view",
      "type": "function"
    },
    {
      "inputs": [
        {
          "internalType": "address",
          "name": "_grantee",
          "type": "address"
        },
        {
          "internalType": "string",
          "name": "method",
          "type": "string"
        }
      ],
      "name": "getAllowance",
      "outputs": [
        {
          "internalType": "uint256",
          "name": "allowance",
          "type": "uint256"
        }
      ],
      "stateMutability": "view",
      "type": "function"
    },
    {
      "inputs": [
        {
          "internalType": "address",
          "name": "_addr",
          "type": "address"
        },
        {
          "internalType": "string",
          "name": "_validatorAddr",
          "type": "string"
        }
      ],
      "name": "getDelegation",
      "outputs": [
        {
          "internalType": "uint256",
          "name": "shares",
          "type": "uint256"
        },
        {
          "components": [
            {
              "internalType": "string",
              "name": "denom",
              "type": "string"
            },
            {
              "internalType": "uint256",
              "name": "amount",
              "type": "uint256"
            }
          ],
          "internalType": "struct Coin",
          "name": "balance",
          "type": "tuple"
        }
      ],
      "stateMutability": "view",
      "type": "function"
    },
    {
      "inputs": [
        {
          "internalType": "address",
          "name": "_addr",
          "type": "address"
        },
        {
          "internalType": "string",
          "name": "_validatorSrcAddr",
          "type": "string"
        },
        {
          "internalType": "string",
          "name": "_validatorDstAddr",
          "type": "string"
        }
      ],
      "name": "getRedelegation",
      "outputs": [
        {
          "components": [
            {
              "internalType": "string",
              "name": "delegatorAddress",
              "type": "string"
            },
            {
              "internalType": "string",
              "name": "validatorSrcAddress",
              "type": "string"
            },
            {
              "internalType": "string",
              "name": "validatorDstAddress",
              "type": "string"
            },
            {
              "components": [
                {
                  "internalType": "int64",
                  "name": "creationHeight",
                  "type": "int64"
                },
                {
                  "internalType": "int64",
                  "name": "completionTime",
                  "type": "int64"
                },
                {
                  "internalType": "uint256",
                  "name": "initialBalance",
                  "type": "uint256"
                },
                {
                  "internalType": "uint256",
                  "name": "sharesDst",
                  "type": "uint256"
                }
              ],
              "internalType": "struct RedelegationEntry[]",
              "name": "entries",
              "type": "tuple[]"
            }
          ],
          "internalType": "struct RedelegationOutput",
          "name": "redelegation",
          "type": "tuple"
        }
      ],
      "stateMutability": "view",
      "type": "function"
    },
    {
      "inputs": [
        {
          "internalType": "address",
          "name": "_delegatorAddr",
          "type": "address"
        },
        {
          "internalType": "string",
          "name": "_validatorSrcAddr",
          "type": "string"
        },
        {
          "internalType": "string",
          "name": "_validatorDstAddr",
          "type": "string"
        },
        {
          "components": [
            {
              "internalType": "bytes",
              "name": "key",
              "type": "bytes"
            },
            {
              "internalType": "uint64",
              "name": "offset",
              "type": "uint64"
            },
            {
              "internalType": "uint64",
              "name": "limit",
              "type": "uint64"
            },
            {
              "internalType": "bool",
              "name": "countTotal",
              "type": "bool"
            },
            {
              "internalType": "bool",
              "name": "reverse",
              "type": "bool"
            }
          ],
          "internalType": "struct PageRequest",
          "name": "_pageRequest",
          "type": "tuple"
        }
      ],
      "name": "getRedelegations",
      "outputs": [
        {
          "components": [
            {
              "components": [
                {
                  "internalType": "string",
                  "name": "delegatorAddress",
                  "type": "string"
                },
                {
                  "internalType": "string",
                  "name": "validatorSrcAddress",
                  "type": "string"
                },
                {
                  "internalType": "string",
                  "name": "validatorDstAddress",
                  "type": "string"
                },
                {
                  "components": [
                    {
                      "internalType": "int64",
                      "name": "creationHeight",
                      "type": "int64"
                    },
                    {
                      "internalType": "int64",
                      "name": "completionTime",
                      "type": "int64"
                    },
                    {
                      "internalType": "uint256",
                      "name": "initialBalance",
                      "type": "uint256"
                    },
                    {
                      "internalType": "uint256",
                      "name": "sharesDst",
                      "type": "uint256"
                    }
                  ],
                  "internalType": "struct RedelegationEntry[]",
                  "name": "entries",
                  "type": "tuple[]"
                }
              ],
              "internalType": "struct Redelegation",
              "name": "redelegation",
              "type": "tuple"
            },
            {
              "components": [
                {
                  "components": [
                    {
                      "internalType": "int64",
                      "name": "creationHeight",
                      "type": "int64"
                    },
                    {
                      "internalType": "int64",
                      "name": "completionTime",
                      "type": "int64"
                    },
                    {
                      "internalType": "uint256",
                      "name": "initialBalance",
                      "type": "uint256"
                    },
                    {
                      "internalType": "uint256",
                      "name": "sharesDst",
                      "type": "uint256"
                    }
                  ],
                  "internalType": "struct RedelegationEntry",
                  "name": "redelegationEntry",
                  "type": "tuple"
                },
                {
                  "internalType": "uint256",
                  "name": "balance",
                  "type": "uint256"
                }
              ],
              "internalType": "struct RedelegationEntryResponse[]",
              "name": "entries",
              "type": "tuple[]"
            }
          ],
          "internalType": "struct RedelegationResponse[]",
          "name": "response",
          "type": "tuple[]"
        },
        {
          "components": [
            {
              "internalType": "bytes",
              "name": "nextKey",
              "type": "bytes"
            },
            {
              "internalType": "uint64",
              "name": "total",
              "type": "uint64"
            }
          ],
          "internalType": "struct PageResponse",
          "name": "pageResponse",
          "type": "tuple"
        }
      ],
      "stateMutability": "view",
      "type": "function"
    },
    {
      "inputs": [
        {
          "internalType": "address",
          "name": "_addr",
          "type": "address"
        },
        {
          "internalType": "string",
          "name": "_validatorAddr",
          "type": "string"
        }
      ],
      "name": "getUnbondingDelegation",
      "outputs": [
        {
          "components": [
            {
              "internalType": "string",
              "name": "delegatorAddress",
              "type": "string"
            },
            {
              "internalType": "string",
              "name": "validatorAddress",
              "type": "string"
            },
            {
              "components": [
                {
                  "internalType": "int64",
                  "name": "creationHeight",
                  "type": "int64"
                },
                {
                  "internalType": "int64",
                  "name": "completionTime",
                  "type": "int64"
                },
                {
                  "internalType": "uint256",
                  "name": "initialBalance",
                  "type": "uint256"
                },
                {
                  "internalType": "uint256",
                  "name": "balance",
                  "type": "uint256"
                },
                {
                  "internalType": "uint64",
                  "name": "unbondingId",
                  "type": "uint64"
                },
                {
                  "internalType": "int64",
                  "name": "unbondingOnHoldRefCount",
                  "type": "int64"
                }
              ],
              "internalType": "struct UnbondingDelegationEntry[]",
              "name": "entries",
              "type": "tuple[]"
            }
          ],
          "internalType": "struct UnbondingDelegationOutput",
          "name": "unbondingDelegation",
          "type": "tuple"
        }
      ],
      "stateMutability": "view",
      "type": "function"
    },
    {
      "inputs": [
        {
          "internalType": "address",
          "name": "_validatorAddr",
          "type": "address"
        }
      ],
      "name": "getValidator",
      "outputs": [
        {
          "components": [
            {
              "internalType": "string",
              "name": "operatorAddress",
              "type": "string"
            },
            {
              "internalType": "string",
              "name": "consensusPubkey",
              "type": "string"
            },
            {
              "internalType": "bool",
              "name": "jailed",
              "type": "bool"
            },
            {
              "internalType": "enum BondStatus",
              "name": "status",
              "type": "uint8"
            },
            {
              "internalType": "uint256",
              "name": "tokens",
              "type": "uint256"
            },
            {
              "internalType": "uint256",
              "name": "delegatorShares",
              "type": "uint256"
            },
            {
              "internalType": "string",
              "name": "description",
              "type": "string"
            },
            {
              "internalType": "int64",
              "name": "unbondingHeight",
              "type": "int64"
            },
            {
              "internalType": "int64",
              "name": "unbondingTime",
              "type": "int64"
            },
            {
              "internalType": "uint256",
              "name": "commission",
              "type": "uint256"
            },
            {
              "internalType": "uint256",
              "name": "minSelfDelegation",
              "type": "uint256"
            }
          ],
          "internalType": "struct Validator",
          "name": "validator",
          "type": "tuple"
        }
      ],
      "stateMutability": "view",
      "type": "function"
    },
    {
      "inputs": [
        {
          "internalType": "string",
          "name": "_status",
          "type": "string"
        },
        {
          "components": [
            {
              "internalType": "bytes",
              "name": "key",
              "type": "bytes"
            },
            {
              "internalType": "uint64",
              "name": "offset",
              "type": "uint64"
            },
            {
              "internalType": "uint64",
              "name": "limit",
              "type": "uint64"
            },
            {
              "internalType": "bool",
              "name": "countTotal",
              "type": "bool"
            },
            {
              "internalType": "bool",
              "name": "reverse",
              "type": "bool"
            }
          ],
          "internalType": "struct PageRequest",
          "name": "_pageRequest",
          "type": "tuple"
        }
      ],
      "name": "getValidators",
      "outputs": [
        {
          "components": [
            {
              "internalType": "string",
              "name": "operatorAddress",
              "type": "string"
            },
            {
              "internalType": "string",
              "name": "consensusPubkey",
              "type": "string"
            },
            {
              "internalType": "bool",
              "name": "jailed",
              "type": "bool"
            },
            {
              "internalType": "enum BondStatus",
              "name": "status",
              "type": "uint8"
            },
            {
              "internalType": "uint256",
              "name": "tokens",
              "type": "uint256"
            },
            {
              "internalType": "uint256",
              "name": "delegatorShares",
              "type": "uint256"
            },
            {
              "internalType": "string",
              "name": "description",
              "type": "string"
            },
            {
              "internalType": "int64",
              "name": "unbondingHeight",
              "type": "int64"
            },
            {
              "internalType": "int64",
              "name": "unbondingTime",
              "type": "int64"
            },
            {
              "internalType": "uint256",
              "name": "commission",
              "type": "uint256"
            },
            {
              "internalType": "uint256",
              "name": "minSelfDelegation",
              "type": "uint256"
            }
          ],
          "internalType": "struct Validator[]",
          "name": "validators",
          "type": "tuple[]"
        },
        {
          "components": [
            {
              "internalType": "bytes",
              "name": "nextKey",
              "type": "bytes"
            },
            {
              "internalType": "uint64",
              "name": "total",
              "type": "uint64"
            }
          ],
          "internalType": "struct PageResponse",
          "name": "pageResponse",
          "type": "tuple"
        }
      ],
      "stateMutability": "view",
      "type": "function"
    },
    {
      "inputs": [
        {
          "internalType": "address",
          "name": "_addr",
          "type": "address"
        },
        {
          "internalType": "string[]",
          "name": "_methods",
          "type": "string[]"
        },
        {
          "internalType": "uint256",
          "name": "_amount",
          "type": "uint256"
        }
      ],
      "name": "testApprove",
      "outputs": [],
      "stateMutability": "nonpayable",
      "type": "function"
    },
    {
      "inputs": [
        {
          "internalType": "address",
          "name": "_addr",
          "type": "address"
        },
        {
          "internalType": "uint256",
          "name": "_approveAmount",
          "type": "uint256"
        },
        {
          "internalType": "uint256",
          "name": "_undelegateAmount",
          "type": "uint256"
        },
        {
          "internalType": "string",
          "name": "_validatorAddr",
          "type": "string"
        }
      ],
      "name": "testApproveAndThenUndelegate",
      "outputs": [],
      "stateMutability": "nonpayable",
      "type": "function"
    },
    {
      "inputs": [
        {
          "internalType": "address",
          "name": "_addr",
          "type": "address"
        },
        {
          "internalType": "string",
          "name": "_validatorAddr",
          "type": "string"
        },
        {
          "internalType": "string",
          "name": "_calltype",
          "type": "string"
        }
      ],
      "name": "testCallDelegation",
      "outputs": [
        {
          "internalType": "uint256",
          "name": "shares",
          "type": "uint256"
        },
        {
          "components": [
            {
              "internalType": "string",
              "name": "denom",
              "type": "string"
            },
            {
              "internalType": "uint256",
              "name": "amount",
              "type": "uint256"
            }
          ],
          "internalType": "struct Coin",
          "name": "coin",
          "type": "tuple"
        }
      ],
      "stateMutability": "nonpayable",
      "type": "function"
    },
    {
      "inputs": [
        {
          "internalType": "address",
          "name": "_addr",
          "type": "address"
        },
        {
          "internalType": "string",
          "name": "_validatorAddr",
          "type": "string"
        },
        {
          "internalType": "uint256",
          "name": "_amount",
          "type": "uint256"
        },
        {
          "internalType": "string",
          "name": "_calltype",
          "type": "string"
        }
      ],
      "name": "testCallUndelegate",
      "outputs": [],
      "stateMutability": "nonpayable",
      "type": "function"
    },
    {
      "inputs": [
        {
          "internalType": "address",
          "name": "_addr",
          "type": "address"
        },
        {
          "internalType": "string",
          "name": "_validatorAddr",
          "type": "string"
        },
        {
          "internalType": "uint256",
          "name": "_amount",
          "type": "uint256"
        },
        {
          "internalType": "uint256",
          "name": "_creationHeight",
          "type": "uint256"
        }
      ],
      "name": "testCancelUnbonding",
      "outputs": [],
      "stateMutability": "nonpayable",
      "type": "function"
    },
    {
      "inputs": [
        {
          "components": [
            {
              "internalType": "string",
              "name": "moniker",
              "type": "string"
            },
            {
              "internalType": "string",
              "name": "identity",
              "type": "string"
            },
            {
              "internalType": "string",
              "name": "website",
              "type": "string"
            },
            {
              "internalType": "string",
              "name": "securityContact",
              "type": "string"
            },
            {
              "internalType": "string",
              "name": "details",
              "type": "string"
            }
          ],
          "internalType": "struct Description",
          "name": "_descr",
          "type": "tuple"
        },
        {
          "components": [
            {
              "internalType": "uint256",
              "name": "rate",
              "type": "uint256"
            },
            {
              "internalType": "uint256",
              "name": "maxRate",
              "type": "uint256"
            },
            {
              "internalType": "uint256",
              "name": "maxChangeRate",
              "type": "uint256"
            }
          ],
          "internalType": "struct CommissionRates",
          "name": "_commRates",
          "type": "tuple"
        },
        {
          "internalType": "uint256",
          "name": "_minSelfDel",
          "type": "uint256"
        },
        {
          "internalType": "address",
          "name": "_valAddr",
          "type": "address"
        },
        {
          "internalType": "string",
          "name": "_pubkey",
          "type": "string"
        },
        {
          "internalType": "uint256",
          "name": "_value",
          "type": "uint256"
        }
      ],
      "name": "testCreateValidator",
      "outputs": [
        {
          "internalType": "bool",
          "name": "",
          "type": "bool"
        }
      ],
      "stateMutability": "nonpayable",
      "type": "function"
    },
    {
      "inputs": [
        {
          "internalType": "address",
          "name": "_addr",
          "type": "address"
        },
        {
          "internalType": "string",
          "name": "_validatorAddr",
          "type": "string"
        },
        {
          "internalType": "uint256",
          "name": "_amount",
          "type": "uint256"
        }
      ],
      "name": "testDelegate",
      "outputs": [],
      "stateMutability": "nonpayable",
      "type": "function"
    },
    {
      "inputs": [
        {
          "internalType": "string",
          "name": "_validatorAddr",
          "type": "string"
        },
        {
          "internalType": "uint256",
          "name": "_amount",
          "type": "uint256"
        }
      ],
      "name": "testDelegateIncrementCounter",
      "outputs": [],
      "stateMutability": "nonpayable",
      "type": "function"
    },
    {
      "inputs": [
        {
          "components": [
            {
              "internalType": "string",
              "name": "moniker",
              "type": "string"
            },
            {
              "internalType": "string",
              "name": "identity",
              "type": "string"
            },
            {
              "internalType": "string",
              "name": "website",
              "type": "string"
            },
            {
              "internalType": "string",
              "name": "securityContact",
              "type": "string"
            },
            {
              "internalType": "string",
              "name": "details",
              "type": "string"
            }
          ],
          "internalType": "struct Description",
          "name": "_descr",
          "type": "tuple"
        },
        {
          "internalType": "address",
          "name": "_valAddr",
          "type": "address"
        },
        {
          "internalType": "int256",
          "name": "_commRate",
          "type": "int256"
        },
        {
          "internalType": "int256",
          "name": "_minSelfDel",
          "type": "int256"
        }
      ],
      "name": "testEditValidator",
      "outputs": [
        {
          "internalType": "bool",
          "name": "",
          "type": "bool"
        }
      ],
      "stateMutability": "nonpayable",
      "type": "function"
    },
    {
      "inputs": [
        {
          "internalType": "address",
          "name": "_addr",
          "type": "address"
        },
        {
          "internalType": "string",
          "name": "_validatorSrcAddr",
          "type": "string"
        },
        {
          "internalType": "string",
          "name": "_validatorDstAddr",
          "type": "string"
        },
        {
          "internalType": "uint256",
          "name": "_amount",
          "type": "uint256"
        }
      ],
      "name": "testRedelegate",
      "outputs": [],
      "stateMutability": "nonpayable",
      "type": "function"
    },
    {
      "inputs": [
        {
          "internalType": "address",
          "name": "_grantee",
          "type": "address"
        },
        {
          "internalType": "string[]",
          "name": "_methods",
          "type": "string[]"
        }
      ],
      "name": "testRevoke",
      "outputs": [],
      "stateMutability": "nonpayable",
      "type": "function"
    },
    {
      "inputs": [
        {
          "internalType": "address",
          "name": "_addr",
          "type": "address"
        },
        {
          "internalType": "string",
          "name": "_validatorAddr",
          "type": "string"
        },
        {
          "internalType": "uint256",
          "name": "_amount",
          "type": "uint256"
        }
      ],
      "name": "testUndelegate",
      "outputs": [],
      "stateMutability": "nonpayable",
      "type": "function"
    }
  ],
  "bytecode": "0x60806040526040518060200160405280604051806060016040528060238152602001620061c56023913981525060019060016200003e92919062000053565b503480156200004c57600080fd5b50620004a1565b828054828255906000526020600020908101928215620000a0579160200282015b828111156200009f5782518290816200008e9190620003ba565b509160200191906001019062000074565b5b509050620000af9190620000b3565b5090565b5b80821115620000d75760008181620000cd9190620000db565b50600101620000b4565b5090565b508054620000e990620001a9565b6000825580601f10620000fd57506200011e565b601f0160209004906000526020600020908101906200011d919062000121565b5b50565b5b808211156200013c57600081600090555060010162000122565b5090565b600081519050919050565b7f4e487b7100000000000000000000000000000000000000000000000000000000600052604160045260246000fd5b7f4e487b7100000000000000000000000000000000000000000000000000000000600052602260045260246000fd5b60006002820490506001821680620001c257607f821691505b602082108103620001d857620001d76200017a565b5b50919050565b60008190508160005260206000209050919050565b60006020601f8301049050919050565b600082821b905092915050565b600060088302620002427fffffffffffffffffffffffffffffffffffffffffffffffffffffffffffffffff8262000203565b6200024e868362000203565b95508019841693508086168417925050509392505050565b6000819050919050565b6000819050919050565b60006200029b620002956200028f8462000266565b62000270565b62000266565b9050919050565b6000819050919050565b620002b7836200027a565b620002cf620002c682620002a2565b84845462000210565b825550505050565b600090565b620002e6620002d7565b620002f3818484620002ac565b505050565b5b818110156200031b576200030f600082620002dc565b600181019050620002f9565b5050565b601f8211156200036a576200033481620001de565b6200033f84620001f3565b810160208510156200034f578190505b620003676200035e85620001f3565b830182620002f8565b50505b505050565b600082821c905092915050565b60006200038f600019846008026200036f565b1980831691505092915050565b6000620003aa83836200037c565b9150826002028217905092915050565b620003c58262000140565b67ffffffffffffffff811115620003e157620003e06200014b565b5b620003ed8254620001a9565b620003fa8282856200031f565b600060209050601f8311600181146200043257600084156200041d578287015190505b6200042985826200039c565b86555062000499565b601f1984166200044286620001de565b60005b828110156200046c5784890151825560018201915060208501945060208101905062000445565b868310156200048c578489015162000488601f8916826200037c565b8355505b6001600288020188555050505b505050505050565b615d1480620004b16000396000f3fe60806040526004361061014b5760003560e01c80637e51b811116100b6578063cf2753cf1161006f578063cf2753cf146104a8578063ec9485df146104e6578063f40a214614610523578063f5714e641461054c578063f700dbd214610568578063f732b065146105915761014b565b80637e51b811146103965780638939e783146103bf5780638edb3f8b146103e85780639eab671114610404578063af9a90b21461042d578063b13d42421461046a5761014b565b806355dc4b221161010857806355dc4b2214610283578063570467ac146102ac5780635e269bfe146102e957806360deaa2a1461031257806361bc221a1461032e57806368ac3df3146103595761014b565b80630a4433e2146101505780631904bb2e1461017957806319b16c4c146101b657806331bcbcb3146101f45780633566cb951461021d578063455b855114610246575b600080fd5b34801561015c57600080fd5b50610177600480360381019061017291906123d4565b6105cf565b005b34801561018557600080fd5b506101a0600480360381019061019b9190612448565b61069e565b6040516101ad91906126bf565b60405180910390f35b3480156101c257600080fd5b506101dd60048036038101906101d89190612811565b61072e565b6040516101eb9291906128e8565b60405180910390f35b34801561020057600080fd5b5061021b60048036038101906102169190612918565b610c2d565b005b34801561022957600080fd5b50610244600480360381019061023f9190612987565b610eba565b005b34801561025257600080fd5b5061026d600480360381019061026891906129e3565b611022565b60405161027a9190612bea565b60405180910390f35b34801561028f57600080fd5b506102aa60048036038101906102a59190612c0c565b6110b5565b005b3480156102b857600080fd5b506102d360048036038101906102ce9190612811565b6114a7565b6040516102e09190612e27565b60405180910390f35b3480156102f557600080fd5b50610310600480360381019061030b9190612e49565b61153d565b005b61032c60048036038101906103279190612ecc565b6115c8565b005b34801561033a57600080fd5b50610343611716565b6040516103509190612f15565b60405180910390f35b34801561036557600080fd5b50610380600480360381019061037b9190612f73565b61171c565b60405161038d9190613048565b60405180910390f35b3480156103a257600080fd5b506103bd60048036038101906103b89190612918565b6117b2565b005b3480156103cb57600080fd5b506103e660048036038101906103e19190612918565b61183a565b005b61040260048036038101906103fd9190612ecc565b6118c2565b005b34801561041057600080fd5b5061042b60048036038101906104269190613063565b611a57565b005b34801561043957600080fd5b50610454600480360381019061044f9190613138565b611ae2565b6040516104619190613048565b60405180910390f35b34801561047657600080fd5b50610491600480360381019061048c91906131da565b611b72565b60405161049f9291906134a3565b60405180910390f35b3480156104b457600080fd5b506104cf60048036038101906104ca91906129e3565b611c0a565b6040516104dd9291906128e8565b60405180910390f35b3480156104f257600080fd5b5061050d600480360381019061050891906129e3565b611ca2565b60405161051a9190612f15565b60405180910390f35b34801561052f57600080fd5b5061054a600480360381019061054591906134da565b611d2c565b005b61056660048036038101906105619190612ecc565b611f08565b005b34801561057457600080fd5b5061058f600480360381019061058a919061355d565b612062565b005b34801561059d57600080fd5b506105b860048036038101906105b39190613768565b61212e565b6040516105c6929190613a7f565b60405180910390f35b600061080073ffffffffffffffffffffffffffffffffffffffff1663b6039895868487876040518563ffffffff1660e01b81526004016106129493929190613c18565b6020604051808303816000875af1158015610631573d6000803e3d6000fd5b505050506040513d601f19601f820116820180604052508101906106559190613c6d565b905080610697576040517f08c379a000000000000000000000000000000000000000000000000000000000815260040161068e90613d1d565b60405180910390fd5b5050505050565b6106a66121cc565b61080073ffffffffffffffffffffffffffffffffffffffff1663223b3b7a836040518263ffffffff1660e01b81526004016106e19190613d3d565b600060405180830381865afa1580156106fe573d6000803e3d6000fd5b505050506040513d6000823e3d601f19601f820116820180604052508101906107279190613f8e565b9050919050565b6000610738612240565b6000610800905060008686604051602401610754929190614010565b6040516020818303038152906040527f241774e6000000000000000000000000000000000000000000000000000000007bffffffffffffffffffffffffffffffffffffffffffffffffffffffff19166020820180517bffffffffffffffffffffffffffffffffffffffffffffffffffffffff838183161783525050505090506000856040516020016107e6919061407c565b60405160208183030381529060405280519060200120905060405160200161080d906140df565b6040516020818303038152906040528051906020012081036108f9576000808473ffffffffffffffffffffffffffffffffffffffff16846040516108519190614130565b600060405180830381855af49150503d806000811461088c576040519150601f19603f3d011682016040523d82523d6000602084013e610891565b606091505b5091509150816108d6576040517f08c379a00000000000000000000000000000000000000000000000000000000081526004016108cd906141b9565b60405180910390fd5b808060200190518101906108ea9190614245565b80975081985050505050610c22565b604051602001610908906142ed565b6040516020818303038152906040528051906020012081036109f4576000808473ffffffffffffffffffffffffffffffffffffffff168460405161094c9190614130565b600060405180830381855afa9150503d8060008114610987576040519150601f19603f3d011682016040523d82523d6000602084013e61098c565b606091505b5091509150816109d1576040517f08c379a00000000000000000000000000000000000000000000000000000000081526004016109c89061434e565b60405180910390fd5b808060200190518101906109e59190614245565b80975081985050505050610c21565b604051602001610a03906143ba565b604051602081830303815290604052805190602001208103610af1576000808473ffffffffffffffffffffffffffffffffffffffff1684604051610a479190614130565b6000604051808303816000865af19150503d8060008114610a84576040519150601f19603f3d011682016040523d82523d6000602084013e610a89565b606091505b509150915081610ace576040517f08c379a0000000000000000000000000000000000000000000000000000000008152600401610ac59061441b565b60405180910390fd5b80806020019051810190610ae29190614245565b80975081985050505050610c20565b604051602001610b0090614487565b604051602081830303815290604052805190602001208103610be45760006040518060400160405280601a81526020017f64656c65676174696f6e28616464726573732c737472696e6729000000000000815250805190602001209050600060a490506060600060208b01516020808d0101516040518681528e6004820152604060248201526033604482015282606482015281608482015260c081878360008e5af281519c5060608201519450610100820160405280610bc057600080fd5b50505050604051806040016040528083815260200182815250975050505050610c1f565b6040517f08c379a0000000000000000000000000000000000000000000000000000000008152600401610c16906144e8565b60405180910390fd5b5b5b5b505050935093915050565b600061080073ffffffffffffffffffffffffffffffffffffffff1663b6039895308460016040518463ffffffff1660e01b8152600401610c6f939291906146b6565b6020604051808303816000875af1158015610c8e573d6000803e3d6000fd5b505050506040513d601f19601f82011682018060405250810190610cb29190613c6d565b905080610cf4576040517f08c379a0000000000000000000000000000000000000000000000000000000008152600401610ceb90614740565b60405180910390fd5b60008473ffffffffffffffffffffffffffffffffffffffff163384604051602401610d20929190614760565b6040516020818303038152906040527fa9059cbb000000000000000000000000000000000000000000000000000000007bffffffffffffffffffffffffffffffffffffffffffffffffffffffff19166020820180517bffffffffffffffffffffffffffffffffffffffffffffffffffffffff8381831617835250505050604051610daa9190614130565b6000604051808303816000865af19150503d8060008114610de7576040519150601f19603f3d011682016040523d82523d6000602084013e610dec565b606091505b5050905080610e30576040517f08c379a0000000000000000000000000000000000000000000000000000000008152600401610e27906147d5565b60405180910390fd5b61080073ffffffffffffffffffffffffffffffffffffffff166353266bbb3386866040518463ffffffff1660e01b8152600401610e6f939291906147f5565b6020604051808303816000875af1158015610e8e573d6000803e3d6000fd5b505050506040513d601f19601f82011682018060405250810190610eb29190613c6d565b505050505050565b600061080073ffffffffffffffffffffffffffffffffffffffff1663b6039895308460016040518463ffffffff1660e01b8152600401610efc939291906146b6565b6020604051808303816000875af1158015610f1b573d6000803e3d6000fd5b505050506040513d601f19601f82011682018060405250810190610f3f9190613c6d565b905080610f81576040517f08c379a0000000000000000000000000000000000000000000000000000000008152600401610f789061487f565b60405180910390fd5b61080073ffffffffffffffffffffffffffffffffffffffff166353266bbb3085856040518463ffffffff1660e01b8152600401610fc0939291906147f5565b6020604051808303816000875af1158015610fdf573d6000803e3d6000fd5b505050506040513d601f19601f820116820180604052508101906110039190613c6d565b50600160008082825461101691906148ce565b92505081905550505050565b61102a61225a565b61080073ffffffffffffffffffffffffffffffffffffffff1663a03ffee184846040518363ffffffff1660e01b8152600401611067929190614010565b600060405180830381865afa158015611084573d6000803e3d6000fd5b505050506040513d6000823e3d601f19601f820116820180604052508101906110ad9190614b32565b905092915050565b6000610800905060008585856040516024016110d3939291906147f5565b6040516020818303038152906040527f3edab33c000000000000000000000000000000000000000000000000000000007bffffffffffffffffffffffffffffffffffffffffffffffffffffffff19166020820180517bffffffffffffffffffffffffffffffffffffffffffffffffffffffff83818316178352505050509050600083604051602001611165919061407c565b60405160208183030381529060405280519060200120905060405160200161118c906140df565b6040516020818303038152906040528051906020012081036112595760008373ffffffffffffffffffffffffffffffffffffffff16836040516111cf9190614130565b600060405180830381855af49150503d806000811461120a576040519150601f19603f3d011682016040523d82523d6000602084013e61120f565b606091505b5050905080611253576040517f08c379a000000000000000000000000000000000000000000000000000000000815260040161124a906141b9565b60405180910390fd5b5061149e565b604051602001611268906142ed565b6040516020818303038152906040528051906020012081036113355760008373ffffffffffffffffffffffffffffffffffffffff16836040516112ab9190614130565b600060405180830381855afa9150503d80600081146112e6576040519150601f19603f3d011682016040523d82523d6000602084013e6112eb565b606091505b505090508061132f576040517f08c379a00000000000000000000000000000000000000000000000000000000081526004016113269061434e565b60405180910390fd5b5061149d565b604051602001611344906143ba565b6040516020818303038152906040528051906020012081036114135760008373ffffffffffffffffffffffffffffffffffffffff16836040516113879190614130565b6000604051808303816000865af19150503d80600081146113c4576040519150601f19603f3d011682016040523d82523d6000602084013e6113c9565b606091505b505090508061140d576040517f08c379a00000000000000000000000000000000000000000000000000000000081526004016114049061441b565b60405180910390fd5b5061149c565b60405160200161142290614487565b6040516020818303038152906040528051906020012081036114605760208201825160008082846000895af28061145857600080fd5b50505061149b565b6040517f08c379a0000000000000000000000000000000000000000000000000000000008152600401611492906144e8565b60405180910390fd5b5b5b5b50505050505050565b6114af61227b565b61080073ffffffffffffffffffffffffffffffffffffffff16637d9f939c8585856040518463ffffffff1660e01b81526004016114ee93929190614b7b565b600060405180830381865afa15801561150b573d6000803e3d6000fd5b505050506040513d6000823e3d601f19601f820116820180604052508101906115349190614de3565b90509392505050565b61080073ffffffffffffffffffffffffffffffffffffffff166312d58dfe858585856040518563ffffffff1660e01b815260040161157e9493929190614e2c565b6020604051808303816000875af115801561159d573d6000803e3d6000fd5b505050506040513d601f19601f820116820180604052508101906115c19190613c6d565b5050505050565b600061080073ffffffffffffffffffffffffffffffffffffffff1663b6039895303460016040518463ffffffff1660e01b815260040161160a939291906146b6565b6020604051808303816000875af1158015611629573d6000803e3d6000fd5b505050506040513d601f19601f8201168201806040525081019061164d9190613c6d565b90508061168f576040517f08c379a000000000000000000000000000000000000000000000000000000000815260040161168690614ec4565b60405180910390fd5b61080073ffffffffffffffffffffffffffffffffffffffff166353266bbb3084346040518463ffffffff1660e01b81526004016116ce939291906147f5565b6020604051808303816000875af11580156116ed573d6000803e3d6000fd5b505050506040513d601f19601f820116820180604052508101906117119190613c6d565b505050565b60005481565b600061080073ffffffffffffffffffffffffffffffffffffffff1663f7cd55168888888888886040518763ffffffff1660e01b815260040161176396959493929190615019565b6020604051808303816000875af1158015611782573d6000803e3d6000fd5b505050506040513d601f19601f820116820180604052508101906117a69190613c6d565b90509695505050505050565b61080073ffffffffffffffffffffffffffffffffffffffff16633edab33c8484846040518463ffffffff1660e01b81526004016117f1939291906147f5565b6020604051808303816000875af1158015611810573d6000803e3d6000fd5b505050506040513d601f19601f820116820180604052508101906118349190615089565b50505050565b61080073ffffffffffffffffffffffffffffffffffffffff166353266bbb8484846040518463ffffffff1660e01b8152600401611879939291906147f5565b6020604051808303816000875af1158015611898573d6000803e3d6000fd5b505050506040513d601f19601f820116820180604052508101906118bc9190613c6d565b50505050565b600061080073ffffffffffffffffffffffffffffffffffffffff1663b6039895323460016040518463ffffffff1660e01b8152600401611904939291906146b6565b6020604051808303816000875af1158015611923573d6000803e3d6000fd5b505050506040513d601f19601f820116820180604052508101906119479190613c6d565b905080611989576040517f08c379a000000000000000000000000000000000000000000000000000000000815260040161198090614ec4565b60405180910390fd5b61080073ffffffffffffffffffffffffffffffffffffffff166353266bbb3084346040518463ffffffff1660e01b81526004016119c8939291906147f5565b6020604051808303816000875af11580156119e7573d6000803e3d6000fd5b505050506040513d601f19601f82011682018060405250810190611a0b9190613c6d565b503373ffffffffffffffffffffffffffffffffffffffff166108fc349081150290604051600060405180830381858888f19350505050158015611a52573d6000803e3d6000fd5b505050565b61080073ffffffffffffffffffffffffffffffffffffffff166354b826f5858585856040518563ffffffff1660e01b8152600401611a9894939291906150b6565b6020604051808303816000875af1158015611ab7573d6000803e3d6000fd5b505050506040513d601f19601f82011682018060405250810190611adb9190615089565b5050505050565b600061080073ffffffffffffffffffffffffffffffffffffffff1663a50f05ac868686866040518563ffffffff1660e01b8152600401611b259493929190615118565b6020604051808303816000875af1158015611b44573d6000803e3d6000fd5b505050506040513d601f19601f82011682018060405250810190611b689190613c6d565b9050949350505050565b6060611b7c6122a3565b61080073ffffffffffffffffffffffffffffffffffffffff1663186b216785856040518363ffffffff1660e01b8152600401611bb99291906152c2565b600060405180830381865afa158015611bd6573d6000803e3d6000fd5b505050506040513d6000823e3d601f19601f82011682018060405250810190611bff91906154b6565b915091509250929050565b6000611c14612240565b61080073ffffffffffffffffffffffffffffffffffffffff1663241774e685856040518363ffffffff1660e01b8152600401611c51929190614010565b600060405180830381865afa158015611c6e573d6000803e3d6000fd5b505050506040513d6000823e3d601f19601f82011682018060405250810190611c979190614245565b915091509250929050565b600061080073ffffffffffffffffffffffffffffffffffffffff1663fc08930c8433856040518463ffffffff1660e01b8152600401611ce39392919061552e565b602060405180830381865afa158015611d00573d6000803e3d6000fd5b505050506040513d601f19601f82011682018060405250810190611d24919061556c565b905092915050565b6000600167ffffffffffffffff811115611d4957611d486126e6565b5b604051908082528060200260200182016040528015611d7c57816020015b6060815260200190600190039081611d675790505b509050604051806060016040528060258152602001615cba6025913981600081518110611dac57611dab615599565b5b6020026020010181905250600061080073ffffffffffffffffffffffffffffffffffffffff1663b60398958787856040518463ffffffff1660e01b8152600401611df893929190615679565b6020604051808303816000875af1158015611e17573d6000803e3d6000fd5b505050506040513d601f19601f82011682018060405250810190611e3b9190613c6d565b905080611e7d576040517f08c379a0000000000000000000000000000000000000000000000000000000008152600401611e7490615729565b60405180910390fd5b61080073ffffffffffffffffffffffffffffffffffffffff16633edab33c3285876040518463ffffffff1660e01b8152600401611ebc939291906147f5565b6020604051808303816000875af1158015611edb573d6000803e3d6000fd5b505050506040513d601f19601f82011682018060405250810190611eff9190615089565b50505050505050565b600061080073ffffffffffffffffffffffffffffffffffffffff1663b6039895323460016040518463ffffffff1660e01b8152600401611f4a939291906146b6565b6020604051808303816000875af1158015611f69573d6000803e3d6000fd5b505050506040513d601f19601f82011682018060405250810190611f8d9190613c6d565b905080611fcf576040517f08c379a0000000000000000000000000000000000000000000000000000000008152600401611fc690614ec4565b60405180910390fd5b61080073ffffffffffffffffffffffffffffffffffffffff166353266bbb3084600134611ffc91906148ce565b6040518463ffffffff1660e01b815260040161201a939291906147f5565b6020604051808303816000875af1158015612039573d6000803e3d6000fd5b505050506040513d601f19601f8201168201806040525081019061205d9190613c6d565b505050565b600061080073ffffffffffffffffffffffffffffffffffffffff166361dc5c3b8585856040518463ffffffff1660e01b81526004016120a393929190615749565b6020604051808303816000875af11580156120c2573d6000803e3d6000fd5b505050506040513d601f19601f820116820180604052508101906120e69190613c6d565b905080612128576040517f08c379a000000000000000000000000000000000000000000000000000000000815260040161211f906157ed565b60405180910390fd5b50505050565b60606121386122a3565b61080073ffffffffffffffffffffffffffffffffffffffff166310a2851c878787876040518563ffffffff1660e01b81526004016121799493929190615883565b600060405180830381865afa158015612196573d6000803e3d6000fd5b505050506040513d6000823e3d601f19601f820116820180604052508101906121bf9190615c41565b9150915094509492505050565b60405180610160016040528060608152602001606081526020016000151581526020016000600381111561220357612202612520565b5b8152602001600081526020016000815260200160608152602001600060070b8152602001600060070b815260200160008152602001600081525090565b604051806040016040528060608152602001600081525090565b60405180606001604052806060815260200160608152602001606081525090565b6040518060800160405280606081526020016060815260200160608152602001606081525090565b604051806040016040528060608152602001600067ffffffffffffffff1681525090565b6000604051905090565b600080fd5b600080fd5b600073ffffffffffffffffffffffffffffffffffffffff82169050919050565b6000612306826122db565b9050919050565b612316816122fb565b811461232157600080fd5b50565b6000813590506123338161230d565b92915050565b600080fd5b600080fd5b600080fd5b60008083601f84011261235e5761235d612339565b5b8235905067ffffffffffffffff81111561237b5761237a61233e565b5b60208301915083602082028301111561239757612396612343565b5b9250929050565b6000819050919050565b6123b18161239e565b81146123bc57600080fd5b50565b6000813590506123ce816123a8565b92915050565b600080600080606085870312156123ee576123ed6122d1565b5b60006123fc87828801612324565b945050602085013567ffffffffffffffff81111561241d5761241c6122d6565b5b61242987828801612348565b9350935050604061243c878288016123bf565b91505092959194509250565b60006020828403121561245e5761245d6122d1565b5b600061246c84828501612324565b91505092915050565b600081519050919050565b600082825260208201905092915050565b60005b838110156124af578082015181840152602081019050612494565b60008484015250505050565b6000601f19601f8301169050919050565b60006124d782612475565b6124e18185612480565b93506124f1818560208601612491565b6124fa816124bb565b840191505092915050565b60008115159050919050565b61251a81612505565b82525050565b7f4e487b7100000000000000000000000000000000000000000000000000000000600052602160045260246000fd5b600481106125605761255f612520565b5b50565b60008190506125718261254f565b919050565b600061258182612563565b9050919050565b61259181612576565b82525050565b6125a08161239e565b82525050565b60008160070b9050919050565b6125bc816125a6565b82525050565b60006101608301600083015184820360008601526125e082826124cc565b915050602083015184820360208601526125fa82826124cc565b915050604083015161260f6040860182612511565b5060608301516126226060860182612588565b5060808301516126356080860182612597565b5060a083015161264860a0860182612597565b5060c083015184820360c086015261266082826124cc565b91505060e083015161267560e08601826125b3565b5061010083015161268a6101008601826125b3565b5061012083015161269f610120860182612597565b506101408301516126b4610140860182612597565b508091505092915050565b600060208201905081810360008301526126d981846125c2565b905092915050565b600080fd5b7f4e487b7100000000000000000000000000000000000000000000000000000000600052604160045260246000fd5b61271e826124bb565b810181811067ffffffffffffffff8211171561273d5761273c6126e6565b5b80604052505050565b60006127506122c7565b905061275c8282612715565b919050565b600067ffffffffffffffff82111561277c5761277b6126e6565b5b612785826124bb565b9050602081019050919050565b82818337600083830152505050565b60006127b46127af84612761565b612746565b9050828152602081018484840111156127d0576127cf6126e1565b5b6127db848285612792565b509392505050565b600082601f8301126127f8576127f7612339565b5b81356128088482602086016127a1565b91505092915050565b60008060006060848603121561282a576128296122d1565b5b600061283886828701612324565b935050602084013567ffffffffffffffff811115612859576128586122d6565b5b612865868287016127e3565b925050604084013567ffffffffffffffff811115612886576128856122d6565b5b612892868287016127e3565b9150509250925092565b6128a58161239e565b82525050565b600060408301600083015184820360008601526128c882826124cc565b91505060208301516128dd6020860182612597565b508091505092915050565b60006040820190506128fd600083018561289c565b818103602083015261290f81846128ab565b90509392505050565b600080600060608486031215612931576129306122d1565b5b600061293f86828701612324565b935050602084013567ffffffffffffffff8111156129605761295f6122d6565b5b61296c868287016127e3565b925050604061297d868287016123bf565b9150509250925092565b6000806040838503121561299e5761299d6122d1565b5b600083013567ffffffffffffffff8111156129bc576129bb6122d6565b5b6129c8858286016127e3565b92505060206129d9858286016123bf565b9150509250929050565b600080604083850312156129fa576129f96122d1565b5b6000612a0885828601612324565b925050602083013567ffffffffffffffff811115612a2957612a286122d6565b5b612a35858286016127e3565b9150509250929050565b600081519050919050565b600082825260208201905092915050565b6000819050602082019050919050565b600067ffffffffffffffff82169050919050565b612a8881612a6b565b82525050565b60c082016000820151612aa460008501826125b3565b506020820151612ab760208501826125b3565b506040820151612aca6040850182612597565b506060820151612add6060850182612597565b506080820151612af06080850182612a7f565b5060a0820151612b0360a08501826125b3565b50505050565b6000612b158383612a8e565b60c08301905092915050565b6000602082019050919050565b6000612b3982612a3f565b612b438185612a4a565b9350612b4e83612a5b565b8060005b83811015612b7f578151612b668882612b09565b9750612b7183612b21565b925050600181019050612b52565b5085935050505092915050565b60006060830160008301518482036000860152612ba982826124cc565b91505060208301518482036020860152612bc382826124cc565b91505060408301518482036040860152612bdd8282612b2e565b9150508091505092915050565b60006020820190508181036000830152612c048184612b8c565b905092915050565b60008060008060808587031215612c2657612c256122d1565b5b6000612c3487828801612324565b945050602085013567ffffffffffffffff811115612c5557612c546122d6565b5b612c61878288016127e3565b9350506040612c72878288016123bf565b925050606085013567ffffffffffffffff811115612c9357612c926122d6565b5b612c9f878288016127e3565b91505092959194509250565b600081519050919050565b600082825260208201905092915050565b6000819050602082019050919050565b608082016000820151612ced60008501826125b3565b506020820151612d0060208501826125b3565b506040820151612d136040850182612597565b506060820151612d266060850182612597565b50505050565b6000612d388383612cd7565b60808301905092915050565b6000602082019050919050565b6000612d5c82612cab565b612d668185612cb6565b9350612d7183612cc7565b8060005b83811015612da2578151612d898882612d2c565b9750612d9483612d44565b925050600181019050612d75565b5085935050505092915050565b60006080830160008301518482036000860152612dcc82826124cc565b91505060208301518482036020860152612de682826124cc565b91505060408301518482036040860152612e0082826124cc565b91505060608301518482036060860152612e1a8282612d51565b9150508091505092915050565b60006020820190508181036000830152612e418184612daf565b905092915050565b60008060008060808587031215612e6357612e626122d1565b5b6000612e7187828801612324565b945050602085013567ffffffffffffffff811115612e9257612e916122d6565b5b612e9e878288016127e3565b9350506040612eaf878288016123bf565b9250506060612ec0878288016123bf565b91505092959194509250565b600060208284031215612ee257612ee16122d1565b5b600082013567ffffffffffffffff811115612f0057612eff6122d6565b5b612f0c848285016127e3565b91505092915050565b6000602082019050612f2a600083018461289c565b92915050565b600080fd5b600060a08284031215612f4b57612f4a612f30565b5b81905092915050565b600060608284031215612f6a57612f69612f30565b5b81905092915050565b6000806000806000806101008789031215612f9157612f906122d1565b5b600087013567ffffffffffffffff811115612faf57612fae6122d6565b5b612fbb89828a01612f35565b9650506020612fcc89828a01612f54565b9550506080612fdd89828a016123bf565b94505060a0612fee89828a01612324565b93505060c087013567ffffffffffffffff81111561300f5761300e6122d6565b5b61301b89828a016127e3565b92505060e061302c89828a016123bf565b9150509295509295509295565b61304281612505565b82525050565b600060208201905061305d6000830184613039565b92915050565b6000806000806080858703121561307d5761307c6122d1565b5b600061308b87828801612324565b945050602085013567ffffffffffffffff8111156130ac576130ab6122d6565b5b6130b8878288016127e3565b935050604085013567ffffffffffffffff8111156130d9576130d86122d6565b5b6130e5878288016127e3565b92505060606130f6878288016123bf565b91505092959194509250565b6000819050919050565b61311581613102565b811461312057600080fd5b50565b6000813590506131328161310c565b92915050565b60008060008060808587031215613152576131516122d1565b5b600085013567ffffffffffffffff8111156131705761316f6122d6565b5b61317c87828801612f35565b945050602061318d87828801612324565b935050604061319e87828801613123565b92505060606131af87828801613123565b91505092959194509250565b600060a082840312156131d1576131d0612f30565b5b81905092915050565b600080604083850312156131f1576131f06122d1565b5b600083013567ffffffffffffffff81111561320f5761320e6122d6565b5b61321b858286016127e3565b925050602083013567ffffffffffffffff81111561323c5761323b6122d6565b5b613248858286016131bb565b9150509250929050565b600081519050919050565b600082825260208201905092915050565b6000819050602082019050919050565b600061016083016000830151848203600086015261329c82826124cc565b915050602083015184820360208601526132b682826124cc565b91505060408301516132cb6040860182612511565b5060608301516132de6060860182612588565b5060808301516132f16080860182612597565b5060a083015161330460a0860182612597565b5060c083015184820360c086015261331c82826124cc565b91505060e083015161333160e08601826125b3565b506101008301516133466101008601826125b3565b5061012083015161335b610120860182612597565b50610140830151613370610140860182612597565b508091505092915050565b6000613387838361327e565b905092915050565b6000602082019050919050565b60006133a782613252565b6133b1818561325d565b9350836020820285016133c38561326e565b8060005b858110156133ff57848403895281516133e0858261337b565b94506133eb8361338f565b925060208a019950506001810190506133c7565b50829750879550505050505092915050565b600081519050919050565b600082825260208201905092915050565b600061343882613411565b613442818561341c565b9350613452818560208601612491565b61345b816124bb565b840191505092915050565b60006040830160008301518482036000860152613483828261342d565b91505060208301516134986020860182612a7f565b508091505092915050565b600060408201905081810360008301526134bd818561339c565b905081810360208301526134d18184613466565b90509392505050565b600080600080608085870312156134f4576134f36122d1565b5b600061350287828801612324565b9450506020613513878288016123bf565b9350506040613524878288016123bf565b925050606085013567ffffffffffffffff811115613545576135446122d6565b5b613551878288016127e3565b91505092959194509250565b600080600060408486031215613576576135756122d1565b5b600061358486828701612324565b935050602084013567ffffffffffffffff8111156135a5576135a46122d6565b5b6135b186828701612348565b92509250509250925092565b600080fd5b600080fd5b600067ffffffffffffffff8211156135e2576135e16126e6565b5b6135eb826124bb565b9050602081019050919050565b600061360b613606846135c7565b612746565b905082815260208101848484011115613627576136266126e1565b5b613632848285612792565b509392505050565b600082601f83011261364f5761364e612339565b5b813561365f8482602086016135f8565b91505092915050565b61367181612a6b565b811461367c57600080fd5b50565b60008135905061368e81613668565b92915050565b61369d81612505565b81146136a857600080fd5b50565b6000813590506136ba81613694565b92915050565b600060a082840312156136d6576136d56135bd565b5b6136e060a0612746565b9050600082013567ffffffffffffffff811115613700576136ff6135c2565b5b61370c8482850161363a565b60008301525060206137208482850161367f565b60208301525060406137348482850161367f565b6040830152506060613748848285016136ab565b606083015250608061375c848285016136ab565b60808301525092915050565b60008060008060808587031215613782576137816122d1565b5b600061379087828801612324565b945050602085013567ffffffffffffffff8111156137b1576137b06122d6565b5b6137bd878288016127e3565b935050604085013567ffffffffffffffff8111156137de576137dd6122d6565b5b6137ea878288016127e3565b925050606085013567ffffffffffffffff81111561380b5761380a6122d6565b5b613817878288016136c0565b91505092959194509250565b600081519050919050565b600082825260208201905092915050565b6000819050602082019050919050565b6000608083016000830151848203600086015261386c82826124cc565b9150506020830151848203602086015261388682826124cc565b915050604083015184820360408601526138a082826124cc565b915050606083015184820360608601526138ba8282612d51565b9150508091505092915050565b600081519050919050565b600082825260208201905092915050565b6000819050602082019050919050565b60a0820160008201516139096000850182612cd7565b50602082015161391c6080850182612597565b50505050565b600061392e83836138f3565b60a08301905092915050565b6000602082019050919050565b6000613952826138c7565b61395c81856138d2565b9350613967836138e3565b8060005b8381101561399857815161397f8882613922565b975061398a8361393a565b92505060018101905061396b565b5085935050505092915050565b600060408301600083015184820360008601526139c2828261384f565b915050602083015184820360208601526139dc8282613947565b9150508091505092915050565b60006139f583836139a5565b905092915050565b6000602082019050919050565b6000613a1582613823565b613a1f818561382e565b935083602082028501613a318561383f565b8060005b85811015613a6d5784840389528151613a4e85826139e9565b9450613a59836139fd565b925060208a01995050600181019050613a35565b50829750879550505050505092915050565b60006040820190508181036000830152613a998185613a0a565b90508181036020830152613aad8184613466565b90509392505050565b613abf816122fb565b82525050565b600082825260208201905092915050565b6000819050919050565b6000613aec8385612480565b9350613af9838584612792565b613b02836124bb565b840190509392505050565b6000613b1a848484613ae0565b90509392505050565b600080fd5b600080fd5b600080fd5b60008083356001602003843603038112613b4f57613b4e613b2d565b5b83810192508235915060208301925067ffffffffffffffff821115613b7757613b76613b23565b5b600182023603831315613b8d57613b8c613b28565b5b509250929050565b6000602082019050919050565b6000613bae8385613ac5565b935083602084028501613bc084613ad6565b8060005b87811015613c06578484038952613bdb8284613b32565b613be6868284613b0d565b9550613bf184613b95565b935060208b019a505050600181019050613bc4565b50829750879450505050509392505050565b6000606082019050613c2d6000830187613ab6565b613c3a602083018661289c565b8181036040830152613c4d818486613ba2565b905095945050505050565b600081519050613c6781613694565b92915050565b600060208284031215613c8357613c826122d1565b5b6000613c9184828501613c58565b91505092915050565b600082825260208201905092915050565b7f4661696c656420746f20617070726f7665207374616b696e67206d6574686f6460008201527f7300000000000000000000000000000000000000000000000000000000000000602082015250565b6000613d07602183613c9a565b9150613d1282613cab565b604082019050919050565b60006020820190508181036000830152613d3681613cfa565b9050919050565b6000602082019050613d526000830184613ab6565b92915050565b6000613d6b613d6684612761565b612746565b905082815260208101848484011115613d8757613d866126e1565b5b613d92848285612491565b509392505050565b600082601f830112613daf57613dae612339565b5b8151613dbf848260208601613d58565b91505092915050565b60048110613dd557600080fd5b50565b600081519050613de781613dc8565b92915050565b600081519050613dfc816123a8565b92915050565b613e0b816125a6565b8114613e1657600080fd5b50565b600081519050613e2881613e02565b92915050565b60006101608284031215613e4557613e446135bd565b5b613e50610160612746565b9050600082015167ffffffffffffffff811115613e7057613e6f6135c2565b5b613e7c84828501613d9a565b600083015250602082015167ffffffffffffffff811115613ea057613e9f6135c2565b5b613eac84828501613d9a565b6020830152506040613ec084828501613c58565b6040830152506060613ed484828501613dd8565b6060830152506080613ee884828501613ded565b60808301525060a0613efc84828501613ded565b60a08301525060c082015167ffffffffffffffff811115613f2057613f1f6135c2565b5b613f2c84828501613d9a565b60c08301525060e0613f4084828501613e19565b60e083015250610100613f5584828501613e19565b61010083015250610120613f6b84828501613ded565b61012083015250610140613f8184828501613ded565b6101408301525092915050565b600060208284031215613fa457613fa36122d1565b5b600082015167ffffffffffffffff811115613fc257613fc16122d6565b5b613fce84828501613e2e565b91505092915050565b6000613fe282612475565b613fec8185613c9a565b9350613ffc818560208601612491565b614005816124bb565b840191505092915050565b60006040820190506140256000830185613ab6565b81810360208301526140378184613fd7565b90509392505050565b600081905092915050565b600061405682612475565b6140608185614040565b9350614070818560208601612491565b80840191505092915050565b6000614088828461404b565b915081905092915050565b7f64656c656761746563616c6c0000000000000000000000000000000000000000600082015250565b60006140c9600c83614040565b91506140d482614093565b600c82019050919050565b60006140ea826140bc565b9150819050919050565b600081905092915050565b600061410a82613411565b61411481856140f4565b9350614124818560208601612491565b80840191505092915050565b600061413c82846140ff565b915081905092915050565b7f6661696c65642064656c656761746563616c6c20746f20707265636f6d70696c60008201527f6500000000000000000000000000000000000000000000000000000000000000602082015250565b60006141a3602183613c9a565b91506141ae82614147565b604082019050919050565b600060208201905081810360008301526141d281614196565b9050919050565b6000604082840312156141ef576141ee6135bd565b5b6141f96040612746565b9050600082015167ffffffffffffffff811115614219576142186135c2565b5b61422584828501613d9a565b600083015250602061423984828501613ded565b60208301525092915050565b6000806040838503121561425c5761425b6122d1565b5b600061426a85828601613ded565b925050602083015167ffffffffffffffff81111561428b5761428a6122d6565b5b614297858286016141d9565b9150509250929050565b7f73746174696363616c6c00000000000000000000000000000000000000000000600082015250565b60006142d7600a83614040565b91506142e2826142a1565b600a82019050919050565b60006142f8826142ca565b9150819050919050565b7f6661696c65642073746174696363616c6c20746f20707265636f6d70696c6500600082015250565b6000614338601f83613c9a565b915061434382614302565b602082019050919050565b600060208201905081810360008301526143678161432b565b9050919050565b7f63616c6c00000000000000000000000000000000000000000000000000000000600082015250565b60006143a4600483614040565b91506143af8261436e565b600482019050919050565b60006143c582614397565b9150819050919050565b7f6661696c65642063616c6c20746f20707265636f6d70696c6500000000000000600082015250565b6000614405601983613c9a565b9150614410826143cf565b602082019050919050565b60006020820190508181036000830152614434816143f8565b9050919050565b7f63616c6c636f6465000000000000000000000000000000000000000000000000600082015250565b6000614471600883614040565b915061447c8261443b565b600882019050919050565b600061449282614464565b9150819050919050565b7f696e76616c69642063616c6c7479706500000000000000000000000000000000600082015250565b60006144d2601083613c9a565b91506144dd8261449c565b602082019050919050565b60006020820190508181036000830152614501816144c5565b9050919050565b600081549050919050565b60008190508160005260206000209050919050565b7f4e487b7100000000000000000000000000000000000000000000000000000000600052602260045260246000fd5b6000600282049050600182168061456f57607f821691505b60208210810361458257614581614528565b5b50919050565b60008190508160005260206000209050919050565b600081546145aa81614557565b6145b48186612480565b945060018216600081146145cf57600181146145e557614618565b60ff198316865281151560200286019350614618565b6145ee85614588565b60005b83811015614610578154818901526001820191506020810190506145f1565b808801955050505b50505092915050565b600061462d838361459d565b905092915050565b6000600182019050919050565b600061464d82614508565b6146578185613ac5565b93508360208202850161466985614513565b8060005b858110156146a4578484038952816146858582614621565b945061469083614635565b925060208a0199505060018101905061466d565b50829750879550505050505092915050565b60006060820190506146cb6000830186613ab6565b6146d8602083018561289c565b81810360408301526146ea8184614642565b9050949350505050565b7f64656c65676174696f6e20617070726f76616c206661696c6564000000000000600082015250565b600061472a601a83613c9a565b9150614735826146f4565b602082019050919050565b600060208201905081810360008301526147598161471d565b9050919050565b60006040820190506147756000830185613ab6565b614782602083018461289c565b9392505050565b7f7472616e73666572206661696c65640000000000000000000000000000000000600082015250565b60006147bf600f83613c9a565b91506147ca82614789565b602082019050919050565b600060208201905081810360008301526147ee816147b2565b9050919050565b600060608201905061480a6000830186613ab6565b818103602083015261481c8185613fd7565b905061482b604083018461289c565b949350505050565b7f5374616b696e6720417070726f7665206661696c656400000000000000000000600082015250565b6000614869601683613c9a565b915061487482614833565b602082019050919050565b600060208201905081810360008301526148988161485c565b9050919050565b7f4e487b7100000000000000000000000000000000000000000000000000000000600052601160045260246000fd5b60006148d98261239e565b91506148e48361239e565b92508282019050808211156148fc576148fb61489f565b5b92915050565b600067ffffffffffffffff82111561491d5761491c6126e6565b5b602082029050602081019050919050565b60008151905061493d81613668565b92915050565b600060c08284031215614959576149586135bd565b5b61496360c0612746565b9050600061497384828501613e19565b600083015250602061498784828501613e19565b602083015250604061499b84828501613ded565b60408301525060606149af84828501613ded565b60608301525060806149c38482850161492e565b60808301525060a06149d784828501613e19565b60a08301525092915050565b60006149f66149f184614902565b612746565b90508083825260208201905060c08402830185811115614a1957614a18612343565b5b835b81811015614a425780614a2e8882614943565b84526020840193505060c081019050614a1b565b5050509392505050565b600082601f830112614a6157614a60612339565b5b8151614a718482602086016149e3565b91505092915050565b600060608284031215614a9057614a8f6135bd565b5b614a9a6060612746565b9050600082015167ffffffffffffffff811115614aba57614ab96135c2565b5b614ac684828501613d9a565b600083015250602082015167ffffffffffffffff811115614aea57614ae96135c2565b5b614af684828501613d9a565b602083015250604082015167ffffffffffffffff811115614b1a57614b196135c2565b5b614b2684828501614a4c565b60408301525092915050565b600060208284031215614b4857614b476122d1565b5b600082015167ffffffffffffffff811115614b6657614b656122d6565b5b614b7284828501614a7a565b91505092915050565b6000606082019050614b906000830186613ab6565b8181036020830152614ba28185613fd7565b90508181036040830152614bb68184613fd7565b9050949350505050565b600067ffffffffffffffff821115614bdb57614bda6126e6565b5b602082029050602081019050919050565b600060808284031215614c0257614c016135bd565b5b614c0c6080612746565b90506000614c1c84828501613e19565b6000830152506020614c3084828501613e19565b6020830152506040614c4484828501613ded565b6040830152506060614c5884828501613ded565b60608301525092915050565b6000614c77614c7284614bc0565b612746565b90508083825260208201905060808402830185811115614c9a57614c99612343565b5b835b81811015614cc35780614caf8882614bec565b845260208401935050608081019050614c9c565b5050509392505050565b600082601f830112614ce257614ce1612339565b5b8151614cf2848260208601614c64565b91505092915050565b600060808284031215614d1157614d106135bd565b5b614d1b6080612746565b9050600082015167ffffffffffffffff811115614d3b57614d3a6135c2565b5b614d4784828501613d9a565b600083015250602082015167ffffffffffffffff811115614d6b57614d6a6135c2565b5b614d7784828501613d9a565b602083015250604082015167ffffffffffffffff811115614d9b57614d9a6135c2565b5b614da784828501613d9a565b604083015250606082015167ffffffffffffffff811115614dcb57614dca6135c2565b5b614dd784828501614ccd565b60608301525092915050565b600060208284031215614df957614df86122d1565b5b600082015167ffffffffffffffff811115614e1757614e166122d6565b5b614e2384828501614cfb565b91505092915050565b6000608082019050614e416000830187613ab6565b8181036020830152614e538186613fd7565b9050614e62604083018561289c565b614e6f606083018461289c565b95945050505050565b7f44656c656761746520417070726f7665206661696c6564000000000000000000600082015250565b6000614eae601783613c9a565b9150614eb982614e78565b602082019050919050565b60006020820190508181036000830152614edd81614ea1565b9050919050565b600060a08301614ef76000840184613b32565b8583036000870152614f0a838284613ae0565b92505050614f1b6020840184613b32565b8583036020870152614f2e838284613ae0565b92505050614f3f6040840184613b32565b8583036040870152614f52838284613ae0565b92505050614f636060840184613b32565b8583036060870152614f76838284613ae0565b92505050614f876080840184613b32565b8583036080870152614f9a838284613ae0565b925050508091505092915050565b6000614fb760208401846123bf565b905092915050565b60608201614fd06000830183614fa8565b614fdd6000850182612597565b50614feb6020830183614fa8565b614ff86020850182612597565b506150066040830183614fa8565b6150136040850182612597565b50505050565b60006101008201905081810360008301526150348189614ee4565b90506150436020830188614fbf565b615050608083018761289c565b61505d60a0830186613ab6565b81810360c083015261506f8185613fd7565b905061507e60e083018461289c565b979650505050505050565b60006020828403121561509f5761509e6122d1565b5b60006150ad84828501613e19565b91505092915050565b60006080820190506150cb6000830187613ab6565b81810360208301526150dd8186613fd7565b905081810360408301526150f18185613fd7565b9050615100606083018461289c565b95945050505050565b61511281613102565b82525050565b600060808201905081810360008301526151328187614ee4565b90506151416020830186613ab6565b61514e6040830185615109565b61515b6060830184615109565b95945050505050565b6000808335600160200384360303811261518157615180613b2d565b5b83810192508235915060208301925067ffffffffffffffff8211156151a9576151a8613b23565b5b6001820236038313156151bf576151be613b28565b5b509250929050565b60006151d3838561341c565b93506151e0838584612792565b6151e9836124bb565b840190509392505050565b6000615203602084018461367f565b905092915050565b600061521a60208401846136ab565b905092915050565b600060a083016152356000840184615164565b85830360008701526152488382846151c7565b9250505061525960208401846151f4565b6152666020860182612a7f565b5061527460408401846151f4565b6152816040860182612a7f565b5061528f606084018461520b565b61529c6060860182612511565b506152aa608084018461520b565b6152b76080860182612511565b508091505092915050565b600060408201905081810360008301526152dc8185613fd7565b905081810360208301526152f08184615222565b90509392505050565b600067ffffffffffffffff821115615314576153136126e6565b5b602082029050602081019050919050565b6000615338615333846152f9565b612746565b9050808382526020820190506020840283018581111561535b5761535a612343565b5b835b818110156153a257805167ffffffffffffffff8111156153805761537f612339565b5b80860161538d8982613e2e565b8552602085019450505060208101905061535d565b5050509392505050565b600082601f8301126153c1576153c0612339565b5b81516153d1848260208601615325565b91505092915050565b60006153ed6153e8846135c7565b612746565b905082815260208101848484011115615409576154086126e1565b5b615414848285612491565b509392505050565b600082601f83011261543157615430612339565b5b81516154418482602086016153da565b91505092915050565b6000604082840312156154605761545f6135bd565b5b61546a6040612746565b9050600082015167ffffffffffffffff81111561548a576154896135c2565b5b6154968482850161541c565b60008301525060206154aa8482850161492e565b60208301525092915050565b600080604083850312156154cd576154cc6122d1565b5b600083015167ffffffffffffffff8111156154eb576154ea6122d6565b5b6154f7858286016153ac565b925050602083015167ffffffffffffffff811115615518576155176122d6565b5b6155248582860161544a565b9150509250929050565b60006060820190506155436000830186613ab6565b6155506020830185613ab6565b81810360408301526155628184613fd7565b9050949350505050565b600060208284031215615582576155816122d1565b5b600061559084828501613ded565b91505092915050565b7f4e487b7100000000000000000000000000000000000000000000000000000000600052603260045260246000fd5b600081519050919050565b6000819050602082019050919050565b60006155ef83836124cc565b905092915050565b6000602082019050919050565b600061560f826155c8565b6156198185613ac5565b93508360208202850161562b856155d3565b8060005b85811015615667578484038952815161564885826155e3565b9450615653836155f7565b925060208a0199505060018101905061562f565b50829750879550505050505092915050565b600060608201905061568e6000830186613ab6565b61569b602083018561289c565b81810360408301526156ad8184615604565b9050949350505050565b7f6661696c656420746f20617070726f766520756e64656c65676174696f6e206d60008201527f6574686f64000000000000000000000000000000000000000000000000000000602082015250565b6000615713602583613c9a565b915061571e826156b7565b604082019050919050565b6000602082019050818103600083015261574281615706565b9050919050565b600060408201905061575e6000830186613ab6565b8181036020830152615771818486613ba2565b9050949350505050565b7f4661696c656420746f207265766f6b6520617070726f76616c20666f7220737460008201527f616b696e67206d6574686f647300000000000000000000000000000000000000602082015250565b60006157d7602d83613c9a565b91506157e28261577b565b604082019050919050565b60006020820190508181036000830152615806816157ca565b9050919050565b600060a083016000830151848203600086015261582a828261342d565b915050602083015161583f6020860182612a7f565b5060408301516158526040860182612a7f565b5060608301516158656060860182612511565b5060808301516158786080860182612511565b508091505092915050565b60006080820190506158986000830187613ab6565b81810360208301526158aa8186613fd7565b905081810360408301526158be8185613fd7565b905081810360608301526158d2818461580d565b905095945050505050565b600067ffffffffffffffff8211156158f8576158f76126e6565b5b602082029050602081019050919050565b60006080828403121561591f5761591e6135bd565b5b6159296080612746565b9050600082015167ffffffffffffffff811115615949576159486135c2565b5b61595584828501613d9a565b600083015250602082015167ffffffffffffffff811115615979576159786135c2565b5b61598584828501613d9a565b602083015250604082015167ffffffffffffffff8111156159a9576159a86135c2565b5b6159b584828501613d9a565b604083015250606082015167ffffffffffffffff8111156159d9576159d86135c2565b5b6159e584828501614ccd565b60608301525092915050565b600067ffffffffffffffff821115615a0c57615a0b6126e6565b5b602082029050602081019050919050565b600060a08284031215615a3357615a326135bd565b5b615a3d6040612746565b90506000615a4d84828501614bec565b6000830152506080615a6184828501613ded565b60208301525092915050565b6000615a80615a7b846159f1565b612746565b90508083825260208201905060a08402830185811115615aa357615aa2612343565b5b835b81811015615acc5780615ab88882615a1d565b84526020840193505060a081019050615aa5565b5050509392505050565b600082601f830112615aeb57615aea612339565b5b8151615afb848260208601615a6d565b91505092915050565b600060408284031215615b1a57615b196135bd565b5b615b246040612746565b9050600082015167ffffffffffffffff811115615b4457615b436135c2565b5b615b5084828501615909565b600083015250602082015167ffffffffffffffff811115615b7457615b736135c2565b5b615b8084828501615ad6565b60208301525092915050565b6000615b9f615b9a846158dd565b612746565b90508083825260208201905060208402830185811115615bc257615bc1612343565b5b835b81811015615c0957805167ffffffffffffffff811115615be757615be6612339565b5b808601615bf48982615b04565b85526020850194505050602081019050615bc4565b5050509392505050565b600082601f830112615c2857615c27612339565b5b8151615c38848260208601615b8c565b91505092915050565b60008060408385031215615c5857615c576122d1565b5b600083015167ffffffffffffffff811115615c7657615c756122d6565b5b615c8285828601615c13565b925050602083015167ffffffffffffffff811115615ca357615ca26122d6565b5b615caf8582860161544a565b915050925092905056fe2f636f736d6f732e7374616b696e672e763162657461312e4d7367556e64656c6567617465a2646970667358221220869745a83df35e33e4ef5e71f87905ee5baef43e403b5c8fe7ef7c045634645564736f6c634300081300332f636f736d6f732e7374616b696e672e763162657461312e4d736744656c6567617465",
  "linkReferences": {},
  "deployedLinkReferences": {}
}