{
  "_format": "hh-sol-artifact-1",
  "contractName": "Counter",
  "sourceName": "solidity/precompiles/testutil/contracts/Counter.sol",
  "abi": [
    {
      "anonymous": false,
      "inputs": [
        {
          "indexed": false,
          "internalType": "uint256",
          "name": "counter",
          "type": "uint256"
        }
      ],
      "name": "Added",
      "type": "event"
    },
    {
      "anonymous": false,
      "inputs": [
        {
          "indexed": false,
          "internalType": "uint256",
          "name": "counter",
          "type": "uint256"
        }
      ],
      "name": "Changed",
      "type": "event"
    },
    {
      "inputs": [],
      "name": "add",
      "outputs": [],
      "stateMutability": "nonpayable",
      "type": "function"
    },
    {
      "inputs": [],
      "name": "getCounter",
      "outputs": [
        {
          "internalType": "uint256",
          "name": "",
          "type": "uint256"
        }
      ],
      "stateMutability": "view",
      "type": "function"
    },
    {
      "inputs": [],
      "name": "subtract",
      "outputs": [],
      "stateMutability": "nonpayable",
      "type": "function"
    }
  ],
  "bytecode": "0x60806040526000805534801561001457600080fd5b50610397806100246000396000f3fe608060405234801561001057600080fd5b50600436106100415760003560e01c80634f2be91f146100465780636deebae3146100505780638ada066e1461005a575b600080fd5b61004e610078565b005b610058610103565b005b6100626101d2565b60405161006f91906101f4565b60405180910390f35b60008081548092919061008a9061023e565b91905055507f64a55044d1f2eddebe1b90e8e2853e8e96931cefadbfa0b2ceb34bee360619416000546040516100c091906101f4565b60405180910390a17f938d2ee5be9cfb0f7270ee2eff90507e94b37625d9d2b3a61c97d30a4560b8296000546040516100f991906101f4565b60405180910390a1565b60008054116040518060400160405280600f81526020017f434f554e5445525f544f4f5f4c4f5700000000000000000000000000000000008152509061017f576040517f08c379a00000000000000000000000000000000000000000000000000000000081526004016101769190610316565b60405180910390fd5b5060008081548092919061019290610338565b91905055507f938d2ee5be9cfb0f7270ee2eff90507e94b37625d9d2b3a61c97d30a4560b8296000546040516101c891906101f4565b60405180910390a1565b60008054905090565b6000819050919050565b6101ee816101db565b82525050565b600060208201905061020960008301846101e5565b92915050565b7f4e487b7100000000000000000000000000000000000000000000000000000000600052601160045260246000fd5b6000610249826101db565b91507fffffffffffffffffffffffffffffffffffffffffffffffffffffffffffffffff820361027b5761027a61020f565b5b600182019050919050565b600081519050919050565b600082825260208201905092915050565b60005b838110156102c05780820151818401526020810190506102a5565b60008484015250505050565b6000601f19601f8301169050919050565b60006102e882610286565b6102f28185610291565b93506103028185602086016102a2565b61030b816102cc565b840191505092915050565b6000602082019050818103600083015261033081846102dd565b905092915050565b6000610343826101db565b9150600082036103565761035561020f565b5b60018203905091905056fea264697066735822122074fa2d06189fa80d6dad60c419418caf51543918570c195ffca7cee18716e5c064736f6c63430008140033",
  "linkReferences": {},
  "deployedLinkReferences": {}
}