{
  "_format": "hh-sol-artifact-1",
  "contractName": "DistributionCaller",
  "sourceName": "solidity/precompiles/testutil/contracts/DistributionCaller.sol",
  "abi": [
    {
      "inputs": [],
      "name": "counter",
      "outputs": [
        {
          "internalType": "int64",
          "name": "",
          "type": "int64"
        }
      ],
      "stateMutability": "view",
      "type": "function"
    },
    {
      "inputs": [
        {
          "internalType": "address",
          "name": "_delAddr",
          "type": "address"
        },
        {
          "internalType": "string",
          "name": "_withdrawAddr",
          "type": "string"
        }
      ],
      "name": "delegateCallSetWithdrawAddress",
      "outputs": [],
      "stateMutability": "nonpayable",
      "type": "function"
    },
    {
      "inputs": [],
      "name": "deposit",
      "outputs": [],
      "stateMutability": "payable",
      "type": "function"
    },
    {
      "inputs": [
        {
          "internalType": "address",
          "name": "_delAddr",
          "type": "address"
        },
        {
          "internalType": "string",
          "name": "_valAddr",
          "type": "string"
        }
      ],
      "name": "getDelegationRewards",
      "outputs": [
        {
          "components": [
            {
              "internalType": "string",
              "name": "denom",
              "type": "string"
            },
            {
              "internalType": "uint256",
              "name": "amount",
              "type": "uint256"
            },
            {
              "internalType": "uint8",
              "name": "precision",
              "type": "uint8"
            }
          ],
          "internalType": "struct DecCoin[]",
          "name": "",
          "type": "tuple[]"
        }
      ],
      "stateMutability": "view",
      "type": "function"
    },
    {
      "inputs": [
        {
          "internalType": "address",
          "name": "_delAddr",
          "type": "address"
        }
      ],
      "name": "getDelegationTotalRewards",
      "outputs": [
        {
          "components": [
            {
              "internalType": "string",
              "name": "validatorAddress",
              "type": "string"
            },
            {
              "components": [
                {
                  "internalType": "string",
                  "name": "denom",
                  "type": "string"
                },
                {
                  "internalType": "uint256",
                  "name": "amount",
                  "type": "uint256"
                },
                {
                  "internalType": "uint8",
                  "name": "precision",
                  "type": "uint8"
                }
              ],
              "internalType": "struct DecCoin[]",
              "name": "reward",
              "type": "tuple[]"
            }
          ],
          "internalType": "struct DelegationDelegatorReward[]",
          "name": "rewards",
          "type": "tuple[]"
        },
        {
          "components": [
            {
              "internalType": "string",
              "name": "denom",
              "type": "string"
            },
            {
              "internalType": "uint256",
              "name": "amount",
              "type": "uint256"
            },
            {
              "internalType": "uint8",
              "name": "precision",
              "type": "uint8"
            }
          ],
          "internalType": "struct DecCoin[]",
          "name": "total",
          "type": "tuple[]"
        }
      ],
      "stateMutability": "view",
      "type": "function"
    },
    {
      "inputs": [
        {
          "internalType": "address",
          "name": "_delAddr",
          "type": "address"
        }
      ],
      "name": "getDelegatorValidators",
      "outputs": [
        {
          "internalType": "string[]",
          "name": "",
          "type": "string[]"
        }
      ],
      "stateMutability": "view",
      "type": "function"
    },
    {
      "inputs": [
        {
          "internalType": "address",
          "name": "_delAddr",
          "type": "address"
        }
      ],
      "name": "getDelegatorWithdrawAddress",
      "outputs": [
        {
          "internalType": "string",
          "name": "",
          "type": "string"
        }
      ],
      "stateMutability": "view",
      "type": "function"
    },
    {
      "inputs": [
        {
          "internalType": "string",
          "name": "_valAddr",
          "type": "string"
        }
      ],
      "name": "getValidatorCommission",
      "outputs": [
        {
          "components": [
            {
              "internalType": "string",
              "name": "denom",
              "type": "string"
            },
            {
              "internalType": "uint256",
              "name": "amount",
              "type": "uint256"
            },
            {
              "internalType": "uint8",
              "name": "precision",
              "type": "uint8"
            }
          ],
          "internalType": "struct DecCoin[]",
          "name": "",
          "type": "tuple[]"
        }
      ],
      "stateMutability": "view",
      "type": "function"
    },
    {
      "inputs": [
        {
          "internalType": "string",
          "name": "_valAddr",
          "type": "string"
        }
      ],
      "name": "getValidatorDistributionInfo",
      "outputs": [
        {
          "components": [
            {
              "internalType": "string",
              "name": "operatorAddress",
              "type": "string"
            },
            {
              "components": [
                {
                  "internalType": "string",
                  "name": "denom",
                  "type": "string"
                },
                {
                  "internalType": "uint256",
                  "name": "amount",
                  "type": "uint256"
                },
                {
                  "internalType": "uint8",
                  "name": "precision",
                  "type": "uint8"
                }
              ],
              "internalType": "struct DecCoin[]",
              "name": "selfBondRewards",
              "type": "tuple[]"
            },
            {
              "components": [
                {
                  "internalType": "string",
                  "name": "denom",
                  "type": "string"
                },
                {
                  "internalType": "uint256",
                  "name": "amount",
                  "type": "uint256"
                },
                {
                  "internalType": "uint8",
                  "name": "precision",
                  "type": "uint8"
                }
              ],
              "internalType": "struct DecCoin[]",
              "name": "commission",
              "type": "tuple[]"
            }
          ],
          "internalType": "struct ValidatorDistributionInfo",
          "name": "",
          "type": "tuple"
        }
      ],
      "stateMutability": "view",
      "type": "function"
    },
    {
      "inputs": [
        {
          "internalType": "string",
          "name": "_valAddr",
          "type": "string"
        }
      ],
      "name": "getValidatorOutstandingRewards",
      "outputs": [
        {
          "components": [
            {
              "internalType": "string",
              "name": "denom",
              "type": "string"
            },
            {
              "internalType": "uint256",
              "name": "amount",
              "type": "uint256"
            },
            {
              "internalType": "uint8",
              "name": "precision",
              "type": "uint8"
            }
          ],
          "internalType": "struct DecCoin[]",
          "name": "",
          "type": "tuple[]"
        }
      ],
      "stateMutability": "view",
      "type": "function"
    },
    {
      "inputs": [
        {
          "internalType": "string",
          "name": "_valAddr",
          "type": "string"
        },
        {
          "internalType": "uint64",
          "name": "_startingHeight",
          "type": "uint64"
        },
        {
          "internalType": "uint64",
          "name": "_endingHeight",
          "type": "uint64"
        },
        {
          "components": [
            {
              "internalType": "bytes",
              "name": "key",
              "type": "bytes"
            },
            {
              "internalType": "uint64",
              "name": "offset",
              "type": "uint64"
            },
            {
              "internalType": "uint64",
              "name": "limit",
              "type": "uint64"
            },
            {
              "internalType": "bool",
              "name": "countTotal",
              "type": "bool"
            },
            {
              "internalType": "bool",
              "name": "reverse",
              "type": "bool"
            }
          ],
          "internalType": "struct PageRequest",
          "name": "pageRequest",
          "type": "tuple"
        }
      ],
      "name": "getValidatorSlashes",
      "outputs": [
        {
          "components": [
            {
              "internalType": "uint64",
              "name": "validatorPeriod",
              "type": "uint64"
            },
            {
              "components": [
                {
                  "internalType": "uint256",
                  "name": "value",
                  "type": "uint256"
                },
                {
                  "internalType": "uint8",
                  "name": "precision",
                  "type": "uint8"
                }
              ],
              "internalType": "struct Dec",
              "name": "fraction",
              "type": "tuple"
            }
          ],
          "internalType": "struct ValidatorSlashEvent[]",
          "name": "",
          "type": "tuple[]"
        },
        {
          "components": [
            {
              "internalType": "bytes",
              "name": "nextKey",
              "type": "bytes"
            },
            {
              "internalType": "uint64",
              "name": "total",
              "type": "uint64"
            }
          ],
          "internalType": "struct PageResponse",
          "name": "",
          "type": "tuple"
        }
      ],
      "stateMutability": "view",
      "type": "function"
    },
    {
      "inputs": [
        {
          "internalType": "address payable",
          "name": "_delAddr",
          "type": "address"
        },
        {
          "internalType": "address payable",
          "name": "_withdrawer",
          "type": "address"
        },
        {
          "internalType": "string",
          "name": "_valAddr",
          "type": "string"
        },
        {
          "internalType": "bool",
          "name": "_after",
          "type": "bool"
        }
      ],
      "name": "revertWithdrawRewardsAndTransfer",
      "outputs": [],
      "stateMutability": "nonpayable",
      "type": "function"
    },
    {
      "inputs": [
        {
          "internalType": "address",
          "name": "_delAddr",
          "type": "address"
        }
      ],
      "name": "staticCallGetWithdrawAddress",
      "outputs": [
        {
          "internalType": "bytes",
          "name": "",
          "type": "bytes"
        }
      ],
      "stateMutability": "view",
      "type": "function"
    },
    {
      "inputs": [
        {
          "internalType": "address",
          "name": "_delAddr",
          "type": "address"
        },
        {
          "internalType": "string",
          "name": "_withdrawAddr",
          "type": "string"
        }
      ],
      "name": "staticCallSetWithdrawAddress",
      "outputs": [],
      "stateMutability": "view",
      "type": "function"
    },
    {
      "inputs": [
        {
          "internalType": "address",
          "name": "_delAddr",
          "type": "address"
        },
        {
          "internalType": "uint32",
          "name": "_maxRetrieve",
          "type": "uint32"
        }
      ],
      "name": "testClaimRewards",
      "outputs": [
        {
          "internalType": "bool",
          "name": "success",
          "type": "bool"
        }
      ],
      "stateMutability": "nonpayable",
      "type": "function"
    },
    {
      "inputs": [
        {
          "internalType": "address payable",
          "name": "_delAddr",
          "type": "address"
        },
        {
          "internalType": "uint32",
          "name": "_maxRetrieve",
          "type": "uint32"
        },
        {
          "internalType": "bool",
          "name": "_before",
          "type": "bool"
        },
        {
          "internalType": "bool",
          "name": "_after",
          "type": "bool"
        }
      ],
      "name": "testClaimRewardsWithTransfer",
      "outputs": [],
      "stateMutability": "nonpayable",
      "type": "function"
    },
    {
      "inputs": [
        {
          "internalType": "address",
          "name": "depositor",
          "type": "address"
        },
        {
          "internalType": "uint256",
          "name": "amount",
          "type": "uint256"
        }
      ],
      "name": "testFundCommunityPool",
      "outputs": [
        {
          "internalType": "bool",
          "name": "success",
          "type": "bool"
        }
      ],
      "stateMutability": "nonpayable",
      "type": "function"
    },
    {
      "inputs": [
        {
          "internalType": "address payable",
          "name": "depositor",
          "type": "address"
        },
        {
          "internalType": "uint256",
          "name": "amount",
          "type": "uint256"
        },
        {
          "internalType": "bool",
          "name": "_before",
          "type": "bool"
        },
        {
          "internalType": "bool",
          "name": "_after",
          "type": "bool"
        }
      ],
      "name": "testFundCommunityPoolWithTransfer",
      "outputs": [],
      "stateMutability": "nonpayable",
      "type": "function"
    },
    {
      "inputs": [
        {
          "internalType": "string",
          "name": "_withdrawAddr",
          "type": "string"
        },
        {
          "internalType": "address",
          "name": "_delAddr",
          "type": "address"
        },
        {
          "internalType": "string",
          "name": "_valAddr",
          "type": "string"
        }
      ],
      "name": "testRevertState",
      "outputs": [
        {
          "components": [
            {
              "internalType": "string",
              "name": "denom",
              "type": "string"
            },
            {
              "internalType": "uint256",
              "name": "amount",
              "type": "uint256"
            }
          ],
          "internalType": "struct Coin[]",
          "name": "",
          "type": "tuple[]"
        }
      ],
      "stateMutability": "nonpayable",
      "type": "function"
    },
    {
      "inputs": [
        {
          "internalType": "address",
          "name": "_delAddr",
          "type": "address"
        },
        {
          "internalType": "string",
          "name": "_withdrawAddr",
          "type": "string"
        }
      ],
      "name": "testSetWithdrawAddress",
      "outputs": [
        {
          "internalType": "bool",
          "name": "",
          "type": "bool"
        }
      ],
      "stateMutability": "nonpayable",
      "type": "function"
    },
    {
      "inputs": [
        {
          "internalType": "string",
          "name": "_withdrawAddr",
          "type": "string"
        }
      ],
      "name": "testSetWithdrawAddressFromContract",
      "outputs": [
        {
          "internalType": "bool",
          "name": "",
          "type": "bool"
        }
      ],
      "stateMutability": "nonpayable",
      "type": "function"
    },
    {
      "inputs": [
        {
          "internalType": "address",
          "name": "_delAddr",
          "type": "address"
        },
        {
          "internalType": "string",
          "name": "_valAddr",
          "type": "string"
        }
      ],
      "name": "testWithdrawDelegatorRewards",
      "outputs": [
        {
          "components": [
            {
              "internalType": "string",
              "name": "denom",
              "type": "string"
            },
            {
              "internalType": "uint256",
              "name": "amount",
              "type": "uint256"
            }
          ],
          "internalType": "struct Coin[]",
          "name": "",
          "type": "tuple[]"
        }
      ],
      "stateMutability": "nonpayable",
      "type": "function"
    },
    {
      "inputs": [
        {
          "internalType": "string",
          "name": "_valAddr",
          "type": "string"
        }
      ],
      "name": "testWithdrawDelegatorRewardsFromContract",
      "outputs": [
        {
          "components": [
            {
              "internalType": "string",
              "name": "denom",
              "type": "string"
            },
            {
              "internalType": "uint256",
              "name": "amount",
              "type": "uint256"
            }
          ],
          "internalType": "struct Coin[]",
          "name": "",
          "type": "tuple[]"
        }
      ],
      "stateMutability": "nonpayable",
      "type": "function"
    },
    {
      "inputs": [
        {
          "internalType": "address payable",
          "name": "_delAddr",
          "type": "address"
        },
        {
          "internalType": "string",
          "name": "_valAddr",
          "type": "string"
        },
        {
          "internalType": "bool",
          "name": "_before",
          "type": "bool"
        },
        {
          "internalType": "bool",
          "name": "_after",
          "type": "bool"
        }
      ],
      "name": "testWithdrawDelegatorRewardsWithTransfer",
      "outputs": [
        {
          "components": [
            {
              "internalType": "string",
              "name": "denom",
              "type": "string"
            },
            {
              "internalType": "uint256",
              "name": "amount",
              "type": "uint256"
            }
          ],
          "internalType": "struct Coin[]",
          "name": "coins",
          "type": "tuple[]"
        }
      ],
      "stateMutability": "nonpayable",
      "type": "function"
    },
    {
      "inputs": [
        {
          "internalType": "string",
          "name": "_valAddr",
          "type": "string"
        }
      ],
      "name": "testWithdrawValidatorCommission",
      "outputs": [
        {
          "components": [
            {
              "internalType": "string",
              "name": "denom",
              "type": "string"
            },
            {
              "internalType": "uint256",
              "name": "amount",
              "type": "uint256"
            }
          ],
          "internalType": "struct Coin[]",
          "name": "",
          "type": "tuple[]"
        }
      ],
      "stateMutability": "nonpayable",
      "type": "function"
    },
    {
      "inputs": [
        {
          "internalType": "string",
          "name": "_valAddr",
          "type": "string"
        },
        {
          "internalType": "address payable",
          "name": "_withdrawer",
          "type": "address"
        },
        {
          "internalType": "bool",
          "name": "_before",
          "type": "bool"
        },
        {
          "internalType": "bool",
          "name": "_after",
          "type": "bool"
        }
      ],
      "name": "testWithdrawValidatorCommissionWithTransfer",
      "outputs": [
        {
          "components": [
            {
              "internalType": "string",
              "name": "denom",
              "type": "string"
            },
            {
              "internalType": "uint256",
              "name": "amount",
              "type": "uint256"
            }
          ],
          "internalType": "struct Coin[]",
          "name": "coins",
          "type": "tuple[]"
        }
      ],
      "stateMutability": "nonpayable",
      "type": "function"
    },
    {
      "inputs": [
        {
          "internalType": "address",
          "name": "_delAddr",
          "type": "address"
        },
        {
          "internalType": "string",
          "name": "_valAddr",
          "type": "string"
        }
      ],
      "name": "withdrawDelegatorRewardsAndRevert",
      "outputs": [
        {
          "components": [
            {
              "internalType": "string",
              "name": "denom",
              "type": "string"
            },
            {
              "internalType": "uint256",
              "name": "amount",
              "type": "uint256"
            }
          ],
          "internalType": "struct Coin[]",
          "name": "coins",
          "type": "tuple[]"
        }
      ],
      "stateMutability": "nonpayable",
      "type": "function"
    }
  ],
  "bytecode": "0x608060405234801561001057600080fd5b5061477b806100206000396000f3fe60806040526004361061019c5760003560e01c80637c9db0bb116100ec578063b6a216ae1161008a578063d0e30db011610064578063d0e30db0146106a7578063d3f831be146106b1578063e0421e39146106ee578063e236c7a61461072b5761019c565b8063b6a216ae146105f0578063c7804bb51461062d578063cb85aa0a1461066a5761019c565b806398194593116100c657806398194593146104fc578063ad5c4cdd14610539578063adb2378514610576578063b2d17883146105b35761019c565b80637c9db0bb1461044457806388b2d58114610481578063963516e4146104bf5761019c565b806346e16d34116101595780636cc9ac8a116101335780636cc9ac8a146103785780636f669da4146103a157806378a5dfd1146103de578063796b96d21461041b5761019c565b806346e16d34146102d3578063613d4de81461031057806361bc221a1461034d5761019c565b80630183e4b4146101a157806301b68000146101ca5780630c05e9e4146102075780631b05020714610244578063296c60aa1461026d5780632d0ee16a14610296575b600080fd5b3480156101ad57600080fd5b506101c860048036038101906101c391906123de565b610769565b005b3480156101d657600080fd5b506101f160048036038101906101ec9190612483565b610a96565b6040516101fe9190612540565b60405180910390f35b34801561021357600080fd5b5061022e60048036038101906102299190612697565b610bde565b60405161023b91906128da565b60405180910390f35b34801561025057600080fd5b5061026b600480360381019061026691906128fc565b610c6e565b005b34801561027957600080fd5b50610294600480360381019061028f919061297f565b610df4565b005b3480156102a257600080fd5b506102bd60048036038101906102b89190612697565b610f35565b6040516102ca9190612ada565b60405180910390f35b3480156102df57600080fd5b506102fa60048036038101906102f5919061297f565b610fc3565b6040516103079190612b0b565b60405180910390f35b34801561031c57600080fd5b5061033760048036038101906103329190612b26565b61104d565b6040516103449190612ada565b60405180910390f35b34801561035957600080fd5b5061036261133e565b60405161036f9190612bc5565b60405180910390f35b34801561038457600080fd5b5061039f600480360381019061039a9190612c0c565b61134f565b005b3480156103ad57600080fd5b506103c860048036038101906103c39190612c73565b6115de565b6040516103d59190612b0b565b60405180910390f35b3480156103ea57600080fd5b506104056004803603810190610400919061297f565b611668565b6040516104129190612d39565b60405180910390f35b34801561042757600080fd5b50610442600480360381019061043d919061297f565b6116f5565b005b34801561045057600080fd5b5061046b60048036038101906104669190612697565b611836565b6040516104789190612d39565b60405180910390f35b34801561048d57600080fd5b506104a860048036038101906104a39190612dbf565b6118c0565b6040516104b6929190613001565b60405180910390f35b3480156104cb57600080fd5b506104e660048036038101906104e19190612697565b61195e565b6040516104f39190612b0b565b60405180910390f35b34801561050857600080fd5b50610523600480360381019061051e919061297f565b6119e7565b6040516105309190612ada565b60405180910390f35b34801561054557600080fd5b50610560600480360381019061055b919061297f565b611a76565b60405161056d9190612ada565b60405180910390f35b34801561058257600080fd5b5061059d60048036038101906105989190613038565b611b02565b6040516105aa9190612ada565b60405180910390f35b3480156105bf57600080fd5b506105da60048036038101906105d591906130bb565b611d8d565b6040516105e79190612ada565b60405180910390f35b3480156105fc57600080fd5b5061061760048036038101906106129190612483565b611ee2565b6040516106249190613208565b60405180910390f35b34801561063957600080fd5b50610654600480360381019061064f919061322a565b611f6c565b6040516106619190612b0b565b60405180910390f35b34801561067657600080fd5b50610691600480360381019061068c9190612483565b612084565b60405161069e91906132b4565b60405180910390f35b6106af61210e565b005b3480156106bd57600080fd5b506106d860048036038101906106d39190612697565b612110565b6040516106e59190612d39565b60405180910390f35b3480156106fa57600080fd5b5061071560048036038101906107109190612697565b61219a565b6040516107229190612ada565b60405180910390f35b34801561073757600080fd5b50610752600480360381019061074d9190612483565b612226565b6040516107609291906133dc565b60405180910390f35b811561089a5760008081819054906101000a900460070b8092919061078d90613442565b91906101000a81548167ffffffffffffffff021916908360070b67ffffffffffffffff160217905550503073ffffffffffffffffffffffffffffffffffffffff168473ffffffffffffffffffffffffffffffffffffffff16146108995760008473ffffffffffffffffffffffffffffffffffffffff16600f604051610811906134a3565b60006040518083038185875af1925050503d806000811461084e576040519150601f19603f3d011682016040523d82523d6000602084013e610853565b606091505b5050905080610897576040517f08c379a000000000000000000000000000000000000000000000000000000000815260040161088e9061352a565b60405180910390fd5b505b5b600061080173ffffffffffffffffffffffffffffffffffffffff16632efe8a5f86866040518363ffffffff1660e01b81526004016108d99291906135b8565b6020604051808303816000875af11580156108f8573d6000803e3d6000fd5b505050506040513d601f19601f8201168201806040525081019061091c91906135f6565b90508061095e576040517f08c379a00000000000000000000000000000000000000000000000000000000081526004016109559061366f565b60405180910390fd5b8115610a8f5760008081819054906101000a900460070b8092919061098290613442565b91906101000a81548167ffffffffffffffff021916908360070b67ffffffffffffffff160217905550503073ffffffffffffffffffffffffffffffffffffffff168573ffffffffffffffffffffffffffffffffffffffff1614610a8e5760008573ffffffffffffffffffffffffffffffffffffffff16600f604051610a06906134a3565b60006040518083038185875af1925050503d8060008114610a43576040519150601f19603f3d011682016040523d82523d6000602084013e610a48565b606091505b5050905080610a8c576040517f08c379a0000000000000000000000000000000000000000000000000000000008152600401610a839061352a565b60405180910390fd5b505b5b5050505050565b606060008061080173ffffffffffffffffffffffffffffffffffffffff1684604051602401610ac5919061369e565b6040516020818303038152906040527f5431f450000000000000000000000000000000000000000000000000000000007bffffffffffffffffffffffffffffffffffffffffffffffffffffffff19166020820180517bffffffffffffffffffffffffffffffffffffffffffffffffffffffff8381831617835250505050604051610b4f91906136ea565b600060405180830381855afa9150503d8060008114610b8a576040519150601f19603f3d011682016040523d82523d6000602084013e610b8f565b606091505b509150915081610bd4576040517f08c379a0000000000000000000000000000000000000000000000000000000008152600401610bcb9061374d565b60405180910390fd5b8092505050919050565b610be66122b3565b61080173ffffffffffffffffffffffffffffffffffffffff166354212a89836040518263ffffffff1660e01b8152600401610c2191906132b4565b600060405180830381865afa158015610c3e573d6000803e3d6000fd5b505050506040513d6000823e3d601f19601f82011682018060405250810190610c679190613a46565b9050919050565b3073ffffffffffffffffffffffffffffffffffffffff1663ad5c4cdd85846040518363ffffffff1660e01b8152600401610ca9929190613a8f565b6000604051808303816000875af1925050508015610cea57506040513d6000823e3d601f19601f82011682018060405250810190610ce79190613c0c565b60015b15610cf157505b8015610dee5760008081819054906101000a900460070b80929190610d1590613442565b91906101000a81548167ffffffffffffffff021916908360070b67ffffffffffffffff1602179055505060008373ffffffffffffffffffffffffffffffffffffffff16600f604051610d66906134a3565b60006040518083038185875af1925050503d8060008114610da3576040519150601f19603f3d011682016040523d82523d6000602084013e610da8565b606091505b5050905080610dec576040517f08c379a0000000000000000000000000000000000000000000000000000000008152600401610de39061352a565b60405180910390fd5b505b50505050565b600061080173ffffffffffffffffffffffffffffffffffffffff168383604051602401610e22929190613c55565b6040516020818303038152906040527f5a9d9a96000000000000000000000000000000000000000000000000000000007bffffffffffffffffffffffffffffffffffffffffffffffffffffffff19166020820180517bffffffffffffffffffffffffffffffffffffffffffffffffffffffff8381831617835250505050604051610eac91906136ea565b600060405180830381855af49150503d8060008114610ee7576040519150601f19603f3d011682016040523d82523d6000602084013e610eec565b606091505b5050905080610f30576040517f08c379a0000000000000000000000000000000000000000000000000000000008152600401610f2790613cf7565b60405180910390fd5b505050565b606061080173ffffffffffffffffffffffffffffffffffffffff1663b46a8d6130846040518363ffffffff1660e01b8152600401610f74929190613c55565b6000604051808303816000875af1158015610f93573d6000803e3d6000fd5b505050506040513d6000823e3d601f19601f82011682018060405250810190610fbc9190613c0c565b9050919050565b600061080173ffffffffffffffffffffffffffffffffffffffff16635a9d9a9684846040518363ffffffff1660e01b8152600401611002929190613c55565b6020604051808303816000875af1158015611021573d6000803e3d6000fd5b505050506040513d601f19601f8201168201806040525081019061104591906135f6565b905092915050565b606082156111805760008081819054906101000a900460070b8092919061107390613442565b91906101000a81548167ffffffffffffffff021916908360070b67ffffffffffffffff160217905550503073ffffffffffffffffffffffffffffffffffffffff168473ffffffffffffffffffffffffffffffffffffffff161461117f5760008473ffffffffffffffffffffffffffffffffffffffff16600f6040516110f7906134a3565b60006040518083038185875af1925050503d8060008114611134576040519150601f19603f3d011682016040523d82523d6000602084013e611139565b606091505b505090508061117d576040517f08c379a00000000000000000000000000000000000000000000000000000000081526004016111749061352a565b60405180910390fd5b505b5b61080173ffffffffffffffffffffffffffffffffffffffff16633ce4e3be866040518263ffffffff1660e01b81526004016111bb91906132b4565b6000604051808303816000875af11580156111da573d6000803e3d6000fd5b505050506040513d6000823e3d601f19601f820116820180604052508101906112039190613c0c565b905081156113365760008081819054906101000a900460070b8092919061122990613442565b91906101000a81548167ffffffffffffffff021916908360070b67ffffffffffffffff160217905550503073ffffffffffffffffffffffffffffffffffffffff168473ffffffffffffffffffffffffffffffffffffffff16146113355760008473ffffffffffffffffffffffffffffffffffffffff16600f6040516112ad906134a3565b60006040518083038185875af1925050503d80600081146112ea576040519150601f19603f3d011682016040523d82523d6000602084013e6112ef565b606091505b5050905080611333576040517f08c379a000000000000000000000000000000000000000000000000000000000815260040161132a9061352a565b60405180910390fd5b505b5b949350505050565b60008054906101000a900460070b81565b811561144c5760008081819054906101000a900460070b8092919061137390613442565b91906101000a81548167ffffffffffffffff021916908360070b67ffffffffffffffff1602179055505060008473ffffffffffffffffffffffffffffffffffffffff16600f6040516113c4906134a3565b60006040518083038185875af1925050503d8060008114611401576040519150601f19603f3d011682016040523d82523d6000602084013e611406565b606091505b505090508061144a576040517f08c379a00000000000000000000000000000000000000000000000000000000081526004016114419061352a565b60405180910390fd5b505b600061080173ffffffffffffffffffffffffffffffffffffffff1663ed41d0b686866040518363ffffffff1660e01b815260040161148b929190613d26565b6020604051808303816000875af11580156114aa573d6000803e3d6000fd5b505050506040513d601f19601f820116820180604052508101906114ce91906135f6565b9050806114da57600080fd5b81156115d75760008081819054906101000a900460070b809291906114fe90613442565b91906101000a81548167ffffffffffffffff021916908360070b67ffffffffffffffff1602179055505060008573ffffffffffffffffffffffffffffffffffffffff16600f60405161154f906134a3565b60006040518083038185875af1925050503d806000811461158c576040519150601f19603f3d011682016040523d82523d6000602084013e611591565b606091505b50509050806115d5576040517f08c379a00000000000000000000000000000000000000000000000000000000081526004016115cc9061352a565b60405180910390fd5b505b5050505050565b600061080173ffffffffffffffffffffffffffffffffffffffff16632efe8a5f84846040518363ffffffff1660e01b815260040161161d929190613d4f565b6020604051808303816000875af115801561163c573d6000803e3d6000fd5b505050506040513d601f19601f8201168201806040525081019061166091906135f6565b905092915050565b606061080173ffffffffffffffffffffffffffffffffffffffff16639ad563b484846040518363ffffffff1660e01b81526004016116a7929190613c55565b600060405180830381865afa1580156116c4573d6000803e3d6000fd5b505050506040513d6000823e3d601f19601f820116820180604052508101906116ed9190613d78565b905092915050565b600061080173ffffffffffffffffffffffffffffffffffffffff168383604051602401611723929190613c55565b6040516020818303038152906040527f5a9d9a96000000000000000000000000000000000000000000000000000000007bffffffffffffffffffffffffffffffffffffffffffffffffffffffff19166020820180517bffffffffffffffffffffffffffffffffffffffffffffffffffffffff83818316178352505050506040516117ad91906136ea565b600060405180830381855afa9150503d80600081146117e8576040519150601f19603f3d011682016040523d82523d6000602084013e6117ed565b606091505b5050905080611831576040517f08c379a00000000000000000000000000000000000000000000000000000000081526004016118289061374d565b60405180910390fd5b505050565b606061080173ffffffffffffffffffffffffffffffffffffffff16633dd40f78836040518263ffffffff1660e01b815260040161187391906132b4565b600060405180830381865afa158015611890573d6000803e3d6000fd5b505050506040513d6000823e3d601f19601f820116820180604052508101906118b99190613d78565b9050919050565b60606118ca6122d4565b61080173ffffffffffffffffffffffffffffffffffffffff16638f2473ce878787876040518563ffffffff1660e01b815260040161190b9493929190613f4c565b600060405180830381865afa158015611928573d6000803e3d6000fd5b505050506040513d6000823e3d601f19601f820116820180604052508101906119519190614224565b9150915094509492505050565b600061080173ffffffffffffffffffffffffffffffffffffffff16635a9d9a9630846040518363ffffffff1660e01b815260040161199d929190613c55565b6020604051808303816000875af11580156119bc573d6000803e3d6000fd5b505050506040513d601f19601f820116820180604052508101906119e091906135f6565b9050919050565b606061080173ffffffffffffffffffffffffffffffffffffffff1663b46a8d6184846040518363ffffffff1660e01b8152600401611a26929190613c55565b6000604051808303816000875af1158015611a45573d6000803e3d6000fd5b505050506040513d6000823e3d601f19601f82011682018060405250810190611a6e9190613c0c565b905092915050565b606061080173ffffffffffffffffffffffffffffffffffffffff1663b46a8d6184846040518363ffffffff1660e01b8152600401611ab5929190613c55565b6000604051808303816000875af1158015611ad4573d6000803e3d6000fd5b505050506040513d6000823e3d601f19601f82011682018060405250810190611afd9190613c0c565b600080fd5b60608215611c015760008081819054906101000a900460070b80929190611b2890613442565b91906101000a81548167ffffffffffffffff021916908360070b67ffffffffffffffff1602179055505060008573ffffffffffffffffffffffffffffffffffffffff16600f604051611b79906134a3565b60006040518083038185875af1925050503d8060008114611bb6576040519150601f19603f3d011682016040523d82523d6000602084013e611bbb565b606091505b5050905080611bff576040517f08c379a0000000000000000000000000000000000000000000000000000000008152600401611bf69061352a565b60405180910390fd5b505b61080173ffffffffffffffffffffffffffffffffffffffff1663b46a8d6186866040518363ffffffff1660e01b8152600401611c3e929190613a8f565b6000604051808303816000875af1158015611c5d573d6000803e3d6000fd5b505050506040513d6000823e3d601f19601f82011682018060405250810190611c869190613c0c565b90508115611d855760008081819054906101000a900460070b80929190611cac90613442565b91906101000a81548167ffffffffffffffff021916908360070b67ffffffffffffffff1602179055505060008573ffffffffffffffffffffffffffffffffffffffff16600f604051611cfd906134a3565b60006040518083038185875af1925050503d8060008114611d3a576040519150601f19603f3d011682016040523d82523d6000602084013e611d3f565b606091505b5050905080611d83576040517f08c379a0000000000000000000000000000000000000000000000000000000008152600401611d7a9061352a565b60405180910390fd5b505b949350505050565b6060600061080173ffffffffffffffffffffffffffffffffffffffff16635a9d9a9633876040518363ffffffff1660e01b8152600401611dce929190613c55565b6020604051808303816000875af1158015611ded573d6000803e3d6000fd5b505050506040513d601f19601f82011682018060405250810190611e1191906135f6565b905080611e53576040517f08c379a0000000000000000000000000000000000000000000000000000000008152600401611e4a906142e8565b60405180910390fd5b61080173ffffffffffffffffffffffffffffffffffffffff1663b46a8d6185856040518363ffffffff1660e01b8152600401611e90929190613c55565b6000604051808303816000875af1158015611eaf573d6000803e3d6000fd5b505050506040513d6000823e3d601f19601f82011682018060405250810190611ed89190613c0c565b9150509392505050565b606061080173ffffffffffffffffffffffffffffffffffffffff1663a66cb605836040518263ffffffff1660e01b8152600401611f1f919061369e565b600060405180830381865afa158015611f3c573d6000803e3d6000fd5b505050506040513d6000823e3d601f19601f82011682018060405250810190611f6591906143e9565b9050919050565b600060016000808282829054906101000a900460070b611f8c9190614432565b92506101000a81548167ffffffffffffffff021916908360070b67ffffffffffffffff16021790555061080173ffffffffffffffffffffffffffffffffffffffff1663ed41d0b684846040518363ffffffff1660e01b8152600401611ff2929190614492565b6020604051808303816000875af1158015612011573d6000803e3d6000fd5b505050506040513d601f19601f8201168201806040525081019061203591906135f6565b905060016000808282829054906101000a900460070b61205591906144bb565b92506101000a81548167ffffffffffffffff021916908360070b67ffffffffffffffff16021790555092915050565b606061080173ffffffffffffffffffffffffffffffffffffffff16635431f450836040518263ffffffff1660e01b81526004016120c1919061369e565b600060405180830381865afa1580156120de573d6000803e3d6000fd5b505050506040513d6000823e3d601f19601f82011682018060405250810190612107919061451b565b9050919050565b565b606061080173ffffffffffffffffffffffffffffffffffffffff166385b2d2da836040518263ffffffff1660e01b815260040161214d91906132b4565b600060405180830381865afa15801561216a573d6000803e3d6000fd5b505050506040513d6000823e3d601f19601f820116820180604052508101906121939190613d78565b9050919050565b606061080173ffffffffffffffffffffffffffffffffffffffff16633ce4e3be836040518263ffffffff1660e01b81526004016121d791906132b4565b6000604051808303816000875af11580156121f6573d6000803e3d6000fd5b505050506040513d6000823e3d601f19601f8201168201806040525081019061221f9190613c0c565b9050919050565b60608061080173ffffffffffffffffffffffffffffffffffffffff166354be1a28846040518263ffffffff1660e01b8152600401612264919061369e565b600060405180830381865afa158015612281573d6000803e3d6000fd5b505050506040513d6000823e3d601f19601f820116820180604052508101906122aa91906146cd565b91509150915091565b60405180606001604052806060815260200160608152602001606081525090565b604051806040016040528060608152602001600067ffffffffffffffff1681525090565b6000604051905090565b600080fd5b600080fd5b600073ffffffffffffffffffffffffffffffffffffffff82169050919050565b60006123378261230c565b9050919050565b6123478161232c565b811461235257600080fd5b50565b6000813590506123648161233e565b92915050565b600063ffffffff82169050919050565b6123838161236a565b811461238e57600080fd5b50565b6000813590506123a08161237a565b92915050565b60008115159050919050565b6123bb816123a6565b81146123c657600080fd5b50565b6000813590506123d8816123b2565b92915050565b600080600080608085870312156123f8576123f7612302565b5b600061240687828801612355565b945050602061241787828801612391565b9350506040612428878288016123c9565b9250506060612439878288016123c9565b91505092959194509250565b60006124508261230c565b9050919050565b61246081612445565b811461246b57600080fd5b50565b60008135905061247d81612457565b92915050565b60006020828403121561249957612498612302565b5b60006124a78482850161246e565b91505092915050565b600081519050919050565b600082825260208201905092915050565b60005b838110156124ea5780820151818401526020810190506124cf565b60008484015250505050565b6000601f19601f8301169050919050565b6000612512826124b0565b61251c81856124bb565b935061252c8185602086016124cc565b612535816124f6565b840191505092915050565b6000602082019050818103600083015261255a8184612507565b905092915050565b600080fd5b600080fd5b7f4e487b7100000000000000000000000000000000000000000000000000000000600052604160045260246000fd5b6125a4826124f6565b810181811067ffffffffffffffff821117156125c3576125c261256c565b5b80604052505050565b60006125d66122f8565b90506125e2828261259b565b919050565b600067ffffffffffffffff8211156126025761260161256c565b5b61260b826124f6565b9050602081019050919050565b82818337600083830152505050565b600061263a612635846125e7565b6125cc565b90508281526020810184848401111561265657612655612567565b5b612661848285612618565b509392505050565b600082601f83011261267e5761267d612562565b5b813561268e848260208601612627565b91505092915050565b6000602082840312156126ad576126ac612302565b5b600082013567ffffffffffffffff8111156126cb576126ca612307565b5b6126d784828501612669565b91505092915050565b600081519050919050565b600082825260208201905092915050565b6000612707826126e0565b61271181856126eb565b93506127218185602086016124cc565b61272a816124f6565b840191505092915050565b600081519050919050565b600082825260208201905092915050565b6000819050602082019050919050565b6000819050919050565b61277481612761565b82525050565b600060ff82169050919050565b6127908161277a565b82525050565b600060608301600083015184820360008601526127b382826126fc565b91505060208301516127c8602086018261276b565b5060408301516127db6040860182612787565b508091505092915050565b60006127f28383612796565b905092915050565b6000602082019050919050565b600061281282612735565b61281c8185612740565b93508360208202850161282e85612751565b8060005b8581101561286a578484038952815161284b85826127e6565b9450612856836127fa565b925060208a01995050600181019050612832565b50829750879550505050505092915050565b6000606083016000830151848203600086015261289982826126fc565b915050602083015184820360208601526128b38282612807565b915050604083015184820360408601526128cd8282612807565b9150508091505092915050565b600060208201905081810360008301526128f4818461287c565b905092915050565b6000806000806080858703121561291657612915612302565b5b600061292487828801612355565b945050602061293587828801612355565b935050604085013567ffffffffffffffff81111561295657612955612307565b5b61296287828801612669565b9250506060612973878288016123c9565b91505092959194509250565b6000806040838503121561299657612995612302565b5b60006129a48582860161246e565b925050602083013567ffffffffffffffff8111156129c5576129c4612307565b5b6129d185828601612669565b9150509250929050565b600081519050919050565b600082825260208201905092915050565b6000819050602082019050919050565b60006040830160008301518482036000860152612a2482826126fc565b9150506020830151612a39602086018261276b565b508091505092915050565b6000612a508383612a07565b905092915050565b6000602082019050919050565b6000612a70826129db565b612a7a81856129e6565b935083602082028501612a8c856129f7565b8060005b85811015612ac85784840389528151612aa98582612a44565b9450612ab483612a58565b925060208a01995050600181019050612a90565b50829750879550505050505092915050565b60006020820190508181036000830152612af48184612a65565b905092915050565b612b05816123a6565b82525050565b6000602082019050612b206000830184612afc565b92915050565b60008060008060808587031215612b4057612b3f612302565b5b600085013567ffffffffffffffff811115612b5e57612b5d612307565b5b612b6a87828801612669565b9450506020612b7b87828801612355565b9350506040612b8c878288016123c9565b9250506060612b9d878288016123c9565b91505092959194509250565b60008160070b9050919050565b612bbf81612ba9565b82525050565b6000602082019050612bda6000830184612bb6565b92915050565b612be981612761565b8114612bf457600080fd5b50565b600081359050612c0681612be0565b92915050565b60008060008060808587031215612c2657612c25612302565b5b6000612c3487828801612355565b9450506020612c4587828801612bf7565b9350506040612c56878288016123c9565b9250506060612c67878288016123c9565b91505092959194509250565b60008060408385031215612c8a57612c89612302565b5b6000612c988582860161246e565b9250506020612ca985828601612391565b9150509250929050565b600082825260208201905092915050565b6000612ccf82612735565b612cd98185612cb3565b935083602082028501612ceb85612751565b8060005b85811015612d275784840389528151612d0885826127e6565b9450612d13836127fa565b925060208a01995050600181019050612cef565b50829750879550505050505092915050565b60006020820190508181036000830152612d538184612cc4565b905092915050565b600067ffffffffffffffff82169050919050565b612d7881612d5b565b8114612d8357600080fd5b50565b600081359050612d9581612d6f565b92915050565b600080fd5b600060a08284031215612db657612db5612d9b565b5b81905092915050565b60008060008060808587031215612dd957612dd8612302565b5b600085013567ffffffffffffffff811115612df757612df6612307565b5b612e0387828801612669565b9450506020612e1487828801612d86565b9350506040612e2587828801612d86565b925050606085013567ffffffffffffffff811115612e4657612e45612307565b5b612e5287828801612da0565b91505092959194509250565b600081519050919050565b600082825260208201905092915050565b6000819050602082019050919050565b612e9381612d5b565b82525050565b604082016000820151612eaf600085018261276b565b506020820151612ec26020850182612787565b50505050565b606082016000820151612ede6000850182612e8a565b506020820151612ef16020850182612e99565b50505050565b6000612f038383612ec8565b60608301905092915050565b6000602082019050919050565b6000612f2782612e5e565b612f318185612e69565b9350612f3c83612e7a565b8060005b83811015612f6d578151612f548882612ef7565b9750612f5f83612f0f565b925050600181019050612f40565b5085935050505092915050565b600082825260208201905092915050565b6000612f96826124b0565b612fa08185612f7a565b9350612fb08185602086016124cc565b612fb9816124f6565b840191505092915050565b60006040830160008301518482036000860152612fe18282612f8b565b9150506020830151612ff66020860182612e8a565b508091505092915050565b6000604082019050818103600083015261301b8185612f1c565b9050818103602083015261302f8184612fc4565b90509392505050565b6000806000806080858703121561305257613051612302565b5b600061306087828801612355565b945050602085013567ffffffffffffffff81111561308157613080612307565b5b61308d87828801612669565b935050604061309e878288016123c9565b92505060606130af878288016123c9565b91505092959194509250565b6000806000606084860312156130d4576130d3612302565b5b600084013567ffffffffffffffff8111156130f2576130f1612307565b5b6130fe86828701612669565b935050602061310f8682870161246e565b925050604084013567ffffffffffffffff8111156131305761312f612307565b5b61313c86828701612669565b9150509250925092565b600081519050919050565b600082825260208201905092915050565b6000819050602082019050919050565b600061317e83836126fc565b905092915050565b6000602082019050919050565b600061319e82613146565b6131a88185613151565b9350836020820285016131ba85613162565b8060005b858110156131f657848403895281516131d78582613172565b94506131e283613186565b925060208a019950506001810190506131be565b50829750879550505050505092915050565b600060208201905081810360008301526132228184613193565b905092915050565b6000806040838503121561324157613240612302565b5b600061324f8582860161246e565b925050602061326085828601612bf7565b9150509250929050565b600082825260208201905092915050565b6000613286826126e0565b613290818561326a565b93506132a08185602086016124cc565b6132a9816124f6565b840191505092915050565b600060208201905081810360008301526132ce818461327b565b905092915050565b600081519050919050565b600082825260208201905092915050565b6000819050602082019050919050565b6000604083016000830151848203600086015261331f82826126fc565b915050602083015184820360208601526133398282612807565b9150508091505092915050565b60006133528383613302565b905092915050565b6000602082019050919050565b6000613372826132d6565b61337c81856132e1565b93508360208202850161338e856132f2565b8060005b858110156133ca57848403895281516133ab8582613346565b94506133b68361335a565b925060208a01995050600181019050613392565b50829750879550505050505092915050565b600060408201905081810360008301526133f68185613367565b9050818103602083015261340a8184612cc4565b90509392505050565b7f4e487b7100000000000000000000000000000000000000000000000000000000600052601160045260246000fd5b600061344d82612ba9565b9150677fffffffffffffff820361346757613466613413565b5b600182019050919050565b600081905092915050565b50565b600061348d600083613472565b91506134988261347d565b600082019050919050565b60006134ae82613480565b9150819050919050565b7f4661696c656420746f2073656e6420457468657220746f2064656c656761746f60008201527f7200000000000000000000000000000000000000000000000000000000000000602082015250565b600061351460218361326a565b915061351f826134b8565b604082019050919050565b6000602082019050818103600083015261354381613507565b9050919050565b6000819050919050565b600061356f61356a6135658461230c565b61354a565b61230c565b9050919050565b600061358182613554565b9050919050565b600061359382613576565b9050919050565b6135a381613588565b82525050565b6135b28161236a565b82525050565b60006040820190506135cd600083018561359a565b6135da60208301846135a9565b9392505050565b6000815190506135f0816123b2565b92915050565b60006020828403121561360c5761360b612302565b5b600061361a848285016135e1565b91505092915050565b7f6661696c656420746f20636c61696d2072657761726473000000000000000000600082015250565b600061365960178361326a565b915061366482613623565b602082019050919050565b600060208201905081810360008301526136888161364c565b9050919050565b61369881612445565b82525050565b60006020820190506136b3600083018461368f565b92915050565b60006136c4826124b0565b6136ce8185613472565b93506136de8185602086016124cc565b80840191505092915050565b60006136f682846136b9565b915081905092915050565b7f6661696c65642073746174696343616c6c20746f20707265636f6d70696c6500600082015250565b6000613737601f8361326a565b915061374282613701565b602082019050919050565b600060208201905081810360008301526137668161372a565b9050919050565b600080fd5b600080fd5b600061378a613785846125e7565b6125cc565b9050828152602081018484840111156137a6576137a5612567565b5b6137b18482856124cc565b509392505050565b600082601f8301126137ce576137cd612562565b5b81516137de848260208601613777565b91505092915050565b600067ffffffffffffffff8211156138025761380161256c565b5b602082029050602081019050919050565b600080fd5b60008151905061382781612be0565b92915050565b6138368161277a565b811461384157600080fd5b50565b6000815190506138538161382d565b92915050565b60006060828403121561386f5761386e61376d565b5b61387960606125cc565b9050600082015167ffffffffffffffff81111561389957613898613772565b5b6138a5848285016137b9565b60008301525060206138b984828501613818565b60208301525060406138cd84828501613844565b60408301525092915050565b60006138ec6138e7846137e7565b6125cc565b9050808382526020820190506020840283018581111561390f5761390e613813565b5b835b8181101561395657805167ffffffffffffffff81111561393457613933612562565b5b8086016139418982613859565b85526020850194505050602081019050613911565b5050509392505050565b600082601f83011261397557613974612562565b5b81516139858482602086016138d9565b91505092915050565b6000606082840312156139a4576139a361376d565b5b6139ae60606125cc565b9050600082015167ffffffffffffffff8111156139ce576139cd613772565b5b6139da848285016137b9565b600083015250602082015167ffffffffffffffff8111156139fe576139fd613772565b5b613a0a84828501613960565b602083015250604082015167ffffffffffffffff811115613a2e57613a2d613772565b5b613a3a84828501613960565b60408301525092915050565b600060208284031215613a5c57613a5b612302565b5b600082015167ffffffffffffffff811115613a7a57613a79612307565b5b613a868482850161398e565b91505092915050565b6000604082019050613aa4600083018561359a565b8181036020830152613ab6818461327b565b90509392505050565b600067ffffffffffffffff821115613ada57613ad961256c565b5b602082029050602081019050919050565b600060408284031215613b0157613b0061376d565b5b613b0b60406125cc565b9050600082015167ffffffffffffffff811115613b2b57613b2a613772565b5b613b37848285016137b9565b6000830152506020613b4b84828501613818565b60208301525092915050565b6000613b6a613b6584613abf565b6125cc565b90508083825260208201905060208402830185811115613b8d57613b8c613813565b5b835b81811015613bd457805167ffffffffffffffff811115613bb257613bb1612562565b5b808601613bbf8982613aeb565b85526020850194505050602081019050613b8f565b5050509392505050565b600082601f830112613bf357613bf2612562565b5b8151613c03848260208601613b57565b91505092915050565b600060208284031215613c2257613c21612302565b5b600082015167ffffffffffffffff811115613c4057613c3f612307565b5b613c4c84828501613bde565b91505092915050565b6000604082019050613c6a600083018561368f565b8181036020830152613c7c818461327b565b90509392505050565b7f6661696c65642064656c656761746543616c6c20746f20707265636f6d70696c60008201527f6500000000000000000000000000000000000000000000000000000000000000602082015250565b6000613ce160218361326a565b9150613cec82613c85565b604082019050919050565b60006020820190508181036000830152613d1081613cd4565b9050919050565b613d2081612761565b82525050565b6000604082019050613d3b600083018561359a565b613d486020830184613d17565b9392505050565b6000604082019050613d64600083018561368f565b613d7160208301846135a9565b9392505050565b600060208284031215613d8e57613d8d612302565b5b600082015167ffffffffffffffff811115613dac57613dab612307565b5b613db884828501613960565b91505092915050565b613dca81612d5b565b82525050565b600080fd5b600080fd5b600080fd5b60008083356001602003843603038112613dfc57613dfb613dda565b5b83810192508235915060208301925067ffffffffffffffff821115613e2457613e23613dd0565b5b600182023603831315613e3a57613e39613dd5565b5b509250929050565b6000613e4e8385612f7a565b9350613e5b838584612618565b613e64836124f6565b840190509392505050565b6000613e7e6020840184612d86565b905092915050565b6000613e9560208401846123c9565b905092915050565b613ea6816123a6565b82525050565b600060a08301613ebf6000840184613ddf565b8583036000870152613ed2838284613e42565b92505050613ee36020840184613e6f565b613ef06020860182612e8a565b50613efe6040840184613e6f565b613f0b6040860182612e8a565b50613f196060840184613e86565b613f266060860182613e9d565b50613f346080840184613e86565b613f416080860182613e9d565b508091505092915050565b60006080820190508181036000830152613f66818761327b565b9050613f756020830186613dc1565b613f826040830185613dc1565b8181036060830152613f948184613eac565b905095945050505050565b600067ffffffffffffffff821115613fba57613fb961256c565b5b602082029050602081019050919050565b600081519050613fda81612d6f565b92915050565b600060408284031215613ff657613ff561376d565b5b61400060406125cc565b9050600061401084828501613818565b600083015250602061402484828501613844565b60208301525092915050565b6000606082840312156140465761404561376d565b5b61405060406125cc565b9050600061406084828501613fcb565b600083015250602061407484828501613fe0565b60208301525092915050565b600061409361408e84613f9f565b6125cc565b905080838252602082019050606084028301858111156140b6576140b5613813565b5b835b818110156140df57806140cb8882614030565b8452602084019350506060810190506140b8565b5050509392505050565b600082601f8301126140fe576140fd612562565b5b815161410e848260208601614080565b91505092915050565b600067ffffffffffffffff8211156141325761413161256c565b5b61413b826124f6565b9050602081019050919050565b600061415b61415684614117565b6125cc565b90508281526020810184848401111561417757614176612567565b5b6141828482856124cc565b509392505050565b600082601f83011261419f5761419e612562565b5b81516141af848260208601614148565b91505092915050565b6000604082840312156141ce576141cd61376d565b5b6141d860406125cc565b9050600082015167ffffffffffffffff8111156141f8576141f7613772565b5b6142048482850161418a565b600083015250602061421884828501613fcb565b60208301525092915050565b6000806040838503121561423b5761423a612302565b5b600083015167ffffffffffffffff81111561425957614258612307565b5b614265858286016140e9565b925050602083015167ffffffffffffffff81111561428657614285612307565b5b614292858286016141b8565b9150509250929050565b7f6661696c656420746f2073657420776974686472617720616464726573730000600082015250565b60006142d2601e8361326a565b91506142dd8261429c565b602082019050919050565b60006020820190508181036000830152614301816142c5565b9050919050565b600067ffffffffffffffff8211156143235761432261256c565b5b602082029050602081019050919050565b600061434761434284614308565b6125cc565b9050808382526020820190506020840283018581111561436a57614369613813565b5b835b818110156143b157805167ffffffffffffffff81111561438f5761438e612562565b5b80860161439c89826137b9565b8552602085019450505060208101905061436c565b5050509392505050565b600082601f8301126143d0576143cf612562565b5b81516143e0848260208601614334565b91505092915050565b6000602082840312156143ff576143fe612302565b5b600082015167ffffffffffffffff81111561441d5761441c612307565b5b614429848285016143bb565b91505092915050565b600061443d82612ba9565b915061444883612ba9565b925082820190507fffffffffffffffffffffffffffffffffffffffffffffffff80000000000000008112677fffffffffffffff8213171561448c5761448b613413565b5b92915050565b60006040820190506144a7600083018561368f565b6144b46020830184613d17565b9392505050565b60006144c682612ba9565b91506144d183612ba9565b92508282039050677fffffffffffffff81137fffffffffffffffffffffffffffffffffffffffffffffffff80000000000000008212171561451557614514613413565b5b92915050565b60006020828403121561453157614530612302565b5b600082015167ffffffffffffffff81111561454f5761454e612307565b5b61455b848285016137b9565b91505092915050565b600067ffffffffffffffff82111561457f5761457e61256c565b5b602082029050602081019050919050565b6000604082840312156145a6576145a561376d565b5b6145b060406125cc565b9050600082015167ffffffffffffffff8111156145d0576145cf613772565b5b6145dc848285016137b9565b600083015250602082015167ffffffffffffffff811115614600576145ff613772565b5b61460c84828501613960565b60208301525092915050565b600061462b61462684614564565b6125cc565b9050808382526020820190506020840283018581111561464e5761464d613813565b5b835b8181101561469557805167ffffffffffffffff81111561467357614672612562565b5b8086016146808982614590565b85526020850194505050602081019050614650565b5050509392505050565b600082601f8301126146b4576146b3612562565b5b81516146c4848260208601614618565b91505092915050565b600080604083850312156146e4576146e3612302565b5b600083015167ffffffffffffffff81111561470257614701612307565b5b61470e8582860161469f565b925050602083015167ffffffffffffffff81111561472f5761472e612307565b5b61473b85828601613960565b915050925092905056fea26469706673582212207a2797e1368ab3a260b6425272925c564a5b3820d913462748338f0fc1b6822764736f6c63430008130033",
  "linkReferences": {},
  "deployedLinkReferences": {}
}