{
  "_format": "hh-sol-artifact-1",
  "contractName": "DistributionCaller",
  "sourceName": "solidity/precompiles/testutil/contracts/DistributionCaller.sol",
  "abi": [
    {
      "inputs": [],
      "name": "counter",
      "outputs": [
        {
          "internalType": "int64",
          "name": "",
          "type": "int64"
        }
      ],
      "stateMutability": "view",
      "type": "function"
    },
    {
      "inputs": [
        {
          "internalType": "address",
          "name": "_delAddr",
          "type": "address"
        },
        {
          "internalType": "string",
          "name": "_withdrawAddr",
          "type": "string"
        }
      ],
      "name": "delegateCallSetWithdrawAddress",
      "outputs": [],
      "stateMutability": "nonpayable",
      "type": "function"
    },
    {
      "inputs": [],
      "name": "deposit",
      "outputs": [],
      "stateMutability": "payable",
      "type": "function"
    },
    {
      "inputs": [
        {
          "internalType": "address",
          "name": "_delAddr",
          "type": "address"
        },
        {
          "internalType": "string",
          "name": "_valAddr",
          "type": "string"
        }
      ],
      "name": "getDelegationRewards",
      "outputs": [
        {
          "components": [
            {
              "internalType": "string",
              "name": "denom",
              "type": "string"
            },
            {
              "internalType": "uint256",
              "name": "amount",
              "type": "uint256"
            },
            {
              "internalType": "uint8",
              "name": "precision",
              "type": "uint8"
            }
          ],
          "internalType": "struct DecCoin[]",
          "name": "",
          "type": "tuple[]"
        }
      ],
      "stateMutability": "view",
      "type": "function"
    },
    {
      "inputs": [
        {
          "internalType": "address",
          "name": "_delAddr",
          "type": "address"
        }
      ],
      "name": "getDelegationTotalRewards",
      "outputs": [
        {
          "components": [
            {
              "internalType": "string",
              "name": "validatorAddress",
              "type": "string"
            },
            {
              "components": [
                {
                  "internalType": "string",
                  "name": "denom",
                  "type": "string"
                },
                {
                  "internalType": "uint256",
                  "name": "amount",
                  "type": "uint256"
                },
                {
                  "internalType": "uint8",
                  "name": "precision",
                  "type": "uint8"
                }
              ],
              "internalType": "struct DecCoin[]",
              "name": "reward",
              "type": "tuple[]"
            }
          ],
          "internalType": "struct DelegationDelegatorReward[]",
          "name": "rewards",
          "type": "tuple[]"
        },
        {
          "components": [
            {
              "internalType": "string",
              "name": "denom",
              "type": "string"
            },
            {
              "internalType": "uint256",
              "name": "amount",
              "type": "uint256"
            },
            {
              "internalType": "uint8",
              "name": "precision",
              "type": "uint8"
            }
          ],
          "internalType": "struct DecCoin[]",
          "name": "total",
          "type": "tuple[]"
        }
      ],
      "stateMutability": "view",
      "type": "function"
    },
    {
      "inputs": [
        {
          "internalType": "address",
          "name": "_delAddr",
          "type": "address"
        }
      ],
      "name": "getDelegatorValidators",
      "outputs": [
        {
          "internalType": "string[]",
          "name": "",
          "type": "string[]"
        }
      ],
      "stateMutability": "view",
      "type": "function"
    },
    {
      "inputs": [
        {
          "internalType": "address",
          "name": "_delAddr",
          "type": "address"
        }
      ],
      "name": "getDelegatorWithdrawAddress",
      "outputs": [
        {
          "internalType": "string",
          "name": "",
          "type": "string"
        }
      ],
      "stateMutability": "view",
      "type": "function"
    },
    {
      "inputs": [
        {
          "internalType": "string",
          "name": "_valAddr",
          "type": "string"
        }
      ],
      "name": "getValidatorCommission",
      "outputs": [
        {
          "components": [
            {
              "internalType": "string",
              "name": "denom",
              "type": "string"
            },
            {
              "internalType": "uint256",
              "name": "amount",
              "type": "uint256"
            },
            {
              "internalType": "uint8",
              "name": "precision",
              "type": "uint8"
            }
          ],
          "internalType": "struct DecCoin[]",
          "name": "",
          "type": "tuple[]"
        }
      ],
      "stateMutability": "view",
      "type": "function"
    },
    {
      "inputs": [
        {
          "internalType": "string",
          "name": "_valAddr",
          "type": "string"
        }
      ],
      "name": "getValidatorDistributionInfo",
      "outputs": [
        {
          "components": [
            {
              "internalType": "string",
              "name": "operatorAddress",
              "type": "string"
            },
            {
              "components": [
                {
                  "internalType": "string",
                  "name": "denom",
                  "type": "string"
                },
                {
                  "internalType": "uint256",
                  "name": "amount",
                  "type": "uint256"
                },
                {
                  "internalType": "uint8",
                  "name": "precision",
                  "type": "uint8"
                }
              ],
              "internalType": "struct DecCoin[]",
              "name": "selfBondRewards",
              "type": "tuple[]"
            },
            {
              "components": [
                {
                  "internalType": "string",
                  "name": "denom",
                  "type": "string"
                },
                {
                  "internalType": "uint256",
                  "name": "amount",
                  "type": "uint256"
                },
                {
                  "internalType": "uint8",
                  "name": "precision",
                  "type": "uint8"
                }
              ],
              "internalType": "struct DecCoin[]",
              "name": "commission",
              "type": "tuple[]"
            }
          ],
          "internalType": "struct ValidatorDistributionInfo",
          "name": "",
          "type": "tuple"
        }
      ],
      "stateMutability": "view",
      "type": "function"
    },
    {
      "inputs": [
        {
          "internalType": "string",
          "name": "_valAddr",
          "type": "string"
        }
      ],
      "name": "getValidatorOutstandingRewards",
      "outputs": [
        {
          "components": [
            {
              "internalType": "string",
              "name": "denom",
              "type": "string"
            },
            {
              "internalType": "uint256",
              "name": "amount",
              "type": "uint256"
            },
            {
              "internalType": "uint8",
              "name": "precision",
              "type": "uint8"
            }
          ],
          "internalType": "struct DecCoin[]",
          "name": "",
          "type": "tuple[]"
        }
      ],
      "stateMutability": "view",
      "type": "function"
    },
    {
      "inputs": [
        {
          "internalType": "string",
          "name": "_valAddr",
          "type": "string"
        },
        {
          "internalType": "uint64",
          "name": "_startingHeight",
          "type": "uint64"
        },
        {
          "internalType": "uint64",
          "name": "_endingHeight",
          "type": "uint64"
        },
        {
          "components": [
            {
              "internalType": "bytes",
              "name": "key",
              "type": "bytes"
            },
            {
              "internalType": "uint64",
              "name": "offset",
              "type": "uint64"
            },
            {
              "internalType": "uint64",
              "name": "limit",
              "type": "uint64"
            },
            {
              "internalType": "bool",
              "name": "countTotal",
              "type": "bool"
            },
            {
              "internalType": "bool",
              "name": "reverse",
              "type": "bool"
            }
          ],
          "internalType": "struct PageRequest",
          "name": "pageRequest",
          "type": "tuple"
        }
      ],
      "name": "getValidatorSlashes",
      "outputs": [
        {
          "components": [
            {
              "internalType": "uint64",
              "name": "validatorPeriod",
              "type": "uint64"
            },
            {
              "components": [
                {
                  "internalType": "uint256",
                  "name": "value",
                  "type": "uint256"
                },
                {
                  "internalType": "uint8",
                  "name": "precision",
                  "type": "uint8"
                }
              ],
              "internalType": "struct Dec",
              "name": "fraction",
              "type": "tuple"
            }
          ],
          "internalType": "struct ValidatorSlashEvent[]",
          "name": "",
          "type": "tuple[]"
        },
        {
          "components": [
            {
              "internalType": "bytes",
              "name": "nextKey",
              "type": "bytes"
            },
            {
              "internalType": "uint64",
              "name": "total",
              "type": "uint64"
            }
          ],
          "internalType": "struct PageResponse",
          "name": "",
          "type": "tuple"
        }
      ],
      "stateMutability": "view",
      "type": "function"
    },
    {
      "inputs": [
        {
          "internalType": "address payable",
          "name": "_delAddr",
          "type": "address"
        },
        {
          "internalType": "address payable",
          "name": "_withdrawer",
          "type": "address"
        },
        {
          "internalType": "string",
          "name": "_valAddr",
          "type": "string"
        },
        {
          "internalType": "bool",
          "name": "_after",
          "type": "bool"
        }
      ],
      "name": "revertWithdrawRewardsAndTransfer",
      "outputs": [],
      "stateMutability": "nonpayable",
      "type": "function"
    },
    {
      "inputs": [
        {
          "internalType": "address",
          "name": "_delAddr",
          "type": "address"
        }
      ],
      "name": "staticCallGetWithdrawAddress",
      "outputs": [
        {
          "internalType": "bytes",
          "name": "",
          "type": "bytes"
        }
      ],
      "stateMutability": "view",
      "type": "function"
    },
    {
      "inputs": [
        {
          "internalType": "address",
          "name": "_delAddr",
          "type": "address"
        },
        {
          "internalType": "string",
          "name": "_withdrawAddr",
          "type": "string"
        }
      ],
      "name": "staticCallSetWithdrawAddress",
      "outputs": [],
      "stateMutability": "view",
      "type": "function"
    },
    {
      "inputs": [
        {
          "internalType": "address",
          "name": "_delAddr",
          "type": "address"
        },
        {
          "internalType": "uint32",
          "name": "_maxRetrieve",
          "type": "uint32"
        }
      ],
      "name": "testClaimRewards",
      "outputs": [
        {
          "internalType": "bool",
          "name": "success",
          "type": "bool"
        }
      ],
      "stateMutability": "nonpayable",
      "type": "function"
    },
    {
      "inputs": [
        {
          "internalType": "address payable",
          "name": "_delAddr",
          "type": "address"
        },
        {
          "internalType": "uint32",
          "name": "_maxRetrieve",
          "type": "uint32"
        },
        {
          "internalType": "bool",
          "name": "_before",
          "type": "bool"
        },
        {
          "internalType": "bool",
          "name": "_after",
          "type": "bool"
        }
      ],
      "name": "testClaimRewardsWithTransfer",
      "outputs": [],
      "stateMutability": "nonpayable",
      "type": "function"
    },
    {
      "inputs": [
        {
          "internalType": "string",
          "name": "_validatorAddr",
          "type": "string"
        },
        {
          "internalType": "uint256",
          "name": "_amount",
          "type": "uint256"
        }
      ],
      "name": "testDelegateFromContract",
      "outputs": [],
      "stateMutability": "nonpayable",
      "type": "function"
    },
    {
      "inputs": [
        {
          "internalType": "address",
          "name": "depositor",
          "type": "address"
        },
        {
          "internalType": "uint256",
          "name": "amount",
          "type": "uint256"
        }
      ],
      "name": "testFundCommunityPool",
      "outputs": [
        {
          "internalType": "bool",
          "name": "success",
          "type": "bool"
        }
      ],
      "stateMutability": "nonpayable",
      "type": "function"
    },
    {
      "inputs": [
        {
          "internalType": "address payable",
          "name": "depositor",
          "type": "address"
        },
        {
          "internalType": "uint256",
          "name": "amount",
          "type": "uint256"
        },
        {
          "internalType": "bool",
          "name": "_before",
          "type": "bool"
        },
        {
          "internalType": "bool",
          "name": "_after",
          "type": "bool"
        }
      ],
      "name": "testFundCommunityPoolWithTransfer",
      "outputs": [],
      "stateMutability": "nonpayable",
      "type": "function"
    },
    {
      "inputs": [
        {
          "internalType": "string",
          "name": "_withdrawAddr",
          "type": "string"
        },
        {
          "internalType": "address",
          "name": "_delAddr",
          "type": "address"
        },
        {
          "internalType": "string",
          "name": "_valAddr",
          "type": "string"
        }
      ],
      "name": "testRevertState",
      "outputs": [
        {
          "components": [
            {
              "internalType": "string",
              "name": "denom",
              "type": "string"
            },
            {
              "internalType": "uint256",
              "name": "amount",
              "type": "uint256"
            }
          ],
          "internalType": "struct Coin[]",
          "name": "",
          "type": "tuple[]"
        }
      ],
      "stateMutability": "nonpayable",
      "type": "function"
    },
    {
      "inputs": [
        {
          "internalType": "address",
          "name": "_delAddr",
          "type": "address"
        },
        {
          "internalType": "string",
          "name": "_withdrawAddr",
          "type": "string"
        }
      ],
      "name": "testSetWithdrawAddress",
      "outputs": [
        {
          "internalType": "bool",
          "name": "",
          "type": "bool"
        }
      ],
      "stateMutability": "nonpayable",
      "type": "function"
    },
    {
      "inputs": [
        {
          "internalType": "string",
          "name": "_withdrawAddr",
          "type": "string"
        }
      ],
      "name": "testSetWithdrawAddressFromContract",
      "outputs": [
        {
          "internalType": "bool",
          "name": "",
          "type": "bool"
        }
      ],
      "stateMutability": "nonpayable",
      "type": "function"
    },
    {
      "inputs": [
        {
          "internalType": "address",
          "name": "_delAddr",
          "type": "address"
        },
        {
          "internalType": "string",
          "name": "_valAddr",
          "type": "string"
        }
      ],
      "name": "testWithdrawDelegatorRewards",
      "outputs": [
        {
          "components": [
            {
              "internalType": "string",
              "name": "denom",
              "type": "string"
            },
            {
              "internalType": "uint256",
              "name": "amount",
              "type": "uint256"
            }
          ],
          "internalType": "struct Coin[]",
          "name": "",
          "type": "tuple[]"
        }
      ],
      "stateMutability": "nonpayable",
      "type": "function"
    },
    {
      "inputs": [
        {
          "internalType": "string",
          "name": "_valAddr",
          "type": "string"
        }
      ],
      "name": "testWithdrawDelegatorRewardsFromContract",
      "outputs": [
        {
          "components": [
            {
              "internalType": "string",
              "name": "denom",
              "type": "string"
            },
            {
              "internalType": "uint256",
              "name": "amount",
              "type": "uint256"
            }
          ],
          "internalType": "struct Coin[]",
          "name": "",
          "type": "tuple[]"
        }
      ],
      "stateMutability": "nonpayable",
      "type": "function"
    },
    {
      "inputs": [
        {
          "internalType": "address payable",
          "name": "_delAddr",
          "type": "address"
        },
        {
          "internalType": "string",
          "name": "_valAddr",
          "type": "string"
        },
        {
          "internalType": "bool",
          "name": "_before",
          "type": "bool"
        },
        {
          "internalType": "bool",
          "name": "_after",
          "type": "bool"
        }
      ],
      "name": "testWithdrawDelegatorRewardsWithTransfer",
      "outputs": [
        {
          "components": [
            {
              "internalType": "string",
              "name": "denom",
              "type": "string"
            },
            {
              "internalType": "uint256",
              "name": "amount",
              "type": "uint256"
            }
          ],
          "internalType": "struct Coin[]",
          "name": "coins",
          "type": "tuple[]"
        }
      ],
      "stateMutability": "nonpayable",
      "type": "function"
    },
    {
      "inputs": [
        {
          "internalType": "string",
          "name": "_valAddr",
          "type": "string"
        }
      ],
      "name": "testWithdrawValidatorCommission",
      "outputs": [
        {
          "components": [
            {
              "internalType": "string",
              "name": "denom",
              "type": "string"
            },
            {
              "internalType": "uint256",
              "name": "amount",
              "type": "uint256"
            }
          ],
          "internalType": "struct Coin[]",
          "name": "",
          "type": "tuple[]"
        }
      ],
      "stateMutability": "nonpayable",
      "type": "function"
    },
    {
      "inputs": [
        {
          "internalType": "string",
          "name": "_valAddr",
          "type": "string"
        },
        {
          "internalType": "address payable",
          "name": "_withdrawer",
          "type": "address"
        },
        {
          "internalType": "bool",
          "name": "_before",
          "type": "bool"
        },
        {
          "internalType": "bool",
          "name": "_after",
          "type": "bool"
        }
      ],
      "name": "testWithdrawValidatorCommissionWithTransfer",
      "outputs": [
        {
          "components": [
            {
              "internalType": "string",
              "name": "denom",
              "type": "string"
            },
            {
              "internalType": "uint256",
              "name": "amount",
              "type": "uint256"
            }
          ],
          "internalType": "struct Coin[]",
          "name": "coins",
          "type": "tuple[]"
        }
      ],
      "stateMutability": "nonpayable",
      "type": "function"
    },
    {
      "inputs": [
        {
          "internalType": "address",
          "name": "_delAddr",
          "type": "address"
        },
        {
          "internalType": "string",
          "name": "_valAddr",
          "type": "string"
        }
      ],
      "name": "withdrawDelegatorRewardsAndRevert",
      "outputs": [
        {
          "components": [
            {
              "internalType": "string",
              "name": "denom",
              "type": "string"
            },
            {
              "internalType": "uint256",
              "name": "amount",
              "type": "uint256"
            }
          ],
          "internalType": "struct Coin[]",
          "name": "coins",
          "type": "tuple[]"
        }
      ],
      "stateMutability": "nonpayable",
      "type": "function"
    }
  ],
  "bytecode": "0x60806040526040518060200160405280604051806060016040528060238152602001620050e26023913981525060009060016200003e92919062000053565b503480156200004c57600080fd5b50620004a1565b828054828255906000526020600020908101928215620000a0579160200282015b828111156200009f5782518290816200008e9190620003ba565b509160200191906001019062000074565b5b509050620000af9190620000b3565b5090565b5b80821115620000d75760008181620000cd9190620000db565b50600101620000b4565b5090565b508054620000e990620001a9565b6000825580601f10620000fd57506200011e565b601f0160209004906000526020600020908101906200011d919062000121565b5b50565b5b808211156200013c57600081600090555060010162000122565b5090565b600081519050919050565b7f4e487b7100000000000000000000000000000000000000000000000000000000600052604160045260246000fd5b7f4e487b7100000000000000000000000000000000000000000000000000000000600052602260045260246000fd5b60006002820490506001821680620001c257607f821691505b602082108103620001d857620001d76200017a565b5b50919050565b60008190508160005260206000209050919050565b60006020601f8301049050919050565b600082821b905092915050565b600060088302620002427fffffffffffffffffffffffffffffffffffffffffffffffffffffffffffffffff8262000203565b6200024e868362000203565b95508019841693508086168417925050509392505050565b6000819050919050565b6000819050919050565b60006200029b620002956200028f8462000266565b62000270565b62000266565b9050919050565b6000819050919050565b620002b7836200027a565b620002cf620002c682620002a2565b84845462000210565b825550505050565b600090565b620002e6620002d7565b620002f3818484620002ac565b505050565b5b818110156200031b576200030f600082620002dc565b600181019050620002f9565b5050565b601f8211156200036a576200033481620001de565b6200033f84620001f3565b810160208510156200034f578190505b620003676200035e85620001f3565b830182620002f8565b50505b505050565b600082821c905092915050565b60006200038f600019846008026200036f565b1980831691505092915050565b6000620003aa83836200037c565b9150826002028217905092915050565b620003c58262000140565b67ffffffffffffffff811115620003e157620003e06200014b565b5b620003ed8254620001a9565b620003fa8282856200031f565b600060209050601f8311600181146200043257600084156200041d578287015190505b6200042985826200039c565b86555062000499565b601f1984166200044286620001de565b60005b828110156200046c5784890151825560018201915060208501945060208101905062000445565b868310156200048c578489015162000488601f8916826200037c565b8355505b6001600288020188555050505b505050505050565b614c3180620004b16000396000f3fe6080604052600436106101b75760003560e01c806388b2d581116100ec578063c7804bb51161008a578063d3f831be11610064578063d3f831be146106cc578063dd987c2014610709578063e0421e3914610732578063e236c7a61461076f576101b7565b8063c7804bb514610648578063cb85aa0a14610685578063d0e30db0146106c2576101b7565b8063ad5c4cdd116100c6578063ad5c4cdd14610554578063adb2378514610591578063b2d17883146105ce578063b6a216ae1461060b576101b7565b806388b2d5811461049c578063963516e4146104da5780639819459314610517576101b7565b8063613d4de8116101595780636f669da4116101335780636f669da4146103bc57806378a5dfd1146103f9578063796b96d2146104365780637c9db0bb1461045f576101b7565b8063613d4de81461032b57806361bc221a146103685780636cc9ac8a14610393576101b7565b80631b050207116101955780631b0502071461025f578063296c60aa146102885780632d0ee16a146102b157806346e16d34146102ee576101b7565b80630183e4b4146101bc57806301b68000146101e55780630c05e9e414610222575b600080fd5b3480156101c857600080fd5b506101e360048036038101906101de919061257c565b6107ad565b005b3480156101f157600080fd5b5061020c60048036038101906102079190612621565b610adc565b60405161021991906126de565b60405180910390f35b34801561022e57600080fd5b5061024960048036038101906102449190612835565b610c24565b6040516102569190612a78565b60405180910390f35b34801561026b57600080fd5b5061028660048036038101906102819190612a9a565b610cb4565b005b34801561029457600080fd5b506102af60048036038101906102aa9190612b1d565b610e3b565b005b3480156102bd57600080fd5b506102d860048036038101906102d39190612835565b610f7c565b6040516102e59190612c78565b60405180910390f35b3480156102fa57600080fd5b5061031560048036038101906103109190612b1d565b61100a565b6040516103229190612ca9565b60405180910390f35b34801561033757600080fd5b50610352600480360381019061034d9190612cc4565b611094565b60405161035f9190612c78565b60405180910390f35b34801561037457600080fd5b5061037d611387565b60405161038a9190612d63565b60405180910390f35b34801561039f57600080fd5b506103ba60048036038101906103b59190612daa565b61139a565b005b3480156103c857600080fd5b506103e360048036038101906103de9190612e11565b61162b565b6040516103f09190612ca9565b60405180910390f35b34801561040557600080fd5b50610420600480360381019061041b9190612b1d565b6116b5565b60405161042d9190612ed7565b60405180910390f35b34801561044257600080fd5b5061045d60048036038101906104589190612b1d565b611742565b005b34801561046b57600080fd5b5061048660048036038101906104819190612835565b611883565b6040516104939190612ed7565b60405180910390f35b3480156104a857600080fd5b506104c360048036038101906104be9190612f5d565b61190d565b6040516104d192919061319f565b60405180910390f35b3480156104e657600080fd5b5061050160048036038101906104fc9190612835565b6119ab565b60405161050e9190612ca9565b60405180910390f35b34801561052357600080fd5b5061053e60048036038101906105399190612b1d565b611a34565b60405161054b9190612c78565b60405180910390f35b34801561056057600080fd5b5061057b60048036038101906105769190612b1d565b611ac3565b6040516105889190612c78565b60405180910390f35b34801561059d57600080fd5b506105b860048036038101906105b391906131d6565b611b4f565b6040516105c59190612c78565b60405180910390f35b3480156105da57600080fd5b506105f560048036038101906105f09190613259565b611ddc565b6040516106029190612c78565b60405180910390f35b34801561061757600080fd5b50610632600480360381019061062d9190612621565b611f31565b60405161063f91906133a6565b60405180910390f35b34801561065457600080fd5b5061066f600480360381019061066a91906133c8565b611fbb565b60405161067c9190612ca9565b60405180910390f35b34801561069157600080fd5b506106ac60048036038101906106a79190612621565b6120d3565b6040516106b99190613452565b60405180910390f35b6106ca61215d565b005b3480156106d857600080fd5b506106f360048036038101906106ee9190612835565b61215f565b6040516107009190612ed7565b60405180910390f35b34801561071557600080fd5b50610730600480360381019061072b9190613474565b6121e9565b005b34801561073e57600080fd5b5061075960048036038101906107549190612835565b612338565b6040516107669190612c78565b60405180910390f35b34801561077b57600080fd5b5061079660048036038101906107919190612621565b6123c4565b6040516107a49291906135d6565b60405180910390f35b81156108df576001600081819054906101000a900460070b809291906107d29061363c565b91906101000a81548167ffffffffffffffff021916908360070b67ffffffffffffffff160217905550503073ffffffffffffffffffffffffffffffffffffffff168473ffffffffffffffffffffffffffffffffffffffff16146108de5760008473ffffffffffffffffffffffffffffffffffffffff16600f6040516108569061369d565b60006040518083038185875af1925050503d8060008114610893576040519150601f19603f3d011682016040523d82523d6000602084013e610898565b606091505b50509050806108dc576040517f08c379a00000000000000000000000000000000000000000000000000000000081526004016108d390613724565b60405180910390fd5b505b5b600061080173ffffffffffffffffffffffffffffffffffffffff16632efe8a5f86866040518363ffffffff1660e01b815260040161091e9291906137b2565b6020604051808303816000875af115801561093d573d6000803e3d6000fd5b505050506040513d601f19601f8201168201806040525081019061096191906137f0565b9050806109a3576040517f08c379a000000000000000000000000000000000000000000000000000000000815260040161099a90613869565b60405180910390fd5b8115610ad5576001600081819054906101000a900460070b809291906109c89061363c565b91906101000a81548167ffffffffffffffff021916908360070b67ffffffffffffffff160217905550503073ffffffffffffffffffffffffffffffffffffffff168573ffffffffffffffffffffffffffffffffffffffff1614610ad45760008573ffffffffffffffffffffffffffffffffffffffff16600f604051610a4c9061369d565b60006040518083038185875af1925050503d8060008114610a89576040519150601f19603f3d011682016040523d82523d6000602084013e610a8e565b606091505b5050905080610ad2576040517f08c379a0000000000000000000000000000000000000000000000000000000008152600401610ac990613724565b60405180910390fd5b505b5b5050505050565b606060008061080173ffffffffffffffffffffffffffffffffffffffff1684604051602401610b0b9190613898565b6040516020818303038152906040527f5431f450000000000000000000000000000000000000000000000000000000007bffffffffffffffffffffffffffffffffffffffffffffffffffffffff19166020820180517bffffffffffffffffffffffffffffffffffffffffffffffffffffffff8381831617835250505050604051610b9591906138e4565b600060405180830381855afa9150503d8060008114610bd0576040519150601f19603f3d011682016040523d82523d6000602084013e610bd5565b606091505b509150915081610c1a576040517f08c379a0000000000000000000000000000000000000000000000000000000008152600401610c1190613947565b60405180910390fd5b8092505050919050565b610c2c612451565b61080173ffffffffffffffffffffffffffffffffffffffff166354212a89836040518263ffffffff1660e01b8152600401610c679190613452565b600060405180830381865afa158015610c84573d6000803e3d6000fd5b505050506040513d6000823e3d601f19601f82011682018060405250810190610cad9190613c40565b9050919050565b3073ffffffffffffffffffffffffffffffffffffffff1663ad5c4cdd85846040518363ffffffff1660e01b8152600401610cef929190613c89565b6000604051808303816000875af1925050508015610d3057506040513d6000823e3d601f19601f82011682018060405250810190610d2d9190613e06565b60015b15610d3757505b8015610e35576001600081819054906101000a900460070b80929190610d5c9061363c565b91906101000a81548167ffffffffffffffff021916908360070b67ffffffffffffffff1602179055505060008373ffffffffffffffffffffffffffffffffffffffff16600f604051610dad9061369d565b60006040518083038185875af1925050503d8060008114610dea576040519150601f19603f3d011682016040523d82523d6000602084013e610def565b606091505b5050905080610e33576040517f08c379a0000000000000000000000000000000000000000000000000000000008152600401610e2a90613724565b60405180910390fd5b505b50505050565b600061080173ffffffffffffffffffffffffffffffffffffffff168383604051602401610e69929190613e4f565b6040516020818303038152906040527f5a9d9a96000000000000000000000000000000000000000000000000000000007bffffffffffffffffffffffffffffffffffffffffffffffffffffffff19166020820180517bffffffffffffffffffffffffffffffffffffffffffffffffffffffff8381831617835250505050604051610ef391906138e4565b600060405180830381855af49150503d8060008114610f2e576040519150601f19603f3d011682016040523d82523d6000602084013e610f33565b606091505b5050905080610f77576040517f08c379a0000000000000000000000000000000000000000000000000000000008152600401610f6e90613ef1565b60405180910390fd5b505050565b606061080173ffffffffffffffffffffffffffffffffffffffff1663b46a8d6130846040518363ffffffff1660e01b8152600401610fbb929190613e4f565b6000604051808303816000875af1158015610fda573d6000803e3d6000fd5b505050506040513d6000823e3d601f19601f820116820180604052508101906110039190613e06565b9050919050565b600061080173ffffffffffffffffffffffffffffffffffffffff16635a9d9a9684846040518363ffffffff1660e01b8152600401611049929190613e4f565b6020604051808303816000875af1158015611068573d6000803e3d6000fd5b505050506040513d601f19601f8201168201806040525081019061108c91906137f0565b905092915050565b606082156111c8576001600081819054906101000a900460070b809291906110bb9061363c565b91906101000a81548167ffffffffffffffff021916908360070b67ffffffffffffffff160217905550503073ffffffffffffffffffffffffffffffffffffffff168473ffffffffffffffffffffffffffffffffffffffff16146111c75760008473ffffffffffffffffffffffffffffffffffffffff16600f60405161113f9061369d565b60006040518083038185875af1925050503d806000811461117c576040519150601f19603f3d011682016040523d82523d6000602084013e611181565b606091505b50509050806111c5576040517f08c379a00000000000000000000000000000000000000000000000000000000081526004016111bc90613724565b60405180910390fd5b505b5b61080173ffffffffffffffffffffffffffffffffffffffff16633ce4e3be866040518263ffffffff1660e01b81526004016112039190613452565b6000604051808303816000875af1158015611222573d6000803e3d6000fd5b505050506040513d6000823e3d601f19601f8201168201806040525081019061124b9190613e06565b9050811561137f576001600081819054906101000a900460070b809291906112729061363c565b91906101000a81548167ffffffffffffffff021916908360070b67ffffffffffffffff160217905550503073ffffffffffffffffffffffffffffffffffffffff168473ffffffffffffffffffffffffffffffffffffffff161461137e5760008473ffffffffffffffffffffffffffffffffffffffff16600f6040516112f69061369d565b60006040518083038185875af1925050503d8060008114611333576040519150601f19603f3d011682016040523d82523d6000602084013e611338565b606091505b505090508061137c576040517f08c379a000000000000000000000000000000000000000000000000000000000815260040161137390613724565b60405180910390fd5b505b5b949350505050565b600160009054906101000a900460070b81565b8115611498576001600081819054906101000a900460070b809291906113bf9061363c565b91906101000a81548167ffffffffffffffff021916908360070b67ffffffffffffffff1602179055505060008473ffffffffffffffffffffffffffffffffffffffff16600f6040516114109061369d565b60006040518083038185875af1925050503d806000811461144d576040519150601f19603f3d011682016040523d82523d6000602084013e611452565b606091505b5050905080611496576040517f08c379a000000000000000000000000000000000000000000000000000000000815260040161148d90613724565b60405180910390fd5b505b600061080173ffffffffffffffffffffffffffffffffffffffff1663ed41d0b686866040518363ffffffff1660e01b81526004016114d7929190613f20565b6020604051808303816000875af11580156114f6573d6000803e3d6000fd5b505050506040513d601f19601f8201168201806040525081019061151a91906137f0565b90508061152657600080fd5b8115611624576001600081819054906101000a900460070b8092919061154b9061363c565b91906101000a81548167ffffffffffffffff021916908360070b67ffffffffffffffff1602179055505060008573ffffffffffffffffffffffffffffffffffffffff16600f60405161159c9061369d565b60006040518083038185875af1925050503d80600081146115d9576040519150601f19603f3d011682016040523d82523d6000602084013e6115de565b606091505b5050905080611622576040517f08c379a000000000000000000000000000000000000000000000000000000000815260040161161990613724565b60405180910390fd5b505b5050505050565b600061080173ffffffffffffffffffffffffffffffffffffffff16632efe8a5f84846040518363ffffffff1660e01b815260040161166a929190613f49565b6020604051808303816000875af1158015611689573d6000803e3d6000fd5b505050506040513d601f19601f820116820180604052508101906116ad91906137f0565b905092915050565b606061080173ffffffffffffffffffffffffffffffffffffffff16639ad563b484846040518363ffffffff1660e01b81526004016116f4929190613e4f565b600060405180830381865afa158015611711573d6000803e3d6000fd5b505050506040513d6000823e3d601f19601f8201168201806040525081019061173a9190613f72565b905092915050565b600061080173ffffffffffffffffffffffffffffffffffffffff168383604051602401611770929190613e4f565b6040516020818303038152906040527f5a9d9a96000000000000000000000000000000000000000000000000000000007bffffffffffffffffffffffffffffffffffffffffffffffffffffffff19166020820180517bffffffffffffffffffffffffffffffffffffffffffffffffffffffff83818316178352505050506040516117fa91906138e4565b600060405180830381855afa9150503d8060008114611835576040519150601f19603f3d011682016040523d82523d6000602084013e61183a565b606091505b505090508061187e576040517f08c379a000000000000000000000000000000000000000000000000000000000815260040161187590613947565b60405180910390fd5b505050565b606061080173ffffffffffffffffffffffffffffffffffffffff16633dd40f78836040518263ffffffff1660e01b81526004016118c09190613452565b600060405180830381865afa1580156118dd573d6000803e3d6000fd5b505050506040513d6000823e3d601f19601f820116820180604052508101906119069190613f72565b9050919050565b6060611917612472565b61080173ffffffffffffffffffffffffffffffffffffffff16638f2473ce878787876040518563ffffffff1660e01b81526004016119589493929190614146565b600060405180830381865afa158015611975573d6000803e3d6000fd5b505050506040513d6000823e3d601f19601f8201168201806040525081019061199e919061441e565b9150915094509492505050565b600061080173ffffffffffffffffffffffffffffffffffffffff16635a9d9a9630846040518363ffffffff1660e01b81526004016119ea929190613e4f565b6020604051808303816000875af1158015611a09573d6000803e3d6000fd5b505050506040513d601f19601f82011682018060405250810190611a2d91906137f0565b9050919050565b606061080173ffffffffffffffffffffffffffffffffffffffff1663b46a8d6184846040518363ffffffff1660e01b8152600401611a73929190613e4f565b6000604051808303816000875af1158015611a92573d6000803e3d6000fd5b505050506040513d6000823e3d601f19601f82011682018060405250810190611abb9190613e06565b905092915050565b606061080173ffffffffffffffffffffffffffffffffffffffff1663b46a8d6184846040518363ffffffff1660e01b8152600401611b02929190613e4f565b6000604051808303816000875af1158015611b21573d6000803e3d6000fd5b505050506040513d6000823e3d601f19601f82011682018060405250810190611b4a9190613e06565b600080fd5b60608215611c4f576001600081819054906101000a900460070b80929190611b769061363c565b91906101000a81548167ffffffffffffffff021916908360070b67ffffffffffffffff1602179055505060008573ffffffffffffffffffffffffffffffffffffffff16600f604051611bc79061369d565b60006040518083038185875af1925050503d8060008114611c04576040519150601f19603f3d011682016040523d82523d6000602084013e611c09565b606091505b5050905080611c4d576040517f08c379a0000000000000000000000000000000000000000000000000000000008152600401611c4490613724565b60405180910390fd5b505b61080173ffffffffffffffffffffffffffffffffffffffff1663b46a8d6186866040518363ffffffff1660e01b8152600401611c8c929190613c89565b6000604051808303816000875af1158015611cab573d6000803e3d6000fd5b505050506040513d6000823e3d601f19601f82011682018060405250810190611cd49190613e06565b90508115611dd4576001600081819054906101000a900460070b80929190611cfb9061363c565b91906101000a81548167ffffffffffffffff021916908360070b67ffffffffffffffff1602179055505060008573ffffffffffffffffffffffffffffffffffffffff16600f604051611d4c9061369d565b60006040518083038185875af1925050503d8060008114611d89576040519150601f19603f3d011682016040523d82523d6000602084013e611d8e565b606091505b5050905080611dd2576040517f08c379a0000000000000000000000000000000000000000000000000000000008152600401611dc990613724565b60405180910390fd5b505b949350505050565b6060600061080173ffffffffffffffffffffffffffffffffffffffff16635a9d9a9633876040518363ffffffff1660e01b8152600401611e1d929190613e4f565b6020604051808303816000875af1158015611e3c573d6000803e3d6000fd5b505050506040513d601f19601f82011682018060405250810190611e6091906137f0565b905080611ea2576040517f08c379a0000000000000000000000000000000000000000000000000000000008152600401611e99906144e2565b60405180910390fd5b61080173ffffffffffffffffffffffffffffffffffffffff1663b46a8d6185856040518363ffffffff1660e01b8152600401611edf929190613e4f565b6000604051808303816000875af1158015611efe573d6000803e3d6000fd5b505050506040513d6000823e3d601f19601f82011682018060405250810190611f279190613e06565b9150509392505050565b606061080173ffffffffffffffffffffffffffffffffffffffff1663a66cb605836040518263ffffffff1660e01b8152600401611f6e9190613898565b600060405180830381865afa158015611f8b573d6000803e3d6000fd5b505050506040513d6000823e3d601f19601f82011682018060405250810190611fb491906145e3565b9050919050565b600060018060008282829054906101000a900460070b611fdb919061462c565b92506101000a81548167ffffffffffffffff021916908360070b67ffffffffffffffff16021790555061080173ffffffffffffffffffffffffffffffffffffffff1663ed41d0b684846040518363ffffffff1660e01b815260040161204192919061468c565b6020604051808303816000875af1158015612060573d6000803e3d6000fd5b505050506040513d601f19601f8201168201806040525081019061208491906137f0565b905060018060008282829054906101000a900460070b6120a491906146b5565b92506101000a81548167ffffffffffffffff021916908360070b67ffffffffffffffff16021790555092915050565b606061080173ffffffffffffffffffffffffffffffffffffffff16635431f450836040518263ffffffff1660e01b81526004016121109190613898565b600060405180830381865afa15801561212d573d6000803e3d6000fd5b505050506040513d6000823e3d601f19601f820116820180604052508101906121569190614715565b9050919050565b565b606061080173ffffffffffffffffffffffffffffffffffffffff166385b2d2da836040518263ffffffff1660e01b815260040161219c9190613452565b600060405180830381865afa1580156121b9573d6000803e3d6000fd5b505050506040513d6000823e3d601f19601f820116820180604052508101906121e29190613f72565b9050919050565b600061080073ffffffffffffffffffffffffffffffffffffffff1663b6039895308460006040518463ffffffff1660e01b815260040161222b9392919061490c565b6020604051808303816000875af115801561224a573d6000803e3d6000fd5b505050506040513d601f19601f8201168201806040525081019061226e91906137f0565b9050806122b0576040517f08c379a00000000000000000000000000000000000000000000000000000000081526004016122a7906149bc565b60405180910390fd5b61080073ffffffffffffffffffffffffffffffffffffffff166353266bbb3085856040518463ffffffff1660e01b81526004016122ef939291906149dc565b6020604051808303816000875af115801561230e573d6000803e3d6000fd5b505050506040513d601f19601f8201168201806040525081019061233291906137f0565b50505050565b606061080173ffffffffffffffffffffffffffffffffffffffff16633ce4e3be836040518263ffffffff1660e01b81526004016123759190613452565b6000604051808303816000875af1158015612394573d6000803e3d6000fd5b505050506040513d6000823e3d601f19601f820116820180604052508101906123bd9190613e06565b9050919050565b60608061080173ffffffffffffffffffffffffffffffffffffffff166354be1a28846040518263ffffffff1660e01b81526004016124029190613898565b600060405180830381865afa15801561241f573d6000803e3d6000fd5b505050506040513d6000823e3d601f19601f820116820180604052508101906124489190614b83565b91509150915091565b60405180606001604052806060815260200160608152602001606081525090565b604051806040016040528060608152602001600067ffffffffffffffff1681525090565b6000604051905090565b600080fd5b600080fd5b600073ffffffffffffffffffffffffffffffffffffffff82169050919050565b60006124d5826124aa565b9050919050565b6124e5816124ca565b81146124f057600080fd5b50565b600081359050612502816124dc565b92915050565b600063ffffffff82169050919050565b61252181612508565b811461252c57600080fd5b50565b60008135905061253e81612518565b92915050565b60008115159050919050565b61255981612544565b811461256457600080fd5b50565b60008135905061257681612550565b92915050565b60008060008060808587031215612596576125956124a0565b5b60006125a4878288016124f3565b94505060206125b58782880161252f565b93505060406125c687828801612567565b92505060606125d787828801612567565b91505092959194509250565b60006125ee826124aa565b9050919050565b6125fe816125e3565b811461260957600080fd5b50565b60008135905061261b816125f5565b92915050565b600060208284031215612637576126366124a0565b5b60006126458482850161260c565b91505092915050565b600081519050919050565b600082825260208201905092915050565b60005b8381101561268857808201518184015260208101905061266d565b60008484015250505050565b6000601f19601f8301169050919050565b60006126b08261264e565b6126ba8185612659565b93506126ca81856020860161266a565b6126d381612694565b840191505092915050565b600060208201905081810360008301526126f881846126a5565b905092915050565b600080fd5b600080fd5b7f4e487b7100000000000000000000000000000000000000000000000000000000600052604160045260246000fd5b61274282612694565b810181811067ffffffffffffffff821117156127615761276061270a565b5b80604052505050565b6000612774612496565b90506127808282612739565b919050565b600067ffffffffffffffff8211156127a05761279f61270a565b5b6127a982612694565b9050602081019050919050565b82818337600083830152505050565b60006127d86127d384612785565b61276a565b9050828152602081018484840111156127f4576127f3612705565b5b6127ff8482856127b6565b509392505050565b600082601f83011261281c5761281b612700565b5b813561282c8482602086016127c5565b91505092915050565b60006020828403121561284b5761284a6124a0565b5b600082013567ffffffffffffffff811115612869576128686124a5565b5b61287584828501612807565b91505092915050565b600081519050919050565b600082825260208201905092915050565b60006128a58261287e565b6128af8185612889565b93506128bf81856020860161266a565b6128c881612694565b840191505092915050565b600081519050919050565b600082825260208201905092915050565b6000819050602082019050919050565b6000819050919050565b612912816128ff565b82525050565b600060ff82169050919050565b61292e81612918565b82525050565b60006060830160008301518482036000860152612951828261289a565b91505060208301516129666020860182612909565b5060408301516129796040860182612925565b508091505092915050565b60006129908383612934565b905092915050565b6000602082019050919050565b60006129b0826128d3565b6129ba81856128de565b9350836020820285016129cc856128ef565b8060005b85811015612a0857848403895281516129e98582612984565b94506129f483612998565b925060208a019950506001810190506129d0565b50829750879550505050505092915050565b60006060830160008301518482036000860152612a37828261289a565b91505060208301518482036020860152612a5182826129a5565b91505060408301518482036040860152612a6b82826129a5565b9150508091505092915050565b60006020820190508181036000830152612a928184612a1a565b905092915050565b60008060008060808587031215612ab457612ab36124a0565b5b6000612ac2878288016124f3565b9450506020612ad3878288016124f3565b935050604085013567ffffffffffffffff811115612af457612af36124a5565b5b612b0087828801612807565b9250506060612b1187828801612567565b91505092959194509250565b60008060408385031215612b3457612b336124a0565b5b6000612b428582860161260c565b925050602083013567ffffffffffffffff811115612b6357612b626124a5565b5b612b6f85828601612807565b9150509250929050565b600081519050919050565b600082825260208201905092915050565b6000819050602082019050919050565b60006040830160008301518482036000860152612bc2828261289a565b9150506020830151612bd76020860182612909565b508091505092915050565b6000612bee8383612ba5565b905092915050565b6000602082019050919050565b6000612c0e82612b79565b612c188185612b84565b935083602082028501612c2a85612b95565b8060005b85811015612c665784840389528151612c478582612be2565b9450612c5283612bf6565b925060208a01995050600181019050612c2e565b50829750879550505050505092915050565b60006020820190508181036000830152612c928184612c03565b905092915050565b612ca381612544565b82525050565b6000602082019050612cbe6000830184612c9a565b92915050565b60008060008060808587031215612cde57612cdd6124a0565b5b600085013567ffffffffffffffff811115612cfc57612cfb6124a5565b5b612d0887828801612807565b9450506020612d19878288016124f3565b9350506040612d2a87828801612567565b9250506060612d3b87828801612567565b91505092959194509250565b60008160070b9050919050565b612d5d81612d47565b82525050565b6000602082019050612d786000830184612d54565b92915050565b612d87816128ff565b8114612d9257600080fd5b50565b600081359050612da481612d7e565b92915050565b60008060008060808587031215612dc457612dc36124a0565b5b6000612dd2878288016124f3565b9450506020612de387828801612d95565b9350506040612df487828801612567565b9250506060612e0587828801612567565b91505092959194509250565b60008060408385031215612e2857612e276124a0565b5b6000612e368582860161260c565b9250506020612e478582860161252f565b9150509250929050565b600082825260208201905092915050565b6000612e6d826128d3565b612e778185612e51565b935083602082028501612e89856128ef565b8060005b85811015612ec55784840389528151612ea68582612984565b9450612eb183612998565b925060208a01995050600181019050612e8d565b50829750879550505050505092915050565b60006020820190508181036000830152612ef18184612e62565b905092915050565b600067ffffffffffffffff82169050919050565b612f1681612ef9565b8114612f2157600080fd5b50565b600081359050612f3381612f0d565b92915050565b600080fd5b600060a08284031215612f5457612f53612f39565b5b81905092915050565b60008060008060808587031215612f7757612f766124a0565b5b600085013567ffffffffffffffff811115612f9557612f946124a5565b5b612fa187828801612807565b9450506020612fb287828801612f24565b9350506040612fc387828801612f24565b925050606085013567ffffffffffffffff811115612fe457612fe36124a5565b5b612ff087828801612f3e565b91505092959194509250565b600081519050919050565b600082825260208201905092915050565b6000819050602082019050919050565b61303181612ef9565b82525050565b60408201600082015161304d6000850182612909565b5060208201516130606020850182612925565b50505050565b60608201600082015161307c6000850182613028565b50602082015161308f6020850182613037565b50505050565b60006130a18383613066565b60608301905092915050565b6000602082019050919050565b60006130c582612ffc565b6130cf8185613007565b93506130da83613018565b8060005b8381101561310b5781516130f28882613095565b97506130fd836130ad565b9250506001810190506130de565b5085935050505092915050565b600082825260208201905092915050565b60006131348261264e565b61313e8185613118565b935061314e81856020860161266a565b61315781612694565b840191505092915050565b6000604083016000830151848203600086015261317f8282613129565b91505060208301516131946020860182613028565b508091505092915050565b600060408201905081810360008301526131b981856130ba565b905081810360208301526131cd8184613162565b90509392505050565b600080600080608085870312156131f0576131ef6124a0565b5b60006131fe878288016124f3565b945050602085013567ffffffffffffffff81111561321f5761321e6124a5565b5b61322b87828801612807565b935050604061323c87828801612567565b925050606061324d87828801612567565b91505092959194509250565b600080600060608486031215613272576132716124a0565b5b600084013567ffffffffffffffff8111156132905761328f6124a5565b5b61329c86828701612807565b93505060206132ad8682870161260c565b925050604084013567ffffffffffffffff8111156132ce576132cd6124a5565b5b6132da86828701612807565b9150509250925092565b600081519050919050565b600082825260208201905092915050565b6000819050602082019050919050565b600061331c838361289a565b905092915050565b6000602082019050919050565b600061333c826132e4565b61334681856132ef565b93508360208202850161335885613300565b8060005b8581101561339457848403895281516133758582613310565b945061338083613324565b925060208a0199505060018101905061335c565b50829750879550505050505092915050565b600060208201905081810360008301526133c08184613331565b905092915050565b600080604083850312156133df576133de6124a0565b5b60006133ed8582860161260c565b92505060206133fe85828601612d95565b9150509250929050565b600082825260208201905092915050565b60006134248261287e565b61342e8185613408565b935061343e81856020860161266a565b61344781612694565b840191505092915050565b6000602082019050818103600083015261346c8184613419565b905092915050565b6000806040838503121561348b5761348a6124a0565b5b600083013567ffffffffffffffff8111156134a9576134a86124a5565b5b6134b585828601612807565b92505060206134c685828601612d95565b9150509250929050565b600081519050919050565b600082825260208201905092915050565b6000819050602082019050919050565b60006040830160008301518482036000860152613519828261289a565b9150506020830151848203602086015261353382826129a5565b9150508091505092915050565b600061354c83836134fc565b905092915050565b6000602082019050919050565b600061356c826134d0565b61357681856134db565b935083602082028501613588856134ec565b8060005b858110156135c457848403895281516135a58582613540565b94506135b083613554565b925060208a0199505060018101905061358c565b50829750879550505050505092915050565b600060408201905081810360008301526135f08185613561565b905081810360208301526136048184612e62565b90509392505050565b7f4e487b7100000000000000000000000000000000000000000000000000000000600052601160045260246000fd5b600061364782612d47565b9150677fffffffffffffff82036136615761366061360d565b5b600182019050919050565b600081905092915050565b50565b600061368760008361366c565b915061369282613677565b600082019050919050565b60006136a88261367a565b9150819050919050565b7f4661696c656420746f2073656e6420457468657220746f2064656c656761746f60008201527f7200000000000000000000000000000000000000000000000000000000000000602082015250565b600061370e602183613408565b9150613719826136b2565b604082019050919050565b6000602082019050818103600083015261373d81613701565b9050919050565b6000819050919050565b600061376961376461375f846124aa565b613744565b6124aa565b9050919050565b600061377b8261374e565b9050919050565b600061378d82613770565b9050919050565b61379d81613782565b82525050565b6137ac81612508565b82525050565b60006040820190506137c76000830185613794565b6137d460208301846137a3565b9392505050565b6000815190506137ea81612550565b92915050565b600060208284031215613806576138056124a0565b5b6000613814848285016137db565b91505092915050565b7f6661696c656420746f20636c61696d2072657761726473000000000000000000600082015250565b6000613853601783613408565b915061385e8261381d565b602082019050919050565b6000602082019050818103600083015261388281613846565b9050919050565b613892816125e3565b82525050565b60006020820190506138ad6000830184613889565b92915050565b60006138be8261264e565b6138c8818561366c565b93506138d881856020860161266a565b80840191505092915050565b60006138f082846138b3565b915081905092915050565b7f6661696c65642073746174696343616c6c20746f20707265636f6d70696c6500600082015250565b6000613931601f83613408565b915061393c826138fb565b602082019050919050565b6000602082019050818103600083015261396081613924565b9050919050565b600080fd5b600080fd5b600061398461397f84612785565b61276a565b9050828152602081018484840111156139a05761399f612705565b5b6139ab84828561266a565b509392505050565b600082601f8301126139c8576139c7612700565b5b81516139d8848260208601613971565b91505092915050565b600067ffffffffffffffff8211156139fc576139fb61270a565b5b602082029050602081019050919050565b600080fd5b600081519050613a2181612d7e565b92915050565b613a3081612918565b8114613a3b57600080fd5b50565b600081519050613a4d81613a27565b92915050565b600060608284031215613a6957613a68613967565b5b613a73606061276a565b9050600082015167ffffffffffffffff811115613a9357613a9261396c565b5b613a9f848285016139b3565b6000830152506020613ab384828501613a12565b6020830152506040613ac784828501613a3e565b60408301525092915050565b6000613ae6613ae1846139e1565b61276a565b90508083825260208201905060208402830185811115613b0957613b08613a0d565b5b835b81811015613b5057805167ffffffffffffffff811115613b2e57613b2d612700565b5b808601613b3b8982613a53565b85526020850194505050602081019050613b0b565b5050509392505050565b600082601f830112613b6f57613b6e612700565b5b8151613b7f848260208601613ad3565b91505092915050565b600060608284031215613b9e57613b9d613967565b5b613ba8606061276a565b9050600082015167ffffffffffffffff811115613bc857613bc761396c565b5b613bd4848285016139b3565b600083015250602082015167ffffffffffffffff811115613bf857613bf761396c565b5b613c0484828501613b5a565b602083015250604082015167ffffffffffffffff811115613c2857613c2761396c565b5b613c3484828501613b5a565b60408301525092915050565b600060208284031215613c5657613c556124a0565b5b600082015167ffffffffffffffff811115613c7457613c736124a5565b5b613c8084828501613b88565b91505092915050565b6000604082019050613c9e6000830185613794565b8181036020830152613cb08184613419565b90509392505050565b600067ffffffffffffffff821115613cd457613cd361270a565b5b602082029050602081019050919050565b600060408284031215613cfb57613cfa613967565b5b613d05604061276a565b9050600082015167ffffffffffffffff811115613d2557613d2461396c565b5b613d31848285016139b3565b6000830152506020613d4584828501613a12565b60208301525092915050565b6000613d64613d5f84613cb9565b61276a565b90508083825260208201905060208402830185811115613d8757613d86613a0d565b5b835b81811015613dce57805167ffffffffffffffff811115613dac57613dab612700565b5b808601613db98982613ce5565b85526020850194505050602081019050613d89565b5050509392505050565b600082601f830112613ded57613dec612700565b5b8151613dfd848260208601613d51565b91505092915050565b600060208284031215613e1c57613e1b6124a0565b5b600082015167ffffffffffffffff811115613e3a57613e396124a5565b5b613e4684828501613dd8565b91505092915050565b6000604082019050613e646000830185613889565b8181036020830152613e768184613419565b90509392505050565b7f6661696c65642064656c656761746543616c6c20746f20707265636f6d70696c60008201527f6500000000000000000000000000000000000000000000000000000000000000602082015250565b6000613edb602183613408565b9150613ee682613e7f565b604082019050919050565b60006020820190508181036000830152613f0a81613ece565b9050919050565b613f1a816128ff565b82525050565b6000604082019050613f356000830185613794565b613f426020830184613f11565b9392505050565b6000604082019050613f5e6000830185613889565b613f6b60208301846137a3565b9392505050565b600060208284031215613f8857613f876124a0565b5b600082015167ffffffffffffffff811115613fa657613fa56124a5565b5b613fb284828501613b5a565b91505092915050565b613fc481612ef9565b82525050565b600080fd5b600080fd5b600080fd5b60008083356001602003843603038112613ff657613ff5613fd4565b5b83810192508235915060208301925067ffffffffffffffff82111561401e5761401d613fca565b5b60018202360383131561403457614033613fcf565b5b509250929050565b60006140488385613118565b93506140558385846127b6565b61405e83612694565b840190509392505050565b60006140786020840184612f24565b905092915050565b600061408f6020840184612567565b905092915050565b6140a081612544565b82525050565b600060a083016140b96000840184613fd9565b85830360008701526140cc83828461403c565b925050506140dd6020840184614069565b6140ea6020860182613028565b506140f86040840184614069565b6141056040860182613028565b506141136060840184614080565b6141206060860182614097565b5061412e6080840184614080565b61413b6080860182614097565b508091505092915050565b600060808201905081810360008301526141608187613419565b905061416f6020830186613fbb565b61417c6040830185613fbb565b818103606083015261418e81846140a6565b905095945050505050565b600067ffffffffffffffff8211156141b4576141b361270a565b5b602082029050602081019050919050565b6000815190506141d481612f0d565b92915050565b6000604082840312156141f0576141ef613967565b5b6141fa604061276a565b9050600061420a84828501613a12565b600083015250602061421e84828501613a3e565b60208301525092915050565b6000606082840312156142405761423f613967565b5b61424a604061276a565b9050600061425a848285016141c5565b600083015250602061426e848285016141da565b60208301525092915050565b600061428d61428884614199565b61276a565b905080838252602082019050606084028301858111156142b0576142af613a0d565b5b835b818110156142d957806142c5888261422a565b8452602084019350506060810190506142b2565b5050509392505050565b600082601f8301126142f8576142f7612700565b5b815161430884826020860161427a565b91505092915050565b600067ffffffffffffffff82111561432c5761432b61270a565b5b61433582612694565b9050602081019050919050565b600061435561435084614311565b61276a565b90508281526020810184848401111561437157614370612705565b5b61437c84828561266a565b509392505050565b600082601f83011261439957614398612700565b5b81516143a9848260208601614342565b91505092915050565b6000604082840312156143c8576143c7613967565b5b6143d2604061276a565b9050600082015167ffffffffffffffff8111156143f2576143f161396c565b5b6143fe84828501614384565b6000830152506020614412848285016141c5565b60208301525092915050565b60008060408385031215614435576144346124a0565b5b600083015167ffffffffffffffff811115614453576144526124a5565b5b61445f858286016142e3565b925050602083015167ffffffffffffffff8111156144805761447f6124a5565b5b61448c858286016143b2565b9150509250929050565b7f6661696c656420746f2073657420776974686472617720616464726573730000600082015250565b60006144cc601e83613408565b91506144d782614496565b602082019050919050565b600060208201905081810360008301526144fb816144bf565b9050919050565b600067ffffffffffffffff82111561451d5761451c61270a565b5b602082029050602081019050919050565b600061454161453c84614502565b61276a565b9050808382526020820190506020840283018581111561456457614563613a0d565b5b835b818110156145ab57805167ffffffffffffffff81111561458957614588612700565b5b80860161459689826139b3565b85526020850194505050602081019050614566565b5050509392505050565b600082601f8301126145ca576145c9612700565b5b81516145da84826020860161452e565b91505092915050565b6000602082840312156145f9576145f86124a0565b5b600082015167ffffffffffffffff811115614617576146166124a5565b5b614623848285016145b5565b91505092915050565b600061463782612d47565b915061464283612d47565b925082820190507fffffffffffffffffffffffffffffffffffffffffffffffff80000000000000008112677fffffffffffffff821317156146865761468561360d565b5b92915050565b60006040820190506146a16000830185613889565b6146ae6020830184613f11565b9392505050565b60006146c082612d47565b91506146cb83612d47565b92508282039050677fffffffffffffff81137fffffffffffffffffffffffffffffffffffffffffffffffff80000000000000008212171561470f5761470e61360d565b5b92915050565b60006020828403121561472b5761472a6124a0565b5b600082015167ffffffffffffffff811115614749576147486124a5565b5b614755848285016139b3565b91505092915050565b600081549050919050565b60008190508160005260206000209050919050565b7f4e487b7100000000000000000000000000000000000000000000000000000000600052602260045260246000fd5b600060028204905060018216806147c557607f821691505b6020821081036147d8576147d761477e565b5b50919050565b60008190508160005260206000209050919050565b60008154614800816147ad565b61480a8186612889565b94506001821660008114614825576001811461483b5761486e565b60ff19831686528115156020028601935061486e565b614844856147de565b60005b8381101561486657815481890152600182019150602081019050614847565b808801955050505b50505092915050565b600061488383836147f3565b905092915050565b6000600182019050919050565b60006148a38261475e565b6148ad81856132ef565b9350836020820285016148bf85614769565b8060005b858110156148fa578484038952816148db8582614877565b94506148e68361488b565b925060208a019950506001810190506148c3565b50829750879550505050505092915050565b60006060820190506149216000830186613889565b61492e6020830185613f11565b81810360408301526149408184614898565b9050949350505050565b7f4661696c656420746f20617070726f7665207374616b696e67206d6574686f6460008201527f7300000000000000000000000000000000000000000000000000000000000000602082015250565b60006149a6602183613408565b91506149b18261494a565b604082019050919050565b600060208201905081810360008301526149d581614999565b9050919050565b60006060820190506149f16000830186613889565b8181036020830152614a038185613419565b9050614a126040830184613f11565b949350505050565b600067ffffffffffffffff821115614a3557614a3461270a565b5b602082029050602081019050919050565b600060408284031215614a5c57614a5b613967565b5b614a66604061276a565b9050600082015167ffffffffffffffff811115614a8657614a8561396c565b5b614a92848285016139b3565b600083015250602082015167ffffffffffffffff811115614ab657614ab561396c565b5b614ac284828501613b5a565b60208301525092915050565b6000614ae1614adc84614a1a565b61276a565b90508083825260208201905060208402830185811115614b0457614b03613a0d565b5b835b81811015614b4b57805167ffffffffffffffff811115614b2957614b28612700565b5b808601614b368982614a46565b85526020850194505050602081019050614b06565b5050509392505050565b600082601f830112614b6a57614b69612700565b5b8151614b7a848260208601614ace565b91505092915050565b60008060408385031215614b9a57614b996124a0565b5b600083015167ffffffffffffffff811115614bb857614bb76124a5565b5b614bc485828601614b55565b925050602083015167ffffffffffffffff811115614be557614be46124a5565b5b614bf185828601613b5a565b915050925092905056fea2646970667358221220b7870197a9181fd56661360727de4cbc09f85bc0f76036ed28891cc6b1fd9c4f64736f6c634300081400332f636f736d6f732e7374616b696e672e763162657461312e4d736744656c6567617465",
  "linkReferences": {},
  "deployedLinkReferences": {}
}