{
  "_format": "hh-sol-artifact-1",
  "contractName": "DistributionCaller",
  "sourceName": "contracts/evmos/testutil/contracts/DistributionCaller.sol",
  "abi": [
    {
      "inputs": [],
      "name": "counter",
      "outputs": [
        {
          "internalType": "int64",
          "name": "",
          "type": "int64"
        }
      ],
      "stateMutability": "view",
      "type": "function"
    },
    {
      "inputs": [
        {
          "internalType": "address",
          "name": "_delAddr",
          "type": "address"
        },
        {
          "internalType": "string",
          "name": "_withdrawAddr",
          "type": "string"
        }
      ],
      "name": "delegateCallSetWithdrawAddress",
      "outputs": [],
      "stateMutability": "nonpayable",
      "type": "function"
    },
    {
      "inputs": [
        {
          "internalType": "address",
          "name": "_delAddr",
          "type": "address"
        },
        {
          "internalType": "string",
          "name": "_valAddr",
          "type": "string"
        }
      ],
      "name": "getDelegationRewards",
      "outputs": [
        {
          "components": [
            {
              "internalType": "string",
              "name": "denom",
              "type": "string"
            },
            {
              "internalType": "uint256",
              "name": "amount",
              "type": "uint256"
            },
            {
              "internalType": "uint8",
              "name": "precision",
              "type": "uint8"
            }
          ],
          "internalType": "struct DecCoin[]",
          "name": "",
          "type": "tuple[]"
        }
      ],
      "stateMutability": "view",
      "type": "function"
    },
    {
      "inputs": [
        {
          "internalType": "address",
          "name": "_delAddr",
          "type": "address"
        }
      ],
      "name": "getDelegationTotalRewards",
      "outputs": [
        {
          "components": [
            {
              "internalType": "string",
              "name": "validatorAddress",
              "type": "string"
            },
            {
              "components": [
                {
                  "internalType": "string",
                  "name": "denom",
                  "type": "string"
                },
                {
                  "internalType": "uint256",
                  "name": "amount",
                  "type": "uint256"
                },
                {
                  "internalType": "uint8",
                  "name": "precision",
                  "type": "uint8"
                }
              ],
              "internalType": "struct DecCoin[]",
              "name": "reward",
              "type": "tuple[]"
            }
          ],
          "internalType": "struct DelegationDelegatorReward[]",
          "name": "rewards",
          "type": "tuple[]"
        },
        {
          "components": [
            {
              "internalType": "string",
              "name": "denom",
              "type": "string"
            },
            {
              "internalType": "uint256",
              "name": "amount",
              "type": "uint256"
            },
            {
              "internalType": "uint8",
              "name": "precision",
              "type": "uint8"
            }
          ],
          "internalType": "struct DecCoin[]",
          "name": "total",
          "type": "tuple[]"
        }
      ],
      "stateMutability": "view",
      "type": "function"
    },
    {
      "inputs": [
        {
          "internalType": "address",
          "name": "_delAddr",
          "type": "address"
        }
      ],
      "name": "getDelegatorValidators",
      "outputs": [
        {
          "internalType": "string[]",
          "name": "",
          "type": "string[]"
        }
      ],
      "stateMutability": "view",
      "type": "function"
    },
    {
      "inputs": [
        {
          "internalType": "address",
          "name": "_delAddr",
          "type": "address"
        }
      ],
      "name": "getDelegatorWithdrawAddress",
      "outputs": [
        {
          "internalType": "string",
          "name": "",
          "type": "string"
        }
      ],
      "stateMutability": "view",
      "type": "function"
    },
    {
      "inputs": [
        {
          "internalType": "string",
          "name": "_valAddr",
          "type": "string"
        }
      ],
      "name": "getValidatorCommission",
      "outputs": [
        {
          "components": [
            {
              "internalType": "string",
              "name": "denom",
              "type": "string"
            },
            {
              "internalType": "uint256",
              "name": "amount",
              "type": "uint256"
            },
            {
              "internalType": "uint8",
              "name": "precision",
              "type": "uint8"
            }
          ],
          "internalType": "struct DecCoin[]",
          "name": "",
          "type": "tuple[]"
        }
      ],
      "stateMutability": "view",
      "type": "function"
    },
    {
      "inputs": [
        {
          "internalType": "string",
          "name": "_valAddr",
          "type": "string"
        }
      ],
      "name": "getValidatorDistributionInfo",
      "outputs": [
        {
          "components": [
            {
              "internalType": "string",
              "name": "operatorAddress",
              "type": "string"
            },
            {
              "components": [
                {
                  "internalType": "string",
                  "name": "denom",
                  "type": "string"
                },
                {
                  "internalType": "uint256",
                  "name": "amount",
                  "type": "uint256"
                },
                {
                  "internalType": "uint8",
                  "name": "precision",
                  "type": "uint8"
                }
              ],
              "internalType": "struct DecCoin[]",
              "name": "selfBondRewards",
              "type": "tuple[]"
            },
            {
              "components": [
                {
                  "internalType": "string",
                  "name": "denom",
                  "type": "string"
                },
                {
                  "internalType": "uint256",
                  "name": "amount",
                  "type": "uint256"
                },
                {
                  "internalType": "uint8",
                  "name": "precision",
                  "type": "uint8"
                }
              ],
              "internalType": "struct DecCoin[]",
              "name": "commission",
              "type": "tuple[]"
            }
          ],
          "internalType": "struct ValidatorDistributionInfo",
          "name": "",
          "type": "tuple"
        }
      ],
      "stateMutability": "view",
      "type": "function"
    },
    {
      "inputs": [
        {
          "internalType": "string",
          "name": "_valAddr",
          "type": "string"
        }
      ],
      "name": "getValidatorOutstandingRewards",
      "outputs": [
        {
          "components": [
            {
              "internalType": "string",
              "name": "denom",
              "type": "string"
            },
            {
              "internalType": "uint256",
              "name": "amount",
              "type": "uint256"
            },
            {
              "internalType": "uint8",
              "name": "precision",
              "type": "uint8"
            }
          ],
          "internalType": "struct DecCoin[]",
          "name": "",
          "type": "tuple[]"
        }
      ],
      "stateMutability": "view",
      "type": "function"
    },
    {
      "inputs": [
        {
          "internalType": "string",
          "name": "_valAddr",
          "type": "string"
        },
        {
          "internalType": "uint64",
          "name": "_startingHeight",
          "type": "uint64"
        },
        {
          "internalType": "uint64",
          "name": "_endingHeight",
          "type": "uint64"
        },
        {
          "components": [
            {
              "internalType": "bytes",
              "name": "key",
              "type": "bytes"
            },
            {
              "internalType": "uint64",
              "name": "offset",
              "type": "uint64"
            },
            {
              "internalType": "uint64",
              "name": "limit",
              "type": "uint64"
            },
            {
              "internalType": "bool",
              "name": "countTotal",
              "type": "bool"
            },
            {
              "internalType": "bool",
              "name": "reverse",
              "type": "bool"
            }
          ],
          "internalType": "struct PageRequest",
          "name": "pageRequest",
          "type": "tuple"
        }
      ],
      "name": "getValidatorSlashes",
      "outputs": [
        {
          "components": [
            {
              "internalType": "uint64",
              "name": "validatorPeriod",
              "type": "uint64"
            },
            {
              "components": [
                {
                  "internalType": "uint256",
                  "name": "value",
                  "type": "uint256"
                },
                {
                  "internalType": "uint8",
                  "name": "precision",
                  "type": "uint8"
                }
              ],
              "internalType": "struct Dec",
              "name": "fraction",
              "type": "tuple"
            }
          ],
          "internalType": "struct ValidatorSlashEvent[]",
          "name": "",
          "type": "tuple[]"
        },
        {
          "components": [
            {
              "internalType": "bytes",
              "name": "nextKey",
              "type": "bytes"
            },
            {
              "internalType": "uint64",
              "name": "total",
              "type": "uint64"
            }
          ],
          "internalType": "struct PageResponse",
          "name": "",
          "type": "tuple"
        }
      ],
      "stateMutability": "view",
      "type": "function"
    },
    {
      "inputs": [
        {
          "internalType": "address",
          "name": "_delAddr",
          "type": "address"
        }
      ],
      "name": "staticCallGetWithdrawAddress",
      "outputs": [
        {
          "internalType": "bytes",
          "name": "",
          "type": "bytes"
        }
      ],
      "stateMutability": "view",
      "type": "function"
    },
    {
      "inputs": [
        {
          "internalType": "address",
          "name": "_delAddr",
          "type": "address"
        },
        {
          "internalType": "string",
          "name": "_withdrawAddr",
          "type": "string"
        }
      ],
      "name": "staticCallSetWithdrawAddress",
      "outputs": [],
      "stateMutability": "view",
      "type": "function"
    },
    {
      "inputs": [
        {
          "internalType": "address",
          "name": "_delAddr",
          "type": "address"
        },
        {
          "internalType": "uint32",
          "name": "_maxRetrieve",
          "type": "uint32"
        }
      ],
      "name": "testClaimRewards",
      "outputs": [
        {
          "internalType": "bool",
          "name": "success",
          "type": "bool"
        }
      ],
      "stateMutability": "nonpayable",
      "type": "function"
    },
    {
      "inputs": [
        {
          "internalType": "address",
          "name": "depositor",
          "type": "address"
        },
        {
          "internalType": "uint256",
          "name": "amount",
          "type": "uint256"
        }
      ],
      "name": "testFundCommunityPool",
      "outputs": [
        {
          "internalType": "bool",
          "name": "success",
          "type": "bool"
        }
      ],
      "stateMutability": "nonpayable",
      "type": "function"
    },
    {
      "inputs": [
        {
          "internalType": "string",
          "name": "_withdrawAddr",
          "type": "string"
        },
        {
          "internalType": "address",
          "name": "_delAddr",
          "type": "address"
        },
        {
          "internalType": "string",
          "name": "_valAddr",
          "type": "string"
        }
      ],
      "name": "testRevertState",
      "outputs": [
        {
          "components": [
            {
              "internalType": "string",
              "name": "denom",
              "type": "string"
            },
            {
              "internalType": "uint256",
              "name": "amount",
              "type": "uint256"
            }
          ],
          "internalType": "struct Coin[]",
          "name": "",
          "type": "tuple[]"
        }
      ],
      "stateMutability": "nonpayable",
      "type": "function"
    },
    {
      "inputs": [
        {
          "internalType": "address",
          "name": "_delAddr",
          "type": "address"
        },
        {
          "internalType": "string",
          "name": "_withdrawAddr",
          "type": "string"
        }
      ],
      "name": "testSetWithdrawAddress",
      "outputs": [
        {
          "internalType": "bool",
          "name": "",
          "type": "bool"
        }
      ],
      "stateMutability": "nonpayable",
      "type": "function"
    },
    {
      "inputs": [
        {
          "internalType": "string",
          "name": "_withdrawAddr",
          "type": "string"
        }
      ],
      "name": "testSetWithdrawAddressFromContract",
      "outputs": [
        {
          "internalType": "bool",
          "name": "",
          "type": "bool"
        }
      ],
      "stateMutability": "nonpayable",
      "type": "function"
    },
    {
      "inputs": [
        {
          "internalType": "address",
          "name": "_delAddr",
          "type": "address"
        },
        {
          "internalType": "string",
          "name": "_valAddr",
          "type": "string"
        }
      ],
      "name": "testWithdrawDelegatorRewards",
      "outputs": [
        {
          "components": [
            {
              "internalType": "string",
              "name": "denom",
              "type": "string"
            },
            {
              "internalType": "uint256",
              "name": "amount",
              "type": "uint256"
            }
          ],
          "internalType": "struct Coin[]",
          "name": "",
          "type": "tuple[]"
        }
      ],
      "stateMutability": "nonpayable",
      "type": "function"
    },
    {
      "inputs": [
        {
          "internalType": "string",
          "name": "_valAddr",
          "type": "string"
        }
      ],
      "name": "testWithdrawDelegatorRewardsFromContract",
      "outputs": [
        {
          "components": [
            {
              "internalType": "string",
              "name": "denom",
              "type": "string"
            },
            {
              "internalType": "uint256",
              "name": "amount",
              "type": "uint256"
            }
          ],
          "internalType": "struct Coin[]",
          "name": "",
          "type": "tuple[]"
        }
      ],
      "stateMutability": "nonpayable",
      "type": "function"
    },
    {
      "inputs": [
        {
          "internalType": "string",
          "name": "_valAddr",
          "type": "string"
        }
      ],
      "name": "testWithdrawValidatorCommission",
      "outputs": [
        {
          "components": [
            {
              "internalType": "string",
              "name": "denom",
              "type": "string"
            },
            {
              "internalType": "uint256",
              "name": "amount",
              "type": "uint256"
            }
          ],
          "internalType": "struct Coin[]",
          "name": "",
          "type": "tuple[]"
        }
      ],
      "stateMutability": "nonpayable",
      "type": "function"
    }
  ],
  "bytecode": "0x608060405234801561001057600080fd5b506132a0806100206000396000f3fe608060405234801561001057600080fd5b506004361061012c5760003560e01c806388b2d581116100ad578063c7804bb511610071578063c7804bb5146103c8578063cb85aa0a146103f8578063d3f831be14610428578063e0421e3914610458578063e236c7a6146104885761012c565b806388b2d581146102d7578063963516e4146103085780639819459314610338578063b2d1788314610368578063b6a216ae146103985761012c565b806361bc221a116100f457806361bc221a1461020d5780636f669da41461022b57806378a5dfd11461025b578063796b96d21461028b5780637c9db0bb146102a75761012c565b806301b68000146101315780630c05e9e414610161578063296c60aa146101915780632d0ee16a146101ad57806346e16d34146101dd575b600080fd5b61014b6004803603810190610146919061136e565b6104b9565b604051610158919061142b565b60405180910390f35b61017b60048036038101906101769190611582565b610601565b60405161018891906117c5565b60405180910390f35b6101ab60048036038101906101a691906117e7565b610691565b005b6101c760048036038101906101c29190611582565b6107d2565b6040516101d49190611942565b60405180910390f35b6101f760048036038101906101f291906117e7565b610860565b604051610204919061197f565b60405180910390f35b6102156108ea565b60405161022291906119b6565b60405180910390f35b61024560048036038101906102409190611a0d565b6108fb565b604051610252919061197f565b60405180910390f35b610275600480360381019061027091906117e7565b610985565b6040516102829190611ad3565b60405180910390f35b6102a560048036038101906102a091906117e7565b610a12565b005b6102c160048036038101906102bc9190611582565b610b53565b6040516102ce9190611ad3565b60405180910390f35b6102f160048036038101906102ec9190611b59565b610bdd565b6040516102ff929190611d9b565b60405180910390f35b610322600480360381019061031d9190611582565b610c7b565b60405161032f919061197f565b60405180910390f35b610352600480360381019061034d91906117e7565b610d04565b60405161035f9190611942565b60405180910390f35b610382600480360381019061037d9190611dd2565b610d93565b60405161038f9190611942565b60405180910390f35b6103b260048036038101906103ad919061136e565b610ee8565b6040516103bf9190611f1f565b60405180910390f35b6103e260048036038101906103dd9190611f6d565b610f72565b6040516103ef919061197f565b60405180910390f35b610412600480360381019061040d919061136e565b61108a565b60405161041f9190611ff7565b60405180910390f35b610442600480360381019061043d9190611582565b611114565b60405161044f9190611ad3565b60405180910390f35b610472600480360381019061046d9190611582565b61119e565b60405161047f9190611942565b60405180910390f35b6104a2600480360381019061049d919061136e565b61122a565b6040516104b092919061211f565b60405180910390f35b606060008061080173ffffffffffffffffffffffffffffffffffffffff16846040516024016104e89190612165565b6040516020818303038152906040527f5431f450000000000000000000000000000000000000000000000000000000007bffffffffffffffffffffffffffffffffffffffffffffffffffffffff19166020820180517bffffffffffffffffffffffffffffffffffffffffffffffffffffffff838183161783525050505060405161057291906121bc565b600060405180830381855afa9150503d80600081146105ad576040519150601f19603f3d011682016040523d82523d6000602084013e6105b2565b606091505b5091509150816105f7576040517f08c379a00000000000000000000000000000000000000000000000000000000081526004016105ee9061221f565b60405180910390fd5b8092505050919050565b6106096112b7565b61080173ffffffffffffffffffffffffffffffffffffffff166354212a89836040518263ffffffff1660e01b81526004016106449190611ff7565b600060405180830381865afa158015610661573d6000803e3d6000fd5b505050506040513d6000823e3d601f19601f8201168201806040525081019061068a9190612518565b9050919050565b600061080173ffffffffffffffffffffffffffffffffffffffff1683836040516024016106bf929190612561565b6040516020818303038152906040527f5a9d9a96000000000000000000000000000000000000000000000000000000007bffffffffffffffffffffffffffffffffffffffffffffffffffffffff19166020820180517bffffffffffffffffffffffffffffffffffffffffffffffffffffffff838183161783525050505060405161074991906121bc565b600060405180830381855af49150503d8060008114610784576040519150601f19603f3d011682016040523d82523d6000602084013e610789565b606091505b50509050806107cd576040517f08c379a00000000000000000000000000000000000000000000000000000000081526004016107c490612603565b60405180910390fd5b505050565b606061080173ffffffffffffffffffffffffffffffffffffffff1663b46a8d6130846040518363ffffffff1660e01b8152600401610811929190612561565b6000604051808303816000875af1158015610830573d6000803e3d6000fd5b505050506040513d6000823e3d601f19601f820116820180604052508101906108599190612770565b9050919050565b600061080173ffffffffffffffffffffffffffffffffffffffff16635a9d9a9684846040518363ffffffff1660e01b815260040161089f929190612561565b6020604051808303816000875af11580156108be573d6000803e3d6000fd5b505050506040513d601f19601f820116820180604052508101906108e291906127e5565b905092915050565b60008054906101000a900460070b81565b600061080173ffffffffffffffffffffffffffffffffffffffff16632efe8a5f84846040518363ffffffff1660e01b815260040161093a929190612821565b6020604051808303816000875af1158015610959573d6000803e3d6000fd5b505050506040513d601f19601f8201168201806040525081019061097d91906127e5565b905092915050565b606061080173ffffffffffffffffffffffffffffffffffffffff16639ad563b484846040518363ffffffff1660e01b81526004016109c4929190612561565b600060405180830381865afa1580156109e1573d6000803e3d6000fd5b505050506040513d6000823e3d601f19601f82011682018060405250810190610a0a919061284a565b905092915050565b600061080173ffffffffffffffffffffffffffffffffffffffff168383604051602401610a40929190612561565b6040516020818303038152906040527f5a9d9a96000000000000000000000000000000000000000000000000000000007bffffffffffffffffffffffffffffffffffffffffffffffffffffffff19166020820180517bffffffffffffffffffffffffffffffffffffffffffffffffffffffff8381831617835250505050604051610aca91906121bc565b600060405180830381855afa9150503d8060008114610b05576040519150601f19603f3d011682016040523d82523d6000602084013e610b0a565b606091505b5050905080610b4e576040517f08c379a0000000000000000000000000000000000000000000000000000000008152600401610b459061221f565b60405180910390fd5b505050565b606061080173ffffffffffffffffffffffffffffffffffffffff16633dd40f78836040518263ffffffff1660e01b8152600401610b909190611ff7565b600060405180830381865afa158015610bad573d6000803e3d6000fd5b505050506040513d6000823e3d601f19601f82011682018060405250810190610bd6919061284a565b9050919050565b6060610be76112d8565b61080173ffffffffffffffffffffffffffffffffffffffff16638f2473ce878787876040518563ffffffff1660e01b8152600401610c289493929190612a33565b600060405180830381865afa158015610c45573d6000803e3d6000fd5b505050506040513d6000823e3d601f19601f82011682018060405250810190610c6e9190612d0b565b9150915094509492505050565b600061080173ffffffffffffffffffffffffffffffffffffffff16635a9d9a9630846040518363ffffffff1660e01b8152600401610cba929190612561565b6020604051808303816000875af1158015610cd9573d6000803e3d6000fd5b505050506040513d601f19601f82011682018060405250810190610cfd91906127e5565b9050919050565b606061080173ffffffffffffffffffffffffffffffffffffffff1663b46a8d6184846040518363ffffffff1660e01b8152600401610d43929190612561565b6000604051808303816000875af1158015610d62573d6000803e3d6000fd5b505050506040513d6000823e3d601f19601f82011682018060405250810190610d8b9190612770565b905092915050565b6060600061080173ffffffffffffffffffffffffffffffffffffffff16635a9d9a9633876040518363ffffffff1660e01b8152600401610dd4929190612561565b6020604051808303816000875af1158015610df3573d6000803e3d6000fd5b505050506040513d601f19601f82011682018060405250810190610e1791906127e5565b905080610e59576040517f08c379a0000000000000000000000000000000000000000000000000000000008152600401610e5090612dcf565b60405180910390fd5b61080173ffffffffffffffffffffffffffffffffffffffff1663b46a8d6185856040518363ffffffff1660e01b8152600401610e96929190612561565b6000604051808303816000875af1158015610eb5573d6000803e3d6000fd5b505050506040513d6000823e3d601f19601f82011682018060405250810190610ede9190612770565b9150509392505050565b606061080173ffffffffffffffffffffffffffffffffffffffff1663a66cb605836040518263ffffffff1660e01b8152600401610f259190612165565b600060405180830381865afa158015610f42573d6000803e3d6000fd5b505050506040513d6000823e3d601f19601f82011682018060405250810190610f6b9190612ed0565b9050919050565b600060016000808282829054906101000a900460070b610f929190612f48565b92506101000a81548167ffffffffffffffff021916908360070b67ffffffffffffffff16021790555061080173ffffffffffffffffffffffffffffffffffffffff1663ed41d0b684846040518363ffffffff1660e01b8152600401610ff8929190612fb7565b6020604051808303816000875af1158015611017573d6000803e3d6000fd5b505050506040513d601f19601f8201168201806040525081019061103b91906127e5565b905060016000808282829054906101000a900460070b61105b9190612fe0565b92506101000a81548167ffffffffffffffff021916908360070b67ffffffffffffffff16021790555092915050565b606061080173ffffffffffffffffffffffffffffffffffffffff16635431f450836040518263ffffffff1660e01b81526004016110c79190612165565b600060405180830381865afa1580156110e4573d6000803e3d6000fd5b505050506040513d6000823e3d601f19601f8201168201806040525081019061110d9190613040565b9050919050565b606061080173ffffffffffffffffffffffffffffffffffffffff166385b2d2da836040518263ffffffff1660e01b81526004016111519190611ff7565b600060405180830381865afa15801561116e573d6000803e3d6000fd5b505050506040513d6000823e3d601f19601f82011682018060405250810190611197919061284a565b9050919050565b606061080173ffffffffffffffffffffffffffffffffffffffff16633ce4e3be836040518263ffffffff1660e01b81526004016111db9190611ff7565b6000604051808303816000875af11580156111fa573d6000803e3d6000fd5b505050506040513d6000823e3d601f19601f820116820180604052508101906112239190612770565b9050919050565b60608061080173ffffffffffffffffffffffffffffffffffffffff166354be1a28846040518263ffffffff1660e01b81526004016112689190612165565b600060405180830381865afa158015611285573d6000803e3d6000fd5b505050506040513d6000823e3d601f19601f820116820180604052508101906112ae91906131f2565b91509150915091565b60405180606001604052806060815260200160608152602001606081525090565b604051806040016040528060608152602001600067ffffffffffffffff1681525090565b6000604051905090565b600080fd5b600080fd5b600073ffffffffffffffffffffffffffffffffffffffff82169050919050565b600061133b82611310565b9050919050565b61134b81611330565b811461135657600080fd5b50565b60008135905061136881611342565b92915050565b60006020828403121561138457611383611306565b5b600061139284828501611359565b91505092915050565b600081519050919050565b600082825260208201905092915050565b60005b838110156113d55780820151818401526020810190506113ba565b60008484015250505050565b6000601f19601f8301169050919050565b60006113fd8261139b565b61140781856113a6565b93506114178185602086016113b7565b611420816113e1565b840191505092915050565b6000602082019050818103600083015261144581846113f2565b905092915050565b600080fd5b600080fd5b7f4e487b7100000000000000000000000000000000000000000000000000000000600052604160045260246000fd5b61148f826113e1565b810181811067ffffffffffffffff821117156114ae576114ad611457565b5b80604052505050565b60006114c16112fc565b90506114cd8282611486565b919050565b600067ffffffffffffffff8211156114ed576114ec611457565b5b6114f6826113e1565b9050602081019050919050565b82818337600083830152505050565b6000611525611520846114d2565b6114b7565b90508281526020810184848401111561154157611540611452565b5b61154c848285611503565b509392505050565b600082601f8301126115695761156861144d565b5b8135611579848260208601611512565b91505092915050565b60006020828403121561159857611597611306565b5b600082013567ffffffffffffffff8111156115b6576115b561130b565b5b6115c284828501611554565b91505092915050565b600081519050919050565b600082825260208201905092915050565b60006115f2826115cb565b6115fc81856115d6565b935061160c8185602086016113b7565b611615816113e1565b840191505092915050565b600081519050919050565b600082825260208201905092915050565b6000819050602082019050919050565b6000819050919050565b61165f8161164c565b82525050565b600060ff82169050919050565b61167b81611665565b82525050565b6000606083016000830151848203600086015261169e82826115e7565b91505060208301516116b36020860182611656565b5060408301516116c66040860182611672565b508091505092915050565b60006116dd8383611681565b905092915050565b6000602082019050919050565b60006116fd82611620565b611707818561162b565b9350836020820285016117198561163c565b8060005b85811015611755578484038952815161173685826116d1565b9450611741836116e5565b925060208a0199505060018101905061171d565b50829750879550505050505092915050565b6000606083016000830151848203600086015261178482826115e7565b9150506020830151848203602086015261179e82826116f2565b915050604083015184820360408601526117b882826116f2565b9150508091505092915050565b600060208201905081810360008301526117df8184611767565b905092915050565b600080604083850312156117fe576117fd611306565b5b600061180c85828601611359565b925050602083013567ffffffffffffffff81111561182d5761182c61130b565b5b61183985828601611554565b9150509250929050565b600081519050919050565b600082825260208201905092915050565b6000819050602082019050919050565b6000604083016000830151848203600086015261188c82826115e7565b91505060208301516118a16020860182611656565b508091505092915050565b60006118b8838361186f565b905092915050565b6000602082019050919050565b60006118d882611843565b6118e2818561184e565b9350836020820285016118f48561185f565b8060005b85811015611930578484038952815161191185826118ac565b945061191c836118c0565b925060208a019950506001810190506118f8565b50829750879550505050505092915050565b6000602082019050818103600083015261195c81846118cd565b905092915050565b60008115159050919050565b61197981611964565b82525050565b60006020820190506119946000830184611970565b92915050565b60008160070b9050919050565b6119b08161199a565b82525050565b60006020820190506119cb60008301846119a7565b92915050565b600063ffffffff82169050919050565b6119ea816119d1565b81146119f557600080fd5b50565b600081359050611a07816119e1565b92915050565b60008060408385031215611a2457611a23611306565b5b6000611a3285828601611359565b9250506020611a43858286016119f8565b9150509250929050565b600082825260208201905092915050565b6000611a6982611620565b611a738185611a4d565b935083602082028501611a858561163c565b8060005b85811015611ac15784840389528151611aa285826116d1565b9450611aad836116e5565b925060208a01995050600181019050611a89565b50829750879550505050505092915050565b60006020820190508181036000830152611aed8184611a5e565b905092915050565b600067ffffffffffffffff82169050919050565b611b1281611af5565b8114611b1d57600080fd5b50565b600081359050611b2f81611b09565b92915050565b600080fd5b600060a08284031215611b5057611b4f611b35565b5b81905092915050565b60008060008060808587031215611b7357611b72611306565b5b600085013567ffffffffffffffff811115611b9157611b9061130b565b5b611b9d87828801611554565b9450506020611bae87828801611b20565b9350506040611bbf87828801611b20565b925050606085013567ffffffffffffffff811115611be057611bdf61130b565b5b611bec87828801611b3a565b91505092959194509250565b600081519050919050565b600082825260208201905092915050565b6000819050602082019050919050565b611c2d81611af5565b82525050565b604082016000820151611c496000850182611656565b506020820151611c5c6020850182611672565b50505050565b606082016000820151611c786000850182611c24565b506020820151611c8b6020850182611c33565b50505050565b6000611c9d8383611c62565b60608301905092915050565b6000602082019050919050565b6000611cc182611bf8565b611ccb8185611c03565b9350611cd683611c14565b8060005b83811015611d07578151611cee8882611c91565b9750611cf983611ca9565b925050600181019050611cda565b5085935050505092915050565b600082825260208201905092915050565b6000611d308261139b565b611d3a8185611d14565b9350611d4a8185602086016113b7565b611d53816113e1565b840191505092915050565b60006040830160008301518482036000860152611d7b8282611d25565b9150506020830151611d906020860182611c24565b508091505092915050565b60006040820190508181036000830152611db58185611cb6565b90508181036020830152611dc98184611d5e565b90509392505050565b600080600060608486031215611deb57611dea611306565b5b600084013567ffffffffffffffff811115611e0957611e0861130b565b5b611e1586828701611554565b9350506020611e2686828701611359565b925050604084013567ffffffffffffffff811115611e4757611e4661130b565b5b611e5386828701611554565b9150509250925092565b600081519050919050565b600082825260208201905092915050565b6000819050602082019050919050565b6000611e9583836115e7565b905092915050565b6000602082019050919050565b6000611eb582611e5d565b611ebf8185611e68565b935083602082028501611ed185611e79565b8060005b85811015611f0d5784840389528151611eee8582611e89565b9450611ef983611e9d565b925060208a01995050600181019050611ed5565b50829750879550505050505092915050565b60006020820190508181036000830152611f398184611eaa565b905092915050565b611f4a8161164c565b8114611f5557600080fd5b50565b600081359050611f6781611f41565b92915050565b60008060408385031215611f8457611f83611306565b5b6000611f9285828601611359565b9250506020611fa385828601611f58565b9150509250929050565b600082825260208201905092915050565b6000611fc9826115cb565b611fd38185611fad565b9350611fe38185602086016113b7565b611fec816113e1565b840191505092915050565b600060208201905081810360008301526120118184611fbe565b905092915050565b600081519050919050565b600082825260208201905092915050565b6000819050602082019050919050565b6000604083016000830151848203600086015261206282826115e7565b9150506020830151848203602086015261207c82826116f2565b9150508091505092915050565b60006120958383612045565b905092915050565b6000602082019050919050565b60006120b582612019565b6120bf8185612024565b9350836020820285016120d185612035565b8060005b8581101561210d57848403895281516120ee8582612089565b94506120f98361209d565b925060208a019950506001810190506120d5565b50829750879550505050505092915050565b6000604082019050818103600083015261213981856120aa565b9050818103602083015261214d8184611a5e565b90509392505050565b61215f81611330565b82525050565b600060208201905061217a6000830184612156565b92915050565b600081905092915050565b60006121968261139b565b6121a08185612180565b93506121b08185602086016113b7565b80840191505092915050565b60006121c8828461218b565b915081905092915050565b7f6661696c65642073746174696343616c6c20746f20707265636f6d70696c6500600082015250565b6000612209601f83611fad565b9150612214826121d3565b602082019050919050565b60006020820190508181036000830152612238816121fc565b9050919050565b600080fd5b600080fd5b600061225c612257846114d2565b6114b7565b90508281526020810184848401111561227857612277611452565b5b6122838482856113b7565b509392505050565b600082601f8301126122a05761229f61144d565b5b81516122b0848260208601612249565b91505092915050565b600067ffffffffffffffff8211156122d4576122d3611457565b5b602082029050602081019050919050565b600080fd5b6000815190506122f981611f41565b92915050565b61230881611665565b811461231357600080fd5b50565b600081519050612325816122ff565b92915050565b6000606082840312156123415761234061223f565b5b61234b60606114b7565b9050600082015167ffffffffffffffff81111561236b5761236a612244565b5b6123778482850161228b565b600083015250602061238b848285016122ea565b602083015250604061239f84828501612316565b60408301525092915050565b60006123be6123b9846122b9565b6114b7565b905080838252602082019050602084028301858111156123e1576123e06122e5565b5b835b8181101561242857805167ffffffffffffffff8111156124065761240561144d565b5b808601612413898261232b565b855260208501945050506020810190506123e3565b5050509392505050565b600082601f8301126124475761244661144d565b5b81516124578482602086016123ab565b91505092915050565b6000606082840312156124765761247561223f565b5b61248060606114b7565b9050600082015167ffffffffffffffff8111156124a05761249f612244565b5b6124ac8482850161228b565b600083015250602082015167ffffffffffffffff8111156124d0576124cf612244565b5b6124dc84828501612432565b602083015250604082015167ffffffffffffffff811115612500576124ff612244565b5b61250c84828501612432565b60408301525092915050565b60006020828403121561252e5761252d611306565b5b600082015167ffffffffffffffff81111561254c5761254b61130b565b5b61255884828501612460565b91505092915050565b60006040820190506125766000830185612156565b81810360208301526125888184611fbe565b90509392505050565b7f6661696c65642064656c656761746543616c6c20746f20707265636f6d70696c60008201527f6500000000000000000000000000000000000000000000000000000000000000602082015250565b60006125ed602183611fad565b91506125f882612591565b604082019050919050565b6000602082019050818103600083015261261c816125e0565b9050919050565b600067ffffffffffffffff82111561263e5761263d611457565b5b602082029050602081019050919050565b6000604082840312156126655761266461223f565b5b61266f60406114b7565b9050600082015167ffffffffffffffff81111561268f5761268e612244565b5b61269b8482850161228b565b60008301525060206126af848285016122ea565b60208301525092915050565b60006126ce6126c984612623565b6114b7565b905080838252602082019050602084028301858111156126f1576126f06122e5565b5b835b8181101561273857805167ffffffffffffffff8111156127165761271561144d565b5b808601612723898261264f565b855260208501945050506020810190506126f3565b5050509392505050565b600082601f8301126127575761275661144d565b5b81516127678482602086016126bb565b91505092915050565b60006020828403121561278657612785611306565b5b600082015167ffffffffffffffff8111156127a4576127a361130b565b5b6127b084828501612742565b91505092915050565b6127c281611964565b81146127cd57600080fd5b50565b6000815190506127df816127b9565b92915050565b6000602082840312156127fb576127fa611306565b5b6000612809848285016127d0565b91505092915050565b61281b816119d1565b82525050565b60006040820190506128366000830185612156565b6128436020830184612812565b9392505050565b6000602082840312156128605761285f611306565b5b600082015167ffffffffffffffff81111561287e5761287d61130b565b5b61288a84828501612432565b91505092915050565b61289c81611af5565b82525050565b600080fd5b600080fd5b600080fd5b600080833560016020038436030381126128ce576128cd6128ac565b5b83810192508235915060208301925067ffffffffffffffff8211156128f6576128f56128a2565b5b60018202360383131561290c5761290b6128a7565b5b509250929050565b60006129208385611d14565b935061292d838584611503565b612936836113e1565b840190509392505050565b60006129506020840184611b20565b905092915050565b600081359050612967816127b9565b92915050565b600061297c6020840184612958565b905092915050565b61298d81611964565b82525050565b600060a083016129a660008401846128b1565b85830360008701526129b9838284612914565b925050506129ca6020840184612941565b6129d76020860182611c24565b506129e56040840184612941565b6129f26040860182611c24565b50612a00606084018461296d565b612a0d6060860182612984565b50612a1b608084018461296d565b612a286080860182612984565b508091505092915050565b60006080820190508181036000830152612a4d8187611fbe565b9050612a5c6020830186612893565b612a696040830185612893565b8181036060830152612a7b8184612993565b905095945050505050565b600067ffffffffffffffff821115612aa157612aa0611457565b5b602082029050602081019050919050565b600081519050612ac181611b09565b92915050565b600060408284031215612add57612adc61223f565b5b612ae760406114b7565b90506000612af7848285016122ea565b6000830152506020612b0b84828501612316565b60208301525092915050565b600060608284031215612b2d57612b2c61223f565b5b612b3760406114b7565b90506000612b4784828501612ab2565b6000830152506020612b5b84828501612ac7565b60208301525092915050565b6000612b7a612b7584612a86565b6114b7565b90508083825260208201905060608402830185811115612b9d57612b9c6122e5565b5b835b81811015612bc65780612bb28882612b17565b845260208401935050606081019050612b9f565b5050509392505050565b600082601f830112612be557612be461144d565b5b8151612bf5848260208601612b67565b91505092915050565b600067ffffffffffffffff821115612c1957612c18611457565b5b612c22826113e1565b9050602081019050919050565b6000612c42612c3d84612bfe565b6114b7565b905082815260208101848484011115612c5e57612c5d611452565b5b612c698482856113b7565b509392505050565b600082601f830112612c8657612c8561144d565b5b8151612c96848260208601612c2f565b91505092915050565b600060408284031215612cb557612cb461223f565b5b612cbf60406114b7565b9050600082015167ffffffffffffffff811115612cdf57612cde612244565b5b612ceb84828501612c71565b6000830152506020612cff84828501612ab2565b60208301525092915050565b60008060408385031215612d2257612d21611306565b5b600083015167ffffffffffffffff811115612d4057612d3f61130b565b5b612d4c85828601612bd0565b925050602083015167ffffffffffffffff811115612d6d57612d6c61130b565b5b612d7985828601612c9f565b9150509250929050565b7f6661696c656420746f2073657420776974686472617720616464726573730000600082015250565b6000612db9601e83611fad565b9150612dc482612d83565b602082019050919050565b60006020820190508181036000830152612de881612dac565b9050919050565b600067ffffffffffffffff821115612e0a57612e09611457565b5b602082029050602081019050919050565b6000612e2e612e2984612def565b6114b7565b90508083825260208201905060208402830185811115612e5157612e506122e5565b5b835b81811015612e9857805167ffffffffffffffff811115612e7657612e7561144d565b5b808601612e83898261228b565b85526020850194505050602081019050612e53565b5050509392505050565b600082601f830112612eb757612eb661144d565b5b8151612ec7848260208601612e1b565b91505092915050565b600060208284031215612ee657612ee5611306565b5b600082015167ffffffffffffffff811115612f0457612f0361130b565b5b612f1084828501612ea2565b91505092915050565b7f4e487b7100000000000000000000000000000000000000000000000000000000600052601160045260246000fd5b6000612f538261199a565b9150612f5e8361199a565b925082820190507fffffffffffffffffffffffffffffffffffffffffffffffff80000000000000008112677fffffffffffffff82131715612fa257612fa1612f19565b5b92915050565b612fb18161164c565b82525050565b6000604082019050612fcc6000830185612156565b612fd96020830184612fa8565b9392505050565b6000612feb8261199a565b9150612ff68361199a565b92508282039050677fffffffffffffff81137fffffffffffffffffffffffffffffffffffffffffffffffff80000000000000008212171561303a57613039612f19565b5b92915050565b60006020828403121561305657613055611306565b5b600082015167ffffffffffffffff8111156130745761307361130b565b5b6130808482850161228b565b91505092915050565b600067ffffffffffffffff8211156130a4576130a3611457565b5b602082029050602081019050919050565b6000604082840312156130cb576130ca61223f565b5b6130d560406114b7565b9050600082015167ffffffffffffffff8111156130f5576130f4612244565b5b6131018482850161228b565b600083015250602082015167ffffffffffffffff81111561312557613124612244565b5b61313184828501612432565b60208301525092915050565b600061315061314b84613089565b6114b7565b90508083825260208201905060208402830185811115613173576131726122e5565b5b835b818110156131ba57805167ffffffffffffffff8111156131985761319761144d565b5b8086016131a589826130b5565b85526020850194505050602081019050613175565b5050509392505050565b600082601f8301126131d9576131d861144d565b5b81516131e984826020860161313d565b91505092915050565b6000806040838503121561320957613208611306565b5b600083015167ffffffffffffffff8111156132275761322661130b565b5b613233858286016131c4565b925050602083015167ffffffffffffffff8111156132545761325361130b565b5b61326085828601612432565b915050925092905056fea264697066735822122022c4c45617cec8e8fb23d26751ccea010d2d97bdfd923429fde8a91fdc86e73964736f6c63430008120033",
  "linkReferences": {},
  "deployedLinkReferences": {}
}