{
  "_format": "hh-sol-artifact-1",
  "contractName": "DistributionCaller",
  "sourceName": "contracts/evmos/testutil/contracts/DistributionCaller.sol",
  "abi": [
    {
      "inputs": [],
      "name": "counter",
      "outputs": [
        {
          "internalType": "int64",
          "name": "",
          "type": "int64"
        }
      ],
      "stateMutability": "view",
      "type": "function"
    },
    {
      "inputs": [
        {
          "internalType": "address",
          "name": "_delAddr",
          "type": "address"
        },
        {
          "internalType": "string",
          "name": "_withdrawAddr",
          "type": "string"
        }
      ],
      "name": "delegateCallSetWithdrawAddress",
      "outputs": [],
      "stateMutability": "nonpayable",
      "type": "function"
    },
    {
      "inputs": [],
      "name": "deposit",
      "outputs": [],
      "stateMutability": "payable",
      "type": "function"
    },
    {
      "inputs": [
        {
          "internalType": "address",
          "name": "_delAddr",
          "type": "address"
        },
        {
          "internalType": "string",
          "name": "_valAddr",
          "type": "string"
        }
      ],
      "name": "getDelegationRewards",
      "outputs": [
        {
          "components": [
            {
              "internalType": "string",
              "name": "denom",
              "type": "string"
            },
            {
              "internalType": "uint256",
              "name": "amount",
              "type": "uint256"
            },
            {
              "internalType": "uint8",
              "name": "precision",
              "type": "uint8"
            }
          ],
          "internalType": "struct DecCoin[]",
          "name": "",
          "type": "tuple[]"
        }
      ],
      "stateMutability": "view",
      "type": "function"
    },
    {
      "inputs": [
        {
          "internalType": "address",
          "name": "_delAddr",
          "type": "address"
        }
      ],
      "name": "getDelegationTotalRewards",
      "outputs": [
        {
          "components": [
            {
              "internalType": "string",
              "name": "validatorAddress",
              "type": "string"
            },
            {
              "components": [
                {
                  "internalType": "string",
                  "name": "denom",
                  "type": "string"
                },
                {
                  "internalType": "uint256",
                  "name": "amount",
                  "type": "uint256"
                },
                {
                  "internalType": "uint8",
                  "name": "precision",
                  "type": "uint8"
                }
              ],
              "internalType": "struct DecCoin[]",
              "name": "reward",
              "type": "tuple[]"
            }
          ],
          "internalType": "struct DelegationDelegatorReward[]",
          "name": "rewards",
          "type": "tuple[]"
        },
        {
          "components": [
            {
              "internalType": "string",
              "name": "denom",
              "type": "string"
            },
            {
              "internalType": "uint256",
              "name": "amount",
              "type": "uint256"
            },
            {
              "internalType": "uint8",
              "name": "precision",
              "type": "uint8"
            }
          ],
          "internalType": "struct DecCoin[]",
          "name": "total",
          "type": "tuple[]"
        }
      ],
      "stateMutability": "view",
      "type": "function"
    },
    {
      "inputs": [
        {
          "internalType": "address",
          "name": "_delAddr",
          "type": "address"
        }
      ],
      "name": "getDelegatorValidators",
      "outputs": [
        {
          "internalType": "string[]",
          "name": "",
          "type": "string[]"
        }
      ],
      "stateMutability": "view",
      "type": "function"
    },
    {
      "inputs": [
        {
          "internalType": "address",
          "name": "_delAddr",
          "type": "address"
        }
      ],
      "name": "getDelegatorWithdrawAddress",
      "outputs": [
        {
          "internalType": "string",
          "name": "",
          "type": "string"
        }
      ],
      "stateMutability": "view",
      "type": "function"
    },
    {
      "inputs": [
        {
          "internalType": "string",
          "name": "_valAddr",
          "type": "string"
        }
      ],
      "name": "getValidatorCommission",
      "outputs": [
        {
          "components": [
            {
              "internalType": "string",
              "name": "denom",
              "type": "string"
            },
            {
              "internalType": "uint256",
              "name": "amount",
              "type": "uint256"
            },
            {
              "internalType": "uint8",
              "name": "precision",
              "type": "uint8"
            }
          ],
          "internalType": "struct DecCoin[]",
          "name": "",
          "type": "tuple[]"
        }
      ],
      "stateMutability": "view",
      "type": "function"
    },
    {
      "inputs": [
        {
          "internalType": "string",
          "name": "_valAddr",
          "type": "string"
        }
      ],
      "name": "getValidatorDistributionInfo",
      "outputs": [
        {
          "components": [
            {
              "internalType": "string",
              "name": "operatorAddress",
              "type": "string"
            },
            {
              "components": [
                {
                  "internalType": "string",
                  "name": "denom",
                  "type": "string"
                },
                {
                  "internalType": "uint256",
                  "name": "amount",
                  "type": "uint256"
                },
                {
                  "internalType": "uint8",
                  "name": "precision",
                  "type": "uint8"
                }
              ],
              "internalType": "struct DecCoin[]",
              "name": "selfBondRewards",
              "type": "tuple[]"
            },
            {
              "components": [
                {
                  "internalType": "string",
                  "name": "denom",
                  "type": "string"
                },
                {
                  "internalType": "uint256",
                  "name": "amount",
                  "type": "uint256"
                },
                {
                  "internalType": "uint8",
                  "name": "precision",
                  "type": "uint8"
                }
              ],
              "internalType": "struct DecCoin[]",
              "name": "commission",
              "type": "tuple[]"
            }
          ],
          "internalType": "struct ValidatorDistributionInfo",
          "name": "",
          "type": "tuple"
        }
      ],
      "stateMutability": "view",
      "type": "function"
    },
    {
      "inputs": [
        {
          "internalType": "string",
          "name": "_valAddr",
          "type": "string"
        }
      ],
      "name": "getValidatorOutstandingRewards",
      "outputs": [
        {
          "components": [
            {
              "internalType": "string",
              "name": "denom",
              "type": "string"
            },
            {
              "internalType": "uint256",
              "name": "amount",
              "type": "uint256"
            },
            {
              "internalType": "uint8",
              "name": "precision",
              "type": "uint8"
            }
          ],
          "internalType": "struct DecCoin[]",
          "name": "",
          "type": "tuple[]"
        }
      ],
      "stateMutability": "view",
      "type": "function"
    },
    {
      "inputs": [
        {
          "internalType": "string",
          "name": "_valAddr",
          "type": "string"
        },
        {
          "internalType": "uint64",
          "name": "_startingHeight",
          "type": "uint64"
        },
        {
          "internalType": "uint64",
          "name": "_endingHeight",
          "type": "uint64"
        },
        {
          "components": [
            {
              "internalType": "bytes",
              "name": "key",
              "type": "bytes"
            },
            {
              "internalType": "uint64",
              "name": "offset",
              "type": "uint64"
            },
            {
              "internalType": "uint64",
              "name": "limit",
              "type": "uint64"
            },
            {
              "internalType": "bool",
              "name": "countTotal",
              "type": "bool"
            },
            {
              "internalType": "bool",
              "name": "reverse",
              "type": "bool"
            }
          ],
          "internalType": "struct PageRequest",
          "name": "pageRequest",
          "type": "tuple"
        }
      ],
      "name": "getValidatorSlashes",
      "outputs": [
        {
          "components": [
            {
              "internalType": "uint64",
              "name": "validatorPeriod",
              "type": "uint64"
            },
            {
              "components": [
                {
                  "internalType": "uint256",
                  "name": "value",
                  "type": "uint256"
                },
                {
                  "internalType": "uint8",
                  "name": "precision",
                  "type": "uint8"
                }
              ],
              "internalType": "struct Dec",
              "name": "fraction",
              "type": "tuple"
            }
          ],
          "internalType": "struct ValidatorSlashEvent[]",
          "name": "",
          "type": "tuple[]"
        },
        {
          "components": [
            {
              "internalType": "bytes",
              "name": "nextKey",
              "type": "bytes"
            },
            {
              "internalType": "uint64",
              "name": "total",
              "type": "uint64"
            }
          ],
          "internalType": "struct PageResponse",
          "name": "",
          "type": "tuple"
        }
      ],
      "stateMutability": "view",
      "type": "function"
    },
    {
      "inputs": [
        {
          "internalType": "address",
          "name": "_delAddr",
          "type": "address"
        }
      ],
      "name": "staticCallGetWithdrawAddress",
      "outputs": [
        {
          "internalType": "bytes",
          "name": "",
          "type": "bytes"
        }
      ],
      "stateMutability": "view",
      "type": "function"
    },
    {
      "inputs": [
        {
          "internalType": "address",
          "name": "_delAddr",
          "type": "address"
        },
        {
          "internalType": "string",
          "name": "_withdrawAddr",
          "type": "string"
        }
      ],
      "name": "staticCallSetWithdrawAddress",
      "outputs": [],
      "stateMutability": "view",
      "type": "function"
    },
    {
      "inputs": [
        {
          "internalType": "address",
          "name": "_delAddr",
          "type": "address"
        },
        {
          "internalType": "uint32",
          "name": "_maxRetrieve",
          "type": "uint32"
        }
      ],
      "name": "testClaimRewards",
      "outputs": [
        {
          "internalType": "bool",
          "name": "success",
          "type": "bool"
        }
      ],
      "stateMutability": "nonpayable",
      "type": "function"
    },
    {
      "inputs": [
        {
          "internalType": "address",
          "name": "depositor",
          "type": "address"
        },
        {
          "internalType": "uint256",
          "name": "amount",
          "type": "uint256"
        }
      ],
      "name": "testFundCommunityPool",
      "outputs": [
        {
          "internalType": "bool",
          "name": "success",
          "type": "bool"
        }
      ],
      "stateMutability": "nonpayable",
      "type": "function"
    },
    {
      "inputs": [
        {
          "internalType": "string",
          "name": "_withdrawAddr",
          "type": "string"
        },
        {
          "internalType": "address",
          "name": "_delAddr",
          "type": "address"
        },
        {
          "internalType": "string",
          "name": "_valAddr",
          "type": "string"
        }
      ],
      "name": "testRevertState",
      "outputs": [
        {
          "components": [
            {
              "internalType": "string",
              "name": "denom",
              "type": "string"
            },
            {
              "internalType": "uint256",
              "name": "amount",
              "type": "uint256"
            }
          ],
          "internalType": "struct Coin[]",
          "name": "",
          "type": "tuple[]"
        }
      ],
      "stateMutability": "nonpayable",
      "type": "function"
    },
    {
      "inputs": [
        {
          "internalType": "address",
          "name": "_delAddr",
          "type": "address"
        },
        {
          "internalType": "string",
          "name": "_withdrawAddr",
          "type": "string"
        }
      ],
      "name": "testSetWithdrawAddress",
      "outputs": [
        {
          "internalType": "bool",
          "name": "",
          "type": "bool"
        }
      ],
      "stateMutability": "nonpayable",
      "type": "function"
    },
    {
      "inputs": [
        {
          "internalType": "string",
          "name": "_withdrawAddr",
          "type": "string"
        }
      ],
      "name": "testSetWithdrawAddressFromContract",
      "outputs": [
        {
          "internalType": "bool",
          "name": "",
          "type": "bool"
        }
      ],
      "stateMutability": "nonpayable",
      "type": "function"
    },
    {
      "inputs": [
        {
          "internalType": "address",
          "name": "_delAddr",
          "type": "address"
        },
        {
          "internalType": "string",
          "name": "_valAddr",
          "type": "string"
        }
      ],
      "name": "testWithdrawDelegatorRewards",
      "outputs": [
        {
          "components": [
            {
              "internalType": "string",
              "name": "denom",
              "type": "string"
            },
            {
              "internalType": "uint256",
              "name": "amount",
              "type": "uint256"
            }
          ],
          "internalType": "struct Coin[]",
          "name": "",
          "type": "tuple[]"
        }
      ],
      "stateMutability": "nonpayable",
      "type": "function"
    },
    {
      "inputs": [
        {
          "internalType": "string",
          "name": "_valAddr",
          "type": "string"
        }
      ],
      "name": "testWithdrawDelegatorRewardsFromContract",
      "outputs": [
        {
          "components": [
            {
              "internalType": "string",
              "name": "denom",
              "type": "string"
            },
            {
              "internalType": "uint256",
              "name": "amount",
              "type": "uint256"
            }
          ],
          "internalType": "struct Coin[]",
          "name": "",
          "type": "tuple[]"
        }
      ],
      "stateMutability": "nonpayable",
      "type": "function"
    },
    {
      "inputs": [
        {
          "internalType": "string",
          "name": "_valAddr",
          "type": "string"
        }
      ],
      "name": "testWithdrawValidatorCommission",
      "outputs": [
        {
          "components": [
            {
              "internalType": "string",
              "name": "denom",
              "type": "string"
            },
            {
              "internalType": "uint256",
              "name": "amount",
              "type": "uint256"
            }
          ],
          "internalType": "struct Coin[]",
          "name": "",
          "type": "tuple[]"
        }
      ],
      "stateMutability": "nonpayable",
      "type": "function"
    }
  ],
  "bytecode": "0x608060405234801561001057600080fd5b506133ae806100206000396000f3fe60806040526004361061012a5760003560e01c806388b2d581116100ab578063c7804bb51161006f578063c7804bb514610489578063cb85aa0a146104c6578063d0e30db014610503578063d3f831be1461050d578063e0421e391461054a578063e236c7a6146105875761012a565b806388b2d58114610357578063963516e41461039557806398194593146103d2578063b2d178831461040f578063b6a216ae1461044c5761012a565b806361bc221a116100f257806361bc221a1461024c5780636f669da41461027757806378a5dfd1146102b4578063796b96d2146102f15780637c9db0bb1461031a5761012a565b806301b680001461012f5780630c05e9e41461016c578063296c60aa146101a95780632d0ee16a146101d257806346e16d341461020f575b600080fd5b34801561013b57600080fd5b506101566004803603810190610151919061147c565b6105c5565b6040516101639190611539565b60405180910390f35b34801561017857600080fd5b50610193600480360381019061018e9190611690565b61070d565b6040516101a091906118d3565b60405180910390f35b3480156101b557600080fd5b506101d060048036038101906101cb91906118f5565b61079d565b005b3480156101de57600080fd5b506101f960048036038101906101f49190611690565b6108de565b6040516102069190611a50565b60405180910390f35b34801561021b57600080fd5b50610236600480360381019061023191906118f5565b61096c565b6040516102439190611a8d565b60405180910390f35b34801561025857600080fd5b506102616109f6565b60405161026e9190611ac4565b60405180910390f35b34801561028357600080fd5b5061029e60048036038101906102999190611b1b565b610a07565b6040516102ab9190611a8d565b60405180910390f35b3480156102c057600080fd5b506102db60048036038101906102d691906118f5565b610a91565b6040516102e89190611be1565b60405180910390f35b3480156102fd57600080fd5b50610318600480360381019061031391906118f5565b610b1e565b005b34801561032657600080fd5b50610341600480360381019061033c9190611690565b610c5f565b60405161034e9190611be1565b60405180910390f35b34801561036357600080fd5b5061037e60048036038101906103799190611c67565b610ce9565b60405161038c929190611ea9565b60405180910390f35b3480156103a157600080fd5b506103bc60048036038101906103b79190611690565b610d87565b6040516103c99190611a8d565b60405180910390f35b3480156103de57600080fd5b506103f960048036038101906103f491906118f5565b610e10565b6040516104069190611a50565b60405180910390f35b34801561041b57600080fd5b5061043660048036038101906104319190611ee0565b610e9f565b6040516104439190611a50565b60405180910390f35b34801561045857600080fd5b50610473600480360381019061046e919061147c565b610ff4565b604051610480919061202d565b60405180910390f35b34801561049557600080fd5b506104b060048036038101906104ab919061207b565b61107e565b6040516104bd9190611a8d565b60405180910390f35b3480156104d257600080fd5b506104ed60048036038101906104e8919061147c565b611196565b6040516104fa9190612105565b60405180910390f35b61050b611220565b005b34801561051957600080fd5b50610534600480360381019061052f9190611690565b611222565b6040516105419190611be1565b60405180910390f35b34801561055657600080fd5b50610571600480360381019061056c9190611690565b6112ac565b60405161057e9190611a50565b60405180910390f35b34801561059357600080fd5b506105ae60048036038101906105a9919061147c565b611338565b6040516105bc92919061222d565b60405180910390f35b606060008061080173ffffffffffffffffffffffffffffffffffffffff16846040516024016105f49190612273565b6040516020818303038152906040527f5431f450000000000000000000000000000000000000000000000000000000007bffffffffffffffffffffffffffffffffffffffffffffffffffffffff19166020820180517bffffffffffffffffffffffffffffffffffffffffffffffffffffffff838183161783525050505060405161067e91906122ca565b600060405180830381855afa9150503d80600081146106b9576040519150601f19603f3d011682016040523d82523d6000602084013e6106be565b606091505b509150915081610703576040517f08c379a00000000000000000000000000000000000000000000000000000000081526004016106fa9061232d565b60405180910390fd5b8092505050919050565b6107156113c5565b61080173ffffffffffffffffffffffffffffffffffffffff166354212a89836040518263ffffffff1660e01b81526004016107509190612105565b600060405180830381865afa15801561076d573d6000803e3d6000fd5b505050506040513d6000823e3d601f19601f820116820180604052508101906107969190612626565b9050919050565b600061080173ffffffffffffffffffffffffffffffffffffffff1683836040516024016107cb92919061266f565b6040516020818303038152906040527f5a9d9a96000000000000000000000000000000000000000000000000000000007bffffffffffffffffffffffffffffffffffffffffffffffffffffffff19166020820180517bffffffffffffffffffffffffffffffffffffffffffffffffffffffff838183161783525050505060405161085591906122ca565b600060405180830381855af49150503d8060008114610890576040519150601f19603f3d011682016040523d82523d6000602084013e610895565b606091505b50509050806108d9576040517f08c379a00000000000000000000000000000000000000000000000000000000081526004016108d090612711565b60405180910390fd5b505050565b606061080173ffffffffffffffffffffffffffffffffffffffff1663b46a8d6130846040518363ffffffff1660e01b815260040161091d92919061266f565b6000604051808303816000875af115801561093c573d6000803e3d6000fd5b505050506040513d6000823e3d601f19601f82011682018060405250810190610965919061287e565b9050919050565b600061080173ffffffffffffffffffffffffffffffffffffffff16635a9d9a9684846040518363ffffffff1660e01b81526004016109ab92919061266f565b6020604051808303816000875af11580156109ca573d6000803e3d6000fd5b505050506040513d601f19601f820116820180604052508101906109ee91906128f3565b905092915050565b60008054906101000a900460070b81565b600061080173ffffffffffffffffffffffffffffffffffffffff16632efe8a5f84846040518363ffffffff1660e01b8152600401610a4692919061292f565b6020604051808303816000875af1158015610a65573d6000803e3d6000fd5b505050506040513d601f19601f82011682018060405250810190610a8991906128f3565b905092915050565b606061080173ffffffffffffffffffffffffffffffffffffffff16639ad563b484846040518363ffffffff1660e01b8152600401610ad092919061266f565b600060405180830381865afa158015610aed573d6000803e3d6000fd5b505050506040513d6000823e3d601f19601f82011682018060405250810190610b169190612958565b905092915050565b600061080173ffffffffffffffffffffffffffffffffffffffff168383604051602401610b4c92919061266f565b6040516020818303038152906040527f5a9d9a96000000000000000000000000000000000000000000000000000000007bffffffffffffffffffffffffffffffffffffffffffffffffffffffff19166020820180517bffffffffffffffffffffffffffffffffffffffffffffffffffffffff8381831617835250505050604051610bd691906122ca565b600060405180830381855afa9150503d8060008114610c11576040519150601f19603f3d011682016040523d82523d6000602084013e610c16565b606091505b5050905080610c5a576040517f08c379a0000000000000000000000000000000000000000000000000000000008152600401610c519061232d565b60405180910390fd5b505050565b606061080173ffffffffffffffffffffffffffffffffffffffff16633dd40f78836040518263ffffffff1660e01b8152600401610c9c9190612105565b600060405180830381865afa158015610cb9573d6000803e3d6000fd5b505050506040513d6000823e3d601f19601f82011682018060405250810190610ce29190612958565b9050919050565b6060610cf36113e6565b61080173ffffffffffffffffffffffffffffffffffffffff16638f2473ce878787876040518563ffffffff1660e01b8152600401610d349493929190612b41565b600060405180830381865afa158015610d51573d6000803e3d6000fd5b505050506040513d6000823e3d601f19601f82011682018060405250810190610d7a9190612e19565b9150915094509492505050565b600061080173ffffffffffffffffffffffffffffffffffffffff16635a9d9a9630846040518363ffffffff1660e01b8152600401610dc692919061266f565b6020604051808303816000875af1158015610de5573d6000803e3d6000fd5b505050506040513d601f19601f82011682018060405250810190610e0991906128f3565b9050919050565b606061080173ffffffffffffffffffffffffffffffffffffffff1663b46a8d6184846040518363ffffffff1660e01b8152600401610e4f92919061266f565b6000604051808303816000875af1158015610e6e573d6000803e3d6000fd5b505050506040513d6000823e3d601f19601f82011682018060405250810190610e97919061287e565b905092915050565b6060600061080173ffffffffffffffffffffffffffffffffffffffff16635a9d9a9633876040518363ffffffff1660e01b8152600401610ee092919061266f565b6020604051808303816000875af1158015610eff573d6000803e3d6000fd5b505050506040513d601f19601f82011682018060405250810190610f2391906128f3565b905080610f65576040517f08c379a0000000000000000000000000000000000000000000000000000000008152600401610f5c90612edd565b60405180910390fd5b61080173ffffffffffffffffffffffffffffffffffffffff1663b46a8d6185856040518363ffffffff1660e01b8152600401610fa292919061266f565b6000604051808303816000875af1158015610fc1573d6000803e3d6000fd5b505050506040513d6000823e3d601f19601f82011682018060405250810190610fea919061287e565b9150509392505050565b606061080173ffffffffffffffffffffffffffffffffffffffff1663a66cb605836040518263ffffffff1660e01b81526004016110319190612273565b600060405180830381865afa15801561104e573d6000803e3d6000fd5b505050506040513d6000823e3d601f19601f820116820180604052508101906110779190612fde565b9050919050565b600060016000808282829054906101000a900460070b61109e9190613056565b92506101000a81548167ffffffffffffffff021916908360070b67ffffffffffffffff16021790555061080173ffffffffffffffffffffffffffffffffffffffff1663ed41d0b684846040518363ffffffff1660e01b81526004016111049291906130c5565b6020604051808303816000875af1158015611123573d6000803e3d6000fd5b505050506040513d601f19601f8201168201806040525081019061114791906128f3565b905060016000808282829054906101000a900460070b61116791906130ee565b92506101000a81548167ffffffffffffffff021916908360070b67ffffffffffffffff16021790555092915050565b606061080173ffffffffffffffffffffffffffffffffffffffff16635431f450836040518263ffffffff1660e01b81526004016111d39190612273565b600060405180830381865afa1580156111f0573d6000803e3d6000fd5b505050506040513d6000823e3d601f19601f82011682018060405250810190611219919061314e565b9050919050565b565b606061080173ffffffffffffffffffffffffffffffffffffffff166385b2d2da836040518263ffffffff1660e01b815260040161125f9190612105565b600060405180830381865afa15801561127c573d6000803e3d6000fd5b505050506040513d6000823e3d601f19601f820116820180604052508101906112a59190612958565b9050919050565b606061080173ffffffffffffffffffffffffffffffffffffffff16633ce4e3be836040518263ffffffff1660e01b81526004016112e99190612105565b6000604051808303816000875af1158015611308573d6000803e3d6000fd5b505050506040513d6000823e3d601f19601f82011682018060405250810190611331919061287e565b9050919050565b60608061080173ffffffffffffffffffffffffffffffffffffffff166354be1a28846040518263ffffffff1660e01b81526004016113769190612273565b600060405180830381865afa158015611393573d6000803e3d6000fd5b505050506040513d6000823e3d601f19601f820116820180604052508101906113bc9190613300565b91509150915091565b60405180606001604052806060815260200160608152602001606081525090565b604051806040016040528060608152602001600067ffffffffffffffff1681525090565b6000604051905090565b600080fd5b600080fd5b600073ffffffffffffffffffffffffffffffffffffffff82169050919050565b60006114498261141e565b9050919050565b6114598161143e565b811461146457600080fd5b50565b60008135905061147681611450565b92915050565b60006020828403121561149257611491611414565b5b60006114a084828501611467565b91505092915050565b600081519050919050565b600082825260208201905092915050565b60005b838110156114e35780820151818401526020810190506114c8565b60008484015250505050565b6000601f19601f8301169050919050565b600061150b826114a9565b61151581856114b4565b93506115258185602086016114c5565b61152e816114ef565b840191505092915050565b600060208201905081810360008301526115538184611500565b905092915050565b600080fd5b600080fd5b7f4e487b7100000000000000000000000000000000000000000000000000000000600052604160045260246000fd5b61159d826114ef565b810181811067ffffffffffffffff821117156115bc576115bb611565565b5b80604052505050565b60006115cf61140a565b90506115db8282611594565b919050565b600067ffffffffffffffff8211156115fb576115fa611565565b5b611604826114ef565b9050602081019050919050565b82818337600083830152505050565b600061163361162e846115e0565b6115c5565b90508281526020810184848401111561164f5761164e611560565b5b61165a848285611611565b509392505050565b600082601f8301126116775761167661155b565b5b8135611687848260208601611620565b91505092915050565b6000602082840312156116a6576116a5611414565b5b600082013567ffffffffffffffff8111156116c4576116c3611419565b5b6116d084828501611662565b91505092915050565b600081519050919050565b600082825260208201905092915050565b6000611700826116d9565b61170a81856116e4565b935061171a8185602086016114c5565b611723816114ef565b840191505092915050565b600081519050919050565b600082825260208201905092915050565b6000819050602082019050919050565b6000819050919050565b61176d8161175a565b82525050565b600060ff82169050919050565b61178981611773565b82525050565b600060608301600083015184820360008601526117ac82826116f5565b91505060208301516117c16020860182611764565b5060408301516117d46040860182611780565b508091505092915050565b60006117eb838361178f565b905092915050565b6000602082019050919050565b600061180b8261172e565b6118158185611739565b9350836020820285016118278561174a565b8060005b85811015611863578484038952815161184485826117df565b945061184f836117f3565b925060208a0199505060018101905061182b565b50829750879550505050505092915050565b6000606083016000830151848203600086015261189282826116f5565b915050602083015184820360208601526118ac8282611800565b915050604083015184820360408601526118c68282611800565b9150508091505092915050565b600060208201905081810360008301526118ed8184611875565b905092915050565b6000806040838503121561190c5761190b611414565b5b600061191a85828601611467565b925050602083013567ffffffffffffffff81111561193b5761193a611419565b5b61194785828601611662565b9150509250929050565b600081519050919050565b600082825260208201905092915050565b6000819050602082019050919050565b6000604083016000830151848203600086015261199a82826116f5565b91505060208301516119af6020860182611764565b508091505092915050565b60006119c6838361197d565b905092915050565b6000602082019050919050565b60006119e682611951565b6119f0818561195c565b935083602082028501611a028561196d565b8060005b85811015611a3e5784840389528151611a1f85826119ba565b9450611a2a836119ce565b925060208a01995050600181019050611a06565b50829750879550505050505092915050565b60006020820190508181036000830152611a6a81846119db565b905092915050565b60008115159050919050565b611a8781611a72565b82525050565b6000602082019050611aa26000830184611a7e565b92915050565b60008160070b9050919050565b611abe81611aa8565b82525050565b6000602082019050611ad96000830184611ab5565b92915050565b600063ffffffff82169050919050565b611af881611adf565b8114611b0357600080fd5b50565b600081359050611b1581611aef565b92915050565b60008060408385031215611b3257611b31611414565b5b6000611b4085828601611467565b9250506020611b5185828601611b06565b9150509250929050565b600082825260208201905092915050565b6000611b778261172e565b611b818185611b5b565b935083602082028501611b938561174a565b8060005b85811015611bcf5784840389528151611bb085826117df565b9450611bbb836117f3565b925060208a01995050600181019050611b97565b50829750879550505050505092915050565b60006020820190508181036000830152611bfb8184611b6c565b905092915050565b600067ffffffffffffffff82169050919050565b611c2081611c03565b8114611c2b57600080fd5b50565b600081359050611c3d81611c17565b92915050565b600080fd5b600060a08284031215611c5e57611c5d611c43565b5b81905092915050565b60008060008060808587031215611c8157611c80611414565b5b600085013567ffffffffffffffff811115611c9f57611c9e611419565b5b611cab87828801611662565b9450506020611cbc87828801611c2e565b9350506040611ccd87828801611c2e565b925050606085013567ffffffffffffffff811115611cee57611ced611419565b5b611cfa87828801611c48565b91505092959194509250565b600081519050919050565b600082825260208201905092915050565b6000819050602082019050919050565b611d3b81611c03565b82525050565b604082016000820151611d576000850182611764565b506020820151611d6a6020850182611780565b50505050565b606082016000820151611d866000850182611d32565b506020820151611d996020850182611d41565b50505050565b6000611dab8383611d70565b60608301905092915050565b6000602082019050919050565b6000611dcf82611d06565b611dd98185611d11565b9350611de483611d22565b8060005b83811015611e15578151611dfc8882611d9f565b9750611e0783611db7565b925050600181019050611de8565b5085935050505092915050565b600082825260208201905092915050565b6000611e3e826114a9565b611e488185611e22565b9350611e588185602086016114c5565b611e61816114ef565b840191505092915050565b60006040830160008301518482036000860152611e898282611e33565b9150506020830151611e9e6020860182611d32565b508091505092915050565b60006040820190508181036000830152611ec38185611dc4565b90508181036020830152611ed78184611e6c565b90509392505050565b600080600060608486031215611ef957611ef8611414565b5b600084013567ffffffffffffffff811115611f1757611f16611419565b5b611f2386828701611662565b9350506020611f3486828701611467565b925050604084013567ffffffffffffffff811115611f5557611f54611419565b5b611f6186828701611662565b9150509250925092565b600081519050919050565b600082825260208201905092915050565b6000819050602082019050919050565b6000611fa383836116f5565b905092915050565b6000602082019050919050565b6000611fc382611f6b565b611fcd8185611f76565b935083602082028501611fdf85611f87565b8060005b8581101561201b5784840389528151611ffc8582611f97565b945061200783611fab565b925060208a01995050600181019050611fe3565b50829750879550505050505092915050565b600060208201905081810360008301526120478184611fb8565b905092915050565b6120588161175a565b811461206357600080fd5b50565b6000813590506120758161204f565b92915050565b6000806040838503121561209257612091611414565b5b60006120a085828601611467565b92505060206120b185828601612066565b9150509250929050565b600082825260208201905092915050565b60006120d7826116d9565b6120e181856120bb565b93506120f18185602086016114c5565b6120fa816114ef565b840191505092915050565b6000602082019050818103600083015261211f81846120cc565b905092915050565b600081519050919050565b600082825260208201905092915050565b6000819050602082019050919050565b6000604083016000830151848203600086015261217082826116f5565b9150506020830151848203602086015261218a8282611800565b9150508091505092915050565b60006121a38383612153565b905092915050565b6000602082019050919050565b60006121c382612127565b6121cd8185612132565b9350836020820285016121df85612143565b8060005b8581101561221b57848403895281516121fc8582612197565b9450612207836121ab565b925060208a019950506001810190506121e3565b50829750879550505050505092915050565b6000604082019050818103600083015261224781856121b8565b9050818103602083015261225b8184611b6c565b90509392505050565b61226d8161143e565b82525050565b60006020820190506122886000830184612264565b92915050565b600081905092915050565b60006122a4826114a9565b6122ae818561228e565b93506122be8185602086016114c5565b80840191505092915050565b60006122d68284612299565b915081905092915050565b7f6661696c65642073746174696343616c6c20746f20707265636f6d70696c6500600082015250565b6000612317601f836120bb565b9150612322826122e1565b602082019050919050565b600060208201905081810360008301526123468161230a565b9050919050565b600080fd5b600080fd5b600061236a612365846115e0565b6115c5565b90508281526020810184848401111561238657612385611560565b5b6123918482856114c5565b509392505050565b600082601f8301126123ae576123ad61155b565b5b81516123be848260208601612357565b91505092915050565b600067ffffffffffffffff8211156123e2576123e1611565565b5b602082029050602081019050919050565b600080fd5b6000815190506124078161204f565b92915050565b61241681611773565b811461242157600080fd5b50565b6000815190506124338161240d565b92915050565b60006060828403121561244f5761244e61234d565b5b61245960606115c5565b9050600082015167ffffffffffffffff81111561247957612478612352565b5b61248584828501612399565b6000830152506020612499848285016123f8565b60208301525060406124ad84828501612424565b60408301525092915050565b60006124cc6124c7846123c7565b6115c5565b905080838252602082019050602084028301858111156124ef576124ee6123f3565b5b835b8181101561253657805167ffffffffffffffff8111156125145761251361155b565b5b8086016125218982612439565b855260208501945050506020810190506124f1565b5050509392505050565b600082601f8301126125555761255461155b565b5b81516125658482602086016124b9565b91505092915050565b6000606082840312156125845761258361234d565b5b61258e60606115c5565b9050600082015167ffffffffffffffff8111156125ae576125ad612352565b5b6125ba84828501612399565b600083015250602082015167ffffffffffffffff8111156125de576125dd612352565b5b6125ea84828501612540565b602083015250604082015167ffffffffffffffff81111561260e5761260d612352565b5b61261a84828501612540565b60408301525092915050565b60006020828403121561263c5761263b611414565b5b600082015167ffffffffffffffff81111561265a57612659611419565b5b6126668482850161256e565b91505092915050565b60006040820190506126846000830185612264565b818103602083015261269681846120cc565b90509392505050565b7f6661696c65642064656c656761746543616c6c20746f20707265636f6d70696c60008201527f6500000000000000000000000000000000000000000000000000000000000000602082015250565b60006126fb6021836120bb565b91506127068261269f565b604082019050919050565b6000602082019050818103600083015261272a816126ee565b9050919050565b600067ffffffffffffffff82111561274c5761274b611565565b5b602082029050602081019050919050565b6000604082840312156127735761277261234d565b5b61277d60406115c5565b9050600082015167ffffffffffffffff81111561279d5761279c612352565b5b6127a984828501612399565b60008301525060206127bd848285016123f8565b60208301525092915050565b60006127dc6127d784612731565b6115c5565b905080838252602082019050602084028301858111156127ff576127fe6123f3565b5b835b8181101561284657805167ffffffffffffffff8111156128245761282361155b565b5b808601612831898261275d565b85526020850194505050602081019050612801565b5050509392505050565b600082601f8301126128655761286461155b565b5b81516128758482602086016127c9565b91505092915050565b60006020828403121561289457612893611414565b5b600082015167ffffffffffffffff8111156128b2576128b1611419565b5b6128be84828501612850565b91505092915050565b6128d081611a72565b81146128db57600080fd5b50565b6000815190506128ed816128c7565b92915050565b60006020828403121561290957612908611414565b5b6000612917848285016128de565b91505092915050565b61292981611adf565b82525050565b60006040820190506129446000830185612264565b6129516020830184612920565b9392505050565b60006020828403121561296e5761296d611414565b5b600082015167ffffffffffffffff81111561298c5761298b611419565b5b61299884828501612540565b91505092915050565b6129aa81611c03565b82525050565b600080fd5b600080fd5b600080fd5b600080833560016020038436030381126129dc576129db6129ba565b5b83810192508235915060208301925067ffffffffffffffff821115612a0457612a036129b0565b5b600182023603831315612a1a57612a196129b5565b5b509250929050565b6000612a2e8385611e22565b9350612a3b838584611611565b612a44836114ef565b840190509392505050565b6000612a5e6020840184611c2e565b905092915050565b600081359050612a75816128c7565b92915050565b6000612a8a6020840184612a66565b905092915050565b612a9b81611a72565b82525050565b600060a08301612ab460008401846129bf565b8583036000870152612ac7838284612a22565b92505050612ad86020840184612a4f565b612ae56020860182611d32565b50612af36040840184612a4f565b612b006040860182611d32565b50612b0e6060840184612a7b565b612b1b6060860182612a92565b50612b296080840184612a7b565b612b366080860182612a92565b508091505092915050565b60006080820190508181036000830152612b5b81876120cc565b9050612b6a60208301866129a1565b612b7760408301856129a1565b8181036060830152612b898184612aa1565b905095945050505050565b600067ffffffffffffffff821115612baf57612bae611565565b5b602082029050602081019050919050565b600081519050612bcf81611c17565b92915050565b600060408284031215612beb57612bea61234d565b5b612bf560406115c5565b90506000612c05848285016123f8565b6000830152506020612c1984828501612424565b60208301525092915050565b600060608284031215612c3b57612c3a61234d565b5b612c4560406115c5565b90506000612c5584828501612bc0565b6000830152506020612c6984828501612bd5565b60208301525092915050565b6000612c88612c8384612b94565b6115c5565b90508083825260208201905060608402830185811115612cab57612caa6123f3565b5b835b81811015612cd45780612cc08882612c25565b845260208401935050606081019050612cad565b5050509392505050565b600082601f830112612cf357612cf261155b565b5b8151612d03848260208601612c75565b91505092915050565b600067ffffffffffffffff821115612d2757612d26611565565b5b612d30826114ef565b9050602081019050919050565b6000612d50612d4b84612d0c565b6115c5565b905082815260208101848484011115612d6c57612d6b611560565b5b612d778482856114c5565b509392505050565b600082601f830112612d9457612d9361155b565b5b8151612da4848260208601612d3d565b91505092915050565b600060408284031215612dc357612dc261234d565b5b612dcd60406115c5565b9050600082015167ffffffffffffffff811115612ded57612dec612352565b5b612df984828501612d7f565b6000830152506020612e0d84828501612bc0565b60208301525092915050565b60008060408385031215612e3057612e2f611414565b5b600083015167ffffffffffffffff811115612e4e57612e4d611419565b5b612e5a85828601612cde565b925050602083015167ffffffffffffffff811115612e7b57612e7a611419565b5b612e8785828601612dad565b9150509250929050565b7f6661696c656420746f2073657420776974686472617720616464726573730000600082015250565b6000612ec7601e836120bb565b9150612ed282612e91565b602082019050919050565b60006020820190508181036000830152612ef681612eba565b9050919050565b600067ffffffffffffffff821115612f1857612f17611565565b5b602082029050602081019050919050565b6000612f3c612f3784612efd565b6115c5565b90508083825260208201905060208402830185811115612f5f57612f5e6123f3565b5b835b81811015612fa657805167ffffffffffffffff811115612f8457612f8361155b565b5b808601612f918982612399565b85526020850194505050602081019050612f61565b5050509392505050565b600082601f830112612fc557612fc461155b565b5b8151612fd5848260208601612f29565b91505092915050565b600060208284031215612ff457612ff3611414565b5b600082015167ffffffffffffffff81111561301257613011611419565b5b61301e84828501612fb0565b91505092915050565b7f4e487b7100000000000000000000000000000000000000000000000000000000600052601160045260246000fd5b600061306182611aa8565b915061306c83611aa8565b925082820190507fffffffffffffffffffffffffffffffffffffffffffffffff80000000000000008112677fffffffffffffff821317156130b0576130af613027565b5b92915050565b6130bf8161175a565b82525050565b60006040820190506130da6000830185612264565b6130e760208301846130b6565b9392505050565b60006130f982611aa8565b915061310483611aa8565b92508282039050677fffffffffffffff81137fffffffffffffffffffffffffffffffffffffffffffffffff80000000000000008212171561314857613147613027565b5b92915050565b60006020828403121561316457613163611414565b5b600082015167ffffffffffffffff81111561318257613181611419565b5b61318e84828501612399565b91505092915050565b600067ffffffffffffffff8211156131b2576131b1611565565b5b602082029050602081019050919050565b6000604082840312156131d9576131d861234d565b5b6131e360406115c5565b9050600082015167ffffffffffffffff81111561320357613202612352565b5b61320f84828501612399565b600083015250602082015167ffffffffffffffff81111561323357613232612352565b5b61323f84828501612540565b60208301525092915050565b600061325e61325984613197565b6115c5565b90508083825260208201905060208402830185811115613281576132806123f3565b5b835b818110156132c857805167ffffffffffffffff8111156132a6576132a561155b565b5b8086016132b389826131c3565b85526020850194505050602081019050613283565b5050509392505050565b600082601f8301126132e7576132e661155b565b5b81516132f784826020860161324b565b91505092915050565b6000806040838503121561331757613316611414565b5b600083015167ffffffffffffffff81111561333557613334611419565b5b613341858286016132d2565b925050602083015167ffffffffffffffff81111561336257613361611419565b5b61336e85828601612540565b915050925092905056fea264697066735822122098cf28e1eaebfa4ab5717b6e13f8a9f4a27ffa9a4ab2c11b08247ad17d35919964736f6c63430008120033",
  "linkReferences": {},
  "deployedLinkReferences": {}
}