{
  "_format": "hh-sol-artifact-1",
  "contractName": "DistributionCaller",
  "sourceName": "solidity/precompiles/testutil/contracts/DistributionCaller.sol",
  "abi": [
    {
      "inputs": [],
      "name": "counter",
      "outputs": [
        {
          "internalType": "uint256",
          "name": "",
          "type": "uint256"
        }
      ],
      "stateMutability": "view",
      "type": "function"
    },
    {
      "inputs": [
        {
          "internalType": "address",
          "name": "_delAddr",
          "type": "address"
        },
        {
          "internalType": "string",
          "name": "_withdrawAddr",
          "type": "string"
        }
      ],
      "name": "delegateCallSetWithdrawAddress",
      "outputs": [],
      "stateMutability": "nonpayable",
      "type": "function"
    },
    {
      "inputs": [
        {
          "internalType": "address",
          "name": "_delAddr",
          "type": "address"
        },
        {
          "internalType": "string",
          "name": "_valAddr",
          "type": "string"
        }
      ],
      "name": "getDelegationRewards",
      "outputs": [
        {
          "components": [
            {
              "internalType": "string",
              "name": "denom",
              "type": "string"
            },
            {
              "internalType": "uint256",
              "name": "amount",
              "type": "uint256"
            },
            {
              "internalType": "uint8",
              "name": "precision",
              "type": "uint8"
            }
          ],
          "internalType": "struct DecCoin[]",
          "name": "",
          "type": "tuple[]"
        }
      ],
      "stateMutability": "view",
      "type": "function"
    },
    {
      "inputs": [
        {
          "internalType": "address",
          "name": "_delAddr",
          "type": "address"
        }
      ],
      "name": "getDelegationTotalRewards",
      "outputs": [
        {
          "components": [
            {
              "internalType": "string",
              "name": "validatorAddress",
              "type": "string"
            },
            {
              "components": [
                {
                  "internalType": "string",
                  "name": "denom",
                  "type": "string"
                },
                {
                  "internalType": "uint256",
                  "name": "amount",
                  "type": "uint256"
                },
                {
                  "internalType": "uint8",
                  "name": "precision",
                  "type": "uint8"
                }
              ],
              "internalType": "struct DecCoin[]",
              "name": "reward",
              "type": "tuple[]"
            }
          ],
          "internalType": "struct DelegationDelegatorReward[]",
          "name": "rewards",
          "type": "tuple[]"
        },
        {
          "components": [
            {
              "internalType": "string",
              "name": "denom",
              "type": "string"
            },
            {
              "internalType": "uint256",
              "name": "amount",
              "type": "uint256"
            },
            {
              "internalType": "uint8",
              "name": "precision",
              "type": "uint8"
            }
          ],
          "internalType": "struct DecCoin[]",
          "name": "total",
          "type": "tuple[]"
        }
      ],
      "stateMutability": "view",
      "type": "function"
    },
    {
      "inputs": [
        {
          "internalType": "address",
          "name": "_delAddr",
          "type": "address"
        }
      ],
      "name": "getDelegatorValidators",
      "outputs": [
        {
          "internalType": "string[]",
          "name": "",
          "type": "string[]"
        }
      ],
      "stateMutability": "view",
      "type": "function"
    },
    {
      "inputs": [
        {
          "internalType": "address",
          "name": "_delAddr",
          "type": "address"
        }
      ],
      "name": "getDelegatorWithdrawAddress",
      "outputs": [
        {
          "internalType": "string",
          "name": "",
          "type": "string"
        }
      ],
      "stateMutability": "view",
      "type": "function"
    },
    {
      "inputs": [
        {
          "internalType": "string",
          "name": "_valAddr",
          "type": "string"
        }
      ],
      "name": "getValidatorCommission",
      "outputs": [
        {
          "components": [
            {
              "internalType": "string",
              "name": "denom",
              "type": "string"
            },
            {
              "internalType": "uint256",
              "name": "amount",
              "type": "uint256"
            },
            {
              "internalType": "uint8",
              "name": "precision",
              "type": "uint8"
            }
          ],
          "internalType": "struct DecCoin[]",
          "name": "",
          "type": "tuple[]"
        }
      ],
      "stateMutability": "view",
      "type": "function"
    },
    {
      "inputs": [
        {
          "internalType": "string",
          "name": "_valAddr",
          "type": "string"
        }
      ],
      "name": "getValidatorDistributionInfo",
      "outputs": [
        {
          "components": [
            {
              "internalType": "string",
              "name": "operatorAddress",
              "type": "string"
            },
            {
              "components": [
                {
                  "internalType": "string",
                  "name": "denom",
                  "type": "string"
                },
                {
                  "internalType": "uint256",
                  "name": "amount",
                  "type": "uint256"
                },
                {
                  "internalType": "uint8",
                  "name": "precision",
                  "type": "uint8"
                }
              ],
              "internalType": "struct DecCoin[]",
              "name": "selfBondRewards",
              "type": "tuple[]"
            },
            {
              "components": [
                {
                  "internalType": "string",
                  "name": "denom",
                  "type": "string"
                },
                {
                  "internalType": "uint256",
                  "name": "amount",
                  "type": "uint256"
                },
                {
                  "internalType": "uint8",
                  "name": "precision",
                  "type": "uint8"
                }
              ],
              "internalType": "struct DecCoin[]",
              "name": "commission",
              "type": "tuple[]"
            }
          ],
          "internalType": "struct ValidatorDistributionInfo",
          "name": "",
          "type": "tuple"
        }
      ],
      "stateMutability": "view",
      "type": "function"
    },
    {
      "inputs": [
        {
          "internalType": "string",
          "name": "_valAddr",
          "type": "string"
        }
      ],
      "name": "getValidatorOutstandingRewards",
      "outputs": [
        {
          "components": [
            {
              "internalType": "string",
              "name": "denom",
              "type": "string"
            },
            {
              "internalType": "uint256",
              "name": "amount",
              "type": "uint256"
            },
            {
              "internalType": "uint8",
              "name": "precision",
              "type": "uint8"
            }
          ],
          "internalType": "struct DecCoin[]",
          "name": "",
          "type": "tuple[]"
        }
      ],
      "stateMutability": "view",
      "type": "function"
    },
    {
      "inputs": [
        {
          "internalType": "string",
          "name": "_valAddr",
          "type": "string"
        },
        {
          "internalType": "uint64",
          "name": "_startingHeight",
          "type": "uint64"
        },
        {
          "internalType": "uint64",
          "name": "_endingHeight",
          "type": "uint64"
        },
        {
          "components": [
            {
              "internalType": "bytes",
              "name": "key",
              "type": "bytes"
            },
            {
              "internalType": "uint64",
              "name": "offset",
              "type": "uint64"
            },
            {
              "internalType": "uint64",
              "name": "limit",
              "type": "uint64"
            },
            {
              "internalType": "bool",
              "name": "countTotal",
              "type": "bool"
            },
            {
              "internalType": "bool",
              "name": "reverse",
              "type": "bool"
            }
          ],
          "internalType": "struct PageRequest",
          "name": "pageRequest",
          "type": "tuple"
        }
      ],
      "name": "getValidatorSlashes",
      "outputs": [
        {
          "components": [
            {
              "internalType": "uint64",
              "name": "validatorPeriod",
              "type": "uint64"
            },
            {
              "components": [
                {
                  "internalType": "uint256",
                  "name": "value",
                  "type": "uint256"
                },
                {
                  "internalType": "uint8",
                  "name": "precision",
                  "type": "uint8"
                }
              ],
              "internalType": "struct Dec",
              "name": "fraction",
              "type": "tuple"
            }
          ],
          "internalType": "struct ValidatorSlashEvent[]",
          "name": "",
          "type": "tuple[]"
        },
        {
          "components": [
            {
              "internalType": "bytes",
              "name": "nextKey",
              "type": "bytes"
            },
            {
              "internalType": "uint64",
              "name": "total",
              "type": "uint64"
            }
          ],
          "internalType": "struct PageResponse",
          "name": "",
          "type": "tuple"
        }
      ],
      "stateMutability": "view",
      "type": "function"
    },
    {
      "inputs": [
        {
          "internalType": "address",
          "name": "_delAddr",
          "type": "address"
        }
      ],
      "name": "staticCallGetWithdrawAddress",
      "outputs": [
        {
          "internalType": "bytes",
          "name": "",
          "type": "bytes"
        }
      ],
      "stateMutability": "view",
      "type": "function"
    },
    {
      "inputs": [
        {
          "internalType": "address",
          "name": "_delAddr",
          "type": "address"
        },
        {
          "internalType": "string",
          "name": "_withdrawAddr",
          "type": "string"
        }
      ],
      "name": "staticCallSetWithdrawAddress",
      "outputs": [],
      "stateMutability": "view",
      "type": "function"
    },
    {
      "inputs": [
        {
          "internalType": "address",
          "name": "_delAddr",
          "type": "address"
        },
        {
          "internalType": "uint32",
          "name": "_maxRetrieve",
          "type": "uint32"
        }
      ],
      "name": "testClaimRewards",
      "outputs": [
        {
          "internalType": "bool",
          "name": "success",
          "type": "bool"
        }
      ],
      "stateMutability": "nonpayable",
      "type": "function"
    },
    {
      "inputs": [
        {
          "internalType": "string",
          "name": "_withdrawAddr",
          "type": "string"
        },
        {
          "internalType": "address",
          "name": "_delAddr",
          "type": "address"
        },
        {
          "internalType": "string",
          "name": "_valAddr",
          "type": "string"
        }
      ],
      "name": "testRevertState",
      "outputs": [
        {
          "components": [
            {
              "internalType": "string",
              "name": "denom",
              "type": "string"
            },
            {
              "internalType": "uint256",
              "name": "amount",
              "type": "uint256"
            }
          ],
          "internalType": "struct Coin[]",
          "name": "",
          "type": "tuple[]"
        }
      ],
      "stateMutability": "nonpayable",
      "type": "function"
    },
    {
      "inputs": [
        {
          "internalType": "address",
          "name": "_delAddr",
          "type": "address"
        },
        {
          "internalType": "string",
          "name": "_withdrawAddr",
          "type": "string"
        }
      ],
      "name": "testSetWithdrawAddress",
      "outputs": [
        {
          "internalType": "bool",
          "name": "",
          "type": "bool"
        }
      ],
      "stateMutability": "nonpayable",
      "type": "function"
    },
    {
      "inputs": [
        {
          "internalType": "string",
          "name": "_withdrawAddr",
          "type": "string"
        }
      ],
      "name": "testSetWithdrawAddressFromContract",
      "outputs": [
        {
          "internalType": "bool",
          "name": "",
          "type": "bool"
        }
      ],
      "stateMutability": "nonpayable",
      "type": "function"
    },
    {
      "inputs": [
        {
          "internalType": "address",
          "name": "_delAddr",
          "type": "address"
        },
        {
          "internalType": "string",
          "name": "_valAddr",
          "type": "string"
        }
      ],
      "name": "testWithdrawDelegatorRewards",
      "outputs": [
        {
          "components": [
            {
              "internalType": "string",
              "name": "denom",
              "type": "string"
            },
            {
              "internalType": "uint256",
              "name": "amount",
              "type": "uint256"
            }
          ],
          "internalType": "struct Coin[]",
          "name": "",
          "type": "tuple[]"
        }
      ],
      "stateMutability": "nonpayable",
      "type": "function"
    },
    {
      "inputs": [
        {
          "internalType": "string",
          "name": "_valAddr",
          "type": "string"
        }
      ],
      "name": "testWithdrawDelegatorRewardsFromContract",
      "outputs": [
        {
          "components": [
            {
              "internalType": "string",
              "name": "denom",
              "type": "string"
            },
            {
              "internalType": "uint256",
              "name": "amount",
              "type": "uint256"
            }
          ],
          "internalType": "struct Coin[]",
          "name": "",
          "type": "tuple[]"
        }
      ],
      "stateMutability": "nonpayable",
      "type": "function"
    },
    {
      "inputs": [
        {
          "internalType": "string",
          "name": "_valAddr",
          "type": "string"
        }
      ],
      "name": "testWithdrawValidatorCommission",
      "outputs": [
        {
          "components": [
            {
              "internalType": "string",
              "name": "denom",
              "type": "string"
            },
            {
              "internalType": "uint256",
              "name": "amount",
              "type": "uint256"
            }
          ],
          "internalType": "struct Coin[]",
          "name": "",
          "type": "tuple[]"
        }
      ],
      "stateMutability": "nonpayable",
      "type": "function"
    }
  ],
  "bytecode": "0x608060405234801561001057600080fd5b50613087806100206000396000f3fe608060405234801561001057600080fd5b50600436106101215760003560e01c80637c9db0bb116100ad578063b6a216ae11610071578063b6a216ae1461038d578063cb85aa0a146103bd578063d3f831be146103ed578063e0421e391461041d578063e236c7a61461044d57610121565b80637c9db0bb1461029c57806388b2d581146102cc578063963516e4146102fd578063981945931461032d578063b2d178831461035d57610121565b806346e16d34116100f457806346e16d34146101d257806361bc221a146102025780636f669da41461022057806378a5dfd114610250578063796b96d21461028057610121565b806301b68000146101265780630c05e9e414610156578063296c60aa146101865780632d0ee16a146101a2575b600080fd5b610140600480360381019061013b919061123e565b61047e565b60405161014d91906112fb565b60405180910390f35b610170600480360381019061016b9190611452565b6105c6565b60405161017d9190611695565b60405180910390f35b6101a0600480360381019061019b91906116b7565b610656565b005b6101bc60048036038101906101b79190611452565b610797565b6040516101c99190611812565b60405180910390f35b6101ec60048036038101906101e791906116b7565b610825565b6040516101f9919061184f565b60405180910390f35b61020a6108af565b6040516102179190611879565b60405180910390f35b61023a600480360381019061023591906118d0565b6108b5565b604051610247919061184f565b60405180910390f35b61026a600480360381019061026591906116b7565b61096d565b6040516102779190611996565b60405180910390f35b61029a600480360381019061029591906116b7565b6109fa565b005b6102b660048036038101906102b19190611452565b610b3b565b6040516102c39190611996565b60405180910390f35b6102e660048036038101906102e19190611a1c565b610bc5565b6040516102f4929190611c5e565b60405180910390f35b61031760048036038101906103129190611452565b610c63565b604051610324919061184f565b60405180910390f35b610347600480360381019061034291906116b7565b610cec565b6040516103549190611812565b60405180910390f35b61037760048036038101906103729190611c95565b610d7b565b6040516103849190611812565b60405180910390f35b6103a760048036038101906103a2919061123e565b610ed0565b6040516103b49190611de2565b60405180910390f35b6103d760048036038101906103d2919061123e565b610f5a565b6040516103e49190611e4e565b60405180910390f35b61040760048036038101906104029190611452565b610fe4565b6040516104149190611996565b60405180910390f35b61043760048036038101906104329190611452565b61106e565b6040516104449190611812565b60405180910390f35b6104676004803603810190610462919061123e565b6110fa565b604051610475929190611f76565b60405180910390f35b606060008061080173ffffffffffffffffffffffffffffffffffffffff16846040516024016104ad9190611fbc565b6040516020818303038152906040527f5431f450000000000000000000000000000000000000000000000000000000007bffffffffffffffffffffffffffffffffffffffffffffffffffffffff19166020820180517bffffffffffffffffffffffffffffffffffffffffffffffffffffffff83818316178352505050506040516105379190612013565b600060405180830381855afa9150503d8060008114610572576040519150601f19603f3d011682016040523d82523d6000602084013e610577565b606091505b5091509150816105bc576040517f08c379a00000000000000000000000000000000000000000000000000000000081526004016105b390612076565b60405180910390fd5b8092505050919050565b6105ce611187565b61080173ffffffffffffffffffffffffffffffffffffffff166354212a89836040518263ffffffff1660e01b81526004016106099190611e4e565b600060405180830381865afa158015610626573d6000803e3d6000fd5b505050506040513d6000823e3d601f19601f8201168201806040525081019061064f9190612386565b9050919050565b600061080173ffffffffffffffffffffffffffffffffffffffff1683836040516024016106849291906123cf565b6040516020818303038152906040527f5a9d9a96000000000000000000000000000000000000000000000000000000007bffffffffffffffffffffffffffffffffffffffffffffffffffffffff19166020820180517bffffffffffffffffffffffffffffffffffffffffffffffffffffffff838183161783525050505060405161070e9190612013565b600060405180830381855af49150503d8060008114610749576040519150601f19603f3d011682016040523d82523d6000602084013e61074e565b606091505b5050905080610792576040517f08c379a000000000000000000000000000000000000000000000000000000000815260040161078990612471565b60405180910390fd5b505050565b606061080173ffffffffffffffffffffffffffffffffffffffff1663b46a8d6130846040518363ffffffff1660e01b81526004016107d69291906123cf565b6000604051808303816000875af11580156107f5573d6000803e3d6000fd5b505050506040513d6000823e3d601f19601f8201168201806040525081019061081e91906125de565b9050919050565b600061080173ffffffffffffffffffffffffffffffffffffffff16635a9d9a9684846040518363ffffffff1660e01b81526004016108649291906123cf565b6020604051808303816000875af1158015610883573d6000803e3d6000fd5b505050506040513d601f19601f820116820180604052508101906108a79190612653565b905092915050565b60005481565b60008060008154809291906108c9906126af565b919050555061080173ffffffffffffffffffffffffffffffffffffffff16632efe8a5f84846040518363ffffffff1660e01b815260040161090b929190612706565b6020604051808303816000875af115801561092a573d6000803e3d6000fd5b505050506040513d601f19601f8201168201806040525081019061094e9190612653565b90506000808154809291906109629061272f565b919050555092915050565b606061080173ffffffffffffffffffffffffffffffffffffffff16639ad563b484846040518363ffffffff1660e01b81526004016109ac9291906123cf565b600060405180830381865afa1580156109c9573d6000803e3d6000fd5b505050506040513d6000823e3d601f19601f820116820180604052508101906109f29190612758565b905092915050565b600061080173ffffffffffffffffffffffffffffffffffffffff168383604051602401610a289291906123cf565b6040516020818303038152906040527f5a9d9a96000000000000000000000000000000000000000000000000000000007bffffffffffffffffffffffffffffffffffffffffffffffffffffffff19166020820180517bffffffffffffffffffffffffffffffffffffffffffffffffffffffff8381831617835250505050604051610ab29190612013565b600060405180830381855afa9150503d8060008114610aed576040519150601f19603f3d011682016040523d82523d6000602084013e610af2565b606091505b5050905080610b36576040517f08c379a0000000000000000000000000000000000000000000000000000000008152600401610b2d90612076565b60405180910390fd5b505050565b606061080173ffffffffffffffffffffffffffffffffffffffff16633dd40f78836040518263ffffffff1660e01b8152600401610b789190611e4e565b600060405180830381865afa158015610b95573d6000803e3d6000fd5b505050506040513d6000823e3d601f19601f82011682018060405250810190610bbe9190612758565b9050919050565b6060610bcf6111a8565b61080173ffffffffffffffffffffffffffffffffffffffff16638f2473ce878787876040518563ffffffff1660e01b8152600401610c109493929190612941565b600060405180830381865afa158015610c2d573d6000803e3d6000fd5b505050506040513d6000823e3d601f19601f82011682018060405250810190610c569190612c19565b9150915094509492505050565b600061080173ffffffffffffffffffffffffffffffffffffffff16635a9d9a9630846040518363ffffffff1660e01b8152600401610ca29291906123cf565b6020604051808303816000875af1158015610cc1573d6000803e3d6000fd5b505050506040513d601f19601f82011682018060405250810190610ce59190612653565b9050919050565b606061080173ffffffffffffffffffffffffffffffffffffffff1663b46a8d6184846040518363ffffffff1660e01b8152600401610d2b9291906123cf565b6000604051808303816000875af1158015610d4a573d6000803e3d6000fd5b505050506040513d6000823e3d601f19601f82011682018060405250810190610d7391906125de565b905092915050565b6060600061080173ffffffffffffffffffffffffffffffffffffffff16635a9d9a9633876040518363ffffffff1660e01b8152600401610dbc9291906123cf565b6020604051808303816000875af1158015610ddb573d6000803e3d6000fd5b505050506040513d601f19601f82011682018060405250810190610dff9190612653565b905080610e41576040517f08c379a0000000000000000000000000000000000000000000000000000000008152600401610e3890612cdd565b60405180910390fd5b61080173ffffffffffffffffffffffffffffffffffffffff1663b46a8d6185856040518363ffffffff1660e01b8152600401610e7e9291906123cf565b6000604051808303816000875af1158015610e9d573d6000803e3d6000fd5b505050506040513d6000823e3d601f19601f82011682018060405250810190610ec691906125de565b9150509392505050565b606061080173ffffffffffffffffffffffffffffffffffffffff1663a66cb605836040518263ffffffff1660e01b8152600401610f0d9190611fbc565b600060405180830381865afa158015610f2a573d6000803e3d6000fd5b505050506040513d6000823e3d601f19601f82011682018060405250810190610f539190612dde565b9050919050565b606061080173ffffffffffffffffffffffffffffffffffffffff16635431f450836040518263ffffffff1660e01b8152600401610f979190611fbc565b600060405180830381865afa158015610fb4573d6000803e3d6000fd5b505050506040513d6000823e3d601f19601f82011682018060405250810190610fdd9190612e27565b9050919050565b606061080173ffffffffffffffffffffffffffffffffffffffff166385b2d2da836040518263ffffffff1660e01b81526004016110219190611e4e565b600060405180830381865afa15801561103e573d6000803e3d6000fd5b505050506040513d6000823e3d601f19601f820116820180604052508101906110679190612758565b9050919050565b606061080173ffffffffffffffffffffffffffffffffffffffff16633ce4e3be836040518263ffffffff1660e01b81526004016110ab9190611e4e565b6000604051808303816000875af11580156110ca573d6000803e3d6000fd5b505050506040513d6000823e3d601f19601f820116820180604052508101906110f391906125de565b9050919050565b60608061080173ffffffffffffffffffffffffffffffffffffffff166354be1a28846040518263ffffffff1660e01b81526004016111389190611fbc565b600060405180830381865afa158015611155573d6000803e3d6000fd5b505050506040513d6000823e3d601f19601f8201168201806040525081019061117e9190612fd9565b91509150915091565b60405180606001604052806060815260200160608152602001606081525090565b604051806040016040528060608152602001600067ffffffffffffffff1681525090565b6000604051905090565b600080fd5b600080fd5b600073ffffffffffffffffffffffffffffffffffffffff82169050919050565b600061120b826111e0565b9050919050565b61121b81611200565b811461122657600080fd5b50565b60008135905061123881611212565b92915050565b600060208284031215611254576112536111d6565b5b600061126284828501611229565b91505092915050565b600081519050919050565b600082825260208201905092915050565b60005b838110156112a557808201518184015260208101905061128a565b60008484015250505050565b6000601f19601f8301169050919050565b60006112cd8261126b565b6112d78185611276565b93506112e7818560208601611287565b6112f0816112b1565b840191505092915050565b6000602082019050818103600083015261131581846112c2565b905092915050565b600080fd5b600080fd5b7f4e487b7100000000000000000000000000000000000000000000000000000000600052604160045260246000fd5b61135f826112b1565b810181811067ffffffffffffffff8211171561137e5761137d611327565b5b80604052505050565b60006113916111cc565b905061139d8282611356565b919050565b600067ffffffffffffffff8211156113bd576113bc611327565b5b6113c6826112b1565b9050602081019050919050565b82818337600083830152505050565b60006113f56113f0846113a2565b611387565b90508281526020810184848401111561141157611410611322565b5b61141c8482856113d3565b509392505050565b600082601f8301126114395761143861131d565b5b81356114498482602086016113e2565b91505092915050565b600060208284031215611468576114676111d6565b5b600082013567ffffffffffffffff811115611486576114856111db565b5b61149284828501611424565b91505092915050565b600081519050919050565b600082825260208201905092915050565b60006114c28261149b565b6114cc81856114a6565b93506114dc818560208601611287565b6114e5816112b1565b840191505092915050565b600081519050919050565b600082825260208201905092915050565b6000819050602082019050919050565b6000819050919050565b61152f8161151c565b82525050565b600060ff82169050919050565b61154b81611535565b82525050565b6000606083016000830151848203600086015261156e82826114b7565b91505060208301516115836020860182611526565b5060408301516115966040860182611542565b508091505092915050565b60006115ad8383611551565b905092915050565b6000602082019050919050565b60006115cd826114f0565b6115d781856114fb565b9350836020820285016115e98561150c565b8060005b85811015611625578484038952815161160685826115a1565b9450611611836115b5565b925060208a019950506001810190506115ed565b50829750879550505050505092915050565b6000606083016000830151848203600086015261165482826114b7565b9150506020830151848203602086015261166e82826115c2565b9150506040830151848203604086015261168882826115c2565b9150508091505092915050565b600060208201905081810360008301526116af8184611637565b905092915050565b600080604083850312156116ce576116cd6111d6565b5b60006116dc85828601611229565b925050602083013567ffffffffffffffff8111156116fd576116fc6111db565b5b61170985828601611424565b9150509250929050565b600081519050919050565b600082825260208201905092915050565b6000819050602082019050919050565b6000604083016000830151848203600086015261175c82826114b7565b91505060208301516117716020860182611526565b508091505092915050565b6000611788838361173f565b905092915050565b6000602082019050919050565b60006117a882611713565b6117b2818561171e565b9350836020820285016117c48561172f565b8060005b8581101561180057848403895281516117e1858261177c565b94506117ec83611790565b925060208a019950506001810190506117c8565b50829750879550505050505092915050565b6000602082019050818103600083015261182c818461179d565b905092915050565b60008115159050919050565b61184981611834565b82525050565b60006020820190506118646000830184611840565b92915050565b6118738161151c565b82525050565b600060208201905061188e600083018461186a565b92915050565b600063ffffffff82169050919050565b6118ad81611894565b81146118b857600080fd5b50565b6000813590506118ca816118a4565b92915050565b600080604083850312156118e7576118e66111d6565b5b60006118f585828601611229565b9250506020611906858286016118bb565b9150509250929050565b600082825260208201905092915050565b600061192c826114f0565b6119368185611910565b9350836020820285016119488561150c565b8060005b85811015611984578484038952815161196585826115a1565b9450611970836115b5565b925060208a0199505060018101905061194c565b50829750879550505050505092915050565b600060208201905081810360008301526119b08184611921565b905092915050565b600067ffffffffffffffff82169050919050565b6119d5816119b8565b81146119e057600080fd5b50565b6000813590506119f2816119cc565b92915050565b600080fd5b600060a08284031215611a1357611a126119f8565b5b81905092915050565b60008060008060808587031215611a3657611a356111d6565b5b600085013567ffffffffffffffff811115611a5457611a536111db565b5b611a6087828801611424565b9450506020611a71878288016119e3565b9350506040611a82878288016119e3565b925050606085013567ffffffffffffffff811115611aa357611aa26111db565b5b611aaf878288016119fd565b91505092959194509250565b600081519050919050565b600082825260208201905092915050565b6000819050602082019050919050565b611af0816119b8565b82525050565b604082016000820151611b0c6000850182611526565b506020820151611b1f6020850182611542565b50505050565b606082016000820151611b3b6000850182611ae7565b506020820151611b4e6020850182611af6565b50505050565b6000611b608383611b25565b60608301905092915050565b6000602082019050919050565b6000611b8482611abb565b611b8e8185611ac6565b9350611b9983611ad7565b8060005b83811015611bca578151611bb18882611b54565b9750611bbc83611b6c565b925050600181019050611b9d565b5085935050505092915050565b600082825260208201905092915050565b6000611bf38261126b565b611bfd8185611bd7565b9350611c0d818560208601611287565b611c16816112b1565b840191505092915050565b60006040830160008301518482036000860152611c3e8282611be8565b9150506020830151611c536020860182611ae7565b508091505092915050565b60006040820190508181036000830152611c788185611b79565b90508181036020830152611c8c8184611c21565b90509392505050565b600080600060608486031215611cae57611cad6111d6565b5b600084013567ffffffffffffffff811115611ccc57611ccb6111db565b5b611cd886828701611424565b9350506020611ce986828701611229565b925050604084013567ffffffffffffffff811115611d0a57611d096111db565b5b611d1686828701611424565b9150509250925092565b600081519050919050565b600082825260208201905092915050565b6000819050602082019050919050565b6000611d5883836114b7565b905092915050565b6000602082019050919050565b6000611d7882611d20565b611d828185611d2b565b935083602082028501611d9485611d3c565b8060005b85811015611dd05784840389528151611db18582611d4c565b9450611dbc83611d60565b925060208a01995050600181019050611d98565b50829750879550505050505092915050565b60006020820190508181036000830152611dfc8184611d6d565b905092915050565b600082825260208201905092915050565b6000611e208261149b565b611e2a8185611e04565b9350611e3a818560208601611287565b611e43816112b1565b840191505092915050565b60006020820190508181036000830152611e688184611e15565b905092915050565b600081519050919050565b600082825260208201905092915050565b6000819050602082019050919050565b60006040830160008301518482036000860152611eb982826114b7565b91505060208301518482036020860152611ed382826115c2565b9150508091505092915050565b6000611eec8383611e9c565b905092915050565b6000602082019050919050565b6000611f0c82611e70565b611f168185611e7b565b935083602082028501611f2885611e8c565b8060005b85811015611f645784840389528151611f458582611ee0565b9450611f5083611ef4565b925060208a01995050600181019050611f2c565b50829750879550505050505092915050565b60006040820190508181036000830152611f908185611f01565b90508181036020830152611fa48184611921565b90509392505050565b611fb681611200565b82525050565b6000602082019050611fd16000830184611fad565b92915050565b600081905092915050565b6000611fed8261126b565b611ff78185611fd7565b9350612007818560208601611287565b80840191505092915050565b600061201f8284611fe2565b915081905092915050565b7f6661696c65642073746174696343616c6c20746f20707265636f6d70696c6500600082015250565b6000612060601f83611e04565b915061206b8261202a565b602082019050919050565b6000602082019050818103600083015261208f81612053565b9050919050565b600080fd5b600080fd5b60006120b36120ae846113a2565b611387565b9050828152602081018484840111156120cf576120ce611322565b5b6120da848285611287565b509392505050565b600082601f8301126120f7576120f661131d565b5b81516121078482602086016120a0565b91505092915050565b600067ffffffffffffffff82111561212b5761212a611327565b5b602082029050602081019050919050565b600080fd5b61214a8161151c565b811461215557600080fd5b50565b60008151905061216781612141565b92915050565b61217681611535565b811461218157600080fd5b50565b6000815190506121938161216d565b92915050565b6000606082840312156121af576121ae612096565b5b6121b96060611387565b9050600082015167ffffffffffffffff8111156121d9576121d861209b565b5b6121e5848285016120e2565b60008301525060206121f984828501612158565b602083015250604061220d84828501612184565b60408301525092915050565b600061222c61222784612110565b611387565b9050808382526020820190506020840283018581111561224f5761224e61213c565b5b835b8181101561229657805167ffffffffffffffff8111156122745761227361131d565b5b8086016122818982612199565b85526020850194505050602081019050612251565b5050509392505050565b600082601f8301126122b5576122b461131d565b5b81516122c5848260208601612219565b91505092915050565b6000606082840312156122e4576122e3612096565b5b6122ee6060611387565b9050600082015167ffffffffffffffff81111561230e5761230d61209b565b5b61231a848285016120e2565b600083015250602082015167ffffffffffffffff81111561233e5761233d61209b565b5b61234a848285016122a0565b602083015250604082015167ffffffffffffffff81111561236e5761236d61209b565b5b61237a848285016122a0565b60408301525092915050565b60006020828403121561239c5761239b6111d6565b5b600082015167ffffffffffffffff8111156123ba576123b96111db565b5b6123c6848285016122ce565b91505092915050565b60006040820190506123e46000830185611fad565b81810360208301526123f68184611e15565b90509392505050565b7f6661696c65642064656c656761746543616c6c20746f20707265636f6d70696c60008201527f6500000000000000000000000000000000000000000000000000000000000000602082015250565b600061245b602183611e04565b9150612466826123ff565b604082019050919050565b6000602082019050818103600083015261248a8161244e565b9050919050565b600067ffffffffffffffff8211156124ac576124ab611327565b5b602082029050602081019050919050565b6000604082840312156124d3576124d2612096565b5b6124dd6040611387565b9050600082015167ffffffffffffffff8111156124fd576124fc61209b565b5b612509848285016120e2565b600083015250602061251d84828501612158565b60208301525092915050565b600061253c61253784612491565b611387565b9050808382526020820190506020840283018581111561255f5761255e61213c565b5b835b818110156125a657805167ffffffffffffffff8111156125845761258361131d565b5b80860161259189826124bd565b85526020850194505050602081019050612561565b5050509392505050565b600082601f8301126125c5576125c461131d565b5b81516125d5848260208601612529565b91505092915050565b6000602082840312156125f4576125f36111d6565b5b600082015167ffffffffffffffff811115612612576126116111db565b5b61261e848285016125b0565b91505092915050565b61263081611834565b811461263b57600080fd5b50565b60008151905061264d81612627565b92915050565b600060208284031215612669576126686111d6565b5b60006126778482850161263e565b91505092915050565b7f4e487b7100000000000000000000000000000000000000000000000000000000600052601160045260246000fd5b60006126ba8261151c565b91507fffffffffffffffffffffffffffffffffffffffffffffffffffffffffffffffff82036126ec576126eb612680565b5b600182019050919050565b61270081611894565b82525050565b600060408201905061271b6000830185611fad565b61272860208301846126f7565b9392505050565b600061273a8261151c565b91506000820361274d5761274c612680565b5b600182039050919050565b60006020828403121561276e5761276d6111d6565b5b600082015167ffffffffffffffff81111561278c5761278b6111db565b5b612798848285016122a0565b91505092915050565b6127aa816119b8565b82525050565b600080fd5b600080fd5b600080fd5b600080833560016020038436030381126127dc576127db6127ba565b5b83810192508235915060208301925067ffffffffffffffff821115612804576128036127b0565b5b60018202360383131561281a576128196127b5565b5b509250929050565b600061282e8385611bd7565b935061283b8385846113d3565b612844836112b1565b840190509392505050565b600061285e60208401846119e3565b905092915050565b60008135905061287581612627565b92915050565b600061288a6020840184612866565b905092915050565b61289b81611834565b82525050565b600060a083016128b460008401846127bf565b85830360008701526128c7838284612822565b925050506128d8602084018461284f565b6128e56020860182611ae7565b506128f3604084018461284f565b6129006040860182611ae7565b5061290e606084018461287b565b61291b6060860182612892565b50612929608084018461287b565b6129366080860182612892565b508091505092915050565b6000608082019050818103600083015261295b8187611e15565b905061296a60208301866127a1565b61297760408301856127a1565b818103606083015261298981846128a1565b905095945050505050565b600067ffffffffffffffff8211156129af576129ae611327565b5b602082029050602081019050919050565b6000815190506129cf816119cc565b92915050565b6000604082840312156129eb576129ea612096565b5b6129f56040611387565b90506000612a0584828501612158565b6000830152506020612a1984828501612184565b60208301525092915050565b600060608284031215612a3b57612a3a612096565b5b612a456040611387565b90506000612a55848285016129c0565b6000830152506020612a69848285016129d5565b60208301525092915050565b6000612a88612a8384612994565b611387565b90508083825260208201905060608402830185811115612aab57612aaa61213c565b5b835b81811015612ad45780612ac08882612a25565b845260208401935050606081019050612aad565b5050509392505050565b600082601f830112612af357612af261131d565b5b8151612b03848260208601612a75565b91505092915050565b600067ffffffffffffffff821115612b2757612b26611327565b5b612b30826112b1565b9050602081019050919050565b6000612b50612b4b84612b0c565b611387565b905082815260208101848484011115612b6c57612b6b611322565b5b612b77848285611287565b509392505050565b600082601f830112612b9457612b9361131d565b5b8151612ba4848260208601612b3d565b91505092915050565b600060408284031215612bc357612bc2612096565b5b612bcd6040611387565b9050600082015167ffffffffffffffff811115612bed57612bec61209b565b5b612bf984828501612b7f565b6000830152506020612c0d848285016129c0565b60208301525092915050565b60008060408385031215612c3057612c2f6111d6565b5b600083015167ffffffffffffffff811115612c4e57612c4d6111db565b5b612c5a85828601612ade565b925050602083015167ffffffffffffffff811115612c7b57612c7a6111db565b5b612c8785828601612bad565b9150509250929050565b7f6661696c656420746f2073657420776974686472617720616464726573730000600082015250565b6000612cc7601e83611e04565b9150612cd282612c91565b602082019050919050565b60006020820190508181036000830152612cf681612cba565b9050919050565b600067ffffffffffffffff821115612d1857612d17611327565b5b602082029050602081019050919050565b6000612d3c612d3784612cfd565b611387565b90508083825260208201905060208402830185811115612d5f57612d5e61213c565b5b835b81811015612da657805167ffffffffffffffff811115612d8457612d8361131d565b5b808601612d9189826120e2565b85526020850194505050602081019050612d61565b5050509392505050565b600082601f830112612dc557612dc461131d565b5b8151612dd5848260208601612d29565b91505092915050565b600060208284031215612df457612df36111d6565b5b600082015167ffffffffffffffff811115612e1257612e116111db565b5b612e1e84828501612db0565b91505092915050565b600060208284031215612e3d57612e3c6111d6565b5b600082015167ffffffffffffffff811115612e5b57612e5a6111db565b5b612e67848285016120e2565b91505092915050565b600067ffffffffffffffff821115612e8b57612e8a611327565b5b602082029050602081019050919050565b600060408284031215612eb257612eb1612096565b5b612ebc6040611387565b9050600082015167ffffffffffffffff811115612edc57612edb61209b565b5b612ee8848285016120e2565b600083015250602082015167ffffffffffffffff811115612f0c57612f0b61209b565b5b612f18848285016122a0565b60208301525092915050565b6000612f37612f3284612e70565b611387565b90508083825260208201905060208402830185811115612f5a57612f5961213c565b5b835b81811015612fa157805167ffffffffffffffff811115612f7f57612f7e61131d565b5b808601612f8c8982612e9c565b85526020850194505050602081019050612f5c565b5050509392505050565b600082601f830112612fc057612fbf61131d565b5b8151612fd0848260208601612f24565b91505092915050565b60008060408385031215612ff057612fef6111d6565b5b600083015167ffffffffffffffff81111561300e5761300d6111db565b5b61301a85828601612fab565b925050602083015167ffffffffffffffff81111561303b5761303a6111db565b5b613047858286016122a0565b915050925092905056fea2646970667358221220da4f3e927603d81ab48a6e4fb5139eaedb56b9fef37e7e9e393c598ae51dcb8e64736f6c63430008130033",
  "linkReferences": {},
  "deployedLinkReferences": {}
}