{
  "_format": "hh-sol-artifact-1",
  "contractName": "DistributionCaller",
  "sourceName": "solidity/precompiles/testutil/contracts/DistributionCaller.sol",
  "abi": [
    {
      "inputs": [
        {
          "internalType": "address",
          "name": "_delAddr",
          "type": "address"
        },
        {
          "internalType": "string",
          "name": "_withdrawAddr",
          "type": "string"
        }
      ],
      "name": "delegateCallSetWithdrawAddress",
      "outputs": [],
      "stateMutability": "nonpayable",
      "type": "function"
    },
    {
      "inputs": [
        {
          "internalType": "address",
          "name": "_delAddr",
          "type": "address"
        },
        {
          "internalType": "string",
          "name": "_valAddr",
          "type": "string"
        }
      ],
      "name": "getDelegationRewards",
      "outputs": [
        {
          "components": [
            {
              "internalType": "string",
              "name": "denom",
              "type": "string"
            },
            {
              "internalType": "uint256",
              "name": "amount",
              "type": "uint256"
            },
            {
              "internalType": "uint8",
              "name": "precision",
              "type": "uint8"
            }
          ],
          "internalType": "struct DecCoin[]",
          "name": "",
          "type": "tuple[]"
        }
      ],
      "stateMutability": "view",
      "type": "function"
    },
    {
      "inputs": [
        {
          "internalType": "address",
          "name": "_delAddr",
          "type": "address"
        }
      ],
      "name": "getDelegationTotalRewards",
      "outputs": [
        {
          "components": [
            {
              "internalType": "string",
              "name": "validatorAddress",
              "type": "string"
            },
            {
              "components": [
                {
                  "internalType": "string",
                  "name": "denom",
                  "type": "string"
                },
                {
                  "internalType": "uint256",
                  "name": "amount",
                  "type": "uint256"
                },
                {
                  "internalType": "uint8",
                  "name": "precision",
                  "type": "uint8"
                }
              ],
              "internalType": "struct DecCoin[]",
              "name": "reward",
              "type": "tuple[]"
            }
          ],
          "internalType": "struct DelegationDelegatorReward[]",
          "name": "rewards",
          "type": "tuple[]"
        },
        {
          "components": [
            {
              "internalType": "string",
              "name": "denom",
              "type": "string"
            },
            {
              "internalType": "uint256",
              "name": "amount",
              "type": "uint256"
            },
            {
              "internalType": "uint8",
              "name": "precision",
              "type": "uint8"
            }
          ],
          "internalType": "struct DecCoin[]",
          "name": "total",
          "type": "tuple[]"
        }
      ],
      "stateMutability": "view",
      "type": "function"
    },
    {
      "inputs": [
        {
          "internalType": "address",
          "name": "_delAddr",
          "type": "address"
        }
      ],
      "name": "getDelegatorValidators",
      "outputs": [
        {
          "internalType": "string[]",
          "name": "",
          "type": "string[]"
        }
      ],
      "stateMutability": "view",
      "type": "function"
    },
    {
      "inputs": [
        {
          "internalType": "address",
          "name": "_delAddr",
          "type": "address"
        }
      ],
      "name": "getDelegatorWithdrawAddress",
      "outputs": [
        {
          "internalType": "string",
          "name": "",
          "type": "string"
        }
      ],
      "stateMutability": "view",
      "type": "function"
    },
    {
      "inputs": [
        {
          "internalType": "string",
          "name": "_valAddr",
          "type": "string"
        }
      ],
      "name": "getValidatorCommission",
      "outputs": [
        {
          "components": [
            {
              "internalType": "string",
              "name": "denom",
              "type": "string"
            },
            {
              "internalType": "uint256",
              "name": "amount",
              "type": "uint256"
            },
            {
              "internalType": "uint8",
              "name": "precision",
              "type": "uint8"
            }
          ],
          "internalType": "struct DecCoin[]",
          "name": "",
          "type": "tuple[]"
        }
      ],
      "stateMutability": "view",
      "type": "function"
    },
    {
      "inputs": [
        {
          "internalType": "string",
          "name": "_valAddr",
          "type": "string"
        }
      ],
      "name": "getValidatorDistributionInfo",
      "outputs": [
        {
          "components": [
            {
              "internalType": "string",
              "name": "operatorAddress",
              "type": "string"
            },
            {
              "components": [
                {
                  "internalType": "string",
                  "name": "denom",
                  "type": "string"
                },
                {
                  "internalType": "uint256",
                  "name": "amount",
                  "type": "uint256"
                },
                {
                  "internalType": "uint8",
                  "name": "precision",
                  "type": "uint8"
                }
              ],
              "internalType": "struct DecCoin[]",
              "name": "selfBondRewards",
              "type": "tuple[]"
            },
            {
              "components": [
                {
                  "internalType": "string",
                  "name": "denom",
                  "type": "string"
                },
                {
                  "internalType": "uint256",
                  "name": "amount",
                  "type": "uint256"
                },
                {
                  "internalType": "uint8",
                  "name": "precision",
                  "type": "uint8"
                }
              ],
              "internalType": "struct DecCoin[]",
              "name": "commission",
              "type": "tuple[]"
            }
          ],
          "internalType": "struct ValidatorDistributionInfo",
          "name": "",
          "type": "tuple"
        }
      ],
      "stateMutability": "view",
      "type": "function"
    },
    {
      "inputs": [
        {
          "internalType": "string",
          "name": "_valAddr",
          "type": "string"
        }
      ],
      "name": "getValidatorOutstandingRewards",
      "outputs": [
        {
          "components": [
            {
              "internalType": "string",
              "name": "denom",
              "type": "string"
            },
            {
              "internalType": "uint256",
              "name": "amount",
              "type": "uint256"
            },
            {
              "internalType": "uint8",
              "name": "precision",
              "type": "uint8"
            }
          ],
          "internalType": "struct DecCoin[]",
          "name": "",
          "type": "tuple[]"
        }
      ],
      "stateMutability": "view",
      "type": "function"
    },
    {
      "inputs": [
        {
          "internalType": "string",
          "name": "_valAddr",
          "type": "string"
        },
        {
          "internalType": "uint64",
          "name": "_startingHeight",
          "type": "uint64"
        },
        {
          "internalType": "uint64",
          "name": "_endingHeight",
          "type": "uint64"
        },
        {
          "components": [
            {
              "internalType": "bytes",
              "name": "key",
              "type": "bytes"
            },
            {
              "internalType": "uint64",
              "name": "offset",
              "type": "uint64"
            },
            {
              "internalType": "uint64",
              "name": "limit",
              "type": "uint64"
            },
            {
              "internalType": "bool",
              "name": "countTotal",
              "type": "bool"
            },
            {
              "internalType": "bool",
              "name": "reverse",
              "type": "bool"
            }
          ],
          "internalType": "struct PageRequest",
          "name": "pageRequest",
          "type": "tuple"
        }
      ],
      "name": "getValidatorSlashes",
      "outputs": [
        {
          "components": [
            {
              "internalType": "uint64",
              "name": "validatorPeriod",
              "type": "uint64"
            },
            {
              "components": [
                {
                  "internalType": "uint256",
                  "name": "value",
                  "type": "uint256"
                },
                {
                  "internalType": "uint8",
                  "name": "precision",
                  "type": "uint8"
                }
              ],
              "internalType": "struct Dec",
              "name": "fraction",
              "type": "tuple"
            }
          ],
          "internalType": "struct ValidatorSlashEvent[]",
          "name": "",
          "type": "tuple[]"
        },
        {
          "components": [
            {
              "internalType": "bytes",
              "name": "nextKey",
              "type": "bytes"
            },
            {
              "internalType": "uint64",
              "name": "total",
              "type": "uint64"
            }
          ],
          "internalType": "struct PageResponse",
          "name": "",
          "type": "tuple"
        }
      ],
      "stateMutability": "view",
      "type": "function"
    },
    {
      "inputs": [
        {
          "internalType": "address",
          "name": "_delAddr",
          "type": "address"
        }
      ],
      "name": "staticCallGetWithdrawAddress",
      "outputs": [
        {
          "internalType": "bytes",
          "name": "",
          "type": "bytes"
        }
      ],
      "stateMutability": "view",
      "type": "function"
    },
    {
      "inputs": [
        {
          "internalType": "address",
          "name": "_delAddr",
          "type": "address"
        },
        {
          "internalType": "string",
          "name": "_withdrawAddr",
          "type": "string"
        }
      ],
      "name": "staticCallSetWithdrawAddress",
      "outputs": [],
      "stateMutability": "view",
      "type": "function"
    },
    {
      "inputs": [
        {
          "internalType": "address",
          "name": "_delAddr",
          "type": "address"
        },
        {
          "internalType": "uint32",
          "name": "_maxRetrieve",
          "type": "uint32"
        }
      ],
      "name": "testClaimRewards",
      "outputs": [
        {
          "internalType": "bool",
          "name": "success",
          "type": "bool"
        }
      ],
      "stateMutability": "nonpayable",
      "type": "function"
    },
    {
      "inputs": [
        {
          "internalType": "string",
          "name": "_withdrawAddr",
          "type": "string"
        },
        {
          "internalType": "address",
          "name": "_delAddr",
          "type": "address"
        },
        {
          "internalType": "string",
          "name": "_valAddr",
          "type": "string"
        }
      ],
      "name": "testRevertState",
      "outputs": [
        {
          "components": [
            {
              "internalType": "string",
              "name": "denom",
              "type": "string"
            },
            {
              "internalType": "uint256",
              "name": "amount",
              "type": "uint256"
            }
          ],
          "internalType": "struct Coin[]",
          "name": "",
          "type": "tuple[]"
        }
      ],
      "stateMutability": "nonpayable",
      "type": "function"
    },
    {
      "inputs": [
        {
          "internalType": "address",
          "name": "_delAddr",
          "type": "address"
        },
        {
          "internalType": "string",
          "name": "_withdrawAddr",
          "type": "string"
        }
      ],
      "name": "testSetWithdrawAddress",
      "outputs": [
        {
          "internalType": "bool",
          "name": "",
          "type": "bool"
        }
      ],
      "stateMutability": "nonpayable",
      "type": "function"
    },
    {
      "inputs": [
        {
          "internalType": "string",
          "name": "_withdrawAddr",
          "type": "string"
        }
      ],
      "name": "testSetWithdrawAddressFromContract",
      "outputs": [
        {
          "internalType": "bool",
          "name": "",
          "type": "bool"
        }
      ],
      "stateMutability": "nonpayable",
      "type": "function"
    },
    {
      "inputs": [
        {
          "internalType": "address",
          "name": "_delAddr",
          "type": "address"
        },
        {
          "internalType": "string",
          "name": "_valAddr",
          "type": "string"
        }
      ],
      "name": "testWithdrawDelegatorRewards",
      "outputs": [
        {
          "components": [
            {
              "internalType": "string",
              "name": "denom",
              "type": "string"
            },
            {
              "internalType": "uint256",
              "name": "amount",
              "type": "uint256"
            }
          ],
          "internalType": "struct Coin[]",
          "name": "",
          "type": "tuple[]"
        }
      ],
      "stateMutability": "nonpayable",
      "type": "function"
    },
    {
      "inputs": [
        {
          "internalType": "string",
          "name": "_valAddr",
          "type": "string"
        }
      ],
      "name": "testWithdrawDelegatorRewardsFromContract",
      "outputs": [
        {
          "components": [
            {
              "internalType": "string",
              "name": "denom",
              "type": "string"
            },
            {
              "internalType": "uint256",
              "name": "amount",
              "type": "uint256"
            }
          ],
          "internalType": "struct Coin[]",
          "name": "",
          "type": "tuple[]"
        }
      ],
      "stateMutability": "nonpayable",
      "type": "function"
    },
    {
      "inputs": [
        {
          "internalType": "string",
          "name": "_valAddr",
          "type": "string"
        }
      ],
      "name": "testWithdrawValidatorCommission",
      "outputs": [
        {
          "components": [
            {
              "internalType": "string",
              "name": "denom",
              "type": "string"
            },
            {
              "internalType": "uint256",
              "name": "amount",
              "type": "uint256"
            }
          ],
          "internalType": "struct Coin[]",
          "name": "",
          "type": "tuple[]"
        }
      ],
      "stateMutability": "nonpayable",
      "type": "function"
    }
  ],
  "bytecode": "0x608060405234801561001057600080fd5b50612f60806100206000396000f3fe608060405234801561001057600080fd5b50600436106101165760003560e01c806388b2d581116100a2578063b6a216ae11610071578063b6a216ae14610364578063cb85aa0a14610394578063d3f831be146103c4578063e0421e39146103f4578063e236c7a61461042457610116565b806388b2d581146102a3578063963516e4146102d45780639819459314610304578063b2d178831461033457610116565b806346e16d34116100e957806346e16d34146101c75780636f669da4146101f757806378a5dfd114610227578063796b96d2146102575780637c9db0bb1461027357610116565b806301b680001461011b5780630c05e9e41461014b578063296c60aa1461017b5780632d0ee16a14610197575b600080fd5b610135600480360381019061013091906111e1565b610455565b604051610142919061129e565b60405180910390f35b610165600480360381019061016091906113f5565b61059d565b6040516101729190611638565b60405180910390f35b6101956004803603810190610190919061165a565b61062d565b005b6101b160048036038101906101ac91906113f5565b61076e565b6040516101be91906117b5565b60405180910390f35b6101e160048036038101906101dc919061165a565b6107fc565b6040516101ee91906117f2565b60405180910390f35b610211600480360381019061020c9190611849565b610886565b60405161021e91906117f2565b60405180910390f35b610241600480360381019061023c919061165a565b610910565b60405161024e919061190f565b60405180910390f35b610271600480360381019061026c919061165a565b61099d565b005b61028d600480360381019061028891906113f5565b610ade565b60405161029a919061190f565b60405180910390f35b6102bd60048036038101906102b89190611995565b610b68565b6040516102cb929190611bd7565b60405180910390f35b6102ee60048036038101906102e991906113f5565b610c06565b6040516102fb91906117f2565b60405180910390f35b61031e6004803603810190610319919061165a565b610c8f565b60405161032b91906117b5565b60405180910390f35b61034e60048036038101906103499190611c0e565b610d1e565b60405161035b91906117b5565b60405180910390f35b61037e600480360381019061037991906111e1565b610e73565b60405161038b9190611d5b565b60405180910390f35b6103ae60048036038101906103a991906111e1565b610efd565b6040516103bb9190611dc7565b60405180910390f35b6103de60048036038101906103d991906113f5565b610f87565b6040516103eb919061190f565b60405180910390f35b61040e600480360381019061040991906113f5565b611011565b60405161041b91906117b5565b60405180910390f35b61043e600480360381019061043991906111e1565b61109d565b60405161044c929190611eef565b60405180910390f35b606060008061080173ffffffffffffffffffffffffffffffffffffffff16846040516024016104849190611f35565b6040516020818303038152906040527f5431f450000000000000000000000000000000000000000000000000000000007bffffffffffffffffffffffffffffffffffffffffffffffffffffffff19166020820180517bffffffffffffffffffffffffffffffffffffffffffffffffffffffff838183161783525050505060405161050e9190611f8c565b600060405180830381855afa9150503d8060008114610549576040519150601f19603f3d011682016040523d82523d6000602084013e61054e565b606091505b509150915081610593576040517f08c379a000000000000000000000000000000000000000000000000000000000815260040161058a90611fef565b60405180910390fd5b8092505050919050565b6105a561112a565b61080173ffffffffffffffffffffffffffffffffffffffff166354212a89836040518263ffffffff1660e01b81526004016105e09190611dc7565b600060405180830381865afa1580156105fd573d6000803e3d6000fd5b505050506040513d6000823e3d601f19601f8201168201806040525081019061062691906122ff565b9050919050565b600061080173ffffffffffffffffffffffffffffffffffffffff16838360405160240161065b929190612348565b6040516020818303038152906040527f5a9d9a96000000000000000000000000000000000000000000000000000000007bffffffffffffffffffffffffffffffffffffffffffffffffffffffff19166020820180517bffffffffffffffffffffffffffffffffffffffffffffffffffffffff83818316178352505050506040516106e59190611f8c565b600060405180830381855af49150503d8060008114610720576040519150601f19603f3d011682016040523d82523d6000602084013e610725565b606091505b5050905080610769576040517f08c379a0000000000000000000000000000000000000000000000000000000008152600401610760906123ea565b60405180910390fd5b505050565b606061080173ffffffffffffffffffffffffffffffffffffffff1663b46a8d6130846040518363ffffffff1660e01b81526004016107ad929190612348565b6000604051808303816000875af11580156107cc573d6000803e3d6000fd5b505050506040513d6000823e3d601f19601f820116820180604052508101906107f59190612557565b9050919050565b600061080173ffffffffffffffffffffffffffffffffffffffff16635a9d9a9684846040518363ffffffff1660e01b815260040161083b929190612348565b6020604051808303816000875af115801561085a573d6000803e3d6000fd5b505050506040513d601f19601f8201168201806040525081019061087e91906125cc565b905092915050565b600061080173ffffffffffffffffffffffffffffffffffffffff16632efe8a5f84846040518363ffffffff1660e01b81526004016108c5929190612608565b6020604051808303816000875af11580156108e4573d6000803e3d6000fd5b505050506040513d601f19601f8201168201806040525081019061090891906125cc565b905092915050565b606061080173ffffffffffffffffffffffffffffffffffffffff16639ad563b484846040518363ffffffff1660e01b815260040161094f929190612348565b600060405180830381865afa15801561096c573d6000803e3d6000fd5b505050506040513d6000823e3d601f19601f820116820180604052508101906109959190612631565b905092915050565b600061080173ffffffffffffffffffffffffffffffffffffffff1683836040516024016109cb929190612348565b6040516020818303038152906040527f5a9d9a96000000000000000000000000000000000000000000000000000000007bffffffffffffffffffffffffffffffffffffffffffffffffffffffff19166020820180517bffffffffffffffffffffffffffffffffffffffffffffffffffffffff8381831617835250505050604051610a559190611f8c565b600060405180830381855afa9150503d8060008114610a90576040519150601f19603f3d011682016040523d82523d6000602084013e610a95565b606091505b5050905080610ad9576040517f08c379a0000000000000000000000000000000000000000000000000000000008152600401610ad090611fef565b60405180910390fd5b505050565b606061080173ffffffffffffffffffffffffffffffffffffffff16633dd40f78836040518263ffffffff1660e01b8152600401610b1b9190611dc7565b600060405180830381865afa158015610b38573d6000803e3d6000fd5b505050506040513d6000823e3d601f19601f82011682018060405250810190610b619190612631565b9050919050565b6060610b7261114b565b61080173ffffffffffffffffffffffffffffffffffffffff16638f2473ce878787876040518563ffffffff1660e01b8152600401610bb3949392919061281a565b600060405180830381865afa158015610bd0573d6000803e3d6000fd5b505050506040513d6000823e3d601f19601f82011682018060405250810190610bf99190612af2565b9150915094509492505050565b600061080173ffffffffffffffffffffffffffffffffffffffff16635a9d9a9630846040518363ffffffff1660e01b8152600401610c45929190612348565b6020604051808303816000875af1158015610c64573d6000803e3d6000fd5b505050506040513d601f19601f82011682018060405250810190610c8891906125cc565b9050919050565b606061080173ffffffffffffffffffffffffffffffffffffffff1663b46a8d6184846040518363ffffffff1660e01b8152600401610cce929190612348565b6000604051808303816000875af1158015610ced573d6000803e3d6000fd5b505050506040513d6000823e3d601f19601f82011682018060405250810190610d169190612557565b905092915050565b6060600061080173ffffffffffffffffffffffffffffffffffffffff16635a9d9a9633876040518363ffffffff1660e01b8152600401610d5f929190612348565b6020604051808303816000875af1158015610d7e573d6000803e3d6000fd5b505050506040513d601f19601f82011682018060405250810190610da291906125cc565b905080610de4576040517f08c379a0000000000000000000000000000000000000000000000000000000008152600401610ddb90612bb6565b60405180910390fd5b61080173ffffffffffffffffffffffffffffffffffffffff1663b46a8d6185856040518363ffffffff1660e01b8152600401610e21929190612348565b6000604051808303816000875af1158015610e40573d6000803e3d6000fd5b505050506040513d6000823e3d601f19601f82011682018060405250810190610e699190612557565b9150509392505050565b606061080173ffffffffffffffffffffffffffffffffffffffff1663a66cb605836040518263ffffffff1660e01b8152600401610eb09190611f35565b600060405180830381865afa158015610ecd573d6000803e3d6000fd5b505050506040513d6000823e3d601f19601f82011682018060405250810190610ef69190612cb7565b9050919050565b606061080173ffffffffffffffffffffffffffffffffffffffff16635431f450836040518263ffffffff1660e01b8152600401610f3a9190611f35565b600060405180830381865afa158015610f57573d6000803e3d6000fd5b505050506040513d6000823e3d601f19601f82011682018060405250810190610f809190612d00565b9050919050565b606061080173ffffffffffffffffffffffffffffffffffffffff166385b2d2da836040518263ffffffff1660e01b8152600401610fc49190611dc7565b600060405180830381865afa158015610fe1573d6000803e3d6000fd5b505050506040513d6000823e3d601f19601f8201168201806040525081019061100a9190612631565b9050919050565b606061080173ffffffffffffffffffffffffffffffffffffffff16633ce4e3be836040518263ffffffff1660e01b815260040161104e9190611dc7565b6000604051808303816000875af115801561106d573d6000803e3d6000fd5b505050506040513d6000823e3d601f19601f820116820180604052508101906110969190612557565b9050919050565b60608061080173ffffffffffffffffffffffffffffffffffffffff166354be1a28846040518263ffffffff1660e01b81526004016110db9190611f35565b600060405180830381865afa1580156110f8573d6000803e3d6000fd5b505050506040513d6000823e3d601f19601f820116820180604052508101906111219190612eb2565b91509150915091565b60405180606001604052806060815260200160608152602001606081525090565b604051806040016040528060608152602001600067ffffffffffffffff1681525090565b6000604051905090565b600080fd5b600080fd5b600073ffffffffffffffffffffffffffffffffffffffff82169050919050565b60006111ae82611183565b9050919050565b6111be816111a3565b81146111c957600080fd5b50565b6000813590506111db816111b5565b92915050565b6000602082840312156111f7576111f6611179565b5b6000611205848285016111cc565b91505092915050565b600081519050919050565b600082825260208201905092915050565b60005b8381101561124857808201518184015260208101905061122d565b60008484015250505050565b6000601f19601f8301169050919050565b60006112708261120e565b61127a8185611219565b935061128a81856020860161122a565b61129381611254565b840191505092915050565b600060208201905081810360008301526112b88184611265565b905092915050565b600080fd5b600080fd5b7f4e487b7100000000000000000000000000000000000000000000000000000000600052604160045260246000fd5b61130282611254565b810181811067ffffffffffffffff82111715611321576113206112ca565b5b80604052505050565b600061133461116f565b905061134082826112f9565b919050565b600067ffffffffffffffff8211156113605761135f6112ca565b5b61136982611254565b9050602081019050919050565b82818337600083830152505050565b600061139861139384611345565b61132a565b9050828152602081018484840111156113b4576113b36112c5565b5b6113bf848285611376565b509392505050565b600082601f8301126113dc576113db6112c0565b5b81356113ec848260208601611385565b91505092915050565b60006020828403121561140b5761140a611179565b5b600082013567ffffffffffffffff8111156114295761142861117e565b5b611435848285016113c7565b91505092915050565b600081519050919050565b600082825260208201905092915050565b60006114658261143e565b61146f8185611449565b935061147f81856020860161122a565b61148881611254565b840191505092915050565b600081519050919050565b600082825260208201905092915050565b6000819050602082019050919050565b6000819050919050565b6114d2816114bf565b82525050565b600060ff82169050919050565b6114ee816114d8565b82525050565b60006060830160008301518482036000860152611511828261145a565b915050602083015161152660208601826114c9565b50604083015161153960408601826114e5565b508091505092915050565b600061155083836114f4565b905092915050565b6000602082019050919050565b600061157082611493565b61157a818561149e565b93508360208202850161158c856114af565b8060005b858110156115c857848403895281516115a98582611544565b94506115b483611558565b925060208a01995050600181019050611590565b50829750879550505050505092915050565b600060608301600083015184820360008601526115f7828261145a565b915050602083015184820360208601526116118282611565565b9150506040830151848203604086015261162b8282611565565b9150508091505092915050565b6000602082019050818103600083015261165281846115da565b905092915050565b6000806040838503121561167157611670611179565b5b600061167f858286016111cc565b925050602083013567ffffffffffffffff8111156116a05761169f61117e565b5b6116ac858286016113c7565b9150509250929050565b600081519050919050565b600082825260208201905092915050565b6000819050602082019050919050565b600060408301600083015184820360008601526116ff828261145a565b915050602083015161171460208601826114c9565b508091505092915050565b600061172b83836116e2565b905092915050565b6000602082019050919050565b600061174b826116b6565b61175581856116c1565b935083602082028501611767856116d2565b8060005b858110156117a35784840389528151611784858261171f565b945061178f83611733565b925060208a0199505060018101905061176b565b50829750879550505050505092915050565b600060208201905081810360008301526117cf8184611740565b905092915050565b60008115159050919050565b6117ec816117d7565b82525050565b600060208201905061180760008301846117e3565b92915050565b600063ffffffff82169050919050565b6118268161180d565b811461183157600080fd5b50565b6000813590506118438161181d565b92915050565b600080604083850312156118605761185f611179565b5b600061186e858286016111cc565b925050602061187f85828601611834565b9150509250929050565b600082825260208201905092915050565b60006118a582611493565b6118af8185611889565b9350836020820285016118c1856114af565b8060005b858110156118fd57848403895281516118de8582611544565b94506118e983611558565b925060208a019950506001810190506118c5565b50829750879550505050505092915050565b60006020820190508181036000830152611929818461189a565b905092915050565b600067ffffffffffffffff82169050919050565b61194e81611931565b811461195957600080fd5b50565b60008135905061196b81611945565b92915050565b600080fd5b600060a0828403121561198c5761198b611971565b5b81905092915050565b600080600080608085870312156119af576119ae611179565b5b600085013567ffffffffffffffff8111156119cd576119cc61117e565b5b6119d9878288016113c7565b94505060206119ea8782880161195c565b93505060406119fb8782880161195c565b925050606085013567ffffffffffffffff811115611a1c57611a1b61117e565b5b611a2887828801611976565b91505092959194509250565b600081519050919050565b600082825260208201905092915050565b6000819050602082019050919050565b611a6981611931565b82525050565b604082016000820151611a8560008501826114c9565b506020820151611a9860208501826114e5565b50505050565b606082016000820151611ab46000850182611a60565b506020820151611ac76020850182611a6f565b50505050565b6000611ad98383611a9e565b60608301905092915050565b6000602082019050919050565b6000611afd82611a34565b611b078185611a3f565b9350611b1283611a50565b8060005b83811015611b43578151611b2a8882611acd565b9750611b3583611ae5565b925050600181019050611b16565b5085935050505092915050565b600082825260208201905092915050565b6000611b6c8261120e565b611b768185611b50565b9350611b8681856020860161122a565b611b8f81611254565b840191505092915050565b60006040830160008301518482036000860152611bb78282611b61565b9150506020830151611bcc6020860182611a60565b508091505092915050565b60006040820190508181036000830152611bf18185611af2565b90508181036020830152611c058184611b9a565b90509392505050565b600080600060608486031215611c2757611c26611179565b5b600084013567ffffffffffffffff811115611c4557611c4461117e565b5b611c51868287016113c7565b9350506020611c62868287016111cc565b925050604084013567ffffffffffffffff811115611c8357611c8261117e565b5b611c8f868287016113c7565b9150509250925092565b600081519050919050565b600082825260208201905092915050565b6000819050602082019050919050565b6000611cd1838361145a565b905092915050565b6000602082019050919050565b6000611cf182611c99565b611cfb8185611ca4565b935083602082028501611d0d85611cb5565b8060005b85811015611d495784840389528151611d2a8582611cc5565b9450611d3583611cd9565b925060208a01995050600181019050611d11565b50829750879550505050505092915050565b60006020820190508181036000830152611d758184611ce6565b905092915050565b600082825260208201905092915050565b6000611d998261143e565b611da38185611d7d565b9350611db381856020860161122a565b611dbc81611254565b840191505092915050565b60006020820190508181036000830152611de18184611d8e565b905092915050565b600081519050919050565b600082825260208201905092915050565b6000819050602082019050919050565b60006040830160008301518482036000860152611e32828261145a565b91505060208301518482036020860152611e4c8282611565565b9150508091505092915050565b6000611e658383611e15565b905092915050565b6000602082019050919050565b6000611e8582611de9565b611e8f8185611df4565b935083602082028501611ea185611e05565b8060005b85811015611edd5784840389528151611ebe8582611e59565b9450611ec983611e6d565b925060208a01995050600181019050611ea5565b50829750879550505050505092915050565b60006040820190508181036000830152611f098185611e7a565b90508181036020830152611f1d818461189a565b90509392505050565b611f2f816111a3565b82525050565b6000602082019050611f4a6000830184611f26565b92915050565b600081905092915050565b6000611f668261120e565b611f708185611f50565b9350611f8081856020860161122a565b80840191505092915050565b6000611f988284611f5b565b915081905092915050565b7f6661696c65642073746174696343616c6c20746f20707265636f6d70696c6500600082015250565b6000611fd9601f83611d7d565b9150611fe482611fa3565b602082019050919050565b6000602082019050818103600083015261200881611fcc565b9050919050565b600080fd5b600080fd5b600061202c61202784611345565b61132a565b905082815260208101848484011115612048576120476112c5565b5b61205384828561122a565b509392505050565b600082601f8301126120705761206f6112c0565b5b8151612080848260208601612019565b91505092915050565b600067ffffffffffffffff8211156120a4576120a36112ca565b5b602082029050602081019050919050565b600080fd5b6120c3816114bf565b81146120ce57600080fd5b50565b6000815190506120e0816120ba565b92915050565b6120ef816114d8565b81146120fa57600080fd5b50565b60008151905061210c816120e6565b92915050565b6000606082840312156121285761212761200f565b5b612132606061132a565b9050600082015167ffffffffffffffff81111561215257612151612014565b5b61215e8482850161205b565b6000830152506020612172848285016120d1565b6020830152506040612186848285016120fd565b60408301525092915050565b60006121a56121a084612089565b61132a565b905080838252602082019050602084028301858111156121c8576121c76120b5565b5b835b8181101561220f57805167ffffffffffffffff8111156121ed576121ec6112c0565b5b8086016121fa8982612112565b855260208501945050506020810190506121ca565b5050509392505050565b600082601f83011261222e5761222d6112c0565b5b815161223e848260208601612192565b91505092915050565b60006060828403121561225d5761225c61200f565b5b612267606061132a565b9050600082015167ffffffffffffffff81111561228757612286612014565b5b6122938482850161205b565b600083015250602082015167ffffffffffffffff8111156122b7576122b6612014565b5b6122c384828501612219565b602083015250604082015167ffffffffffffffff8111156122e7576122e6612014565b5b6122f384828501612219565b60408301525092915050565b60006020828403121561231557612314611179565b5b600082015167ffffffffffffffff8111156123335761233261117e565b5b61233f84828501612247565b91505092915050565b600060408201905061235d6000830185611f26565b818103602083015261236f8184611d8e565b90509392505050565b7f6661696c65642064656c656761746543616c6c20746f20707265636f6d70696c60008201527f6500000000000000000000000000000000000000000000000000000000000000602082015250565b60006123d4602183611d7d565b91506123df82612378565b604082019050919050565b60006020820190508181036000830152612403816123c7565b9050919050565b600067ffffffffffffffff821115612425576124246112ca565b5b602082029050602081019050919050565b60006040828403121561244c5761244b61200f565b5b612456604061132a565b9050600082015167ffffffffffffffff81111561247657612475612014565b5b6124828482850161205b565b6000830152506020612496848285016120d1565b60208301525092915050565b60006124b56124b08461240a565b61132a565b905080838252602082019050602084028301858111156124d8576124d76120b5565b5b835b8181101561251f57805167ffffffffffffffff8111156124fd576124fc6112c0565b5b80860161250a8982612436565b855260208501945050506020810190506124da565b5050509392505050565b600082601f83011261253e5761253d6112c0565b5b815161254e8482602086016124a2565b91505092915050565b60006020828403121561256d5761256c611179565b5b600082015167ffffffffffffffff81111561258b5761258a61117e565b5b61259784828501612529565b91505092915050565b6125a9816117d7565b81146125b457600080fd5b50565b6000815190506125c6816125a0565b92915050565b6000602082840312156125e2576125e1611179565b5b60006125f0848285016125b7565b91505092915050565b6126028161180d565b82525050565b600060408201905061261d6000830185611f26565b61262a60208301846125f9565b9392505050565b60006020828403121561264757612646611179565b5b600082015167ffffffffffffffff8111156126655761266461117e565b5b61267184828501612219565b91505092915050565b61268381611931565b82525050565b600080fd5b600080fd5b600080fd5b600080833560016020038436030381126126b5576126b4612693565b5b83810192508235915060208301925067ffffffffffffffff8211156126dd576126dc612689565b5b6001820236038313156126f3576126f261268e565b5b509250929050565b60006127078385611b50565b9350612714838584611376565b61271d83611254565b840190509392505050565b6000612737602084018461195c565b905092915050565b60008135905061274e816125a0565b92915050565b6000612763602084018461273f565b905092915050565b612774816117d7565b82525050565b600060a0830161278d6000840184612698565b85830360008701526127a08382846126fb565b925050506127b16020840184612728565b6127be6020860182611a60565b506127cc6040840184612728565b6127d96040860182611a60565b506127e76060840184612754565b6127f4606086018261276b565b506128026080840184612754565b61280f608086018261276b565b508091505092915050565b600060808201905081810360008301526128348187611d8e565b9050612843602083018661267a565b612850604083018561267a565b8181036060830152612862818461277a565b905095945050505050565b600067ffffffffffffffff821115612888576128876112ca565b5b602082029050602081019050919050565b6000815190506128a881611945565b92915050565b6000604082840312156128c4576128c361200f565b5b6128ce604061132a565b905060006128de848285016120d1565b60008301525060206128f2848285016120fd565b60208301525092915050565b6000606082840312156129145761291361200f565b5b61291e604061132a565b9050600061292e84828501612899565b6000830152506020612942848285016128ae565b60208301525092915050565b600061296161295c8461286d565b61132a565b90508083825260208201905060608402830185811115612984576129836120b5565b5b835b818110156129ad578061299988826128fe565b845260208401935050606081019050612986565b5050509392505050565b600082601f8301126129cc576129cb6112c0565b5b81516129dc84826020860161294e565b91505092915050565b600067ffffffffffffffff821115612a00576129ff6112ca565b5b612a0982611254565b9050602081019050919050565b6000612a29612a24846129e5565b61132a565b905082815260208101848484011115612a4557612a446112c5565b5b612a5084828561122a565b509392505050565b600082601f830112612a6d57612a6c6112c0565b5b8151612a7d848260208601612a16565b91505092915050565b600060408284031215612a9c57612a9b61200f565b5b612aa6604061132a565b9050600082015167ffffffffffffffff811115612ac657612ac5612014565b5b612ad284828501612a58565b6000830152506020612ae684828501612899565b60208301525092915050565b60008060408385031215612b0957612b08611179565b5b600083015167ffffffffffffffff811115612b2757612b2661117e565b5b612b33858286016129b7565b925050602083015167ffffffffffffffff811115612b5457612b5361117e565b5b612b6085828601612a86565b9150509250929050565b7f6661696c656420746f2073657420776974686472617720616464726573730000600082015250565b6000612ba0601e83611d7d565b9150612bab82612b6a565b602082019050919050565b60006020820190508181036000830152612bcf81612b93565b9050919050565b600067ffffffffffffffff821115612bf157612bf06112ca565b5b602082029050602081019050919050565b6000612c15612c1084612bd6565b61132a565b90508083825260208201905060208402830185811115612c3857612c376120b5565b5b835b81811015612c7f57805167ffffffffffffffff811115612c5d57612c5c6112c0565b5b808601612c6a898261205b565b85526020850194505050602081019050612c3a565b5050509392505050565b600082601f830112612c9e57612c9d6112c0565b5b8151612cae848260208601612c02565b91505092915050565b600060208284031215612ccd57612ccc611179565b5b600082015167ffffffffffffffff811115612ceb57612cea61117e565b5b612cf784828501612c89565b91505092915050565b600060208284031215612d1657612d15611179565b5b600082015167ffffffffffffffff811115612d3457612d3361117e565b5b612d408482850161205b565b91505092915050565b600067ffffffffffffffff821115612d6457612d636112ca565b5b602082029050602081019050919050565b600060408284031215612d8b57612d8a61200f565b5b612d95604061132a565b9050600082015167ffffffffffffffff811115612db557612db4612014565b5b612dc18482850161205b565b600083015250602082015167ffffffffffffffff811115612de557612de4612014565b5b612df184828501612219565b60208301525092915050565b6000612e10612e0b84612d49565b61132a565b90508083825260208201905060208402830185811115612e3357612e326120b5565b5b835b81811015612e7a57805167ffffffffffffffff811115612e5857612e576112c0565b5b808601612e658982612d75565b85526020850194505050602081019050612e35565b5050509392505050565b600082601f830112612e9957612e986112c0565b5b8151612ea9848260208601612dfd565b91505092915050565b60008060408385031215612ec957612ec8611179565b5b600083015167ffffffffffffffff811115612ee757612ee661117e565b5b612ef385828601612e84565b925050602083015167ffffffffffffffff811115612f1457612f1361117e565b5b612f2085828601612219565b915050925092905056fea2646970667358221220ca1dd756af2118cc5041e4bd9542a13fbf7b9e315028de6ce067eeaf65d30ed364736f6c63430008130033",
  "linkReferences": {},
  "deployedLinkReferences": {}
}