{
  "_format": "hh-sol-artifact-1",
  "contractName": "FlashLoan",
  "sourceName": "contracts/evmos/testutil/contracts/FlashLoan.sol",
  "abi": [
    {
      "inputs": [],
      "stateMutability": "nonpayable",
      "type": "constructor"
    },
    {
      "inputs": [
        {
          "internalType": "address",
          "name": "_delegator",
          "type": "address"
        },
        {
          "internalType": "string",
          "name": "_validator",
          "type": "string"
        },
        {
          "internalType": "uint256",
          "name": "_amount",
          "type": "uint256"
        }
      ],
      "name": "delegateWithRevert",
      "outputs": [],
      "stateMutability": "nonpayable",
      "type": "function"
    },
    {
      "inputs": [
        {
          "internalType": "address",
          "name": "_token",
          "type": "address"
        },
        {
          "internalType": "string",
          "name": "_validator",
          "type": "string"
        },
        {
          "internalType": "uint256",
          "name": "_amount",
          "type": "uint256"
        }
      ],
      "name": "flashLoan",
      "outputs": [
        {
          "internalType": "bool",
          "name": "",
          "type": "bool"
        }
      ],
      "stateMutability": "nonpayable",
      "type": "function"
    },
    {
      "inputs": [
        {
          "internalType": "address",
          "name": "_token",
          "type": "address"
        },
        {
          "internalType": "string",
          "name": "_validator",
          "type": "string"
        },
        {
          "internalType": "uint256",
          "name": "_amount",
          "type": "uint256"
        }
      ],
      "name": "flashLoanWithRevert",
      "outputs": [
        {
          "internalType": "bool",
          "name": "",
          "type": "bool"
        }
      ],
      "stateMutability": "nonpayable",
      "type": "function"
    },
    {
      "inputs": [],
      "name": "owner",
      "outputs": [
        {
          "internalType": "address",
          "name": "",
          "type": "address"
        }
      ],
      "stateMutability": "view",
      "type": "function"
    }
  ],
  "bytecode": "0x608060405234801561001057600080fd5b50336000806101000a81548173ffffffffffffffffffffffffffffffffffffffff021916908373ffffffffffffffffffffffffffffffffffffffff1602179055506113ea806100606000396000f3fe608060405234801561001057600080fd5b506004361061004c5760003560e01c80638da5cb5b146100515780638f5184301461006f578063ee52ad711461008b578063f12fae93146100bb575b600080fd5b6100596100eb565b6040516100669190610bdd565b60405180910390f35b61008960048036038101906100849190610db4565b61010f565b005b6100a560048036038101906100a09190610db4565b6101da565b6040516100b29190610e3e565b60405180910390f35b6100d560048036038101906100d09190610db4565b6107c9565b6040516100e29190610e3e565b60405180910390f35b60008054906101000a900473ffffffffffffffffffffffffffffffffffffffff1681565b600061080073ffffffffffffffffffffffffffffffffffffffff166353266bbb8585856040518463ffffffff1660e01b815260040161015093929190610ee7565b6020604051808303816000875af115801561016f573d6000803e3d6000fd5b505050506040513d601f19601f820116820180604052508101906101939190610f51565b9050806101d5576040517f08c379a00000000000000000000000000000000000000000000000000000000081526004016101cc90610fca565b60405180910390fd5b600080fd5b60008060009054906101000a900473ffffffffffffffffffffffffffffffffffffffff1673ffffffffffffffffffffffffffffffffffffffff163373ffffffffffffffffffffffffffffffffffffffff161461026b576040517f08c379a00000000000000000000000000000000000000000000000000000000081526004016102629061105c565b60405180910390fd5b6000849050828173ffffffffffffffffffffffffffffffffffffffff1663dd62ed3e33306040518363ffffffff1660e01b81526004016102ac92919061107c565b602060405180830381865afa1580156102c9573d6000803e3d6000fd5b505050506040513d601f19601f820116820180604052508101906102ed91906110ba565b101561032e576040517f08c379a000000000000000000000000000000000000000000000000000000000815260040161032590611133565b60405180910390fd5b60008173ffffffffffffffffffffffffffffffffffffffff166370a08231306040518263ffffffff1660e01b81526004016103699190610bdd565b602060405180830381865afa158015610386573d6000803e3d6000fd5b505050506040513d601f19601f820116820180604052508101906103aa91906110ba565b905060008273ffffffffffffffffffffffffffffffffffffffff166323b872dd3330886040518463ffffffff1660e01b81526004016103eb93929190611153565b6020604051808303816000875af115801561040a573d6000803e3d6000fd5b505050506040513d601f19601f8201168201806040525081019061042e9190610f51565b905080610470576040517f08c379a0000000000000000000000000000000000000000000000000000000008152600401610467906111fc565b60405180910390fd5b848261047c919061124b565b8373ffffffffffffffffffffffffffffffffffffffff166370a08231306040518263ffffffff1660e01b81526004016104b59190610bdd565b602060405180830381865afa1580156104d2573d6000803e3d6000fd5b505050506040513d601f19601f820116820180604052508101906104f691906110ba565b14610536576040517f08c379a000000000000000000000000000000000000000000000000000000000815260040161052d906112cb565b60405180910390fd5b61080073ffffffffffffffffffffffffffffffffffffffff166353266bbb3388886040518463ffffffff1660e01b815260040161057593929190610ee7565b6020604051808303816000875af1158015610594573d6000803e3d6000fd5b505050506040513d601f19601f820116820180604052508101906105b89190610f51565b9050806105fa576040517f08c379a00000000000000000000000000000000000000000000000000000000081526004016105f190610fca565b60405180910390fd5b8273ffffffffffffffffffffffffffffffffffffffff166370a08231306040518263ffffffff1660e01b81526004016106339190610bdd565b602060405180830381865afa158015610650573d6000803e3d6000fd5b505050506040513d601f19601f8201168201806040525081019061067491906110ba565b91508273ffffffffffffffffffffffffffffffffffffffff1663a9059cbb33876040518363ffffffff1660e01b81526004016106b19291906112eb565b6020604051808303816000875af11580156106d0573d6000803e3d6000fd5b505050506040513d601f19601f820116820180604052508101906106f49190610f51565b5084826107019190611314565b8373ffffffffffffffffffffffffffffffffffffffff166370a08231306040518263ffffffff1660e01b815260040161073a9190610bdd565b602060405180830381865afa158015610757573d6000803e3d6000fd5b505050506040513d601f19601f8201168201806040525081019061077b91906110ba565b146107bb576040517f08c379a00000000000000000000000000000000000000000000000000000000081526004016107b290611394565b60405180910390fd5b600193505050509392505050565b60008060009054906101000a900473ffffffffffffffffffffffffffffffffffffffff1673ffffffffffffffffffffffffffffffffffffffff163373ffffffffffffffffffffffffffffffffffffffff161461085a576040517f08c379a00000000000000000000000000000000000000000000000000000000081526004016108519061105c565b60405180910390fd5b6000849050828173ffffffffffffffffffffffffffffffffffffffff1663dd62ed3e33306040518363ffffffff1660e01b815260040161089b92919061107c565b602060405180830381865afa1580156108b8573d6000803e3d6000fd5b505050506040513d601f19601f820116820180604052508101906108dc91906110ba565b101561091d576040517f08c379a000000000000000000000000000000000000000000000000000000000815260040161091490611133565b60405180910390fd5b60008173ffffffffffffffffffffffffffffffffffffffff166370a08231306040518263ffffffff1660e01b81526004016109589190610bdd565b602060405180830381865afa158015610975573d6000803e3d6000fd5b505050506040513d601f19601f8201168201806040525081019061099991906110ba565b905060008273ffffffffffffffffffffffffffffffffffffffff166323b872dd3330886040518463ffffffff1660e01b81526004016109da93929190611153565b6020604051808303816000875af11580156109f9573d6000803e3d6000fd5b505050506040513d601f19601f82011682018060405250810190610a1d9190610f51565b905080610a5f576040517f08c379a0000000000000000000000000000000000000000000000000000000008152600401610a56906111fc565b60405180910390fd5b8482610a6b919061124b565b8373ffffffffffffffffffffffffffffffffffffffff166370a08231306040518263ffffffff1660e01b8152600401610aa49190610bdd565b602060405180830381865afa158015610ac1573d6000803e3d6000fd5b505050506040513d601f19601f82011682018060405250810190610ae591906110ba565b14610b25576040517f08c379a0000000000000000000000000000000000000000000000000000000008152600401610b1c906112cb565b60405180910390fd5b3073ffffffffffffffffffffffffffffffffffffffff16638f5184303388886040518463ffffffff1660e01b8152600401610b6293929190610ee7565b600060405180830381600087803b158015610b7c57600080fd5b505af1925050508015610b8d575060015b50600193505050509392505050565b600073ffffffffffffffffffffffffffffffffffffffff82169050919050565b6000610bc782610b9c565b9050919050565b610bd781610bbc565b82525050565b6000602082019050610bf26000830184610bce565b92915050565b6000604051905090565b600080fd5b600080fd5b610c1581610bbc565b8114610c2057600080fd5b50565b600081359050610c3281610c0c565b92915050565b600080fd5b600080fd5b6000601f19601f8301169050919050565b7f4e487b7100000000000000000000000000000000000000000000000000000000600052604160045260246000fd5b610c8b82610c42565b810181811067ffffffffffffffff82111715610caa57610ca9610c53565b5b80604052505050565b6000610cbd610bf8565b9050610cc98282610c82565b919050565b600067ffffffffffffffff821115610ce957610ce8610c53565b5b610cf282610c42565b9050602081019050919050565b82818337600083830152505050565b6000610d21610d1c84610cce565b610cb3565b905082815260208101848484011115610d3d57610d3c610c3d565b5b610d48848285610cff565b509392505050565b600082601f830112610d6557610d64610c38565b5b8135610d75848260208601610d0e565b91505092915050565b6000819050919050565b610d9181610d7e565b8114610d9c57600080fd5b50565b600081359050610dae81610d88565b92915050565b600080600060608486031215610dcd57610dcc610c02565b5b6000610ddb86828701610c23565b935050602084013567ffffffffffffffff811115610dfc57610dfb610c07565b5b610e0886828701610d50565b9250506040610e1986828701610d9f565b9150509250925092565b60008115159050919050565b610e3881610e23565b82525050565b6000602082019050610e536000830184610e2f565b92915050565b600081519050919050565b600082825260208201905092915050565b60005b83811015610e93578082015181840152602081019050610e78565b60008484015250505050565b6000610eaa82610e59565b610eb48185610e64565b9350610ec4818560208601610e75565b610ecd81610c42565b840191505092915050565b610ee181610d7e565b82525050565b6000606082019050610efc6000830186610bce565b8181036020830152610f0e8185610e9f565b9050610f1d6040830184610ed8565b949350505050565b610f2e81610e23565b8114610f3957600080fd5b50565b600081519050610f4b81610f25565b92915050565b600060208284031215610f6757610f66610c02565b5b6000610f7584828501610f3c565b91505092915050565b7f6661696c656420746f2064656c65676174650000000000000000000000000000600082015250565b6000610fb4601283610e64565b9150610fbf82610f7e565b602082019050919050565b60006020820190508181036000830152610fe381610fa7565b9050919050565b7f4f6e6c79206f776e65722063616e2063616c6c20746869732066756e6374696f60008201527f6e00000000000000000000000000000000000000000000000000000000000000602082015250565b6000611046602183610e64565b915061105182610fea565b604082019050919050565b6000602082019050818103600083015261107581611039565b9050919050565b60006040820190506110916000830185610bce565b61109e6020830184610bce565b9392505050565b6000815190506110b481610d88565b92915050565b6000602082840312156110d0576110cf610c02565b5b60006110de848285016110a5565b91505092915050565b7f496e73756666696369656e7420616c6c6f77616e636500000000000000000000600082015250565b600061111d601683610e64565b9150611128826110e7565b602082019050919050565b6000602082019050818103600083015261114c81611110565b9050919050565b60006060820190506111686000830186610bce565b6111756020830185610bce565b6111826040830184610ed8565b949350505050565b7f4661696c656420746f207472616e7366657220746f6b656e7320666f7220666c60008201527f617368206c6f616e000000000000000000000000000000000000000000000000602082015250565b60006111e6602883610e64565b91506111f18261118a565b604082019050919050565b60006020820190508181036000830152611215816111d9565b9050919050565b7f4e487b7100000000000000000000000000000000000000000000000000000000600052601160045260246000fd5b600061125682610d7e565b915061126183610d7e565b92508282019050808211156112795761127861121c565b5b92915050565b7f466c617368206c6f616e206661696c6564000000000000000000000000000000600082015250565b60006112b5601183610e64565b91506112c08261127f565b602082019050919050565b600060208201905081810360008301526112e4816112a8565b9050919050565b60006040820190506113006000830185610bce565b61130d6020830184610ed8565b9392505050565b600061131f82610d7e565b915061132a83610d7e565b92508282039050818111156113425761134161121c565b5b92915050565b7f466c617368206c6f616e2072657061796d656e74206661696c65640000000000600082015250565b600061137e601b83610e64565b915061138982611348565b602082019050919050565b600060208201905081810360008301526113ad81611371565b905091905056fea2646970667358221220c424c19551d9b4559d960ffe973aece9d88bd266c540f629abf8f11eb26a6c1e64736f6c63430008120033",
  "linkReferences": {},
  "deployedLinkReferences": {}
}