{
  "_format": "hh-sol-artifact-1",
  "contractName": "InterchainSenderCaller",
  "sourceName": "solidity/precompiles/testutil/contracts/InterchainSenderCaller.sol",
  "abi": [
    {
      "inputs": [
        {
          "internalType": "address",
          "name": "_interchainSender",
          "type": "address"
        }
      ],
      "stateMutability": "payable",
      "type": "constructor"
    },
    {
      "inputs": [],
      "name": "counter",
      "outputs": [
        {
          "internalType": "int64",
          "name": "",
          "type": "int64"
        }
      ],
      "stateMutability": "view",
      "type": "function"
    },
    {
      "inputs": [
        {
          "internalType": "address payable",
          "name": "_source",
          "type": "address"
        },
        {
          "internalType": "string",
          "name": "sourcePort",
          "type": "string"
        },
        {
          "internalType": "string",
          "name": "sourceChannel",
          "type": "string"
        },
        {
          "internalType": "string",
          "name": "denom",
          "type": "string"
        },
        {
          "internalType": "uint256",
          "name": "amount",
          "type": "uint256"
        },
        {
          "internalType": "string",
          "name": "receiver",
          "type": "string"
        }
      ],
      "name": "performMultiTransferWithRevert",
      "outputs": [],
      "stateMutability": "nonpayable",
      "type": "function"
    },
    {
      "inputs": [
        {
          "internalType": "address payable",
          "name": "_source",
          "type": "address"
        },
        {
          "internalType": "string",
          "name": "sourcePort",
          "type": "string"
        },
        {
          "internalType": "string",
          "name": "sourceChannel",
          "type": "string"
        },
        {
          "internalType": "string",
          "name": "denom",
          "type": "string"
        },
        {
          "internalType": "uint256",
          "name": "amount",
          "type": "uint256"
        },
        {
          "internalType": "string",
          "name": "receiver",
          "type": "string"
        }
      ],
      "name": "performNestedTransfers",
      "outputs": [],
      "stateMutability": "nonpayable",
      "type": "function"
    },
    {
      "inputs": [
        {
          "internalType": "address payable",
          "name": "_source",
          "type": "address"
        },
        {
          "internalType": "string",
          "name": "sourcePort",
          "type": "string"
        },
        {
          "internalType": "string",
          "name": "sourceChannel",
          "type": "string"
        },
        {
          "internalType": "string",
          "name": "denom",
          "type": "string"
        },
        {
          "internalType": "uint256",
          "name": "amount",
          "type": "uint256"
        },
        {
          "internalType": "string",
          "name": "receiver",
          "type": "string"
        }
      ],
      "name": "transfersWithNestedRevert",
      "outputs": [],
      "stateMutability": "nonpayable",
      "type": "function"
    },
    {
      "inputs": [
        {
          "internalType": "address payable",
          "name": "_source",
          "type": "address"
        },
        {
          "internalType": "string",
          "name": "sourcePort",
          "type": "string"
        },
        {
          "internalType": "string",
          "name": "sourceChannel",
          "type": "string"
        },
        {
          "internalType": "string",
          "name": "denom",
          "type": "string"
        },
        {
          "internalType": "uint256",
          "name": "amount",
          "type": "uint256"
        },
        {
          "internalType": "string",
          "name": "receiver",
          "type": "string"
        }
      ],
      "name": "transfersWithRevert",
      "outputs": [],
      "stateMutability": "nonpayable",
      "type": "function"
    }
  ],
  "bytecode": "0x6080604052604051610c04380380610c04833981810160405281019061002591906100cf565b80600060086101000a81548173ffffffffffffffffffffffffffffffffffffffff021916908373ffffffffffffffffffffffffffffffffffffffff160217905550506100fc565b600080fd5b600073ffffffffffffffffffffffffffffffffffffffff82169050919050565b600061009c82610071565b9050919050565b6100ac81610091565b81146100b757600080fd5b50565b6000815190506100c9816100a3565b92915050565b6000602082840312156100e5576100e461006c565b5b60006100f3848285016100ba565b91505092915050565b610af98061010b6000396000f3fe608060405234801561001057600080fd5b50600436106100575760003560e01c8063073989ff1461005c578063427c1cb61461007857806361bc221a1461009457806369a98b2b146100b2578063ec3c5a14146100ce575b600080fd5b61007660048036038101906100719190610752565b6100ea565b005b610092600480360381019061008d9190610752565b6101f1565b005b61009c61030d565b6040516100a9919061086b565b60405180910390f35b6100cc60048036038101906100c79190610752565b61031e565b005b6100e860048036038101906100e39190610752565b6104c4565b005b60008081819054906101000a900460070b80929190610108906108b5565b91906101000a81548167ffffffffffffffff021916908360070b67ffffffffffffffff160217905550503073ffffffffffffffffffffffffffffffffffffffff1663427c1cb68787878787876040518763ffffffff1660e01b815260040161017596959493929190610982565b600060405180830381600087803b15801561018f57600080fd5b505af19250505080156101a0575060015b5060008081819054906101000a900460070b809291906101bf906108b5565b91906101000a81548167ffffffffffffffff021916908360070b67ffffffffffffffff16021790555050505050505050565b600060089054906101000a900473ffffffffffffffffffffffffffffffffffffffff1673ffffffffffffffffffffffffffffffffffffffff16631dba685b87878787878760018060016040518a63ffffffff1660e01b815260040161025e99989796959493929190610a1a565b600060405180830381600087803b15801561027857600080fd5b505af115801561028c573d6000803e3d6000fd5b505050503073ffffffffffffffffffffffffffffffffffffffff1663ec3c5a148787878787876040518763ffffffff1660e01b81526004016102d396959493929190610982565b600060405180830381600087803b1580156102ed57600080fd5b505af1158015610301573d6000803e3d6000fd5b50505050505050505050565b60008054906101000a900460070b81565b60008081819054906101000a900460070b8092919061033c906108b5565b91906101000a81548167ffffffffffffffff021916908360070b67ffffffffffffffff16021790555050600060089054906101000a900473ffffffffffffffffffffffffffffffffffffffff1673ffffffffffffffffffffffffffffffffffffffff16631dba685b87878787878760018060016040518a63ffffffff1660e01b81526004016103d399989796959493929190610a1a565b600060405180830381600087803b1580156103ed57600080fd5b505af1158015610401573d6000803e3d6000fd5b505050503073ffffffffffffffffffffffffffffffffffffffff1663ec3c5a148787878787876040518763ffffffff1660e01b815260040161044896959493929190610982565b600060405180830381600087803b15801561046257600080fd5b505af1925050508015610473575060015b5060008081819054906101000a900460070b80929190610492906108b5565b91906101000a81548167ffffffffffffffff021916908360070b67ffffffffffffffff16021790555050505050505050565b600060089054906101000a900473ffffffffffffffffffffffffffffffffffffffff1673ffffffffffffffffffffffffffffffffffffffff16631dba685b87878787878760018060016040518a63ffffffff1660e01b815260040161053199989796959493929190610a1a565b600060405180830381600087803b15801561054b57600080fd5b505af115801561055f573d6000803e3d6000fd5b600080fd5b6000604051905090565b600080fd5b600080fd5b600073ffffffffffffffffffffffffffffffffffffffff82169050919050565b60006105a382610578565b9050919050565b6105b381610598565b81146105be57600080fd5b50565b6000813590506105d0816105aa565b92915050565b600080fd5b600080fd5b6000601f19601f8301169050919050565b7f4e487b7100000000000000000000000000000000000000000000000000000000600052604160045260246000fd5b610629826105e0565b810181811067ffffffffffffffff82111715610648576106476105f1565b5b80604052505050565b600061065b610564565b90506106678282610620565b919050565b600067ffffffffffffffff821115610687576106866105f1565b5b610690826105e0565b9050602081019050919050565b82818337600083830152505050565b60006106bf6106ba8461066c565b610651565b9050828152602081018484840111156106db576106da6105db565b5b6106e684828561069d565b509392505050565b600082601f830112610703576107026105d6565b5b81356107138482602086016106ac565b91505092915050565b6000819050919050565b61072f8161071c565b811461073a57600080fd5b50565b60008135905061074c81610726565b92915050565b60008060008060008060c0878903121561076f5761076e61056e565b5b600061077d89828a016105c1565b965050602087013567ffffffffffffffff81111561079e5761079d610573565b5b6107aa89828a016106ee565b955050604087013567ffffffffffffffff8111156107cb576107ca610573565b5b6107d789828a016106ee565b945050606087013567ffffffffffffffff8111156107f8576107f7610573565b5b61080489828a016106ee565b935050608061081589828a0161073d565b92505060a087013567ffffffffffffffff81111561083657610835610573565b5b61084289828a016106ee565b9150509295509295509295565b60008160070b9050919050565b6108658161084f565b82525050565b6000602082019050610880600083018461085c565b92915050565b7f4e487b7100000000000000000000000000000000000000000000000000000000600052601160045260246000fd5b60006108c08261084f565b9150677fffffffffffffff82036108da576108d9610886565b5b600182019050919050565b6108ee81610598565b82525050565b600081519050919050565b600082825260208201905092915050565b60005b8381101561092e578082015181840152602081019050610913565b60008484015250505050565b6000610945826108f4565b61094f81856108ff565b935061095f818560208601610910565b610968816105e0565b840191505092915050565b61097c8161071c565b82525050565b600060c08201905061099760008301896108e5565b81810360208301526109a9818861093a565b905081810360408301526109bd818761093a565b905081810360608301526109d1818661093a565b90506109e06080830185610973565b81810360a08301526109f2818461093a565b9050979650505050505050565b60008115159050919050565b610a14816109ff565b82525050565b600061012082019050610a30600083018c6108e5565b8181036020830152610a42818b61093a565b90508181036040830152610a56818a61093a565b90508181036060830152610a6a818961093a565b9050610a796080830188610973565b81810360a0830152610a8b818761093a565b9050610a9a60c0830186610a0b565b610aa760e0830185610a0b565b610ab5610100830184610a0b565b9a995050505050505050505056fea264697066735822122006c420c5aa76bec23eee91c787113b6c1dfdae997bcb2dcf4c8df1eba21043d964736f6c63430008140033",
  "linkReferences": {},
  "deployedLinkReferences": {}
}