{
  "_format": "hh-sol-artifact-1",
  "contractName": "InterchainSender",
  "sourceName": "solidity/precompiles/testutil/contracts/InterchainSender.sol",
  "abi": [
    {
      "inputs": [
        {
          "internalType": "address",
          "name": "owner",
          "type": "address"
        },
        {
          "internalType": "address",
          "name": "spender",
          "type": "address"
        }
      ],
      "name": "testAllowance",
      "outputs": [
        {
          "components": [
            {
              "internalType": "string",
              "name": "sourcePort",
              "type": "string"
            },
            {
              "internalType": "string",
              "name": "sourceChannel",
              "type": "string"
            },
            {
              "components": [
                {
                  "internalType": "string",
                  "name": "denom",
                  "type": "string"
                },
                {
                  "internalType": "uint256",
                  "name": "amount",
                  "type": "uint256"
                }
              ],
              "internalType": "struct Coin[]",
              "name": "spendLimit",
              "type": "tuple[]"
            },
            {
              "internalType": "string[]",
              "name": "allowList",
              "type": "string[]"
            },
            {
              "internalType": "string[]",
              "name": "allowedPacketData",
              "type": "string[]"
            }
          ],
          "internalType": "struct ICS20Allocation[]",
          "name": "allocations",
          "type": "tuple[]"
        }
      ],
      "stateMutability": "view",
      "type": "function"
    },
    {
      "inputs": [
        {
          "components": [
            {
              "internalType": "string",
              "name": "sourcePort",
              "type": "string"
            },
            {
              "internalType": "string",
              "name": "sourceChannel",
              "type": "string"
            },
            {
              "components": [
                {
                  "internalType": "string",
                  "name": "denom",
                  "type": "string"
                },
                {
                  "internalType": "uint256",
                  "name": "amount",
                  "type": "uint256"
                }
              ],
              "internalType": "struct Coin[]",
              "name": "spendLimit",
              "type": "tuple[]"
            },
            {
              "internalType": "string[]",
              "name": "allowList",
              "type": "string[]"
            },
            {
              "internalType": "string[]",
              "name": "allowedPacketData",
              "type": "string[]"
            }
          ],
          "internalType": "struct ICS20Allocation[]",
          "name": "allocs",
          "type": "tuple[]"
        }
      ],
      "name": "testApprove",
      "outputs": [],
      "stateMutability": "nonpayable",
      "type": "function"
    },
    {
      "inputs": [
        {
          "internalType": "string",
          "name": "sourcePort",
          "type": "string"
        },
        {
          "internalType": "string",
          "name": "sourceChannel",
          "type": "string"
        },
        {
          "internalType": "string",
          "name": "denom",
          "type": "string"
        },
        {
          "internalType": "uint256",
          "name": "amount",
          "type": "uint256"
        }
      ],
      "name": "testDecreaseAllowance",
      "outputs": [],
      "stateMutability": "nonpayable",
      "type": "function"
    },
    {
      "inputs": [
        {
          "internalType": "string",
          "name": "trace",
          "type": "string"
        }
      ],
      "name": "testDenomHash",
      "outputs": [
        {
          "internalType": "string",
          "name": "hash",
          "type": "string"
        }
      ],
      "stateMutability": "view",
      "type": "function"
    },
    {
      "inputs": [
        {
          "internalType": "string",
          "name": "hash",
          "type": "string"
        }
      ],
      "name": "testDenomTrace",
      "outputs": [
        {
          "components": [
            {
              "internalType": "string",
              "name": "path",
              "type": "string"
            },
            {
              "internalType": "string",
              "name": "baseDenom",
              "type": "string"
            }
          ],
          "internalType": "struct DenomTrace",
          "name": "denomTrace",
          "type": "tuple"
        }
      ],
      "stateMutability": "view",
      "type": "function"
    },
    {
      "inputs": [
        {
          "components": [
            {
              "internalType": "bytes",
              "name": "key",
              "type": "bytes"
            },
            {
              "internalType": "uint64",
              "name": "offset",
              "type": "uint64"
            },
            {
              "internalType": "uint64",
              "name": "limit",
              "type": "uint64"
            },
            {
              "internalType": "bool",
              "name": "countTotal",
              "type": "bool"
            },
            {
              "internalType": "bool",
              "name": "reverse",
              "type": "bool"
            }
          ],
          "internalType": "struct PageRequest",
          "name": "pageRequest",
          "type": "tuple"
        }
      ],
      "name": "testDenomTraces",
      "outputs": [
        {
          "components": [
            {
              "internalType": "string",
              "name": "path",
              "type": "string"
            },
            {
              "internalType": "string",
              "name": "baseDenom",
              "type": "string"
            }
          ],
          "internalType": "struct DenomTrace[]",
          "name": "denomTraces",
          "type": "tuple[]"
        },
        {
          "components": [
            {
              "internalType": "bytes",
              "name": "nextKey",
              "type": "bytes"
            },
            {
              "internalType": "uint64",
              "name": "total",
              "type": "uint64"
            }
          ],
          "internalType": "struct PageResponse",
          "name": "pageResponse",
          "type": "tuple"
        }
      ],
      "stateMutability": "view",
      "type": "function"
    },
    {
      "inputs": [
        {
          "internalType": "string",
          "name": "sourcePort",
          "type": "string"
        },
        {
          "internalType": "string",
          "name": "sourceChannel",
          "type": "string"
        },
        {
          "internalType": "string",
          "name": "denom",
          "type": "string"
        },
        {
          "internalType": "uint256",
          "name": "amount",
          "type": "uint256"
        }
      ],
      "name": "testIncreaseAllowance",
      "outputs": [],
      "stateMutability": "nonpayable",
      "type": "function"
    },
    {
      "inputs": [],
      "name": "testRevoke",
      "outputs": [],
      "stateMutability": "nonpayable",
      "type": "function"
    },
    {
      "inputs": [
        {
          "internalType": "string",
          "name": "sourcePort",
          "type": "string"
        },
        {
          "internalType": "string",
          "name": "sourceChannel",
          "type": "string"
        },
        {
          "internalType": "string",
          "name": "denom",
          "type": "string"
        },
        {
          "internalType": "uint256",
          "name": "amount",
          "type": "uint256"
        },
        {
          "internalType": "string",
          "name": "receiver",
          "type": "string"
        },
        {
          "components": [
            {
              "internalType": "uint64",
              "name": "revisionNumber",
              "type": "uint64"
            },
            {
              "internalType": "uint64",
              "name": "revisionHeight",
              "type": "uint64"
            }
          ],
          "internalType": "struct Height",
          "name": "timeoutHeight",
          "type": "tuple"
        },
        {
          "internalType": "uint64",
          "name": "timeoutTimestamp",
          "type": "uint64"
        },
        {
          "internalType": "string",
          "name": "memo",
          "type": "string"
        }
      ],
      "name": "testTransferContractFunds",
      "outputs": [
        {
          "internalType": "uint64",
          "name": "nextSequence",
          "type": "uint64"
        }
      ],
      "stateMutability": "nonpayable",
      "type": "function"
    },
    {
      "inputs": [
        {
          "internalType": "string",
          "name": "sourcePort",
          "type": "string"
        },
        {
          "internalType": "string",
          "name": "sourceChannel",
          "type": "string"
        },
        {
          "internalType": "string",
          "name": "denom",
          "type": "string"
        },
        {
          "internalType": "uint256",
          "name": "amount",
          "type": "uint256"
        },
        {
          "internalType": "string",
          "name": "receiver",
          "type": "string"
        },
        {
          "components": [
            {
              "internalType": "uint64",
              "name": "revisionNumber",
              "type": "uint64"
            },
            {
              "internalType": "uint64",
              "name": "revisionHeight",
              "type": "uint64"
            }
          ],
          "internalType": "struct Height",
          "name": "timeoutHeight",
          "type": "tuple"
        },
        {
          "internalType": "uint64",
          "name": "timeoutTimestamp",
          "type": "uint64"
        },
        {
          "internalType": "string",
          "name": "memo",
          "type": "string"
        }
      ],
      "name": "testTransferUserFunds",
      "outputs": [
        {
          "internalType": "uint64",
          "name": "nextSequence",
          "type": "uint64"
        }
      ],
      "stateMutability": "nonpayable",
      "type": "function"
    }
  ],
  "bytecode": "0x608060405234801561001057600080fd5b506129bc806100206000396000f3fe608060405234801561001057600080fd5b506004361061009e5760003560e01c8063c595699a11610066578063c595699a14610159578063dfa10f3914610189578063ee5766d9146101ba578063f298e7a8146101ea578063f3675f08146102065761009e565b8063424af9f6146100a35780636fdf23cc146100bf5780637492bdd8146100ef5780637a6185e11461011f578063a363df8414610129575b600080fd5b6100bd60048036038101906100b891906109ca565b610222565b005b6100d960048036038101906100d49190610c6e565b6102fc565b6040516100e69190610dc0565b60405180910390f35b61010960048036038101906101049190610c6e565b61039a565b6040516101169190610dc0565b60405180910390f35b610127610438565b005b610143600480360381019061013e9190610e39565b6104fd565b604051610150919061121c565b60405180910390f35b610173600480360381019061016e919061123e565b61058a565b60405161018091906112d1565b60405180910390f35b6101a3600480360381019061019e9190611317565b610614565b6040516101b1929190611507565b60405180910390f35b6101d460048036038101906101cf919061123e565b6106a8565b6040516101e19190611582565b60405180910390f35b61020460048036038101906101ff91906109ca565b610738565b005b610220600480360381019061021b91906115fa565b610812565b005b600061080273ffffffffffffffffffffffffffffffffffffffff166354de647b308a8a8a8a8a8a8a6040518963ffffffff1660e01b815260040161026d989796959493929190611692565b6020604051808303816000875af115801561028c573d6000803e3d6000fd5b505050506040513d601f19601f820116820180604052508101906102b09190611738565b9050806102f2576040517f08c379a00000000000000000000000000000000000000000000000000000000081526004016102e9906117b1565b60405180910390fd5b5050505050505050565b600061080273ffffffffffffffffffffffffffffffffffffffff1663632535b98a8a8a8a308b8b8b8b6040518a63ffffffff1660e01b815260040161034999989796959493929190611800565b6020604051808303816000875af1158015610368573d6000803e3d6000fd5b505050506040513d601f19601f8201168201806040525081019061038c91906118c6565b905098975050505050505050565b600061080273ffffffffffffffffffffffffffffffffffffffff1663632535b98a8a8a8a338b8b8b8b6040518a63ffffffff1660e01b81526004016103e799989796959493929190611800565b6020604051808303816000875af1158015610406573d6000803e3d6000fd5b505050506040513d601f19601f8201168201806040525081019061042a91906118c6565b905098975050505050505050565b600061080273ffffffffffffffffffffffffffffffffffffffff166374a8f103306040518263ffffffff1660e01b815260040161047591906118f3565b6020604051808303816000875af1158015610494573d6000803e3d6000fd5b505050506040513d601f19601f820116820180604052508101906104b89190611738565b9050806104fa576040517f08c379a00000000000000000000000000000000000000000000000000000000081526004016104f19061195a565b60405180910390fd5b50565b606061080273ffffffffffffffffffffffffffffffffffffffff1663dd62ed3e84846040518363ffffffff1660e01b815260040161053c92919061197a565b600060405180830381865afa158015610559573d6000803e3d6000fd5b505050506040513d6000823e3d601f19601f820116820180604052508101906105829190611e4f565b905092915050565b606061080273ffffffffffffffffffffffffffffffffffffffff1663b5cb6e7d836040518263ffffffff1660e01b81526004016105c791906112d1565b600060405180830381865afa1580156105e4573d6000803e3d6000fd5b505050506040513d6000823e3d601f19601f8201168201806040525081019061060d9190611e98565b9050919050565b606061061e6108dd565b61080273ffffffffffffffffffffffffffffffffffffffff166322b6fad6846040518263ffffffff1660e01b81526004016106599190612072565b600060405180830381865afa158015610676573d6000803e3d6000fd5b505050506040513d6000823e3d601f19601f8201168201806040525081019061069f919061230a565b91509150915091565b6106b0610901565b61080273ffffffffffffffffffffffffffffffffffffffff1663a815cdd9836040518263ffffffff1660e01b81526004016106eb91906112d1565b600060405180830381865afa158015610708573d6000803e3d6000fd5b505050506040513d6000823e3d601f19601f820116820180604052508101906107319190612382565b9050919050565b600061080273ffffffffffffffffffffffffffffffffffffffff1663b3f536ec308a8a8a8a8a8a8a6040518963ffffffff1660e01b8152600401610783989796959493929190611692565b6020604051808303816000875af11580156107a2573d6000803e3d6000fd5b505050506040513d601f19601f820116820180604052508101906107c69190611738565b905080610808576040517f08c379a00000000000000000000000000000000000000000000000000000000081526004016107ff90612417565b60405180910390fd5b5050505050505050565b600061080273ffffffffffffffffffffffffffffffffffffffff1663473c90c73085856040518463ffffffff1660e01b8152600401610853939291906128e8565b6020604051808303816000875af1158015610872573d6000803e3d6000fd5b505050506040513d601f19601f820116820180604052508101906108969190611738565b9050806108d8576040517f08c379a00000000000000000000000000000000000000000000000000000000081526004016108cf90612966565b60405180910390fd5b505050565b604051806040016040528060608152602001600067ffffffffffffffff1681525090565b604051806040016040528060608152602001606081525090565b6000604051905090565b600080fd5b600080fd5b600080fd5b600080fd5b600080fd5b60008083601f8401126109545761095361092f565b5b8235905067ffffffffffffffff81111561097157610970610934565b5b60208301915083600182028301111561098d5761098c610939565b5b9250929050565b6000819050919050565b6109a781610994565b81146109b257600080fd5b50565b6000813590506109c48161099e565b92915050565b60008060008060008060006080888a0312156109e9576109e8610925565b5b600088013567ffffffffffffffff811115610a0757610a0661092a565b5b610a138a828b0161093e565b9750975050602088013567ffffffffffffffff811115610a3657610a3561092a565b5b610a428a828b0161093e565b9550955050604088013567ffffffffffffffff811115610a6557610a6461092a565b5b610a718a828b0161093e565b93509350506060610a848a828b016109b5565b91505092959891949750929550565b600080fd5b6000601f19601f8301169050919050565b7f4e487b7100000000000000000000000000000000000000000000000000000000600052604160045260246000fd5b610ae182610a98565b810181811067ffffffffffffffff82111715610b0057610aff610aa9565b5b80604052505050565b6000610b1361091b565b9050610b1f8282610ad8565b919050565b600067ffffffffffffffff821115610b3f57610b3e610aa9565b5b610b4882610a98565b9050602081019050919050565b82818337600083830152505050565b6000610b77610b7284610b24565b610b09565b905082815260208101848484011115610b9357610b92610a93565b5b610b9e848285610b55565b509392505050565b600082601f830112610bbb57610bba61092f565b5b8135610bcb848260208601610b64565b91505092915050565b600080fd5b600080fd5b600067ffffffffffffffff82169050919050565b610bfb81610bde565b8114610c0657600080fd5b50565b600081359050610c1881610bf2565b92915050565b600060408284031215610c3457610c33610bd4565b5b610c3e6040610b09565b90506000610c4e84828501610c09565b6000830152506020610c6284828501610c09565b60208301525092915050565b600080600080600080600080610120898b031215610c8f57610c8e610925565b5b600089013567ffffffffffffffff811115610cad57610cac61092a565b5b610cb98b828c01610ba6565b985050602089013567ffffffffffffffff811115610cda57610cd961092a565b5b610ce68b828c01610ba6565b975050604089013567ffffffffffffffff811115610d0757610d0661092a565b5b610d138b828c01610ba6565b9650506060610d248b828c016109b5565b955050608089013567ffffffffffffffff811115610d4557610d4461092a565b5b610d518b828c01610ba6565b94505060a0610d628b828c01610c1e565b93505060e0610d738b828c01610c09565b92505061010089013567ffffffffffffffff811115610d9557610d9461092a565b5b610da18b828c01610ba6565b9150509295985092959890939650565b610dba81610bde565b82525050565b6000602082019050610dd56000830184610db1565b92915050565b600073ffffffffffffffffffffffffffffffffffffffff82169050919050565b6000610e0682610ddb565b9050919050565b610e1681610dfb565b8114610e2157600080fd5b50565b600081359050610e3381610e0d565b92915050565b60008060408385031215610e5057610e4f610925565b5b6000610e5e85828601610e24565b9250506020610e6f85828601610e24565b9150509250929050565b600081519050919050565b600082825260208201905092915050565b6000819050602082019050919050565b600081519050919050565b600082825260208201905092915050565b60005b83811015610edf578082015181840152602081019050610ec4565b60008484015250505050565b6000610ef682610ea5565b610f008185610eb0565b9350610f10818560208601610ec1565b610f1981610a98565b840191505092915050565b600081519050919050565b600082825260208201905092915050565b6000819050602082019050919050565b610f5981610994565b82525050565b60006040830160008301518482036000860152610f7c8282610eeb565b9150506020830151610f916020860182610f50565b508091505092915050565b6000610fa88383610f5f565b905092915050565b6000602082019050919050565b6000610fc882610f24565b610fd28185610f2f565b935083602082028501610fe485610f40565b8060005b8581101561102057848403895281516110018582610f9c565b945061100c83610fb0565b925060208a01995050600181019050610fe8565b50829750879550505050505092915050565b600081519050919050565b600082825260208201905092915050565b6000819050602082019050919050565b600061106a8383610eeb565b905092915050565b6000602082019050919050565b600061108a82611032565b611094818561103d565b9350836020820285016110a68561104e565b8060005b858110156110e257848403895281516110c3858261105e565b94506110ce83611072565b925060208a019950506001810190506110aa565b50829750879550505050505092915050565b600060a08301600083015184820360008601526111118282610eeb565b9150506020830151848203602086015261112b8282610eeb565b915050604083015184820360408601526111458282610fbd565b9150506060830151848203606086015261115f828261107f565b91505060808301518482036080860152611179828261107f565b9150508091505092915050565b600061119283836110f4565b905092915050565b6000602082019050919050565b60006111b282610e79565b6111bc8185610e84565b9350836020820285016111ce85610e95565b8060005b8581101561120a57848403895281516111eb8582611186565b94506111f68361119a565b925060208a019950506001810190506111d2565b50829750879550505050505092915050565b6000602082019050818103600083015261123681846111a7565b905092915050565b60006020828403121561125457611253610925565b5b600082013567ffffffffffffffff8111156112725761127161092a565b5b61127e84828501610ba6565b91505092915050565b600082825260208201905092915050565b60006112a382610ea5565b6112ad8185611287565b93506112bd818560208601610ec1565b6112c681610a98565b840191505092915050565b600060208201905081810360008301526112eb8184611298565b905092915050565b600080fd5b600060a0828403121561130e5761130d6112f3565b5b81905092915050565b60006020828403121561132d5761132c610925565b5b600082013567ffffffffffffffff81111561134b5761134a61092a565b5b611357848285016112f8565b91505092915050565b600081519050919050565b600082825260208201905092915050565b6000819050602082019050919050565b600060408301600083015184820360008601526113a98282610eeb565b915050602083015184820360208601526113c38282610eeb565b9150508091505092915050565b60006113dc838361138c565b905092915050565b6000602082019050919050565b60006113fc82611360565b611406818561136b565b9350836020820285016114188561137c565b8060005b85811015611454578484038952815161143585826113d0565b9450611440836113e4565b925060208a0199505060018101905061141c565b50829750879550505050505092915050565b600081519050919050565b600082825260208201905092915050565b600061148d82611466565b6114978185611471565b93506114a7818560208601610ec1565b6114b081610a98565b840191505092915050565b6114c481610bde565b82525050565b600060408301600083015184820360008601526114e78282611482565b91505060208301516114fc60208601826114bb565b508091505092915050565b6000604082019050818103600083015261152181856113f1565b9050818103602083015261153581846114ca565b90509392505050565b6000604083016000830151848203600086015261155b8282610eeb565b915050602083015184820360208601526115758282610eeb565b9150508091505092915050565b6000602082019050818103600083015261159c818461153e565b905092915050565b60008083601f8401126115ba576115b961092f565b5b8235905067ffffffffffffffff8111156115d7576115d6610934565b5b6020830191508360208202830111156115f3576115f2610939565b5b9250929050565b6000806020838503121561161157611610610925565b5b600083013567ffffffffffffffff81111561162f5761162e61092a565b5b61163b858286016115a4565b92509250509250929050565b61165081610dfb565b82525050565b60006116628385611287565b935061166f838584610b55565b61167883610a98565b840190509392505050565b61168c81610994565b82525050565b600060a0820190506116a7600083018b611647565b81810360208301526116ba81898b611656565b905081810360408301526116cf818789611656565b905081810360608301526116e4818587611656565b90506116f36080830184611683565b9998505050505050505050565b60008115159050919050565b61171581611700565b811461172057600080fd5b50565b6000815190506117328161170c565b92915050565b60006020828403121561174e5761174d610925565b5b600061175c84828501611723565b91505092915050565b7f4661696c656420746f20696e63726561736520616c6c6f77616e636500000000600082015250565b600061179b601c83611287565b91506117a682611765565b602082019050919050565b600060208201905081810360008301526117ca8161178e565b9050919050565b6040820160008201516117e760008501826114bb565b5060208201516117fa60208501826114bb565b50505050565b600061014082019050818103600083015261181b818c611298565b9050818103602083015261182f818b611298565b90508181036040830152611843818a611298565b90506118526060830189611683565b61185f6080830188611647565b81810360a08301526118718187611298565b905061188060c08301866117d1565b61188e610100830185610db1565b8181036101208301526118a18184611298565b90509a9950505050505050505050565b6000815190506118c081610bf2565b92915050565b6000602082840312156118dc576118db610925565b5b60006118ea848285016118b1565b91505092915050565b60006020820190506119086000830184611647565b92915050565b7f4661696c656420746f207265766f6b6520617070726f76616c00000000000000600082015250565b6000611944601983611287565b915061194f8261190e565b602082019050919050565b6000602082019050818103600083015261197381611937565b9050919050565b600060408201905061198f6000830185611647565b61199c6020830184611647565b9392505050565b600067ffffffffffffffff8211156119be576119bd610aa9565b5b602082029050602081019050919050565b60006119e26119dd84610b24565b610b09565b9050828152602081018484840111156119fe576119fd610a93565b5b611a09848285610ec1565b509392505050565b600082601f830112611a2657611a2561092f565b5b8151611a368482602086016119cf565b91505092915050565b600067ffffffffffffffff821115611a5a57611a59610aa9565b5b602082029050602081019050919050565b600081519050611a7a8161099e565b92915050565b600060408284031215611a9657611a95610bd4565b5b611aa06040610b09565b9050600082015167ffffffffffffffff811115611ac057611abf610bd9565b5b611acc84828501611a11565b6000830152506020611ae084828501611a6b565b60208301525092915050565b6000611aff611afa84611a3f565b610b09565b90508083825260208201905060208402830185811115611b2257611b21610939565b5b835b81811015611b6957805167ffffffffffffffff811115611b4757611b4661092f565b5b808601611b548982611a80565b85526020850194505050602081019050611b24565b5050509392505050565b600082601f830112611b8857611b8761092f565b5b8151611b98848260208601611aec565b91505092915050565b600067ffffffffffffffff821115611bbc57611bbb610aa9565b5b602082029050602081019050919050565b6000611be0611bdb84611ba1565b610b09565b90508083825260208201905060208402830185811115611c0357611c02610939565b5b835b81811015611c4a57805167ffffffffffffffff811115611c2857611c2761092f565b5b808601611c358982611a11565b85526020850194505050602081019050611c05565b5050509392505050565b600082601f830112611c6957611c6861092f565b5b8151611c79848260208601611bcd565b91505092915050565b600060a08284031215611c9857611c97610bd4565b5b611ca260a0610b09565b9050600082015167ffffffffffffffff811115611cc257611cc1610bd9565b5b611cce84828501611a11565b600083015250602082015167ffffffffffffffff811115611cf257611cf1610bd9565b5b611cfe84828501611a11565b602083015250604082015167ffffffffffffffff811115611d2257611d21610bd9565b5b611d2e84828501611b73565b604083015250606082015167ffffffffffffffff811115611d5257611d51610bd9565b5b611d5e84828501611c54565b606083015250608082015167ffffffffffffffff811115611d8257611d81610bd9565b5b611d8e84828501611c54565b60808301525092915050565b6000611dad611da8846119a3565b610b09565b90508083825260208201905060208402830185811115611dd057611dcf610939565b5b835b81811015611e1757805167ffffffffffffffff811115611df557611df461092f565b5b808601611e028982611c82565b85526020850194505050602081019050611dd2565b5050509392505050565b600082601f830112611e3657611e3561092f565b5b8151611e46848260208601611d9a565b91505092915050565b600060208284031215611e6557611e64610925565b5b600082015167ffffffffffffffff811115611e8357611e8261092a565b5b611e8f84828501611e21565b91505092915050565b600060208284031215611eae57611ead610925565b5b600082015167ffffffffffffffff811115611ecc57611ecb61092a565b5b611ed884828501611a11565b91505092915050565b600080fd5b600080fd5b600080fd5b60008083356001602003843603038112611f0d57611f0c611eeb565b5b83810192508235915060208301925067ffffffffffffffff821115611f3557611f34611ee1565b5b600182023603831315611f4b57611f4a611ee6565b5b509250929050565b6000611f5f8385611471565b9350611f6c838584610b55565b611f7583610a98565b840190509392505050565b6000611f8f6020840184610c09565b905092915050565b600081359050611fa68161170c565b92915050565b6000611fbb6020840184611f97565b905092915050565b611fcc81611700565b82525050565b600060a08301611fe56000840184611ef0565b8583036000870152611ff8838284611f53565b925050506120096020840184611f80565b61201660208601826114bb565b506120246040840184611f80565b61203160408601826114bb565b5061203f6060840184611fac565b61204c6060860182611fc3565b5061205a6080840184611fac565b6120676080860182611fc3565b508091505092915050565b6000602082019050818103600083015261208c8184611fd2565b905092915050565b600067ffffffffffffffff8211156120af576120ae610aa9565b5b602082029050602081019050919050565b6000604082840312156120d6576120d5610bd4565b5b6120e06040610b09565b9050600082015167ffffffffffffffff811115612100576120ff610bd9565b5b61210c84828501611a11565b600083015250602082015167ffffffffffffffff8111156121305761212f610bd9565b5b61213c84828501611a11565b60208301525092915050565b600061215b61215684612094565b610b09565b9050808382526020820190506020840283018581111561217e5761217d610939565b5b835b818110156121c557805167ffffffffffffffff8111156121a3576121a261092f565b5b8086016121b089826120c0565b85526020850194505050602081019050612180565b5050509392505050565b600082601f8301126121e4576121e361092f565b5b81516121f4848260208601612148565b91505092915050565b600067ffffffffffffffff82111561221857612217610aa9565b5b61222182610a98565b9050602081019050919050565b600061224161223c846121fd565b610b09565b90508281526020810184848401111561225d5761225c610a93565b5b612268848285610ec1565b509392505050565b600082601f8301126122855761228461092f565b5b815161229584826020860161222e565b91505092915050565b6000604082840312156122b4576122b3610bd4565b5b6122be6040610b09565b9050600082015167ffffffffffffffff8111156122de576122dd610bd9565b5b6122ea84828501612270565b60008301525060206122fe848285016118b1565b60208301525092915050565b6000806040838503121561232157612320610925565b5b600083015167ffffffffffffffff81111561233f5761233e61092a565b5b61234b858286016121cf565b925050602083015167ffffffffffffffff81111561236c5761236b61092a565b5b6123788582860161229e565b9150509250929050565b60006020828403121561239857612397610925565b5b600082015167ffffffffffffffff8111156123b6576123b561092a565b5b6123c2848285016120c0565b91505092915050565b7f4661696c656420746f20646563726561736520616c6c6f77616e636500000000600082015250565b6000612401601c83611287565b915061240c826123cb565b602082019050919050565b60006020820190508181036000830152612430816123f4565b9050919050565b6000819050919050565b6000808335600160200384360303811261245e5761245d611eeb565b5b83810192508235915060208301925067ffffffffffffffff82111561248657612485611ee1565b5b60018202360383131561249c5761249b611ee6565b5b509250929050565b60006124b08385610eb0565b93506124bd838584610b55565b6124c683610a98565b840190509392505050565b600080833560016020038436030381126124ee576124ed611eeb565b5b83810192508235915060208301925067ffffffffffffffff82111561251657612515611ee1565b5b60208202360383131561252c5761252b611ee6565b5b509250929050565b6000819050919050565b600061254d60208401846109b5565b905092915050565b6000604083016125686000840184612441565b858303600087015261257b8382846124a4565b9250505061258c602084018461253e565b6125996020860182610f50565b508091505092915050565b60006125b08383612555565b905092915050565b6000823560016040038336030381126125d4576125d3611eeb565b5b82810191505092915050565b6000602082019050919050565b60006125f98385610f2f565b93508360208402850161260b84612534565b8060005b8781101561264f57848403895261262682846125b8565b61263085826125a4565b945061263b836125e0565b925060208a0199505060018101905061260f565b50829750879450505050509392505050565b6000808335600160200384360303811261267e5761267d611eeb565b5b83810192508235915060208301925067ffffffffffffffff8211156126a6576126a5611ee1565b5b6020820236038313156126bc576126bb611ee6565b5b509250929050565b6000819050919050565b60006126db8484846124a4565b90509392505050565b6000602082019050919050565b60006126fd838561103d565b93508360208402850161270f846126c4565b8060005b8781101561275557848403895261272a8284612441565b6127358682846126ce565b9550612740846126e4565b935060208b019a505050600181019050612713565b50829750879450505050509392505050565b600060a0830161277a6000840184612441565b858303600087015261278d8382846124a4565b9250505061279e6020840184612441565b85830360208701526127b18382846124a4565b925050506127c260408401846124d1565b85830360408701526127d58382846125ed565b925050506127e66060840184612661565b85830360608701526127f98382846126f1565b9250505061280a6080840184612661565b858303608087015261281d8382846126f1565b925050508091505092915050565b60006128378383612767565b905092915050565b60008235600160a00383360303811261285b5761285a611eeb565b5b82810191505092915050565b6000602082019050919050565b60006128808385610e84565b93508360208402850161289284612437565b8060005b878110156128d65784840389526128ad828461283f565b6128b7858261282b565b94506128c283612867565b925060208a01995050600181019050612896565b50829750879450505050509392505050565b60006040820190506128fd6000830186611647565b8181036020830152612910818486612874565b9050949350505050565b7f4661696c656420746f20706572666f726d20617070726f76616c000000000000600082015250565b6000612950601a83611287565b915061295b8261291a565b602082019050919050565b6000602082019050818103600083015261297f81612943565b905091905056fea2646970667358221220c4fc8b3e524383362758b87771ae0378dd1bdaf5bd1bf9813a42e171bcc4f96864736f6c63430008120033",
  "linkReferences": {},
  "deployedLinkReferences": {}
}