{
  "_format": "hh-sol-artifact-1",
  "contractName": "InterchainSender",
  "sourceName": "solidity/precompiles/testutil/contracts/InterchainSender.sol",
  "abi": [
    {
      "inputs": [],
      "name": "counter",
      "outputs": [
        {
          "internalType": "int64",
          "name": "",
          "type": "int64"
        }
      ],
      "stateMutability": "view",
      "type": "function"
    },
    {
      "inputs": [
        {
          "internalType": "address",
          "name": "owner",
          "type": "address"
        },
        {
          "internalType": "address",
          "name": "spender",
          "type": "address"
        }
      ],
      "name": "testAllowance",
      "outputs": [
        {
          "components": [
            {
              "internalType": "string",
              "name": "sourcePort",
              "type": "string"
            },
            {
              "internalType": "string",
              "name": "sourceChannel",
              "type": "string"
            },
            {
              "components": [
                {
                  "internalType": "string",
                  "name": "denom",
                  "type": "string"
                },
                {
                  "internalType": "uint256",
                  "name": "amount",
                  "type": "uint256"
                }
              ],
              "internalType": "struct Coin[]",
              "name": "spendLimit",
              "type": "tuple[]"
            },
            {
              "internalType": "string[]",
              "name": "allowList",
              "type": "string[]"
            },
            {
              "internalType": "string[]",
              "name": "allowedPacketData",
              "type": "string[]"
            }
          ],
          "internalType": "struct ICS20Allocation[]",
          "name": "allocations",
          "type": "tuple[]"
        }
      ],
      "stateMutability": "view",
      "type": "function"
    },
    {
      "inputs": [
        {
          "components": [
            {
              "internalType": "string",
              "name": "sourcePort",
              "type": "string"
            },
            {
              "internalType": "string",
              "name": "sourceChannel",
              "type": "string"
            },
            {
              "components": [
                {
                  "internalType": "string",
                  "name": "denom",
                  "type": "string"
                },
                {
                  "internalType": "uint256",
                  "name": "amount",
                  "type": "uint256"
                }
              ],
              "internalType": "struct Coin[]",
              "name": "spendLimit",
              "type": "tuple[]"
            },
            {
              "internalType": "string[]",
              "name": "allowList",
              "type": "string[]"
            },
            {
              "internalType": "string[]",
              "name": "allowedPacketData",
              "type": "string[]"
            }
          ],
          "internalType": "struct ICS20Allocation[]",
          "name": "allocs",
          "type": "tuple[]"
        }
      ],
      "name": "testApprove",
      "outputs": [],
      "stateMutability": "nonpayable",
      "type": "function"
    },
    {
      "inputs": [
        {
          "internalType": "string",
          "name": "sourcePort",
          "type": "string"
        },
        {
          "internalType": "string",
          "name": "sourceChannel",
          "type": "string"
        },
        {
          "internalType": "string",
          "name": "denom",
          "type": "string"
        },
        {
          "internalType": "uint256",
          "name": "amount",
          "type": "uint256"
        }
      ],
      "name": "testDecreaseAllowance",
      "outputs": [],
      "stateMutability": "nonpayable",
      "type": "function"
    },
    {
      "inputs": [
        {
          "internalType": "string",
          "name": "trace",
          "type": "string"
        }
      ],
      "name": "testDenomHash",
      "outputs": [
        {
          "internalType": "string",
          "name": "hash",
          "type": "string"
        }
      ],
      "stateMutability": "view",
      "type": "function"
    },
    {
      "inputs": [
        {
          "internalType": "string",
          "name": "hash",
          "type": "string"
        }
      ],
      "name": "testDenomTrace",
      "outputs": [
        {
          "components": [
            {
              "internalType": "string",
              "name": "path",
              "type": "string"
            },
            {
              "internalType": "string",
              "name": "baseDenom",
              "type": "string"
            }
          ],
          "internalType": "struct DenomTrace",
          "name": "denomTrace",
          "type": "tuple"
        }
      ],
      "stateMutability": "view",
      "type": "function"
    },
    {
      "inputs": [
        {
          "components": [
            {
              "internalType": "bytes",
              "name": "key",
              "type": "bytes"
            },
            {
              "internalType": "uint64",
              "name": "offset",
              "type": "uint64"
            },
            {
              "internalType": "uint64",
              "name": "limit",
              "type": "uint64"
            },
            {
              "internalType": "bool",
              "name": "countTotal",
              "type": "bool"
            },
            {
              "internalType": "bool",
              "name": "reverse",
              "type": "bool"
            }
          ],
          "internalType": "struct PageRequest",
          "name": "pageRequest",
          "type": "tuple"
        }
      ],
      "name": "testDenomTraces",
      "outputs": [
        {
          "components": [
            {
              "internalType": "string",
              "name": "path",
              "type": "string"
            },
            {
              "internalType": "string",
              "name": "baseDenom",
              "type": "string"
            }
          ],
          "internalType": "struct DenomTrace[]",
          "name": "denomTraces",
          "type": "tuple[]"
        },
        {
          "components": [
            {
              "internalType": "bytes",
              "name": "nextKey",
              "type": "bytes"
            },
            {
              "internalType": "uint64",
              "name": "total",
              "type": "uint64"
            }
          ],
          "internalType": "struct PageResponse",
          "name": "pageResponse",
          "type": "tuple"
        }
      ],
      "stateMutability": "view",
      "type": "function"
    },
    {
      "inputs": [
        {
          "internalType": "string",
          "name": "sourcePort",
          "type": "string"
        },
        {
          "internalType": "string",
          "name": "sourceChannel",
          "type": "string"
        },
        {
          "internalType": "string",
          "name": "denom",
          "type": "string"
        },
        {
          "internalType": "uint256",
          "name": "amount",
          "type": "uint256"
        }
      ],
      "name": "testIncreaseAllowance",
      "outputs": [],
      "stateMutability": "nonpayable",
      "type": "function"
    },
    {
      "inputs": [
        {
          "internalType": "address payable",
          "name": "_source",
          "type": "address"
        },
        {
          "internalType": "string",
          "name": "sourcePort",
          "type": "string"
        },
        {
          "internalType": "string",
          "name": "sourceChannel",
          "type": "string"
        },
        {
          "internalType": "string",
          "name": "denom",
          "type": "string"
        },
        {
          "internalType": "uint256",
          "name": "amount",
          "type": "uint256"
        },
        {
          "internalType": "string",
          "name": "receiver",
          "type": "string"
        },
        {
          "internalType": "bool",
          "name": "_before",
          "type": "bool"
        },
        {
          "internalType": "bool",
          "name": "_between",
          "type": "bool"
        },
        {
          "internalType": "bool",
          "name": "_after",
          "type": "bool"
        }
      ],
      "name": "testMultiTransferWithInternalTransfer",
      "outputs": [],
      "stateMutability": "nonpayable",
      "type": "function"
    },
    {
      "inputs": [],
      "name": "testRevoke",
      "outputs": [],
      "stateMutability": "nonpayable",
      "type": "function"
    },
    {
      "inputs": [
        {
          "internalType": "string",
          "name": "sourcePort",
          "type": "string"
        },
        {
          "internalType": "string",
          "name": "sourceChannel",
          "type": "string"
        },
        {
          "internalType": "string",
          "name": "denom",
          "type": "string"
        },
        {
          "internalType": "uint256",
          "name": "amount",
          "type": "uint256"
        },
        {
          "internalType": "string",
          "name": "receiver",
          "type": "string"
        },
        {
          "components": [
            {
              "internalType": "uint64",
              "name": "revisionNumber",
              "type": "uint64"
            },
            {
              "internalType": "uint64",
              "name": "revisionHeight",
              "type": "uint64"
            }
          ],
          "internalType": "struct Height",
          "name": "timeoutHeight",
          "type": "tuple"
        },
        {
          "internalType": "uint64",
          "name": "timeoutTimestamp",
          "type": "uint64"
        },
        {
          "internalType": "string",
          "name": "memo",
          "type": "string"
        }
      ],
      "name": "testTransferContractFunds",
      "outputs": [
        {
          "internalType": "uint64",
          "name": "nextSequence",
          "type": "uint64"
        }
      ],
      "stateMutability": "nonpayable",
      "type": "function"
    },
    {
      "inputs": [
        {
          "internalType": "address payable",
          "name": "_otherAcc",
          "type": "address"
        },
        {
          "internalType": "address",
          "name": "_source",
          "type": "address"
        },
        {
          "internalType": "string",
          "name": "sourcePort",
          "type": "string"
        },
        {
          "internalType": "string",
          "name": "sourceChannel",
          "type": "string"
        },
        {
          "internalType": "string",
          "name": "denom",
          "type": "string"
        },
        {
          "internalType": "uint256",
          "name": "amount",
          "type": "uint256"
        },
        {
          "internalType": "string",
          "name": "receiver",
          "type": "string"
        },
        {
          "internalType": "bool",
          "name": "_before",
          "type": "bool"
        },
        {
          "internalType": "bool",
          "name": "_after",
          "type": "bool"
        }
      ],
      "name": "testTransferFundsWithTransferToOtherAcc",
      "outputs": [],
      "stateMutability": "nonpayable",
      "type": "function"
    },
    {
      "inputs": [
        {
          "internalType": "string",
          "name": "sourcePort",
          "type": "string"
        },
        {
          "internalType": "string",
          "name": "sourceChannel",
          "type": "string"
        },
        {
          "internalType": "string",
          "name": "denom",
          "type": "string"
        },
        {
          "internalType": "uint256",
          "name": "amount",
          "type": "uint256"
        },
        {
          "internalType": "string",
          "name": "receiver",
          "type": "string"
        },
        {
          "components": [
            {
              "internalType": "uint64",
              "name": "revisionNumber",
              "type": "uint64"
            },
            {
              "internalType": "uint64",
              "name": "revisionHeight",
              "type": "uint64"
            }
          ],
          "internalType": "struct Height",
          "name": "timeoutHeight",
          "type": "tuple"
        },
        {
          "internalType": "uint64",
          "name": "timeoutTimestamp",
          "type": "uint64"
        },
        {
          "internalType": "string",
          "name": "memo",
          "type": "string"
        }
      ],
      "name": "testTransferUserFunds",
      "outputs": [
        {
          "internalType": "uint64",
          "name": "nextSequence",
          "type": "uint64"
        }
      ],
      "stateMutability": "nonpayable",
      "type": "function"
    }
  ],
  "bytecode": "0x608060405234801561001057600080fd5b50613818806100206000396000f3fe608060405234801561001057600080fd5b50600436106100cf5760003560e01c8063a363df841161008c578063dfa10f3911610066578063dfa10f3914610210578063ee5766d914610241578063f298e7a814610271578063f3675f081461028d576100cf565b8063a363df8414610194578063b9672879146101c4578063c595699a146101e0576100cf565b80631dba685b146100d4578063424af9f6146100f057806361bc221a1461010c5780636fdf23cc1461012a5780637492bdd81461015a5780637a6185e11461018a575b600080fd5b6100ee60048036038101906100e99190611302565b6102a9565b005b61010a6004803603810190610105919061149c565b61070f565b005b6101146107e9565b6040516101219190611581565b60405180910390f35b610144600480360381019061013f9190611636565b6107fa565b6040516101519190611788565b60405180910390f35b610174600480360381019061016f9190611636565b610898565b6040516101819190611788565b60405180910390f35b610192610936565b005b6101ae60048036038101906101a991906117e1565b6109fb565b6040516101bb9190611bc4565b60405180910390f35b6101de60048036038101906101d99190611be6565b610a88565b005b6101fa60048036038101906101f59190611d20565b610d4b565b6040516102079190611db3565b60405180910390f35b61022a60048036038101906102259190611df9565b610dd5565b604051610238929190611fe9565b60405180910390f35b61025b60048036038101906102569190611d20565b610e69565b6040516102689190612064565b60405180910390f35b61028b6004803603810190610286919061149c565b610ef9565b005b6102a760048036038101906102a291906120dc565b610fd3565b005b82156103a65760008081819054906101000a900460070b809291906102cd90612158565b91906101000a81548167ffffffffffffffff021916908360070b67ffffffffffffffff1602179055505060008973ffffffffffffffffffffffffffffffffffffffff16600f60405161031e906121b9565b60006040518083038185875af1925050503d806000811461035b576040519150601f19603f3d011682016040523d82523d6000602084013e610360565b606091505b50509050806103a4576040517f08c379a000000000000000000000000000000000000000000000000000000000815260040161039b90612240565b60405180910390fd5b505b60006040518060400160405280606467ffffffffffffffff168152602001606467ffffffffffffffff16815250905061080273ffffffffffffffffffffffffffffffffffffffff1663632535b98a8a8a60028b610403919061228f565b8f8b8860006040518963ffffffff1660e01b815260040161042b9897969594939291906123bb565b6020604051808303816000875af115801561044a573d6000803e3d6000fd5b505050506040513d601f19601f8201168201806040525081019061046e919061247f565b50821561056c5760008081819054906101000a900460070b8092919061049390612158565b91906101000a81548167ffffffffffffffff021916908360070b67ffffffffffffffff1602179055505060008a73ffffffffffffffffffffffffffffffffffffffff16600f6040516104e4906121b9565b60006040518083038185875af1925050503d8060008114610521576040519150601f19603f3d011682016040523d82523d6000602084013e610526565b606091505b505090508061056a576040517f08c379a000000000000000000000000000000000000000000000000000000000815260040161056190612240565b60405180910390fd5b505b61080273ffffffffffffffffffffffffffffffffffffffff1663632535b98a8a8a60028b61059a919061228f565b8f8b8860006040518963ffffffff1660e01b81526004016105c29897969594939291906123bb565b6020604051808303816000875af11580156105e1573d6000803e3d6000fd5b505050506040513d601f19601f82011682018060405250810190610605919061247f565b5081156107035760008081819054906101000a900460070b8092919061062a90612158565b91906101000a81548167ffffffffffffffff021916908360070b67ffffffffffffffff1602179055505060008a73ffffffffffffffffffffffffffffffffffffffff16600f60405161067b906121b9565b60006040518083038185875af1925050503d80600081146106b8576040519150601f19603f3d011682016040523d82523d6000602084013e6106bd565b606091505b5050905080610701576040517f08c379a00000000000000000000000000000000000000000000000000000000081526004016106f890612240565b60405180910390fd5b505b50505050505050505050565b600061080273ffffffffffffffffffffffffffffffffffffffff166354de647b308a8a8a8a8a8a8a6040518963ffffffff1660e01b815260040161075a9897969594939291906124e8565b6020604051808303816000875af1158015610779573d6000803e3d6000fd5b505050506040513d601f19601f8201168201806040525081019061079d919061256b565b9050806107df576040517f08c379a00000000000000000000000000000000000000000000000000000000081526004016107d6906125e4565b60405180910390fd5b5050505050505050565b60008054906101000a900460070b81565b600061080273ffffffffffffffffffffffffffffffffffffffff1663632535b98a8a8a8a308b8b8b8b6040518a63ffffffff1660e01b815260040161084799989796959493929190612604565b6020604051808303816000875af1158015610866573d6000803e3d6000fd5b505050506040513d601f19601f8201168201806040525081019061088a919061247f565b905098975050505050505050565b600061080273ffffffffffffffffffffffffffffffffffffffff1663632535b98a8a8a8a338b8b8b8b6040518a63ffffffff1660e01b81526004016108e599989796959493929190612604565b6020604051808303816000875af1158015610904573d6000803e3d6000fd5b505050506040513d601f19601f82011682018060405250810190610928919061247f565b905098975050505050505050565b600061080273ffffffffffffffffffffffffffffffffffffffff166374a8f103306040518263ffffffff1660e01b815260040161097391906126b5565b6020604051808303816000875af1158015610992573d6000803e3d6000fd5b505050506040513d601f19601f820116820180604052508101906109b6919061256b565b9050806109f8576040517f08c379a00000000000000000000000000000000000000000000000000000000081526004016109ef9061271c565b60405180910390fd5b50565b606061080273ffffffffffffffffffffffffffffffffffffffff1663dd62ed3e84846040518363ffffffff1660e01b8152600401610a3a92919061273c565b600060405180830381865afa158015610a57573d6000803e3d6000fd5b505050506040513d6000823e3d601f19601f82011682018060405250810190610a809190612c11565b905092915050565b8115610b855760008081819054906101000a900460070b80929190610aac90612158565b91906101000a81548167ffffffffffffffff021916908360070b67ffffffffffffffff1602179055505060008973ffffffffffffffffffffffffffffffffffffffff16600f604051610afd906121b9565b60006040518083038185875af1925050503d8060008114610b3a576040519150601f19603f3d011682016040523d82523d6000602084013e610b3f565b606091505b5050905080610b83576040517f08c379a0000000000000000000000000000000000000000000000000000000008152600401610b7a90612240565b60405180910390fd5b505b60006040518060400160405280606467ffffffffffffffff168152602001606467ffffffffffffffff16815250905061080273ffffffffffffffffffffffffffffffffffffffff1663632535b9898989898e8a8860006040518963ffffffff1660e01b8152600401610bfe989796959493929190612c5a565b6020604051808303816000875af1158015610c1d573d6000803e3d6000fd5b505050506040513d601f19601f82011682018060405250810190610c41919061247f565b508115610d3f5760008081819054906101000a900460070b80929190610c6690612158565b91906101000a81548167ffffffffffffffff021916908360070b67ffffffffffffffff1602179055505060008a73ffffffffffffffffffffffffffffffffffffffff16600f604051610cb7906121b9565b60006040518083038185875af1925050503d8060008114610cf4576040519150601f19603f3d011682016040523d82523d6000602084013e610cf9565b606091505b5050905080610d3d576040517f08c379a0000000000000000000000000000000000000000000000000000000008152600401610d3490612240565b60405180910390fd5b505b50505050505050505050565b606061080273ffffffffffffffffffffffffffffffffffffffff1663b5cb6e7d836040518263ffffffff1660e01b8152600401610d889190611db3565b600060405180830381865afa158015610da5573d6000803e3d6000fd5b505050506040513d6000823e3d601f19601f82011682018060405250810190610dce9190612d09565b9050919050565b6060610ddf61109e565b61080273ffffffffffffffffffffffffffffffffffffffff166322b6fad6846040518263ffffffff1660e01b8152600401610e1a9190612ece565b600060405180830381865afa158015610e37573d6000803e3d6000fd5b505050506040513d6000823e3d601f19601f82011682018060405250810190610e609190613166565b91509150915091565b610e716110c2565b61080273ffffffffffffffffffffffffffffffffffffffff1663a815cdd9836040518263ffffffff1660e01b8152600401610eac9190611db3565b600060405180830381865afa158015610ec9573d6000803e3d6000fd5b505050506040513d6000823e3d601f19601f82011682018060405250810190610ef291906131de565b9050919050565b600061080273ffffffffffffffffffffffffffffffffffffffff1663b3f536ec308a8a8a8a8a8a8a6040518963ffffffff1660e01b8152600401610f449897969594939291906124e8565b6020604051808303816000875af1158015610f63573d6000803e3d6000fd5b505050506040513d601f19601f82011682018060405250810190610f87919061256b565b905080610fc9576040517f08c379a0000000000000000000000000000000000000000000000000000000008152600401610fc090613273565b60405180910390fd5b5050505050505050565b600061080273ffffffffffffffffffffffffffffffffffffffff1663473c90c73085856040518463ffffffff1660e01b815260040161101493929190613744565b6020604051808303816000875af1158015611033573d6000803e3d6000fd5b505050506040513d601f19601f82011682018060405250810190611057919061256b565b905080611099576040517f08c379a0000000000000000000000000000000000000000000000000000000008152600401611090906137c2565b60405180910390fd5b505050565b604051806040016040528060608152602001600067ffffffffffffffff1681525090565b604051806040016040528060608152602001606081525090565b6000604051905090565b600080fd5b600080fd5b600073ffffffffffffffffffffffffffffffffffffffff82169050919050565b600061111b826110f0565b9050919050565b61112b81611110565b811461113657600080fd5b50565b60008135905061114881611122565b92915050565b600080fd5b600080fd5b6000601f19601f8301169050919050565b7f4e487b7100000000000000000000000000000000000000000000000000000000600052604160045260246000fd5b6111a182611158565b810181811067ffffffffffffffff821117156111c0576111bf611169565b5b80604052505050565b60006111d36110dc565b90506111df8282611198565b919050565b600067ffffffffffffffff8211156111ff576111fe611169565b5b61120882611158565b9050602081019050919050565b82818337600083830152505050565b6000611237611232846111e4565b6111c9565b90508281526020810184848401111561125357611252611153565b5b61125e848285611215565b509392505050565b600082601f83011261127b5761127a61114e565b5b813561128b848260208601611224565b91505092915050565b6000819050919050565b6112a781611294565b81146112b257600080fd5b50565b6000813590506112c48161129e565b92915050565b60008115159050919050565b6112df816112ca565b81146112ea57600080fd5b50565b6000813590506112fc816112d6565b92915050565b60008060008060008060008060006101208a8c031215611325576113246110e6565b5b60006113338c828d01611139565b99505060208a013567ffffffffffffffff811115611354576113536110eb565b5b6113608c828d01611266565b98505060408a013567ffffffffffffffff811115611381576113806110eb565b5b61138d8c828d01611266565b97505060608a013567ffffffffffffffff8111156113ae576113ad6110eb565b5b6113ba8c828d01611266565b96505060806113cb8c828d016112b5565b95505060a08a013567ffffffffffffffff8111156113ec576113eb6110eb565b5b6113f88c828d01611266565b94505060c06114098c828d016112ed565b93505060e061141a8c828d016112ed565b92505061010061142c8c828d016112ed565b9150509295985092959850929598565b600080fd5b600080fd5b60008083601f84011261145c5761145b61114e565b5b8235905067ffffffffffffffff8111156114795761147861143c565b5b60208301915083600182028301111561149557611494611441565b5b9250929050565b60008060008060008060006080888a0312156114bb576114ba6110e6565b5b600088013567ffffffffffffffff8111156114d9576114d86110eb565b5b6114e58a828b01611446565b9750975050602088013567ffffffffffffffff811115611508576115076110eb565b5b6115148a828b01611446565b9550955050604088013567ffffffffffffffff811115611537576115366110eb565b5b6115438a828b01611446565b935093505060606115568a828b016112b5565b91505092959891949750929550565b60008160070b9050919050565b61157b81611565565b82525050565b60006020820190506115966000830184611572565b92915050565b600080fd5b600080fd5b600067ffffffffffffffff82169050919050565b6115c3816115a6565b81146115ce57600080fd5b50565b6000813590506115e0816115ba565b92915050565b6000604082840312156115fc576115fb61159c565b5b61160660406111c9565b90506000611616848285016115d1565b600083015250602061162a848285016115d1565b60208301525092915050565b600080600080600080600080610120898b031215611657576116566110e6565b5b600089013567ffffffffffffffff811115611675576116746110eb565b5b6116818b828c01611266565b985050602089013567ffffffffffffffff8111156116a2576116a16110eb565b5b6116ae8b828c01611266565b975050604089013567ffffffffffffffff8111156116cf576116ce6110eb565b5b6116db8b828c01611266565b96505060606116ec8b828c016112b5565b955050608089013567ffffffffffffffff81111561170d5761170c6110eb565b5b6117198b828c01611266565b94505060a061172a8b828c016115e6565b93505060e061173b8b828c016115d1565b92505061010089013567ffffffffffffffff81111561175d5761175c6110eb565b5b6117698b828c01611266565b9150509295985092959890939650565b611782816115a6565b82525050565b600060208201905061179d6000830184611779565b92915050565b60006117ae826110f0565b9050919050565b6117be816117a3565b81146117c957600080fd5b50565b6000813590506117db816117b5565b92915050565b600080604083850312156117f8576117f76110e6565b5b6000611806858286016117cc565b9250506020611817858286016117cc565b9150509250929050565b600081519050919050565b600082825260208201905092915050565b6000819050602082019050919050565b600081519050919050565b600082825260208201905092915050565b60005b8381101561188757808201518184015260208101905061186c565b60008484015250505050565b600061189e8261184d565b6118a88185611858565b93506118b8818560208601611869565b6118c181611158565b840191505092915050565b600081519050919050565b600082825260208201905092915050565b6000819050602082019050919050565b61190181611294565b82525050565b600060408301600083015184820360008601526119248282611893565b915050602083015161193960208601826118f8565b508091505092915050565b60006119508383611907565b905092915050565b6000602082019050919050565b6000611970826118cc565b61197a81856118d7565b93508360208202850161198c856118e8565b8060005b858110156119c857848403895281516119a98582611944565b94506119b483611958565b925060208a01995050600181019050611990565b50829750879550505050505092915050565b600081519050919050565b600082825260208201905092915050565b6000819050602082019050919050565b6000611a128383611893565b905092915050565b6000602082019050919050565b6000611a32826119da565b611a3c81856119e5565b935083602082028501611a4e856119f6565b8060005b85811015611a8a5784840389528151611a6b8582611a06565b9450611a7683611a1a565b925060208a01995050600181019050611a52565b50829750879550505050505092915050565b600060a0830160008301518482036000860152611ab98282611893565b91505060208301518482036020860152611ad38282611893565b91505060408301518482036040860152611aed8282611965565b91505060608301518482036060860152611b078282611a27565b91505060808301518482036080860152611b218282611a27565b9150508091505092915050565b6000611b3a8383611a9c565b905092915050565b6000602082019050919050565b6000611b5a82611821565b611b64818561182c565b935083602082028501611b768561183d565b8060005b85811015611bb25784840389528151611b938582611b2e565b9450611b9e83611b42565b925060208a01995050600181019050611b7a565b50829750879550505050505092915050565b60006020820190508181036000830152611bde8184611b4f565b905092915050565b60008060008060008060008060006101208a8c031215611c0957611c086110e6565b5b6000611c178c828d01611139565b9950506020611c288c828d016117cc565b98505060408a013567ffffffffffffffff811115611c4957611c486110eb565b5b611c558c828d01611266565b97505060608a013567ffffffffffffffff811115611c7657611c756110eb565b5b611c828c828d01611266565b96505060808a013567ffffffffffffffff811115611ca357611ca26110eb565b5b611caf8c828d01611266565b95505060a0611cc08c828d016112b5565b94505060c08a013567ffffffffffffffff811115611ce157611ce06110eb565b5b611ced8c828d01611266565b93505060e0611cfe8c828d016112ed565b925050610100611d108c828d016112ed565b9150509295985092959850929598565b600060208284031215611d3657611d356110e6565b5b600082013567ffffffffffffffff811115611d5457611d536110eb565b5b611d6084828501611266565b91505092915050565b600082825260208201905092915050565b6000611d858261184d565b611d8f8185611d69565b9350611d9f818560208601611869565b611da881611158565b840191505092915050565b60006020820190508181036000830152611dcd8184611d7a565b905092915050565b600080fd5b600060a08284031215611df057611def611dd5565b5b81905092915050565b600060208284031215611e0f57611e0e6110e6565b5b600082013567ffffffffffffffff811115611e2d57611e2c6110eb565b5b611e3984828501611dda565b91505092915050565b600081519050919050565b600082825260208201905092915050565b6000819050602082019050919050565b60006040830160008301518482036000860152611e8b8282611893565b91505060208301518482036020860152611ea58282611893565b9150508091505092915050565b6000611ebe8383611e6e565b905092915050565b6000602082019050919050565b6000611ede82611e42565b611ee88185611e4d565b935083602082028501611efa85611e5e565b8060005b85811015611f365784840389528151611f178582611eb2565b9450611f2283611ec6565b925060208a01995050600181019050611efe565b50829750879550505050505092915050565b600081519050919050565b600082825260208201905092915050565b6000611f6f82611f48565b611f798185611f53565b9350611f89818560208601611869565b611f9281611158565b840191505092915050565b611fa6816115a6565b82525050565b60006040830160008301518482036000860152611fc98282611f64565b9150506020830151611fde6020860182611f9d565b508091505092915050565b600060408201905081810360008301526120038185611ed3565b905081810360208301526120178184611fac565b90509392505050565b6000604083016000830151848203600086015261203d8282611893565b915050602083015184820360208601526120578282611893565b9150508091505092915050565b6000602082019050818103600083015261207e8184612020565b905092915050565b60008083601f84011261209c5761209b61114e565b5b8235905067ffffffffffffffff8111156120b9576120b861143c565b5b6020830191508360208202830111156120d5576120d4611441565b5b9250929050565b600080602083850312156120f3576120f26110e6565b5b600083013567ffffffffffffffff811115612111576121106110eb565b5b61211d85828601612086565b92509250509250929050565b7f4e487b7100000000000000000000000000000000000000000000000000000000600052601160045260246000fd5b600061216382611565565b9150677fffffffffffffff820361217d5761217c612129565b5b600182019050919050565b600081905092915050565b50565b60006121a3600083612188565b91506121ae82612193565b600082019050919050565b60006121c482612196565b9150819050919050565b7f4661696c656420746f2073656e6420457468657220746f2064656c656761746f60008201527f7200000000000000000000000000000000000000000000000000000000000000602082015250565b600061222a602183611d69565b9150612235826121ce565b604082019050919050565b600060208201905081810360008301526122598161221d565b9050919050565b7f4e487b7100000000000000000000000000000000000000000000000000000000600052601260045260246000fd5b600061229a82611294565b91506122a583611294565b9250826122b5576122b4612260565b5b828204905092915050565b6122c981611294565b82525050565b6000819050919050565b60006122f46122ef6122ea846110f0565b6122cf565b6110f0565b9050919050565b6000612306826122d9565b9050919050565b6000612318826122fb565b9050919050565b6123288161230d565b82525050565b6040820160008201516123446000850182611f9d565b5060208201516123576020850182611f9d565b50505050565b6000819050919050565b600061238261237d6123788461235d565b6122cf565b6115a6565b9050919050565b61239281612367565b82525050565b60006123a5600083611d69565b91506123b082612193565b600082019050919050565b60006101408201905081810360008301526123d6818b611d7a565b905081810360208301526123ea818a611d7a565b905081810360408301526123fe8189611d7a565b905061240d60608301886122c0565b61241a608083018761231f565b81810360a083015261242c8186611d7a565b905061243b60c083018561232e565b612449610100830184612389565b81810361012083015261245b81612398565b90509998505050505050505050565b600081519050612479816115ba565b92915050565b600060208284031215612495576124946110e6565b5b60006124a38482850161246a565b91505092915050565b6124b5816117a3565b82525050565b60006124c78385611d69565b93506124d4838584611215565b6124dd83611158565b840190509392505050565b600060a0820190506124fd600083018b6124ac565b818103602083015261251081898b6124bb565b905081810360408301526125258187896124bb565b9050818103606083015261253a8185876124bb565b905061254960808301846122c0565b9998505050505050505050565b600081519050612565816112d6565b92915050565b600060208284031215612581576125806110e6565b5b600061258f84828501612556565b91505092915050565b7f4661696c656420746f20696e63726561736520616c6c6f77616e636500000000600082015250565b60006125ce601c83611d69565b91506125d982612598565b602082019050919050565b600060208201905081810360008301526125fd816125c1565b9050919050565b600061014082019050818103600083015261261f818c611d7a565b90508181036020830152612633818b611d7a565b90508181036040830152612647818a611d7a565b905061265660608301896122c0565b61266360808301886124ac565b81810360a08301526126758187611d7a565b905061268460c083018661232e565b612692610100830185611779565b8181036101208301526126a58184611d7a565b90509a9950505050505050505050565b60006020820190506126ca60008301846124ac565b92915050565b7f4661696c656420746f207265766f6b6520617070726f76616c00000000000000600082015250565b6000612706601983611d69565b9150612711826126d0565b602082019050919050565b60006020820190508181036000830152612735816126f9565b9050919050565b600060408201905061275160008301856124ac565b61275e60208301846124ac565b9392505050565b600067ffffffffffffffff8211156127805761277f611169565b5b602082029050602081019050919050565b60006127a461279f846111e4565b6111c9565b9050828152602081018484840111156127c0576127bf611153565b5b6127cb848285611869565b509392505050565b600082601f8301126127e8576127e761114e565b5b81516127f8848260208601612791565b91505092915050565b600067ffffffffffffffff82111561281c5761281b611169565b5b602082029050602081019050919050565b60008151905061283c8161129e565b92915050565b6000604082840312156128585761285761159c565b5b61286260406111c9565b9050600082015167ffffffffffffffff811115612882576128816115a1565b5b61288e848285016127d3565b60008301525060206128a28482850161282d565b60208301525092915050565b60006128c16128bc84612801565b6111c9565b905080838252602082019050602084028301858111156128e4576128e3611441565b5b835b8181101561292b57805167ffffffffffffffff8111156129095761290861114e565b5b8086016129168982612842565b855260208501945050506020810190506128e6565b5050509392505050565b600082601f83011261294a5761294961114e565b5b815161295a8482602086016128ae565b91505092915050565b600067ffffffffffffffff82111561297e5761297d611169565b5b602082029050602081019050919050565b60006129a261299d84612963565b6111c9565b905080838252602082019050602084028301858111156129c5576129c4611441565b5b835b81811015612a0c57805167ffffffffffffffff8111156129ea576129e961114e565b5b8086016129f789826127d3565b855260208501945050506020810190506129c7565b5050509392505050565b600082601f830112612a2b57612a2a61114e565b5b8151612a3b84826020860161298f565b91505092915050565b600060a08284031215612a5a57612a5961159c565b5b612a6460a06111c9565b9050600082015167ffffffffffffffff811115612a8457612a836115a1565b5b612a90848285016127d3565b600083015250602082015167ffffffffffffffff811115612ab457612ab36115a1565b5b612ac0848285016127d3565b602083015250604082015167ffffffffffffffff811115612ae457612ae36115a1565b5b612af084828501612935565b604083015250606082015167ffffffffffffffff811115612b1457612b136115a1565b5b612b2084828501612a16565b606083015250608082015167ffffffffffffffff811115612b4457612b436115a1565b5b612b5084828501612a16565b60808301525092915050565b6000612b6f612b6a84612765565b6111c9565b90508083825260208201905060208402830185811115612b9257612b91611441565b5b835b81811015612bd957805167ffffffffffffffff811115612bb757612bb661114e565b5b808601612bc48982612a44565b85526020850194505050602081019050612b94565b5050509392505050565b600082601f830112612bf857612bf761114e565b5b8151612c08848260208601612b5c565b91505092915050565b600060208284031215612c2757612c266110e6565b5b600082015167ffffffffffffffff811115612c4557612c446110eb565b5b612c5184828501612be3565b91505092915050565b6000610140820190508181036000830152612c75818b611d7a565b90508181036020830152612c89818a611d7a565b90508181036040830152612c9d8189611d7a565b9050612cac60608301886122c0565b612cb960808301876124ac565b81810360a0830152612ccb8186611d7a565b9050612cda60c083018561232e565b612ce8610100830184612389565b818103610120830152612cfa81612398565b90509998505050505050505050565b600060208284031215612d1f57612d1e6110e6565b5b600082015167ffffffffffffffff811115612d3d57612d3c6110eb565b5b612d49848285016127d3565b91505092915050565b600080fd5b600080fd5b600080fd5b60008083356001602003843603038112612d7e57612d7d612d5c565b5b83810192508235915060208301925067ffffffffffffffff821115612da657612da5612d52565b5b600182023603831315612dbc57612dbb612d57565b5b509250929050565b6000612dd08385611f53565b9350612ddd838584611215565b612de683611158565b840190509392505050565b6000612e0060208401846115d1565b905092915050565b6000612e1760208401846112ed565b905092915050565b612e28816112ca565b82525050565b600060a08301612e416000840184612d61565b8583036000870152612e54838284612dc4565b92505050612e656020840184612df1565b612e726020860182611f9d565b50612e806040840184612df1565b612e8d6040860182611f9d565b50612e9b6060840184612e08565b612ea86060860182612e1f565b50612eb66080840184612e08565b612ec36080860182612e1f565b508091505092915050565b60006020820190508181036000830152612ee88184612e2e565b905092915050565b600067ffffffffffffffff821115612f0b57612f0a611169565b5b602082029050602081019050919050565b600060408284031215612f3257612f3161159c565b5b612f3c60406111c9565b9050600082015167ffffffffffffffff811115612f5c57612f5b6115a1565b5b612f68848285016127d3565b600083015250602082015167ffffffffffffffff811115612f8c57612f8b6115a1565b5b612f98848285016127d3565b60208301525092915050565b6000612fb7612fb284612ef0565b6111c9565b90508083825260208201905060208402830185811115612fda57612fd9611441565b5b835b8181101561302157805167ffffffffffffffff811115612fff57612ffe61114e565b5b80860161300c8982612f1c565b85526020850194505050602081019050612fdc565b5050509392505050565b600082601f8301126130405761303f61114e565b5b8151613050848260208601612fa4565b91505092915050565b600067ffffffffffffffff82111561307457613073611169565b5b61307d82611158565b9050602081019050919050565b600061309d61309884613059565b6111c9565b9050828152602081018484840111156130b9576130b8611153565b5b6130c4848285611869565b509392505050565b600082601f8301126130e1576130e061114e565b5b81516130f184826020860161308a565b91505092915050565b6000604082840312156131105761310f61159c565b5b61311a60406111c9565b9050600082015167ffffffffffffffff81111561313a576131396115a1565b5b613146848285016130cc565b600083015250602061315a8482850161246a565b60208301525092915050565b6000806040838503121561317d5761317c6110e6565b5b600083015167ffffffffffffffff81111561319b5761319a6110eb565b5b6131a78582860161302b565b925050602083015167ffffffffffffffff8111156131c8576131c76110eb565b5b6131d4858286016130fa565b9150509250929050565b6000602082840312156131f4576131f36110e6565b5b600082015167ffffffffffffffff811115613212576132116110eb565b5b61321e84828501612f1c565b91505092915050565b7f4661696c656420746f20646563726561736520616c6c6f77616e636500000000600082015250565b600061325d601c83611d69565b915061326882613227565b602082019050919050565b6000602082019050818103600083015261328c81613250565b9050919050565b6000819050919050565b600080833560016020038436030381126132ba576132b9612d5c565b5b83810192508235915060208301925067ffffffffffffffff8211156132e2576132e1612d52565b5b6001820236038313156132f8576132f7612d57565b5b509250929050565b600061330c8385611858565b9350613319838584611215565b61332283611158565b840190509392505050565b6000808335600160200384360303811261334a57613349612d5c565b5b83810192508235915060208301925067ffffffffffffffff82111561337257613371612d52565b5b60208202360383131561338857613387612d57565b5b509250929050565b6000819050919050565b60006133a960208401846112b5565b905092915050565b6000604083016133c4600084018461329d565b85830360008701526133d7838284613300565b925050506133e8602084018461339a565b6133f560208601826118f8565b508091505092915050565b600061340c83836133b1565b905092915050565b6000823560016040038336030381126134305761342f612d5c565b5b82810191505092915050565b6000602082019050919050565b600061345583856118d7565b93508360208402850161346784613390565b8060005b878110156134ab5784840389526134828284613414565b61348c8582613400565b94506134978361343c565b925060208a0199505060018101905061346b565b50829750879450505050509392505050565b600080833560016020038436030381126134da576134d9612d5c565b5b83810192508235915060208301925067ffffffffffffffff82111561350257613501612d52565b5b60208202360383131561351857613517612d57565b5b509250929050565b6000819050919050565b6000613537848484613300565b90509392505050565b6000602082019050919050565b600061355983856119e5565b93508360208402850161356b84613520565b8060005b878110156135b1578484038952613586828461329d565b61359186828461352a565b955061359c84613540565b935060208b019a50505060018101905061356f565b50829750879450505050509392505050565b600060a083016135d6600084018461329d565b85830360008701526135e9838284613300565b925050506135fa602084018461329d565b858303602087015261360d838284613300565b9250505061361e604084018461332d565b8583036040870152613631838284613449565b9250505061364260608401846134bd565b858303606087015261365583828461354d565b9250505061366660808401846134bd565b858303608087015261367983828461354d565b925050508091505092915050565b600061369383836135c3565b905092915050565b60008235600160a0038336030381126136b7576136b6612d5c565b5b82810191505092915050565b6000602082019050919050565b60006136dc838561182c565b9350836020840285016136ee84613293565b8060005b87811015613732578484038952613709828461369b565b6137138582613687565b945061371e836136c3565b925060208a019950506001810190506136f2565b50829750879450505050509392505050565b600060408201905061375960008301866124ac565b818103602083015261376c8184866136d0565b9050949350505050565b7f4661696c656420746f20706572666f726d20617070726f76616c000000000000600082015250565b60006137ac601a83611d69565b91506137b782613776565b602082019050919050565b600060208201905081810360008301526137db8161379f565b905091905056fea2646970667358221220bcb453fc471282c5300ef2cce92af3966ecb2c9f9fc8ddec271f9520efa16a1164736f6c63430008130033",
  "linkReferences": {},
  "deployedLinkReferences": {}
}