{
  "_format": "hh-sol-artifact-1",
  "contractName": "InterchainSender",
  "sourceName": "solidity/precompiles/testutil/contracts/InterchainSender.sol",
  "abi": [
    {
      "inputs": [],
      "name": "counter",
      "outputs": [
        {
          "internalType": "int64",
          "name": "",
          "type": "int64"
        }
      ],
      "stateMutability": "view",
      "type": "function"
    },
    {
      "inputs": [
        {
          "internalType": "address",
          "name": "owner",
          "type": "address"
        },
        {
          "internalType": "address",
          "name": "spender",
          "type": "address"
        }
      ],
      "name": "testAllowance",
      "outputs": [
        {
          "components": [
            {
              "internalType": "string",
              "name": "sourcePort",
              "type": "string"
            },
            {
              "internalType": "string",
              "name": "sourceChannel",
              "type": "string"
            },
            {
              "components": [
                {
                  "internalType": "string",
                  "name": "denom",
                  "type": "string"
                },
                {
                  "internalType": "uint256",
                  "name": "amount",
                  "type": "uint256"
                }
              ],
              "internalType": "struct Coin[]",
              "name": "spendLimit",
              "type": "tuple[]"
            },
            {
              "internalType": "string[]",
              "name": "allowList",
              "type": "string[]"
            },
            {
              "internalType": "string[]",
              "name": "allowedPacketData",
              "type": "string[]"
            }
          ],
          "internalType": "struct ICS20Allocation[]",
          "name": "allocations",
          "type": "tuple[]"
        }
      ],
      "stateMutability": "view",
      "type": "function"
    },
    {
      "inputs": [
        {
          "components": [
            {
              "internalType": "string",
              "name": "sourcePort",
              "type": "string"
            },
            {
              "internalType": "string",
              "name": "sourceChannel",
              "type": "string"
            },
            {
              "components": [
                {
                  "internalType": "string",
                  "name": "denom",
                  "type": "string"
                },
                {
                  "internalType": "uint256",
                  "name": "amount",
                  "type": "uint256"
                }
              ],
              "internalType": "struct Coin[]",
              "name": "spendLimit",
              "type": "tuple[]"
            },
            {
              "internalType": "string[]",
              "name": "allowList",
              "type": "string[]"
            },
            {
              "internalType": "string[]",
              "name": "allowedPacketData",
              "type": "string[]"
            }
          ],
          "internalType": "struct ICS20Allocation[]",
          "name": "allocs",
          "type": "tuple[]"
        }
      ],
      "name": "testApprove",
      "outputs": [],
      "stateMutability": "nonpayable",
      "type": "function"
    },
    {
      "inputs": [
        {
          "internalType": "string",
          "name": "sourcePort",
          "type": "string"
        },
        {
          "internalType": "string",
          "name": "sourceChannel",
          "type": "string"
        },
        {
          "internalType": "string",
          "name": "denom",
          "type": "string"
        },
        {
          "internalType": "uint256",
          "name": "amount",
          "type": "uint256"
        }
      ],
      "name": "testDecreaseAllowance",
      "outputs": [],
      "stateMutability": "nonpayable",
      "type": "function"
    },
    {
      "inputs": [
        {
          "internalType": "string",
          "name": "trace",
          "type": "string"
        }
      ],
      "name": "testDenomHash",
      "outputs": [
        {
          "internalType": "string",
          "name": "hash",
          "type": "string"
        }
      ],
      "stateMutability": "view",
      "type": "function"
    },
    {
      "inputs": [
        {
          "internalType": "string",
          "name": "hash",
          "type": "string"
        }
      ],
      "name": "testDenomTrace",
      "outputs": [
        {
          "components": [
            {
              "internalType": "string",
              "name": "path",
              "type": "string"
            },
            {
              "internalType": "string",
              "name": "baseDenom",
              "type": "string"
            }
          ],
          "internalType": "struct DenomTrace",
          "name": "denomTrace",
          "type": "tuple"
        }
      ],
      "stateMutability": "view",
      "type": "function"
    },
    {
      "inputs": [
        {
          "components": [
            {
              "internalType": "bytes",
              "name": "key",
              "type": "bytes"
            },
            {
              "internalType": "uint64",
              "name": "offset",
              "type": "uint64"
            },
            {
              "internalType": "uint64",
              "name": "limit",
              "type": "uint64"
            },
            {
              "internalType": "bool",
              "name": "countTotal",
              "type": "bool"
            },
            {
              "internalType": "bool",
              "name": "reverse",
              "type": "bool"
            }
          ],
          "internalType": "struct PageRequest",
          "name": "pageRequest",
          "type": "tuple"
        }
      ],
      "name": "testDenomTraces",
      "outputs": [
        {
          "components": [
            {
              "internalType": "string",
              "name": "path",
              "type": "string"
            },
            {
              "internalType": "string",
              "name": "baseDenom",
              "type": "string"
            }
          ],
          "internalType": "struct DenomTrace[]",
          "name": "denomTraces",
          "type": "tuple[]"
        },
        {
          "components": [
            {
              "internalType": "bytes",
              "name": "nextKey",
              "type": "bytes"
            },
            {
              "internalType": "uint64",
              "name": "total",
              "type": "uint64"
            }
          ],
          "internalType": "struct PageResponse",
          "name": "pageResponse",
          "type": "tuple"
        }
      ],
      "stateMutability": "view",
      "type": "function"
    },
    {
      "inputs": [
        {
          "internalType": "string",
          "name": "sourcePort",
          "type": "string"
        },
        {
          "internalType": "string",
          "name": "sourceChannel",
          "type": "string"
        },
        {
          "internalType": "string",
          "name": "denom",
          "type": "string"
        },
        {
          "internalType": "uint256",
          "name": "amount",
          "type": "uint256"
        }
      ],
      "name": "testIncreaseAllowance",
      "outputs": [],
      "stateMutability": "nonpayable",
      "type": "function"
    },
    {
      "inputs": [
        {
          "internalType": "address payable",
          "name": "_source",
          "type": "address"
        },
        {
          "internalType": "string",
          "name": "sourcePort",
          "type": "string"
        },
        {
          "internalType": "string",
          "name": "sourceChannel",
          "type": "string"
        },
        {
          "internalType": "string",
          "name": "denom",
          "type": "string"
        },
        {
          "internalType": "uint256",
          "name": "amount",
          "type": "uint256"
        },
        {
          "internalType": "string",
          "name": "receiver",
          "type": "string"
        },
        {
          "internalType": "bool",
          "name": "_before",
          "type": "bool"
        },
        {
          "internalType": "bool",
          "name": "_between",
          "type": "bool"
        },
        {
          "internalType": "bool",
          "name": "_after",
          "type": "bool"
        }
      ],
      "name": "testMultiTransferWithInternalTransfer",
      "outputs": [],
      "stateMutability": "nonpayable",
      "type": "function"
    },
    {
      "inputs": [],
      "name": "testRevoke",
      "outputs": [],
      "stateMutability": "nonpayable",
      "type": "function"
    },
    {
      "inputs": [
        {
          "internalType": "string",
          "name": "sourcePort",
          "type": "string"
        },
        {
          "internalType": "string",
          "name": "sourceChannel",
          "type": "string"
        },
        {
          "internalType": "string",
          "name": "denom",
          "type": "string"
        },
        {
          "internalType": "uint256",
          "name": "amount",
          "type": "uint256"
        },
        {
          "internalType": "string",
          "name": "receiver",
          "type": "string"
        },
        {
          "components": [
            {
              "internalType": "uint64",
              "name": "revisionNumber",
              "type": "uint64"
            },
            {
              "internalType": "uint64",
              "name": "revisionHeight",
              "type": "uint64"
            }
          ],
          "internalType": "struct Height",
          "name": "timeoutHeight",
          "type": "tuple"
        },
        {
          "internalType": "uint64",
          "name": "timeoutTimestamp",
          "type": "uint64"
        },
        {
          "internalType": "string",
          "name": "memo",
          "type": "string"
        }
      ],
      "name": "testTransferContractFunds",
      "outputs": [
        {
          "internalType": "uint64",
          "name": "nextSequence",
          "type": "uint64"
        }
      ],
      "stateMutability": "nonpayable",
      "type": "function"
    },
    {
      "inputs": [
        {
          "internalType": "address payable",
          "name": "_otherAcc",
          "type": "address"
        },
        {
          "internalType": "address",
          "name": "_source",
          "type": "address"
        },
        {
          "internalType": "string",
          "name": "sourcePort",
          "type": "string"
        },
        {
          "internalType": "string",
          "name": "sourceChannel",
          "type": "string"
        },
        {
          "internalType": "string",
          "name": "denom",
          "type": "string"
        },
        {
          "internalType": "uint256",
          "name": "amount",
          "type": "uint256"
        },
        {
          "internalType": "string",
          "name": "receiver",
          "type": "string"
        },
        {
          "internalType": "bool",
          "name": "_before",
          "type": "bool"
        },
        {
          "internalType": "bool",
          "name": "_after",
          "type": "bool"
        }
      ],
      "name": "testTransferFundsWithTransferToOtherAcc",
      "outputs": [],
      "stateMutability": "nonpayable",
      "type": "function"
    },
    {
      "inputs": [
        {
          "internalType": "string",
          "name": "sourcePort",
          "type": "string"
        },
        {
          "internalType": "string",
          "name": "sourceChannel",
          "type": "string"
        },
        {
          "internalType": "string",
          "name": "denom",
          "type": "string"
        },
        {
          "internalType": "uint256",
          "name": "amount",
          "type": "uint256"
        },
        {
          "internalType": "string",
          "name": "receiver",
          "type": "string"
        },
        {
          "components": [
            {
              "internalType": "uint64",
              "name": "revisionNumber",
              "type": "uint64"
            },
            {
              "internalType": "uint64",
              "name": "revisionHeight",
              "type": "uint64"
            }
          ],
          "internalType": "struct Height",
          "name": "timeoutHeight",
          "type": "tuple"
        },
        {
          "internalType": "uint64",
          "name": "timeoutTimestamp",
          "type": "uint64"
        },
        {
          "internalType": "string",
          "name": "memo",
          "type": "string"
        }
      ],
      "name": "testTransferUserFunds",
      "outputs": [
        {
          "internalType": "uint64",
          "name": "nextSequence",
          "type": "uint64"
        }
      ],
      "stateMutability": "nonpayable",
      "type": "function"
    }
  ],
  "bytecode": "0x608060405234801561001057600080fd5b50613831806100206000396000f3fe608060405234801561001057600080fd5b50600436106100cf5760003560e01c8063a363df841161008c578063dfa10f3911610066578063dfa10f3914610210578063ee5766d914610241578063f298e7a814610271578063f3675f081461028d576100cf565b8063a363df8414610194578063b9672879146101c4578063c595699a146101e0576100cf565b80631dba685b146100d4578063424af9f6146100f057806361bc221a1461010c5780636fdf23cc1461012a5780637492bdd81461015a5780637a6185e11461018a575b600080fd5b6100ee60048036038101906100e9919061131b565b6102a9565b005b61010a600480360381019061010591906114b5565b61071e565b005b6101146107f8565b604051610121919061159a565b60405180910390f35b610144600480360381019061013f919061164f565b610809565b60405161015191906117a1565b60405180910390f35b610174600480360381019061016f919061164f565b6108a7565b60405161018191906117a1565b60405180910390f35b610192610945565b005b6101ae60048036038101906101a991906117fa565b610a0a565b6040516101bb9190611bdd565b60405180910390f35b6101de60048036038101906101d99190611bff565b610a97565b005b6101fa60048036038101906101f59190611d39565b610d64565b6040516102079190611dcc565b60405180910390f35b61022a60048036038101906102259190611e12565b610dee565b604051610238929190612002565b60405180910390f35b61025b60048036038101906102569190611d39565b610e82565b604051610268919061207d565b60405180910390f35b61028b600480360381019061028691906114b5565b610f12565b005b6102a760048036038101906102a291906120f5565b610fec565b005b82156103ab5760008081819054906101000a900460070b809291906102cd90612171565b91906101000a81548167ffffffffffffffff021916908360070b67ffffffffffffffff1602179055505060008973ffffffffffffffffffffffffffffffffffffffff16650da475abf000604051610323906121d2565b60006040518083038185875af1925050503d8060008114610360576040519150601f19603f3d011682016040523d82523d6000602084013e610365565b606091505b50509050806103a9576040517f08c379a00000000000000000000000000000000000000000000000000000000081526004016103a090612259565b60405180910390fd5b505b60006040518060400160405280606467ffffffffffffffff168152602001606467ffffffffffffffff16815250905061080273ffffffffffffffffffffffffffffffffffffffff1663632535b98a8a8a60028b61040891906122a8565b8f8b8860006040518963ffffffff1660e01b81526004016104309897969594939291906123d4565b6020604051808303816000875af115801561044f573d6000803e3d6000fd5b505050506040513d601f19601f820116820180604052508101906104739190612498565b5082156105765760008081819054906101000a900460070b8092919061049890612171565b91906101000a81548167ffffffffffffffff021916908360070b67ffffffffffffffff1602179055505060008a73ffffffffffffffffffffffffffffffffffffffff16650da475abf0006040516104ee906121d2565b60006040518083038185875af1925050503d806000811461052b576040519150601f19603f3d011682016040523d82523d6000602084013e610530565b606091505b5050905080610574576040517f08c379a000000000000000000000000000000000000000000000000000000000815260040161056b90612259565b60405180910390fd5b505b61080273ffffffffffffffffffffffffffffffffffffffff1663632535b98a8a8a60028b6105a491906122a8565b8f8b8860006040518963ffffffff1660e01b81526004016105cc9897969594939291906123d4565b6020604051808303816000875af11580156105eb573d6000803e3d6000fd5b505050506040513d601f19601f8201168201806040525081019061060f9190612498565b5081156107125760008081819054906101000a900460070b8092919061063490612171565b91906101000a81548167ffffffffffffffff021916908360070b67ffffffffffffffff1602179055505060008a73ffffffffffffffffffffffffffffffffffffffff16650da475abf00060405161068a906121d2565b60006040518083038185875af1925050503d80600081146106c7576040519150601f19603f3d011682016040523d82523d6000602084013e6106cc565b606091505b5050905080610710576040517f08c379a000000000000000000000000000000000000000000000000000000000815260040161070790612259565b60405180910390fd5b505b50505050505050505050565b600061080273ffffffffffffffffffffffffffffffffffffffff166354de647b308a8a8a8a8a8a8a6040518963ffffffff1660e01b8152600401610769989796959493929190612501565b6020604051808303816000875af1158015610788573d6000803e3d6000fd5b505050506040513d601f19601f820116820180604052508101906107ac9190612584565b9050806107ee576040517f08c379a00000000000000000000000000000000000000000000000000000000081526004016107e5906125fd565b60405180910390fd5b5050505050505050565b60008054906101000a900460070b81565b600061080273ffffffffffffffffffffffffffffffffffffffff1663632535b98a8a8a8a308b8b8b8b6040518a63ffffffff1660e01b81526004016108569998979695949392919061261d565b6020604051808303816000875af1158015610875573d6000803e3d6000fd5b505050506040513d601f19601f820116820180604052508101906108999190612498565b905098975050505050505050565b600061080273ffffffffffffffffffffffffffffffffffffffff1663632535b98a8a8a8a338b8b8b8b6040518a63ffffffff1660e01b81526004016108f49998979695949392919061261d565b6020604051808303816000875af1158015610913573d6000803e3d6000fd5b505050506040513d601f19601f820116820180604052508101906109379190612498565b905098975050505050505050565b600061080273ffffffffffffffffffffffffffffffffffffffff166374a8f103306040518263ffffffff1660e01b815260040161098291906126ce565b6020604051808303816000875af11580156109a1573d6000803e3d6000fd5b505050506040513d601f19601f820116820180604052508101906109c59190612584565b905080610a07576040517f08c379a00000000000000000000000000000000000000000000000000000000081526004016109fe90612735565b60405180910390fd5b50565b606061080273ffffffffffffffffffffffffffffffffffffffff1663dd62ed3e84846040518363ffffffff1660e01b8152600401610a49929190612755565b600060405180830381865afa158015610a66573d6000803e3d6000fd5b505050506040513d6000823e3d601f19601f82011682018060405250810190610a8f9190612c2a565b905092915050565b8115610b995760008081819054906101000a900460070b80929190610abb90612171565b91906101000a81548167ffffffffffffffff021916908360070b67ffffffffffffffff1602179055505060008973ffffffffffffffffffffffffffffffffffffffff16650da475abf000604051610b11906121d2565b60006040518083038185875af1925050503d8060008114610b4e576040519150601f19603f3d011682016040523d82523d6000602084013e610b53565b606091505b5050905080610b97576040517f08c379a0000000000000000000000000000000000000000000000000000000008152600401610b8e90612259565b60405180910390fd5b505b60006040518060400160405280606467ffffffffffffffff168152602001606467ffffffffffffffff16815250905061080273ffffffffffffffffffffffffffffffffffffffff1663632535b9898989898e8a8860006040518963ffffffff1660e01b8152600401610c12989796959493929190612c73565b6020604051808303816000875af1158015610c31573d6000803e3d6000fd5b505050506040513d601f19601f82011682018060405250810190610c559190612498565b508115610d585760008081819054906101000a900460070b80929190610c7a90612171565b91906101000a81548167ffffffffffffffff021916908360070b67ffffffffffffffff1602179055505060008a73ffffffffffffffffffffffffffffffffffffffff16650da475abf000604051610cd0906121d2565b60006040518083038185875af1925050503d8060008114610d0d576040519150601f19603f3d011682016040523d82523d6000602084013e610d12565b606091505b5050905080610d56576040517f08c379a0000000000000000000000000000000000000000000000000000000008152600401610d4d90612259565b60405180910390fd5b505b50505050505050505050565b606061080273ffffffffffffffffffffffffffffffffffffffff1663b5cb6e7d836040518263ffffffff1660e01b8152600401610da19190611dcc565b600060405180830381865afa158015610dbe573d6000803e3d6000fd5b505050506040513d6000823e3d601f19601f82011682018060405250810190610de79190612d22565b9050919050565b6060610df86110b7565b61080273ffffffffffffffffffffffffffffffffffffffff166322b6fad6846040518263ffffffff1660e01b8152600401610e339190612ee7565b600060405180830381865afa158015610e50573d6000803e3d6000fd5b505050506040513d6000823e3d601f19601f82011682018060405250810190610e79919061317f565b91509150915091565b610e8a6110db565b61080273ffffffffffffffffffffffffffffffffffffffff1663a815cdd9836040518263ffffffff1660e01b8152600401610ec59190611dcc565b600060405180830381865afa158015610ee2573d6000803e3d6000fd5b505050506040513d6000823e3d601f19601f82011682018060405250810190610f0b91906131f7565b9050919050565b600061080273ffffffffffffffffffffffffffffffffffffffff1663b3f536ec308a8a8a8a8a8a8a6040518963ffffffff1660e01b8152600401610f5d989796959493929190612501565b6020604051808303816000875af1158015610f7c573d6000803e3d6000fd5b505050506040513d601f19601f82011682018060405250810190610fa09190612584565b905080610fe2576040517f08c379a0000000000000000000000000000000000000000000000000000000008152600401610fd99061328c565b60405180910390fd5b5050505050505050565b600061080273ffffffffffffffffffffffffffffffffffffffff1663473c90c73085856040518463ffffffff1660e01b815260040161102d9392919061375d565b6020604051808303816000875af115801561104c573d6000803e3d6000fd5b505050506040513d601f19601f820116820180604052508101906110709190612584565b9050806110b2576040517f08c379a00000000000000000000000000000000000000000000000000000000081526004016110a9906137db565b60405180910390fd5b505050565b604051806040016040528060608152602001600067ffffffffffffffff1681525090565b604051806040016040528060608152602001606081525090565b6000604051905090565b600080fd5b600080fd5b600073ffffffffffffffffffffffffffffffffffffffff82169050919050565b600061113482611109565b9050919050565b61114481611129565b811461114f57600080fd5b50565b6000813590506111618161113b565b92915050565b600080fd5b600080fd5b6000601f19601f8301169050919050565b7f4e487b7100000000000000000000000000000000000000000000000000000000600052604160045260246000fd5b6111ba82611171565b810181811067ffffffffffffffff821117156111d9576111d8611182565b5b80604052505050565b60006111ec6110f5565b90506111f882826111b1565b919050565b600067ffffffffffffffff82111561121857611217611182565b5b61122182611171565b9050602081019050919050565b82818337600083830152505050565b600061125061124b846111fd565b6111e2565b90508281526020810184848401111561126c5761126b61116c565b5b61127784828561122e565b509392505050565b600082601f83011261129457611293611167565b5b81356112a484826020860161123d565b91505092915050565b6000819050919050565b6112c0816112ad565b81146112cb57600080fd5b50565b6000813590506112dd816112b7565b92915050565b60008115159050919050565b6112f8816112e3565b811461130357600080fd5b50565b600081359050611315816112ef565b92915050565b60008060008060008060008060006101208a8c03121561133e5761133d6110ff565b5b600061134c8c828d01611152565b99505060208a013567ffffffffffffffff81111561136d5761136c611104565b5b6113798c828d0161127f565b98505060408a013567ffffffffffffffff81111561139a57611399611104565b5b6113a68c828d0161127f565b97505060608a013567ffffffffffffffff8111156113c7576113c6611104565b5b6113d38c828d0161127f565b96505060806113e48c828d016112ce565b95505060a08a013567ffffffffffffffff81111561140557611404611104565b5b6114118c828d0161127f565b94505060c06114228c828d01611306565b93505060e06114338c828d01611306565b9250506101006114458c828d01611306565b9150509295985092959850929598565b600080fd5b600080fd5b60008083601f84011261147557611474611167565b5b8235905067ffffffffffffffff81111561149257611491611455565b5b6020830191508360018202830111156114ae576114ad61145a565b5b9250929050565b60008060008060008060006080888a0312156114d4576114d36110ff565b5b600088013567ffffffffffffffff8111156114f2576114f1611104565b5b6114fe8a828b0161145f565b9750975050602088013567ffffffffffffffff81111561152157611520611104565b5b61152d8a828b0161145f565b9550955050604088013567ffffffffffffffff8111156115505761154f611104565b5b61155c8a828b0161145f565b9350935050606061156f8a828b016112ce565b91505092959891949750929550565b60008160070b9050919050565b6115948161157e565b82525050565b60006020820190506115af600083018461158b565b92915050565b600080fd5b600080fd5b600067ffffffffffffffff82169050919050565b6115dc816115bf565b81146115e757600080fd5b50565b6000813590506115f9816115d3565b92915050565b600060408284031215611615576116146115b5565b5b61161f60406111e2565b9050600061162f848285016115ea565b6000830152506020611643848285016115ea565b60208301525092915050565b600080600080600080600080610120898b0312156116705761166f6110ff565b5b600089013567ffffffffffffffff81111561168e5761168d611104565b5b61169a8b828c0161127f565b985050602089013567ffffffffffffffff8111156116bb576116ba611104565b5b6116c78b828c0161127f565b975050604089013567ffffffffffffffff8111156116e8576116e7611104565b5b6116f48b828c0161127f565b96505060606117058b828c016112ce565b955050608089013567ffffffffffffffff81111561172657611725611104565b5b6117328b828c0161127f565b94505060a06117438b828c016115ff565b93505060e06117548b828c016115ea565b92505061010089013567ffffffffffffffff81111561177657611775611104565b5b6117828b828c0161127f565b9150509295985092959890939650565b61179b816115bf565b82525050565b60006020820190506117b66000830184611792565b92915050565b60006117c782611109565b9050919050565b6117d7816117bc565b81146117e257600080fd5b50565b6000813590506117f4816117ce565b92915050565b60008060408385031215611811576118106110ff565b5b600061181f858286016117e5565b9250506020611830858286016117e5565b9150509250929050565b600081519050919050565b600082825260208201905092915050565b6000819050602082019050919050565b600081519050919050565b600082825260208201905092915050565b60005b838110156118a0578082015181840152602081019050611885565b60008484015250505050565b60006118b782611866565b6118c18185611871565b93506118d1818560208601611882565b6118da81611171565b840191505092915050565b600081519050919050565b600082825260208201905092915050565b6000819050602082019050919050565b61191a816112ad565b82525050565b6000604083016000830151848203600086015261193d82826118ac565b91505060208301516119526020860182611911565b508091505092915050565b60006119698383611920565b905092915050565b6000602082019050919050565b6000611989826118e5565b61199381856118f0565b9350836020820285016119a585611901565b8060005b858110156119e157848403895281516119c2858261195d565b94506119cd83611971565b925060208a019950506001810190506119a9565b50829750879550505050505092915050565b600081519050919050565b600082825260208201905092915050565b6000819050602082019050919050565b6000611a2b83836118ac565b905092915050565b6000602082019050919050565b6000611a4b826119f3565b611a5581856119fe565b935083602082028501611a6785611a0f565b8060005b85811015611aa35784840389528151611a848582611a1f565b9450611a8f83611a33565b925060208a01995050600181019050611a6b565b50829750879550505050505092915050565b600060a0830160008301518482036000860152611ad282826118ac565b91505060208301518482036020860152611aec82826118ac565b91505060408301518482036040860152611b06828261197e565b91505060608301518482036060860152611b208282611a40565b91505060808301518482036080860152611b3a8282611a40565b9150508091505092915050565b6000611b538383611ab5565b905092915050565b6000602082019050919050565b6000611b738261183a565b611b7d8185611845565b935083602082028501611b8f85611856565b8060005b85811015611bcb5784840389528151611bac8582611b47565b9450611bb783611b5b565b925060208a01995050600181019050611b93565b50829750879550505050505092915050565b60006020820190508181036000830152611bf78184611b68565b905092915050565b60008060008060008060008060006101208a8c031215611c2257611c216110ff565b5b6000611c308c828d01611152565b9950506020611c418c828d016117e5565b98505060408a013567ffffffffffffffff811115611c6257611c61611104565b5b611c6e8c828d0161127f565b97505060608a013567ffffffffffffffff811115611c8f57611c8e611104565b5b611c9b8c828d0161127f565b96505060808a013567ffffffffffffffff811115611cbc57611cbb611104565b5b611cc88c828d0161127f565b95505060a0611cd98c828d016112ce565b94505060c08a013567ffffffffffffffff811115611cfa57611cf9611104565b5b611d068c828d0161127f565b93505060e0611d178c828d01611306565b925050610100611d298c828d01611306565b9150509295985092959850929598565b600060208284031215611d4f57611d4e6110ff565b5b600082013567ffffffffffffffff811115611d6d57611d6c611104565b5b611d798482850161127f565b91505092915050565b600082825260208201905092915050565b6000611d9e82611866565b611da88185611d82565b9350611db8818560208601611882565b611dc181611171565b840191505092915050565b60006020820190508181036000830152611de68184611d93565b905092915050565b600080fd5b600060a08284031215611e0957611e08611dee565b5b81905092915050565b600060208284031215611e2857611e276110ff565b5b600082013567ffffffffffffffff811115611e4657611e45611104565b5b611e5284828501611df3565b91505092915050565b600081519050919050565b600082825260208201905092915050565b6000819050602082019050919050565b60006040830160008301518482036000860152611ea482826118ac565b91505060208301518482036020860152611ebe82826118ac565b9150508091505092915050565b6000611ed78383611e87565b905092915050565b6000602082019050919050565b6000611ef782611e5b565b611f018185611e66565b935083602082028501611f1385611e77565b8060005b85811015611f4f5784840389528151611f308582611ecb565b9450611f3b83611edf565b925060208a01995050600181019050611f17565b50829750879550505050505092915050565b600081519050919050565b600082825260208201905092915050565b6000611f8882611f61565b611f928185611f6c565b9350611fa2818560208601611882565b611fab81611171565b840191505092915050565b611fbf816115bf565b82525050565b60006040830160008301518482036000860152611fe28282611f7d565b9150506020830151611ff76020860182611fb6565b508091505092915050565b6000604082019050818103600083015261201c8185611eec565b905081810360208301526120308184611fc5565b90509392505050565b6000604083016000830151848203600086015261205682826118ac565b9150506020830151848203602086015261207082826118ac565b9150508091505092915050565b600060208201905081810360008301526120978184612039565b905092915050565b60008083601f8401126120b5576120b4611167565b5b8235905067ffffffffffffffff8111156120d2576120d1611455565b5b6020830191508360208202830111156120ee576120ed61145a565b5b9250929050565b6000806020838503121561210c5761210b6110ff565b5b600083013567ffffffffffffffff81111561212a57612129611104565b5b6121368582860161209f565b92509250509250929050565b7f4e487b7100000000000000000000000000000000000000000000000000000000600052601160045260246000fd5b600061217c8261157e565b9150677fffffffffffffff820361219657612195612142565b5b600182019050919050565b600081905092915050565b50565b60006121bc6000836121a1565b91506121c7826121ac565b600082019050919050565b60006121dd826121af565b9150819050919050565b7f4661696c656420746f2073656e6420457468657220746f2064656c656761746f60008201527f7200000000000000000000000000000000000000000000000000000000000000602082015250565b6000612243602183611d82565b915061224e826121e7565b604082019050919050565b6000602082019050818103600083015261227281612236565b9050919050565b7f4e487b7100000000000000000000000000000000000000000000000000000000600052601260045260246000fd5b60006122b3826112ad565b91506122be836112ad565b9250826122ce576122cd612279565b5b828204905092915050565b6122e2816112ad565b82525050565b6000819050919050565b600061230d61230861230384611109565b6122e8565b611109565b9050919050565b600061231f826122f2565b9050919050565b600061233182612314565b9050919050565b61234181612326565b82525050565b60408201600082015161235d6000850182611fb6565b5060208201516123706020850182611fb6565b50505050565b6000819050919050565b600061239b61239661239184612376565b6122e8565b6115bf565b9050919050565b6123ab81612380565b82525050565b60006123be600083611d82565b91506123c9826121ac565b600082019050919050565b60006101408201905081810360008301526123ef818b611d93565b90508181036020830152612403818a611d93565b905081810360408301526124178189611d93565b905061242660608301886122d9565b6124336080830187612338565b81810360a08301526124458186611d93565b905061245460c0830185612347565b6124626101008301846123a2565b818103610120830152612474816123b1565b90509998505050505050505050565b600081519050612492816115d3565b92915050565b6000602082840312156124ae576124ad6110ff565b5b60006124bc84828501612483565b91505092915050565b6124ce816117bc565b82525050565b60006124e08385611d82565b93506124ed83858461122e565b6124f683611171565b840190509392505050565b600060a082019050612516600083018b6124c5565b818103602083015261252981898b6124d4565b9050818103604083015261253e8187896124d4565b905081810360608301526125538185876124d4565b905061256260808301846122d9565b9998505050505050505050565b60008151905061257e816112ef565b92915050565b60006020828403121561259a576125996110ff565b5b60006125a88482850161256f565b91505092915050565b7f4661696c656420746f20696e63726561736520616c6c6f77616e636500000000600082015250565b60006125e7601c83611d82565b91506125f2826125b1565b602082019050919050565b60006020820190508181036000830152612616816125da565b9050919050565b6000610140820190508181036000830152612638818c611d93565b9050818103602083015261264c818b611d93565b90508181036040830152612660818a611d93565b905061266f60608301896122d9565b61267c60808301886124c5565b81810360a083015261268e8187611d93565b905061269d60c0830186612347565b6126ab610100830185611792565b8181036101208301526126be8184611d93565b90509a9950505050505050505050565b60006020820190506126e360008301846124c5565b92915050565b7f4661696c656420746f207265766f6b6520617070726f76616c00000000000000600082015250565b600061271f601983611d82565b915061272a826126e9565b602082019050919050565b6000602082019050818103600083015261274e81612712565b9050919050565b600060408201905061276a60008301856124c5565b61277760208301846124c5565b9392505050565b600067ffffffffffffffff82111561279957612798611182565b5b602082029050602081019050919050565b60006127bd6127b8846111fd565b6111e2565b9050828152602081018484840111156127d9576127d861116c565b5b6127e4848285611882565b509392505050565b600082601f83011261280157612800611167565b5b81516128118482602086016127aa565b91505092915050565b600067ffffffffffffffff82111561283557612834611182565b5b602082029050602081019050919050565b600081519050612855816112b7565b92915050565b600060408284031215612871576128706115b5565b5b61287b60406111e2565b9050600082015167ffffffffffffffff81111561289b5761289a6115ba565b5b6128a7848285016127ec565b60008301525060206128bb84828501612846565b60208301525092915050565b60006128da6128d58461281a565b6111e2565b905080838252602082019050602084028301858111156128fd576128fc61145a565b5b835b8181101561294457805167ffffffffffffffff81111561292257612921611167565b5b80860161292f898261285b565b855260208501945050506020810190506128ff565b5050509392505050565b600082601f83011261296357612962611167565b5b81516129738482602086016128c7565b91505092915050565b600067ffffffffffffffff82111561299757612996611182565b5b602082029050602081019050919050565b60006129bb6129b68461297c565b6111e2565b905080838252602082019050602084028301858111156129de576129dd61145a565b5b835b81811015612a2557805167ffffffffffffffff811115612a0357612a02611167565b5b808601612a1089826127ec565b855260208501945050506020810190506129e0565b5050509392505050565b600082601f830112612a4457612a43611167565b5b8151612a548482602086016129a8565b91505092915050565b600060a08284031215612a7357612a726115b5565b5b612a7d60a06111e2565b9050600082015167ffffffffffffffff811115612a9d57612a9c6115ba565b5b612aa9848285016127ec565b600083015250602082015167ffffffffffffffff811115612acd57612acc6115ba565b5b612ad9848285016127ec565b602083015250604082015167ffffffffffffffff811115612afd57612afc6115ba565b5b612b098482850161294e565b604083015250606082015167ffffffffffffffff811115612b2d57612b2c6115ba565b5b612b3984828501612a2f565b606083015250608082015167ffffffffffffffff811115612b5d57612b5c6115ba565b5b612b6984828501612a2f565b60808301525092915050565b6000612b88612b838461277e565b6111e2565b90508083825260208201905060208402830185811115612bab57612baa61145a565b5b835b81811015612bf257805167ffffffffffffffff811115612bd057612bcf611167565b5b808601612bdd8982612a5d565b85526020850194505050602081019050612bad565b5050509392505050565b600082601f830112612c1157612c10611167565b5b8151612c21848260208601612b75565b91505092915050565b600060208284031215612c4057612c3f6110ff565b5b600082015167ffffffffffffffff811115612c5e57612c5d611104565b5b612c6a84828501612bfc565b91505092915050565b6000610140820190508181036000830152612c8e818b611d93565b90508181036020830152612ca2818a611d93565b90508181036040830152612cb68189611d93565b9050612cc560608301886122d9565b612cd260808301876124c5565b81810360a0830152612ce48186611d93565b9050612cf360c0830185612347565b612d016101008301846123a2565b818103610120830152612d13816123b1565b90509998505050505050505050565b600060208284031215612d3857612d376110ff565b5b600082015167ffffffffffffffff811115612d5657612d55611104565b5b612d62848285016127ec565b91505092915050565b600080fd5b600080fd5b600080fd5b60008083356001602003843603038112612d9757612d96612d75565b5b83810192508235915060208301925067ffffffffffffffff821115612dbf57612dbe612d6b565b5b600182023603831315612dd557612dd4612d70565b5b509250929050565b6000612de98385611f6c565b9350612df683858461122e565b612dff83611171565b840190509392505050565b6000612e1960208401846115ea565b905092915050565b6000612e306020840184611306565b905092915050565b612e41816112e3565b82525050565b600060a08301612e5a6000840184612d7a565b8583036000870152612e6d838284612ddd565b92505050612e7e6020840184612e0a565b612e8b6020860182611fb6565b50612e996040840184612e0a565b612ea66040860182611fb6565b50612eb46060840184612e21565b612ec16060860182612e38565b50612ecf6080840184612e21565b612edc6080860182612e38565b508091505092915050565b60006020820190508181036000830152612f018184612e47565b905092915050565b600067ffffffffffffffff821115612f2457612f23611182565b5b602082029050602081019050919050565b600060408284031215612f4b57612f4a6115b5565b5b612f5560406111e2565b9050600082015167ffffffffffffffff811115612f7557612f746115ba565b5b612f81848285016127ec565b600083015250602082015167ffffffffffffffff811115612fa557612fa46115ba565b5b612fb1848285016127ec565b60208301525092915050565b6000612fd0612fcb84612f09565b6111e2565b90508083825260208201905060208402830185811115612ff357612ff261145a565b5b835b8181101561303a57805167ffffffffffffffff81111561301857613017611167565b5b8086016130258982612f35565b85526020850194505050602081019050612ff5565b5050509392505050565b600082601f83011261305957613058611167565b5b8151613069848260208601612fbd565b91505092915050565b600067ffffffffffffffff82111561308d5761308c611182565b5b61309682611171565b9050602081019050919050565b60006130b66130b184613072565b6111e2565b9050828152602081018484840111156130d2576130d161116c565b5b6130dd848285611882565b509392505050565b600082601f8301126130fa576130f9611167565b5b815161310a8482602086016130a3565b91505092915050565b600060408284031215613129576131286115b5565b5b61313360406111e2565b9050600082015167ffffffffffffffff811115613153576131526115ba565b5b61315f848285016130e5565b600083015250602061317384828501612483565b60208301525092915050565b60008060408385031215613196576131956110ff565b5b600083015167ffffffffffffffff8111156131b4576131b3611104565b5b6131c085828601613044565b925050602083015167ffffffffffffffff8111156131e1576131e0611104565b5b6131ed85828601613113565b9150509250929050565b60006020828403121561320d5761320c6110ff565b5b600082015167ffffffffffffffff81111561322b5761322a611104565b5b61323784828501612f35565b91505092915050565b7f4661696c656420746f20646563726561736520616c6c6f77616e636500000000600082015250565b6000613276601c83611d82565b915061328182613240565b602082019050919050565b600060208201905081810360008301526132a581613269565b9050919050565b6000819050919050565b600080833560016020038436030381126132d3576132d2612d75565b5b83810192508235915060208301925067ffffffffffffffff8211156132fb576132fa612d6b565b5b60018202360383131561331157613310612d70565b5b509250929050565b60006133258385611871565b935061333283858461122e565b61333b83611171565b840190509392505050565b6000808335600160200384360303811261336357613362612d75565b5b83810192508235915060208301925067ffffffffffffffff82111561338b5761338a612d6b565b5b6020820236038313156133a1576133a0612d70565b5b509250929050565b6000819050919050565b60006133c260208401846112ce565b905092915050565b6000604083016133dd60008401846132b6565b85830360008701526133f0838284613319565b9250505061340160208401846133b3565b61340e6020860182611911565b508091505092915050565b600061342583836133ca565b905092915050565b60008235600160400383360303811261344957613448612d75565b5b82810191505092915050565b6000602082019050919050565b600061346e83856118f0565b935083602084028501613480846133a9565b8060005b878110156134c457848403895261349b828461342d565b6134a58582613419565b94506134b083613455565b925060208a01995050600181019050613484565b50829750879450505050509392505050565b600080833560016020038436030381126134f3576134f2612d75565b5b83810192508235915060208301925067ffffffffffffffff82111561351b5761351a612d6b565b5b60208202360383131561353157613530612d70565b5b509250929050565b6000819050919050565b6000613550848484613319565b90509392505050565b6000602082019050919050565b600061357283856119fe565b93508360208402850161358484613539565b8060005b878110156135ca57848403895261359f82846132b6565b6135aa868284613543565b95506135b584613559565b935060208b019a505050600181019050613588565b50829750879450505050509392505050565b600060a083016135ef60008401846132b6565b8583036000870152613602838284613319565b9250505061361360208401846132b6565b8583036020870152613626838284613319565b925050506136376040840184613346565b858303604087015261364a838284613462565b9250505061365b60608401846134d6565b858303606087015261366e838284613566565b9250505061367f60808401846134d6565b8583036080870152613692838284613566565b925050508091505092915050565b60006136ac83836135dc565b905092915050565b60008235600160a0038336030381126136d0576136cf612d75565b5b82810191505092915050565b6000602082019050919050565b60006136f58385611845565b935083602084028501613707846132ac565b8060005b8781101561374b57848403895261372282846136b4565b61372c85826136a0565b9450613737836136dc565b925060208a0199505060018101905061370b565b50829750879450505050509392505050565b600060408201905061377260008301866124c5565b81810360208301526137858184866136e9565b9050949350505050565b7f4661696c656420746f20706572666f726d20617070726f76616c000000000000600082015250565b60006137c5601a83611d82565b91506137d08261378f565b602082019050919050565b600060208201905081810360008301526137f4816137b8565b905091905056fea2646970667358221220ad77753d207f5fa16ed802e3577e3ce385d25445983916e5d53914f0d256891964736f6c63430008140033",
  "linkReferences": {},
  "deployedLinkReferences": {}
}