{
  "_format": "hh-sol-artifact-1",
  "contractName": "InterchainSender",
  "sourceName": "solidity/precompiles/testutil/contracts/InterchainSender.sol",
  "abi": [
    {
      "inputs": [
        {
          "internalType": "address",
          "name": "owner",
          "type": "address"
        },
        {
          "internalType": "address",
          "name": "spender",
          "type": "address"
        }
      ],
      "name": "testAllowance",
      "outputs": [
        {
          "components": [
            {
              "internalType": "string",
              "name": "sourcePort",
              "type": "string"
            },
            {
              "internalType": "string",
              "name": "sourceChannel",
              "type": "string"
            },
            {
              "components": [
                {
                  "internalType": "string",
                  "name": "denom",
                  "type": "string"
                },
                {
                  "internalType": "uint256",
                  "name": "amount",
                  "type": "uint256"
                }
              ],
              "internalType": "struct Coin[]",
              "name": "spendLimit",
              "type": "tuple[]"
            },
            {
              "internalType": "string[]",
              "name": "allowList",
              "type": "string[]"
            }
          ],
          "internalType": "struct ICS20Allocation[]",
          "name": "allocations",
          "type": "tuple[]"
        }
      ],
      "stateMutability": "view",
      "type": "function"
    },
    {
      "inputs": [
        {
          "components": [
            {
              "internalType": "string",
              "name": "sourcePort",
              "type": "string"
            },
            {
              "internalType": "string",
              "name": "sourceChannel",
              "type": "string"
            },
            {
              "components": [
                {
                  "internalType": "string",
                  "name": "denom",
                  "type": "string"
                },
                {
                  "internalType": "uint256",
                  "name": "amount",
                  "type": "uint256"
                }
              ],
              "internalType": "struct Coin[]",
              "name": "spendLimit",
              "type": "tuple[]"
            },
            {
              "internalType": "string[]",
              "name": "allowList",
              "type": "string[]"
            }
          ],
          "internalType": "struct ICS20Allocation[]",
          "name": "allocs",
          "type": "tuple[]"
        }
      ],
      "name": "testApprove",
      "outputs": [],
      "stateMutability": "nonpayable",
      "type": "function"
    },
    {
      "inputs": [
        {
          "internalType": "string",
          "name": "sourcePort",
          "type": "string"
        },
        {
          "internalType": "string",
          "name": "sourceChannel",
          "type": "string"
        },
        {
          "internalType": "string",
          "name": "denom",
          "type": "string"
        },
        {
          "internalType": "uint256",
          "name": "amount",
          "type": "uint256"
        }
      ],
      "name": "testDecreaseAllowance",
      "outputs": [],
      "stateMutability": "nonpayable",
      "type": "function"
    },
    {
      "inputs": [
        {
          "internalType": "string",
          "name": "trace",
          "type": "string"
        }
      ],
      "name": "testDenomHash",
      "outputs": [
        {
          "internalType": "string",
          "name": "hash",
          "type": "string"
        }
      ],
      "stateMutability": "view",
      "type": "function"
    },
    {
      "inputs": [
        {
          "internalType": "string",
          "name": "hash",
          "type": "string"
        }
      ],
      "name": "testDenomTrace",
      "outputs": [
        {
          "components": [
            {
              "internalType": "string",
              "name": "path",
              "type": "string"
            },
            {
              "internalType": "string",
              "name": "baseDenom",
              "type": "string"
            }
          ],
          "internalType": "struct DenomTrace",
          "name": "denomTrace",
          "type": "tuple"
        }
      ],
      "stateMutability": "view",
      "type": "function"
    },
    {
      "inputs": [
        {
          "components": [
            {
              "internalType": "bytes",
              "name": "key",
              "type": "bytes"
            },
            {
              "internalType": "uint64",
              "name": "offset",
              "type": "uint64"
            },
            {
              "internalType": "uint64",
              "name": "limit",
              "type": "uint64"
            },
            {
              "internalType": "bool",
              "name": "countTotal",
              "type": "bool"
            },
            {
              "internalType": "bool",
              "name": "reverse",
              "type": "bool"
            }
          ],
          "internalType": "struct PageRequest",
          "name": "pageRequest",
          "type": "tuple"
        }
      ],
      "name": "testDenomTraces",
      "outputs": [
        {
          "components": [
            {
              "internalType": "string",
              "name": "path",
              "type": "string"
            },
            {
              "internalType": "string",
              "name": "baseDenom",
              "type": "string"
            }
          ],
          "internalType": "struct DenomTrace[]",
          "name": "denomTraces",
          "type": "tuple[]"
        },
        {
          "components": [
            {
              "internalType": "bytes",
              "name": "nextKey",
              "type": "bytes"
            },
            {
              "internalType": "uint64",
              "name": "total",
              "type": "uint64"
            }
          ],
          "internalType": "struct PageResponse",
          "name": "pageResponse",
          "type": "tuple"
        }
      ],
      "stateMutability": "view",
      "type": "function"
    },
    {
      "inputs": [
        {
          "internalType": "string",
          "name": "sourcePort",
          "type": "string"
        },
        {
          "internalType": "string",
          "name": "sourceChannel",
          "type": "string"
        },
        {
          "internalType": "string",
          "name": "denom",
          "type": "string"
        },
        {
          "internalType": "uint256",
          "name": "amount",
          "type": "uint256"
        }
      ],
      "name": "testIncreaseAllowance",
      "outputs": [],
      "stateMutability": "nonpayable",
      "type": "function"
    },
    {
      "inputs": [],
      "name": "testRevoke",
      "outputs": [],
      "stateMutability": "nonpayable",
      "type": "function"
    },
    {
      "inputs": [
        {
          "internalType": "string",
          "name": "sourcePort",
          "type": "string"
        },
        {
          "internalType": "string",
          "name": "sourceChannel",
          "type": "string"
        },
        {
          "internalType": "string",
          "name": "denom",
          "type": "string"
        },
        {
          "internalType": "uint256",
          "name": "amount",
          "type": "uint256"
        },
        {
          "internalType": "string",
          "name": "receiver",
          "type": "string"
        },
        {
          "components": [
            {
              "internalType": "uint64",
              "name": "revisionNumber",
              "type": "uint64"
            },
            {
              "internalType": "uint64",
              "name": "revisionHeight",
              "type": "uint64"
            }
          ],
          "internalType": "struct Height",
          "name": "timeoutHeight",
          "type": "tuple"
        },
        {
          "internalType": "uint64",
          "name": "timeoutTimestamp",
          "type": "uint64"
        },
        {
          "internalType": "string",
          "name": "memo",
          "type": "string"
        }
      ],
      "name": "testTransferContractFunds",
      "outputs": [
        {
          "internalType": "uint64",
          "name": "nextSequence",
          "type": "uint64"
        }
      ],
      "stateMutability": "nonpayable",
      "type": "function"
    },
    {
      "inputs": [
        {
          "internalType": "string",
          "name": "sourcePort",
          "type": "string"
        },
        {
          "internalType": "string",
          "name": "sourceChannel",
          "type": "string"
        },
        {
          "internalType": "string",
          "name": "denom",
          "type": "string"
        },
        {
          "internalType": "uint256",
          "name": "amount",
          "type": "uint256"
        },
        {
          "internalType": "string",
          "name": "receiver",
          "type": "string"
        },
        {
          "components": [
            {
              "internalType": "uint64",
              "name": "revisionNumber",
              "type": "uint64"
            },
            {
              "internalType": "uint64",
              "name": "revisionHeight",
              "type": "uint64"
            }
          ],
          "internalType": "struct Height",
          "name": "timeoutHeight",
          "type": "tuple"
        },
        {
          "internalType": "uint64",
          "name": "timeoutTimestamp",
          "type": "uint64"
        },
        {
          "internalType": "string",
          "name": "memo",
          "type": "string"
        }
      ],
      "name": "testTransferUserFunds",
      "outputs": [
        {
          "internalType": "uint64",
          "name": "nextSequence",
          "type": "uint64"
        }
      ],
      "stateMutability": "nonpayable",
      "type": "function"
    }
  ],
  "bytecode": "0x608060405234801561001057600080fd5b5061294e806100206000396000f3fe608060405234801561001057600080fd5b506004361061009e5760003560e01c8063a363df8411610066578063a363df8414610145578063c595699a14610175578063dfa10f39146101a5578063ee5766d9146101d6578063f298e7a8146102065761009e565b8063424af9f6146100a357806367b10abe146100bf5780636fdf23cc146100db5780637492bdd81461010b5780637a6185e11461013b575b600080fd5b6100bd60048036038101906100b891906109ca565b610222565b005b6100d960048036038101906100d49190610ae9565b6102fc565b005b6100f560048036038101906100f09190610d11565b6103c7565b6040516101029190610e63565b60405180910390f35b61012560048036038101906101209190610d11565b610465565b6040516101329190610e63565b60405180910390f35b610143610503565b005b61015f600480360381019061015a9190610edc565b6105c8565b60405161016c91906112a5565b60405180910390f35b61018f600480360381019061018a91906112c7565b610655565b60405161019c919061135a565b60405180910390f35b6101bf60048036038101906101ba91906113a0565b6106df565b6040516101cd929190611590565b60405180910390f35b6101f060048036038101906101eb91906112c7565b610773565b6040516101fd919061160b565b60405180910390f35b610220600480360381019061021b91906109ca565b610803565b005b600061080273ffffffffffffffffffffffffffffffffffffffff166354de647b308a8a8a8a8a8a8a6040518963ffffffff1660e01b815260040161026d989796959493929190611678565b6020604051808303816000875af115801561028c573d6000803e3d6000fd5b505050506040513d601f19601f820116820180604052508101906102b0919061171e565b9050806102f2576040517f08c379a00000000000000000000000000000000000000000000000000000000081526004016102e990611797565b60405180910390fd5b5050505050505050565b600061080273ffffffffffffffffffffffffffffffffffffffff1663e3fee9273085856040518463ffffffff1660e01b815260040161033d93929190611c53565b6020604051808303816000875af115801561035c573d6000803e3d6000fd5b505050506040513d601f19601f82011682018060405250810190610380919061171e565b9050806103c2576040517f08c379a00000000000000000000000000000000000000000000000000000000081526004016103b990611cd1565b60405180910390fd5b505050565b600061080273ffffffffffffffffffffffffffffffffffffffff1663632535b98a8a8a8a308b8b8b8b6040518a63ffffffff1660e01b815260040161041499989796959493929190611d20565b6020604051808303816000875af1158015610433573d6000803e3d6000fd5b505050506040513d601f19601f820116820180604052508101906104579190611de6565b905098975050505050505050565b600061080273ffffffffffffffffffffffffffffffffffffffff1663632535b98a8a8a8a338b8b8b8b6040518a63ffffffff1660e01b81526004016104b299989796959493929190611d20565b6020604051808303816000875af11580156104d1573d6000803e3d6000fd5b505050506040513d601f19601f820116820180604052508101906104f59190611de6565b905098975050505050505050565b600061080273ffffffffffffffffffffffffffffffffffffffff166374a8f103306040518263ffffffff1660e01b81526004016105409190611e13565b6020604051808303816000875af115801561055f573d6000803e3d6000fd5b505050506040513d601f19601f82011682018060405250810190610583919061171e565b9050806105c5576040517f08c379a00000000000000000000000000000000000000000000000000000000081526004016105bc90611e7a565b60405180910390fd5b50565b606061080273ffffffffffffffffffffffffffffffffffffffff1663dd62ed3e84846040518363ffffffff1660e01b8152600401610607929190611e9a565b600060405180830381865afa158015610624573d6000803e3d6000fd5b505050506040513d6000823e3d601f19601f8201168201806040525081019061064d919061233f565b905092915050565b606061080273ffffffffffffffffffffffffffffffffffffffff1663b5cb6e7d836040518263ffffffff1660e01b8152600401610692919061135a565b600060405180830381865afa1580156106af573d6000803e3d6000fd5b505050506040513d6000823e3d601f19601f820116820180604052508101906106d89190612388565b9050919050565b60606106e96108dd565b61080273ffffffffffffffffffffffffffffffffffffffff166322b6fad6846040518263ffffffff1660e01b81526004016107249190612553565b600060405180830381865afa158015610741573d6000803e3d6000fd5b505050506040513d6000823e3d601f19601f8201168201806040525081019061076a91906127eb565b91509150915091565b61077b610901565b61080273ffffffffffffffffffffffffffffffffffffffff1663a815cdd9836040518263ffffffff1660e01b81526004016107b6919061135a565b600060405180830381865afa1580156107d3573d6000803e3d6000fd5b505050506040513d6000823e3d601f19601f820116820180604052508101906107fc9190612863565b9050919050565b600061080273ffffffffffffffffffffffffffffffffffffffff1663b3f536ec308a8a8a8a8a8a8a6040518963ffffffff1660e01b815260040161084e989796959493929190611678565b6020604051808303816000875af115801561086d573d6000803e3d6000fd5b505050506040513d601f19601f82011682018060405250810190610891919061171e565b9050806108d3576040517f08c379a00000000000000000000000000000000000000000000000000000000081526004016108ca906128f8565b60405180910390fd5b5050505050505050565b604051806040016040528060608152602001600067ffffffffffffffff1681525090565b604051806040016040528060608152602001606081525090565b6000604051905090565b600080fd5b600080fd5b600080fd5b600080fd5b600080fd5b60008083601f8401126109545761095361092f565b5b8235905067ffffffffffffffff81111561097157610970610934565b5b60208301915083600182028301111561098d5761098c610939565b5b9250929050565b6000819050919050565b6109a781610994565b81146109b257600080fd5b50565b6000813590506109c48161099e565b92915050565b60008060008060008060006080888a0312156109e9576109e8610925565b5b600088013567ffffffffffffffff811115610a0757610a0661092a565b5b610a138a828b0161093e565b9750975050602088013567ffffffffffffffff811115610a3657610a3561092a565b5b610a428a828b0161093e565b9550955050604088013567ffffffffffffffff811115610a6557610a6461092a565b5b610a718a828b0161093e565b93509350506060610a848a828b016109b5565b91505092959891949750929550565b60008083601f840112610aa957610aa861092f565b5b8235905067ffffffffffffffff811115610ac657610ac5610934565b5b602083019150836020820283011115610ae257610ae1610939565b5b9250929050565b60008060208385031215610b0057610aff610925565b5b600083013567ffffffffffffffff811115610b1e57610b1d61092a565b5b610b2a85828601610a93565b92509250509250929050565b600080fd5b6000601f19601f8301169050919050565b7f4e487b7100000000000000000000000000000000000000000000000000000000600052604160045260246000fd5b610b8482610b3b565b810181811067ffffffffffffffff82111715610ba357610ba2610b4c565b5b80604052505050565b6000610bb661091b565b9050610bc28282610b7b565b919050565b600067ffffffffffffffff821115610be257610be1610b4c565b5b610beb82610b3b565b9050602081019050919050565b82818337600083830152505050565b6000610c1a610c1584610bc7565b610bac565b905082815260208101848484011115610c3657610c35610b36565b5b610c41848285610bf8565b509392505050565b600082601f830112610c5e57610c5d61092f565b5b8135610c6e848260208601610c07565b91505092915050565b600080fd5b600080fd5b600067ffffffffffffffff82169050919050565b610c9e81610c81565b8114610ca957600080fd5b50565b600081359050610cbb81610c95565b92915050565b600060408284031215610cd757610cd6610c77565b5b610ce16040610bac565b90506000610cf184828501610cac565b6000830152506020610d0584828501610cac565b60208301525092915050565b600080600080600080600080610120898b031215610d3257610d31610925565b5b600089013567ffffffffffffffff811115610d5057610d4f61092a565b5b610d5c8b828c01610c49565b985050602089013567ffffffffffffffff811115610d7d57610d7c61092a565b5b610d898b828c01610c49565b975050604089013567ffffffffffffffff811115610daa57610da961092a565b5b610db68b828c01610c49565b9650506060610dc78b828c016109b5565b955050608089013567ffffffffffffffff811115610de857610de761092a565b5b610df48b828c01610c49565b94505060a0610e058b828c01610cc1565b93505060e0610e168b828c01610cac565b92505061010089013567ffffffffffffffff811115610e3857610e3761092a565b5b610e448b828c01610c49565b9150509295985092959890939650565b610e5d81610c81565b82525050565b6000602082019050610e786000830184610e54565b92915050565b600073ffffffffffffffffffffffffffffffffffffffff82169050919050565b6000610ea982610e7e565b9050919050565b610eb981610e9e565b8114610ec457600080fd5b50565b600081359050610ed681610eb0565b92915050565b60008060408385031215610ef357610ef2610925565b5b6000610f0185828601610ec7565b9250506020610f1285828601610ec7565b9150509250929050565b600081519050919050565b600082825260208201905092915050565b6000819050602082019050919050565b600081519050919050565b600082825260208201905092915050565b60005b83811015610f82578082015181840152602081019050610f67565b60008484015250505050565b6000610f9982610f48565b610fa38185610f53565b9350610fb3818560208601610f64565b610fbc81610b3b565b840191505092915050565b600081519050919050565b600082825260208201905092915050565b6000819050602082019050919050565b610ffc81610994565b82525050565b6000604083016000830151848203600086015261101f8282610f8e565b91505060208301516110346020860182610ff3565b508091505092915050565b600061104b8383611002565b905092915050565b6000602082019050919050565b600061106b82610fc7565b6110758185610fd2565b93508360208202850161108785610fe3565b8060005b858110156110c357848403895281516110a4858261103f565b94506110af83611053565b925060208a0199505060018101905061108b565b50829750879550505050505092915050565b600081519050919050565b600082825260208201905092915050565b6000819050602082019050919050565b600061110d8383610f8e565b905092915050565b6000602082019050919050565b600061112d826110d5565b61113781856110e0565b935083602082028501611149856110f1565b8060005b8581101561118557848403895281516111668582611101565b945061117183611115565b925060208a0199505060018101905061114d565b50829750879550505050505092915050565b600060808301600083015184820360008601526111b48282610f8e565b915050602083015184820360208601526111ce8282610f8e565b915050604083015184820360408601526111e88282611060565b915050606083015184820360608601526112028282611122565b9150508091505092915050565b600061121b8383611197565b905092915050565b6000602082019050919050565b600061123b82610f1c565b6112458185610f27565b93508360208202850161125785610f38565b8060005b858110156112935784840389528151611274858261120f565b945061127f83611223565b925060208a0199505060018101905061125b565b50829750879550505050505092915050565b600060208201905081810360008301526112bf8184611230565b905092915050565b6000602082840312156112dd576112dc610925565b5b600082013567ffffffffffffffff8111156112fb576112fa61092a565b5b61130784828501610c49565b91505092915050565b600082825260208201905092915050565b600061132c82610f48565b6113368185611310565b9350611346818560208601610f64565b61134f81610b3b565b840191505092915050565b600060208201905081810360008301526113748184611321565b905092915050565b600080fd5b600060a082840312156113975761139661137c565b5b81905092915050565b6000602082840312156113b6576113b5610925565b5b600082013567ffffffffffffffff8111156113d4576113d361092a565b5b6113e084828501611381565b91505092915050565b600081519050919050565b600082825260208201905092915050565b6000819050602082019050919050565b600060408301600083015184820360008601526114328282610f8e565b9150506020830151848203602086015261144c8282610f8e565b9150508091505092915050565b60006114658383611415565b905092915050565b6000602082019050919050565b6000611485826113e9565b61148f81856113f4565b9350836020820285016114a185611405565b8060005b858110156114dd57848403895281516114be8582611459565b94506114c98361146d565b925060208a019950506001810190506114a5565b50829750879550505050505092915050565b600081519050919050565b600082825260208201905092915050565b6000611516826114ef565b61152081856114fa565b9350611530818560208601610f64565b61153981610b3b565b840191505092915050565b61154d81610c81565b82525050565b60006040830160008301518482036000860152611570828261150b565b91505060208301516115856020860182611544565b508091505092915050565b600060408201905081810360008301526115aa818561147a565b905081810360208301526115be8184611553565b90509392505050565b600060408301600083015184820360008601526115e48282610f8e565b915050602083015184820360208601526115fe8282610f8e565b9150508091505092915050565b6000602082019050818103600083015261162581846115c7565b905092915050565b61163681610e9e565b82525050565b60006116488385611310565b9350611655838584610bf8565b61165e83610b3b565b840190509392505050565b61167281610994565b82525050565b600060a08201905061168d600083018b61162d565b81810360208301526116a081898b61163c565b905081810360408301526116b581878961163c565b905081810360608301526116ca81858761163c565b90506116d96080830184611669565b9998505050505050505050565b60008115159050919050565b6116fb816116e6565b811461170657600080fd5b50565b600081519050611718816116f2565b92915050565b60006020828403121561173457611733610925565b5b600061174284828501611709565b91505092915050565b7f4661696c656420746f20696e63726561736520616c6c6f77616e636500000000600082015250565b6000611781601c83611310565b915061178c8261174b565b602082019050919050565b600060208201905081810360008301526117b081611774565b9050919050565b6000819050919050565b600080fd5b600080fd5b600080fd5b600080833560016020038436030381126117ed576117ec6117cb565b5b83810192508235915060208301925067ffffffffffffffff821115611815576118146117c1565b5b60018202360383131561182b5761182a6117c6565b5b509250929050565b600061183f8385610f53565b935061184c838584610bf8565b61185583610b3b565b840190509392505050565b6000808335600160200384360303811261187d5761187c6117cb565b5b83810192508235915060208301925067ffffffffffffffff8211156118a5576118a46117c1565b5b6020820236038313156118bb576118ba6117c6565b5b509250929050565b6000819050919050565b60006118dc60208401846109b5565b905092915050565b6000604083016118f760008401846117d0565b858303600087015261190a838284611833565b9250505061191b60208401846118cd565b6119286020860182610ff3565b508091505092915050565b600061193f83836118e4565b905092915050565b600082356001604003833603038112611963576119626117cb565b5b82810191505092915050565b6000602082019050919050565b60006119888385610fd2565b93508360208402850161199a846118c3565b8060005b878110156119de5784840389526119b58284611947565b6119bf8582611933565b94506119ca8361196f565b925060208a0199505060018101905061199e565b50829750879450505050509392505050565b60008083356001602003843603038112611a0d57611a0c6117cb565b5b83810192508235915060208301925067ffffffffffffffff821115611a3557611a346117c1565b5b602082023603831315611a4b57611a4a6117c6565b5b509250929050565b6000819050919050565b6000611a6a848484611833565b90509392505050565b6000602082019050919050565b6000611a8c83856110e0565b935083602084028501611a9e84611a53565b8060005b87811015611ae4578484038952611ab982846117d0565b611ac4868284611a5d565b9550611acf84611a73565b935060208b019a505050600181019050611aa2565b50829750879450505050509392505050565b600060808301611b0960008401846117d0565b8583036000870152611b1c838284611833565b92505050611b2d60208401846117d0565b8583036020870152611b40838284611833565b92505050611b516040840184611860565b8583036040870152611b6483828461197c565b92505050611b7560608401846119f0565b8583036060870152611b88838284611a80565b925050508091505092915050565b6000611ba28383611af6565b905092915050565b600082356001608003833603038112611bc657611bc56117cb565b5b82810191505092915050565b6000602082019050919050565b6000611beb8385610f27565b935083602084028501611bfd846117b7565b8060005b87811015611c41578484038952611c188284611baa565b611c228582611b96565b9450611c2d83611bd2565b925060208a01995050600181019050611c01565b50829750879450505050509392505050565b6000604082019050611c68600083018661162d565b8181036020830152611c7b818486611bdf565b9050949350505050565b7f4661696c656420746f20706572666f726d20617070726f76616c000000000000600082015250565b6000611cbb601a83611310565b9150611cc682611c85565b602082019050919050565b60006020820190508181036000830152611cea81611cae565b9050919050565b604082016000820151611d076000850182611544565b506020820151611d1a6020850182611544565b50505050565b6000610140820190508181036000830152611d3b818c611321565b90508181036020830152611d4f818b611321565b90508181036040830152611d63818a611321565b9050611d726060830189611669565b611d7f608083018861162d565b81810360a0830152611d918187611321565b9050611da060c0830186611cf1565b611dae610100830185610e54565b818103610120830152611dc18184611321565b90509a9950505050505050505050565b600081519050611de081610c95565b92915050565b600060208284031215611dfc57611dfb610925565b5b6000611e0a84828501611dd1565b91505092915050565b6000602082019050611e28600083018461162d565b92915050565b7f4661696c656420746f207265766f6b6520617070726f76616c00000000000000600082015250565b6000611e64601983611310565b9150611e6f82611e2e565b602082019050919050565b60006020820190508181036000830152611e9381611e57565b9050919050565b6000604082019050611eaf600083018561162d565b611ebc602083018461162d565b9392505050565b600067ffffffffffffffff821115611ede57611edd610b4c565b5b602082029050602081019050919050565b6000611f02611efd84610bc7565b610bac565b905082815260208101848484011115611f1e57611f1d610b36565b5b611f29848285610f64565b509392505050565b600082601f830112611f4657611f4561092f565b5b8151611f56848260208601611eef565b91505092915050565b600067ffffffffffffffff821115611f7a57611f79610b4c565b5b602082029050602081019050919050565b600081519050611f9a8161099e565b92915050565b600060408284031215611fb657611fb5610c77565b5b611fc06040610bac565b9050600082015167ffffffffffffffff811115611fe057611fdf610c7c565b5b611fec84828501611f31565b600083015250602061200084828501611f8b565b60208301525092915050565b600061201f61201a84611f5f565b610bac565b9050808382526020820190506020840283018581111561204257612041610939565b5b835b8181101561208957805167ffffffffffffffff8111156120675761206661092f565b5b8086016120748982611fa0565b85526020850194505050602081019050612044565b5050509392505050565b600082601f8301126120a8576120a761092f565b5b81516120b884826020860161200c565b91505092915050565b600067ffffffffffffffff8211156120dc576120db610b4c565b5b602082029050602081019050919050565b60006121006120fb846120c1565b610bac565b9050808382526020820190506020840283018581111561212357612122610939565b5b835b8181101561216a57805167ffffffffffffffff8111156121485761214761092f565b5b8086016121558982611f31565b85526020850194505050602081019050612125565b5050509392505050565b600082601f8301126121895761218861092f565b5b81516121998482602086016120ed565b91505092915050565b6000608082840312156121b8576121b7610c77565b5b6121c26080610bac565b9050600082015167ffffffffffffffff8111156121e2576121e1610c7c565b5b6121ee84828501611f31565b600083015250602082015167ffffffffffffffff81111561221257612211610c7c565b5b61221e84828501611f31565b602083015250604082015167ffffffffffffffff81111561224257612241610c7c565b5b61224e84828501612093565b604083015250606082015167ffffffffffffffff81111561227257612271610c7c565b5b61227e84828501612174565b60608301525092915050565b600061229d61229884611ec3565b610bac565b905080838252602082019050602084028301858111156122c0576122bf610939565b5b835b8181101561230757805167ffffffffffffffff8111156122e5576122e461092f565b5b8086016122f289826121a2565b855260208501945050506020810190506122c2565b5050509392505050565b600082601f8301126123265761232561092f565b5b815161233684826020860161228a565b91505092915050565b60006020828403121561235557612354610925565b5b600082015167ffffffffffffffff8111156123735761237261092a565b5b61237f84828501612311565b91505092915050565b60006020828403121561239e5761239d610925565b5b600082015167ffffffffffffffff8111156123bc576123bb61092a565b5b6123c884828501611f31565b91505092915050565b600080833560016020038436030381126123ee576123ed6117cb565b5b83810192508235915060208301925067ffffffffffffffff821115612416576124156117c1565b5b60018202360383131561242c5761242b6117c6565b5b509250929050565b600061244083856114fa565b935061244d838584610bf8565b61245683610b3b565b840190509392505050565b60006124706020840184610cac565b905092915050565b600081359050612487816116f2565b92915050565b600061249c6020840184612478565b905092915050565b6124ad816116e6565b82525050565b600060a083016124c660008401846123d1565b85830360008701526124d9838284612434565b925050506124ea6020840184612461565b6124f76020860182611544565b506125056040840184612461565b6125126040860182611544565b50612520606084018461248d565b61252d60608601826124a4565b5061253b608084018461248d565b61254860808601826124a4565b508091505092915050565b6000602082019050818103600083015261256d81846124b3565b905092915050565b600067ffffffffffffffff8211156125905761258f610b4c565b5b602082029050602081019050919050565b6000604082840312156125b7576125b6610c77565b5b6125c16040610bac565b9050600082015167ffffffffffffffff8111156125e1576125e0610c7c565b5b6125ed84828501611f31565b600083015250602082015167ffffffffffffffff81111561261157612610610c7c565b5b61261d84828501611f31565b60208301525092915050565b600061263c61263784612575565b610bac565b9050808382526020820190506020840283018581111561265f5761265e610939565b5b835b818110156126a657805167ffffffffffffffff8111156126845761268361092f565b5b80860161269189826125a1565b85526020850194505050602081019050612661565b5050509392505050565b600082601f8301126126c5576126c461092f565b5b81516126d5848260208601612629565b91505092915050565b600067ffffffffffffffff8211156126f9576126f8610b4c565b5b61270282610b3b565b9050602081019050919050565b600061272261271d846126de565b610bac565b90508281526020810184848401111561273e5761273d610b36565b5b612749848285610f64565b509392505050565b600082601f8301126127665761276561092f565b5b815161277684826020860161270f565b91505092915050565b60006040828403121561279557612794610c77565b5b61279f6040610bac565b9050600082015167ffffffffffffffff8111156127bf576127be610c7c565b5b6127cb84828501612751565b60008301525060206127df84828501611dd1565b60208301525092915050565b6000806040838503121561280257612801610925565b5b600083015167ffffffffffffffff8111156128205761281f61092a565b5b61282c858286016126b0565b925050602083015167ffffffffffffffff81111561284d5761284c61092a565b5b6128598582860161277f565b9150509250929050565b60006020828403121561287957612878610925565b5b600082015167ffffffffffffffff8111156128975761289661092a565b5b6128a3848285016125a1565b91505092915050565b7f4661696c656420746f20646563726561736520616c6c6f77616e636500000000600082015250565b60006128e2601c83611310565b91506128ed826128ac565b602082019050919050565b60006020820190508181036000830152612911816128d5565b905091905056fea26469706673582212207ab56f70e9096bd8ce811007f83333b057542914c55d2c5dd45b422f3a0b397064736f6c63430008130033",
  "linkReferences": {},
  "deployedLinkReferences": {}
}