{
  "_format": "hh-sol-artifact-1",
  "contractName": "Reverter",
  "sourceName": "solidity/precompiles/testutil/contracts/Reverter.sol",
  "abi": [
    {
      "inputs": [],
      "stateMutability": "payable",
      "type": "constructor"
    },
    {
      "inputs": [],
      "name": "run",
      "outputs": [],
      "stateMutability": "nonpayable",
      "type": "function"
    },
    {
      "inputs": [
        {
          "internalType": "bytes32",
          "name": "salt",
          "type": "bytes32"
        },
        {
          "internalType": "uint256",
          "name": "v",
          "type": "uint256"
        }
      ],
      "name": "transferFunds",
      "outputs": [],
      "stateMutability": "nonpayable",
      "type": "function"
    },
    {
      "stateMutability": "payable",
      "type": "receive"
    }
  ],
  "bytecode": "0x608060405260008055610c17806100176000396000f3fe60806040526004361061002d5760003560e01c806379388e9414610039578063c04062261461006257610034565b3661003457005b600080fd5b34801561004557600080fd5b50610060600480360381019061005b9190610360565b610079565b005b34801561006e57600080fd5b50610077610131565b005b808290604051610088906102d4565b82906040518091039083f590509050801580156100a9573d6000803e3d6000fd5b505061080173ffffffffffffffffffffffffffffffffffffffff166354be1a28306040518263ffffffff1660e01b81526004016100e691906103e1565b600060405180830381865afa158015610103573d6000803e3d6000fd5b505050506040513d6000823e3d601f19601f8201168201806040525081019061012c9190610884565b600080fd5b6000808154809291906101439061092b565b91905055503073ffffffffffffffffffffffffffffffffffffffff166379388e9460005460001b476040518363ffffffff1660e01b8152600401610188929190610991565b600060405180830381600087803b1580156101a257600080fd5b505af19250505080156101b3575060015b61022f5760006101c760005460001b610249565b90508073ffffffffffffffffffffffffffffffffffffffff16633ccfd60b6040518163ffffffff1660e01b8152600401600060405180830381600087803b15801561021157600080fd5b505af1158015610225573d6000803e3d6000fd5b5050505050610230565b5b6000808154809291906102429061092b565b9190505550565b60008060ff60f81b308460405180602001610263906102d4565b6020820181038252601f19601f820116604052506040516020016102879190610a01565b604051602081830303815290604052805190602001206040516020016102b09493929190610ace565b6040516020818303038152906040528051906020012060001c905080915050919050565b60c580610b1d83390190565b6000604051905090565b600080fd5b600080fd5b6000819050919050565b610307816102f4565b811461031257600080fd5b50565b600081359050610324816102fe565b92915050565b6000819050919050565b61033d8161032a565b811461034857600080fd5b50565b60008135905061035a81610334565b92915050565b60008060408385031215610377576103766102ea565b5b600061038585828601610315565b92505060206103968582860161034b565b9150509250929050565b600073ffffffffffffffffffffffffffffffffffffffff82169050919050565b60006103cb826103a0565b9050919050565b6103db816103c0565b82525050565b60006020820190506103f660008301846103d2565b92915050565b600080fd5b6000601f19601f8301169050919050565b7f4e487b7100000000000000000000000000000000000000000000000000000000600052604160045260246000fd5b61044a82610401565b810181811067ffffffffffffffff8211171561046957610468610412565b5b80604052505050565b600061047c6102e0565b90506104888282610441565b919050565b600067ffffffffffffffff8211156104a8576104a7610412565b5b602082029050602081019050919050565b600080fd5b600080fd5b600080fd5b600080fd5b600067ffffffffffffffff8211156104e8576104e7610412565b5b6104f182610401565b9050602081019050919050565b60005b8381101561051c578082015181840152602081019050610501565b60008484015250505050565b600061053b610536846104cd565b610472565b905082815260208101848484011115610557576105566104c8565b5b6105628482856104fe565b509392505050565b600082601f83011261057f5761057e6103fc565b5b815161058f848260208601610528565b91505092915050565b600067ffffffffffffffff8211156105b3576105b2610412565b5b602082029050602081019050919050565b6000815190506105d381610334565b92915050565b600060ff82169050919050565b6105ef816105d9565b81146105fa57600080fd5b50565b60008151905061060c816105e6565b92915050565b600060608284031215610628576106276104be565b5b6106326060610472565b9050600082015167ffffffffffffffff811115610652576106516104c3565b5b61065e8482850161056a565b6000830152506020610672848285016105c4565b6020830152506040610686848285016105fd565b60408301525092915050565b60006106a56106a084610598565b610472565b905080838252602082019050602084028301858111156106c8576106c76104b9565b5b835b8181101561070f57805167ffffffffffffffff8111156106ed576106ec6103fc565b5b8086016106fa8982610612565b855260208501945050506020810190506106ca565b5050509392505050565b600082601f83011261072e5761072d6103fc565b5b815161073e848260208601610692565b91505092915050565b60006040828403121561075d5761075c6104be565b5b6107676040610472565b9050600082015167ffffffffffffffff811115610787576107866104c3565b5b6107938482850161056a565b600083015250602082015167ffffffffffffffff8111156107b7576107b66104c3565b5b6107c384828501610719565b60208301525092915050565b60006107e26107dd8461048d565b610472565b90508083825260208201905060208402830185811115610805576108046104b9565b5b835b8181101561084c57805167ffffffffffffffff81111561082a576108296103fc565b5b8086016108378982610747565b85526020850194505050602081019050610807565b5050509392505050565b600082601f83011261086b5761086a6103fc565b5b815161087b8482602086016107cf565b91505092915050565b6000806040838503121561089b5761089a6102ea565b5b600083015167ffffffffffffffff8111156108b9576108b86102ef565b5b6108c585828601610856565b925050602083015167ffffffffffffffff8111156108e6576108e56102ef565b5b6108f285828601610719565b9150509250929050565b7f4e487b7100000000000000000000000000000000000000000000000000000000600052601160045260246000fd5b60006109368261032a565b91507fffffffffffffffffffffffffffffffffffffffffffffffffffffffffffffffff8203610968576109676108fc565b5b600182019050919050565b61097c816102f4565b82525050565b61098b8161032a565b82525050565b60006040820190506109a66000830185610973565b6109b36020830184610982565b9392505050565b600081519050919050565b600081905092915050565b60006109db826109ba565b6109e581856109c5565b93506109f58185602086016104fe565b80840191505092915050565b6000610a0d82846109d0565b915081905092915050565b60007fff0000000000000000000000000000000000000000000000000000000000000082169050919050565b6000819050919050565b610a5f610a5a82610a18565b610a44565b82525050565b60008160601b9050919050565b6000610a7d82610a65565b9050919050565b6000610a8f82610a72565b9050919050565b610aa7610aa2826103c0565b610a84565b82525050565b6000819050919050565b610ac8610ac3826102f4565b610aad565b82525050565b6000610ada8287610a4e565b600182019150610aea8286610a96565b601482019150610afa8285610ab7565b602082019150610b0a8284610ab7565b6020820191508190509594505050505056fe608060405260b3806100126000396000f3fe6080604052348015600f57600080fd5b506004361060285760003560e01c80633ccfd60b14602d575b600080fd5b60336035565b005b3373ffffffffffffffffffffffffffffffffffffffff166108fc479081150290604051600060405180830381858888f19350505050158015607a573d6000803e3d6000fd5b5056fea26469706673582212208482f02feff8e2ffa47dea3b6d200c026f496abf8829ad76a2302f53a190264064736f6c63430008140033a2646970667358221220d1d6abbe99a0323bea0f24ca72a995f7b732ef455ccf21b5919d55a3269e9c0164736f6c63430008140033",
  "linkReferences": {},
  "deployedLinkReferences": {}
}