{
  "_format": "hh-sol-artifact-1",
  "contractName": "StakingReverter",
  "sourceName": "solidity/precompiles/testutil/contracts/StakingReverter.sol",
  "abi": [
    {
      "inputs": [],
      "stateMutability": "payable",
      "type": "constructor"
    },
    {
      "inputs": [
        {
          "internalType": "string",
          "name": "validatorAddress",
          "type": "string"
        }
      ],
      "name": "getCurrentStake",
      "outputs": [
        {
          "internalType": "uint256",
          "name": "shares",
          "type": "uint256"
        },
        {
          "components": [
            {
              "internalType": "string",
              "name": "denom",
              "type": "string"
            },
            {
              "internalType": "uint256",
              "name": "amount",
              "type": "uint256"
            }
          ],
          "internalType": "struct Coin",
          "name": "balance",
          "type": "tuple"
        }
      ],
      "stateMutability": "view",
      "type": "function"
    },
    {
      "inputs": [
        {
          "internalType": "uint256",
          "name": "numTimes",
          "type": "uint256"
        },
        {
          "internalType": "string",
          "name": "validatorAddress",
          "type": "string"
        }
      ],
      "name": "multipleDelegations",
      "outputs": [],
      "stateMutability": "nonpayable",
      "type": "function"
    },
    {
      "inputs": [
        {
          "internalType": "uint256",
          "name": "numTimes",
          "type": "uint256"
        },
        {
          "internalType": "address",
          "name": "validatorAddress",
          "type": "address"
        }
      ],
      "name": "multipleQueries",
      "outputs": [
        {
          "components": [
            {
              "internalType": "string",
              "name": "operatorAddress",
              "type": "string"
            },
            {
              "internalType": "string",
              "name": "consensusPubkey",
              "type": "string"
            },
            {
              "internalType": "bool",
              "name": "jailed",
              "type": "bool"
            },
            {
              "internalType": "enum BondStatus",
              "name": "status",
              "type": "uint8"
            },
            {
              "internalType": "uint256",
              "name": "tokens",
              "type": "uint256"
            },
            {
              "internalType": "uint256",
              "name": "delegatorShares",
              "type": "uint256"
            },
            {
              "internalType": "string",
              "name": "description",
              "type": "string"
            },
            {
              "internalType": "int64",
              "name": "unbondingHeight",
              "type": "int64"
            },
            {
              "internalType": "int64",
              "name": "unbondingTime",
              "type": "int64"
            },
            {
              "internalType": "uint256",
              "name": "commission",
              "type": "uint256"
            },
            {
              "internalType": "uint256",
              "name": "minSelfDelegation",
              "type": "uint256"
            }
          ],
          "internalType": "struct Validator",
          "name": "validator",
          "type": "tuple"
        }
      ],
      "stateMutability": "view",
      "type": "function"
    },
    {
      "inputs": [
        {
          "internalType": "string",
          "name": "validatorAddress",
          "type": "string"
        }
      ],
      "name": "performDelegation",
      "outputs": [],
      "stateMutability": "nonpayable",
      "type": "function"
    },
    {
      "inputs": [
        {
          "internalType": "uint256",
          "name": "numTimes",
          "type": "uint256"
        },
        {
          "internalType": "string",
          "name": "validatorAddress",
          "type": "string"
        }
      ],
      "name": "run",
      "outputs": [],
      "stateMutability": "nonpayable",
      "type": "function"
    }
  ],
  "bytecode": "0x608060405260008055610ff9806100176000396000f3fe608060405234801561001057600080fd5b50600436106100575760003560e01c80634e5a8fe51461005c57806352fce7b114610078578063668f452b14610094578063cbc367d4146100c5578063f66013d7146100f5575b600080fd5b6100766004803603810190610071919061056c565b610111565b005b610092600480360381019061008d919061056c565b6101b3565b005b6100ae60048036038101906100a991906105cc565b61025b565b6040516100bc929190610704565b60405180910390f35b6100df60048036038101906100da9190610792565b6102f5565b6040516100ec919061097d565b60405180910390f35b61010f600480360381019061010a91906105cc565b6103a5565b005b600080815480929190610123906109ce565b919050555060005b838110156101ad573073ffffffffffffffffffffffffffffffffffffffff1663f66013d784846040518363ffffffff1660e01b815260040161016e929190610a63565b600060405180830381600087803b15801561018857600080fd5b505af1925050508015610199575060015b5080806101a5906109ce565b91505061012b565b50505050565b6000808154809291906101c5906109ce565b919050555060005b83811015610255573073ffffffffffffffffffffffffffffffffffffffff1663f66013d784846040518363ffffffff1660e01b8152600401610210929190610a63565b600060405180830381600087803b15801561022a57600080fd5b505af115801561023e573d6000803e3d6000fd5b50505050808061024d906109ce565b9150506101cd565b50505050565b600061026561042f565b61080073ffffffffffffffffffffffffffffffffffffffff1663241774e63086866040518463ffffffff1660e01b81526004016102a493929190610a96565b600060405180830381865afa1580156102c1573d6000803e3d6000fd5b505050506040513d6000823e3d601f19601f820116820180604052508101906102ea9190610c74565b915091509250929050565b6102fd610449565b60005b8381101561039e5761080073ffffffffffffffffffffffffffffffffffffffff1663223b3b7a846040518263ffffffff1660e01b81526004016103439190610cd0565b600060405180830381865afa158015610360573d6000803e3d6000fd5b505050506040513d6000823e3d601f19601f820116820180604052508101906103899190610ec8565b91508080610396906109ce565b915050610300565b5092915050565b61080073ffffffffffffffffffffffffffffffffffffffff166353266bbb308484600a6040518563ffffffff1660e01b81526004016103e79493929190610f56565b6020604051808303816000875af1158015610406573d6000803e3d6000fd5b505050506040513d601f19601f8201168201806040525081019061042a9190610f96565b600080fd5b604051806040016040528060608152602001600081525090565b6040518061016001604052806060815260200160608152602001600015158152602001600060038111156104805761047f6107ed565b5b8152602001600081526020016000815260200160608152602001600060070b8152602001600060070b815260200160008152602001600081525090565b6000604051905090565b600080fd5b600080fd5b6000819050919050565b6104e4816104d1565b81146104ef57600080fd5b50565b600081359050610501816104db565b92915050565b600080fd5b600080fd5b600080fd5b60008083601f84011261052c5761052b610507565b5b8235905067ffffffffffffffff8111156105495761054861050c565b5b60208301915083600182028301111561056557610564610511565b5b9250929050565b600080600060408486031215610585576105846104c7565b5b6000610593868287016104f2565b935050602084013567ffffffffffffffff8111156105b4576105b36104cc565b5b6105c086828701610516565b92509250509250925092565b600080602083850312156105e3576105e26104c7565b5b600083013567ffffffffffffffff811115610601576106006104cc565b5b61060d85828601610516565b92509250509250929050565b610622816104d1565b82525050565b600081519050919050565b600082825260208201905092915050565b60005b83811015610662578082015181840152602081019050610647565b60008484015250505050565b6000601f19601f8301169050919050565b600061068a82610628565b6106948185610633565b93506106a4818560208601610644565b6106ad8161066e565b840191505092915050565b6106c1816104d1565b82525050565b600060408301600083015184820360008601526106e4828261067f565b91505060208301516106f960208601826106b8565b508091505092915050565b60006040820190506107196000830185610619565b818103602083015261072b81846106c7565b90509392505050565b600073ffffffffffffffffffffffffffffffffffffffff82169050919050565b600061075f82610734565b9050919050565b61076f81610754565b811461077a57600080fd5b50565b60008135905061078c81610766565b92915050565b600080604083850312156107a9576107a86104c7565b5b60006107b7858286016104f2565b92505060206107c88582860161077d565b9150509250929050565b60008115159050919050565b6107e7816107d2565b82525050565b7f4e487b7100000000000000000000000000000000000000000000000000000000600052602160045260246000fd5b6004811061082d5761082c6107ed565b5b50565b600081905061083e8261081c565b919050565b600061084e82610830565b9050919050565b61085e81610843565b82525050565b60008160070b9050919050565b61087a81610864565b82525050565b600061016083016000830151848203600086015261089e828261067f565b915050602083015184820360208601526108b8828261067f565b91505060408301516108cd60408601826107de565b5060608301516108e06060860182610855565b5060808301516108f360808601826106b8565b5060a083015161090660a08601826106b8565b5060c083015184820360c086015261091e828261067f565b91505060e083015161093360e0860182610871565b50610100830151610948610100860182610871565b5061012083015161095d6101208601826106b8565b506101408301516109726101408601826106b8565b508091505092915050565b600060208201905081810360008301526109978184610880565b905092915050565b7f4e487b7100000000000000000000000000000000000000000000000000000000600052601160045260246000fd5b60006109d9826104d1565b91507fffffffffffffffffffffffffffffffffffffffffffffffffffffffffffffffff8203610a0b57610a0a61099f565b5b600182019050919050565b600082825260208201905092915050565b82818337600083830152505050565b6000610a428385610a16565b9350610a4f838584610a27565b610a588361066e565b840190509392505050565b60006020820190508181036000830152610a7e818486610a36565b90509392505050565b610a9081610754565b82525050565b6000604082019050610aab6000830186610a87565b8181036020830152610abe818486610a36565b9050949350505050565b600081519050610ad7816104db565b92915050565b600080fd5b7f4e487b7100000000000000000000000000000000000000000000000000000000600052604160045260246000fd5b610b1a8261066e565b810181811067ffffffffffffffff82111715610b3957610b38610ae2565b5b80604052505050565b6000610b4c6104bd565b9050610b588282610b11565b919050565b600080fd5b600080fd5b600067ffffffffffffffff821115610b8257610b81610ae2565b5b610b8b8261066e565b9050602081019050919050565b6000610bab610ba684610b67565b610b42565b905082815260208101848484011115610bc757610bc6610b62565b5b610bd2848285610644565b509392505050565b600082601f830112610bef57610bee610507565b5b8151610bff848260208601610b98565b91505092915050565b600060408284031215610c1e57610c1d610add565b5b610c286040610b42565b9050600082015167ffffffffffffffff811115610c4857610c47610b5d565b5b610c5484828501610bda565b6000830152506020610c6884828501610ac8565b60208301525092915050565b60008060408385031215610c8b57610c8a6104c7565b5b6000610c9985828601610ac8565b925050602083015167ffffffffffffffff811115610cba57610cb96104cc565b5b610cc685828601610c08565b9150509250929050565b6000602082019050610ce56000830184610a87565b92915050565b610cf4816107d2565b8114610cff57600080fd5b50565b600081519050610d1181610ceb565b92915050565b60048110610d2457600080fd5b50565b600081519050610d3681610d17565b92915050565b610d4581610864565b8114610d5057600080fd5b50565b600081519050610d6281610d3c565b92915050565b60006101608284031215610d7f57610d7e610add565b5b610d8a610160610b42565b9050600082015167ffffffffffffffff811115610daa57610da9610b5d565b5b610db684828501610bda565b600083015250602082015167ffffffffffffffff811115610dda57610dd9610b5d565b5b610de684828501610bda565b6020830152506040610dfa84828501610d02565b6040830152506060610e0e84828501610d27565b6060830152506080610e2284828501610ac8565b60808301525060a0610e3684828501610ac8565b60a08301525060c082015167ffffffffffffffff811115610e5a57610e59610b5d565b5b610e6684828501610bda565b60c08301525060e0610e7a84828501610d53565b60e083015250610100610e8f84828501610d53565b61010083015250610120610ea584828501610ac8565b61012083015250610140610ebb84828501610ac8565b6101408301525092915050565b600060208284031215610ede57610edd6104c7565b5b600082015167ffffffffffffffff811115610efc57610efb6104cc565b5b610f0884828501610d68565b91505092915050565b6000819050919050565b6000819050919050565b6000610f40610f3b610f3684610f11565b610f1b565b6104d1565b9050919050565b610f5081610f25565b82525050565b6000606082019050610f6b6000830187610a87565b8181036020830152610f7e818587610a36565b9050610f8d6040830184610f47565b95945050505050565b600060208284031215610fac57610fab6104c7565b5b6000610fba84828501610d02565b9150509291505056fea2646970667358221220588ffe1d04caf5effcfd414b24c8b1f8bfc6ac9f568994c1afa3f7cb5e6710f164736f6c63430008140033",
  "linkReferences": {},
  "deployedLinkReferences": {}
}