{
  "_format": "hh-sol-artifact-1",
  "contractName": "StakingReverter",
  "sourceName": "solidity/precompiles/testutil/contracts/StakingReverter.sol",
  "abi": [
    {
      "inputs": [],
      "stateMutability": "payable",
      "type": "constructor"
    },
    {
      "inputs": [
        {
          "internalType": "string",
          "name": "validatorAddress",
          "type": "string"
        }
      ],
      "name": "getCurrentStake",
      "outputs": [
        {
          "internalType": "uint256",
          "name": "shares",
          "type": "uint256"
        },
        {
          "components": [
            {
              "internalType": "string",
              "name": "denom",
              "type": "string"
            },
            {
              "internalType": "uint256",
              "name": "amount",
              "type": "uint256"
            }
          ],
          "internalType": "struct Coin",
          "name": "balance",
          "type": "tuple"
        }
      ],
      "stateMutability": "view",
      "type": "function"
    },
    {
      "inputs": [
        {
          "internalType": "uint256",
          "name": "numTimes",
          "type": "uint256"
        },
        {
          "internalType": "address",
          "name": "validatorAddress",
          "type": "address"
        }
      ],
      "name": "multipleQueries",
      "outputs": [
        {
          "components": [
            {
              "internalType": "string",
              "name": "operatorAddress",
              "type": "string"
            },
            {
              "internalType": "string",
              "name": "consensusPubkey",
              "type": "string"
            },
            {
              "internalType": "bool",
              "name": "jailed",
              "type": "bool"
            },
            {
              "internalType": "enum BondStatus",
              "name": "status",
              "type": "uint8"
            },
            {
              "internalType": "uint256",
              "name": "tokens",
              "type": "uint256"
            },
            {
              "internalType": "uint256",
              "name": "delegatorShares",
              "type": "uint256"
            },
            {
              "internalType": "string",
              "name": "description",
              "type": "string"
            },
            {
              "internalType": "int64",
              "name": "unbondingHeight",
              "type": "int64"
            },
            {
              "internalType": "int64",
              "name": "unbondingTime",
              "type": "int64"
            },
            {
              "internalType": "uint256",
              "name": "commission",
              "type": "uint256"
            },
            {
              "internalType": "uint256",
              "name": "minSelfDelegation",
              "type": "uint256"
            }
          ],
          "internalType": "struct Validator",
          "name": "validator",
          "type": "tuple"
        }
      ],
      "stateMutability": "view",
      "type": "function"
    },
    {
      "inputs": [
        {
          "internalType": "string",
          "name": "validatorAddress",
          "type": "string"
        }
      ],
      "name": "performDelegation",
      "outputs": [],
      "stateMutability": "nonpayable",
      "type": "function"
    },
    {
      "inputs": [
        {
          "internalType": "uint256",
          "name": "numTimes",
          "type": "uint256"
        },
        {
          "internalType": "string",
          "name": "validatorAddress",
          "type": "string"
        }
      ],
      "name": "run",
      "outputs": [],
      "stateMutability": "nonpayable",
      "type": "function"
    }
  ],
  "bytecode": "0x608060405260008055610f2a806100176000396000f3fe608060405234801561001057600080fd5b506004361061004c5760003560e01c80634e5a8fe514610051578063668f452b1461006d578063cbc367d41461009e578063f66013d7146100ce575b600080fd5b61006b6004803603810190610066919061049d565b6100ea565b005b610087600480360381019061008291906104fd565b61018c565b604051610095929190610635565b60405180910390f35b6100b860048036038101906100b391906106c3565b610226565b6040516100c591906108ae565b60405180910390f35b6100e860048036038101906100e391906104fd565b6102d6565b005b6000808154809291906100fc906108ff565b919050555060005b83811015610186573073ffffffffffffffffffffffffffffffffffffffff1663f66013d784846040518363ffffffff1660e01b8152600401610147929190610994565b600060405180830381600087803b15801561016157600080fd5b505af1925050508015610172575060015b50808061017e906108ff565b915050610104565b50505050565b6000610196610360565b61080073ffffffffffffffffffffffffffffffffffffffff1663241774e63086866040518463ffffffff1660e01b81526004016101d5939291906109c7565b600060405180830381865afa1580156101f2573d6000803e3d6000fd5b505050506040513d6000823e3d601f19601f8201168201806040525081019061021b9190610ba5565b915091509250929050565b61022e61037a565b60005b838110156102cf5761080073ffffffffffffffffffffffffffffffffffffffff1663223b3b7a846040518263ffffffff1660e01b81526004016102749190610c01565b600060405180830381865afa158015610291573d6000803e3d6000fd5b505050506040513d6000823e3d601f19601f820116820180604052508101906102ba9190610df9565b915080806102c7906108ff565b915050610231565b5092915050565b61080073ffffffffffffffffffffffffffffffffffffffff166353266bbb308484600a6040518563ffffffff1660e01b81526004016103189493929190610e87565b6020604051808303816000875af1158015610337573d6000803e3d6000fd5b505050506040513d601f19601f8201168201806040525081019061035b9190610ec7565b600080fd5b604051806040016040528060608152602001600081525090565b6040518061016001604052806060815260200160608152602001600015158152602001600060038111156103b1576103b061071e565b5b8152602001600081526020016000815260200160608152602001600060070b8152602001600060070b815260200160008152602001600081525090565b6000604051905090565b600080fd5b600080fd5b6000819050919050565b61041581610402565b811461042057600080fd5b50565b6000813590506104328161040c565b92915050565b600080fd5b600080fd5b600080fd5b60008083601f84011261045d5761045c610438565b5b8235905067ffffffffffffffff81111561047a5761047961043d565b5b60208301915083600182028301111561049657610495610442565b5b9250929050565b6000806000604084860312156104b6576104b56103f8565b5b60006104c486828701610423565b935050602084013567ffffffffffffffff8111156104e5576104e46103fd565b5b6104f186828701610447565b92509250509250925092565b60008060208385031215610514576105136103f8565b5b600083013567ffffffffffffffff811115610532576105316103fd565b5b61053e85828601610447565b92509250509250929050565b61055381610402565b82525050565b600081519050919050565b600082825260208201905092915050565b60005b83811015610593578082015181840152602081019050610578565b60008484015250505050565b6000601f19601f8301169050919050565b60006105bb82610559565b6105c58185610564565b93506105d5818560208601610575565b6105de8161059f565b840191505092915050565b6105f281610402565b82525050565b6000604083016000830151848203600086015261061582826105b0565b915050602083015161062a60208601826105e9565b508091505092915050565b600060408201905061064a600083018561054a565b818103602083015261065c81846105f8565b90509392505050565b600073ffffffffffffffffffffffffffffffffffffffff82169050919050565b600061069082610665565b9050919050565b6106a081610685565b81146106ab57600080fd5b50565b6000813590506106bd81610697565b92915050565b600080604083850312156106da576106d96103f8565b5b60006106e885828601610423565b92505060206106f9858286016106ae565b9150509250929050565b60008115159050919050565b61071881610703565b82525050565b7f4e487b7100000000000000000000000000000000000000000000000000000000600052602160045260246000fd5b6004811061075e5761075d61071e565b5b50565b600081905061076f8261074d565b919050565b600061077f82610761565b9050919050565b61078f81610774565b82525050565b60008160070b9050919050565b6107ab81610795565b82525050565b60006101608301600083015184820360008601526107cf82826105b0565b915050602083015184820360208601526107e982826105b0565b91505060408301516107fe604086018261070f565b5060608301516108116060860182610786565b50608083015161082460808601826105e9565b5060a083015161083760a08601826105e9565b5060c083015184820360c086015261084f82826105b0565b91505060e083015161086460e08601826107a2565b506101008301516108796101008601826107a2565b5061012083015161088e6101208601826105e9565b506101408301516108a36101408601826105e9565b508091505092915050565b600060208201905081810360008301526108c881846107b1565b905092915050565b7f4e487b7100000000000000000000000000000000000000000000000000000000600052601160045260246000fd5b600061090a82610402565b91507fffffffffffffffffffffffffffffffffffffffffffffffffffffffffffffffff820361093c5761093b6108d0565b5b600182019050919050565b600082825260208201905092915050565b82818337600083830152505050565b60006109738385610947565b9350610980838584610958565b6109898361059f565b840190509392505050565b600060208201905081810360008301526109af818486610967565b90509392505050565b6109c181610685565b82525050565b60006040820190506109dc60008301866109b8565b81810360208301526109ef818486610967565b9050949350505050565b600081519050610a088161040c565b92915050565b600080fd5b7f4e487b7100000000000000000000000000000000000000000000000000000000600052604160045260246000fd5b610a4b8261059f565b810181811067ffffffffffffffff82111715610a6a57610a69610a13565b5b80604052505050565b6000610a7d6103ee565b9050610a898282610a42565b919050565b600080fd5b600080fd5b600067ffffffffffffffff821115610ab357610ab2610a13565b5b610abc8261059f565b9050602081019050919050565b6000610adc610ad784610a98565b610a73565b905082815260208101848484011115610af857610af7610a93565b5b610b03848285610575565b509392505050565b600082601f830112610b2057610b1f610438565b5b8151610b30848260208601610ac9565b91505092915050565b600060408284031215610b4f57610b4e610a0e565b5b610b596040610a73565b9050600082015167ffffffffffffffff811115610b7957610b78610a8e565b5b610b8584828501610b0b565b6000830152506020610b99848285016109f9565b60208301525092915050565b60008060408385031215610bbc57610bbb6103f8565b5b6000610bca858286016109f9565b925050602083015167ffffffffffffffff811115610beb57610bea6103fd565b5b610bf785828601610b39565b9150509250929050565b6000602082019050610c1660008301846109b8565b92915050565b610c2581610703565b8114610c3057600080fd5b50565b600081519050610c4281610c1c565b92915050565b60048110610c5557600080fd5b50565b600081519050610c6781610c48565b92915050565b610c7681610795565b8114610c8157600080fd5b50565b600081519050610c9381610c6d565b92915050565b60006101608284031215610cb057610caf610a0e565b5b610cbb610160610a73565b9050600082015167ffffffffffffffff811115610cdb57610cda610a8e565b5b610ce784828501610b0b565b600083015250602082015167ffffffffffffffff811115610d0b57610d0a610a8e565b5b610d1784828501610b0b565b6020830152506040610d2b84828501610c33565b6040830152506060610d3f84828501610c58565b6060830152506080610d53848285016109f9565b60808301525060a0610d67848285016109f9565b60a08301525060c082015167ffffffffffffffff811115610d8b57610d8a610a8e565b5b610d9784828501610b0b565b60c08301525060e0610dab84828501610c84565b60e083015250610100610dc084828501610c84565b61010083015250610120610dd6848285016109f9565b61012083015250610140610dec848285016109f9565b6101408301525092915050565b600060208284031215610e0f57610e0e6103f8565b5b600082015167ffffffffffffffff811115610e2d57610e2c6103fd565b5b610e3984828501610c99565b91505092915050565b6000819050919050565b6000819050919050565b6000610e71610e6c610e6784610e42565b610e4c565b610402565b9050919050565b610e8181610e56565b82525050565b6000606082019050610e9c60008301876109b8565b8181036020830152610eaf818587610967565b9050610ebe6040830184610e78565b95945050505050565b600060208284031215610edd57610edc6103f8565b5b6000610eeb84828501610c33565b9150509291505056fea264697066735822122065bd7ead5aeed227652c5f7a1cd2f7e458fbac5943bc70b2e7e985c82969ffac64736f6c63430008130033",
  "linkReferences": {},
  "deployedLinkReferences": {}
}