{
  "_format": "hh-sol-artifact-1",
  "contractName": "StakingReverter",
  "sourceName": "solidity/precompiles/testutil/contracts/StakingReverter.sol",
  "abi": [
    {
      "inputs": [],
      "stateMutability": "payable",
      "type": "constructor"
    },
    {
      "inputs": [
        {
          "internalType": "string",
          "name": "validatorAddress",
          "type": "string"
        }
      ],
      "name": "getCurrentStake",
      "outputs": [
        {
          "internalType": "uint256",
          "name": "shares",
          "type": "uint256"
        },
        {
          "components": [
            {
              "internalType": "string",
              "name": "denom",
              "type": "string"
            },
            {
              "internalType": "uint256",
              "name": "amount",
              "type": "uint256"
            }
          ],
          "internalType": "struct Coin",
          "name": "balance",
          "type": "tuple"
        }
      ],
      "stateMutability": "view",
      "type": "function"
    },
    {
      "inputs": [
        {
          "internalType": "uint256",
          "name": "numTimes",
          "type": "uint256"
        },
        {
          "internalType": "string",
          "name": "validatorAddress",
          "type": "string"
        }
      ],
      "name": "multipleDelegations",
      "outputs": [],
      "stateMutability": "nonpayable",
      "type": "function"
    },
    {
      "inputs": [
        {
          "internalType": "uint256",
          "name": "numTimes",
          "type": "uint256"
        },
        {
          "internalType": "address",
          "name": "validatorAddress",
          "type": "address"
        }
      ],
      "name": "multipleQueries",
      "outputs": [
        {
          "components": [
            {
              "internalType": "string",
              "name": "operatorAddress",
              "type": "string"
            },
            {
              "internalType": "string",
              "name": "consensusPubkey",
              "type": "string"
            },
            {
              "internalType": "bool",
              "name": "jailed",
              "type": "bool"
            },
            {
              "internalType": "enum BondStatus",
              "name": "status",
              "type": "uint8"
            },
            {
              "internalType": "uint256",
              "name": "tokens",
              "type": "uint256"
            },
            {
              "internalType": "uint256",
              "name": "delegatorShares",
              "type": "uint256"
            },
            {
              "internalType": "string",
              "name": "description",
              "type": "string"
            },
            {
              "internalType": "int64",
              "name": "unbondingHeight",
              "type": "int64"
            },
            {
              "internalType": "int64",
              "name": "unbondingTime",
              "type": "int64"
            },
            {
              "internalType": "uint256",
              "name": "commission",
              "type": "uint256"
            },
            {
              "internalType": "uint256",
              "name": "minSelfDelegation",
              "type": "uint256"
            }
          ],
          "internalType": "struct Validator",
          "name": "validator",
          "type": "tuple"
        }
      ],
      "stateMutability": "view",
      "type": "function"
    },
    {
      "inputs": [
        {
          "internalType": "string",
          "name": "validatorAddress",
          "type": "string"
        }
      ],
      "name": "performDelegation",
      "outputs": [],
      "stateMutability": "nonpayable",
      "type": "function"
    },
    {
      "inputs": [
        {
          "internalType": "string",
          "name": "validatorAddress",
          "type": "string"
        }
      ],
      "name": "performDelegationAndRevert",
      "outputs": [],
      "stateMutability": "nonpayable",
      "type": "function"
    },
    {
      "inputs": [
        {
          "internalType": "uint256",
          "name": "numTimes",
          "type": "uint256"
        },
        {
          "internalType": "string",
          "name": "validatorAddress",
          "type": "string"
        }
      ],
      "name": "run",
      "outputs": [],
      "stateMutability": "nonpayable",
      "type": "function"
    }
  ],
  "bytecode": "0x6080604052600080556110aa806100176000396000f3fe608060405234801561001057600080fd5b50600436106100625760003560e01c8063207f220e146100675780634e5a8fe51461008357806352fce7b11461009f578063668f452b146100bb578063cbc367d4146100ec578063f66013d71461011c575b600080fd5b610081600480360381019061007c91906105e7565b610138565b005b61009d6004803603810190610098919061066a565b6101c2565b005b6100b960048036038101906100b4919061066a565b610264565b005b6100d560048036038101906100d091906105e7565b61030c565b6040516100e39291906107b5565b60405180910390f35b61010660048036038101906101019190610843565b6103a6565b6040516101139190610a2e565b60405180910390f35b610136600480360381019061013191906105e7565b610456565b005b61080073ffffffffffffffffffffffffffffffffffffffff166353266bbb308484600a6040518563ffffffff1660e01b815260040161017a9493929190610af1565b6020604051808303816000875af1158015610199573d6000803e3d6000fd5b505050506040513d601f19601f820116820180604052508101906101bd9190610b5d565b600080fd5b6000808154809291906101d490610bb9565b919050555060005b8381101561025e573073ffffffffffffffffffffffffffffffffffffffff1663207f220e84846040518363ffffffff1660e01b815260040161021f929190610c01565b600060405180830381600087803b15801561023957600080fd5b505af192505050801561024a575060015b50808061025690610bb9565b9150506101dc565b50505050565b60008081548092919061027690610bb9565b919050555060005b83811015610306573073ffffffffffffffffffffffffffffffffffffffff1663f66013d784846040518363ffffffff1660e01b81526004016102c1929190610c01565b600060405180830381600087803b1580156102db57600080fd5b505af11580156102ef573d6000803e3d6000fd5b5050505080806102fe90610bb9565b91505061027e565b50505050565b60006103166104e0565b61080073ffffffffffffffffffffffffffffffffffffffff1663241774e63086866040518463ffffffff1660e01b815260040161035593929190610c25565b600060405180830381865afa158015610372573d6000803e3d6000fd5b505050506040513d6000823e3d601f19601f8201168201806040525081019061039b9190610e03565b915091509250929050565b6103ae6104fa565b60005b8381101561044f5761080073ffffffffffffffffffffffffffffffffffffffff1663223b3b7a846040518263ffffffff1660e01b81526004016103f49190610e5f565b600060405180830381865afa158015610411573d6000803e3d6000fd5b505050506040513d6000823e3d601f19601f8201168201806040525081019061043a919061102b565b9150808061044790610bb9565b9150506103b1565b5092915050565b61080073ffffffffffffffffffffffffffffffffffffffff166353266bbb308484600a6040518563ffffffff1660e01b81526004016104989493929190610af1565b6020604051808303816000875af11580156104b7573d6000803e3d6000fd5b505050506040513d601f19601f820116820180604052508101906104db9190610b5d565b505050565b604051806040016040528060608152602001600081525090565b6040518061016001604052806060815260200160608152602001600015158152602001600060038111156105315761053061089e565b5b8152602001600081526020016000815260200160608152602001600060070b8152602001600060070b815260200160008152602001600081525090565b6000604051905090565b600080fd5b600080fd5b600080fd5b600080fd5b600080fd5b60008083601f8401126105a7576105a6610582565b5b8235905067ffffffffffffffff8111156105c4576105c3610587565b5b6020830191508360018202830111156105e0576105df61058c565b5b9250929050565b600080602083850312156105fe576105fd610578565b5b600083013567ffffffffffffffff81111561061c5761061b61057d565b5b61062885828601610591565b92509250509250929050565b6000819050919050565b61064781610634565b811461065257600080fd5b50565b6000813590506106648161063e565b92915050565b60008060006040848603121561068357610682610578565b5b600061069186828701610655565b935050602084013567ffffffffffffffff8111156106b2576106b161057d565b5b6106be86828701610591565b92509250509250925092565b6106d381610634565b82525050565b600081519050919050565b600082825260208201905092915050565b60005b838110156107135780820151818401526020810190506106f8565b60008484015250505050565b6000601f19601f8301169050919050565b600061073b826106d9565b61074581856106e4565b93506107558185602086016106f5565b61075e8161071f565b840191505092915050565b61077281610634565b82525050565b600060408301600083015184820360008601526107958282610730565b91505060208301516107aa6020860182610769565b508091505092915050565b60006040820190506107ca60008301856106ca565b81810360208301526107dc8184610778565b90509392505050565b600073ffffffffffffffffffffffffffffffffffffffff82169050919050565b6000610810826107e5565b9050919050565b61082081610805565b811461082b57600080fd5b50565b60008135905061083d81610817565b92915050565b6000806040838503121561085a57610859610578565b5b600061086885828601610655565b92505060206108798582860161082e565b9150509250929050565b60008115159050919050565b61089881610883565b82525050565b7f4e487b7100000000000000000000000000000000000000000000000000000000600052602160045260246000fd5b600481106108de576108dd61089e565b5b50565b60008190506108ef826108cd565b919050565b60006108ff826108e1565b9050919050565b61090f816108f4565b82525050565b60008160070b9050919050565b61092b81610915565b82525050565b600061016083016000830151848203600086015261094f8282610730565b915050602083015184820360208601526109698282610730565b915050604083015161097e604086018261088f565b5060608301516109916060860182610906565b5060808301516109a46080860182610769565b5060a08301516109b760a0860182610769565b5060c083015184820360c08601526109cf8282610730565b91505060e08301516109e460e0860182610922565b506101008301516109f9610100860182610922565b50610120830151610a0e610120860182610769565b50610140830151610a23610140860182610769565b508091505092915050565b60006020820190508181036000830152610a488184610931565b905092915050565b610a5981610805565b82525050565b600082825260208201905092915050565b82818337600083830152505050565b6000610a8b8385610a5f565b9350610a98838584610a70565b610aa18361071f565b840190509392505050565b6000819050919050565b6000819050919050565b6000610adb610ad6610ad184610aac565b610ab6565b610634565b9050919050565b610aeb81610ac0565b82525050565b6000606082019050610b066000830187610a50565b8181036020830152610b19818587610a7f565b9050610b286040830184610ae2565b95945050505050565b610b3a81610883565b8114610b4557600080fd5b50565b600081519050610b5781610b31565b92915050565b600060208284031215610b7357610b72610578565b5b6000610b8184828501610b48565b91505092915050565b7f4e487b7100000000000000000000000000000000000000000000000000000000600052601160045260246000fd5b6000610bc482610634565b91507fffffffffffffffffffffffffffffffffffffffffffffffffffffffffffffffff8203610bf657610bf5610b8a565b5b600182019050919050565b60006020820190508181036000830152610c1c818486610a7f565b90509392505050565b6000604082019050610c3a6000830186610a50565b8181036020830152610c4d818486610a7f565b9050949350505050565b600081519050610c668161063e565b92915050565b600080fd5b7f4e487b7100000000000000000000000000000000000000000000000000000000600052604160045260246000fd5b610ca98261071f565b810181811067ffffffffffffffff82111715610cc857610cc7610c71565b5b80604052505050565b6000610cdb61056e565b9050610ce78282610ca0565b919050565b600080fd5b600080fd5b600067ffffffffffffffff821115610d1157610d10610c71565b5b610d1a8261071f565b9050602081019050919050565b6000610d3a610d3584610cf6565b610cd1565b905082815260208101848484011115610d5657610d55610cf1565b5b610d618482856106f5565b509392505050565b600082601f830112610d7e57610d7d610582565b5b8151610d8e848260208601610d27565b91505092915050565b600060408284031215610dad57610dac610c6c565b5b610db76040610cd1565b9050600082015167ffffffffffffffff811115610dd757610dd6610cec565b5b610de384828501610d69565b6000830152506020610df784828501610c57565b60208301525092915050565b60008060408385031215610e1a57610e19610578565b5b6000610e2885828601610c57565b925050602083015167ffffffffffffffff811115610e4957610e4861057d565b5b610e5585828601610d97565b9150509250929050565b6000602082019050610e746000830184610a50565b92915050565b60048110610e8757600080fd5b50565b600081519050610e9981610e7a565b92915050565b610ea881610915565b8114610eb357600080fd5b50565b600081519050610ec581610e9f565b92915050565b60006101608284031215610ee257610ee1610c6c565b5b610eed610160610cd1565b9050600082015167ffffffffffffffff811115610f0d57610f0c610cec565b5b610f1984828501610d69565b600083015250602082015167ffffffffffffffff811115610f3d57610f3c610cec565b5b610f4984828501610d69565b6020830152506040610f5d84828501610b48565b6040830152506060610f7184828501610e8a565b6060830152506080610f8584828501610c57565b60808301525060a0610f9984828501610c57565b60a08301525060c082015167ffffffffffffffff811115610fbd57610fbc610cec565b5b610fc984828501610d69565b60c08301525060e0610fdd84828501610eb6565b60e083015250610100610ff284828501610eb6565b6101008301525061012061100884828501610c57565b6101208301525061014061101e84828501610c57565b6101408301525092915050565b60006020828403121561104157611040610578565b5b600082015167ffffffffffffffff81111561105f5761105e61057d565b5b61106b84828501610ecb565b9150509291505056fea2646970667358221220af64eae1d7f6f8e0df75c4d20c7d0c42fe63f4782b1d67f791eee9051b34016664736f6c63430008140033",
  "linkReferences": {},
  "deployedLinkReferences": {}
}