{
  "_format": "hh-sol-artifact-1",
  "contractName": "ERC20MinterBurnerDecimals",
  "sourceName": "solidity/ERC20MinterBurnerDecimals.sol",
  "abi": [
    {
      "inputs": [
        {
          "internalType": "string",
          "name": "name",
          "type": "string"
        },
        {
          "internalType": "string",
          "name": "symbol",
          "type": "string"
        },
        {
          "internalType": "uint8",
          "name": "decimals_",
          "type": "uint8"
        }
      ],
      "stateMutability": "nonpayable",
      "type": "constructor"
    },
    {
      "anonymous": false,
      "inputs": [
        {
          "indexed": true,
          "internalType": "address",
          "name": "owner",
          "type": "address"
        },
        {
          "indexed": true,
          "internalType": "address",
          "name": "spender",
          "type": "address"
        },
        {
          "indexed": false,
          "internalType": "uint256",
          "name": "value",
          "type": "uint256"
        }
      ],
      "name": "Approval",
      "type": "event"
    },
    {
      "anonymous": false,
      "inputs": [
        {
          "indexed": false,
          "internalType": "address",
          "name": "account",
          "type": "address"
        }
      ],
      "name": "Paused",
      "type": "event"
    },
    {
      "anonymous": false,
      "inputs": [
        {
          "indexed": true,
          "internalType": "bytes32",
          "name": "role",
          "type": "bytes32"
        },
        {
          "indexed": true,
          "internalType": "bytes32",
          "name": "previousAdminRole",
          "type": "bytes32"
        },
        {
          "indexed": true,
          "internalType": "bytes32",
          "name": "newAdminRole",
          "type": "bytes32"
        }
      ],
      "name": "RoleAdminChanged",
      "type": "event"
    },
    {
      "anonymous": false,
      "inputs": [
        {
          "indexed": true,
          "internalType": "bytes32",
          "name": "role",
          "type": "bytes32"
        },
        {
          "indexed": true,
          "internalType": "address",
          "name": "account",
          "type": "address"
        },
        {
          "indexed": true,
          "internalType": "address",
          "name": "sender",
          "type": "address"
        }
      ],
      "name": "RoleGranted",
      "type": "event"
    },
    {
      "anonymous": false,
      "inputs": [
        {
          "indexed": true,
          "internalType": "bytes32",
          "name": "role",
          "type": "bytes32"
        },
        {
          "indexed": true,
          "internalType": "address",
          "name": "account",
          "type": "address"
        },
        {
          "indexed": true,
          "internalType": "address",
          "name": "sender",
          "type": "address"
        }
      ],
      "name": "RoleRevoked",
      "type": "event"
    },
    {
      "anonymous": false,
      "inputs": [
        {
          "indexed": true,
          "internalType": "address",
          "name": "from",
          "type": "address"
        },
        {
          "indexed": true,
          "internalType": "address",
          "name": "to",
          "type": "address"
        },
        {
          "indexed": false,
          "internalType": "uint256",
          "name": "value",
          "type": "uint256"
        }
      ],
      "name": "Transfer",
      "type": "event"
    },
    {
      "anonymous": false,
      "inputs": [
        {
          "indexed": false,
          "internalType": "address",
          "name": "account",
          "type": "address"
        }
      ],
      "name": "Unpaused",
      "type": "event"
    },
    {
      "inputs": [],
      "name": "BURNER_ROLE",
      "outputs": [
        {
          "internalType": "bytes32",
          "name": "",
          "type": "bytes32"
        }
      ],
      "stateMutability": "view",
      "type": "function"
    },
    {
      "inputs": [],
      "name": "DEFAULT_ADMIN_ROLE",
      "outputs": [
        {
          "internalType": "bytes32",
          "name": "",
          "type": "bytes32"
        }
      ],
      "stateMutability": "view",
      "type": "function"
    },
    {
      "inputs": [],
      "name": "MINTER_ROLE",
      "outputs": [
        {
          "internalType": "bytes32",
          "name": "",
          "type": "bytes32"
        }
      ],
      "stateMutability": "view",
      "type": "function"
    },
    {
      "inputs": [],
      "name": "PAUSER_ROLE",
      "outputs": [
        {
          "internalType": "bytes32",
          "name": "",
          "type": "bytes32"
        }
      ],
      "stateMutability": "view",
      "type": "function"
    },
    {
      "inputs": [
        {
          "internalType": "address",
          "name": "owner",
          "type": "address"
        },
        {
          "internalType": "address",
          "name": "spender",
          "type": "address"
        }
      ],
      "name": "allowance",
      "outputs": [
        {
          "internalType": "uint256",
          "name": "",
          "type": "uint256"
        }
      ],
      "stateMutability": "view",
      "type": "function"
    },
    {
      "inputs": [
        {
          "internalType": "address",
          "name": "spender",
          "type": "address"
        },
        {
          "internalType": "uint256",
          "name": "amount",
          "type": "uint256"
        }
      ],
      "name": "approve",
      "outputs": [
        {
          "internalType": "bool",
          "name": "",
          "type": "bool"
        }
      ],
      "stateMutability": "nonpayable",
      "type": "function"
    },
    {
      "inputs": [
        {
          "internalType": "address",
          "name": "account",
          "type": "address"
        }
      ],
      "name": "balanceOf",
      "outputs": [
        {
          "internalType": "uint256",
          "name": "",
          "type": "uint256"
        }
      ],
      "stateMutability": "view",
      "type": "function"
    },
    {
      "inputs": [
        {
          "internalType": "uint256",
          "name": "amount",
          "type": "uint256"
        }
      ],
      "name": "burn",
      "outputs": [],
      "stateMutability": "nonpayable",
      "type": "function"
    },
    {
      "inputs": [
        {
          "internalType": "address",
          "name": "from",
          "type": "address"
        },
        {
          "internalType": "uint256",
          "name": "amount",
          "type": "uint256"
        }
      ],
      "name": "burnCoins",
      "outputs": [],
      "stateMutability": "nonpayable",
      "type": "function"
    },
    {
      "inputs": [
        {
          "internalType": "address",
          "name": "account",
          "type": "address"
        },
        {
          "internalType": "uint256",
          "name": "amount",
          "type": "uint256"
        }
      ],
      "name": "burnFrom",
      "outputs": [],
      "stateMutability": "nonpayable",
      "type": "function"
    },
    {
      "inputs": [],
      "name": "decimals",
      "outputs": [
        {
          "internalType": "uint8",
          "name": "",
          "type": "uint8"
        }
      ],
      "stateMutability": "view",
      "type": "function"
    },
    {
      "inputs": [
        {
          "internalType": "address",
          "name": "spender",
          "type": "address"
        },
        {
          "internalType": "uint256",
          "name": "subtractedValue",
          "type": "uint256"
        }
      ],
      "name": "decreaseAllowance",
      "outputs": [
        {
          "internalType": "bool",
          "name": "",
          "type": "bool"
        }
      ],
      "stateMutability": "nonpayable",
      "type": "function"
    },
    {
      "inputs": [
        {
          "internalType": "bytes32",
          "name": "role",
          "type": "bytes32"
        }
      ],
      "name": "getRoleAdmin",
      "outputs": [
        {
          "internalType": "bytes32",
          "name": "",
          "type": "bytes32"
        }
      ],
      "stateMutability": "view",
      "type": "function"
    },
    {
      "inputs": [
        {
          "internalType": "bytes32",
          "name": "role",
          "type": "bytes32"
        },
        {
          "internalType": "uint256",
          "name": "index",
          "type": "uint256"
        }
      ],
      "name": "getRoleMember",
      "outputs": [
        {
          "internalType": "address",
          "name": "",
          "type": "address"
        }
      ],
      "stateMutability": "view",
      "type": "function"
    },
    {
      "inputs": [
        {
          "internalType": "bytes32",
          "name": "role",
          "type": "bytes32"
        }
      ],
      "name": "getRoleMemberCount",
      "outputs": [
        {
          "internalType": "uint256",
          "name": "",
          "type": "uint256"
        }
      ],
      "stateMutability": "view",
      "type": "function"
    },
    {
      "inputs": [
        {
          "internalType": "bytes32",
          "name": "role",
          "type": "bytes32"
        },
        {
          "internalType": "address",
          "name": "account",
          "type": "address"
        }
      ],
      "name": "grantRole",
      "outputs": [],
      "stateMutability": "nonpayable",
      "type": "function"
    },
    {
      "inputs": [
        {
          "internalType": "bytes32",
          "name": "role",
          "type": "bytes32"
        },
        {
          "internalType": "address",
          "name": "account",
          "type": "address"
        }
      ],
      "name": "hasRole",
      "outputs": [
        {
          "internalType": "bool",
          "name": "",
          "type": "bool"
        }
      ],
      "stateMutability": "view",
      "type": "function"
    },
    {
      "inputs": [
        {
          "internalType": "address",
          "name": "spender",
          "type": "address"
        },
        {
          "internalType": "uint256",
          "name": "addedValue",
          "type": "uint256"
        }
      ],
      "name": "increaseAllowance",
      "outputs": [
        {
          "internalType": "bool",
          "name": "",
          "type": "bool"
        }
      ],
      "stateMutability": "nonpayable",
      "type": "function"
    },
    {
      "inputs": [
        {
          "internalType": "address",
          "name": "to",
          "type": "address"
        },
        {
          "internalType": "uint256",
          "name": "amount",
          "type": "uint256"
        }
      ],
      "name": "mint",
      "outputs": [],
      "stateMutability": "nonpayable",
      "type": "function"
    },
    {
      "inputs": [],
      "name": "name",
      "outputs": [
        {
          "internalType": "string",
          "name": "",
          "type": "string"
        }
      ],
      "stateMutability": "view",
      "type": "function"
    },
    {
      "inputs": [],
      "name": "pause",
      "outputs": [],
      "stateMutability": "nonpayable",
      "type": "function"
    },
    {
      "inputs": [],
      "name": "paused",
      "outputs": [
        {
          "internalType": "bool",
          "name": "",
          "type": "bool"
        }
      ],
      "stateMutability": "view",
      "type": "function"
    },
    {
      "inputs": [
        {
          "internalType": "bytes32",
          "name": "role",
          "type": "bytes32"
        },
        {
          "internalType": "address",
          "name": "account",
          "type": "address"
        }
      ],
      "name": "renounceRole",
      "outputs": [],
      "stateMutability": "nonpayable",
      "type": "function"
    },
    {
      "inputs": [
        {
          "internalType": "bytes32",
          "name": "role",
          "type": "bytes32"
        },
        {
          "internalType": "address",
          "name": "account",
          "type": "address"
        }
      ],
      "name": "revokeRole",
      "outputs": [],
      "stateMutability": "nonpayable",
      "type": "function"
    },
    {
      "inputs": [
        {
          "internalType": "bytes4",
          "name": "interfaceId",
          "type": "bytes4"
        }
      ],
      "name": "supportsInterface",
      "outputs": [
        {
          "internalType": "bool",
          "name": "",
          "type": "bool"
        }
      ],
      "stateMutability": "view",
      "type": "function"
    },
    {
      "inputs": [],
      "name": "symbol",
      "outputs": [
        {
          "internalType": "string",
          "name": "",
          "type": "string"
        }
      ],
      "stateMutability": "view",
      "type": "function"
    },
    {
      "inputs": [],
      "name": "totalSupply",
      "outputs": [
        {
          "internalType": "uint256",
          "name": "",
          "type": "uint256"
        }
      ],
      "stateMutability": "view",
      "type": "function"
    },
    {
      "inputs": [
        {
          "internalType": "address",
          "name": "to",
          "type": "address"
        },
        {
          "internalType": "uint256",
          "name": "amount",
          "type": "uint256"
        }
      ],
      "name": "transfer",
      "outputs": [
        {
          "internalType": "bool",
          "name": "",
          "type": "bool"
        }
      ],
      "stateMutability": "nonpayable",
      "type": "function"
    },
    {
      "inputs": [
        {
          "internalType": "address",
          "name": "from",
          "type": "address"
        },
        {
          "internalType": "address",
          "name": "to",
          "type": "address"
        },
        {
          "internalType": "uint256",
          "name": "amount",
          "type": "uint256"
        }
      ],
      "name": "transferFrom",
      "outputs": [
        {
          "internalType": "bool",
          "name": "",
          "type": "bool"
        }
      ],
      "stateMutability": "nonpayable",
      "type": "function"
    },
    {
      "inputs": [],
      "name": "unpause",
      "outputs": [],
      "stateMutability": "nonpayable",
      "type": "function"
    }
  ],
  "bytecode": "0x60806040523480156200001157600080fd5b5060405162003c3638038062003c368339818101604052810190620000379190620005f6565b828281600590816200004a9190620008db565b5080600690816200005c9190620008db565b5050506000600760006101000a81548160ff0219169083151502179055506200009e6000801b620000926200017b60201b60201c565b6200018360201b60201c565b620000df7f9f2df0fed2c77648de5860a4cc508cd0818c85b8b8a1ab4ceeef8d981c8956a6620000d36200017b60201b60201c565b6200018360201b60201c565b620001207f65d7a28e3265b37a6474929f336521b332c1681b933f6cb9f3376673440d862a620001146200017b60201b60201c565b6200018360201b60201c565b620001617f3c11d16cbaffd01df69ce1c404f6340ee057498f5f00246190ea54220576a848620001556200017b60201b60201c565b6200018360201b60201c565b62000172816200019960201b60201c565b505050620009c2565b600033905090565b620001958282620001b760201b60201c565b5050565b80600760016101000a81548160ff021916908360ff16021790555050565b620001c98282620001f560201b60201c565b620001f08160016000858152602001908152602001600020620002e660201b90919060201c565b505050565b6200020782826200031e60201b60201c565b620002e257600160008084815260200190815260200160002060000160008373ffffffffffffffffffffffffffffffffffffffff1673ffffffffffffffffffffffffffffffffffffffff16815260200190815260200160002060006101000a81548160ff021916908315150217905550620002876200017b60201b60201c565b73ffffffffffffffffffffffffffffffffffffffff168173ffffffffffffffffffffffffffffffffffffffff16837f2f8788117e7eff1d82e926ec794901d17c78024a50270940304540a733656f0d60405160405180910390a45b5050565b600062000316836000018373ffffffffffffffffffffffffffffffffffffffff1660001b6200038860201b60201c565b905092915050565b600080600084815260200190815260200160002060000160008373ffffffffffffffffffffffffffffffffffffffff1673ffffffffffffffffffffffffffffffffffffffff16815260200190815260200160002060009054906101000a900460ff16905092915050565b60006200039c83836200040260201b60201c565b620003f7578260000182908060018154018082558091505060019003906000526020600020016000909190919091505582600001805490508360010160008481526020019081526020016000208190555060019050620003fc565b600090505b92915050565b600080836001016000848152602001908152602001600020541415905092915050565b6000604051905090565b600080fd5b600080fd5b600080fd5b600080fd5b6000601f19601f8301169050919050565b7f4e487b7100000000000000000000000000000000000000000000000000000000600052604160045260246000fd5b6200048e8262000443565b810181811067ffffffffffffffff82111715620004b057620004af62000454565b5b80604052505050565b6000620004c562000425565b9050620004d3828262000483565b919050565b600067ffffffffffffffff821115620004f657620004f562000454565b5b620005018262000443565b9050602081019050919050565b60005b838110156200052e57808201518184015260208101905062000511565b60008484015250505050565b6000620005516200054b84620004d8565b620004b9565b90508281526020810184848401111562000570576200056f6200043e565b5b6200057d8482856200050e565b509392505050565b600082601f8301126200059d576200059c62000439565b5b8151620005af8482602086016200053a565b91505092915050565b600060ff82169050919050565b620005d081620005b8565b8114620005dc57600080fd5b50565b600081519050620005f081620005c5565b92915050565b6000806000606084860312156200061257620006116200042f565b5b600084015167ffffffffffffffff81111562000633576200063262000434565b5b620006418682870162000585565b935050602084015167ffffffffffffffff81111562000665576200066462000434565b5b620006738682870162000585565b92505060406200068686828701620005df565b9150509250925092565b600081519050919050565b7f4e487b7100000000000000000000000000000000000000000000000000000000600052602260045260246000fd5b60006002820490506001821680620006e357607f821691505b602082108103620006f957620006f86200069b565b5b50919050565b60008190508160005260206000209050919050565b60006020601f8301049050919050565b600082821b905092915050565b600060088302620007637fffffffffffffffffffffffffffffffffffffffffffffffffffffffffffffffff8262000724565b6200076f868362000724565b95508019841693508086168417925050509392505050565b6000819050919050565b6000819050919050565b6000620007bc620007b6620007b08462000787565b62000791565b62000787565b9050919050565b6000819050919050565b620007d8836200079b565b620007f0620007e782620007c3565b84845462000731565b825550505050565b600090565b62000807620007f8565b62000814818484620007cd565b505050565b5b818110156200083c5762000830600082620007fd565b6001810190506200081a565b5050565b601f8211156200088b576200085581620006ff565b620008608462000714565b8101602085101562000870578190505b620008886200087f8562000714565b83018262000819565b50505b505050565b600082821c905092915050565b6000620008b06000198460080262000890565b1980831691505092915050565b6000620008cb83836200089d565b9150826002028217905092915050565b620008e68262000690565b67ffffffffffffffff81111562000902576200090162000454565b5b6200090e8254620006ca565b6200091b82828562000840565b600060209050601f8311600181146200095357600084156200093e578287015190505b6200094a8582620008bd565b865550620009ba565b601f1984166200096386620006ff565b60005b828110156200098d5784890151825560018201915060208501945060208101905062000966565b86831015620009ad5784890151620009a9601f8916826200089d565b8355505b6001600288020188555050505b505050505050565b61326480620009d26000396000f3fe608060405234801561001057600080fd5b50600436106101da5760003560e01c80635c975abb11610104578063a217fddf116100a2578063d539139311610071578063d53913931461057d578063d547741f1461059b578063dd62ed3e146105b7578063e63ab1e9146105e7576101da565b8063a217fddf146104cf578063a457c2d7146104ed578063a9059cbb1461051d578063ca15c8731461054d576101da565b80638456cb59116100de5780638456cb59146104475780639010d07c1461045157806391d148541461048157806395d89b41146104b1576101da565b80635c975abb146103dd57806370a08231146103fb57806379cc67901461042b576101da565b8063282c51f31161017c578063395093511161014b578063395093511461036b5780633f4ba83a1461039b57806340c10f19146103a557806342966c68146103c1576101da565b8063282c51f3146102f75780632f2ff15d14610315578063313ce5671461033157806336568abe1461034f576101da565b806318160ddd116101b857806318160ddd1461025d5780631cf2c7e21461027b57806323b872dd14610297578063248a9ca3146102c7576101da565b806301ffc9a7146101df57806306fdde031461020f578063095ea7b31461022d575b600080fd5b6101f960048036038101906101f491906120ab565b610605565b60405161020691906120f3565b60405180910390f35b61021761067f565b604051610224919061219e565b60405180910390f35b61024760048036038101906102429190612254565b610711565b60405161025491906120f3565b60405180910390f35b610265610734565b60405161027291906122a3565b60405180910390f35b61029560048036038101906102909190612254565b61073e565b005b6102b160048036038101906102ac91906122be565b6107bc565b6040516102be91906120f3565b60405180910390f35b6102e160048036038101906102dc9190612347565b6107eb565b6040516102ee9190612383565b60405180910390f35b6102ff61080a565b60405161030c9190612383565b60405180910390f35b61032f600480360381019061032a919061239e565b61082e565b005b61033961084f565b60405161034691906123fa565b60405180910390f35b6103696004803603810190610364919061239e565b610866565b005b61038560048036038101906103809190612254565b6108e9565b60405161039291906120f3565b60405180910390f35b6103a3610920565b005b6103bf60048036038101906103ba9190612254565b61099a565b005b6103db60048036038101906103d69190612415565b610a18565b005b6103e5610a2c565b6040516103f291906120f3565b60405180910390f35b61041560048036038101906104109190612442565b610a43565b60405161042291906122a3565b60405180910390f35b61044560048036038101906104409190612254565b610a8c565b005b61044f610aac565b005b61046b6004803603810190610466919061246f565b610b26565b60405161047891906124be565b60405180910390f35b61049b6004803603810190610496919061239e565b610b55565b6040516104a891906120f3565b60405180910390f35b6104b9610bbf565b6040516104c6919061219e565b60405180910390f35b6104d7610c51565b6040516104e49190612383565b60405180910390f35b61050760048036038101906105029190612254565b610c58565b60405161051491906120f3565b60405180910390f35b61053760048036038101906105329190612254565b610ccf565b60405161054491906120f3565b60405180910390f35b61056760048036038101906105629190612347565b610cf2565b60405161057491906122a3565b60405180910390f35b610585610d16565b6040516105929190612383565b60405180910390f35b6105b560048036038101906105b0919061239e565b610d3a565b005b6105d160048036038101906105cc91906124d9565b610d5b565b6040516105de91906122a3565b60405180910390f35b6105ef610de2565b6040516105fc9190612383565b60405180910390f35b60007f5a05180f000000000000000000000000000000000000000000000000000000007bffffffffffffffffffffffffffffffffffffffffffffffffffffffff1916827bffffffffffffffffffffffffffffffffffffffffffffffffffffffff19161480610678575061067782610e06565b5b9050919050565b60606005805461068e90612548565b80601f01602080910402602001604051908101604052809291908181526020018280546106ba90612548565b80156107075780601f106106dc57610100808354040283529160200191610707565b820191906000526020600020905b8154815290600101906020018083116106ea57829003601f168201915b5050505050905090565b60008061071c610e80565b9050610729818585610e88565b600191505092915050565b6000600454905090565b61076f7f3c11d16cbaffd01df69ce1c404f6340ee057498f5f00246190ea54220576a84861076a610e80565b610b55565b6107ae576040517f08c379a00000000000000000000000000000000000000000000000000000000081526004016107a5906125eb565b60405180910390fd5b6107b88282611051565b5050565b6000806107c7610e80565b90506107d4858285611220565b6107df8585856112ac565b60019150509392505050565b6000806000838152602001908152602001600020600101549050919050565b7f3c11d16cbaffd01df69ce1c404f6340ee057498f5f00246190ea54220576a84881565b610837826107eb565b61084081611525565b61084a8383611539565b505050565b6000600760019054906101000a900460ff16905090565b61086e610e80565b73ffffffffffffffffffffffffffffffffffffffff168173ffffffffffffffffffffffffffffffffffffffff16146108db576040517f08c379a00000000000000000000000000000000000000000000000000000000081526004016108d29061267d565b60405180910390fd5b6108e5828261156d565b5050565b6000806108f4610e80565b90506109158185856109068589610d5b565b61091091906126cc565b610e88565b600191505092915050565b6109517f65d7a28e3265b37a6474929f336521b332c1681b933f6cb9f3376673440d862a61094c610e80565b610b55565b610990576040517f08c379a000000000000000000000000000000000000000000000000000000000815260040161098790612772565b60405180910390fd5b6109986115a1565b565b6109cb7f9f2df0fed2c77648de5860a4cc508cd0818c85b8b8a1ab4ceeef8d981c8956a66109c6610e80565b610b55565b610a0a576040517f08c379a0000000000000000000000000000000000000000000000000000000008152600401610a0190612804565b60405180910390fd5b610a148282611604565b5050565b610a29610a23610e80565b82611051565b50565b6000600760009054906101000a900460ff16905090565b6000600260008373ffffffffffffffffffffffffffffffffffffffff1673ffffffffffffffffffffffffffffffffffffffff168152602001908152602001600020549050919050565b610a9e82610a98610e80565b83611220565b610aa88282611051565b5050565b610add7f65d7a28e3265b37a6474929f336521b332c1681b933f6cb9f3376673440d862a610ad8610e80565b610b55565b610b1c576040517f08c379a0000000000000000000000000000000000000000000000000000000008152600401610b1390612896565b60405180910390fd5b610b2461175b565b565b6000610b4d82600160008681526020019081526020016000206117be90919063ffffffff16565b905092915050565b600080600084815260200190815260200160002060000160008373ffffffffffffffffffffffffffffffffffffffff1673ffffffffffffffffffffffffffffffffffffffff16815260200190815260200160002060009054906101000a900460ff16905092915050565b606060068054610bce90612548565b80601f0160208091040260200160405190810160405280929190818152602001828054610bfa90612548565b8015610c475780601f10610c1c57610100808354040283529160200191610c47565b820191906000526020600020905b815481529060010190602001808311610c2a57829003601f168201915b5050505050905090565b6000801b81565b600080610c63610e80565b90506000610c718286610d5b565b905083811015610cb6576040517f08c379a0000000000000000000000000000000000000000000000000000000008152600401610cad90612928565b60405180910390fd5b610cc38286868403610e88565b60019250505092915050565b600080610cda610e80565b9050610ce78185856112ac565b600191505092915050565b6000610d0f600160008481526020019081526020016000206117d8565b9050919050565b7f9f2df0fed2c77648de5860a4cc508cd0818c85b8b8a1ab4ceeef8d981c8956a681565b610d43826107eb565b610d4c81611525565b610d56838361156d565b505050565b6000600360008473ffffffffffffffffffffffffffffffffffffffff1673ffffffffffffffffffffffffffffffffffffffff16815260200190815260200160002060008373ffffffffffffffffffffffffffffffffffffffff1673ffffffffffffffffffffffffffffffffffffffff16815260200190815260200160002054905092915050565b7f65d7a28e3265b37a6474929f336521b332c1681b933f6cb9f3376673440d862a81565b60007f7965db0b000000000000000000000000000000000000000000000000000000007bffffffffffffffffffffffffffffffffffffffffffffffffffffffff1916827bffffffffffffffffffffffffffffffffffffffffffffffffffffffff19161480610e795750610e78826117ed565b5b9050919050565b600033905090565b600073ffffffffffffffffffffffffffffffffffffffff168373ffffffffffffffffffffffffffffffffffffffff1603610ef7576040517f08c379a0000000000000000000000000000000000000000000000000000000008152600401610eee906129ba565b60405180910390fd5b600073ffffffffffffffffffffffffffffffffffffffff168273ffffffffffffffffffffffffffffffffffffffff1603610f66576040517f08c379a0000000000000000000000000000000000000000000000000000000008152600401610f5d90612a4c565b60405180910390fd5b80600360008573ffffffffffffffffffffffffffffffffffffffff1673ffffffffffffffffffffffffffffffffffffffff16815260200190815260200160002060008473ffffffffffffffffffffffffffffffffffffffff1673ffffffffffffffffffffffffffffffffffffffff168152602001908152602001600020819055508173ffffffffffffffffffffffffffffffffffffffff168373ffffffffffffffffffffffffffffffffffffffff167f8c5be1e5ebec7d5bd14f71427d1e84f3dd0314c0f7b2291e5b200ac8c7c3b9258360405161104491906122a3565b60405180910390a3505050565b600073ffffffffffffffffffffffffffffffffffffffff168273ffffffffffffffffffffffffffffffffffffffff16036110c0576040517f08c379a00000000000000000000000000000000000000000000000000000000081526004016110b790612ade565b60405180910390fd5b6110cc82600083611857565b6000600260008473ffffffffffffffffffffffffffffffffffffffff1673ffffffffffffffffffffffffffffffffffffffff16815260200190815260200160002054905081811015611153576040517f08c379a000000000000000000000000000000000000000000000000000000000815260040161114a90612b70565b60405180910390fd5b818103600260008573ffffffffffffffffffffffffffffffffffffffff1673ffffffffffffffffffffffffffffffffffffffff1681526020019081526020016000208190555081600460008282540392505081905550600073ffffffffffffffffffffffffffffffffffffffff168373ffffffffffffffffffffffffffffffffffffffff167fddf252ad1be2c89b69c2b068fc378daa952ba7f163c4a11628f55a4df523b3ef8460405161120791906122a3565b60405180910390a361121b83600084611867565b505050565b600061122c8484610d5b565b90507fffffffffffffffffffffffffffffffffffffffffffffffffffffffffffffffff81146112a65781811015611298576040517f08c379a000000000000000000000000000000000000000000000000000000000815260040161128f90612bdc565b60405180910390fd5b6112a58484848403610e88565b5b50505050565b600073ffffffffffffffffffffffffffffffffffffffff168373ffffffffffffffffffffffffffffffffffffffff160361131b576040517f08c379a000000000000000000000000000000000000000000000000000000000815260040161131290612c6e565b60405180910390fd5b600073ffffffffffffffffffffffffffffffffffffffff168273ffffffffffffffffffffffffffffffffffffffff160361138a576040517f08c379a000000000000000000000000000000000000000000000000000000000815260040161138190612d00565b60405180910390fd5b611395838383611857565b6000600260008573ffffffffffffffffffffffffffffffffffffffff1673ffffffffffffffffffffffffffffffffffffffff1681526020019081526020016000205490508181101561141c576040517f08c379a000000000000000000000000000000000000000000000000000000000815260040161141390612d92565b60405180910390fd5b818103600260008673ffffffffffffffffffffffffffffffffffffffff1673ffffffffffffffffffffffffffffffffffffffff1681526020019081526020016000208190555081600260008573ffffffffffffffffffffffffffffffffffffffff1673ffffffffffffffffffffffffffffffffffffffff168152602001908152602001600020600082825401925050819055508273ffffffffffffffffffffffffffffffffffffffff168473ffffffffffffffffffffffffffffffffffffffff167fddf252ad1be2c89b69c2b068fc378daa952ba7f163c4a11628f55a4df523b3ef8460405161150c91906122a3565b60405180910390a361151f848484611867565b50505050565b61153681611531610e80565b61186c565b50565b61154382826118f1565b61156881600160008581526020019081526020016000206119d190919063ffffffff16565b505050565b6115778282611a01565b61159c8160016000858152602001908152602001600020611ae290919063ffffffff16565b505050565b6115a9611b12565b6000600760006101000a81548160ff0219169083151502179055507f5db9ee0a495bf2e6ff9c91a7834c1ba4fdd244a5e8aa4e537bd38aeae4b073aa6115ed610e80565b6040516115fa91906124be565b60405180910390a1565b600073ffffffffffffffffffffffffffffffffffffffff168273ffffffffffffffffffffffffffffffffffffffff1603611673576040517f08c379a000000000000000000000000000000000000000000000000000000000815260040161166a90612dfe565b60405180910390fd5b61167f60008383611857565b806004600082825461169191906126cc565b9250508190555080600260008473ffffffffffffffffffffffffffffffffffffffff1673ffffffffffffffffffffffffffffffffffffffff168152602001908152602001600020600082825401925050819055508173ffffffffffffffffffffffffffffffffffffffff16600073ffffffffffffffffffffffffffffffffffffffff167fddf252ad1be2c89b69c2b068fc378daa952ba7f163c4a11628f55a4df523b3ef8360405161174391906122a3565b60405180910390a361175760008383611867565b5050565b611763611b5b565b6001600760006101000a81548160ff0219169083151502179055507f62e78cea01bee320cd4e420270b5ea74000d11b0c9f74754ebdbfc544b05a2586117a7610e80565b6040516117b491906124be565b60405180910390a1565b60006117cd8360000183611ba5565b60001c905092915050565b60006117e682600001611bd0565b9050919050565b60007f01ffc9a7000000000000000000000000000000000000000000000000000000007bffffffffffffffffffffffffffffffffffffffffffffffffffffffff1916827bffffffffffffffffffffffffffffffffffffffffffffffffffffffff1916149050919050565b611862838383611be1565b505050565b505050565b6118768282610b55565b6118ed5761188381611c39565b6118918360001c6020611c66565b6040516020016118a2929190612ef2565b6040516020818303038152906040526040517f08c379a00000000000000000000000000000000000000000000000000000000081526004016118e4919061219e565b60405180910390fd5b5050565b6118fb8282610b55565b6119cd57600160008084815260200190815260200160002060000160008373ffffffffffffffffffffffffffffffffffffffff1673ffffffffffffffffffffffffffffffffffffffff16815260200190815260200160002060006101000a81548160ff021916908315150217905550611972610e80565b73ffffffffffffffffffffffffffffffffffffffff168173ffffffffffffffffffffffffffffffffffffffff16837f2f8788117e7eff1d82e926ec794901d17c78024a50270940304540a733656f0d60405160405180910390a45b5050565b60006119f9836000018373ffffffffffffffffffffffffffffffffffffffff1660001b611ea2565b905092915050565b611a0b8282610b55565b15611ade57600080600084815260200190815260200160002060000160008373ffffffffffffffffffffffffffffffffffffffff1673ffffffffffffffffffffffffffffffffffffffff16815260200190815260200160002060006101000a81548160ff021916908315150217905550611a83610e80565b73ffffffffffffffffffffffffffffffffffffffff168173ffffffffffffffffffffffffffffffffffffffff16837ff6391f5c32d9c69d2a47ea670b442974b53935d1edc7fd64eb21e047a839171b60405160405180910390a45b5050565b6000611b0a836000018373ffffffffffffffffffffffffffffffffffffffff1660001b611f12565b905092915050565b611b1a610a2c565b611b59576040517f08c379a0000000000000000000000000000000000000000000000000000000008152600401611b5090612f78565b60405180910390fd5b565b611b63610a2c565b15611ba3576040517f08c379a0000000000000000000000000000000000000000000000000000000008152600401611b9a90612fe4565b60405180910390fd5b565b6000826000018281548110611bbd57611bbc613004565b5b9060005260206000200154905092915050565b600081600001805490509050919050565b611bec838383612026565b611bf4610a2c565b15611c34576040517f08c379a0000000000000000000000000000000000000000000000000000000008152600401611c2b906130a5565b60405180910390fd5b505050565b6060611c5f8273ffffffffffffffffffffffffffffffffffffffff16601460ff16611c66565b9050919050565b606060006002836002611c7991906130c5565b611c8391906126cc565b67ffffffffffffffff811115611c9c57611c9b613107565b5b6040519080825280601f01601f191660200182016040528015611cce5781602001600182028036833780820191505090505b5090507f300000000000000000000000000000000000000000000000000000000000000081600081518110611d0657611d05613004565b5b60200101907effffffffffffffffffffffffffffffffffffffffffffffffffffffffffffff1916908160001a9053507f780000000000000000000000000000000000000000000000000000000000000081600181518110611d6a57611d69613004565b5b60200101907effffffffffffffffffffffffffffffffffffffffffffffffffffffffffffff1916908160001a90535060006001846002611daa91906130c5565b611db491906126cc565b90505b6001811115611e54577f3031323334353637383961626364656600000000000000000000000000000000600f861660108110611df657611df5613004565b5b1a60f81b828281518110611e0d57611e0c613004565b5b60200101907effffffffffffffffffffffffffffffffffffffffffffffffffffffffffffff1916908160001a905350600485901c945080611e4d90613136565b9050611db7565b5060008414611e98576040517f08c379a0000000000000000000000000000000000000000000000000000000008152600401611e8f906131ab565b60405180910390fd5b8091505092915050565b6000611eae838361202b565b611f07578260000182908060018154018082558091505060019003906000526020600020016000909190919091505582600001805490508360010160008481526020019081526020016000208190555060019050611f0c565b600090505b92915050565b6000808360010160008481526020019081526020016000205490506000811461201a576000600182611f4491906131cb565b9050600060018660000180549050611f5c91906131cb565b9050818114611fcb576000866000018281548110611f7d57611f7c613004565b5b9060005260206000200154905080876000018481548110611fa157611fa0613004565b5b90600052602060002001819055508387600101600083815260200190815260200160002081905550505b85600001805480611fdf57611fde6131ff565b5b600190038181906000526020600020016000905590558560010160008681526020019081526020016000206000905560019350505050612020565b60009150505b92915050565b505050565b600080836001016000848152602001908152602001600020541415905092915050565b600080fd5b60007fffffffff0000000000000000000000000000000000000000000000000000000082169050919050565b61208881612053565b811461209357600080fd5b50565b6000813590506120a58161207f565b92915050565b6000602082840312156120c1576120c061204e565b5b60006120cf84828501612096565b91505092915050565b60008115159050919050565b6120ed816120d8565b82525050565b600060208201905061210860008301846120e4565b92915050565b600081519050919050565b600082825260208201905092915050565b60005b8381101561214857808201518184015260208101905061212d565b60008484015250505050565b6000601f19601f8301169050919050565b60006121708261210e565b61217a8185612119565b935061218a81856020860161212a565b61219381612154565b840191505092915050565b600060208201905081810360008301526121b88184612165565b905092915050565b600073ffffffffffffffffffffffffffffffffffffffff82169050919050565b60006121eb826121c0565b9050919050565b6121fb816121e0565b811461220657600080fd5b50565b600081359050612218816121f2565b92915050565b6000819050919050565b6122318161221e565b811461223c57600080fd5b50565b60008135905061224e81612228565b92915050565b6000806040838503121561226b5761226a61204e565b5b600061227985828601612209565b925050602061228a8582860161223f565b9150509250929050565b61229d8161221e565b82525050565b60006020820190506122b86000830184612294565b92915050565b6000806000606084860312156122d7576122d661204e565b5b60006122e586828701612209565b93505060206122f686828701612209565b92505060406123078682870161223f565b9150509250925092565b6000819050919050565b61232481612311565b811461232f57600080fd5b50565b6000813590506123418161231b565b92915050565b60006020828403121561235d5761235c61204e565b5b600061236b84828501612332565b91505092915050565b61237d81612311565b82525050565b60006020820190506123986000830184612374565b92915050565b600080604083850312156123b5576123b461204e565b5b60006123c385828601612332565b92505060206123d485828601612209565b9150509250929050565b600060ff82169050919050565b6123f4816123de565b82525050565b600060208201905061240f60008301846123eb565b92915050565b60006020828403121561242b5761242a61204e565b5b60006124398482850161223f565b91505092915050565b6000602082840312156124585761245761204e565b5b600061246684828501612209565b91505092915050565b600080604083850312156124865761248561204e565b5b600061249485828601612332565b92505060206124a58582860161223f565b9150509250929050565b6124b8816121e0565b82525050565b60006020820190506124d360008301846124af565b92915050565b600080604083850312156124f0576124ef61204e565b5b60006124fe85828601612209565b925050602061250f85828601612209565b9150509250929050565b7f4e487b7100000000000000000000000000000000000000000000000000000000600052602260045260246000fd5b6000600282049050600182168061256057607f821691505b60208210810361257357612572612519565b5b50919050565b7f45524332304d696e7465724275726e6572446563696d616c733a206d7573742060008201527f68617665206275726e657220726f6c6520746f206275726e0000000000000000602082015250565b60006125d5603883612119565b91506125e082612579565b604082019050919050565b60006020820190508181036000830152612604816125c8565b9050919050565b7f416363657373436f6e74726f6c3a2063616e206f6e6c792072656e6f756e636560008201527f20726f6c657320666f722073656c660000000000000000000000000000000000602082015250565b6000612667602f83612119565b91506126728261260b565b604082019050919050565b600060208201905081810360008301526126968161265a565b9050919050565b7f4e487b7100000000000000000000000000000000000000000000000000000000600052601160045260246000fd5b60006126d78261221e565b91506126e28361221e565b92508282019050808211156126fa576126f961269d565b5b92915050565b7f45524332304d696e7465724275726e6572446563696d616c733a206d7573742060008201527f686176652070617573657220726f6c6520746f20756e70617573650000000000602082015250565b600061275c603b83612119565b915061276782612700565b604082019050919050565b6000602082019050818103600083015261278b8161274f565b9050919050565b7f45524332304d696e7465724275726e6572446563696d616c733a206d7573742060008201527f68617665206d696e74657220726f6c6520746f206d696e740000000000000000602082015250565b60006127ee603883612119565b91506127f982612792565b604082019050919050565b6000602082019050818103600083015261281d816127e1565b9050919050565b7f45524332304d696e7465724275726e6572446563696d616c733a206d7573742060008201527f686176652070617573657220726f6c6520746f20706175736500000000000000602082015250565b6000612880603983612119565b915061288b82612824565b604082019050919050565b600060208201905081810360008301526128af81612873565b9050919050565b7f45524332303a2064656372656173656420616c6c6f77616e63652062656c6f7760008201527f207a65726f000000000000000000000000000000000000000000000000000000602082015250565b6000612912602583612119565b915061291d826128b6565b604082019050919050565b6000602082019050818103600083015261294181612905565b9050919050565b7f45524332303a20617070726f76652066726f6d20746865207a65726f2061646460008201527f7265737300000000000000000000000000000000000000000000000000000000602082015250565b60006129a4602483612119565b91506129af82612948565b604082019050919050565b600060208201905081810360008301526129d381612997565b9050919050565b7f45524332303a20617070726f766520746f20746865207a65726f20616464726560008201527f7373000000000000000000000000000000000000000000000000000000000000602082015250565b6000612a36602283612119565b9150612a41826129da565b604082019050919050565b60006020820190508181036000830152612a6581612a29565b9050919050565b7f45524332303a206275726e2066726f6d20746865207a65726f2061646472657360008201527f7300000000000000000000000000000000000000000000000000000000000000602082015250565b6000612ac8602183612119565b9150612ad382612a6c565b604082019050919050565b60006020820190508181036000830152612af781612abb565b9050919050565b7f45524332303a206275726e20616d6f756e7420657863656564732062616c616e60008201527f6365000000000000000000000000000000000000000000000000000000000000602082015250565b6000612b5a602283612119565b9150612b6582612afe565b604082019050919050565b60006020820190508181036000830152612b8981612b4d565b9050919050565b7f45524332303a20696e73756666696369656e7420616c6c6f77616e6365000000600082015250565b6000612bc6601d83612119565b9150612bd182612b90565b602082019050919050565b60006020820190508181036000830152612bf581612bb9565b9050919050565b7f45524332303a207472616e736665722066726f6d20746865207a65726f20616460008201527f6472657373000000000000000000000000000000000000000000000000000000602082015250565b6000612c58602583612119565b9150612c6382612bfc565b604082019050919050565b60006020820190508181036000830152612c8781612c4b565b9050919050565b7f45524332303a207472616e7366657220746f20746865207a65726f206164647260008201527f6573730000000000000000000000000000000000000000000000000000000000602082015250565b6000612cea602383612119565b9150612cf582612c8e565b604082019050919050565b60006020820190508181036000830152612d1981612cdd565b9050919050565b7f45524332303a207472616e7366657220616d6f756e742065786365656473206260008201527f616c616e63650000000000000000000000000000000000000000000000000000602082015250565b6000612d7c602683612119565b9150612d8782612d20565b604082019050919050565b60006020820190508181036000830152612dab81612d6f565b9050919050565b7f45524332303a206d696e7420746f20746865207a65726f206164647265737300600082015250565b6000612de8601f83612119565b9150612df382612db2565b602082019050919050565b60006020820190508181036000830152612e1781612ddb565b9050919050565b600081905092915050565b7f416363657373436f6e74726f6c3a206163636f756e7420000000000000000000600082015250565b6000612e5f601783612e1e565b9150612e6a82612e29565b601782019050919050565b6000612e808261210e565b612e8a8185612e1e565b9350612e9a81856020860161212a565b80840191505092915050565b7f206973206d697373696e6720726f6c6520000000000000000000000000000000600082015250565b6000612edc601183612e1e565b9150612ee782612ea6565b601182019050919050565b6000612efd82612e52565b9150612f098285612e75565b9150612f1482612ecf565b9150612f208284612e75565b91508190509392505050565b7f5061757361626c653a206e6f7420706175736564000000000000000000000000600082015250565b6000612f62601483612119565b9150612f6d82612f2c565b602082019050919050565b60006020820190508181036000830152612f9181612f55565b9050919050565b7f5061757361626c653a2070617573656400000000000000000000000000000000600082015250565b6000612fce601083612119565b9150612fd982612f98565b602082019050919050565b60006020820190508181036000830152612ffd81612fc1565b9050919050565b7f4e487b7100000000000000000000000000000000000000000000000000000000600052603260045260246000fd5b7f45524332305061757361626c653a20746f6b656e207472616e7366657220776860008201527f696c652070617573656400000000000000000000000000000000000000000000602082015250565b600061308f602a83612119565b915061309a82613033565b604082019050919050565b600060208201905081810360008301526130be81613082565b9050919050565b60006130d08261221e565b91506130db8361221e565b92508282026130e98161221e565b91508282048414831517613100576130ff61269d565b5b5092915050565b7f4e487b7100000000000000000000000000000000000000000000000000000000600052604160045260246000fd5b60006131418261221e565b9150600082036131545761315361269d565b5b600182039050919050565b7f537472696e67733a20686578206c656e67746820696e73756666696369656e74600082015250565b6000613195602083612119565b91506131a08261315f565b602082019050919050565b600060208201905081810360008301526131c481613188565b9050919050565b60006131d68261221e565b91506131e18361221e565b92508282039050818111156131f9576131f861269d565b5b92915050565b7f4e487b7100000000000000000000000000000000000000000000000000000000600052603160045260246000fdfea264697066735822122085be590fcd27af24982116d9f60fa42a00c725b7ba15ba740f13e78af698fedf64736f6c63430008140033",
  "linkReferences": {},
  "deployedLinkReferences": {}
}