{
  "_format": "hh-sol-artifact-1",
  "contractName": "GovCaller",
  "sourceName": "solidity/precompiles/gov/testdata/GovCaller.sol",
  "abi": [
    {
      "inputs": [
        {
          "internalType": "string",
          "name": "paramsType",
          "type": "string"
        }
      ],
      "name": "getParams",
      "outputs": [
        {
          "components": [
            {
              "internalType": "int64",
              "name": "votingPeriod",
              "type": "int64"
            },
            {
              "components": [
                {
                  "internalType": "string",
                  "name": "denom",
                  "type": "string"
                },
                {
                  "internalType": "uint256",
                  "name": "amount",
                  "type": "uint256"
                }
              ],
              "internalType": "struct Coin[]",
              "name": "minDeposit",
              "type": "tuple[]"
            },
            {
              "internalType": "int64",
              "name": "maxDepositPeriod",
              "type": "int64"
            },
            {
              "internalType": "string",
              "name": "quorum",
              "type": "string"
            },
            {
              "internalType": "string",
              "name": "threshold",
              "type": "string"
            },
            {
              "internalType": "string",
              "name": "vetoThreshold",
              "type": "string"
            },
            {
              "internalType": "string",
              "name": "minInitialDepositRatio",
              "type": "string"
            },
            {
              "internalType": "string",
              "name": "proposalCancelRatio",
              "type": "string"
            },
            {
              "internalType": "string",
              "name": "proposalCancelDest",
              "type": "string"
            },
            {
              "internalType": "int64",
              "name": "expeditedVotingPeriod",
              "type": "int64"
            },
            {
              "internalType": "string",
              "name": "expeditedThreshold",
              "type": "string"
            },
            {
              "components": [
                {
                  "internalType": "string",
                  "name": "denom",
                  "type": "string"
                },
                {
                  "internalType": "uint256",
                  "name": "amount",
                  "type": "uint256"
                }
              ],
              "internalType": "struct Coin[]",
              "name": "expeditedMinDeposit",
              "type": "tuple[]"
            },
            {
              "internalType": "bool",
              "name": "burnVoteQuorum",
              "type": "bool"
            },
            {
              "internalType": "bool",
              "name": "burnProposalDepositPrevote",
              "type": "bool"
            },
            {
              "internalType": "bool",
              "name": "burnVoteVeto",
              "type": "bool"
            },
            {
              "internalType": "string",
              "name": "minDepositRatio",
              "type": "string"
            }
          ],
          "internalType": "struct Params",
          "name": "params",
          "type": "tuple"
        }
      ],
      "stateMutability": "view",
      "type": "function"
    }
  ],
  "bytecode": "0x608060405234801561001057600080fd5b50610c5b806100206000396000f3fe608060405234801561001057600080fd5b506004361061002b5760003560e01c8063701a7a1d14610030575b600080fd5b61004a600480360381019061004591906101f8565b610060565b60405161005791906105bb565b60405180910390f35b6100686100f3565b61080573ffffffffffffffffffffffffffffffffffffffff1663701a7a1d84846040518363ffffffff1660e01b81526004016100a592919061062a565b600060405180830381865afa1580156100c2573d6000803e3d6000fd5b505050506040513d6000823e3d601f19601f820116820180604052508101906100eb9190610bdc565b905092915050565b604051806102000160405280600060070b815260200160608152602001600060070b8152602001606081526020016060815260200160608152602001606081526020016060815260200160608152602001600060070b81526020016060815260200160608152602001600015158152602001600015158152602001600015158152602001606081525090565b6000604051905090565b600080fd5b600080fd5b600080fd5b600080fd5b600080fd5b60008083601f8401126101b8576101b7610193565b5b8235905067ffffffffffffffff8111156101d5576101d4610198565b5b6020830191508360018202830111156101f1576101f061019d565b5b9250929050565b6000806020838503121561020f5761020e610189565b5b600083013567ffffffffffffffff81111561022d5761022c61018e565b5b610239858286016101a2565b92509250509250929050565b60008160070b9050919050565b61025b81610245565b82525050565b600081519050919050565b600082825260208201905092915050565b6000819050602082019050919050565b600081519050919050565b600082825260208201905092915050565b60005b838110156102c75780820151818401526020810190506102ac565b60008484015250505050565b6000601f19601f8301169050919050565b60006102ef8261028d565b6102f98185610298565b93506103098185602086016102a9565b610312816102d3565b840191505092915050565b6000819050919050565b6103308161031d565b82525050565b6000604083016000830151848203600086015261035382826102e4565b91505060208301516103686020860182610327565b508091505092915050565b600061037f8383610336565b905092915050565b6000602082019050919050565b600061039f82610261565b6103a9818561026c565b9350836020820285016103bb8561027d565b8060005b858110156103f757848403895281516103d88582610373565b94506103e383610387565b925060208a019950506001810190506103bf565b50829750879550505050505092915050565b60008115159050919050565b61041e81610409565b82525050565b60006102008301600083015161043d6000860182610252565b50602083015184820360208601526104558282610394565b915050604083015161046a6040860182610252565b506060830151848203606086015261048282826102e4565b9150506080830151848203608086015261049c82826102e4565b91505060a083015184820360a08601526104b682826102e4565b91505060c083015184820360c08601526104d082826102e4565b91505060e083015184820360e08601526104ea82826102e4565b91505061010083015184820361010086015261050682826102e4565b91505061012083015161051d610120860182610252565b5061014083015184820361014086015261053782826102e4565b9150506101608301518482036101608601526105538282610394565b91505061018083015161056a610180860182610415565b506101a083015161057f6101a0860182610415565b506101c08301516105946101c0860182610415565b506101e08301518482036101e08601526105ae82826102e4565b9150508091505092915050565b600060208201905081810360008301526105d58184610424565b905092915050565b600082825260208201905092915050565b82818337600083830152505050565b600061060983856105dd565b93506106168385846105ee565b61061f836102d3565b840190509392505050565b600060208201905081810360008301526106458184866105fd565b90509392505050565b600080fd5b7f4e487b7100000000000000000000000000000000000000000000000000000000600052604160045260246000fd5b61068b826102d3565b810181811067ffffffffffffffff821117156106aa576106a9610653565b5b80604052505050565b60006106bd61017f565b90506106c98282610682565b919050565b600080fd5b6106dc81610245565b81146106e757600080fd5b50565b6000815190506106f9816106d3565b92915050565b600067ffffffffffffffff82111561071a57610719610653565b5b602082029050602081019050919050565b600080fd5b600067ffffffffffffffff82111561074b5761074a610653565b5b610754826102d3565b9050602081019050919050565b600061077461076f84610730565b6106b3565b9050828152602081018484840111156107905761078f61072b565b5b61079b8482856102a9565b509392505050565b600082601f8301126107b8576107b7610193565b5b81516107c8848260208601610761565b91505092915050565b6107da8161031d565b81146107e557600080fd5b50565b6000815190506107f7816107d1565b92915050565b6000604082840312156108135761081261064e565b5b61081d60406106b3565b9050600082015167ffffffffffffffff81111561083d5761083c6106ce565b5b610849848285016107a3565b600083015250602061085d848285016107e8565b60208301525092915050565b600061087c610877846106ff565b6106b3565b9050808382526020820190506020840283018581111561089f5761089e61019d565b5b835b818110156108e657805167ffffffffffffffff8111156108c4576108c3610193565b5b8086016108d189826107fd565b855260208501945050506020810190506108a1565b5050509392505050565b600082601f83011261090557610904610193565b5b8151610915848260208601610869565b91505092915050565b61092781610409565b811461093257600080fd5b50565b6000815190506109448161091e565b92915050565b600061020082840312156109615761096061064e565b5b61096c6102006106b3565b9050600061097c848285016106ea565b600083015250602082015167ffffffffffffffff8111156109a05761099f6106ce565b5b6109ac848285016108f0565b60208301525060406109c0848285016106ea565b604083015250606082015167ffffffffffffffff8111156109e4576109e36106ce565b5b6109f0848285016107a3565b606083015250608082015167ffffffffffffffff811115610a1457610a136106ce565b5b610a20848285016107a3565b60808301525060a082015167ffffffffffffffff811115610a4457610a436106ce565b5b610a50848285016107a3565b60a08301525060c082015167ffffffffffffffff811115610a7457610a736106ce565b5b610a80848285016107a3565b60c08301525060e082015167ffffffffffffffff811115610aa457610aa36106ce565b5b610ab0848285016107a3565b60e08301525061010082015167ffffffffffffffff811115610ad557610ad46106ce565b5b610ae1848285016107a3565b61010083015250610120610af7848285016106ea565b6101208301525061014082015167ffffffffffffffff811115610b1d57610b1c6106ce565b5b610b29848285016107a3565b6101408301525061016082015167ffffffffffffffff811115610b4f57610b4e6106ce565b5b610b5b848285016108f0565b61016083015250610180610b7184828501610935565b610180830152506101a0610b8784828501610935565b6101a0830152506101c0610b9d84828501610935565b6101c0830152506101e082015167ffffffffffffffff811115610bc357610bc26106ce565b5b610bcf848285016107a3565b6101e08301525092915050565b600060208284031215610bf257610bf1610189565b5b600082015167ffffffffffffffff811115610c1057610c0f61018e565b5b610c1c8482850161094a565b9150509291505056fea2646970667358221220390feb5981a455ae0409b9de0f57b120c06f18af6babac459129319a2d19d02264736f6c63430008140033",
  "linkReferences": {},
  "deployedLinkReferences": {}
}