{
  "_format": "hh-sol-artifact-1",
  "contractName": "GovCaller",
  "sourceName": "solidity/precompiles/gov/testdata/GovCaller.sol",
  "abi": [
    {
      "inputs": [],
      "name": "getParams",
      "outputs": [
        {
          "components": [
            {
              "internalType": "int64",
              "name": "votingPeriod",
              "type": "int64"
            },
            {
              "components": [
                {
                  "internalType": "string",
                  "name": "denom",
                  "type": "string"
                },
                {
                  "internalType": "uint256",
                  "name": "amount",
                  "type": "uint256"
                }
              ],
              "internalType": "struct Coin[]",
              "name": "minDeposit",
              "type": "tuple[]"
            },
            {
              "internalType": "int64",
              "name": "maxDepositPeriod",
              "type": "int64"
            },
            {
              "internalType": "string",
              "name": "quorum",
              "type": "string"
            },
            {
              "internalType": "string",
              "name": "threshold",
              "type": "string"
            },
            {
              "internalType": "string",
              "name": "vetoThreshold",
              "type": "string"
            },
            {
              "internalType": "string",
              "name": "minInitialDepositRatio",
              "type": "string"
            },
            {
              "internalType": "string",
              "name": "proposalCancelRatio",
              "type": "string"
            },
            {
              "internalType": "string",
              "name": "proposalCancelDest",
              "type": "string"
            },
            {
              "internalType": "int64",
              "name": "expeditedVotingPeriod",
              "type": "int64"
            },
            {
              "internalType": "string",
              "name": "expeditedThreshold",
              "type": "string"
            },
            {
              "components": [
                {
                  "internalType": "string",
                  "name": "denom",
                  "type": "string"
                },
                {
                  "internalType": "uint256",
                  "name": "amount",
                  "type": "uint256"
                }
              ],
              "internalType": "struct Coin[]",
              "name": "expeditedMinDeposit",
              "type": "tuple[]"
            },
            {
              "internalType": "bool",
              "name": "burnVoteQuorum",
              "type": "bool"
            },
            {
              "internalType": "bool",
              "name": "burnProposalDepositPrevote",
              "type": "bool"
            },
            {
              "internalType": "bool",
              "name": "burnVoteVeto",
              "type": "bool"
            },
            {
              "internalType": "string",
              "name": "minDepositRatio",
              "type": "string"
            }
          ],
          "internalType": "struct Params",
          "name": "params",
          "type": "tuple"
        }
      ],
      "stateMutability": "view",
      "type": "function"
    }
  ],
  "bytecode": "0x608060405234801561001057600080fd5b50610b20806100206000396000f3fe608060405234801561001057600080fd5b506004361061002b5760003560e01c80635e615a6b14610030575b600080fd5b61003861004e565b60405161004591906104d3565b60405180910390f35b6100566100d1565b61080573ffffffffffffffffffffffffffffffffffffffff16635e615a6b6040518163ffffffff1660e01b8152600401600060405180830381865afa1580156100a3573d6000803e3d6000fd5b505050506040513d6000823e3d601f19601f820116820180604052508101906100cc9190610aa1565b905090565b604051806102000160405280600060070b815260200160608152602001600060070b8152602001606081526020016060815260200160608152602001606081526020016060815260200160608152602001600060070b81526020016060815260200160608152602001600015158152602001600015158152602001600015158152602001606081525090565b60008160070b9050919050565b6101738161015d565b82525050565b600081519050919050565b600082825260208201905092915050565b6000819050602082019050919050565b600081519050919050565b600082825260208201905092915050565b60005b838110156101df5780820151818401526020810190506101c4565b60008484015250505050565b6000601f19601f8301169050919050565b6000610207826101a5565b61021181856101b0565b93506102218185602086016101c1565b61022a816101eb565b840191505092915050565b6000819050919050565b61024881610235565b82525050565b6000604083016000830151848203600086015261026b82826101fc565b9150506020830151610280602086018261023f565b508091505092915050565b6000610297838361024e565b905092915050565b6000602082019050919050565b60006102b782610179565b6102c18185610184565b9350836020820285016102d385610195565b8060005b8581101561030f57848403895281516102f0858261028b565b94506102fb8361029f565b925060208a019950506001810190506102d7565b50829750879550505050505092915050565b60008115159050919050565b61033681610321565b82525050565b600061020083016000830151610355600086018261016a565b506020830151848203602086015261036d82826102ac565b9150506040830151610382604086018261016a565b506060830151848203606086015261039a82826101fc565b915050608083015184820360808601526103b482826101fc565b91505060a083015184820360a08601526103ce82826101fc565b91505060c083015184820360c08601526103e882826101fc565b91505060e083015184820360e086015261040282826101fc565b91505061010083015184820361010086015261041e82826101fc565b91505061012083015161043561012086018261016a565b5061014083015184820361014086015261044f82826101fc565b91505061016083015184820361016086015261046b82826102ac565b91505061018083015161048261018086018261032d565b506101a08301516104976101a086018261032d565b506101c08301516104ac6101c086018261032d565b506101e08301518482036101e08601526104c682826101fc565b9150508091505092915050565b600060208201905081810360008301526104ed818461033c565b905092915050565b6000604051905090565b600080fd5b600080fd5b600080fd5b7f4e487b7100000000000000000000000000000000000000000000000000000000600052604160045260246000fd5b610546826101eb565b810181811067ffffffffffffffff821117156105655761056461050e565b5b80604052505050565b60006105786104f5565b9050610584828261053d565b919050565b600080fd5b6105978161015d565b81146105a257600080fd5b50565b6000815190506105b48161058e565b92915050565b600080fd5b600067ffffffffffffffff8211156105da576105d961050e565b5b602082029050602081019050919050565b600080fd5b600080fd5b600067ffffffffffffffff8211156106105761060f61050e565b5b610619826101eb565b9050602081019050919050565b6000610639610634846105f5565b61056e565b905082815260208101848484011115610655576106546105f0565b5b6106608482856101c1565b509392505050565b600082601f83011261067d5761067c6105ba565b5b815161068d848260208601610626565b91505092915050565b61069f81610235565b81146106aa57600080fd5b50565b6000815190506106bc81610696565b92915050565b6000604082840312156106d8576106d7610509565b5b6106e2604061056e565b9050600082015167ffffffffffffffff81111561070257610701610589565b5b61070e84828501610668565b6000830152506020610722848285016106ad565b60208301525092915050565b600061074161073c846105bf565b61056e565b90508083825260208201905060208402830185811115610764576107636105eb565b5b835b818110156107ab57805167ffffffffffffffff811115610789576107886105ba565b5b80860161079689826106c2565b85526020850194505050602081019050610766565b5050509392505050565b600082601f8301126107ca576107c96105ba565b5b81516107da84826020860161072e565b91505092915050565b6107ec81610321565b81146107f757600080fd5b50565b600081519050610809816107e3565b92915050565b6000610200828403121561082657610825610509565b5b61083161020061056e565b90506000610841848285016105a5565b600083015250602082015167ffffffffffffffff81111561086557610864610589565b5b610871848285016107b5565b6020830152506040610885848285016105a5565b604083015250606082015167ffffffffffffffff8111156108a9576108a8610589565b5b6108b584828501610668565b606083015250608082015167ffffffffffffffff8111156108d9576108d8610589565b5b6108e584828501610668565b60808301525060a082015167ffffffffffffffff81111561090957610908610589565b5b61091584828501610668565b60a08301525060c082015167ffffffffffffffff81111561093957610938610589565b5b61094584828501610668565b60c08301525060e082015167ffffffffffffffff81111561096957610968610589565b5b61097584828501610668565b60e08301525061010082015167ffffffffffffffff81111561099a57610999610589565b5b6109a684828501610668565b610100830152506101206109bc848285016105a5565b6101208301525061014082015167ffffffffffffffff8111156109e2576109e1610589565b5b6109ee84828501610668565b6101408301525061016082015167ffffffffffffffff811115610a1457610a13610589565b5b610a20848285016107b5565b61016083015250610180610a36848285016107fa565b610180830152506101a0610a4c848285016107fa565b6101a0830152506101c0610a62848285016107fa565b6101c0830152506101e082015167ffffffffffffffff811115610a8857610a87610589565b5b610a9484828501610668565b6101e08301525092915050565b600060208284031215610ab757610ab66104ff565b5b600082015167ffffffffffffffff811115610ad557610ad4610504565b5b610ae18482850161080f565b9150509291505056fea2646970667358221220ef70f6cc09cfd814baf88d1053e659c26a578f375ef1dbf3319576c02d3a28e164736f6c63430008140033",
  "linkReferences": {},
  "deployedLinkReferences": {}
}