{
  "_format": "hh-sol-artifact-1",
  "contractName": "VestingCaller",
  "sourceName": "solidity/precompiles/vesting/testdata/VestingCaller.sol",
  "abi": [
    {
      "inputs": [
        {
          "internalType": "address",
          "name": "vestingAddr",
          "type": "address"
        }
      ],
      "name": "balances",
      "outputs": [
        {
          "components": [
            {
              "internalType": "string",
              "name": "denom",
              "type": "string"
            },
            {
              "internalType": "uint256",
              "name": "amount",
              "type": "uint256"
            }
          ],
          "internalType": "struct Coin[]",
          "name": "locked",
          "type": "tuple[]"
        },
        {
          "components": [
            {
              "internalType": "string",
              "name": "denom",
              "type": "string"
            },
            {
              "internalType": "uint256",
              "name": "amount",
              "type": "uint256"
            }
          ],
          "internalType": "struct Coin[]",
          "name": "unvested",
          "type": "tuple[]"
        },
        {
          "components": [
            {
              "internalType": "string",
              "name": "denom",
              "type": "string"
            },
            {
              "internalType": "uint256",
              "name": "amount",
              "type": "uint256"
            }
          ],
          "internalType": "struct Coin[]",
          "name": "vested",
          "type": "tuple[]"
        }
      ],
      "stateMutability": "view",
      "type": "function"
    },
    {
      "inputs": [
        {
          "internalType": "address",
          "name": "funder",
          "type": "address"
        },
        {
          "internalType": "address",
          "name": "account",
          "type": "address"
        },
        {
          "internalType": "address",
          "name": "dest",
          "type": "address"
        }
      ],
      "name": "clawback",
      "outputs": [
        {
          "components": [
            {
              "internalType": "string",
              "name": "denom",
              "type": "string"
            },
            {
              "internalType": "uint256",
              "name": "amount",
              "type": "uint256"
            }
          ],
          "internalType": "struct Coin[]",
          "name": "coins",
          "type": "tuple[]"
        }
      ],
      "stateMutability": "nonpayable",
      "type": "function"
    },
    {
      "inputs": [
        {
          "internalType": "address",
          "name": "vestingAddr",
          "type": "address"
        }
      ],
      "name": "convertVestingAccount",
      "outputs": [],
      "stateMutability": "nonpayable",
      "type": "function"
    },
    {
      "inputs": [
        {
          "internalType": "address",
          "name": "funder",
          "type": "address"
        },
        {
          "internalType": "address",
          "name": "to",
          "type": "address"
        },
        {
          "internalType": "bool",
          "name": "enableGovClawback",
          "type": "bool"
        }
      ],
      "name": "createClawbackVestingAccount",
      "outputs": [],
      "stateMutability": "nonpayable",
      "type": "function"
    },
    {
      "inputs": [],
      "name": "createClawbackVestingAccountForContract",
      "outputs": [],
      "stateMutability": "nonpayable",
      "type": "function"
    },
    {
      "inputs": [
        {
          "internalType": "address",
          "name": "funder",
          "type": "address"
        },
        {
          "internalType": "address",
          "name": "to",
          "type": "address"
        },
        {
          "internalType": "uint64",
          "name": "startTime",
          "type": "uint64"
        },
        {
          "components": [
            {
              "internalType": "int64",
              "name": "length",
              "type": "int64"
            },
            {
              "components": [
                {
                  "internalType": "string",
                  "name": "denom",
                  "type": "string"
                },
                {
                  "internalType": "uint256",
                  "name": "amount",
                  "type": "uint256"
                }
              ],
              "internalType": "struct Coin[]",
              "name": "amount",
              "type": "tuple[]"
            }
          ],
          "internalType": "struct Period[]",
          "name": "lockupPeriods",
          "type": "tuple[]"
        },
        {
          "components": [
            {
              "internalType": "int64",
              "name": "length",
              "type": "int64"
            },
            {
              "components": [
                {
                  "internalType": "string",
                  "name": "denom",
                  "type": "string"
                },
                {
                  "internalType": "uint256",
                  "name": "amount",
                  "type": "uint256"
                }
              ],
              "internalType": "struct Coin[]",
              "name": "amount",
              "type": "tuple[]"
            }
          ],
          "internalType": "struct Period[]",
          "name": "vestingPeriods",
          "type": "tuple[]"
        }
      ],
      "name": "fundVestingAccount",
      "outputs": [],
      "stateMutability": "nonpayable",
      "type": "function"
    },
    {
      "inputs": [
        {
          "internalType": "address",
          "name": "funder",
          "type": "address"
        },
        {
          "internalType": "address",
          "name": "newFunder",
          "type": "address"
        },
        {
          "internalType": "address",
          "name": "vestingAddr",
          "type": "address"
        }
      ],
      "name": "updateVestingFunder",
      "outputs": [],
      "stateMutability": "nonpayable",
      "type": "function"
    }
  ],
  "bytecode": "0x608060405234801561001057600080fd5b50611707806100206000396000f3fe608060405234801561001057600080fd5b506004361061007d5760003560e01c806372e7c9ab1161005b57806372e7c9ab146100ec5780637caef81b1461011c5780639cfef12914610126578063cdb50175146101425761007d565b806327e235e3146100825780634fe1a8df146100b45780635a211064146100d0575b600080fd5b61009c600480360381019061009791906106f5565b61015e565b6040516100ab939291906108ca565b60405180910390f35b6100ce60048036038101906100c991906109bb565b6101f1565b005b6100ea60048036038101906100e591906106f5565b6102c9565b005b61010660048036038101906101019190610a77565b61038f565b6040516101139190610aca565b60405180910390f35b610124610421565b005b610140600480360381019061013b9190610a77565b6104eb565b005b61015c60048036038101906101579190610b24565b6105b7565b005b606080606061080373ffffffffffffffffffffffffffffffffffffffff166327e235e3856040518263ffffffff1660e01b815260040161019e9190610b86565b600060405180830381865afa1580156101bb573d6000803e3d6000fd5b505050506040513d6000823e3d601f19601f820116820180604052508101906101e49190610e45565b9250925092509193909250565b600061080373ffffffffffffffffffffffffffffffffffffffff16634fe1a8df898989898989896040518863ffffffff1660e01b815260040161023a97969594939291906112e5565b6020604051808303816000875af1158015610259573d6000803e3d6000fd5b505050506040513d601f19601f8201168201806040525081019061027d919061135f565b9050806102bf576040517f08c379a00000000000000000000000000000000000000000000000000000000081526004016102b69061140f565b60405180910390fd5b5050505050505050565b600061080373ffffffffffffffffffffffffffffffffffffffff16635a211064836040518263ffffffff1660e01b81526004016103069190610b86565b6020604051808303816000875af1158015610325573d6000803e3d6000fd5b505050506040513d601f19601f82011682018060405250810190610349919061135f565b90508061038b576040517f08c379a0000000000000000000000000000000000000000000000000000000008152600401610382906114a1565b60405180910390fd5b5050565b606061080373ffffffffffffffffffffffffffffffffffffffff166372e7c9ab8585856040518463ffffffff1660e01b81526004016103d0939291906114c1565b6000604051808303816000875af11580156103ef573d6000803e3d6000fd5b505050506040513d6000823e3d601f19601f8201168201806040525081019061041891906114f8565b90509392505050565b600061080373ffffffffffffffffffffffffffffffffffffffff1663cdb50175333060006040518463ffffffff1660e01b815260040161046393929190611550565b6020604051808303816000875af1158015610482573d6000803e3d6000fd5b505050506040513d601f19601f820116820180604052508101906104a6919061135f565b9050806104e8576040517f08c379a00000000000000000000000000000000000000000000000000000000081526004016104df9061161f565b60405180910390fd5b50565b600061080373ffffffffffffffffffffffffffffffffffffffff16639cfef1298585856040518463ffffffff1660e01b815260040161052c939291906114c1565b6020604051808303816000875af115801561054b573d6000803e3d6000fd5b505050506040513d601f19601f8201168201806040525081019061056f919061135f565b9050806105b1576040517f08c379a00000000000000000000000000000000000000000000000000000000081526004016105a8906116b1565b60405180910390fd5b50505050565b600061080373ffffffffffffffffffffffffffffffffffffffff1663cdb501758585856040518463ffffffff1660e01b81526004016105f893929190611550565b6020604051808303816000875af1158015610617573d6000803e3d6000fd5b505050506040513d601f19601f8201168201806040525081019061063b919061135f565b90508061067d576040517f08c379a00000000000000000000000000000000000000000000000000000000081526004016106749061140f565b60405180910390fd5b50505050565b6000604051905090565b600080fd5b600080fd5b600073ffffffffffffffffffffffffffffffffffffffff82169050919050565b60006106c282610697565b9050919050565b6106d2816106b7565b81146106dd57600080fd5b50565b6000813590506106ef816106c9565b92915050565b60006020828403121561070b5761070a61068d565b5b6000610719848285016106e0565b91505092915050565b600081519050919050565b600082825260208201905092915050565b6000819050602082019050919050565b600081519050919050565b600082825260208201905092915050565b60005b8381101561078857808201518184015260208101905061076d565b60008484015250505050565b6000601f19601f8301169050919050565b60006107b08261074e565b6107ba8185610759565b93506107ca81856020860161076a565b6107d381610794565b840191505092915050565b6000819050919050565b6107f1816107de565b82525050565b6000604083016000830151848203600086015261081482826107a5565b915050602083015161082960208601826107e8565b508091505092915050565b600061084083836107f7565b905092915050565b6000602082019050919050565b600061086082610722565b61086a818561072d565b93508360208202850161087c8561073e565b8060005b858110156108b857848403895281516108998582610834565b94506108a483610848565b925060208a01995050600181019050610880565b50829750879550505050505092915050565b600060608201905081810360008301526108e48186610855565b905081810360208301526108f88185610855565b9050818103604083015261090c8184610855565b9050949350505050565b600067ffffffffffffffff82169050919050565b61093381610916565b811461093e57600080fd5b50565b6000813590506109508161092a565b92915050565b600080fd5b600080fd5b600080fd5b60008083601f84011261097b5761097a610956565b5b8235905067ffffffffffffffff8111156109985761099761095b565b5b6020830191508360208202830111156109b4576109b3610960565b5b9250929050565b600080600080600080600060a0888a0312156109da576109d961068d565b5b60006109e88a828b016106e0565b97505060206109f98a828b016106e0565b9650506040610a0a8a828b01610941565b955050606088013567ffffffffffffffff811115610a2b57610a2a610692565b5b610a378a828b01610965565b9450945050608088013567ffffffffffffffff811115610a5a57610a59610692565b5b610a668a828b01610965565b925092505092959891949750929550565b600080600060608486031215610a9057610a8f61068d565b5b6000610a9e868287016106e0565b9350506020610aaf868287016106e0565b9250506040610ac0868287016106e0565b9150509250925092565b60006020820190508181036000830152610ae48184610855565b905092915050565b60008115159050919050565b610b0181610aec565b8114610b0c57600080fd5b50565b600081359050610b1e81610af8565b92915050565b600080600060608486031215610b3d57610b3c61068d565b5b6000610b4b868287016106e0565b9350506020610b5c868287016106e0565b9250506040610b6d86828701610b0f565b9150509250925092565b610b80816106b7565b82525050565b6000602082019050610b9b6000830184610b77565b92915050565b7f4e487b7100000000000000000000000000000000000000000000000000000000600052604160045260246000fd5b610bd982610794565b810181811067ffffffffffffffff82111715610bf857610bf7610ba1565b5b80604052505050565b6000610c0b610683565b9050610c178282610bd0565b919050565b600067ffffffffffffffff821115610c3757610c36610ba1565b5b602082029050602081019050919050565b600080fd5b600080fd5b600080fd5b600067ffffffffffffffff821115610c7257610c71610ba1565b5b610c7b82610794565b9050602081019050919050565b6000610c9b610c9684610c57565b610c01565b905082815260208101848484011115610cb757610cb6610c52565b5b610cc284828561076a565b509392505050565b600082601f830112610cdf57610cde610956565b5b8151610cef848260208601610c88565b91505092915050565b610d01816107de565b8114610d0c57600080fd5b50565b600081519050610d1e81610cf8565b92915050565b600060408284031215610d3a57610d39610c48565b5b610d446040610c01565b9050600082015167ffffffffffffffff811115610d6457610d63610c4d565b5b610d7084828501610cca565b6000830152506020610d8484828501610d0f565b60208301525092915050565b6000610da3610d9e84610c1c565b610c01565b90508083825260208201905060208402830185811115610dc657610dc5610960565b5b835b81811015610e0d57805167ffffffffffffffff811115610deb57610dea610956565b5b808601610df88982610d24565b85526020850194505050602081019050610dc8565b5050509392505050565b600082601f830112610e2c57610e2b610956565b5b8151610e3c848260208601610d90565b91505092915050565b600080600060608486031215610e5e57610e5d61068d565b5b600084015167ffffffffffffffff811115610e7c57610e7b610692565b5b610e8886828701610e17565b935050602084015167ffffffffffffffff811115610ea957610ea8610692565b5b610eb586828701610e17565b925050604084015167ffffffffffffffff811115610ed657610ed5610692565b5b610ee286828701610e17565b9150509250925092565b610ef581610916565b82525050565b600082825260208201905092915050565b6000819050919050565b60008160070b9050919050565b610f2c81610f16565b8114610f3757600080fd5b50565b600081359050610f4981610f23565b92915050565b6000610f5e6020840184610f3a565b905092915050565b610f6f81610f16565b82525050565b600080fd5b600080fd5b600080fd5b60008083356001602003843603038112610fa157610fa0610f7f565b5b83810192508235915060208301925067ffffffffffffffff821115610fc957610fc8610f75565b5b602082023603831315610fdf57610fde610f7a565b5b509250929050565b600082825260208201905092915050565b6000819050919050565b6000808335600160200384360303811261101f5761101e610f7f565b5b83810192508235915060208301925067ffffffffffffffff82111561104757611046610f75565b5b60018202360383131561105d5761105c610f7a565b5b509250929050565b82818337600083830152505050565b60006110808385610759565b935061108d838584611065565b61109683610794565b840190509392505050565b6000813590506110b081610cf8565b92915050565b60006110c560208401846110a1565b905092915050565b6000604083016110e06000840184611002565b85830360008701526110f3838284611074565b9250505061110460208401846110b6565b61111160208601826107e8565b508091505092915050565b600061112883836110cd565b905092915050565b60008235600160400383360303811261114c5761114b610f7f565b5b82810191505092915050565b6000602082019050919050565b60006111718385610fe7565b93508360208402850161118384610ff8565b8060005b878110156111c757848403895261119e8284611130565b6111a8858261111c565b94506111b383611158565b925060208a01995050600181019050611187565b50829750879450505050509392505050565b6000604083016111ec6000840184610f4f565b6111f96000860182610f66565b506112076020840184610f84565b858303602087015261121a838284611165565b925050508091505092915050565b600061123483836111d9565b905092915050565b60008235600160400383360303811261125857611257610f7f565b5b82810191505092915050565b6000602082019050919050565b600061127d8385610efb565b93508360208402850161128f84610f0c565b8060005b878110156112d35784840389526112aa828461123c565b6112b48582611228565b94506112bf83611264565b925060208a01995050600181019050611293565b50829750879450505050509392505050565b600060a0820190506112fa600083018a610b77565b6113076020830189610b77565b6113146040830188610eec565b8181036060830152611327818688611271565b9050818103608083015261133c818486611271565b905098975050505050505050565b60008151905061135981610af8565b92915050565b6000602082840312156113755761137461068d565b5b60006113838482850161134a565b91505092915050565b600082825260208201905092915050565b7f56657374696e6743616c6c65723a2063726561746520636c61776261636b207660008201527f657374696e67206163636f756e74206661696c65640000000000000000000000602082015250565b60006113f960358361138c565b91506114048261139d565b604082019050919050565b60006020820190508181036000830152611428816113ec565b9050919050565b7f56657374696e6743616c6c65723a20636f6e7665727420746f20636c6177626160008201527f636b2076657374696e67206163636f756e74206661696c656400000000000000602082015250565b600061148b60398361138c565b91506114968261142f565b604082019050919050565b600060208201905081810360008301526114ba8161147e565b9050919050565b60006060820190506114d66000830186610b77565b6114e36020830185610b77565b6114f06040830184610b77565b949350505050565b60006020828403121561150e5761150d61068d565b5b600082015167ffffffffffffffff81111561152c5761152b610692565b5b61153884828501610e17565b91505092915050565b61154a81610aec565b82525050565b60006060820190506115656000830186610b77565b6115726020830185610b77565b61157f6040830184611541565b949350505050565b7f56657374696e6743616c6c65723a2063726561746520636c61776261636b207660008201527f657374696e67206163636f756e7420666f7220636f6e7472616374206661696c60208201527f6564000000000000000000000000000000000000000000000000000000000000604082015250565b600061160960428361138c565b915061161482611587565b606082019050919050565b60006020820190508181036000830152611638816115fc565b9050919050565b7f56657374696e6743616c6c65723a207570646174652076657374696e6720667560008201527f6e646572206661696c6564000000000000000000000000000000000000000000602082015250565b600061169b602b8361138c565b91506116a68261163f565b604082019050919050565b600060208201905081810360008301526116ca8161168e565b905091905056fea2646970667358221220b5591174fd0eae8c3194a72e4046b55353e35d6f0b4613d06bca7876629b922764736f6c63430008130033",
  "linkReferences": {},
  "deployedLinkReferences": {}
}