{
  "_format": "hh-sol-artifact-1",
  "contractName": "VestingCaller",
  "sourceName": "solidity/precompiles/vesting/testdata/VestingCaller.sol",
  "abi": [
    {
      "inputs": [
        {
          "internalType": "address",
          "name": "vestingAddr",
          "type": "address"
        }
      ],
      "name": "balances",
      "outputs": [
        {
          "components": [
            {
              "internalType": "string",
              "name": "denom",
              "type": "string"
            },
            {
              "internalType": "uint256",
              "name": "amount",
              "type": "uint256"
            }
          ],
          "internalType": "struct Coin[]",
          "name": "locked",
          "type": "tuple[]"
        },
        {
          "components": [
            {
              "internalType": "string",
              "name": "denom",
              "type": "string"
            },
            {
              "internalType": "uint256",
              "name": "amount",
              "type": "uint256"
            }
          ],
          "internalType": "struct Coin[]",
          "name": "unvested",
          "type": "tuple[]"
        },
        {
          "components": [
            {
              "internalType": "string",
              "name": "denom",
              "type": "string"
            },
            {
              "internalType": "uint256",
              "name": "amount",
              "type": "uint256"
            }
          ],
          "internalType": "struct Coin[]",
          "name": "vested",
          "type": "tuple[]"
        }
      ],
      "stateMutability": "view",
      "type": "function"
    },
    {
      "inputs": [
        {
          "internalType": "address",
          "name": "funder",
          "type": "address"
        },
        {
          "internalType": "address",
          "name": "account",
          "type": "address"
        },
        {
          "internalType": "address",
          "name": "dest",
          "type": "address"
        }
      ],
      "name": "clawback",
      "outputs": [
        {
          "components": [
            {
              "internalType": "string",
              "name": "denom",
              "type": "string"
            },
            {
              "internalType": "uint256",
              "name": "amount",
              "type": "uint256"
            }
          ],
          "internalType": "struct Coin[]",
          "name": "coins",
          "type": "tuple[]"
        }
      ],
      "stateMutability": "nonpayable",
      "type": "function"
    },
    {
      "inputs": [
        {
          "internalType": "address",
          "name": "funder",
          "type": "address"
        },
        {
          "internalType": "address",
          "name": "account",
          "type": "address"
        },
        {
          "internalType": "address",
          "name": "dest",
          "type": "address"
        }
      ],
      "name": "clawbackWithCounterCall",
      "outputs": [
        {
          "components": [
            {
              "internalType": "string",
              "name": "denom",
              "type": "string"
            },
            {
              "internalType": "uint256",
              "name": "amount",
              "type": "uint256"
            }
          ],
          "internalType": "struct Coin[]",
          "name": "coins",
          "type": "tuple[]"
        }
      ],
      "stateMutability": "nonpayable",
      "type": "function"
    },
    {
      "inputs": [
        {
          "internalType": "address",
          "name": "funder",
          "type": "address"
        },
        {
          "internalType": "address",
          "name": "account",
          "type": "address"
        },
        {
          "internalType": "address",
          "name": "dest",
          "type": "address"
        },
        {
          "internalType": "bool",
          "name": "before",
          "type": "bool"
        }
      ],
      "name": "clawbackWithRevert",
      "outputs": [
        {
          "components": [
            {
              "internalType": "string",
              "name": "denom",
              "type": "string"
            },
            {
              "internalType": "uint256",
              "name": "amount",
              "type": "uint256"
            }
          ],
          "internalType": "struct Coin[]",
          "name": "coins",
          "type": "tuple[]"
        }
      ],
      "stateMutability": "nonpayable",
      "type": "function"
    },
    {
      "inputs": [
        {
          "internalType": "address",
          "name": "funder",
          "type": "address"
        },
        {
          "internalType": "address",
          "name": "account",
          "type": "address"
        },
        {
          "internalType": "address",
          "name": "dest",
          "type": "address"
        },
        {
          "internalType": "address payable",
          "name": "_transferTo",
          "type": "address"
        },
        {
          "internalType": "bool",
          "name": "_before",
          "type": "bool"
        },
        {
          "internalType": "bool",
          "name": "_after",
          "type": "bool"
        }
      ],
      "name": "clawbackWithTransfer",
      "outputs": [
        {
          "components": [
            {
              "internalType": "string",
              "name": "denom",
              "type": "string"
            },
            {
              "internalType": "uint256",
              "name": "amount",
              "type": "uint256"
            }
          ],
          "internalType": "struct Coin[]",
          "name": "coins",
          "type": "tuple[]"
        }
      ],
      "stateMutability": "nonpayable",
      "type": "function"
    },
    {
      "inputs": [
        {
          "internalType": "address",
          "name": "vestingAddr",
          "type": "address"
        }
      ],
      "name": "convertVestingAccount",
      "outputs": [],
      "stateMutability": "nonpayable",
      "type": "function"
    },
    {
      "inputs": [],
      "name": "counter",
      "outputs": [
        {
          "internalType": "uint256",
          "name": "",
          "type": "uint256"
        }
      ],
      "stateMutability": "view",
      "type": "function"
    },
    {
      "inputs": [
        {
          "internalType": "address",
          "name": "funder",
          "type": "address"
        },
        {
          "internalType": "address",
          "name": "to",
          "type": "address"
        },
        {
          "internalType": "bool",
          "name": "enableGovClawback",
          "type": "bool"
        }
      ],
      "name": "createClawbackVestingAccount",
      "outputs": [],
      "stateMutability": "nonpayable",
      "type": "function"
    },
    {
      "inputs": [],
      "name": "createClawbackVestingAccountForContract",
      "outputs": [],
      "stateMutability": "nonpayable",
      "type": "function"
    },
    {
      "inputs": [
        {
          "internalType": "address",
          "name": "funder",
          "type": "address"
        },
        {
          "internalType": "address",
          "name": "to",
          "type": "address"
        },
        {
          "internalType": "uint64",
          "name": "startTime",
          "type": "uint64"
        },
        {
          "components": [
            {
              "internalType": "int64",
              "name": "length",
              "type": "int64"
            },
            {
              "components": [
                {
                  "internalType": "string",
                  "name": "denom",
                  "type": "string"
                },
                {
                  "internalType": "uint256",
                  "name": "amount",
                  "type": "uint256"
                }
              ],
              "internalType": "struct Coin[]",
              "name": "amount",
              "type": "tuple[]"
            }
          ],
          "internalType": "struct Period[]",
          "name": "lockupPeriods",
          "type": "tuple[]"
        },
        {
          "components": [
            {
              "internalType": "int64",
              "name": "length",
              "type": "int64"
            },
            {
              "components": [
                {
                  "internalType": "string",
                  "name": "denom",
                  "type": "string"
                },
                {
                  "internalType": "uint256",
                  "name": "amount",
                  "type": "uint256"
                }
              ],
              "internalType": "struct Coin[]",
              "name": "amount",
              "type": "tuple[]"
            }
          ],
          "internalType": "struct Period[]",
          "name": "vestingPeriods",
          "type": "tuple[]"
        }
      ],
      "name": "fundVestingAccount",
      "outputs": [],
      "stateMutability": "nonpayable",
      "type": "function"
    },
    {
      "inputs": [
        {
          "internalType": "address payable",
          "name": "funder",
          "type": "address"
        },
        {
          "internalType": "address",
          "name": "to",
          "type": "address"
        },
        {
          "internalType": "address payable",
          "name": "_transferTo",
          "type": "address"
        },
        {
          "internalType": "uint64",
          "name": "startTime",
          "type": "uint64"
        },
        {
          "components": [
            {
              "internalType": "int64",
              "name": "length",
              "type": "int64"
            },
            {
              "components": [
                {
                  "internalType": "string",
                  "name": "denom",
                  "type": "string"
                },
                {
                  "internalType": "uint256",
                  "name": "amount",
                  "type": "uint256"
                }
              ],
              "internalType": "struct Coin[]",
              "name": "amount",
              "type": "tuple[]"
            }
          ],
          "internalType": "struct Period[]",
          "name": "lockupPeriods",
          "type": "tuple[]"
        },
        {
          "components": [
            {
              "internalType": "int64",
              "name": "length",
              "type": "int64"
            },
            {
              "components": [
                {
                  "internalType": "string",
                  "name": "denom",
                  "type": "string"
                },
                {
                  "internalType": "uint256",
                  "name": "amount",
                  "type": "uint256"
                }
              ],
              "internalType": "struct Coin[]",
              "name": "amount",
              "type": "tuple[]"
            }
          ],
          "internalType": "struct Period[]",
          "name": "vestingPeriods",
          "type": "tuple[]"
        },
        {
          "internalType": "bool",
          "name": "transferBefore",
          "type": "bool"
        },
        {
          "internalType": "bool",
          "name": "transferAfter",
          "type": "bool"
        }
      ],
      "name": "fundVestingAccountAndTransfer",
      "outputs": [],
      "stateMutability": "nonpayable",
      "type": "function"
    },
    {
      "inputs": [
        {
          "internalType": "address",
          "name": "funder",
          "type": "address"
        },
        {
          "internalType": "address",
          "name": "to",
          "type": "address"
        },
        {
          "internalType": "uint64",
          "name": "startTime",
          "type": "uint64"
        },
        {
          "components": [
            {
              "internalType": "int64",
              "name": "length",
              "type": "int64"
            },
            {
              "components": [
                {
                  "internalType": "string",
                  "name": "denom",
                  "type": "string"
                },
                {
                  "internalType": "uint256",
                  "name": "amount",
                  "type": "uint256"
                }
              ],
              "internalType": "struct Coin[]",
              "name": "amount",
              "type": "tuple[]"
            }
          ],
          "internalType": "struct Period[]",
          "name": "lockupPeriods",
          "type": "tuple[]"
        },
        {
          "components": [
            {
              "internalType": "int64",
              "name": "length",
              "type": "int64"
            },
            {
              "components": [
                {
                  "internalType": "string",
                  "name": "denom",
                  "type": "string"
                },
                {
                  "internalType": "uint256",
                  "name": "amount",
                  "type": "uint256"
                }
              ],
              "internalType": "struct Coin[]",
              "name": "amount",
              "type": "tuple[]"
            }
          ],
          "internalType": "struct Period[]",
          "name": "vestingPeriods",
          "type": "tuple[]"
        }
      ],
      "name": "fundVestingAccountWithCounterContract",
      "outputs": [],
      "stateMutability": "nonpayable",
      "type": "function"
    },
    {
      "inputs": [
        {
          "internalType": "address",
          "name": "funder",
          "type": "address"
        },
        {
          "internalType": "address",
          "name": "newFunder",
          "type": "address"
        },
        {
          "internalType": "address",
          "name": "vestingAddr",
          "type": "address"
        }
      ],
      "name": "updateVestingFunder",
      "outputs": [],
      "stateMutability": "nonpayable",
      "type": "function"
    }
  ],
  "bytecode": "0x608060405234801561001057600080fd5b506127ac806100206000396000f3fe608060405234801561001057600080fd5b50600436106100cf5760003560e01c80636c49d3031161008c5780638e292e40116100665780638e292e40146101fe5780639cfef1291461022e578063cdb501751461024a578063fc9c1a8714610266576100cf565b80636c49d303146101a857806372e7c9ab146101c45780637caef81b146101f4576100cf565b806303f4be50146100d45780631e9178bb1461010457806327e235e3146101205780634fe1a8df146101525780635a2110641461016e57806361bc221a1461018a575b600080fd5b6100ee60048036038101906100e99190611233565b610296565b6040516100fb919061142e565b60405180910390f35b61011e6004803603810190610119919061156b565b61041c565b005b61013a60048036038101906101359190611662565b61068f565b6040516101499392919061168f565b60405180910390f35b61016c600480360381019061016791906116db565b610722565b005b61018860048036038101906101839190611662565b610828565b005b6101926108ee565b60405161019f91906117a6565b60405180910390f35b6101c260048036038101906101bd91906116db565b6108f4565b005b6101de60048036038101906101d99190611233565b610ac0565b6040516101eb919061142e565b60405180910390f35b6101fc610b80565b005b610218600480360381019061021391906117c1565b610c4a565b604051610225919061142e565b60405180910390f35b61024860048036038101906102439190611233565b610d94565b005b610264600480360381019061025f9190611828565b610e60565b005b610280600480360381019061027b919061187b565b610f2c565b60405161028d919061142e565b60405180910390f35b606060008290508073ffffffffffffffffffffffffffffffffffffffff16634f2be91f6040518163ffffffff1660e01b8152600401600060405180830381600087803b1580156102e557600080fd5b505af11580156102f9573d6000803e3d6000fd5b5050505060008081548092919061030f90611937565b919050555061080373ffffffffffffffffffffffffffffffffffffffff166372e7c9ab8686866040518463ffffffff1660e01b81526004016103539392919061198e565b6000604051808303816000875af1158015610372573d6000803e3d6000fd5b505050506040513d6000823e3d601f19601f8201168201806040525081019061039b9190611c69565b91508073ffffffffffffffffffffffffffffffffffffffff16636deebae36040518163ffffffff1660e01b8152600401600060405180830381600087803b1580156103e557600080fd5b505af11580156103f9573d6000803e3d6000fd5b5050505060008081548092919061040f90611cb2565b9190505550509392505050565b81156104e85760008081548092919061043490611937565b919050555060008873ffffffffffffffffffffffffffffffffffffffff16600f60405161046090611d0c565b60006040518083038185875af1925050503d806000811461049d576040519150601f19603f3d011682016040523d82523d6000602084013e6104a2565b606091505b50509050806104e6576040517f08c379a00000000000000000000000000000000000000000000000000000000081526004016104dd90611d7e565b60405180910390fd5b505b600061080373ffffffffffffffffffffffffffffffffffffffff16634fe1a8df8c8c8b8b8b8b8b6040518863ffffffff1660e01b815260040161053197969594939291906121f6565b6020604051808303816000875af1158015610550573d6000803e3d6000fd5b505050506040513d601f19601f820116820180604052508101906105749190612270565b9050806105b6576040517f08c379a00000000000000000000000000000000000000000000000000000000081526004016105ad9061230f565b60405180910390fd5b81156106825760008973ffffffffffffffffffffffffffffffffffffffff16600f6040516105e390611d0c565b60006040518083038185875af1925050503d8060008114610620576040519150601f19603f3d011682016040523d82523d6000602084013e610625565b606091505b5050905080610669576040517f08c379a000000000000000000000000000000000000000000000000000000000815260040161066090611d7e565b60405180910390fd5b60008081548092919061067b90611937565b9190505550505b5050505050505050505050565b606080606061080373ffffffffffffffffffffffffffffffffffffffff166327e235e3856040518263ffffffff1660e01b81526004016106cf919061232f565b600060405180830381865afa1580156106ec573d6000803e3d6000fd5b505050506040513d6000823e3d601f19601f82011682018060405250810190610715919061234a565b9250925092509193909250565b60008081548092919061073490611937565b9190505550600061080373ffffffffffffffffffffffffffffffffffffffff16634fe1a8df898989898989896040518863ffffffff1660e01b815260040161078297969594939291906123f1565b6020604051808303816000875af11580156107a1573d6000803e3d6000fd5b505050506040513d601f19601f820116820180604052508101906107c59190612270565b905080610807576040517f08c379a00000000000000000000000000000000000000000000000000000000081526004016107fe9061230f565b60405180910390fd5b60008081548092919061081990611cb2565b91905055505050505050505050565b600061080373ffffffffffffffffffffffffffffffffffffffff16635a211064836040518263ffffffff1660e01b8152600401610865919061232f565b6020604051808303816000875af1158015610884573d6000803e3d6000fd5b505050506040513d601f19601f820116820180604052508101906108a89190612270565b9050806108ea576040517f08c379a00000000000000000000000000000000000000000000000000000000081526004016108e1906124c8565b60405180910390fd5b5050565b60005481565b60008790508073ffffffffffffffffffffffffffffffffffffffff16634f2be91f6040518163ffffffff1660e01b8152600401600060405180830381600087803b15801561094157600080fd5b505af1158015610955573d6000803e3d6000fd5b5050505060008081548092919061096b90611937565b9190505550600061080373ffffffffffffffffffffffffffffffffffffffff16634fe1a8df8a8a8a8a8a8a8a6040518863ffffffff1660e01b81526004016109b997969594939291906123f1565b6020604051808303816000875af11580156109d8573d6000803e3d6000fd5b505050506040513d601f19601f820116820180604052508101906109fc9190612270565b905080610a3e576040517f08c379a0000000000000000000000000000000000000000000000000000000008152600401610a359061230f565b60405180910390fd5b8173ffffffffffffffffffffffffffffffffffffffff16636deebae36040518163ffffffff1660e01b8152600401600060405180830381600087803b158015610a8657600080fd5b505af1158015610a9a573d6000803e3d6000fd5b50505050600080815480929190610ab090611cb2565b9190505550505050505050505050565b6060600080815480929190610ad490611937565b919050555061080373ffffffffffffffffffffffffffffffffffffffff166372e7c9ab8585856040518463ffffffff1660e01b8152600401610b189392919061198e565b6000604051808303816000875af1158015610b37573d6000803e3d6000fd5b505050506040513d6000823e3d601f19601f82011682018060405250810190610b609190611c69565b9050600080815480929190610b7490611cb2565b91905055509392505050565b600061080373ffffffffffffffffffffffffffffffffffffffff1663cdb50175333060006040518463ffffffff1660e01b8152600401610bc2939291906124f7565b6020604051808303816000875af1158015610be1573d6000803e3d6000fd5b505050506040513d601f19601f82011682018060405250810190610c059190612270565b905080610c47576040517f08c379a0000000000000000000000000000000000000000000000000000000008152600401610c3e906125c6565b60405180910390fd5b50565b6060600080815480929190610c5e90611937565b919050555061080373ffffffffffffffffffffffffffffffffffffffff166372e7c9ab8686866040518463ffffffff1660e01b8152600401610ca29392919061198e565b6000604051808303816000875af1158015610cc1573d6000803e3d6000fd5b505050506040513d6000823e3d601f19601f82011682018060405250810190610cea9190611c69565b90508115610d34576000610d33576040517f08c379a0000000000000000000000000000000000000000000000000000000008152600401610d2a90612632565b60405180910390fd5b5b600080815480929190610d4690611cb2565b91905055506000610d8c576040517f08c379a0000000000000000000000000000000000000000000000000000000008152600401610d8390612632565b60405180910390fd5b949350505050565b600061080373ffffffffffffffffffffffffffffffffffffffff16639cfef1298585856040518463ffffffff1660e01b8152600401610dd59392919061198e565b6020604051808303816000875af1158015610df4573d6000803e3d6000fd5b505050506040513d601f19601f82011682018060405250810190610e189190612270565b905080610e5a576040517f08c379a0000000000000000000000000000000000000000000000000000000008152600401610e51906126c4565b60405180910390fd5b50505050565b600061080373ffffffffffffffffffffffffffffffffffffffff1663cdb501758585856040518463ffffffff1660e01b8152600401610ea1939291906124f7565b6020604051808303816000875af1158015610ec0573d6000803e3d6000fd5b505050506040513d601f19601f82011682018060405250810190610ee49190612270565b905080610f26576040517f08c379a0000000000000000000000000000000000000000000000000000000008152600401610f1d9061230f565b60405180910390fd5b50505050565b6060821561102e57600080815480929190610f4690611937565b91905055503073ffffffffffffffffffffffffffffffffffffffff168573ffffffffffffffffffffffffffffffffffffffff161461102d5760008473ffffffffffffffffffffffffffffffffffffffff16600f604051610fa590611d0c565b60006040518083038185875af1925050503d8060008114610fe2576040519150601f19603f3d011682016040523d82523d6000602084013e610fe7565b606091505b505090508061102b576040517f08c379a000000000000000000000000000000000000000000000000000000000815260040161102290612756565b60405180910390fd5b505b5b61080373ffffffffffffffffffffffffffffffffffffffff166372e7c9ab8888886040518463ffffffff1660e01b815260040161106d9392919061198e565b6000604051808303816000875af115801561108c573d6000803e3d6000fd5b505050506040513d6000823e3d601f19601f820116820180604052508101906110b59190611c69565b905081156111b7576000808154809291906110cf90611937565b91905055503073ffffffffffffffffffffffffffffffffffffffff168573ffffffffffffffffffffffffffffffffffffffff16146111b65760008473ffffffffffffffffffffffffffffffffffffffff16600f60405161112e90611d0c565b60006040518083038185875af1925050503d806000811461116b576040519150601f19603f3d011682016040523d82523d6000602084013e611170565b606091505b50509050806111b4576040517f08c379a00000000000000000000000000000000000000000000000000000000081526004016111ab90612756565b60405180910390fd5b505b5b9695505050505050565b6000604051905090565b600080fd5b600080fd5b600073ffffffffffffffffffffffffffffffffffffffff82169050919050565b6000611200826111d5565b9050919050565b611210816111f5565b811461121b57600080fd5b50565b60008135905061122d81611207565b92915050565b60008060006060848603121561124c5761124b6111cb565b5b600061125a8682870161121e565b935050602061126b8682870161121e565b925050604061127c8682870161121e565b9150509250925092565b600081519050919050565b600082825260208201905092915050565b6000819050602082019050919050565b600081519050919050565b600082825260208201905092915050565b60005b838110156112ec5780820151818401526020810190506112d1565b60008484015250505050565b6000601f19601f8301169050919050565b6000611314826112b2565b61131e81856112bd565b935061132e8185602086016112ce565b611337816112f8565b840191505092915050565b6000819050919050565b61135581611342565b82525050565b600060408301600083015184820360008601526113788282611309565b915050602083015161138d602086018261134c565b508091505092915050565b60006113a4838361135b565b905092915050565b6000602082019050919050565b60006113c482611286565b6113ce8185611291565b9350836020820285016113e0856112a2565b8060005b8581101561141c57848403895281516113fd8582611398565b9450611408836113ac565b925060208a019950506001810190506113e4565b50829750879550505050505092915050565b6000602082019050818103600083015261144881846113b9565b905092915050565b600061145b826111d5565b9050919050565b61146b81611450565b811461147657600080fd5b50565b60008135905061148881611462565b92915050565b600067ffffffffffffffff82169050919050565b6114ab8161148e565b81146114b657600080fd5b50565b6000813590506114c8816114a2565b92915050565b600080fd5b600080fd5b600080fd5b60008083601f8401126114f3576114f26114ce565b5b8235905067ffffffffffffffff8111156115105761150f6114d3565b5b60208301915083602082028301111561152c5761152b6114d8565b5b9250929050565b60008115159050919050565b61154881611533565b811461155357600080fd5b50565b6000813590506115658161153f565b92915050565b6000806000806000806000806000806101008b8d03121561158f5761158e6111cb565b5b600061159d8d828e01611479565b9a505060206115ae8d828e0161121e565b99505060406115bf8d828e01611479565b98505060606115d08d828e016114b9565b97505060808b013567ffffffffffffffff8111156115f1576115f06111d0565b5b6115fd8d828e016114dd565b965096505060a08b013567ffffffffffffffff8111156116205761161f6111d0565b5b61162c8d828e016114dd565b945094505060c061163f8d828e01611556565b92505060e06116508d828e01611556565b9150509295989b9194979a5092959850565b600060208284031215611678576116776111cb565b5b60006116868482850161121e565b91505092915050565b600060608201905081810360008301526116a981866113b9565b905081810360208301526116bd81856113b9565b905081810360408301526116d181846113b9565b9050949350505050565b600080600080600080600060a0888a0312156116fa576116f96111cb565b5b60006117088a828b0161121e565b97505060206117198a828b0161121e565b965050604061172a8a828b016114b9565b955050606088013567ffffffffffffffff81111561174b5761174a6111d0565b5b6117578a828b016114dd565b9450945050608088013567ffffffffffffffff81111561177a576117796111d0565b5b6117868a828b016114dd565b925092505092959891949750929550565b6117a081611342565b82525050565b60006020820190506117bb6000830184611797565b92915050565b600080600080608085870312156117db576117da6111cb565b5b60006117e98782880161121e565b94505060206117fa8782880161121e565b935050604061180b8782880161121e565b925050606061181c87828801611556565b91505092959194509250565b600080600060608486031215611841576118406111cb565b5b600061184f8682870161121e565b93505060206118608682870161121e565b925050604061187186828701611556565b9150509250925092565b60008060008060008060c08789031215611898576118976111cb565b5b60006118a689828a0161121e565b96505060206118b789828a0161121e565b95505060406118c889828a0161121e565b94505060606118d989828a01611479565b93505060806118ea89828a01611556565b92505060a06118fb89828a01611556565b9150509295509295509295565b7f4e487b7100000000000000000000000000000000000000000000000000000000600052601160045260246000fd5b600061194282611342565b91507fffffffffffffffffffffffffffffffffffffffffffffffffffffffffffffffff820361197457611973611908565b5b600182019050919050565b611988816111f5565b82525050565b60006060820190506119a3600083018661197f565b6119b0602083018561197f565b6119bd604083018461197f565b949350505050565b7f4e487b7100000000000000000000000000000000000000000000000000000000600052604160045260246000fd5b6119fd826112f8565b810181811067ffffffffffffffff82111715611a1c57611a1b6119c5565b5b80604052505050565b6000611a2f6111c1565b9050611a3b82826119f4565b919050565b600067ffffffffffffffff821115611a5b57611a5a6119c5565b5b602082029050602081019050919050565b600080fd5b600080fd5b600080fd5b600067ffffffffffffffff821115611a9657611a956119c5565b5b611a9f826112f8565b9050602081019050919050565b6000611abf611aba84611a7b565b611a25565b905082815260208101848484011115611adb57611ada611a76565b5b611ae68482856112ce565b509392505050565b600082601f830112611b0357611b026114ce565b5b8151611b13848260208601611aac565b91505092915050565b611b2581611342565b8114611b3057600080fd5b50565b600081519050611b4281611b1c565b92915050565b600060408284031215611b5e57611b5d611a6c565b5b611b686040611a25565b9050600082015167ffffffffffffffff811115611b8857611b87611a71565b5b611b9484828501611aee565b6000830152506020611ba884828501611b33565b60208301525092915050565b6000611bc7611bc284611a40565b611a25565b90508083825260208201905060208402830185811115611bea57611be96114d8565b5b835b81811015611c3157805167ffffffffffffffff811115611c0f57611c0e6114ce565b5b808601611c1c8982611b48565b85526020850194505050602081019050611bec565b5050509392505050565b600082601f830112611c5057611c4f6114ce565b5b8151611c60848260208601611bb4565b91505092915050565b600060208284031215611c7f57611c7e6111cb565b5b600082015167ffffffffffffffff811115611c9d57611c9c6111d0565b5b611ca984828501611c3b565b91505092915050565b6000611cbd82611342565b915060008203611cd057611ccf611908565b5b600182039050919050565b600081905092915050565b50565b6000611cf6600083611cdb565b9150611d0182611ce6565b600082019050919050565b6000611d1782611ce9565b9150819050919050565b600082825260208201905092915050565b7f4661696c656420746f2073656e6420457468657220746f2066756e6465720000600082015250565b6000611d68601e83611d21565b9150611d7382611d32565b602082019050919050565b60006020820190508181036000830152611d9781611d5b565b9050919050565b6000819050919050565b6000611dc3611dbe611db9846111d5565b611d9e565b6111d5565b9050919050565b6000611dd582611da8565b9050919050565b6000611de782611dca565b9050919050565b611df781611ddc565b82525050565b611e068161148e565b82525050565b600082825260208201905092915050565b6000819050919050565b60008160070b9050919050565b611e3d81611e27565b8114611e4857600080fd5b50565b600081359050611e5a81611e34565b92915050565b6000611e6f6020840184611e4b565b905092915050565b611e8081611e27565b82525050565b600080fd5b600080fd5b600080fd5b60008083356001602003843603038112611eb257611eb1611e90565b5b83810192508235915060208301925067ffffffffffffffff821115611eda57611ed9611e86565b5b602082023603831315611ef057611eef611e8b565b5b509250929050565b600082825260208201905092915050565b6000819050919050565b60008083356001602003843603038112611f3057611f2f611e90565b5b83810192508235915060208301925067ffffffffffffffff821115611f5857611f57611e86565b5b600182023603831315611f6e57611f6d611e8b565b5b509250929050565b82818337600083830152505050565b6000611f9183856112bd565b9350611f9e838584611f76565b611fa7836112f8565b840190509392505050565b600081359050611fc181611b1c565b92915050565b6000611fd66020840184611fb2565b905092915050565b600060408301611ff16000840184611f13565b8583036000870152612004838284611f85565b925050506120156020840184611fc7565b612022602086018261134c565b508091505092915050565b60006120398383611fde565b905092915050565b60008235600160400383360303811261205d5761205c611e90565b5b82810191505092915050565b6000602082019050919050565b60006120828385611ef8565b93508360208402850161209484611f09565b8060005b878110156120d85784840389526120af8284612041565b6120b9858261202d565b94506120c483612069565b925060208a01995050600181019050612098565b50829750879450505050509392505050565b6000604083016120fd6000840184611e60565b61210a6000860182611e77565b506121186020840184611e95565b858303602087015261212b838284612076565b925050508091505092915050565b600061214583836120ea565b905092915050565b60008235600160400383360303811261216957612168611e90565b5b82810191505092915050565b6000602082019050919050565b600061218e8385611e0c565b9350836020840285016121a084611e1d565b8060005b878110156121e45784840389526121bb828461214d565b6121c58582612139565b94506121d083612175565b925060208a019950506001810190506121a4565b50829750879450505050509392505050565b600060a08201905061220b600083018a611dee565b612218602083018961197f565b6122256040830188611dfd565b8181036060830152612238818688612182565b9050818103608083015261224d818486612182565b905098975050505050505050565b60008151905061226a8161153f565b92915050565b600060208284031215612286576122856111cb565b5b60006122948482850161225b565b91505092915050565b7f56657374696e6743616c6c65723a2063726561746520636c61776261636b207660008201527f657374696e67206163636f756e74206661696c65640000000000000000000000602082015250565b60006122f9603583611d21565b91506123048261229d565b604082019050919050565b60006020820190508181036000830152612328816122ec565b9050919050565b6000602082019050612344600083018461197f565b92915050565b600080600060608486031215612363576123626111cb565b5b600084015167ffffffffffffffff811115612381576123806111d0565b5b61238d86828701611c3b565b935050602084015167ffffffffffffffff8111156123ae576123ad6111d0565b5b6123ba86828701611c3b565b925050604084015167ffffffffffffffff8111156123db576123da6111d0565b5b6123e786828701611c3b565b9150509250925092565b600060a082019050612406600083018a61197f565b612413602083018961197f565b6124206040830188611dfd565b8181036060830152612433818688612182565b90508181036080830152612448818486612182565b905098975050505050505050565b7f56657374696e6743616c6c65723a20636f6e7665727420746f20636c6177626160008201527f636b2076657374696e67206163636f756e74206661696c656400000000000000602082015250565b60006124b2603983611d21565b91506124bd82612456565b604082019050919050565b600060208201905081810360008301526124e1816124a5565b9050919050565b6124f181611533565b82525050565b600060608201905061250c600083018661197f565b612519602083018561197f565b61252660408301846124e8565b949350505050565b7f56657374696e6743616c6c65723a2063726561746520636c61776261636b207660008201527f657374696e67206163636f756e7420666f7220636f6e7472616374206661696c60208201527f6564000000000000000000000000000000000000000000000000000000000000604082015250565b60006125b0604283611d21565b91506125bb8261252e565b606082019050919050565b600060208201905081810360008301526125df816125a3565b9050919050565b7f7265766572742068657265000000000000000000000000000000000000000000600082015250565b600061261c600b83611d21565b9150612627826125e6565b602082019050919050565b6000602082019050818103600083015261264b8161260f565b9050919050565b7f56657374696e6743616c6c65723a207570646174652076657374696e6720667560008201527f6e646572206661696c6564000000000000000000000000000000000000000000602082015250565b60006126ae602b83611d21565b91506126b982612652565b604082019050919050565b600060208201905081810360008301526126dd816126a1565b9050919050565b7f4661696c656420746f2073656e6420457468657220746f2064656c656761746f60008201527f7200000000000000000000000000000000000000000000000000000000000000602082015250565b6000612740602183611d21565b915061274b826126e4565b604082019050919050565b6000602082019050818103600083015261276f81612733565b905091905056fea26469706673582212204b37cada22f7b3efcbd3cfcf736d8690d85031d8077a13c463c51a43f0b3f3cf64736f6c63430008130033",
  "linkReferences": {},
  "deployedLinkReferences": {}
}