{
  "_format": "hh-sol-artifact-1",
  "contractName": "Mars",
  "sourceName": "contracts/Mars.sol",
  "abi": [
    {
      "anonymous": false,
      "inputs": [
        {
          "indexed": false,
          "internalType": "address",
          "name": "previousAdmin",
          "type": "address"
        },
        {
          "indexed": false,
          "internalType": "address",
          "name": "newAdmin",
          "type": "address"
        }
      ],
      "name": "AdminChanged",
      "type": "event"
    },
    {
      "anonymous": false,
      "inputs": [
        {
          "indexed": true,
          "internalType": "address",
          "name": "owner",
          "type": "address"
        },
        {
          "indexed": true,
          "internalType": "address",
          "name": "spender",
          "type": "address"
        },
        {
          "indexed": false,
          "internalType": "uint256",
          "name": "value",
          "type": "uint256"
        }
      ],
      "name": "Approval",
      "type": "event"
    },
    {
      "anonymous": false,
      "inputs": [
        {
          "indexed": true,
          "internalType": "address",
          "name": "beacon",
          "type": "address"
        }
      ],
      "name": "BeaconUpgraded",
      "type": "event"
    },
    {
      "anonymous": false,
      "inputs": [
        {
          "indexed": false,
          "internalType": "uint8",
          "name": "version",
          "type": "uint8"
        }
      ],
      "name": "Initialized",
      "type": "event"
    },
    {
      "anonymous": false,
      "inputs": [
        {
          "indexed": true,
          "internalType": "address",
          "name": "previousOwner",
          "type": "address"
        },
        {
          "indexed": true,
          "internalType": "address",
          "name": "newOwner",
          "type": "address"
        }
      ],
      "name": "OwnershipTransferred",
      "type": "event"
    },
    {
      "anonymous": false,
      "inputs": [
        {
          "indexed": true,
          "internalType": "address",
          "name": "from",
          "type": "address"
        },
        {
          "indexed": true,
          "internalType": "address",
          "name": "to",
          "type": "address"
        },
        {
          "indexed": false,
          "internalType": "uint256",
          "name": "value",
          "type": "uint256"
        }
      ],
      "name": "Transfer",
      "type": "event"
    },
    {
      "anonymous": false,
      "inputs": [
        {
          "indexed": true,
          "internalType": "address",
          "name": "implementation",
          "type": "address"
        }
      ],
      "name": "Upgraded",
      "type": "event"
    },
    {
      "inputs": [
        {
          "internalType": "address",
          "name": "owner",
          "type": "address"
        },
        {
          "internalType": "address",
          "name": "spender",
          "type": "address"
        }
      ],
      "name": "allowance",
      "outputs": [
        {
          "internalType": "uint256",
          "name": "",
          "type": "uint256"
        }
      ],
      "stateMutability": "view",
      "type": "function"
    },
    {
      "inputs": [
        {
          "internalType": "address",
          "name": "spender",
          "type": "address"
        },
        {
          "internalType": "uint256",
          "name": "amount",
          "type": "uint256"
        }
      ],
      "name": "approve",
      "outputs": [
        {
          "internalType": "bool",
          "name": "",
          "type": "bool"
        }
      ],
      "stateMutability": "nonpayable",
      "type": "function"
    },
    {
      "inputs": [
        {
          "internalType": "address",
          "name": "account",
          "type": "address"
        }
      ],
      "name": "balanceOf",
      "outputs": [
        {
          "internalType": "uint256",
          "name": "",
          "type": "uint256"
        }
      ],
      "stateMutability": "view",
      "type": "function"
    },
    {
      "inputs": [],
      "name": "decimals",
      "outputs": [
        {
          "internalType": "uint8",
          "name": "",
          "type": "uint8"
        }
      ],
      "stateMutability": "view",
      "type": "function"
    },
    {
      "inputs": [
        {
          "internalType": "address",
          "name": "spender",
          "type": "address"
        },
        {
          "internalType": "uint256",
          "name": "subtractedValue",
          "type": "uint256"
        }
      ],
      "name": "decreaseAllowance",
      "outputs": [
        {
          "internalType": "bool",
          "name": "",
          "type": "bool"
        }
      ],
      "stateMutability": "nonpayable",
      "type": "function"
    },
    {
      "inputs": [
        {
          "internalType": "address",
          "name": "spender",
          "type": "address"
        },
        {
          "internalType": "uint256",
          "name": "addedValue",
          "type": "uint256"
        }
      ],
      "name": "increaseAllowance",
      "outputs": [
        {
          "internalType": "bool",
          "name": "",
          "type": "bool"
        }
      ],
      "stateMutability": "nonpayable",
      "type": "function"
    },
    {
      "inputs": [],
      "name": "initialize",
      "outputs": [],
      "stateMutability": "nonpayable",
      "type": "function"
    },
    {
      "inputs": [],
      "name": "name",
      "outputs": [
        {
          "internalType": "string",
          "name": "",
          "type": "string"
        }
      ],
      "stateMutability": "view",
      "type": "function"
    },
    {
      "inputs": [],
      "name": "owner",
      "outputs": [
        {
          "internalType": "address",
          "name": "",
          "type": "address"
        }
      ],
      "stateMutability": "view",
      "type": "function"
    },
    {
      "inputs": [],
      "name": "proxiableUUID",
      "outputs": [
        {
          "internalType": "bytes32",
          "name": "",
          "type": "bytes32"
        }
      ],
      "stateMutability": "view",
      "type": "function"
    },
    {
      "inputs": [],
      "name": "renounceOwnership",
      "outputs": [],
      "stateMutability": "nonpayable",
      "type": "function"
    },
    {
      "inputs": [],
      "name": "symbol",
      "outputs": [
        {
          "internalType": "string",
          "name": "",
          "type": "string"
        }
      ],
      "stateMutability": "view",
      "type": "function"
    },
    {
      "inputs": [],
      "name": "totalSupply",
      "outputs": [
        {
          "internalType": "uint256",
          "name": "",
          "type": "uint256"
        }
      ],
      "stateMutability": "view",
      "type": "function"
    },
    {
      "inputs": [
        {
          "internalType": "address",
          "name": "to",
          "type": "address"
        },
        {
          "internalType": "uint256",
          "name": "amount",
          "type": "uint256"
        }
      ],
      "name": "transfer",
      "outputs": [
        {
          "internalType": "bool",
          "name": "",
          "type": "bool"
        }
      ],
      "stateMutability": "nonpayable",
      "type": "function"
    },
    {
      "inputs": [
        {
          "internalType": "address",
          "name": "from",
          "type": "address"
        },
        {
          "internalType": "address",
          "name": "to",
          "type": "address"
        },
        {
          "internalType": "uint256",
          "name": "amount",
          "type": "uint256"
        }
      ],
      "name": "transferFrom",
      "outputs": [
        {
          "internalType": "bool",
          "name": "",
          "type": "bool"
        }
      ],
      "stateMutability": "nonpayable",
      "type": "function"
    },
    {
      "inputs": [
        {
          "internalType": "address",
          "name": "newOwner",
          "type": "address"
        }
      ],
      "name": "transferOwnership",
      "outputs": [],
      "stateMutability": "nonpayable",
      "type": "function"
    },
    {
      "inputs": [
        {
          "internalType": "address",
          "name": "newImplementation",
          "type": "address"
        }
      ],
      "name": "upgradeTo",
      "outputs": [],
      "stateMutability": "nonpayable",
      "type": "function"
    },
    {
      "inputs": [
        {
          "internalType": "address",
          "name": "newImplementation",
          "type": "address"
        },
        {
          "internalType": "bytes",
          "name": "data",
          "type": "bytes"
        }
      ],
      "name": "upgradeToAndCall",
      "outputs": [],
      "stateMutability": "payable",
      "type": "function"
    }
  ],
  "bytecode": "0x60a06040523073ffffffffffffffffffffffffffffffffffffffff1660809073ffffffffffffffffffffffffffffffffffffffff1681525034801561004357600080fd5b506080516130dd61007b60003960008181610550015281816105de0152818161070f0152818161079d015261084d01526130dd6000f3fe6080604052600436106101095760003560e01c806370a082311161009557806395d89b411161006457806395d89b411461034c578063a457c2d714610377578063a9059cbb146103b4578063dd62ed3e146103f1578063f2fde38b1461042e57610109565b806370a08231146102b6578063715018a6146102f35780638129fc1c1461030a5780638da5cb5b1461032157610109565b8063313ce567116100dc578063313ce567146101de5780633659cfe61461020957806339509351146102325780634f1ef2861461026f57806352d1902d1461028b57610109565b806306fdde031461010e578063095ea7b31461013957806318160ddd1461017657806323b872dd146101a1575b600080fd5b34801561011a57600080fd5b50610123610457565b6040516101309190611be4565b60405180910390f35b34801561014557600080fd5b50610160600480360381019061015b9190611cae565b6104e9565b60405161016d9190611d09565b60405180910390f35b34801561018257600080fd5b5061018b61050c565b6040516101989190611d33565b60405180910390f35b3480156101ad57600080fd5b506101c860048036038101906101c39190611d4e565b610516565b6040516101d59190611d09565b60405180910390f35b3480156101ea57600080fd5b506101f3610545565b6040516102009190611dbd565b60405180910390f35b34801561021557600080fd5b50610230600480360381019061022b9190611dd8565b61054e565b005b34801561023e57600080fd5b5061025960048036038101906102549190611cae565b6106d6565b6040516102669190611d09565b60405180910390f35b61028960048036038101906102849190611f3a565b61070d565b005b34801561029757600080fd5b506102a0610849565b6040516102ad9190611faf565b60405180910390f35b3480156102c257600080fd5b506102dd60048036038101906102d89190611dd8565b610902565b6040516102ea9190611d33565b60405180910390f35b3480156102ff57600080fd5b5061030861094b565b005b34801561031657600080fd5b5061031f61095f565b005b34801561032d57600080fd5b50610336610b3c565b6040516103439190611fd9565b60405180910390f35b34801561035857600080fd5b50610361610b66565b60405161036e9190611be4565b60405180910390f35b34801561038357600080fd5b5061039e60048036038101906103999190611cae565b610bf8565b6040516103ab9190611d09565b60405180910390f35b3480156103c057600080fd5b506103db60048036038101906103d69190611cae565b610c6f565b6040516103e89190611d09565b60405180910390f35b3480156103fd57600080fd5b5061041860048036038101906104139190611ff4565b610c92565b6040516104259190611d33565b60405180910390f35b34801561043a57600080fd5b5061045560048036038101906104509190611dd8565b610d19565b005b60606036805461046690612063565b80601f016020809104026020016040519081016040528092919081815260200182805461049290612063565b80156104df5780601f106104b4576101008083540402835291602001916104df565b820191906000526020600020905b8154815290600101906020018083116104c257829003601f168201915b5050505050905090565b6000806104f4610d9c565b9050610501818585610da4565b600191505092915050565b6000603554905090565b600080610521610d9c565b905061052e858285610f6d565b610539858585610ff9565b60019150509392505050565b60006012905090565b7f000000000000000000000000000000000000000000000000000000000000000073ffffffffffffffffffffffffffffffffffffffff163073ffffffffffffffffffffffffffffffffffffffff16036105dc576040517f08c379a00000000000000000000000000000000000000000000000000000000081526004016105d390612106565b60405180910390fd5b7f000000000000000000000000000000000000000000000000000000000000000073ffffffffffffffffffffffffffffffffffffffff1661061b611272565b73ffffffffffffffffffffffffffffffffffffffff1614610671576040517f08c379a000000000000000000000000000000000000000000000000000000000815260040161066890612198565b60405180910390fd5b61067a816112c9565b6106d381600067ffffffffffffffff81111561069957610698611e0f565b5b6040519080825280601f01601f1916602001820160405280156106cb5781602001600182028036833780820191505090505b5060006112d4565b50565b6000806106e1610d9c565b90506107028185856106f38589610c92565b6106fd91906121e7565b610da4565b600191505092915050565b7f000000000000000000000000000000000000000000000000000000000000000073ffffffffffffffffffffffffffffffffffffffff163073ffffffffffffffffffffffffffffffffffffffff160361079b576040517f08c379a000000000000000000000000000000000000000000000000000000000815260040161079290612106565b60405180910390fd5b7f000000000000000000000000000000000000000000000000000000000000000073ffffffffffffffffffffffffffffffffffffffff166107da611272565b73ffffffffffffffffffffffffffffffffffffffff1614610830576040517f08c379a000000000000000000000000000000000000000000000000000000000815260040161082790612198565b60405180910390fd5b610839826112c9565b610845828260016112d4565b5050565b60007f000000000000000000000000000000000000000000000000000000000000000073ffffffffffffffffffffffffffffffffffffffff163073ffffffffffffffffffffffffffffffffffffffff16146108d9576040517f08c379a00000000000000000000000000000000000000000000000000000000081526004016108d09061228d565b60405180910390fd5b7f360894a13ba1a3210667c828492db98dca3e2076cc3735a920a3ca505d382bbc60001b905090565b6000603360008373ffffffffffffffffffffffffffffffffffffffff1673ffffffffffffffffffffffffffffffffffffffff168152602001908152602001600020549050919050565b610953611442565b61095d60006114c0565b565b60008060019054906101000a900460ff161590508080156109905750600160008054906101000a900460ff1660ff16105b806109bd575061099f30611586565b1580156109bc5750600160008054906101000a900460ff1660ff16145b5b6109fc576040517f08c379a00000000000000000000000000000000000000000000000000000000081526004016109f39061231f565b60405180910390fd5b60016000806101000a81548160ff021916908360ff1602179055508015610a39576001600060016101000a81548160ff0219169083151502179055505b610aad6040518060400160405280600481526020017f4d617273000000000000000000000000000000000000000000000000000000008152506040518060400160405280600381526020017f4d525300000000000000000000000000000000000000000000000000000000008152506115a9565b610ab5611606565b610ae033610ac1610545565b600a610acd9190612472565b620f4240610adb91906124bd565b61165f565b8015610b395760008060016101000a81548160ff0219169083151502179055507f7f26b83ff96e1f2b6a682f133852f6798a09c465da95921460cefb38474024986001604051610b309190612544565b60405180910390a15b50565b600060c960009054906101000a900473ffffffffffffffffffffffffffffffffffffffff16905090565b606060378054610b7590612063565b80601f0160208091040260200160405190810160405280929190818152602001828054610ba190612063565b8015610bee5780601f10610bc357610100808354040283529160200191610bee565b820191906000526020600020905b815481529060010190602001808311610bd157829003601f168201915b5050505050905090565b600080610c03610d9c565b90506000610c118286610c92565b905083811015610c56576040517f08c379a0000000000000000000000000000000000000000000000000000000008152600401610c4d906125d1565b60405180910390fd5b610c638286868403610da4565b60019250505092915050565b600080610c7a610d9c565b9050610c87818585610ff9565b600191505092915050565b6000603460008473ffffffffffffffffffffffffffffffffffffffff1673ffffffffffffffffffffffffffffffffffffffff16815260200190815260200160002060008373ffffffffffffffffffffffffffffffffffffffff1673ffffffffffffffffffffffffffffffffffffffff16815260200190815260200160002054905092915050565b610d21611442565b600073ffffffffffffffffffffffffffffffffffffffff168173ffffffffffffffffffffffffffffffffffffffff1603610d90576040517f08c379a0000000000000000000000000000000000000000000000000000000008152600401610d8790612663565b60405180910390fd5b610d99816114c0565b50565b600033905090565b600073ffffffffffffffffffffffffffffffffffffffff168373ffffffffffffffffffffffffffffffffffffffff1603610e13576040517f08c379a0000000000000000000000000000000000000000000000000000000008152600401610e0a906126f5565b60405180910390fd5b600073ffffffffffffffffffffffffffffffffffffffff168273ffffffffffffffffffffffffffffffffffffffff1603610e82576040517f08c379a0000000000000000000000000000000000000000000000000000000008152600401610e7990612787565b60405180910390fd5b80603460008573ffffffffffffffffffffffffffffffffffffffff1673ffffffffffffffffffffffffffffffffffffffff16815260200190815260200160002060008473ffffffffffffffffffffffffffffffffffffffff1673ffffffffffffffffffffffffffffffffffffffff168152602001908152602001600020819055508173ffffffffffffffffffffffffffffffffffffffff168373ffffffffffffffffffffffffffffffffffffffff167f8c5be1e5ebec7d5bd14f71427d1e84f3dd0314c0f7b2291e5b200ac8c7c3b92583604051610f609190611d33565b60405180910390a3505050565b6000610f798484610c92565b90507fffffffffffffffffffffffffffffffffffffffffffffffffffffffffffffffff8114610ff35781811015610fe5576040517f08c379a0000000000000000000000000000000000000000000000000000000008152600401610fdc906127f3565b60405180910390fd5b610ff28484848403610da4565b5b50505050565b600073ffffffffffffffffffffffffffffffffffffffff168373ffffffffffffffffffffffffffffffffffffffff1603611068576040517f08c379a000000000000000000000000000000000000000000000000000000000815260040161105f90612885565b60405180910390fd5b600073ffffffffffffffffffffffffffffffffffffffff168273ffffffffffffffffffffffffffffffffffffffff16036110d7576040517f08c379a00000000000000000000000000000000000000000000000000000000081526004016110ce90612917565b60405180910390fd5b6110e28383836117b6565b6000603360008573ffffffffffffffffffffffffffffffffffffffff1673ffffffffffffffffffffffffffffffffffffffff16815260200190815260200160002054905081811015611169576040517f08c379a0000000000000000000000000000000000000000000000000000000008152600401611160906129a9565b60405180910390fd5b818103603360008673ffffffffffffffffffffffffffffffffffffffff1673ffffffffffffffffffffffffffffffffffffffff1681526020019081526020016000208190555081603360008573ffffffffffffffffffffffffffffffffffffffff1673ffffffffffffffffffffffffffffffffffffffff168152602001908152602001600020600082825401925050819055508273ffffffffffffffffffffffffffffffffffffffff168473ffffffffffffffffffffffffffffffffffffffff167fddf252ad1be2c89b69c2b068fc378daa952ba7f163c4a11628f55a4df523b3ef846040516112599190611d33565b60405180910390a361126c8484846117bb565b50505050565b60006112a07f360894a13ba1a3210667c828492db98dca3e2076cc3735a920a3ca505d382bbc60001b6117c0565b60000160009054906101000a900473ffffffffffffffffffffffffffffffffffffffff16905090565b6112d1611442565b50565b6113007f4910fdfa16fed3260ed0e7147f7cc6da11a60208b5b9406d12a635614ffd914360001b6117ca565b60000160009054906101000a900460ff16156113245761131f836117d4565b61143d565b8273ffffffffffffffffffffffffffffffffffffffff166352d1902d6040518163ffffffff1660e01b8152600401602060405180830381865afa92505050801561138c57506040513d601f19601f8201168201806040525081019061138991906129f5565b60015b6113cb576040517f08c379a00000000000000000000000000000000000000000000000000000000081526004016113c290612a94565b60405180910390fd5b7f360894a13ba1a3210667c828492db98dca3e2076cc3735a920a3ca505d382bbc60001b8114611430576040517f08c379a000000000000000000000000000000000000000000000000000000000815260040161142790612b26565b60405180910390fd5b5061143c83838361188d565b5b505050565b61144a610d9c565b73ffffffffffffffffffffffffffffffffffffffff16611468610b3c565b73ffffffffffffffffffffffffffffffffffffffff16146114be576040517f08c379a00000000000000000000000000000000000000000000000000000000081526004016114b590612b92565b60405180910390fd5b565b600060c960009054906101000a900473ffffffffffffffffffffffffffffffffffffffff1690508160c960006101000a81548173ffffffffffffffffffffffffffffffffffffffff021916908373ffffffffffffffffffffffffffffffffffffffff1602179055508173ffffffffffffffffffffffffffffffffffffffff168173ffffffffffffffffffffffffffffffffffffffff167f8be0079c531659141344cd1fd0a4f28419497f9722a3daafe3b4186f6b6457e060405160405180910390a35050565b6000808273ffffffffffffffffffffffffffffffffffffffff163b119050919050565b600060019054906101000a900460ff166115f8576040517f08c379a00000000000000000000000000000000000000000000000000000000081526004016115ef90612c24565b60405180910390fd5b61160282826118b9565b5050565b600060019054906101000a900460ff16611655576040517f08c379a000000000000000000000000000000000000000000000000000000000815260040161164c90612c24565b60405180910390fd5b61165d61192c565b565b600073ffffffffffffffffffffffffffffffffffffffff168273ffffffffffffffffffffffffffffffffffffffff16036116ce576040517f08c379a00000000000000000000000000000000000000000000000000000000081526004016116c590612c90565b60405180910390fd5b6116da600083836117b6565b80603560008282546116ec91906121e7565b9250508190555080603360008473ffffffffffffffffffffffffffffffffffffffff1673ffffffffffffffffffffffffffffffffffffffff168152602001908152602001600020600082825401925050819055508173ffffffffffffffffffffffffffffffffffffffff16600073ffffffffffffffffffffffffffffffffffffffff167fddf252ad1be2c89b69c2b068fc378daa952ba7f163c4a11628f55a4df523b3ef8360405161179e9190611d33565b60405180910390a36117b2600083836117bb565b5050565b505050565b505050565b6000819050919050565b6000819050919050565b6117dd81611586565b61181c576040517f08c379a000000000000000000000000000000000000000000000000000000000815260040161181390612d22565b60405180910390fd5b806118497f360894a13ba1a3210667c828492db98dca3e2076cc3735a920a3ca505d382bbc60001b6117c0565b60000160006101000a81548173ffffffffffffffffffffffffffffffffffffffff021916908373ffffffffffffffffffffffffffffffffffffffff16021790555050565b6118968361198d565b6000825111806118a35750805b156118b4576118b283836119dc565b505b505050565b600060019054906101000a900460ff16611908576040517f08c379a00000000000000000000000000000000000000000000000000000000081526004016118ff90612c24565b60405180910390fd5b81603690816119179190612ee4565b5080603790816119279190612ee4565b505050565b600060019054906101000a900460ff1661197b576040517f08c379a000000000000000000000000000000000000000000000000000000000815260040161197290612c24565b60405180910390fd5b61198b611986610d9c565b6114c0565b565b611996816117d4565b8073ffffffffffffffffffffffffffffffffffffffff167fbc7cd75a20ee27fd9adebab32041f755214dbc6bffa90cc0225b39da2e5c2d3b60405160405180910390a250565b6060611a01838360405180606001604052806027815260200161308160279139611a09565b905092915050565b60606000808573ffffffffffffffffffffffffffffffffffffffff1685604051611a339190612ffd565b600060405180830381855af49150503d8060008114611a6e576040519150601f19603f3d011682016040523d82523d6000602084013e611a73565b606091505b5091509150611a8486838387611a8f565b925050509392505050565b60608315611af1576000835103611ae957611aa985611586565b611ae8576040517f08c379a0000000000000000000000000000000000000000000000000000000008152600401611adf90613060565b60405180910390fd5b5b829050611afc565b611afb8383611b04565b5b949350505050565b600082511115611b175781518083602001fd5b806040517f08c379a0000000000000000000000000000000000000000000000000000000008152600401611b4b9190611be4565b60405180910390fd5b600081519050919050565b600082825260208201905092915050565b60005b83811015611b8e578082015181840152602081019050611b73565b60008484015250505050565b6000601f19601f8301169050919050565b6000611bb682611b54565b611bc08185611b5f565b9350611bd0818560208601611b70565b611bd981611b9a565b840191505092915050565b60006020820190508181036000830152611bfe8184611bab565b905092915050565b6000604051905090565b600080fd5b600080fd5b600073ffffffffffffffffffffffffffffffffffffffff82169050919050565b6000611c4582611c1a565b9050919050565b611c5581611c3a565b8114611c6057600080fd5b50565b600081359050611c7281611c4c565b92915050565b6000819050919050565b611c8b81611c78565b8114611c9657600080fd5b50565b600081359050611ca881611c82565b92915050565b60008060408385031215611cc557611cc4611c10565b5b6000611cd385828601611c63565b9250506020611ce485828601611c99565b9150509250929050565b60008115159050919050565b611d0381611cee565b82525050565b6000602082019050611d1e6000830184611cfa565b92915050565b611d2d81611c78565b82525050565b6000602082019050611d486000830184611d24565b92915050565b600080600060608486031215611d6757611d66611c10565b5b6000611d7586828701611c63565b9350506020611d8686828701611c63565b9250506040611d9786828701611c99565b9150509250925092565b600060ff82169050919050565b611db781611da1565b82525050565b6000602082019050611dd26000830184611dae565b92915050565b600060208284031215611dee57611ded611c10565b5b6000611dfc84828501611c63565b91505092915050565b600080fd5b600080fd5b7f4e487b7100000000000000000000000000000000000000000000000000000000600052604160045260246000fd5b611e4782611b9a565b810181811067ffffffffffffffff82111715611e6657611e65611e0f565b5b80604052505050565b6000611e79611c06565b9050611e858282611e3e565b919050565b600067ffffffffffffffff821115611ea557611ea4611e0f565b5b611eae82611b9a565b9050602081019050919050565b82818337600083830152505050565b6000611edd611ed884611e8a565b611e6f565b905082815260208101848484011115611ef957611ef8611e0a565b5b611f04848285611ebb565b509392505050565b600082601f830112611f2157611f20611e05565b5b8135611f31848260208601611eca565b91505092915050565b60008060408385031215611f5157611f50611c10565b5b6000611f5f85828601611c63565b925050602083013567ffffffffffffffff811115611f8057611f7f611c15565b5b611f8c85828601611f0c565b9150509250929050565b6000819050919050565b611fa981611f96565b82525050565b6000602082019050611fc46000830184611fa0565b92915050565b611fd381611c3a565b82525050565b6000602082019050611fee6000830184611fca565b92915050565b6000806040838503121561200b5761200a611c10565b5b600061201985828601611c63565b925050602061202a85828601611c63565b9150509250929050565b7f4e487b7100000000000000000000000000000000000000000000000000000000600052602260045260246000fd5b6000600282049050600182168061207b57607f821691505b60208210810361208e5761208d612034565b5b50919050565b7f46756e6374696f6e206d7573742062652063616c6c6564207468726f7567682060008201527f64656c656761746563616c6c0000000000000000000000000000000000000000602082015250565b60006120f0602c83611b5f565b91506120fb82612094565b604082019050919050565b6000602082019050818103600083015261211f816120e3565b9050919050565b7f46756e6374696f6e206d7573742062652063616c6c6564207468726f7567682060008201527f6163746976652070726f78790000000000000000000000000000000000000000602082015250565b6000612182602c83611b5f565b915061218d82612126565b604082019050919050565b600060208201905081810360008301526121b181612175565b9050919050565b7f4e487b7100000000000000000000000000000000000000000000000000000000600052601160045260246000fd5b60006121f282611c78565b91506121fd83611c78565b9250828201905080821115612215576122146121b8565b5b92915050565b7f555550535570677261646561626c653a206d757374206e6f742062652063616c60008201527f6c6564207468726f7567682064656c656761746563616c6c0000000000000000602082015250565b6000612277603883611b5f565b91506122828261221b565b604082019050919050565b600060208201905081810360008301526122a68161226a565b9050919050565b7f496e697469616c697a61626c653a20636f6e747261637420697320616c72656160008201527f647920696e697469616c697a6564000000000000000000000000000000000000602082015250565b6000612309602e83611b5f565b9150612314826122ad565b604082019050919050565b60006020820190508181036000830152612338816122fc565b9050919050565b60008160011c9050919050565b6000808291508390505b600185111561239657808604811115612372576123716121b8565b5b60018516156123815780820291505b808102905061238f8561233f565b9450612356565b94509492505050565b6000826123af576001905061246b565b816123bd576000905061246b565b81600181146123d357600281146123dd5761240c565b600191505061246b565b60ff8411156123ef576123ee6121b8565b5b8360020a915084821115612406576124056121b8565b5b5061246b565b5060208310610133831016604e8410600b84101617156124415782820a90508381111561243c5761243b6121b8565b5b61246b565b61244e848484600161234c565b92509050818404811115612465576124646121b8565b5b81810290505b9392505050565b600061247d82611c78565b915061248883611da1565b92506124b57fffffffffffffffffffffffffffffffffffffffffffffffffffffffffffffffff848461239f565b905092915050565b60006124c882611c78565b91506124d383611c78565b92508282026124e181611c78565b915082820484148315176124f8576124f76121b8565b5b5092915050565b6000819050919050565b6000819050919050565b600061252e612529612524846124ff565b612509565b611da1565b9050919050565b61253e81612513565b82525050565b60006020820190506125596000830184612535565b92915050565b7f45524332303a2064656372656173656420616c6c6f77616e63652062656c6f7760008201527f207a65726f000000000000000000000000000000000000000000000000000000602082015250565b60006125bb602583611b5f565b91506125c68261255f565b604082019050919050565b600060208201905081810360008301526125ea816125ae565b9050919050565b7f4f776e61626c653a206e6577206f776e657220697320746865207a65726f206160008201527f6464726573730000000000000000000000000000000000000000000000000000602082015250565b600061264d602683611b5f565b9150612658826125f1565b604082019050919050565b6000602082019050818103600083015261267c81612640565b9050919050565b7f45524332303a20617070726f76652066726f6d20746865207a65726f2061646460008201527f7265737300000000000000000000000000000000000000000000000000000000602082015250565b60006126df602483611b5f565b91506126ea82612683565b604082019050919050565b6000602082019050818103600083015261270e816126d2565b9050919050565b7f45524332303a20617070726f766520746f20746865207a65726f20616464726560008201527f7373000000000000000000000000000000000000000000000000000000000000602082015250565b6000612771602283611b5f565b915061277c82612715565b604082019050919050565b600060208201905081810360008301526127a081612764565b9050919050565b7f45524332303a20696e73756666696369656e7420616c6c6f77616e6365000000600082015250565b60006127dd601d83611b5f565b91506127e8826127a7565b602082019050919050565b6000602082019050818103600083015261280c816127d0565b9050919050565b7f45524332303a207472616e736665722066726f6d20746865207a65726f20616460008201527f6472657373000000000000000000000000000000000000000000000000000000602082015250565b600061286f602583611b5f565b915061287a82612813565b604082019050919050565b6000602082019050818103600083015261289e81612862565b9050919050565b7f45524332303a207472616e7366657220746f20746865207a65726f206164647260008201527f6573730000000000000000000000000000000000000000000000000000000000602082015250565b6000612901602383611b5f565b915061290c826128a5565b604082019050919050565b60006020820190508181036000830152612930816128f4565b9050919050565b7f45524332303a207472616e7366657220616d6f756e742065786365656473206260008201527f616c616e63650000000000000000000000000000000000000000000000000000602082015250565b6000612993602683611b5f565b915061299e82612937565b604082019050919050565b600060208201905081810360008301526129c281612986565b9050919050565b6129d281611f96565b81146129dd57600080fd5b50565b6000815190506129ef816129c9565b92915050565b600060208284031215612a0b57612a0a611c10565b5b6000612a19848285016129e0565b91505092915050565b7f45524331393637557067726164653a206e657720696d706c656d656e7461746960008201527f6f6e206973206e6f742055555053000000000000000000000000000000000000602082015250565b6000612a7e602e83611b5f565b9150612a8982612a22565b604082019050919050565b60006020820190508181036000830152612aad81612a71565b9050919050565b7f45524331393637557067726164653a20756e737570706f727465642070726f7860008201527f6961626c65555549440000000000000000000000000000000000000000000000602082015250565b6000612b10602983611b5f565b9150612b1b82612ab4565b604082019050919050565b60006020820190508181036000830152612b3f81612b03565b9050919050565b7f4f776e61626c653a2063616c6c6572206973206e6f7420746865206f776e6572600082015250565b6000612b7c602083611b5f565b9150612b8782612b46565b602082019050919050565b60006020820190508181036000830152612bab81612b6f565b9050919050565b7f496e697469616c697a61626c653a20636f6e7472616374206973206e6f74206960008201527f6e697469616c697a696e67000000000000000000000000000000000000000000602082015250565b6000612c0e602b83611b5f565b9150612c1982612bb2565b604082019050919050565b60006020820190508181036000830152612c3d81612c01565b9050919050565b7f45524332303a206d696e7420746f20746865207a65726f206164647265737300600082015250565b6000612c7a601f83611b5f565b9150612c8582612c44565b602082019050919050565b60006020820190508181036000830152612ca981612c6d565b9050919050565b7f455243313936373a206e657720696d706c656d656e746174696f6e206973206e60008201527f6f74206120636f6e747261637400000000000000000000000000000000000000602082015250565b6000612d0c602d83611b5f565b9150612d1782612cb0565b604082019050919050565b60006020820190508181036000830152612d3b81612cff565b9050919050565b60008190508160005260206000209050919050565b60006020601f8301049050919050565b600082821b905092915050565b600060088302612da47fffffffffffffffffffffffffffffffffffffffffffffffffffffffffffffffff82612d67565b612dae8683612d67565b95508019841693508086168417925050509392505050565b6000612de1612ddc612dd784611c78565b612509565b611c78565b9050919050565b6000819050919050565b612dfb83612dc6565b612e0f612e0782612de8565b848454612d74565b825550505050565b600090565b612e24612e17565b612e2f818484612df2565b505050565b5b81811015612e5357612e48600082612e1c565b600181019050612e35565b5050565b601f821115612e9857612e6981612d42565b612e7284612d57565b81016020851015612e81578190505b612e95612e8d85612d57565b830182612e34565b50505b505050565b600082821c905092915050565b6000612ebb60001984600802612e9d565b1980831691505092915050565b6000612ed48383612eaa565b9150826002028217905092915050565b612eed82611b54565b67ffffffffffffffff811115612f0657612f05611e0f565b5b612f108254612063565b612f1b828285612e57565b600060209050601f831160018114612f4e5760008415612f3c578287015190505b612f468582612ec8565b865550612fae565b601f198416612f5c86612d42565b60005b82811015612f8457848901518255600182019150602085019450602081019050612f5f565b86831015612fa15784890151612f9d601f891682612eaa565b8355505b6001600288020188555050505b505050505050565b600081519050919050565b600081905092915050565b6000612fd782612fb6565b612fe18185612fc1565b9350612ff1818560208601611b70565b80840191505092915050565b60006130098284612fcc565b915081905092915050565b7f416464726573733a2063616c6c20746f206e6f6e2d636f6e7472616374000000600082015250565b600061304a601d83611b5f565b915061305582613014565b602082019050919050565b600060208201905081810360008301526130798161303d565b905091905056fe416464726573733a206c6f772d6c6576656c2064656c65676174652063616c6c206661696c6564a26469706673582212204a750a1cce4f7b323f5a30d5be803dec2c81bbb5cfa7bf058b47f8260fe12f8664736f6c63430008120033",
  "linkReferences": {},
  "deployedLinkReferences": {}
}