{
  "_format": "hh-sol-artifact-1",
  "contractName": "Counterfactory",
  "sourceName": "solidity/app/eips/testdata/CounterFactory.sol",
  "abi": [
    {
      "inputs": [],
      "stateMutability": "nonpayable",
      "type": "constructor"
    },
    {
      "inputs": [],
      "name": "counterInstance",
      "outputs": [
        {
          "internalType": "contract Counter",
          "name": "",
          "type": "address"
        }
      ],
      "stateMutability": "view",
      "type": "function"
    },
    {
      "inputs": [],
      "name": "decrementCounter",
      "outputs": [],
      "stateMutability": "nonpayable",
      "type": "function"
    },
    {
      "inputs": [],
      "name": "getCounterValue",
      "outputs": [
        {
          "internalType": "uint256",
          "name": "",
          "type": "uint256"
        }
      ],
      "stateMutability": "view",
      "type": "function"
    },
    {
      "inputs": [],
      "name": "incrementCounter",
      "outputs": [],
      "stateMutability": "nonpayable",
      "type": "function"
    }
  ],
  "bytecode": "0x608060405234801561001057600080fd5b5060405161001d9061007e565b604051809103906000f080158015610039573d6000803e3d6000fd5b506000806101000a81548173ffffffffffffffffffffffffffffffffffffffff021916908373ffffffffffffffffffffffffffffffffffffffff16021790555061008b565b6101df8061045c83390190565b6103c28061009a6000396000f3fe608060405234801561001057600080fd5b506004361061004c5760003560e01c80635b34b9661461005157806372142b891461005b578063aef38e7214610079578063f5c5ad8314610097575b600080fd5b6100596100a1565b005b610063610123565b6040516100709190610279565b60405180910390f35b6100816101ba565b60405161008e9190610313565b60405180910390f35b61009f6101de565b005b60008054906101000a900473ffffffffffffffffffffffffffffffffffffffff1673ffffffffffffffffffffffffffffffffffffffff1663d09de08a6040518163ffffffff1660e01b8152600401600060405180830381600087803b15801561010957600080fd5b505af115801561011d573d6000803e3d6000fd5b50505050565b60008060009054906101000a900473ffffffffffffffffffffffffffffffffffffffff1673ffffffffffffffffffffffffffffffffffffffff166361bc221a6040518163ffffffff1660e01b8152600401602060405180830381865afa158015610191573d6000803e3d6000fd5b505050506040513d601f19601f820116820180604052508101906101b5919061035f565b905090565b60008054906101000a900473ffffffffffffffffffffffffffffffffffffffff1681565b60008054906101000a900473ffffffffffffffffffffffffffffffffffffffff1673ffffffffffffffffffffffffffffffffffffffff16632baeceb76040518163ffffffff1660e01b8152600401600060405180830381600087803b15801561024657600080fd5b505af115801561025a573d6000803e3d6000fd5b50505050565b6000819050919050565b61027381610260565b82525050565b600060208201905061028e600083018461026a565b92915050565b600073ffffffffffffffffffffffffffffffffffffffff82169050919050565b6000819050919050565b60006102d96102d46102cf84610294565b6102b4565b610294565b9050919050565b60006102eb826102be565b9050919050565b60006102fd826102e0565b9050919050565b61030d816102f2565b82525050565b60006020820190506103286000830184610304565b92915050565b600080fd5b61033c81610260565b811461034757600080fd5b50565b60008151905061035981610333565b92915050565b6000602082840312156103755761037461032e565b5b60006103838482850161034a565b9150509291505056fea264697066735822122027b5108356362e27bc64cb585edca368be3a708dcbed69241fc576994e9171dd64736f6c634300081300336080604052600160005534801561001557600080fd5b506101ba806100256000396000f3fe608060405234801561001057600080fd5b50600436106100415760003560e01c80632baeceb71461004657806361bc221a14610050578063d09de08a1461006e575b600080fd5b61004e610078565b005b610058610091565b60405161006591906100c9565b60405180910390f35b610076610097565b005b60008081548092919061008a90610113565b9190505550565b60005481565b6000808154809291906100a99061013c565b9190505550565b6000819050919050565b6100c3816100b0565b82525050565b60006020820190506100de60008301846100ba565b92915050565b7f4e487b7100000000000000000000000000000000000000000000000000000000600052601160045260246000fd5b600061011e826100b0565b915060008203610131576101306100e4565b5b600182039050919050565b6000610147826100b0565b91507fffffffffffffffffffffffffffffffffffffffffffffffffffffffffffffffff8203610179576101786100e4565b5b60018201905091905056fea2646970667358221220dc4491d5c6f55bcb980d93a3b83053c976aa8d20dbfc1151ae5ee919b663522c64736f6c63430008130033",
  "linkReferences": {},
  "deployedLinkReferences": {}
}