{
  "_format": "hh-sol-artifact-1",
  "contractName": "ERC20TestCaller",
  "sourceName": "solidity/precompiles/erc20/testdata/ERC20TestCaller.sol",
  "abi": [
    {
      "inputs": [
        {
          "internalType": "address",
          "name": "tokenAddress",
          "type": "address"
        }
      ],
      "stateMutability": "nonpayable",
      "type": "constructor"
    },
    {
      "inputs": [],
      "name": "counter",
      "outputs": [
        {
          "internalType": "uint256",
          "name": "",
          "type": "uint256"
        }
      ],
      "stateMutability": "view",
      "type": "function"
    },
    {
      "inputs": [],
      "name": "token",
      "outputs": [
        {
          "internalType": "contract IERC20",
          "name": "",
          "type": "address"
        }
      ],
      "stateMutability": "view",
      "type": "function"
    },
    {
      "inputs": [
        {
          "internalType": "address",
          "name": "to",
          "type": "address"
        },
        {
          "internalType": "uint256",
          "name": "amount",
          "type": "uint256"
        },
        {
          "internalType": "bool",
          "name": "before",
          "type": "bool"
        },
        {
          "internalType": "bool",
          "name": "aft",
          "type": "bool"
        }
      ],
      "name": "transferWithRevert",
      "outputs": [
        {
          "internalType": "bool",
          "name": "",
          "type": "bool"
        }
      ],
      "stateMutability": "nonpayable",
      "type": "function"
    }
  ],
  "bytecode": "0x608060405234801561001057600080fd5b50604051610737380380610737833981810160405281019061003291906100db565b806000806101000a81548173ffffffffffffffffffffffffffffffffffffffff021916908373ffffffffffffffffffffffffffffffffffffffff16021790555050610108565b600080fd5b600073ffffffffffffffffffffffffffffffffffffffff82169050919050565b60006100a88261007d565b9050919050565b6100b88161009d565b81146100c357600080fd5b50565b6000815190506100d5816100af565b92915050565b6000602082840312156100f1576100f0610078565b5b60006100ff848285016100c6565b91505092915050565b610620806101176000396000f3fe608060405234801561001057600080fd5b50600436106100415760003560e01c806361bc221a14610046578063d0fedf5514610064578063fc0c546a14610094575b600080fd5b61004e6100b2565b60405161005b9190610266565b60405180910390f35b61007e60048036038101906100799190610348565b6100b8565b60405161008b91906103be565b60405180910390f35b61009c610229565b6040516100a99190610438565b60405180910390f35b60015481565b6000600160008154809291906100cd90610482565b919050555060008060009054906101000a900473ffffffffffffffffffffffffffffffffffffffff1673ffffffffffffffffffffffffffffffffffffffff1663a9059cbb87876040518363ffffffff1660e01b81526004016101309291906104d9565b6020604051808303816000875af115801561014f573d6000803e3d6000fd5b505050506040513d601f19601f820116820180604052508101906101739190610517565b905083156101bd5760006101bc576040517f08c379a00000000000000000000000000000000000000000000000000000000081526004016101b3906105a1565b60405180910390fd5b5b600160008154809291906101d0906105c1565b9190505550821561021d57600061021c576040517f08c379a0000000000000000000000000000000000000000000000000000000008152600401610213906105a1565b60405180910390fd5b5b80915050949350505050565b60008054906101000a900473ffffffffffffffffffffffffffffffffffffffff1681565b6000819050919050565b6102608161024d565b82525050565b600060208201905061027b6000830184610257565b92915050565b600080fd5b600073ffffffffffffffffffffffffffffffffffffffff82169050919050565b60006102b182610286565b9050919050565b6102c1816102a6565b81146102cc57600080fd5b50565b6000813590506102de816102b8565b92915050565b6102ed8161024d565b81146102f857600080fd5b50565b60008135905061030a816102e4565b92915050565b60008115159050919050565b61032581610310565b811461033057600080fd5b50565b6000813590506103428161031c565b92915050565b6000806000806080858703121561036257610361610281565b5b6000610370878288016102cf565b9450506020610381878288016102fb565b935050604061039287828801610333565b92505060606103a387828801610333565b91505092959194509250565b6103b881610310565b82525050565b60006020820190506103d360008301846103af565b92915050565b6000819050919050565b60006103fe6103f96103f484610286565b6103d9565b610286565b9050919050565b6000610410826103e3565b9050919050565b600061042282610405565b9050919050565b61043281610417565b82525050565b600060208201905061044d6000830184610429565b92915050565b7f4e487b7100000000000000000000000000000000000000000000000000000000600052601160045260246000fd5b600061048d8261024d565b91507fffffffffffffffffffffffffffffffffffffffffffffffffffffffffffffffff82036104bf576104be610453565b5b600182019050919050565b6104d3816102a6565b82525050565b60006040820190506104ee60008301856104ca565b6104fb6020830184610257565b9392505050565b6000815190506105118161031c565b92915050565b60006020828403121561052d5761052c610281565b5b600061053b84828501610502565b91505092915050565b600082825260208201905092915050565b7f7265766572742068657265000000000000000000000000000000000000000000600082015250565b600061058b600b83610544565b915061059682610555565b602082019050919050565b600060208201905081810360008301526105ba8161057e565b9050919050565b60006105cc8261024d565b9150600082036105df576105de610453565b5b60018203905091905056fea2646970667358221220d9aaafe0ac32f1a34404fb8dc9cda1e1189438a3fb6b58e1b7d4fd55de69aeb064736f6c63430008130033",
  "linkReferences": {},
  "deployedLinkReferences": {}
}