{
  "_format": "hh-sol-artifact-1",
  "contractName": "ERC20TestCaller",
  "sourceName": "solidity/precompiles/erc20/testdata/ERC20TestCaller.sol",
  "abi": [
    {
      "inputs": [
        {
          "internalType": "address",
          "name": "tokenAddress",
          "type": "address"
        }
      ],
      "stateMutability": "nonpayable",
      "type": "constructor"
    },
    {
      "inputs": [],
      "name": "counter",
      "outputs": [
        {
          "internalType": "uint256",
          "name": "",
          "type": "uint256"
        }
      ],
      "stateMutability": "view",
      "type": "function"
    },
    {
      "inputs": [
        {
          "internalType": "address payable",
          "name": "_source",
          "type": "address"
        },
        {
          "internalType": "uint256",
          "name": "amount_to_transfer",
          "type": "uint256"
        },
        {
          "internalType": "uint256",
          "name": "amount_to_send",
          "type": "uint256"
        },
        {
          "internalType": "uint256",
          "name": "amount_to_send_after",
          "type": "uint256"
        },
        {
          "internalType": "bool",
          "name": "_before",
          "type": "bool"
        },
        {
          "internalType": "bool",
          "name": "_after",
          "type": "bool"
        }
      ],
      "name": "testTransferAndSend",
      "outputs": [
        {
          "internalType": "bool",
          "name": "",
          "type": "bool"
        }
      ],
      "stateMutability": "payable",
      "type": "function"
    },
    {
      "inputs": [],
      "name": "token",
      "outputs": [
        {
          "internalType": "contract IERC20",
          "name": "",
          "type": "address"
        }
      ],
      "stateMutability": "view",
      "type": "function"
    },
    {
      "inputs": [
        {
          "internalType": "address",
          "name": "to",
          "type": "address"
        },
        {
          "internalType": "uint256",
          "name": "amount",
          "type": "uint256"
        },
        {
          "internalType": "bool",
          "name": "before",
          "type": "bool"
        },
        {
          "internalType": "bool",
          "name": "aft",
          "type": "bool"
        }
      ],
      "name": "transferWithRevert",
      "outputs": [
        {
          "internalType": "bool",
          "name": "",
          "type": "bool"
        }
      ],
      "stateMutability": "payable",
      "type": "function"
    },
    {
      "inputs": [
        {
          "internalType": "address payable",
          "name": "receiver",
          "type": "address"
        },
        {
          "internalType": "uint256",
          "name": "amount_to_transfer",
          "type": "uint256"
        },
        {
          "internalType": "uint256",
          "name": "amount_to_fail",
          "type": "uint256"
        }
      ],
      "name": "transfersWithTry",
      "outputs": [],
      "stateMutability": "payable",
      "type": "function"
    }
  ],
  "bytecode": "0x608060405234801561001057600080fd5b50604051610f46380380610f46833981810160405281019061003291906100e3565b806000806101000a81548173ffffffffffffffffffffffffffffffffffffffff021916908373ffffffffffffffffffffffffffffffffffffffff160217905550600060018190555050610110565b600080fd5b600073ffffffffffffffffffffffffffffffffffffffff82169050919050565b60006100b082610085565b9050919050565b6100c0816100a5565b81146100cb57600080fd5b50565b6000815190506100dd816100b7565b92915050565b6000602082840312156100f9576100f8610080565b5b6000610107848285016100ce565b91505092915050565b610e278061011f6000396000f3fe60806040526004361061004a5760003560e01c8063268d070a1461004f57806361bc221a1461006b5780636bc7b7cd14610096578063d0fedf55146100c6578063fc0c546a146100f6575b600080fd5b610069600480360381019061006491906107fc565b610121565b005b34801561007757600080fd5b506100806102bd565b60405161008d919061085e565b60405180910390f35b6100b060048036038101906100ab91906108b1565b6102c3565b6040516100bd919061094d565b60405180910390f35b6100e060048036038101906100db91906109a6565b6105ce565b6040516100ed919061094d565b60405180910390f35b34801561010257600080fd5b5061010b61073f565b6040516101189190610a6c565b60405180910390f35b6001600081548092919061013490610ab6565b919050555060008060009054906101000a900473ffffffffffffffffffffffffffffffffffffffff1673ffffffffffffffffffffffffffffffffffffffff1663a9059cbb85856040518363ffffffff1660e01b8152600401610197929190610b1f565b6020604051808303816000875af11580156101b6573d6000803e3d6000fd5b505050506040513d601f19601f820116820180604052508101906101da9190610b5d565b90508061021c576040517f08c379a000000000000000000000000000000000000000000000000000000000815260040161021390610be7565b60405180910390fd5b3073ffffffffffffffffffffffffffffffffffffffff1663d0fedf5585846001806040518563ffffffff1660e01b815260040161025c9493929190610c07565b6020604051808303816000875af192505050801561029857506040513d601f19601f820116820180604052508101906102959190610b5d565b60015b1561029f57505b600160008154809291906102b290610ab6565b919050555050505050565b60015481565b6000808773ffffffffffffffffffffffffffffffffffffffff16866040516102ea90610c7d565b60006040518083038185875af1925050503d8060008114610327576040519150601f19603f3d011682016040523d82523d6000602084013e61032c565b606091505b5050905080610370576040517f08c379a000000000000000000000000000000000000000000000000000000000815260040161036790610d04565b60405180910390fd5b83156103d0576001600081548092919061038990610ab6565b919050555060006103cf576040517f08c379a00000000000000000000000000000000000000000000000000000000081526004016103c690610d70565b60405180910390fd5b5b60008060009054906101000a900473ffffffffffffffffffffffffffffffffffffffff1673ffffffffffffffffffffffffffffffffffffffff1663a9059cbb8a8a6040518363ffffffff1660e01b815260040161042e929190610b1f565b6020604051808303816000875af115801561044d573d6000803e3d6000fd5b505050506040513d601f19601f820116820180604052508101906104719190610b5d565b9050806104b3576040517f08c379a00000000000000000000000000000000000000000000000000000000081526004016104aa90610d04565b60405180910390fd5b831561051357600160008154809291906104cc90610ab6565b91905055506000610512576040517f08c379a000000000000000000000000000000000000000000000000000000000815260040161050990610d70565b60405180910390fd5b5b8873ffffffffffffffffffffffffffffffffffffffff168660405161053790610c7d565b60006040518083038185875af1925050503d8060008114610574576040519150601f19603f3d011682016040523d82523d6000602084013e610579565b606091505b505080925050816105bf576040517f08c379a00000000000000000000000000000000000000000000000000000000081526004016105b690610d04565b60405180910390fd5b81925050509695505050505050565b6000600160008154809291906105e390610ab6565b919050555060008060009054906101000a900473ffffffffffffffffffffffffffffffffffffffff1673ffffffffffffffffffffffffffffffffffffffff1663a9059cbb87876040518363ffffffff1660e01b8152600401610646929190610d9f565b6020604051808303816000875af1158015610665573d6000803e3d6000fd5b505050506040513d601f19601f820116820180604052508101906106899190610b5d565b905083156106d35760006106d2576040517f08c379a00000000000000000000000000000000000000000000000000000000081526004016106c990610d70565b60405180910390fd5b5b600160008154809291906106e690610dc8565b91905055508215610733576000610732576040517f08c379a000000000000000000000000000000000000000000000000000000000815260040161072990610d70565b60405180910390fd5b5b80915050949350505050565b60008054906101000a900473ffffffffffffffffffffffffffffffffffffffff1681565b600080fd5b600073ffffffffffffffffffffffffffffffffffffffff82169050919050565b600061079382610768565b9050919050565b6107a381610788565b81146107ae57600080fd5b50565b6000813590506107c08161079a565b92915050565b6000819050919050565b6107d9816107c6565b81146107e457600080fd5b50565b6000813590506107f6816107d0565b92915050565b60008060006060848603121561081557610814610763565b5b6000610823868287016107b1565b9350506020610834868287016107e7565b9250506040610845868287016107e7565b9150509250925092565b610858816107c6565b82525050565b6000602082019050610873600083018461084f565b92915050565b60008115159050919050565b61088e81610879565b811461089957600080fd5b50565b6000813590506108ab81610885565b92915050565b60008060008060008060c087890312156108ce576108cd610763565b5b60006108dc89828a016107b1565b96505060206108ed89828a016107e7565b95505060406108fe89828a016107e7565b945050606061090f89828a016107e7565b935050608061092089828a0161089c565b92505060a061093189828a0161089c565b9150509295509295509295565b61094781610879565b82525050565b6000602082019050610962600083018461093e565b92915050565b600061097382610768565b9050919050565b61098381610968565b811461098e57600080fd5b50565b6000813590506109a08161097a565b92915050565b600080600080608085870312156109c0576109bf610763565b5b60006109ce87828801610991565b94505060206109df878288016107e7565b93505060406109f08782880161089c565b9250506060610a018782880161089c565b91505092959194509250565b6000819050919050565b6000610a32610a2d610a2884610768565b610a0d565b610768565b9050919050565b6000610a4482610a17565b9050919050565b6000610a5682610a39565b9050919050565b610a6681610a4b565b82525050565b6000602082019050610a816000830184610a5d565b92915050565b7f4e487b7100000000000000000000000000000000000000000000000000000000600052601160045260246000fd5b6000610ac1826107c6565b91507fffffffffffffffffffffffffffffffffffffffffffffffffffffffffffffffff8203610af357610af2610a87565b5b600182019050919050565b6000610b0982610a39565b9050919050565b610b1981610afe565b82525050565b6000604082019050610b346000830185610b10565b610b41602083018461084f565b9392505050565b600081519050610b5781610885565b92915050565b600060208284031215610b7357610b72610763565b5b6000610b8184828501610b48565b91505092915050565b600082825260208201905092915050565b7f6661696c20746f207472616e7366657200000000000000000000000000000000600082015250565b6000610bd1601083610b8a565b9150610bdc82610b9b565b602082019050919050565b60006020820190508181036000830152610c0081610bc4565b9050919050565b6000608082019050610c1c6000830187610b10565b610c29602083018661084f565b610c36604083018561093e565b610c43606083018461093e565b95945050505050565b600081905092915050565b50565b6000610c67600083610c4c565b9150610c7282610c57565b600082019050919050565b6000610c8882610c5a565b9150819050919050565b7f4661696c656420746f2073656e6420457468657220746f2064656c656761746f60008201527f7200000000000000000000000000000000000000000000000000000000000000602082015250565b6000610cee602183610b8a565b9150610cf982610c92565b604082019050919050565b60006020820190508181036000830152610d1d81610ce1565b9050919050565b7f7265766572742068657265000000000000000000000000000000000000000000600082015250565b6000610d5a600b83610b8a565b9150610d6582610d24565b602082019050919050565b60006020820190508181036000830152610d8981610d4d565b9050919050565b610d9981610968565b82525050565b6000604082019050610db46000830185610d90565b610dc1602083018461084f565b9392505050565b6000610dd3826107c6565b915060008203610de657610de5610a87565b5b60018203905091905056fea2646970667358221220717498b1523771461ba761fe74a71d2d7a1cf8d21d4ce4049f6cb9fe6f3e88b064736f6c63430008140033",
  "linkReferences": {},
  "deployedLinkReferences": {}
}