{
  "_format": "hh-sol-artifact-1",
  "contractName": "ERC20TestCaller",
  "sourceName": "solidity/precompiles/erc20/testdata/ERC20TestCaller.sol",
  "abi": [
    {
      "inputs": [
        {
          "internalType": "address",
          "name": "tokenAddress",
          "type": "address"
        }
      ],
      "stateMutability": "nonpayable",
      "type": "constructor"
    },
    {
      "inputs": [],
      "name": "counter",
      "outputs": [
        {
          "internalType": "uint256",
          "name": "",
          "type": "uint256"
        }
      ],
      "stateMutability": "view",
      "type": "function"
    },
    {
      "inputs": [],
      "name": "token",
      "outputs": [
        {
          "internalType": "contract IERC20",
          "name": "",
          "type": "address"
        }
      ],
      "stateMutability": "view",
      "type": "function"
    },
    {
      "inputs": [
        {
          "internalType": "address",
          "name": "to",
          "type": "address"
        },
        {
          "internalType": "uint256",
          "name": "amount",
          "type": "uint256"
        },
        {
          "internalType": "bool",
          "name": "before",
          "type": "bool"
        },
        {
          "internalType": "bool",
          "name": "aft",
          "type": "bool"
        }
      ],
      "name": "transferWithRevert",
      "outputs": [
        {
          "internalType": "bool",
          "name": "",
          "type": "bool"
        }
      ],
      "stateMutability": "payable",
      "type": "function"
    }
  ],
  "bytecode": "0x608060405234801561001057600080fd5b5060405161074c38038061074c833981810160405281019061003291906100e3565b806000806101000a81548173ffffffffffffffffffffffffffffffffffffffff021916908373ffffffffffffffffffffffffffffffffffffffff160217905550600060018190555050610110565b600080fd5b600073ffffffffffffffffffffffffffffffffffffffff82169050919050565b60006100b082610085565b9050919050565b6100c0816100a5565b81146100cb57600080fd5b50565b6000815190506100dd816100b7565b92915050565b6000602082840312156100f9576100f8610080565b5b6000610107848285016100ce565b91505092915050565b61062d8061011f6000396000f3fe6080604052600436106100345760003560e01c806361bc221a14610039578063d0fedf5514610064578063fc0c546a14610094575b600080fd5b34801561004557600080fd5b5061004e6100bf565b60405161005b9190610273565b60405180910390f35b61007e60048036038101906100799190610355565b6100c5565b60405161008b91906103cb565b60405180910390f35b3480156100a057600080fd5b506100a9610236565b6040516100b69190610445565b60405180910390f35b60015481565b6000600160008154809291906100da9061048f565b919050555060008060009054906101000a900473ffffffffffffffffffffffffffffffffffffffff1673ffffffffffffffffffffffffffffffffffffffff1663a9059cbb87876040518363ffffffff1660e01b815260040161013d9291906104e6565b6020604051808303816000875af115801561015c573d6000803e3d6000fd5b505050506040513d601f19601f820116820180604052508101906101809190610524565b905083156101ca5760006101c9576040517f08c379a00000000000000000000000000000000000000000000000000000000081526004016101c0906105ae565b60405180910390fd5b5b600160008154809291906101dd906105ce565b9190505550821561022a576000610229576040517f08c379a0000000000000000000000000000000000000000000000000000000008152600401610220906105ae565b60405180910390fd5b5b80915050949350505050565b60008054906101000a900473ffffffffffffffffffffffffffffffffffffffff1681565b6000819050919050565b61026d8161025a565b82525050565b60006020820190506102886000830184610264565b92915050565b600080fd5b600073ffffffffffffffffffffffffffffffffffffffff82169050919050565b60006102be82610293565b9050919050565b6102ce816102b3565b81146102d957600080fd5b50565b6000813590506102eb816102c5565b92915050565b6102fa8161025a565b811461030557600080fd5b50565b600081359050610317816102f1565b92915050565b60008115159050919050565b6103328161031d565b811461033d57600080fd5b50565b60008135905061034f81610329565b92915050565b6000806000806080858703121561036f5761036e61028e565b5b600061037d878288016102dc565b945050602061038e87828801610308565b935050604061039f87828801610340565b92505060606103b087828801610340565b91505092959194509250565b6103c58161031d565b82525050565b60006020820190506103e060008301846103bc565b92915050565b6000819050919050565b600061040b61040661040184610293565b6103e6565b610293565b9050919050565b600061041d826103f0565b9050919050565b600061042f82610412565b9050919050565b61043f81610424565b82525050565b600060208201905061045a6000830184610436565b92915050565b7f4e487b7100000000000000000000000000000000000000000000000000000000600052601160045260246000fd5b600061049a8261025a565b91507fffffffffffffffffffffffffffffffffffffffffffffffffffffffffffffffff82036104cc576104cb610460565b5b600182019050919050565b6104e0816102b3565b82525050565b60006040820190506104fb60008301856104d7565b6105086020830184610264565b9392505050565b60008151905061051e81610329565b92915050565b60006020828403121561053a5761053961028e565b5b60006105488482850161050f565b91505092915050565b600082825260208201905092915050565b7f7265766572742068657265000000000000000000000000000000000000000000600082015250565b6000610598600b83610551565b91506105a382610562565b602082019050919050565b600060208201905081810360008301526105c78161058b565b9050919050565b60006105d98261025a565b9150600082036105ec576105eb610460565b5b60018203905091905056fea2646970667358221220bff80fc43aea6688562140f04973c1bd6f7937c084b850757e77c2dbd364ad4c64736f6c63430008130033",
  "linkReferences": {},
  "deployedLinkReferences": {}
}