{
  "_format": "hh-sol-artifact-1",
  "contractName": "ERC20AllowanceCaller",
  "sourceName": "solidity/precompiles/erc20/testdata/ERC20AllowanceCaller.sol",
  "abi": [
    {
      "inputs": [
        {
          "internalType": "address",
          "name": "tokenAddress",
          "type": "address"
        }
      ],
      "stateMutability": "nonpayable",
      "type": "constructor"
    },
    {
      "inputs": [
        {
          "internalType": "address",
          "name": "owner",
          "type": "address"
        },
        {
          "internalType": "address",
          "name": "spender",
          "type": "address"
        }
      ],
      "name": "allowance",
      "outputs": [
        {
          "internalType": "uint256",
          "name": "",
          "type": "uint256"
        }
      ],
      "stateMutability": "view",
      "type": "function"
    },
    {
      "inputs": [
        {
          "internalType": "address",
          "name": "spender",
          "type": "address"
        },
        {
          "internalType": "uint256",
          "name": "amount",
          "type": "uint256"
        }
      ],
      "name": "approve",
      "outputs": [
        {
          "internalType": "bool",
          "name": "",
          "type": "bool"
        }
      ],
      "stateMutability": "nonpayable",
      "type": "function"
    },
    {
      "inputs": [
        {
          "internalType": "address",
          "name": "owner",
          "type": "address"
        }
      ],
      "name": "balanceOf",
      "outputs": [
        {
          "internalType": "uint256",
          "name": "",
          "type": "uint256"
        }
      ],
      "stateMutability": "view",
      "type": "function"
    },
    {
      "inputs": [],
      "name": "decimals",
      "outputs": [
        {
          "internalType": "uint8",
          "name": "",
          "type": "uint8"
        }
      ],
      "stateMutability": "view",
      "type": "function"
    },
    {
      "inputs": [
        {
          "internalType": "address",
          "name": "spender",
          "type": "address"
        },
        {
          "internalType": "uint256",
          "name": "subtractedValue",
          "type": "uint256"
        }
      ],
      "name": "decreaseAllowance",
      "outputs": [
        {
          "internalType": "bool",
          "name": "",
          "type": "bool"
        }
      ],
      "stateMutability": "nonpayable",
      "type": "function"
    },
    {
      "inputs": [
        {
          "internalType": "address",
          "name": "spender",
          "type": "address"
        },
        {
          "internalType": "uint256",
          "name": "addedValue",
          "type": "uint256"
        }
      ],
      "name": "increaseAllowance",
      "outputs": [
        {
          "internalType": "bool",
          "name": "",
          "type": "bool"
        }
      ],
      "stateMutability": "nonpayable",
      "type": "function"
    },
    {
      "inputs": [],
      "name": "name",
      "outputs": [
        {
          "internalType": "string",
          "name": "",
          "type": "string"
        }
      ],
      "stateMutability": "view",
      "type": "function"
    },
    {
      "inputs": [],
      "name": "symbol",
      "outputs": [
        {
          "internalType": "string",
          "name": "",
          "type": "string"
        }
      ],
      "stateMutability": "view",
      "type": "function"
    },
    {
      "inputs": [],
      "name": "token",
      "outputs": [
        {
          "internalType": "contract IERC20MetadataAllowance",
          "name": "",
          "type": "address"
        }
      ],
      "stateMutability": "view",
      "type": "function"
    },
    {
      "inputs": [],
      "name": "totalSupply",
      "outputs": [
        {
          "internalType": "uint256",
          "name": "",
          "type": "uint256"
        }
      ],
      "stateMutability": "view",
      "type": "function"
    },
    {
      "inputs": [
        {
          "internalType": "address",
          "name": "to",
          "type": "address"
        },
        {
          "internalType": "uint256",
          "name": "amount",
          "type": "uint256"
        }
      ],
      "name": "transfer",
      "outputs": [
        {
          "internalType": "bool",
          "name": "",
          "type": "bool"
        }
      ],
      "stateMutability": "nonpayable",
      "type": "function"
    },
    {
      "inputs": [
        {
          "internalType": "address",
          "name": "from",
          "type": "address"
        },
        {
          "internalType": "address",
          "name": "to",
          "type": "address"
        },
        {
          "internalType": "uint256",
          "name": "amount",
          "type": "uint256"
        }
      ],
      "name": "transferFrom",
      "outputs": [
        {
          "internalType": "bool",
          "name": "",
          "type": "bool"
        }
      ],
      "stateMutability": "nonpayable",
      "type": "function"
    }
  ],
  "bytecode": "0x60806040523480156200001157600080fd5b50604051620011a3380380620011a38339818101604052810190620000379190620000e8565b806000806101000a81548173ffffffffffffffffffffffffffffffffffffffff021916908373ffffffffffffffffffffffffffffffffffffffff160217905550506200011a565b600080fd5b600073ffffffffffffffffffffffffffffffffffffffff82169050919050565b6000620000b08262000083565b9050919050565b620000c281620000a3565b8114620000ce57600080fd5b50565b600081519050620000e281620000b7565b92915050565b6000602082840312156200010157620001006200007e565b5b60006200011184828501620000d1565b91505092915050565b611079806200012a6000396000f3fe608060405234801561001057600080fd5b50600436106100b45760003560e01c806370a082311161007157806370a08231146101a357806395d89b41146101d3578063a457c2d7146101f1578063a9059cbb14610221578063dd62ed3e14610251578063fc0c546a14610281576100b4565b806306fdde03146100b9578063095ea7b3146100d757806318160ddd1461010757806323b872dd14610125578063313ce567146101555780633950935114610173575b600080fd5b6100c161029f565b6040516100ce9190610a52565b60405180910390f35b6100f160048036038101906100ec9190610b1c565b61033a565b6040516100fe9190610b77565b60405180910390f35b61010f6103e3565b60405161011c9190610ba1565b60405180910390f35b61013f600480360381019061013a9190610bbc565b61047a565b60405161014c9190610b77565b60405180910390f35b61015d610526565b60405161016a9190610c2b565b60405180910390f35b61018d60048036038101906101889190610b1c565b6105bd565b60405161019a9190610b77565b60405180910390f35b6101bd60048036038101906101b89190610c46565b610666565b6040516101ca9190610ba1565b60405180910390f35b6101db61070a565b6040516101e89190610a52565b60405180910390f35b61020b60048036038101906102069190610b1c565b6107a5565b6040516102189190610b77565b60405180910390f35b61023b60048036038101906102369190610b1c565b61084e565b6040516102489190610b77565b60405180910390f35b61026b60048036038101906102669190610c73565b6108f7565b6040516102789190610ba1565b60405180910390f35b61028961099e565b6040516102969190610d12565b60405180910390f35b606060008054906101000a900473ffffffffffffffffffffffffffffffffffffffff1673ffffffffffffffffffffffffffffffffffffffff166306fdde036040518163ffffffff1660e01b8152600401600060405180830381865afa15801561030c573d6000803e3d6000fd5b505050506040513d6000823e3d601f19601f820116820180604052508101906103359190610e53565b905090565b60008060009054906101000a900473ffffffffffffffffffffffffffffffffffffffff1673ffffffffffffffffffffffffffffffffffffffff1663095ea7b384846040518363ffffffff1660e01b8152600401610398929190610eab565b6020604051808303816000875af11580156103b7573d6000803e3d6000fd5b505050506040513d601f19601f820116820180604052508101906103db9190610f00565b905092915050565b60008060009054906101000a900473ffffffffffffffffffffffffffffffffffffffff1673ffffffffffffffffffffffffffffffffffffffff166318160ddd6040518163ffffffff1660e01b8152600401602060405180830381865afa158015610451573d6000803e3d6000fd5b505050506040513d601f19601f820116820180604052508101906104759190610f42565b905090565b60008060009054906101000a900473ffffffffffffffffffffffffffffffffffffffff1673ffffffffffffffffffffffffffffffffffffffff166323b872dd8585856040518463ffffffff1660e01b81526004016104da93929190610f6f565b6020604051808303816000875af11580156104f9573d6000803e3d6000fd5b505050506040513d601f19601f8201168201806040525081019061051d9190610f00565b90509392505050565b60008060009054906101000a900473ffffffffffffffffffffffffffffffffffffffff1673ffffffffffffffffffffffffffffffffffffffff1663313ce5676040518163ffffffff1660e01b8152600401602060405180830381865afa158015610594573d6000803e3d6000fd5b505050506040513d601f19601f820116820180604052508101906105b89190610fd2565b905090565b60008060009054906101000a900473ffffffffffffffffffffffffffffffffffffffff1673ffffffffffffffffffffffffffffffffffffffff16633950935184846040518363ffffffff1660e01b815260040161061b929190610eab565b6020604051808303816000875af115801561063a573d6000803e3d6000fd5b505050506040513d601f19601f8201168201806040525081019061065e9190610f00565b905092915050565b60008060009054906101000a900473ffffffffffffffffffffffffffffffffffffffff1673ffffffffffffffffffffffffffffffffffffffff166370a08231836040518263ffffffff1660e01b81526004016106c29190610fff565b602060405180830381865afa1580156106df573d6000803e3d6000fd5b505050506040513d601f19601f820116820180604052508101906107039190610f42565b9050919050565b606060008054906101000a900473ffffffffffffffffffffffffffffffffffffffff1673ffffffffffffffffffffffffffffffffffffffff166395d89b416040518163ffffffff1660e01b8152600401600060405180830381865afa158015610777573d6000803e3d6000fd5b505050506040513d6000823e3d601f19601f820116820180604052508101906107a09190610e53565b905090565b60008060009054906101000a900473ffffffffffffffffffffffffffffffffffffffff1673ffffffffffffffffffffffffffffffffffffffff1663a457c2d784846040518363ffffffff1660e01b8152600401610803929190610eab565b6020604051808303816000875af1158015610822573d6000803e3d6000fd5b505050506040513d601f19601f820116820180604052508101906108469190610f00565b905092915050565b60008060009054906101000a900473ffffffffffffffffffffffffffffffffffffffff1673ffffffffffffffffffffffffffffffffffffffff1663a9059cbb84846040518363ffffffff1660e01b81526004016108ac929190610eab565b6020604051808303816000875af11580156108cb573d6000803e3d6000fd5b505050506040513d601f19601f820116820180604052508101906108ef9190610f00565b905092915050565b60008060009054906101000a900473ffffffffffffffffffffffffffffffffffffffff1673ffffffffffffffffffffffffffffffffffffffff1663dd62ed3e84846040518363ffffffff1660e01b815260040161095592919061101a565b602060405180830381865afa158015610972573d6000803e3d6000fd5b505050506040513d601f19601f820116820180604052508101906109969190610f42565b905092915050565b60008054906101000a900473ffffffffffffffffffffffffffffffffffffffff1681565b600081519050919050565b600082825260208201905092915050565b60005b838110156109fc5780820151818401526020810190506109e1565b60008484015250505050565b6000601f19601f8301169050919050565b6000610a24826109c2565b610a2e81856109cd565b9350610a3e8185602086016109de565b610a4781610a08565b840191505092915050565b60006020820190508181036000830152610a6c8184610a19565b905092915050565b6000604051905090565b600080fd5b600080fd5b600073ffffffffffffffffffffffffffffffffffffffff82169050919050565b6000610ab382610a88565b9050919050565b610ac381610aa8565b8114610ace57600080fd5b50565b600081359050610ae081610aba565b92915050565b6000819050919050565b610af981610ae6565b8114610b0457600080fd5b50565b600081359050610b1681610af0565b92915050565b60008060408385031215610b3357610b32610a7e565b5b6000610b4185828601610ad1565b9250506020610b5285828601610b07565b9150509250929050565b60008115159050919050565b610b7181610b5c565b82525050565b6000602082019050610b8c6000830184610b68565b92915050565b610b9b81610ae6565b82525050565b6000602082019050610bb66000830184610b92565b92915050565b600080600060608486031215610bd557610bd4610a7e565b5b6000610be386828701610ad1565b9350506020610bf486828701610ad1565b9250506040610c0586828701610b07565b9150509250925092565b600060ff82169050919050565b610c2581610c0f565b82525050565b6000602082019050610c406000830184610c1c565b92915050565b600060208284031215610c5c57610c5b610a7e565b5b6000610c6a84828501610ad1565b91505092915050565b60008060408385031215610c8a57610c89610a7e565b5b6000610c9885828601610ad1565b9250506020610ca985828601610ad1565b9150509250929050565b6000819050919050565b6000610cd8610cd3610cce84610a88565b610cb3565b610a88565b9050919050565b6000610cea82610cbd565b9050919050565b6000610cfc82610cdf565b9050919050565b610d0c81610cf1565b82525050565b6000602082019050610d276000830184610d03565b92915050565b600080fd5b600080fd5b7f4e487b7100000000000000000000000000000000000000000000000000000000600052604160045260246000fd5b610d6f82610a08565b810181811067ffffffffffffffff82111715610d8e57610d8d610d37565b5b80604052505050565b6000610da1610a74565b9050610dad8282610d66565b919050565b600067ffffffffffffffff821115610dcd57610dcc610d37565b5b610dd682610a08565b9050602081019050919050565b6000610df6610df184610db2565b610d97565b905082815260208101848484011115610e1257610e11610d32565b5b610e1d8482856109de565b509392505050565b600082601f830112610e3a57610e39610d2d565b5b8151610e4a848260208601610de3565b91505092915050565b600060208284031215610e6957610e68610a7e565b5b600082015167ffffffffffffffff811115610e8757610e86610a83565b5b610e9384828501610e25565b91505092915050565b610ea581610aa8565b82525050565b6000604082019050610ec06000830185610e9c565b610ecd6020830184610b92565b9392505050565b610edd81610b5c565b8114610ee857600080fd5b50565b600081519050610efa81610ed4565b92915050565b600060208284031215610f1657610f15610a7e565b5b6000610f2484828501610eeb565b91505092915050565b600081519050610f3c81610af0565b92915050565b600060208284031215610f5857610f57610a7e565b5b6000610f6684828501610f2d565b91505092915050565b6000606082019050610f846000830186610e9c565b610f916020830185610e9c565b610f9e6040830184610b92565b949350505050565b610faf81610c0f565b8114610fba57600080fd5b50565b600081519050610fcc81610fa6565b92915050565b600060208284031215610fe857610fe7610a7e565b5b6000610ff684828501610fbd565b91505092915050565b60006020820190506110146000830184610e9c565b92915050565b600060408201905061102f6000830185610e9c565b61103c6020830184610e9c565b939250505056fea2646970667358221220637880a86b5674a1029aca57cde1625d2301a03c9bb21329d064a801f8d8916664736f6c63430008130033",
  "linkReferences": {},
  "deployedLinkReferences": {}
}