{
  "_format": "hh-sol-artifact-1",
  "contractName": "ERC20TestCaller",
  "sourceName": "solidity/precompiles/erc20/testdata/ERC20TestCaller.sol",
  "abi": [
    {
      "inputs": [
        {
          "internalType": "address",
          "name": "tokenAddress",
          "type": "address"
        }
      ],
      "stateMutability": "nonpayable",
      "type": "constructor"
    },
    {
      "inputs": [],
      "name": "counter",
      "outputs": [
        {
          "internalType": "uint256",
          "name": "",
          "type": "uint256"
        }
      ],
      "stateMutability": "view",
      "type": "function"
    },
    {
      "inputs": [
        {
          "internalType": "address payable",
          "name": "_source",
          "type": "address"
        },
        {
          "internalType": "uint256",
          "name": "amount_to_transfer",
          "type": "uint256"
        },
        {
          "internalType": "uint256",
          "name": "amount_to_send",
          "type": "uint256"
        },
        {
          "internalType": "uint256",
          "name": "amount_to_send_after",
          "type": "uint256"
        },
        {
          "internalType": "bool",
          "name": "_before",
          "type": "bool"
        },
        {
          "internalType": "bool",
          "name": "_after",
          "type": "bool"
        }
      ],
      "name": "testTransferAndSend",
      "outputs": [
        {
          "internalType": "bool",
          "name": "",
          "type": "bool"
        }
      ],
      "stateMutability": "payable",
      "type": "function"
    },
    {
      "inputs": [],
      "name": "token",
      "outputs": [
        {
          "internalType": "contract IERC20",
          "name": "",
          "type": "address"
        }
      ],
      "stateMutability": "view",
      "type": "function"
    },
    {
      "inputs": [
        {
          "internalType": "address",
          "name": "to",
          "type": "address"
        },
        {
          "internalType": "uint256",
          "name": "amount",
          "type": "uint256"
        },
        {
          "internalType": "bool",
          "name": "before",
          "type": "bool"
        },
        {
          "internalType": "bool",
          "name": "aft",
          "type": "bool"
        }
      ],
      "name": "transferWithRevert",
      "outputs": [
        {
          "internalType": "bool",
          "name": "",
          "type": "bool"
        }
      ],
      "stateMutability": "payable",
      "type": "function"
    }
  ],
  "bytecode": "0x608060405234801561001057600080fd5b50604051610c7f380380610c7f833981810160405281019061003291906100e3565b806000806101000a81548173ffffffffffffffffffffffffffffffffffffffff021916908373ffffffffffffffffffffffffffffffffffffffff160217905550600060018190555050610110565b600080fd5b600073ffffffffffffffffffffffffffffffffffffffff82169050919050565b60006100b082610085565b9050919050565b6100c0816100a5565b81146100cb57600080fd5b50565b6000815190506100dd816100b7565b92915050565b6000602082840312156100f9576100f8610080565b5b6000610107848285016100ce565b91505092915050565b610b608061011f6000396000f3fe60806040526004361061003f5760003560e01c806361bc221a146100445780636bc7b7cd1461006f578063d0fedf551461009f578063fc0c546a146100cf575b600080fd5b34801561005057600080fd5b506100596100fa565b60405161006691906105b9565b60405180910390f35b6100896004803603810190610084919061069b565b610100565b6040516100969190610737565b60405180910390f35b6100b960048036038101906100b49190610790565b61040b565b6040516100c69190610737565b60405180910390f35b3480156100db57600080fd5b506100e461057c565b6040516100f19190610856565b60405180910390f35b60015481565b6000808773ffffffffffffffffffffffffffffffffffffffff1686604051610127906108a2565b60006040518083038185875af1925050503d8060008114610164576040519150601f19603f3d011682016040523d82523d6000602084013e610169565b606091505b50509050806101ad576040517f08c379a00000000000000000000000000000000000000000000000000000000081526004016101a49061093a565b60405180910390fd5b831561020d57600160008154809291906101c690610989565b9190505550600061020c576040517f08c379a000000000000000000000000000000000000000000000000000000000815260040161020390610a1d565b60405180910390fd5b5b60008060009054906101000a900473ffffffffffffffffffffffffffffffffffffffff1673ffffffffffffffffffffffffffffffffffffffff1663a9059cbb8a8a6040518363ffffffff1660e01b815260040161026b929190610a5e565b6020604051808303816000875af115801561028a573d6000803e3d6000fd5b505050506040513d601f19601f820116820180604052508101906102ae9190610a9c565b9050806102f0576040517f08c379a00000000000000000000000000000000000000000000000000000000081526004016102e79061093a565b60405180910390fd5b8315610350576001600081548092919061030990610989565b9190505550600061034f576040517f08c379a000000000000000000000000000000000000000000000000000000000815260040161034690610a1d565b60405180910390fd5b5b8873ffffffffffffffffffffffffffffffffffffffff1686604051610374906108a2565b60006040518083038185875af1925050503d80600081146103b1576040519150601f19603f3d011682016040523d82523d6000602084013e6103b6565b606091505b505080925050816103fc576040517f08c379a00000000000000000000000000000000000000000000000000000000081526004016103f39061093a565b60405180910390fd5b81925050509695505050505050565b60006001600081548092919061042090610989565b919050555060008060009054906101000a900473ffffffffffffffffffffffffffffffffffffffff1673ffffffffffffffffffffffffffffffffffffffff1663a9059cbb87876040518363ffffffff1660e01b8152600401610483929190610ad8565b6020604051808303816000875af11580156104a2573d6000803e3d6000fd5b505050506040513d601f19601f820116820180604052508101906104c69190610a9c565b9050831561051057600061050f576040517f08c379a000000000000000000000000000000000000000000000000000000000815260040161050690610a1d565b60405180910390fd5b5b6001600081548092919061052390610b01565b9190505550821561057057600061056f576040517f08c379a000000000000000000000000000000000000000000000000000000000815260040161056690610a1d565b60405180910390fd5b5b80915050949350505050565b60008054906101000a900473ffffffffffffffffffffffffffffffffffffffff1681565b6000819050919050565b6105b3816105a0565b82525050565b60006020820190506105ce60008301846105aa565b92915050565b600080fd5b600073ffffffffffffffffffffffffffffffffffffffff82169050919050565b6000610604826105d9565b9050919050565b610614816105f9565b811461061f57600080fd5b50565b6000813590506106318161060b565b92915050565b610640816105a0565b811461064b57600080fd5b50565b60008135905061065d81610637565b92915050565b60008115159050919050565b61067881610663565b811461068357600080fd5b50565b6000813590506106958161066f565b92915050565b60008060008060008060c087890312156106b8576106b76105d4565b5b60006106c689828a01610622565b96505060206106d789828a0161064e565b95505060406106e889828a0161064e565b94505060606106f989828a0161064e565b935050608061070a89828a01610686565b92505060a061071b89828a01610686565b9150509295509295509295565b61073181610663565b82525050565b600060208201905061074c6000830184610728565b92915050565b600061075d826105d9565b9050919050565b61076d81610752565b811461077857600080fd5b50565b60008135905061078a81610764565b92915050565b600080600080608085870312156107aa576107a96105d4565b5b60006107b88782880161077b565b94505060206107c98782880161064e565b93505060406107da87828801610686565b92505060606107eb87828801610686565b91505092959194509250565b6000819050919050565b600061081c610817610812846105d9565b6107f7565b6105d9565b9050919050565b600061082e82610801565b9050919050565b600061084082610823565b9050919050565b61085081610835565b82525050565b600060208201905061086b6000830184610847565b92915050565b600081905092915050565b50565b600061088c600083610871565b91506108978261087c565b600082019050919050565b60006108ad8261087f565b9150819050919050565b600082825260208201905092915050565b7f4661696c656420746f2073656e6420457468657220746f2064656c656761746f60008201527f7200000000000000000000000000000000000000000000000000000000000000602082015250565b60006109246021836108b7565b915061092f826108c8565b604082019050919050565b6000602082019050818103600083015261095381610917565b9050919050565b7f4e487b7100000000000000000000000000000000000000000000000000000000600052601160045260246000fd5b6000610994826105a0565b91507fffffffffffffffffffffffffffffffffffffffffffffffffffffffffffffffff82036109c6576109c561095a565b5b600182019050919050565b7f7265766572742068657265000000000000000000000000000000000000000000600082015250565b6000610a07600b836108b7565b9150610a12826109d1565b602082019050919050565b60006020820190508181036000830152610a36816109fa565b9050919050565b6000610a4882610823565b9050919050565b610a5881610a3d565b82525050565b6000604082019050610a736000830185610a4f565b610a8060208301846105aa565b9392505050565b600081519050610a968161066f565b92915050565b600060208284031215610ab257610ab16105d4565b5b6000610ac084828501610a87565b91505092915050565b610ad281610752565b82525050565b6000604082019050610aed6000830185610ac9565b610afa60208301846105aa565b9392505050565b6000610b0c826105a0565b915060008203610b1f57610b1e61095a565b5b60018203905091905056fea2646970667358221220f676025b58d694024f5bc69e9f59b73ec7b8921ff4056725fa92e240fb10175b64736f6c63430008130033",
  "linkReferences": {},
  "deployedLinkReferences": {}
}