{
  "_format": "hh-sol-artifact-1",
  "contractName": "Greeter",
  "sourceName": "contracts/Greeter.sol",
  "abi": [
    {
      "inputs": [],
      "stateMutability": "nonpayable",
      "type": "constructor"
    },
    {
      "anonymous": false,
      "inputs": [
        {
          "indexed": false,
          "internalType": "address",
          "name": "from",
          "type": "address"
        },
        {
          "indexed": false,
          "internalType": "string",
          "name": "value",
          "type": "string"
        }
      ],
      "name": "ChangeGreeting",
      "type": "event"
    },
    {
      "inputs": [],
      "name": "greet",
      "outputs": [
        {
          "internalType": "string",
          "name": "",
          "type": "string"
        }
      ],
      "stateMutability": "view",
      "type": "function"
    },
    {
      "inputs": [],
      "name": "greeting",
      "outputs": [
        {
          "internalType": "string",
          "name": "",
          "type": "string"
        }
      ],
      "stateMutability": "view",
      "type": "function"
    },
    {
      "inputs": [
        {
          "internalType": "string",
          "name": "_greeting",
          "type": "string"
        }
      ],
      "name": "setGreeting",
      "outputs": [],
      "stateMutability": "nonpayable",
      "type": "function"
    }
  ],
  "bytecode": "0x60806040523480156200001157600080fd5b506040518060400160405280600581526020017f48656c6c6f00000000000000000000000000000000000000000000000000000081525060009081620000589190620002d9565b50620003c0565b600081519050919050565b7f4e487b7100000000000000000000000000000000000000000000000000000000600052604160045260246000fd5b7f4e487b7100000000000000000000000000000000000000000000000000000000600052602260045260246000fd5b60006002820490506001821680620000e157607f821691505b602082108103620000f757620000f662000099565b5b50919050565b60008190508160005260206000209050919050565b60006020601f8301049050919050565b600082821b905092915050565b600060088302620001617fffffffffffffffffffffffffffffffffffffffffffffffffffffffffffffffff8262000122565b6200016d868362000122565b95508019841693508086168417925050509392505050565b6000819050919050565b6000819050919050565b6000620001ba620001b4620001ae8462000185565b6200018f565b62000185565b9050919050565b6000819050919050565b620001d68362000199565b620001ee620001e582620001c1565b8484546200012f565b825550505050565b600090565b62000205620001f6565b62000212818484620001cb565b505050565b5b818110156200023a576200022e600082620001fb565b60018101905062000218565b5050565b601f82111562000289576200025381620000fd565b6200025e8462000112565b810160208510156200026e578190505b620002866200027d8562000112565b83018262000217565b50505b505050565b600082821c905092915050565b6000620002ae600019846008026200028e565b1980831691505092915050565b6000620002c983836200029b565b9150826002028217905092915050565b620002e4826200005f565b67ffffffffffffffff8111156200030057620002ff6200006a565b5b6200030c8254620000c8565b620003198282856200023e565b600060209050601f8311600181146200035157600084156200033c578287015190505b620003488582620002bb565b865550620003b8565b601f1984166200036186620000fd565b60005b828110156200038b5784890151825560018201915060208501945060208101905062000364565b86831015620003ab5784890151620003a7601f8916826200029b565b8355505b6001600288020188555050505b505050505050565b6107dd80620003d06000396000f3fe608060405234801561001057600080fd5b50600436106100415760003560e01c8063a413686214610046578063cfae321714610062578063ef690cc014610080575b600080fd5b610060600480360381019061005b9190610364565b61009e565b005b61006a6100ea565b604051610077919061042c565b60405180910390f35b61008861017c565b604051610095919061042c565b60405180910390f35b80600090816100ad9190610664565b507f61ae4cbae83f72235cd9fa781d18fcb08ff5fa4a44fcc1630fde673bb004115133826040516100df929190610777565b60405180910390a150565b6060600080546100f99061047d565b80601f01602080910402602001604051908101604052809291908181526020018280546101259061047d565b80156101725780601f1061014757610100808354040283529160200191610172565b820191906000526020600020905b81548152906001019060200180831161015557829003601f168201915b5050505050905090565b600080546101899061047d565b80601f01602080910402602001604051908101604052809291908181526020018280546101b59061047d565b80156102025780601f106101d757610100808354040283529160200191610202565b820191906000526020600020905b8154815290600101906020018083116101e557829003601f168201915b505050505081565b6000604051905090565b600080fd5b600080fd5b600080fd5b600080fd5b6000601f19601f8301169050919050565b7f4e487b7100000000000000000000000000000000000000000000000000000000600052604160045260246000fd5b61027182610228565b810181811067ffffffffffffffff821117156102905761028f610239565b5b80604052505050565b60006102a361020a565b90506102af8282610268565b919050565b600067ffffffffffffffff8211156102cf576102ce610239565b5b6102d882610228565b9050602081019050919050565b82818337600083830152505050565b6000610307610302846102b4565b610299565b90508281526020810184848401111561032357610322610223565b5b61032e8482856102e5565b509392505050565b600082601f83011261034b5761034a61021e565b5b813561035b8482602086016102f4565b91505092915050565b60006020828403121561037a57610379610214565b5b600082013567ffffffffffffffff81111561039857610397610219565b5b6103a484828501610336565b91505092915050565b600081519050919050565b600082825260208201905092915050565b60005b838110156103e75780820151818401526020810190506103cc565b60008484015250505050565b60006103fe826103ad565b61040881856103b8565b93506104188185602086016103c9565b61042181610228565b840191505092915050565b6000602082019050818103600083015261044681846103f3565b905092915050565b7f4e487b7100000000000000000000000000000000000000000000000000000000600052602260045260246000fd5b6000600282049050600182168061049557607f821691505b6020821081036104a8576104a761044e565b5b50919050565b60008190508160005260206000209050919050565b60006020601f8301049050919050565b600082821b905092915050565b6000600883026105107fffffffffffffffffffffffffffffffffffffffffffffffffffffffffffffffff826104d3565b61051a86836104d3565b95508019841693508086168417925050509392505050565b6000819050919050565b6000819050919050565b600061056161055c61055784610532565b61053c565b610532565b9050919050565b6000819050919050565b61057b83610546565b61058f61058782610568565b8484546104e0565b825550505050565b600090565b6105a4610597565b6105af818484610572565b505050565b5b818110156105d3576105c860008261059c565b6001810190506105b5565b5050565b601f821115610618576105e9816104ae565b6105f2846104c3565b81016020851015610601578190505b61061561060d856104c3565b8301826105b4565b50505b505050565b600082821c905092915050565b600061063b6000198460080261061d565b1980831691505092915050565b6000610654838361062a565b9150826002028217905092915050565b61066d826103ad565b67ffffffffffffffff81111561068657610685610239565b5b610690825461047d565b61069b8282856105d7565b600060209050601f8311600181146106ce57600084156106bc578287015190505b6106c68582610648565b86555061072e565b601f1984166106dc866104ae565b60005b82811015610704578489015182556001820191506020850194506020810190506106df565b86831015610721578489015161071d601f89168261062a565b8355505b6001600288020188555050505b505050505050565b600073ffffffffffffffffffffffffffffffffffffffff82169050919050565b600061076182610736565b9050919050565b61077181610756565b82525050565b600060408201905061078c6000830185610768565b818103602083015261079e81846103f3565b9050939250505056fea2646970667358221220aef172cce192b3e808468ab85214e717b7f7285d7b57e6de05e83441e90a363564736f6c63430008120033",
  "linkReferences": {},
  "deployedLinkReferences": {}
}