{
  "_format": "hh-sol-artifact-1",
  "contractName": "StateContract",
  "sourceName": "contracts/StateContract.sol",
  "abi": [
    {
      "inputs": [],
      "stateMutability": "nonpayable",
      "type": "constructor"
    },
    {
      "inputs": [
        {
          "internalType": "uint256",
          "name": "a",
          "type": "uint256"
        },
        {
          "internalType": "uint256",
          "name": "b",
          "type": "uint256"
        }
      ],
      "name": "add",
      "outputs": [
        {
          "internalType": "uint256",
          "name": "",
          "type": "uint256"
        }
      ],
      "stateMutability": "nonpayable",
      "type": "function"
    },
    {
      "inputs": [],
      "name": "destruct",
      "outputs": [],
      "stateMutability": "nonpayable",
      "type": "function"
    },
    {
      "inputs": [],
      "name": "get",
      "outputs": [
        {
          "internalType": "uint256",
          "name": "",
          "type": "uint256"
        }
      ],
      "stateMutability": "view",
      "type": "function"
    }
  ],
  "bytecode": "0x608060405234801561001057600080fd5b50336000806101000a81548173ffffffffffffffffffffffffffffffffffffffff021916908373ffffffffffffffffffffffffffffffffffffffff160217905550610349806100606000396000f3fe608060405234801561001057600080fd5b50600436106100415760003560e01c80632b68b9c6146100465780636d4ce63c14610050578063771602f71461006e575b600080fd5b61004e61009e565b005b610058610165565b60405161006591906101a7565b60405180910390f35b610088600480360381019061008391906101f3565b61016f565b60405161009591906101a7565b60405180910390f35b60008054906101000a900473ffffffffffffffffffffffffffffffffffffffff1673ffffffffffffffffffffffffffffffffffffffff163373ffffffffffffffffffffffffffffffffffffffff161461012c576040517f08c379a000000000000000000000000000000000000000000000000000000000815260040161012390610290565b60405180910390fd5b60008054906101000a900473ffffffffffffffffffffffffffffffffffffffff1673ffffffffffffffffffffffffffffffffffffffff16ff5b6000600154905090565b6000818361017d91906102df565b600181905550600154905092915050565b6000819050919050565b6101a18161018e565b82525050565b60006020820190506101bc6000830184610198565b92915050565b600080fd5b6101d08161018e565b81146101db57600080fd5b50565b6000813590506101ed816101c7565b92915050565b6000806040838503121561020a576102096101c2565b5b6000610218858286016101de565b9250506020610229858286016101de565b9150509250929050565b600082825260208201905092915050565b7f74782073656e646572206973206e6f7420636f6e7472616374206f776e657200600082015250565b600061027a601f83610233565b915061028582610244565b602082019050919050565b600060208201905081810360008301526102a98161026d565b9050919050565b7f4e487b7100000000000000000000000000000000000000000000000000000000600052601160045260246000fd5b60006102ea8261018e565b91506102f58361018e565b925082820190508082111561030d5761030c6102b0565b5b9291505056fea2646970667358221220a5159bada6e20b3bac0d79bb94db82eae4f435f6b6211d1702db90d2b283ed4d64736f6c63430008120033",
  "linkReferences": {},
  "deployedLinkReferences": {}
}