{
  "_format": "hh-sol-artifact-1",
  "contractName": "tokenTransfer",
  "sourceName": "solidity/x/erc20/keeper/testdata/tokenTransfer.sol",
  "abi": [
    {
      "inputs": [
        {
          "internalType": "address",
          "name": "tokenAddress",
          "type": "address"
        }
      ],
      "stateMutability": "nonpayable",
      "type": "constructor"
    },
    {
      "inputs": [
        {
          "internalType": "address",
          "name": "to",
          "type": "address"
        },
        {
          "internalType": "uint256",
          "name": "amount",
          "type": "uint256"
        }
      ],
      "name": "transferToken",
      "outputs": [],
      "stateMutability": "nonpayable",
      "type": "function"
    }
  ],
  "bytecode": "0x608060405234801561001057600080fd5b506040516103c13803806103c1833981810160405281019061003291906100db565b806000806101000a81548173ffffffffffffffffffffffffffffffffffffffff021916908373ffffffffffffffffffffffffffffffffffffffff16021790555050610108565b600080fd5b600073ffffffffffffffffffffffffffffffffffffffff82169050919050565b60006100a88261007d565b9050919050565b6100b88161009d565b81146100c357600080fd5b50565b6000815190506100d5816100af565b92915050565b6000602082840312156100f1576100f0610078565b5b60006100ff848285016100c6565b91505092915050565b6102aa806101176000396000f3fe608060405234801561001057600080fd5b506004361061002b5760003560e01c80631072cbea14610030575b600080fd5b61004a60048036038101906100459190610188565b61004c565b005b60008054906101000a900473ffffffffffffffffffffffffffffffffffffffff1673ffffffffffffffffffffffffffffffffffffffff1663a9059cbb83836040518363ffffffff1660e01b81526004016100a79291906101e6565b6020604051808303816000875af11580156100c6573d6000803e3d6000fd5b505050506040513d601f19601f820116820180604052508101906100ea9190610247565b505050565b600080fd5b600073ffffffffffffffffffffffffffffffffffffffff82169050919050565b600061011f826100f4565b9050919050565b61012f81610114565b811461013a57600080fd5b50565b60008135905061014c81610126565b92915050565b6000819050919050565b61016581610152565b811461017057600080fd5b50565b6000813590506101828161015c565b92915050565b6000806040838503121561019f5761019e6100ef565b5b60006101ad8582860161013d565b92505060206101be85828601610173565b9150509250929050565b6101d181610114565b82525050565b6101e081610152565b82525050565b60006040820190506101fb60008301856101c8565b61020860208301846101d7565b9392505050565b60008115159050919050565b6102248161020f565b811461022f57600080fd5b50565b6000815190506102418161021b565b92915050565b60006020828403121561025d5761025c6100ef565b5b600061026b84828501610232565b9150509291505056fea264697066735822122074931e32c112e103b40fce5ba28018e106de0d06687ac76b46085ed531c19fa864736f6c63430008140033",
  "linkReferences": {},
  "deployedLinkReferences": {}
}