{
  "_format": "hh-sol-artifact-1",
  "contractName": "FlashLoan",
  "sourceName": "solidity/x/evm/statedb/testdata/FlashLoan.sol",
  "abi": [
    {
      "inputs": [],
      "stateMutability": "nonpayable",
      "type": "constructor"
    },
    {
      "inputs": [
        {
          "internalType": "address",
          "name": "_token",
          "type": "address"
        },
        {
          "internalType": "string",
          "name": "_validator",
          "type": "string"
        },
        {
          "internalType": "uint256",
          "name": "_amount",
          "type": "uint256"
        }
      ],
      "name": "flashLoan",
      "outputs": [
        {
          "internalType": "bool",
          "name": "",
          "type": "bool"
        }
      ],
      "stateMutability": "nonpayable",
      "type": "function"
    },
    {
      "inputs": [],
      "name": "owner",
      "outputs": [
        {
          "internalType": "address",
          "name": "",
          "type": "address"
        }
      ],
      "stateMutability": "view",
      "type": "function"
    }
  ],
  "bytecode": "0x608060405234801561001057600080fd5b50336000806101000a81548173ffffffffffffffffffffffffffffffffffffffff021916908373ffffffffffffffffffffffffffffffffffffffff160217905550610eea806100606000396000f3fe608060405234801561001057600080fd5b50600436106100365760003560e01c80638da5cb5b1461003b578063ee52ad7114610059575b600080fd5b610043610089565b60405161005091906106dd565b60405180910390f35b610073600480360381019061006e91906108b4565b6100ad565b604051610080919061093e565b60405180910390f35b60008054906101000a900473ffffffffffffffffffffffffffffffffffffffff1681565b60008060009054906101000a900473ffffffffffffffffffffffffffffffffffffffff1673ffffffffffffffffffffffffffffffffffffffff163373ffffffffffffffffffffffffffffffffffffffff161461013e576040517f08c379a0000000000000000000000000000000000000000000000000000000008152600401610135906109dc565b60405180910390fd5b6000849050828173ffffffffffffffffffffffffffffffffffffffff1663dd62ed3e33306040518363ffffffff1660e01b815260040161017f9291906109fc565b602060405180830381865afa15801561019c573d6000803e3d6000fd5b505050506040513d601f19601f820116820180604052508101906101c09190610a3a565b1015610201576040517f08c379a00000000000000000000000000000000000000000000000000000000081526004016101f890610ab3565b60405180910390fd5b60008173ffffffffffffffffffffffffffffffffffffffff166370a08231306040518263ffffffff1660e01b815260040161023c91906106dd565b602060405180830381865afa158015610259573d6000803e3d6000fd5b505050506040513d601f19601f8201168201806040525081019061027d9190610a3a565b905060008273ffffffffffffffffffffffffffffffffffffffff166323b872dd3330886040518463ffffffff1660e01b81526004016102be93929190610ae2565b6020604051808303816000875af11580156102dd573d6000803e3d6000fd5b505050506040513d601f19601f820116820180604052508101906103019190610b45565b905080610343576040517f08c379a000000000000000000000000000000000000000000000000000000000815260040161033a90610be4565b60405180910390fd5b848261034f9190610c33565b8373ffffffffffffffffffffffffffffffffffffffff166370a08231306040518263ffffffff1660e01b815260040161038891906106dd565b602060405180830381865afa1580156103a5573d6000803e3d6000fd5b505050506040513d601f19601f820116820180604052508101906103c99190610a3a565b14610409576040517f08c379a000000000000000000000000000000000000000000000000000000000815260040161040090610cb3565b60405180910390fd5b61080073ffffffffffffffffffffffffffffffffffffffff166353266bbb3388886040518463ffffffff1660e01b815260040161044893929190610d41565b6020604051808303816000875af1158015610467573d6000803e3d6000fd5b505050506040513d601f19601f8201168201806040525081019061048b9190610b45565b9050806104cd576040517f08c379a00000000000000000000000000000000000000000000000000000000081526004016104c490610dcb565b60405180910390fd5b8273ffffffffffffffffffffffffffffffffffffffff166370a08231306040518263ffffffff1660e01b815260040161050691906106dd565b602060405180830381865afa158015610523573d6000803e3d6000fd5b505050506040513d601f19601f820116820180604052508101906105479190610a3a565b91508273ffffffffffffffffffffffffffffffffffffffff1663a9059cbb33876040518363ffffffff1660e01b8152600401610584929190610deb565b6020604051808303816000875af11580156105a3573d6000803e3d6000fd5b505050506040513d601f19601f820116820180604052508101906105c79190610b45565b5084826105d49190610e14565b8373ffffffffffffffffffffffffffffffffffffffff166370a08231306040518263ffffffff1660e01b815260040161060d91906106dd565b602060405180830381865afa15801561062a573d6000803e3d6000fd5b505050506040513d601f19601f8201168201806040525081019061064e9190610a3a565b1461068e576040517f08c379a000000000000000000000000000000000000000000000000000000000815260040161068590610e94565b60405180910390fd5b600193505050509392505050565b600073ffffffffffffffffffffffffffffffffffffffff82169050919050565b60006106c78261069c565b9050919050565b6106d7816106bc565b82525050565b60006020820190506106f260008301846106ce565b92915050565b6000604051905090565b600080fd5b600080fd5b610715816106bc565b811461072057600080fd5b50565b6000813590506107328161070c565b92915050565b600080fd5b600080fd5b6000601f19601f8301169050919050565b7f4e487b7100000000000000000000000000000000000000000000000000000000600052604160045260246000fd5b61078b82610742565b810181811067ffffffffffffffff821117156107aa576107a9610753565b5b80604052505050565b60006107bd6106f8565b90506107c98282610782565b919050565b600067ffffffffffffffff8211156107e9576107e8610753565b5b6107f282610742565b9050602081019050919050565b82818337600083830152505050565b600061082161081c846107ce565b6107b3565b90508281526020810184848401111561083d5761083c61073d565b5b6108488482856107ff565b509392505050565b600082601f83011261086557610864610738565b5b813561087584826020860161080e565b91505092915050565b6000819050919050565b6108918161087e565b811461089c57600080fd5b50565b6000813590506108ae81610888565b92915050565b6000806000606084860312156108cd576108cc610702565b5b60006108db86828701610723565b935050602084013567ffffffffffffffff8111156108fc576108fb610707565b5b61090886828701610850565b92505060406109198682870161089f565b9150509250925092565b60008115159050919050565b61093881610923565b82525050565b6000602082019050610953600083018461092f565b92915050565b600082825260208201905092915050565b7f4f6e6c79206f776e65722063616e2063616c6c20746869732066756e6374696f60008201527f6e00000000000000000000000000000000000000000000000000000000000000602082015250565b60006109c6602183610959565b91506109d18261096a565b604082019050919050565b600060208201905081810360008301526109f5816109b9565b9050919050565b6000604082019050610a1160008301856106ce565b610a1e60208301846106ce565b9392505050565b600081519050610a3481610888565b92915050565b600060208284031215610a5057610a4f610702565b5b6000610a5e84828501610a25565b91505092915050565b7f496e73756666696369656e7420616c6c6f77616e636500000000000000000000600082015250565b6000610a9d601683610959565b9150610aa882610a67565b602082019050919050565b60006020820190508181036000830152610acc81610a90565b9050919050565b610adc8161087e565b82525050565b6000606082019050610af760008301866106ce565b610b0460208301856106ce565b610b116040830184610ad3565b949350505050565b610b2281610923565b8114610b2d57600080fd5b50565b600081519050610b3f81610b19565b92915050565b600060208284031215610b5b57610b5a610702565b5b6000610b6984828501610b30565b91505092915050565b7f4661696c656420746f207472616e7366657220746f6b656e7320666f7220666c60008201527f617368206c6f616e000000000000000000000000000000000000000000000000602082015250565b6000610bce602883610959565b9150610bd982610b72565b604082019050919050565b60006020820190508181036000830152610bfd81610bc1565b9050919050565b7f4e487b7100000000000000000000000000000000000000000000000000000000600052601160045260246000fd5b6000610c3e8261087e565b9150610c498361087e565b9250828201905080821115610c6157610c60610c04565b5b92915050565b7f466c617368206c6f616e206661696c6564000000000000000000000000000000600082015250565b6000610c9d601183610959565b9150610ca882610c67565b602082019050919050565b60006020820190508181036000830152610ccc81610c90565b9050919050565b600081519050919050565b60005b83811015610cfc578082015181840152602081019050610ce1565b60008484015250505050565b6000610d1382610cd3565b610d1d8185610959565b9350610d2d818560208601610cde565b610d3681610742565b840191505092915050565b6000606082019050610d5660008301866106ce565b8181036020830152610d688185610d08565b9050610d776040830184610ad3565b949350505050565b7f6661696c656420746f2064656c65676174650000000000000000000000000000600082015250565b6000610db5601283610959565b9150610dc082610d7f565b602082019050919050565b60006020820190508181036000830152610de481610da8565b9050919050565b6000604082019050610e0060008301856106ce565b610e0d6020830184610ad3565b9392505050565b6000610e1f8261087e565b9150610e2a8361087e565b9250828203905081811115610e4257610e41610c04565b5b92915050565b7f466c617368206c6f616e2072657061796d656e74206661696c65640000000000600082015250565b6000610e7e601b83610959565b9150610e8982610e48565b602082019050919050565b60006020820190508181036000830152610ead81610e71565b905091905056fea264697066735822122057b4e05b96b02acf54c697cdf4a7032ce06061074aa1ac3505b5ac0ef5d5908a64736f6c63430008130033",
  "linkReferences": {},
  "deployedLinkReferences": {}
}